:100000000C9493000C94BB000C94BB000C94BB00AC
:100010000C94BB000C94BB000C94BB000C947416A5
:100020000C94BB000C94BB000C94BB000C943A1BCA
:100030000C94BB000C94BB000C94BB000C94BB0054
:100040000C94F61B0C94BB000C945F1F0C94911F36
:100050000C94BB000C94BB000C94BB000C94BB0034
:100060000C94BB000C94BB008C036F0371037303EF
:100070007503770379037C038403084AD73B3BCE9F
:10008000016E84BCBFFDC12F3D6C74319ABD568397
:100090003DDA3D00C77F11BED9E4BB4C3E916BAA4F
:1000A000AABE000000803F05A84CCDB2D44EB9389E
:1000B00036A9020C50B9918688083CA6AAAA2ABE85
:1000C000000000803F000000000800020100000363
:1000D00004070000000000000000010204081020D6
:1000E00040800102040810200102040810200404CA
:1000F00004040404040402020202020203030303D0
:100100000303000000002300260029000000000077
:10011000250028002B0000000000240027002A00F2
:10012000C70EC11F190F11241FBECFEFD8E0DEBFCD
:10013000CDBF11E0A0E0B1E0ECE7FDE402C0059026
:100140000D92A038B107D9F724E0A0E8B1E001C0D2
:100150001D92A73AB207E1F711E0C4E2D1E004C072
:100160002297FE010E94A024C032D107C9F70E9445
:1001700005200C94B1260C9400000895CF93DF93D2
:10018000EB012CE231E040E050E0BC0181E493E07F
:100190000E94491024E22C9FC0012D9F900D112434
:1001A0004E9690930D0180930C01DF91CF910895AD
:1001B00060E070E08DEC92E00E94F51260E070E08B
:1001C0008AED92E00E94F51260E070E082EC92E02D
:1001D0000E94941060E070E087EB92E00C94941021
:1001E0000F93CF93C82F0E94401C6093AF0270936F
:1001F000B0028093B1029093B202C03409F435C1C9
:1002000008F041C0CD3009F4EDC018F5C83009F44C
:100210007AC1B0F4C73009F083C183E090E09093D5
:10022000B5028093B40210925202109253021092BF
:1002300054021092550280E090E0A8ECB2EC4DC15F
:10024000C93009F438C1CC3009F06AC161E070E00E
:1002500061C1C83109F45CC158F4C53109F4EAC080
:10026000C63109F05DC160E070E086E291E054C102
:10027000C93109F405C1CC3109F052C165E070E023
:1002800089EB91E049C1C63409F443C058F5C33441
:1002900009F49CC030F4C23409F042C187E090E018
:1002A0002DC1C43409F474C0C53409F039C186E9DC
:1002B00090E090930D0180930C011092B602109281
:1002C000A702109286020E94D8002CE231E040E0A2
:1002D00050E066E271E081E493E00E94491000E0A2
:1002E00020E072C0C23509F404C140F4C734B1F152
:1002F000CA3409F015C186E090E000C1CA3509F49E
:10030000FBC0CE3509F00CC163E070E08EE591E0F2
:1003100003C184E690E090930D0180930C0181E08D
:100320008093B602109286020E94D8002CE231E03F
:1003300040E050E06AE471E081E493E00E944910FB
:1003400000E02AE040E060E086E593E00E94181AB1
:1003500086E593E0CF910F910C946A1A82E0809326
:10036000B60284E690E090930D0180930C01109208
:1003700086020E94D8002CE231E040E050E06EE5B9
:1003800071E081E493E00E9449100AE020E0DACFB6
:1003900083E08093B60281E0809386021092A902E6
:1003A0001092B30287EE92E00E9443130E94D8009D
:1003B0002CE231E040E050E069E871E081E493E054
:1003C0000E94491000E02AE04AE0BDCF81E080931E
:1003D000A702109286022CE231E040E050E069EB87
:1003E00071E022C08091A90290E0019663E070E084
:1003F0000E9449248093A902892B81F4C0E000E087
:1004000020E040E06C2F8DE493E00E94F519CF5F6F
:10041000C830A9F78DE493E00E946A1A2CE231E01B
:1004200040E050E06FEE71E081E493E0CF910F91F6
:100430000C9449108091B30290E0019663E070E063
:100440000E9449248093B302892B41F720E040E0C9
:1004500060E088E293E00E941A1B20E040E060E048
:1004600088E293E00E94201BD9CF81E090E0909336
:10047000B5028093B40280E090E0A0EAB2E40AC042
:1004800082E090E09093B5028093B40280E090E027
:10049000A0EAB2EC8093520290935302A0935402CC
:1004A000B09355021092320210923302109234022D
:1004B000109235021AC084E090E09093B5028093C8
:1004C000B4021092520210925302109254021092EF
:1004D000550280E090E0A8ECB2E480933202909361
:1004E0003302A0933402B093350281E08093A502D9
:1004F00017C088E090E002C085E090E09093B502DC
:100500008093B4020DC064E070E089E891E004C01B
:1005100062E070E08AE491E0CF910F910C94BE000C
:10052000CF910F910895CF93DF93D62FC72F97FDCB
:100530000196BC01759567957195619571098DEC72
:1005400092E00E94F5128D2F9C2F97FD0196BC0121
:10055000759567958AED92E0DF91CF910C94F51235
:100560002091A70280910C0190910D01211103C0EF
:10057000BC010C9493029C0137FF02C02F5F3F4FD8
:10058000B901759567957195619571098DEC92E04A
:100590000C94F5128091A70260910C0170910D01ED
:1005A000811107C088279927861B970BBC010C94E3
:1005B000930277FF02C06F5F7F4F759567958DEC53
:1005C00092E00C94F5122091A70280910C01909179
:1005D0000D01BC01211105C09195819591090C94E3
:1005E000930297FF02C06F5F7F4F759567958AED05
:1005F00092E00C94F5122091A70280910C01909149
:100600000D01211106C066277727681B790B0C9412
:10061000930297FD0196BC0175956795719561955B
:1006200071098AED92E00C94F512CF93C82F87E2FE
:1006300093E00E94DB17882329F08091A802882389
:1006400009F43FC087E293E00E94DB17811102C0EA
:100650001092A80285E393E00E94F91785E393E0E6
:100660000E9412188F3F934011F480E008C085E388
:1006700093E00E941218853F9140BCF381E0C130A5
:1006800061F48091A8028130A9F060910C01709111
:100690000D017195619571090FC0C23059F49091A7
:1006A000A802923039F0811105C060910C0170915F
:1006B0000D0102C060E070E082EC92E0CF910C94FA
:1006C0009410C093A802C6CFE091B402F091B50295
:1006D000E930F10518F5EC5CFF4F0C949E240C9466
:1006E000B0020C94CA020C94E3020C94FB0281E069
:1006F00001C082E00C94150360910C0170910D0112
:1007000071956195710904C060910C0170910D01A2
:1007100087EB92E00C9494100C94D80008950F93FA
:10072000CF93DF9360E082E00E94821D0E94D80098
:10073000C0E0D0E00C2F2C2F4C2F6D2F8DE493E0D8
:100740000E94F519DF5FD830A9F78DE493E00E948D
:100750006A1A64E170E080E090E00E946F1CCF5F55
:10076000CE3139F7D0E00C2F2C2F4C2F6D2F8DE48C
:1007700093E00E94F519DF5FD830A9F78DE493E08C
:100780000E946A1A64E170E080E090E00E946F1CB1
:10079000C15040F720E233E040E050E06FEE71E0FE
:1007A00081E493E00E94E10F20E040E060E088E215
:1007B00093E00E941A1B20E040E060E088E293E0B2
:1007C0000E94201B82E493E00E94361726E040E05E
:1007D00052EC61E070E080E094E00E94FD1E68EE63
:1007E00073E080E090E00E946F1C80E090E0A0E861
:1007F000BFEB8093720290937302A0937402B09344
:10080000750280E090E0A0EDB1E4809366029093E1
:100810006702A0936802B093690280E090E0A0E4D0
:10082000B0E480936A0290936B02A0936C02B09341
:100830006D028DEC9CECACE4BEE380936E02909371
:100840006F02A0937002B09371028AE097EDA3EA61
:10085000BCE38093460290934702A0934802B09372
:10086000490286EA9BE9A4E4BBE380934A029093A1
:100870004B02A0934C02B0934D02DF91CF910F91A8
:10088000089586E00E94DD1CBC01882777FD8095D5
:10089000982F0E94682088E293E00E94AB1A0E9481
:1008A000E9218FEF860F813360F080910C019091E8
:1008B0000D01BC010E94930264E670E080E090E0CC
:1008C00066C0603168F162E070E080E090E00E9414
:1008D0007020611571058105910589F06130710500
:1008E00081059105C1F420910C0130910D01C901E0
:1008F0006BEF7FEF0E944924CB01B9010AC0209120
:100900000C0130910D01C9016BEF7FEF0E9449246A
:10091000C9010E94930268EC70E080E090E037C06B
:1009200080910C0190910D01919581959109BC01E7
:100930000E9493026CE271E080E090E00E946F1CE4
:1009400062E070E080E090E00E9470206115710527
:100950008105910571F0613071058105910599F46A
:1009600080910C0190910D01BC01919581959109A7
:1009700008C080910C0190910D0166277727681BB4
:10098000790B0E9493026CE271E080E090E00C949D
:100990006F1CCF93DF931092A9028BE393E00E9428
:1009A000F9178BE393E00E941218EC018BE393E0BC
:1009B0000E94311821E0843F914008F020E0C43FBC
:1009C000D14058F480910C0190910D01211103C088
:1009D00021E020930E02BC0121C0222341F082E0DD
:1009E00080930E0280910C0190910D01F4CF8091C3
:1009F0000E02813049F480910C0190910D01BC01EF
:100A00009195819591090AC0823061F480910C0121
:100A100090910D0166277727681B790BDF91CF91A5
:100A20000C949302DF91CF9108954F925F926F9251
:100A30007F928F929F92AF92BF92CF92DF92EF926E
:100A4000FF920F931F93CF93DF938091A902813080
:100A500009F022C126E030E040E050E061E070E0C3
:100A600080E090E00E9494200E94172220E030E075
:100A700040EC50E40E947C219B01AC016091220279
:100A80007091230280912402909125020E94B2204D
:100A90006093220270932302809324029093250294
:100AA00026E030E040E050E061E070E080E090E07F
:100AB0000E9494200E94172220E030E040EC50E495
:100AC0000E947C219B01AC0160911E0270911F026B
:100AD00080912002909121020E94B22060931E0218
:100AE00070931F02809320029093210226E030E051
:100AF00040E050E061E070E080E090E00E949420EF
:100B00000E94172220E030E040EC50E40E947C215B
:100B10009B01AC0160911A0270911B0280911C0232
:100B200090911D020E94B22060931A0270931B02E2
:100B300080931C0290931D02C0E0D0E0BE01882784
:100B400077FD8095982F0E9417226B017C0120E091
:100B500030E040E05FE30E944A234B015C0120E06B
:100B600030E040E85EE360912202709123028091C0
:100B70002402909125020E944A239B01AC01C501E9
:100B8000B4010E94B2200E94AD234B015C0120E021
:100B900030E040E151E460911E0270911F028091AB
:100BA0002002909121020E947C219B01AC01C7018F
:100BB000B6010E94B22026E636E646E050E40E94E6
:100BC000B2200E94AD232B013C0120E030E040E444
:100BD00050E4C701B6010E947C216B017C0120E03A
:100BE00030E040E651E460911A0270911B0280915E
:100BF0001C0290911D020E947C219B01AC01C70147
:100C0000B6010E94B22026E636E646E850E40E948D
:100C1000B2200E94AD2320E030E040E85FE30E9474
:100C2000B22020E030E040E251E40E944A230E94DA
:100C3000E921062F20E030E040E85FE3C301B20184
:100C40000E94B22020E030E040E251E40E944A23BA
:100C50000E94E921162F20E030E040E85FE3C50163
:100C6000B4010E94B22020E030E040E251E40E9452
:100C70004A230E94E921462F212F6C2F8DE493E017
:100C80000E94181A2196C730D10509F057CF8DE47C
:100C900093E00E946A1A07C1823009F004C1809172
:100CA00019028F5F809319028B3008F474C026E01C
:100CB00030E040E050E061E070E080E090E00E94D1
:100CC00094200E94172220E030E040EC50E40E9483
:100CD0007C219B01AC0160912202709123028091E2
:100CE0002402909125020E94B22060932202709308
:100CF0002302809324029093250226E030E040E016
:100D000050E061E070E080E090E00E9494200E945A
:100D1000172220E030E040EC50E40E947C219B014F
:100D2000AC0160911E0270911F028091200290918F
:100D300021020E94B22060931E0270931F028093D2
:100D400020029093210226E030E040E050E061E094
:100D500070E080E090E00E9494200E94172220E042
:100D600030E040EC50E40E947C219B01AC0160919A
:100D70001A0270911B0280911C0290911D020E9428
:100D8000B22060931A0270931B0280931C0290930E
:100D90001D021092190220E030E040E85EE360910D
:100DA00022027091230280912402909125020E94D8
:100DB0004A2320E030E040E05FE30E94B2200E943E
:100DC000AD2320E030E040E85FE30E94B22020E065
:100DD00030E040E251E40E944A230E94E921C62FFC
:100DE00020E030E040E151E460911E0270911F026A
:100DF00080912002909121020E947C2120E030E02D
:100E000040E85FE30E94B22026E636E646E050E482
:100E10000E94B2200E94AD2320E030E040E85FE372
:100E20000E94B22020E030E040E251E40E944A23D8
:100E30000E94E921D62F20E030E040E651E46091A5
:100E40001A0270911B0280911C0290911D020E9457
:100E50007C212BEA3AEA4AEA5EE30E94B22026E6C7
:100E600036E646E850E40E94B2200E94AD2320E01E
:100E700030E040E85FE30E94B22020E030E040E252
:100E800051E40E944A230E94E921F62E17E00F2D1B
:100E90002D2F4C2F609119028DE493E00E94181AB7
:100EA0001150A9F7F4CE65E070E080E090E0DF91AA
:100EB000CF911F910F91FF90EF90DF90CF90BF9057
:100EC000AF909F908F907F906F905F904F900C9419
:100ED0006F1C4F925F926F927F928F929F92AF9210
:100EE000BF92CF92DF92EF92FF9226E030E040E097
:100EF00050E061E070E080E090E00E9494200E9469
:100F0000172220E030E040EC50E40E947C219B015D
:100F1000AC0160910A0270910B0280910C029091D9
:100F20000D020E94B22060930A0270930B0280931C
:100F30000C0290930D0226E030E040E050E061E0CA
:100F400070E080E090E00E9494200E94172220E050
:100F500030E040EC50E40E947C219B01AC016091A8
:100F600006027091070280910802909109020E9486
:100F7000B220609306027093070280930802909358
:100F8000090226E030E040E050E061E070E080E0FF
:100F900090E00E9494200E94172220E030E040EC74
:100FA00050E40E947C212091020230910302409182
:100FB0000402509105020E94B2206B017C016093F3
:100FC000020270930302809304029093050220E0D2
:100FD00030E040E85EE360910A0270910B0280917C
:100FE0000C0290910D020E944A2320E030E040E084
:100FF0005FE30E94B2200E94AD234B015C0120E020
:1010000030E040E151E46091060270910702809166
:101010000802909109020E947C2120E030E040E823
:101020005FE30E94B22026E636E646E050E40E94E6
:10103000B2200E94AD232B013C0120E030E040E6CD
:1010400051E4C701B6010E947C212BEA3AEA4AEA40
:101050005EE30E94B22026E636E646E850E40E94AF
:10106000B2200E94AD2320E030E040E85FE30E9420
:10107000B22020E030E040E852E40E944A230E947F
:10108000E921E62E20E030E040E85FE3C301B20151
:101090000E94B22020E030E040E852E40E944A235F
:1010A0000E94E921F62E20E030E040E85FE3C50130
:1010B000B4010E94B22020E030E040E852E40E94F7
:1010C0004A230E94E921D62E2E2D4F2D88E293E04F
:1010D0000E941A1B2E2D4F2D6D2D88E293E0FF905C
:1010E000EF90DF90CF90BF90AF909F908F907F90C8
:1010F0006F905F904F900C94201B0F930E94D8002C
:101100008091B60290E00196837099278093B60291
:101110002CE231E040E050E08230B1F08330F1F079
:10112000813049F066E271E081E493E00E94491069
:1011300000E020E01BC06AE471E081E493E00E94DB
:10114000491000E02AE008C06EE571E081E493E018
:101150000E9449100AE020E040E009C069E871E01F
:1011600081E493E00E94491000E02AE04AE060E058
:1011700086E593E00E94181A86E593E00E946A1AB9
:1011800064EF71E080E090E00F910C946F1CDC0143
:10119000ED91FC911197CF01019611969C938E933E
:1011A00020812032A9F70C945626FB012191BF0122
:1011B000222339F0FC013191CF013217B1F380E0E5
:1011C000089581E00895CF93DF93EB01FC01019036
:1011D0000020E9F7AF0141505109481B590BE0913C
:1011E0000004F09101040280F381E02DBC0180E055
:1011F00094E00995BE0180E094E0DF91CF910C94DA
:1012000056200F931F93CF93DF9300D000D01F92EF
:10121000CDB7DEB79A8389838C0167E271E00E94C3
:10122000D508882331F06BE271E0C8010E94E30821
:1012300099C065E371E0C8010E94D508882381F058
:10124000CE0101960E94C7088C01CE0101960E9432
:10125000C7089C01442737FD4095542FB8017BC037
:1012600068E371E0C8010E94D5088823F9F0CE0137
:1012700001960E94C708682FCE0101966D830E94D7
:10128000C708482FCE0101964C830E94C708282F1B
:10129000CE0101962B830E94C708082F2B814C8119
:1012A0006D8188E293E00E94261B5CC06CE371E0D4
:1012B000C8010E94D508882309F454C06FE371E087
:1012C000C8010E94E30889819A8102960E945626ED
:1012D000813089F48091AE028093B6028091AB0296
:1012E0009091AC0290930D0180930C018091AD021E
:1012F0008093B3022AC0823099F58091B302809323
:10130000AD0280910C0190910D019093AC028093FD
:10131000AB028091B6028093AE021092B602109298
:10132000B30220E040E060E088E293E00E941A1BF4
:1013300020E040E060E088E293E00E94201B60E053
:1013400070E080E090E00E9493022CE231E040E007
:1013500050E066E271E081E493E00E94491002C02F
:101360000E94F0000F900F900F900F900F90DF9160
:10137000CF911F910F9108958091A602811111C004
:1013800087EE92E00E9468160E94E4219B0177FF9D
:1013900004C022273327261B370B253031050CF4D8
:1013A00073C08091A602882309F478C087EE92E08A
:1013B0000E9468160E94E4219B0177FF04C0222747
:1013C0003327261B370B2F3131050CF467C01092E1
:1013D00018021092170260E070E08DEC92E00E941B
:1013E000BA1160E070E08AED92E00E94BA111092AA
:1013F0005A0210925B0210925C0210925D026091A0
:101400000A0170910B01882777FD8095982F0E9423
:101410001722609372027093730280937402909308
:1014200075021092520210925302109254021092BE
:10143000550210923202109233021092340210922E
:1014400035028DEC92E00E9488128AED92E00E94B3
:10145000881210925A0210925B0210925C02109253
:101460005D021092A60210928B0210928C021092D2
:101470008D0210928E0210928F02109290021092A2
:101480009102109292020895809117029091180291
:101490000196909318028093170283CF80911702D0
:1014A0009091180245970CF448C0109218021092BF
:1014B000170210925A0210925B0210925C02109274
:1014C0005D0260E070E08DEC92E00E94BA1160E095
:1014D00070E08AED92E00E94BA1160910A01709169
:1014E0000B01882777FD8095982F0E941722609323
:1014F00072027093730280937402909375028DEC64
:1015000092E00E9488128AED92E00E9488120E9466
:10151000401C6093A1027093A2028093A302909357
:10152000A40260939D0270939E0280939F02909309
:10153000A00281E08093A602089508954F925F92E1
:101540006F927F928F929F92AF92BF92CF92DF92D3
:10155000EF92FF920F931F93CF93DF9387EE92E06A
:101560000E946816DC01CB01B058809397029093DB
:101570009802A0939902B0939A0287EE92E00E949B
:101580006E164B015C0160939302709394028093FA
:1015900095029093960220917202309173024091CD
:1015A0007402509175026091970270919802809137
:1015B000990290919A020E94B1206B017C012091C6
:1015C0007A0230917B0240917C0250917D020E9410
:1015D000B2208B01D82FC92F20E030E048EC52EC2C
:1015E0000E94782187FD10C020E030E048EC52E4F2
:1015F000B8018D2F9C2F0E943F2318164CF400E059
:1016000010E0D8ECC2E404C000E010E0D8ECC2EC7A
:10161000C801AD2FBC2F80937A0290937B02A093D8
:101620007C02B0937D0280927E0290927F02A09213
:101630008002B0928102209166023091670240914F
:10164000680250916902C701B6010E944A232B012A
:101650003C0120916A0230916B0240916C025091E2
:101660006D02B8018D2F9C2F0E944A239B01AC0173
:10167000C301B2010E94B2206B017C0120916E0275
:1016800030916F024091700250917102C501B40116
:101690000E944A239B01AC01C701B6010E94B220FF
:1016A0006B017C01609376027093770280937802DD
:1016B0009093790240903602509037026090380241
:1016C00070903902A30192010E94B1204B015C018C
:1016D000C701B6019058A30192010E94B1206B018D
:1016E0007C0120E030E04FE753ECC501B4010E94DB
:1016F000782187FD11C020E030E04FE753E4C501B9
:10170000B4010E943F2318166CF4812C912CFFE742
:10171000AF2EF3E4BF2E06C0812C912CEFE7AE2E46
:10172000E3ECBE2E20E030E04FE753ECC701B601FA
:101730000E94782187FD11C020E030E04FE753E49C
:10174000C701B6010E943F2318166CF4C12CD12C9E
:101750007FE7E72E73E4F72E06C0C12CD12C6FE78C
:10176000E62E63ECF62EC501B4010E94E4218DEC57
:1017700092E00E94BA11C701B6010E94E4218AEDED
:1017800092E0DF91CF911F910F91FF90EF90DF904A
:10179000CF90BF90AF909F908F907F906F905F9011
:1017A0004F900C94BA114F925F926F927F928F92EA
:1017B0009F92AF92BF92CF92DF92EF92FF920F93E0
:1017C0001F93CF93DF9300D000D0CDB7DEB70E9438
:1017D000401C20919B0230919C025B01A21AB30A2B
:1017E0008DEC92E00E942A126B017C018AED92E05E
:1017F0000E942A122B013C01B50180E090E00E947A
:1018000015229B01AC0160E070E08AE794E40E943D
:101810007C214B015C0180910F0290911002A091FC
:101820001102B0911202A3019201281B390B4A0B3D
:101830005B0BCA01B9010E941722A50194010E9405
:101840004A2320E030E040E752E40E944A2320E0AF
:1018500030E442E154E40E947C2169837A838B83E3
:101860009C838091130290911402A0911502B09173
:101870001602A7019601281B390B4A0B5B0BCA0104
:10188000B9010E941722A50194010E944A2320E079
:1018900030E040E752E40E944A2320E030E442E195
:1018A00054E40E947C219B01AC0169817A818B8187
:1018B0009C810E94B12020E030E040E05FE30E9484
:1018C0004A234B015C01C0921302D0921402E092B1
:1018D0001502F092160240920F025092100260928E
:1018E0001102709212020E94401C70939C0260933D
:1018F0009B02C0905202D0905302E0905402F090AC
:1019000055022DEC3CEC4CE45FE360918B0270914E
:101910008C0280918D0290918E020E944A232B01AD
:101920003C012DEC3CEC4CE45EE3C701B6010E94A7
:101930004A239B01AC01C301B2010E94B220609313
:101940008B0270938C0280938D0290938E02809113
:10195000A502882361F1C501B4010E94E421695FF9
:101960007F4F6F30710518F520E030E0A901C70105
:10197000B6010E94782181111AC01092A50210921E
:101980008B0210928C0210928D0210928E02809126
:10199000870290918802A0918902B0918A02809377
:1019A0005A0290935B02A0935C02B0935D02209177
:1019B0008B0230918C0240918D0250918E02C501B4
:1019C000B4010E94B1206B017C0120915A02309138
:1019D0005B0240915C0250915D020E94B2203B018B
:1019E0008C018091A50220E030E04AEF54ECB30175
:1019F000882309F46EC0C8010E94782187FD0FC0BA
:101A000020E030E04AEF54E4B301C8010E943F23D4
:101A100018164CF4612C712C0AEF14E404C0612CEC
:101A2000712C0AEF14ECC301D80180935A029093F1
:101A30005B02A0935C02B0935D022091460230915C
:101A400047024091480250914902C701B6010E94E5
:101A50004A234B015C0120914A0230914B02409194
:101A60004C0250914D02B301C8010E944A239B01D0
:101A7000AC01C501B4010E94B2207B018C0120E0C1
:101A800030E040E051EC0E94782187FD0FC020E05B
:101A900030E040E051E4B701C8010E943F2318162E
:101AA00054F4E12CF12C90E081E407C0E12CF12CFE
:101AB00090E081EC02C0902F812FA701692F782F31
:101AC0004093560250935702609358027093590204
:101AD00093C0C8010E94782187FD0FC020E030E04C
:101AE0004AEF54E4B301C8010E943F2318164CF496
:101AF000612C712C0AEF14E404C0612C712C0AEFE4
:101B000014ECC301D80180935A0290935B02A09316
:101B10005C02B0935D0220914602309147024091F1
:101B2000480250914902C501B4010E944A236B0149
:101B30007C0120914A0230914B0240914C0250911D
:101B40004D02B301C8010E944A239B01AC01C701A9
:101B5000B6010E94B2206B017C0120E030E040E23F
:101B600051EC0E94782187FD0FC020E030E040E278
:101B700051E4B601C7010E943F23181654F4C12C4A
:101B8000D12C90E281E407C0C12CD12C90E281ECF1
:101B900002C09E2D8F2DA601692F782F40935602EB
:101BA0005093570260935802709359022DEC3CEC0D
:101BB0004CE45FE360918702709188028091890212
:101BC00090918A020E944A234B015C012DEC3CEC6F
:101BD0004CE45EE3B301C8010E944A239B01AC01BF
:101BE000C501B4010E94B2206093870270938802FD
:101BF0008093890290938A0260910A0170910B018F
:101C0000882777FD8095982F0E94172220915602F1
:101C10003091570240915802509159020E94B220CF
:101C200060937202709373028093740290937502B2
:101C30000F900F900F900F90DF91CF911F910F9108
:101C4000FF90EF90DF90CF90BF90AF909F908F90DC
:101C50007F906F905F904F900895CF92DF92EF92B8
:101C6000FF920E94BC098091A602882309F474C0E7
:101C70000E94401CC090A102D090A202E090A3025A
:101C8000F090A4026C197D098E099F096B307105D3
:101C90008105910560F00E949E0A0E94401C60939D
:101CA000A1027093A2028093A3029093A4020E94C7
:101CB000401CC0909D02D0909E02E0909F02F09048
:101CC000A0026C197D098E099F0965367105810591
:101CD000910508F451C00E94D30B2DEC3CEC4CE470
:101CE0005FE360918F0270919002809191029091D8
:101CF00092020E944A236B017C012DEC3CEC4CE4E7
:101D00005EE36091320270913302809134029091CF
:101D100035020E944A239B01AC01C701B6010E9413
:101D2000B22060938F0270939002809391029093FF
:101D30009202609336027093370280933802909338
:101D400039020E94401C60939D0270939E02809312
:101D50009F029093A00210C060E070E08DEC92E0D2
:101D60000E94BA1160E070E08AED92E0FF90EF907F
:101D7000DF90CF900C94BA11FF90EF90DF90CF904E
:101D8000089587EE92E00E9405140C942D0E63E0F6
:101D900086E593E00E94D4196DE08DE493E00E9403
:101DA000D4196FE082E493E00E942A176BE081E48B
:101DB00093E00E94DE0F69E08BE393E00E94E51759
:101DC0006AE085E393E00E94E5176AE088E293E029
:101DD0000E948F1A6CE087E293E00E94D91764E0BA
:101DE00087EE92E00E94031363E18AED92E00E9485
:101DF000E61262E18DEC92E00E94E61261E082EC74
:101E000092E00E947A1062E087EB92E00E947A10E2
:101E10008091B6028093AE028091B3028093AD02AE
:101E200080910C0190910D019093AC028093AB02D4
:101E300008958DE493E00E94831A86E593E00C9464
:101E4000831A1F93CF93DF93C0E8D0E010E280E0C5
:101E500094E00E941A1E892B81F180E094E00E9498
:101E6000331E20910002309101028A30C1F4C90171
:101E70000197FC01E058FE4F40814D3011F49C0168
:101E8000F6CFF901E058FE4F108311821092010243
:101E90001092000280E891E00E940109D8CFF90178
:101EA000E058FE4F8083C9010196BE010E9449247B
:101EB0009093010280930002CACFDF91CF911F91CE
:101EC00008950F931F938091AA02882319F00E940E
:101ED000210F14C080E094E00E941A1E892B21F08B
:101EE00081E08093AA020AC082E493E00E94A917CD
:101EF000892B21F0809145030E94F0000E94401C34
:101F00000091AF021091B0022091B1023091B20263
:101F1000601B710B820B930B693C71058105910568
:101F200010F10E94401C6093AF027093B002809346
:101F3000B1029093B20280918602811104C0109286
:101F4000B5021092B40210925202109253021092F3
:101F500054021092550210923202109233021092E3
:101F60003402109235028091B602813059F038F077
:101F7000823059F0833059F40E94C10E08C00E948B
:101F8000640305C00E94410402C00E94C9048091FC
:101F9000B302813011F40E9469078091A902811176
:101FA0000E94150582E00E94F11D892B21F41F91EA
:101FB0000F910C947D081F910F910895FC0160838F
:101FC00008952F923F924F925F926F927F928F92DD
:101FD0009F92AF92BF92CF92DF92EF92FF920F93B8
:101FE0001F93CF93DF93EC0169017A019B0140E0DD
:101FF00050E060E472E48FE090E00E947F24890169
:10200000590137FF03C08FEFA81AB80A150135949C
:10201000279461E088810E94821DA8EEB3E0A701A9
:1020200096010E94A4242B013C01C12CD12C7601E5
:102030004801AA2497FCA094BA2CC414D504E60441
:10204000F704A0F461E088810E94BB1DC1010E94D9
:10205000971C60E088810E94BB1DC1010E94971CF3
:10206000A895C80CD91CEA1CFB1CE7CFDF91CF91C7
:102070001F910F91FF90EF90DF90CF90BF90AF90A6
:102080009F908F907F906F905F904F903F902F9098
:102090000895F8940E94E10F789408950F931F9388
:1020A000CF93DF93EC01062F10E0000F111F025FAA
:1020B0001E4F633050F0F8016081CE010E9451182C
:1020C000F8018181898718860CC061E0F80181815F
:1020D0000E94821DF80180818D8381818C8381E043
:1020E00088878CE291E09F838E83DF91CF911F914F
:1020F0000F9108950F931F93CF93DF931F92CDB746
:10210000DEB78C0169830E945018F801178216828D
:102110001086118612866981C8010F90DF91CF91D8
:102120001F910F910C944E10EF92FF920F931F93FB
:10213000CF93DF9300D0CDB7DEB77C01FC01828561
:10214000811109C069837A830E94BD0081E0F70193
:1021500082877A8169818B016F3F710519F014F0D4
:102160000FEF10E00130FFEF1F0714F401E01FEF45
:10217000F701868197818017910709F4C8C01783FA
:102180000683808517FD4EC0813079F584818730C4
:1021900019F4848160E006C0F7018481883089F4F5
:1021A000848161E00E94BB1DF7018581B8010F9019
:1021B0000F90DF91CF911F910F91FF90EF900C94B2
:1021C000FA1CF7018481893029F0F7018481863077
:1021D00009F09DC0848161E00E94BB1DF7018581EB
:1021E0006FEF70E0601B710BE2CFC7010E946B18AC
:1021F00062E0C7010E940819C7010E946B18F7012D
:102200006185C7010E940819B801882777FD80956C
:10221000982F0E94172223E333E343E250E40E9405
:102220007C2164C08130F1F5F7018481873061F44D
:10223000848161E00E94BB1DF701858166277727B5
:10224000601B710B0E94FA1CF7018481883061F4D5
:10225000848160E00E94BB1DF70185816627772796
:10226000601B710B0E94FA1CF7018481893059F4BC
:10227000858161E00E94BB1DF7018481B801615036
:102280007F4F0E94FA1CF7018481863009F03FC01D
:10229000858161E00E94BB1DF7018481B801615016
:1022A0007F4F85CFC7010E946B1862E0C7010E9473
:1022B0000819C7010E946B18F7016185C7010E94C8
:1022C0000819B801882777FD8095982F0E9417225A
:1022D00023E333E343E250E40E947C219B01AC0101
:1022E00060E070E088EC92E40E94B1200E94E92155
:1022F000C7010E94081984EF91E00F900F90DF91C1
:10230000CF911F910F91FF90EF900C94971C0F901D
:102310000F90DF91CF911F910F91FF90EF90089553
:10232000CF93DF93EC010E94511881E088878CE203
:1023300091E09F838E83DF91CF9108950F931F9338
:10234000CF93DF931F92CDB7DEB78C0169830E94D4
:102350005018F8011782168210861186128613868D
:1023600014866981C8010F90DF91CF911F910F9161
:102370000C949011CF92DF92EF92FF92CF93DF9364
:10238000EC016F3F710519F014F06FEF70E06130F0
:102390008FEF780714F461E07FEF8E819F818617BD
:1023A000970709F450C07F836E836B01EE24D7FC3E
:1023B000E094FE2CCE0177FD18C00E946B1862E0FD
:1023C000CE010E940819CE010E946B186885CE01CB
:1023D0000E940819C701B6010E94172223E333E3C4
:1023E00043E250E40E947C211FC00E946B1862E00F
:1023F000CE010E940819CE010E946B186885CE019B
:102400000E940819C701B6010E94172223E333E393
:1024100043E250E40E947C219B01AC0160E070E04B
:1024200088EC92E40E94B1200E94E921CE010E9432
:10243000081984EF91E0DF91CF91FF90EF90DF904A
:10244000CF900C94971CDF91CF91FF90EF90DF908D
:10245000CF9008950F931F93CF93DF93EC010E94C9
:102460006B1863E0CE010E940819CE010E949918F2
:10247000CE010E94631990E0A0E0B0E089879A87BE
:10248000AB87BC87CE010E94631990E0A0E0B0E06A
:10249000BA2FA92F982F882749855A856B857C8567
:1024A000480F591F6A1F7B1F49875A876B877C8794
:1024B000CE010E94631990E0A0E0B0E0DC01992712
:1024C000882749855A856B857C85480F591F6A1F67
:1024D0007B1F49875A876B877C87CE010E946319CF
:1024E00090E0A0E0B0E0982F88277727662709853D
:1024F0001A852B853C85600F711F821F931F69878A
:102500007A878B879C87DF91CF911F910F910895D8
:10251000CF93DF93EC010E946B1864E0CE01DF9152
:10252000CF910C940819EF92FF921F93CF93DF93F2
:102530001F92CDB7DEB77C01882777FD8095982F55
:102540000E94172226E636E646EE5EE30E944A2304
:102550000E94E421162F862F972FF70126813781BD
:102560002817390761F1892B59F460E070E0C70141
:102570000F90DF91CF911F91FF90EF900C94BA11C3
:10258000812F972FF70197838683C70179830E9454
:102590006B1867E0C7010E940819C7010E946B18F9
:1025A000612FC7010E9408197981672FC7010F9019
:1025B000DF91CF911F91FF90EF900C9408190F902D
:1025C000DF91CF911F91FF90EF9008951F93CF93CC
:1025D000DF93EC01162F60E00E949E11612FCE0167
:1025E000DF91CF911F910C9490119C0141E3469F84
:1025F000C001479F900D112464E670E00E944924B9
:10260000C9010C9493121F93CF93DF93EC01162F03
:102610000E94501840E050E063E872E44C835D8310
:102620006E837F83188619861A861B861C861D86F4
:102630001E861F86188A198A1A8A1B8A1C8A1D8A76
:102640001E8A1F8A188E198E1A8E1B8E1C8E1D8E46
:102650001E8E1F8E19A218A21BA21AA21DA21CA2B6
:102660001EA21FA218A619A61AA61BA61CA61DA666
:102670001EA61FA618AA19AA612FCE01DF91CF911D
:102680001F910C9451182F923F924F925F926F922C
:102690007F928F929F92AF92BF92CF92DF92EF92F2
:1026A000FF920F931F93CF93DF9300D000D0CDB74D
:1026B000DEB71C0104EF11E0812C912C5401412C58
:1026C000512C320119821A821B821C82C1010E9484
:1026D0006B18811183C063E0C1010E940819C10118
:1026E0000E949918E12CF12CC1010E946319F1019B
:1026F000EE0DFF1D82AB2FEFE21AF20A36E0E31671
:10270000F10491F7F10182A990E0982F882723A97D
:10271000822BAA2797FDA095BA2F29813A814B8158
:102720005C81280F391F4A1F5B1F29833A834B8323
:102730005C8384A990E0982F882725A9822BAA275B
:1027400097FDA095BA2F480E591E6A1E7B1E86A9BA
:1027500090E0982F882727A9822BAA2797FDA0957C
:10276000BA2F880E991EAA1EBB1E0150110909F02E
:10277000ADCF84EFC82EDD24D394E12CF12C6981F8
:102780007A818B819C81A70196010E947F24CA01D6
:10279000B9010E941722F10166A377A380A791A730
:1027A000C301B201A70196010E947F24CA01B901A9
:1027B0000E941722F10162A773A784A795A7C501FC
:1027C000B401A70196010E947F24CA01B9010E94A9
:1027D0001722F10166A777A780AB91AB0F900F90FE
:1027E0000F900F90DF91CF911F910F91FF90EF907D
:1027F000DF90CF90BF90AF909F908F907F906F9021
:102800005F904F903F902F9008952F923F924F925C
:102810005F926F927F928F929F92AF92BF92CF9270
:10282000DF92EF92FF920F931F93CF93DF93CDB779
:10283000DEB768970FB6F894DEBF0FBECDBF1C01A0
:102840000E94401C4B015C01C0905F03D09060036C
:10285000E0906103F09062030E94401C60935F036C
:10286000709360038093610390936203C1010E949F
:102870006B18811114C262E0C1010E940819C101E4
:102880000E94991800E010E0C1010E946319F10153
:10289000E00FF11F82AB0F5F1F4F0E301105A1F744
:1028A000C501B4016C197D098E099F090E9415228A
:1028B00020E030E04AE754E40E947C216B017C0177
:1028C000D101D2964C90D297512C542C4424D396BB
:1028D0008C91D397482A91965C924E929097D49679
:1028E0006C90D497712C762C6624D5968C91D597C4
:1028F000682A93967C926E929297D6960C91D69770
:1029000010E0102F0027D7968C91D797082B95961B
:102910001C930E93949714968D909D90AD90BC90BF
:102920001797DA966C91DA9770E0762F6627DB9628
:102930008C91682B882777FD8095982F0E9417220D
:10294000F10126A137A140A551A50E94B120A50102
:1029500094010E947C216D837E838F839887D101AF
:1029600054966D937D938D939C935797DC966C91C1
:10297000DC9770E0762F6627DD968C91682B882790
:1029800077FD8095982F0E941722F10122A533A58B
:1029900044A555A50E94B120A50194010E947C2167
:1029A00069877A878B879C87D10158966D937D9331
:1029B0008D939C935B97DE966C91DE9770E0762FFB
:1029C0006627DF968C91682B882777FD8095982F56
:1029D0000E941722F10126A537A540A951A90E94FE
:1029E000B120A50194010E947C216D877E878F878D
:1029F000988BD1015C966D937D938D939C935F979B
:102A0000B301882777FD8095982F0E94172269834C
:102A10007A838B839C83B801882777FD8095982FD4
:102A20000E9417229B01AC010E944A23698B7A8B7A
:102A30008B8B9C8B29813A814B815C81CA01B901C6
:102A40000E944A2329893A894B895C890E94B220D5
:102A50000E94B7239B01AC01B201882777FD8095C6
:102A6000982F2D8B3E8B4F8B588F0E9417224B0136
:102A70005C012D893E894F89588D0E94252120E0D7
:102A800030E044E353E40E944A232AED3FE049E466
:102A900050E40E947C212B013C01A5019401C50159
:102AA000B4010E944A2329893A894B895C890E9492
:102AB000B2200E94B7239B01AC0169817A818B818E
:102AC0009C810E94252120E030E044E353E40E94F1
:102AD0004A232AED3FE049E450E40E947C214B0167
:102AE0005C01A701960169857A858B859C85101606
:102AF000110624F50E944A239B01AC01F101608577
:102B00007185828593850E94B120D10118966D93BD
:102B10007D938D939C931B97A70196016D817E8178
:102B20008F8198850E944A239B01AC01F101648545
:102B30007585868597850E94B22023C00E944A230E
:102B40009B01AC01F10160857185828593850E94AE
:102B5000B220D10118966D937D938D939C931B9712
:102B6000A70196016D817E818F8198850E944A23FD
:102B70009B01AC01F10164857585868597850E946E
:102B8000B120D1011C966D937D938D939C931F97DB
:102B9000A70196016D857E858F8598890E944A23BD
:102BA000F10120893189428953890E94B2206B0149
:102BB0007C0120E030E044EB53E40E947C210E9441
:102BC000522220E030E044EB53E40E944A239B0170
:102BD000AC01C701B6010E94B1206B017C0120E06D
:102BE00030E044E353E40E943F23181644F0D1013F
:102BF0005096CD92DD92ED92FC9253970DC020E05D
:102C000030E044EB53E4C701B6010E94B120F1016A
:102C1000608B718B828B938B28E431EE4AE75FE304
:102C2000D1011C966D917D918D919C911F970E9471
:102C30004A236B017C012AE037ED43EA5CE3C501DE
:102C4000B4010E944A239B01AC01C701B6010E9456
:102C5000B220F101648775878687978728E431EE73
:102C60004AE75FE360857185828593850E944A23E8
:102C70006B017C012AE037ED43EA5CE3C301B2015A
:102C80000E944A239B01AC01C701B6010E94B220F9
:102C9000D10118966D937D938D939C931B976896A5
:102CA0000FB6F894DEBF0FBECDBFDF91CF911F915D
:102CB0000F91FF90EF90DF90CF90BF90AF909F90DB
:102CC0008F907F906F905F904F903F902F900895DE
:102CD000FC0160857185828593850895FC01608D76
:102CE000718D828D938D08951F920F920FB60F9262
:102CF00011240F931F932F933F934F935F936F93E1
:102D00007F938F939F93AF93BF93CF93EF93FF9353
:102D1000809163030E94F11DC82F20916A033091B6
:102D20006B032F5F3F4F30936B0320936A038091B7
:102D3000D003843618F085E0809365039091650395
:102D4000933079F018F4923039F070C0943011F16A
:102D5000953009F44AC06AC0C11168C01092D0030E
:102D600029C0C13009F062C0E091D00381E08E0F2C
:102D70008093D003F0E080916A0390916B03EC594B
:102D8000FC4F808710926B0310926A0384E080935B
:102D900065034CC0C11114C0E091D00381E08E0FD7
:102DA0008093D003F0E080916A0390916B03EC591B
:102DB000FC4F808710926B0310926A0383E0E7CF89
:102DC00080916A0390916B038536910578F185E0D7
:102DD000809365030E94401C6093660370936703B1
:102DE000809368039093690321C00E94401C009166
:102DF0006603109167032091680330916903601B9B
:102E0000710B820B930B693C71058105910540F0B4
:102E10001092D00310926B0310926A0382E0B7CF36
:102E2000C11104C010926B0310926A03FF91EF91DD
:102E3000CF91BF91AF919F918F917F916F915F9152
:102E40004F913F912F911F910F910F900FBE0F90B7
:102E50001F901895609363038091630360E00E9464
:102E6000821D80916303809364030895F89482E047
:102E70008093B0008093B10094E69093B3001092D9
:102E8000B2008093700078941092D0038093650311
:102E900008951F93CF93DF93FC01A681B7818C9196
:102EA00086588D3558F48085918583309105A1F43D
:102EB00011968C9111978152893118F080E090E041
:102EC00044C012968C9188508730C0F7158281E0FB
:102ED000808381E090E039C0833491057CF31196C2
:102EE0008C91119783548F3248F782E090E040E054
:102EF00050E0BA019D012F5F3F4FEC01CA0FDB1F6D
:102F0000C881C850C730D0F6E901C80FD91F188151
:102F10001751133180F476956795579547957068EA
:102F200002968234910549F780E28583418352837A
:102F300063837483CCCFC881C850C73008F0BECF3C
:102F40007695679557954795EBCFDF91CF911F9178
:102F500008950F931F93CF93DF93EC018CE693E0DA
:102F60009F838E838091D00390E09987888780919A
:102F70006503853081F4CE010E9449178C01CE0192
:102F80000115110529F00E94361701E010E005C077
:102F90000E94361702C000E010E0C801DF91CF9117
:102FA0001F910F910895FC01862F608360E00C94BF
:102FB000821D0C94D317FC0180810E94F11D21E039
:102FC000892B09F420E0822F08950F931F93CF934C
:102FD000DF931F92CDB7DEB78C0169830E94501832
:102FE0006981C8010F90DF91CF911F910F910C94CF
:102FF0005118CF93DF93EC010E946B1881110FC021
:1030000062E0CE010E940819CE010E949918CE01FB
:103010000E9463198C83CE010E9463198D83DF9116
:10302000CF910895FC01648170E080E090E00E94FF
:10303000172220E030E04FE753E40E947C219B01FF
:10304000AC0160E070E080E89FE30E94B12020E0E6
:1030500030EC4FE754E40E944A230E94E921CB015F
:103060000895FC01658170E080E090E00E941722E5
:1030700020E030E04FE753E40E947C219B01AC014B
:1030800060E070E080E89FE30E94B12020E030EC37
:103090004FE754E40E944A230E94E921CB0108959E
:1030A0000895DC016C9370E0FB01E652FF4FE49160
:1030B0001196EC931197FB01E251FF4FE491F0E080
:1030C000EE0FFF1FEE5FFE4F8591949113969C9338
:1030D0008E9312970895FF920F931F93CF93DF93D0
:1030E0008C01FC01F180C281D38189818F29898380
:1030F0009A818F2D809589238A8380EE91E00E94AA
:10310000971C60E0F80180810E94821D82E390E0BC
:103110000E94971CC88184E690E00E94971CFC22C4
:1031200081E009F480E0DF91CF911F910F91FF9032
:103130000895AF92BF92CF92DF92EF92FF920F93DA
:103140001F93CF93DF938C01FC01B180C281D381A7
:103150000E94401C6B017C018981AB2CA0948A21C8
:1031600089838A818B298A8388818B2169F00E94D7
:10317000401C6C197D098E099F0965367105810512
:10318000910590F381E013C088818B21E9F3898157
:103190008B2989838A818A218A838EE190E00E942B
:1031A000971C60E0F80180810E94821D80E0DF9121
:1031B000CF911F910F91FF90EF90DF90CF90BF9034
:1031C000AF9008951F93CF93DF93EC01162FF894DF
:1031D00060E088810E94BB1D61E088810E94821DA1
:1031E00085E090E00E94971C612F88810E94BB1DA2
:1031F00078948EE190E00E94971C61E088810E94A3
:10320000BB1D85E090E0DF91CF911F910C94971C3E
:10321000EF92FF920F931F93CF93DF938C01C0E047
:10322000D0E0E62EF12CB7010C2E02C07595679503
:103230000A94E2F76170C8010E94E2182196C83032
:10324000D10589F760E0F8018081DF91CF911F916E
:103250000F91FF90EF900C94821DCF92DF92EF922E
:10326000FF921F93CF93DF93FC011181C281D38121
:103270000E94401C6B017C018881812381F4F894B9
:103280008EE190E00E94971CC881789488E290E0DB
:103290000E94971C1C2381E071F480E00CC00E9406
:1032A000401C6C197D098E099F09643071058105E8
:1032B000910528F7E1CFDF91CF911F91FF90EF901B
:1032C000DF90CF900895FF920F931F93CF93DF93DA
:1032D0008C0160E0FC0180810E94821DC0E0D0E092
:1032E000F12CC8010E942D190C2E01C0880F0A94E0
:1032F000EAF78F29F82E2196C830D10591F7DF9192
:10330000CF911F910F91FF900895EF92FF920F932D
:103310001F93CF93DF931F92CDB7DEB77C01DC0103
:1033200012968D919C911397062F10E0009749F00B
:103330002D913C912017310779F169830E946A250C
:103340006981F70111830083F3E06F9FC0011124AD
:103350000E94D224D70113969C938E931297892BA7
:1033600021F482E491E00E947C2680E090E0F70165
:10337000408151819A01220F331F240F351F82177C
:10338000930750F4D7011296ED91FC911397E80F33
:10339000F91F10820196EBCF0F90DF91CF911F9113
:1033A0000F91FF90EF900895CF93DF93EC01862F5C
:1033B000262F30E0F901E652FF4FE491E887F9014A
:1033C000E251FF4FE491F0E0EE0FFF1FE45FFE4F8C
:1033D000259134913D832C8361E00E94821D60E23F
:1033E000CE01DF91CF910C9485190F93FC01A62F8C
:1033F000B0E080819181A817B907B8F4862F880FB3
:10340000860F90E0A281B381A80FB91F2C93A281EF
:10341000B381A80FB91F11964C930280F381E02D60
:10342000E80FF91F028381E001C080E00F91089549
:10343000CF92DF92EF92FF920F931F93CF93DF9380
:103440007C01142FD22EC02E611113C0C0E0D0E039
:10345000F70180819181C817D90748F40C2D2D2DD3
:10346000412F6C2FC7010E94F5192196F1CF81E001
:1034700004C061500E94F51980E0DF91CF911F9147
:103480000F91FF90EF90DF90CF9008950F931F93CF
:10349000D8013FB7F8949C91822F80958923292BDE
:1034A000FB01460F571FE417F50781F0919168E083
:1034B0002C9300C097FF8C93990F00C000C000C0F0
:1034C00008F48C9300C06A9599F7EDCF3FBF1F9128
:1034D0000F9108950F931F93FC01048115812081A2
:1034E0003181A901440F551F420F531F628173811F
:1034F00020850E94461A61E070E080E090E01F9114
:103500000F910C946F1CCF93DF93EC018A819B8108
:103510000E946A251B821A82DF91CF9108950F9332
:103520001F93CF93DF931F92CDB7DEB78C016983D2
:103530000E945018F8011682178210861186128692
:10354000138614866981C8010F90DF91CF911F9176
:103550000F910C945118CF92DF92EF92FF92CF937C
:10356000DF93EC010E946B18882339F0C12CD12C19
:103570008AEFE82E83E4F82E27C062E0CE010E9495
:103580000819CE010E949918CE010E9463198C83FC
:10359000CE010E9463198D838D816C8170E0782B40
:1035A00080E090E00E9415222CE53FE84CE851E4D1
:1035B0000E947C216B017C0120E030E04AEF53E463
:1035C0000E943F23181694F2C701B601DF91CF91F4
:1035D000FF90EF90DF90CF900895CF93DF93EC01B1
:1035E0000E946B18811123C063E0CE010E9408196C
:1035F000CE010E946B1881111AC06E81CE010E940B
:1036000008196F81CE010E9408196885CE010E94B9
:1036100008196985CE010E9408196A85CE010E94A9
:1036200008196B85CE01DF91CF910C940819DF91B9
:10363000CF910895FC016683478320870C94ED1A8F
:10364000FC016187428723870C94ED1A0F93FC01DC
:1036500060FF03C046832783008761FF03C0418763
:1036600022870387637021F0CF010F910C94ED1A2C
:103670000F9108951F920F920FB60F9211242F935E
:103680003F934F935F936F937F938F939F93AF93EA
:10369000BF93EF93FF938091D20387FF05C01092F1
:1036A0008500109284001AC02091D203332727FD91
:1036B00030958091D10390E0281739077CF48091F0
:1036C000D203992787FD9095FC01EE0FFF1FE80FAD
:1036D000F91FED52FC4F808187FD15C08091D20308
:1036E0008F5F8093D2032091D203332727FD30953B
:1036F0008091D10390E028173907BCF48091D20360
:103700008C305CF112C08091D203992787FD90958F
:10371000FC01EE0FFF1FE80FF91FED52FC4F8081F7
:1037200060E08F770E94BB1DD9CF8091840090917B
:103730008500049680349C4918F480E49CE905C017
:1037400080918400909185000496909389008093E5
:1037500088008FEF8093D20338C02091840030918D
:1037600085008091D203992787FD9095FC01EE0F8B
:10377000FF1FE80FF91FED52FC4F81819281820FEC
:10378000931F90938900809388008091D20399279A
:1037900087FD9095FC01EE0FFF1FE80FF91FED521A
:1037A000FC4F808187FF11C08091D203992787FD4C
:1037B0009095FC01EE0FFF1FE80FF91FED52FC4F33
:1037C000808161E08F770E94BB1DFF91EF91BF91D7
:1037D000AF919F918F917F916F915F914F913F91A9
:1037E0002F910F900FBE0F901F9018951F920F9260
:1037F0000FB60F9211242F933F938F939F93AF9304
:10380000BF938091F8039091F903A091FA03B091CE
:10381000FB033091F70323E0230F2D3720F40196AB
:10382000A11DB11D05C026E8230F0296A11DB11DE3
:103830002093F7038093F8039093F903A093FA037E
:10384000B093FB038091FC039091FD03A091FE03D4
:10385000B091FF030196A11DB11D8093FC039093CD
:10386000FD03A093FE03B093FF03BF91AF919F911F
:103870008F913F912F910F900FBE0F901F90189531
:103880002FB7F8946091F8037091F9038091FA03CF
:103890009091FB032FBF08953FB7F8948091FC03EC
:1038A0009091FD03A091FE03B091FF0326B5A89B64
:1038B00005C02F3F19F00196A11DB11D3FBF66271E
:1038C000782F892F9A2F620F711D811D911D42E063
:1038D000660F771F881F991F4A95D1F70895CF92D9
:1038E000DF92EF92FF92CF93DF936B017C010E94F6
:1038F0004C1CEB01C114D104E104F10489F00E94D5
:10390000B0200E944C1C6C1B7D0B683E734090F3F2
:1039100081E0C81AD108E108F108C851DC4FEACFAC
:10392000DF91CF91FF90EF90DF90CF90089582309C
:10393000910538F0880F991F880F991F05970197F7
:10394000F1F70895789484B5826084BD84B5816070
:1039500084BD85B5826085BD85B5816085BDEEE697
:10396000F0E0808181608083E1E8F0E01082808176
:1039700082608083808181608083E0E8F0E08081E4
:1039800081608083E1EBF0E0808184608083E0EB04
:10399000F0E0808181608083EAE7F0E080818460EC
:1039A0008083808182608083808181608083808148
:1039B000806880831092C10008958E3008F08E5088
:1039C00087702091260190E4299F90011124822B79
:1039D00080937C0080917A00806480937A0080914B
:1039E0007A0086FDFCCF809178002091790090E0EC
:1039F000922B08951F93CF93DF93182FEB0161E073
:103A00000E94821D209711F460E004C0CF3FD105D1
:103A100039F461E0812FDF91CF911F910C94BB1D90
:103A2000E12FF0E0EA53FF4FE491E330F9F048F47E
:103A3000E130B9F0E230A1F584B5806284BDC8BD43
:103A400034C0E730E9F0E83019F1E43049F580910D
:103A50008000806280938000D0938B00C0938A00A6
:103A600024C084B5806884BDC7BD1FC0809180001C
:103A7000806880938000D0938900C093880015C02F
:103A80008091B00080688093B000C093B3000DC0F7
:103A90008091B00080628093B000C093B40005C0F4
:103AA000C038D1050CF0B5CFAFCFDF91CF911F91CA
:103AB0000895833081F028F4813099F08230A1F0AC
:103AC00008958730A9F08830B9F08430D1F480911E
:103AD00080008F7D03C0809180008F77809380006D
:103AE000089584B58F7702C084B58F7D84BD089515
:103AF0008091B0008F7703C08091B0008F7D80935C
:103B0000B0000895CF93DF9390E0FC01E652FF4FA1
:103B10002491FC01E251FF4F8491882349F190E008
:103B2000880F991FFC01EA5EFE4FA591B491845F56
:103B30009E4FFC01C591D4919FB7611108C0F894C4
:103B40008C91209582238C93888182230AC06230D5
:103B500051F4F8948C91322F309583238C93888183
:103B6000822B888304C0F8948C91822B8C939FBF06
:103B7000DF91CF9108950F931F93CF93DF931F92FF
:103B8000CDB7DEB7282F30E0F901EA53FF4F84911B
:103B9000F901E652FF4F1491F901E251FF4F0491F0
:103BA0000023C9F0882321F069830E94591D69818F
:103BB000E02FF0E0EE0FFF1FE45FFE4FA591B49100
:103BC0009FB7F8948C91611103C01095812301C0B7
:103BD000812B8C939FBF0F90DF91CF911F910F91FD
:103BE0000895CF93DF93282F30E0F901EA53FF4F78
:103BF0008491F901E652FF4FD491F901E251FF4F50
:103C0000C491CC2391F081110E94591DEC2FF0E05A
:103C1000EE0FFF1FEE5FFE4FA591B4912C912D2367
:103C200081E090E021F480E002C080E090E0DF914C
:103C3000CF910895FC01818D228D90E0805C9F4F93
:103C4000821B91098F7399270895FC01918D828DB4
:103C5000981731F0828DE80FF11D858D90E0089561
:103C60008FEF9FEF0895FC01918D828D981761F081
:103C7000828DDF01A80FB11D5D968C91928D9F5FA3
:103C80009F73928F90E008958FEF9FEF089587EBD9
:103C90009FE1892B49F080E090E0892B29F00E9478
:103CA000B71F81110C9400000895FC01848DDF0181
:103CB000A80FB11DA35ABF4F2C91848D90E001969F
:103CC0008F739927848FA689B7892C93A089B1898E
:103CD0008C9180648C93938D848D981306C0028898
:103CE000F389E02D80818F7D80830895CF93DF93CA
:103CF000EC01888D8823C9F0EA89FB89808185FDE4
:103D000005C0A889B9898C9186FD0FC00FB607FC44
:103D1000F5CF808185FFF2CFA889B9898C9185FF85
:103D2000EDCFCE010E94551EE7CFDF91CF910895D0
:103D3000CF92DF92FF920F931F93CF93DF931F9247
:103D4000CDB7DEB76C0181E0D60158968C935897B9
:103D50005B969C915B975C968C915C97981307C0DF
:103D60005096ED91FC915197808185FD2EC0F60112
:103D7000038D10E00F5F1F4F0F731127F02EF60118
:103D8000848DF81211C00FB607FCF9CFD6015096FA
:103D9000ED91FC915197808185FFF1CFC601698338
:103DA0000E94551E6981EBCF838DE80FF11DE35A08
:103DB000FF4F6083D6015B960C935B975296ED9113
:103DC000FC915397808180620CC0D6015696ED918C
:103DD000FC91579760835096ED91FC9151978081AB
:103DE0008064808381E090E00F90DF91CF911F91FC
:103DF0000F91FF90DF90CF900895BF92CF92DF9206
:103E0000EF92FF92CF93DF93EC016A017B01B22E18
:103E1000E889F98982E08083411581EE58076105C0
:103E20007105A1F060E079E08DE390E0A7019601D3
:103E30000E945D2421503109410951095695479549
:103E400037952795211580E1380798F0E889F98999
:103E5000108260E874E88EE190E0A70196010E946C
:103E60005D242150310941095109569547953795EF
:103E70002795EC85FD853083EE85FF852083188EA0
:103E8000EC89FD89B082EA89FB8980818061808329
:103E9000EA89FB89808188608083EA89FB89808147
:103EA00080688083EA89FB8980818F7D8083DF91B0
:103EB000CF91FF90EF90DF90CF90BF9008951F9229
:103EC0000F920FB60F9211242F938F939F93EF931E
:103ED000FF93E0911004F09111048081E0911604A9
:103EE000F091170482FD12C09081809119048F5FB8
:103EF0008F7320911A04821751F0E0911904F0E0B9
:103F0000E050FC4F958F8093190401C08081FF9190
:103F1000EF919F918F912F910F900FBE0F901F9057
:103F200018951F920F920FB60F9211242F933F9363
:103F30004F935F936F937F938F939F93AF93BF93B1
:103F4000EF93FF9380E094E00E94551EFF91EF9164
:103F5000BF91AF919F918F917F916F915F914F91A1
:103F60003F912F910F900FBE0F901F90189580E0FA
:103F700094E00E941A1E21E0892B09F420E0822F90
:103F80000895109203041092020488EE93E0A0E0DA
:103F9000B0E08093040490930504A0930604B093CA
:103FA000070482E691E0909301048093000485EC7D
:103FB00090E090930D0480930C0484EC90E0909337
:103FC0000F0480930E0480EC90E090931104809392
:103FD000100481EC90E0909313048093120482EC1F
:103FE00090E0909315048093140486EC90E09093F5
:103FF0001704809316041092190410921A04109258
:104000001B0410921C04089508950E94A21C0E9493
:1040100004200E948F03C7E4DEE10E94610F209715
:10402000E1F30E94471EF9CFCF92DF92EF92FF9209
:104030000F931F93CF93DF936C017A01EB01E60E90
:10404000F71E00E010E0CE15DF0561F06991D601A2
:10405000ED91FC910190F081E02DC6010995080FCA
:10406000191FF1CFC801DF91CF911F910F91FF90E0
:10407000EF90DF90CF9008956115710581F0DB011D
:104080000D900020E9F7AD0141505109461B570B37
:10409000DC01ED91FC910280F381E02D099480E038
:1040A00090E008956EE671E00C943C200F931F930E
:1040B000CF93DF93EC010E943C208C01CE010E9443
:1040C0005220800F911FDF91CF911F910F91089582
:1040D000611571058105910511F00C944D26089527
:1040E000CF93DF9300D000D0CDB7DEB79B01AC01FA
:1040F000611571058105910569F069833A834B83E8
:104100005C830E94482629813A814B815C810E9410
:104110007F2403C060E070E0CB010F900F900F9000
:104120000F90DF91CF910895CF92DF92EF92FF929F
:104130006B017C01621773078407950764F4CA0159
:10414000B9016C197D098E099F090E9470206C0DC0
:104150007D1D8E1D9F1DFF90EF90DF90CF900895E5
:1041600008955058BB27AA270ED038C229D230F064
:104170002ED220F031F49F3F11F41EF4F9C10EF459
:10418000E095E7FBC6C1E92F3AD280F3BA17620780
:1041900073078407950718F071F49EF569C20EF451
:1041A000E0950B2EBA2FA02D0B01B90190010C0147
:1041B000CA01A0011124FF27591B99F0593F50F45F
:1041C000503E68F11A16F040A22F232F342F4427B7
:1041D000585FF3CF469537952795A795F0405395AF
:1041E000C9F77EF41F16BA0B620B730B840BBAF07F
:1041F0009150A1F0FF0FBB1F661F771F881FC2F7EA
:104200000EC0BA0F621F731F841F48F487957795FD
:104210006795B795F7959E3F08F0B3CF9395880FB4
:1042200008F09927EE0F979587950895C9D158F012
:1042300080E891E009F49EEFCAD128F040E851E00F
:1042400059F45EEF09C094C113C2E92FE078D7D1C9
:1042500068F3092E052AC1F32617370748075907BF
:1042600038F00E2E07F8E02569F0E025E0640AC07A
:10427000EF6307F8009407FADB01B9019D01DC0147
:10428000CA01AD01EF9347D0A9D10AD05F91552360
:1042900031F02BED3FE049E450FD49EC63CF089548
:1042A000DF93DD27B92FBF7740E85FE316161706C7
:1042B00048075B0710F4D92FE6D19F938F937F9324
:1042C0006F9393D2EAE7F0E056D188D12F913F91D6
:1042D0004F915F91EBD1DD2349F09058A2EA2AED8E
:1042E0003FE049EC5FE3D0785D274DDFDF9176C199
:1042F000ECD008F481E008950CD070C168D140F092
:104300005FD130F021F45F3F19F003C15111B1C109
:104310002FC175D198F39923C9F35523B1F3951B98
:10432000550BBB27AA2762177307840738F09F5FD6
:104330005F4F220F331F441FAA1FA9F333D00E2E45
:104340003AF0E0E830D091505040E695001CCAF7B2
:1043500029D0FE2F27D0660F771F881FBB1F261777
:1043600037074807AB07B0E809F0BB0B802DBF014A
:10437000FF2793585F4F2AF09E3F510568F0C9C050
:1043800078C15F3FECF3983EDCF3869577956795AF
:10439000B795F7959F5FC9F7880F911D96958795FB
:1043A00097F90895E1E0660F771F881FBB1F62171A
:1043B00073078407BA0720F0621B730B840BBA0BD8
:1043C000EE1F88F7E095089504D06894B11151C1AB
:1043D00008951DD188F09F5790F0B92F9927B751B4
:1043E000A0F0D1F0660F771F881F991F1AF0BA95B9
:1043F000C9F712C0B13081F03BD1B1E0089538C1A6
:10440000672F782F8827B85F39F0B93FCCF38695AE
:1044100077956795B395D9F73EF49095809570950B
:1044200061957F4F8F4F9F4F0895E89409C097FB88
:104430003EF490958095709561957F4F8F4F9F4F7B
:104440009923A9F0F92F96E9BB279395F6958795BF
:1044500077956795B795F111F8CFFAF4BB0F11F482
:1044600060FF1BC06F5F7F4F8F4F9F4F16C0882329
:1044700011F096E911C0772321F09EE8872F762F5F
:1044800005C0662371F096E8862F70E060E02AF0A0
:104490009A95660F771F881FDAF7880F969587958C
:1044A00097F90895CED080F09F3740F491110EF027
:1044B000E0C060E070E080E89FEB089526F41B16F2
:1044C000611D711D811D2BC045C0990F0008550F3E
:1044D000AA0BE0E8FEEF16161706E807F907C0F08A
:1044E00012161306E407F50798F0621B730B840B92
:1044F000950B39F40A2661F0232B242B252B21F46C
:1045000008950A2609F4A140A6958FEF811D811D0B
:10451000089597F99F6780E870E060E00895882328
:1045200071F4772321F09850872B762F07C06623EC
:1045300011F499270DC09051862B70E060E02AF0AD
:104540009A95660F771F881FDAF7880F96958795DB
:1045500097F908959F3F31F0915020F48795779512
:104560006795B795880F911D9695879597F908954A
:104570009FEF80EC0895DF93CF931F930F93FF92EB
:10458000EF92DF927B018C01689405C0DA2EEF0177
:104590008DD0FE01E894A5912591359145915591D5
:1045A000AEF3EF01F0DDFE019701A801DA9479F78F
:1045B000DF90EF90FF900F911F91CF91DF910895C1
:1045C00000240A94161617061806090608950024F2
:1045D0000A9412161306140605060895092E03946C
:1045E000000C11F4882352F0BB0F40F4BF2B11F4E0
:1045F00060FF04C06F5F7F4F8F4F9F4F089557FD3F
:104600009058440F551F59F05F3F71F04795880F40
:1046100097FB991F61F09F3F79F0879508951216D7
:1046200013061406551FF2CF4695F1DF08C0161683
:1046300017061806991FF1CF869571056105089434
:104640000895E5DFA0F0BEE7B91788F4BB279F38CF
:1046500060F41616B11D672F782F8827985FF7CF63
:10466000869577956795B11D93959639C8F308950A
:10467000E894BB2766277727CB0197F9089525DFB4
:1046800008F48FEF08959B01AC0160E070E080E8D2
:104690009FE332CE0BD0A2CF93DF28F098DF18F043
:1046A000952309F036CF64CF1124E3CFA8DFA0F320
:1046B000959FD1F3950F50E0551F629FF001729FB7
:1046C000BB27F00DB11D639FAA27F00DB11DAA1FD6
:1046D000649F6627B00DA11D661F829F2227B00D23
:1046E000A11D621F739FB00DA11D621F839FA00DAE
:1046F000611D221F749F3327A00D611D231F849FFE
:10470000600D211D822F762F6A2F11249F57504054
:104710008AF0E1F088234AF0EE0FFF1FBB1F661FEF
:10472000771F881F91505040A9F79E3F510570F0A8
:10473000F0CE9FCF5F3FECF3983EDCF38695779504
:104740006795B795F795E7959F5FC1F7FE2B880FA3
:10475000911D9695879597F908959F9351D00F9045
:1047600007FCEE5F74C011F40EF402CFF3CE4FDFFE
:10477000D0F39923D9F3CEF39F57550B87FF38D049
:104780000024A0E640EA900180585695979528F4B9
:10479000805C660F771F881F20F0261737074807B1
:1047A00030F4621B730B840B202931294A2BA69508
:1047B00017940794202531254A2758F7660F771F4D
:1047C000881F20F026173707480730F4620B730B59
:1047D000840B200D311D411DA09581F7B901842F57
:1047E0009158880F9695879508959B01AC0152CFFB
:1047F00091505040660F771F881FD2F70895B8CEAA
:1048000006DFE8F3E894E0E0BB279F57F0F02AEDDD
:104810003FE049EC06C0EE0FBB0F661F771F881FF5
:1048200028F0B23A62077307840728F0B25A620B85
:10483000730B840BE3959A9572F7803830F49A9550
:10484000BB0F661F771F881FD2F7904885CEEF9366
:10485000E0FF06C0A2EA2AED3FE049EC5FEB93DC03
:10486000BDDE0F90039401FC9058E7EAF0E000C031
:104870009F938F937F936F93FF93EF939B01AC0173
:1048800009DFEF91FF9177DE2F913F914F915F917B
:1048900001CF97FB072E16F4009407D077FD09D0BF
:1048A0000E94AF2407FC05D03EF4909581959F4F60
:1048B0000895709561957F4F0895A1E21A2EAA1B65
:1048C000BB1BFD010DC0AA1FBB1FEE1FFF1FA217C0
:1048D000B307E407F50720F0A21BB30BE40BF50BBD
:1048E000661F771F881F991F1A9469F76095709546
:1048F000809590959B01AC01BD01CF010895052ED7
:1049000097FB1EF400940E94962457FD07D00E9446
:104910005D2407FC03D04EF40C94962450954095EA
:10492000309521953F4F4F4F5F4F0895909580955B
:10493000709561957F4F8F4F9F4F0895EE0FFF1F2A
:104940000590F491E02D09940E94C324A59F900D39
:10495000B49F900DA49F800D911D11240895AA1B52
:10496000BB1B51E107C0AA1FBB1FA617B70710F05A
:10497000A61BB70B881F991F5A95A9F7809590958C
:10498000BC01CD010895A29FB001B39FC001A39FB8
:10499000700D811D1124911DB29F700D811D112478
:1049A000911D0895CF93DF938230910510F482E03A
:1049B00090E0E0919F04F091A00420E030E0A0E0BE
:1049C000B0E0309739F14081518148175907B8F06C
:1049D0004817590771F482819381109729F0139633
:1049E0009C938E9312972CC09093A00480939F0465
:1049F00027C02115310531F04217530718F0A901DE
:104A0000DB0101C0EF019A01BD01DF010280F381EA
:104A1000E02DD7CF21153105F9F0281B390B2430B3
:104A2000310580F48A819B816115710521F0FB01BC
:104A30009383828304C09093A00480939F04FE011B
:104A4000329644C0FE01E20FF31F819391932250EE
:104A50003109398328833AC020919D0430919E0406
:104A6000232B41F4209102013091030130939E04E5
:104A700020939D0420910001309101012115310501
:104A800041F42DB73EB74091040150910501241B1C
:104A9000350BE0919D04F0919E04E217F307A0F41A
:104AA0002E1B3F0B2817390778F0AC014E5F5F4F84
:104AB0002417350748F04E0F5F1F50939E04409314
:104AC0009D048193919302C0E0E0F0E0CF01DF917B
:104AD000CF910895CF93DF93009709F487C0FC012D
:104AE000329713821282C0919F04D091A004209724
:104AF00081F420813181280F391F80919D0490918C
:104B00009E048217930779F5F0939E04E0939D0429
:104B10006DC0DE0120E030E0AE17BF0750F4129602
:104B20004D915C9113979D014115510509F1DA01F1
:104B3000F3CFB383A28340815181840F951F8A17DD
:104B40009B0771F48D919C911197840F951F02968C
:104B50009183808312968D919C9113979383828386
:104B60002115310529F4F093A004E0939F043EC081
:104B7000D9011396FC93EE9312974D915D91A40F7A
:104B8000B51FEA17FB0779F480819181840F951F87
:104B90000296D90111969C938E93828193811396EC
:104BA0009C938E931297E0E0F0E08A819B810097BE
:104BB00019F0FE01EC01F9CFCE010296288139816E
:104BC000820F931F20919D0430919E04281739076E
:104BD00069F4309729F41092A00410929F0402C047
:104BE00013821282D0939E04C0939D04DF91CF91D3
:104BF00008958F929F92AF92BF92CF92DF92EF92E1
:104C0000FF92CF93DF93EC01688179818A819B8148
:104C1000611571058105910521F464E279ED8BE55B
:104C200097E02DE133EF41E050E00E947F244901FD
:104C30005A019B01AC01A7EAB1E40E94A4246B01D4
:104C40007C01ACEEB4EFA50194010E94AC26C60E27
:104C5000D71EE81EF91EF7FE06C081E0C81AD1086B
:104C6000E10880E8F80AC882D982EA82FB82C7019B
:104C7000B6019F77DF91CF91FF90EF90DF90CF90BB
:104C8000BF90AF909F908F9008950E94F92508954E
:104C900086E091E00E94F9250895609306017093E3
:104CA000070180930801909309010895FC0188276A
:104CB0009927E89421912032E9F3293010F02E3021
:104CC000C8F32B3241F02D3239F4689404C00E94AD
:104CD0007426820F911D219120532A30C0F31EF4B7
:104CE000909581959F4F08957AE0979F902D879F8B
:104CF000802D910D112408950F931F93CF93DF936F
:104D0000E091A304F091A404238121FF1BC0EC01D6
:104D100000E010E089916091A3047091A404DB018C
:104D20001896ED91FC911997882331F00995892BFC
:104D300089F30FEF1FEFEECF8AE00995892B11F46D
:104D4000C80102C08FEF9FEFDF91CF911F910F91AC
:104D50000895B7FF0C94A4240E94A424821B930BF3
:104D6000089511E0C4E2D1E004C0FE010E94A02435
:0C4D70002296C632D107C9F7F894FFCF95
:104D7C000000A70480000100000002009600000063
:104D8C000607050813011302120112021101110288
:104D9C0010011002000001564552003132696E318B
:104DAC005F415F3100425A00524742004952004F66
:104DBC004B005468657265206973206E6F742065B2
:104DCC006E6F756768207370616365210D0000005C
:104DDC000000981E14201A1E331E251E761E0D0A66
:104DEC00006E616E00696E66006F7666002E0000C4
:00000001FF
