:100000000C9488000C94B0000C94B0000C94B000D8
:100010000C94B0000C94B0000C94B0000C94E70F5A
:100020000C94B0000C94B0000C94B0000C94CD1B58
:100030000C94B0000C94B0000C94B0000C94B00080
:100040000C94C11D0C94B0000C942A210C945C21DA
:100050000C94B0000C94B0000C94B0000C94B00060
:100060000C94B0000C94B0000000000800020100E5
:100070000003040700000000000000000102040863
:100080001020408001020408102001020408102002
:10009000040404040404040402020202020203032E
:1000A00003030303000000002300260029000000D2
:1000B0000000250028002B0000000000240027007D
:1000C0002A006364696E6F70737578585B004E41E7
:1000D0004E494E495459494E46CDCCCC3D0AD723C2
:1000E0003C17B7D13877CC2B329595E6241FB14F0A
:1000F0000A000020410000C84200401C4620BCBE4F
:100100004CCA1B0E5AAEC59D740095098C21F80986
:1001100011241FBECFEFD8E0DEBFCDBF11E0A0E0BD
:10012000B1E0E0E6FBE502C005900D92AC39B10705
:10013000D9F724E0ACE9B1E001C01D92A532B207C5
:10014000E1F711E0CEE0D1E004C02297FE010E9469
:100150002527CA30D107C9F70E94D0210C94A32DBE
:100160000C94000061E080E992E00E94600E60E083
:1001700070E080E992E00E94A60E62E080E992E0E1
:100180000E94600E60E070E080E992E00C94A60EA0
:1001900081E0809380008BE0809381000895CF936D
:1001A000DF93E3E2F2E0C0E0D0E04191242F30E0C1
:1001B00028173907C9F0411110C0FE01ED5DFD4F50
:1001C00080839E01220F331F2C0F3D1FBC01C901EC
:1001D000895D9D4F0E94231D07C02196C430D10523
:1001E00021F780E090E001C0CE01DF91CF9108952A
:1001F000EF92FF920F931F93CF93DF93EB01FC01DC
:100200006081613401F5FF92EF921F930F933F934A
:100210002F935F934F93DF93CF932BE331E03F9383
:100220002F939F938F930E94B628888199810E9671
:10023000998388838DB79EB70E960FB6F8949EBFAC
:100240000FBE8DBF1AC0FF92EF921F930F933F9383
:100250002F935F934F93DF93CF932CE331E03F9342
:100260002F939F938F930E94B6288DB79EB70E96BB
:100270000FB6F8949EBF0FBE8DBFDF91CF911F9137
:100280000F91FF90EF900895DC01ED91FC91119793
:100290009F012F5F3F4F2D933C9320812032A1F788
:1002A0000895EF92FF920F931F93CF93DF93CDB7F3
:1002B000DEB72C970FB6F894DEBF0FBECDBF9C877C
:1002C0008B87CE010B960E944401CE0101967C01E2
:1002D0008E010D5F1F4F9E012B5F3F4FAE01495FA7
:1002E0005F4FBE01675F7F4F8B859C850E94F80042
:1002F00069858EE692E00E94471909812B814D8124
:100300006F818EE692E00E948B198EE692E00E9449
:10031000DD192C960FB6F894DEBF0FBECDBFDF916E
:10032000CF911F910F91FF90EF900895EF92FF9260
:100330000F931F93CF93DF93CDB7DEB72C970FB6F4
:10034000F894DEBF0FBECDBF9C878B87CE010B9686
:100350000E944401CE0101967C018E010D5F1F4F6A
:100360009E012B5F3F4FAE01495F5F4FBE01675F4C
:100370007F4F8B859C850E94F80069858BE592E014
:100380000E941D1A09812B814D816F818BE592E0BE
:100390000E941F1A8BE592E00E94521A2C960FB60B
:1003A000F894DEBF0FBECDBFDF91CF911F910F91AB
:1003B000FF90EF900895CF93DF93EC010E944401EA
:1003C00088819981DF91CF910C946328CF93DF933B
:1003D00000D0CDB7DEB79A838983CE0101960E9403
:1003E000DB01682F80E992E00E94600ECE01019649
:1003F0000E94DB01BC0180E992E00E94A60E0F90F2
:100400000F90DF91CF910895EF92FF920F931F937A
:10041000CF93DF9300D0CDB7DEB79A838983CE0127
:1004200001960E94DB017C01CE0101960E94DB0156
:100430008C01C7010E94CF00053B110558F49C01B7
:10044000220F331F280F391FB801C901895D9D4F45
:100450000E945C1D0F900F90DF91CF911F910F9123
:10046000FF90EF900895CF93DF9300D0CDB7DEB724
:100470009A83898362E080E992E00E94600ECE0157
:1004800001960E94DB01BC0180E992E00E94A60E69
:1004900061E080E992E00E94600ECE0101960E9428
:1004A000DB01BC0180E992E00E94A60E0F900F9044
:1004B000DF91CF9108951F93CF93DF9300D0CDB7F5
:1004C000DEB79A838983CE0101960E94DB01182F43
:1004D00060E00E944D1F812F0E94A81E4AE050E05C
:1004E000BC018CE793E00E94DD220F900F90DF911A
:1004F000CF911F9108951F93CF93DF9300D0CDB775
:10050000DEB79A838983CE0101960E94DB01182F02
:1005100060E00E944D1F812F0E94A81E4AE050E01B
:10052000BC018CE793E00E94DD220F900F90DF91D9
:10053000CF911F910895CF93DF9300D0CDB7DEB751
:100540009A838983CE0101960E94DB01682F8AE499
:1005500092E00E94A910CE0101960E94DB01209139
:10056000220230E02817390719F46CE471E002C068
:1005700061E571E08CE793E00E9428220F900F90D4
:10058000DF91CF910895CF93DF9300D0CDB7DEB741
:100590009A838983CE0101960E94DB01682F87E749
:1005A00092E00E94991A87E792E00E949B1AAB01A1
:1005B000BC0122E030E08CE793E00E941A240F9007
:1005C0000F90DF91CF9108951F93CF93DF9300D0C9
:1005D000CDB7DEB79A838983CE0101960E94DB01F5
:1005E000182F60E00E944D1F812F0E94BC1F892B95
:1005F00019F46CE471E002C061E571E08CE793E00E
:100600000E9428220F900F90DF91CF911F910895A3
:100610000F931F93CF93DF9300D0CDB7DEB79A83AC
:100620008983CE0101960E94DB018C01CE010196E7
:100630000E94DB019C01442737FD4095542FB801EF
:1006400085E592E00E94FC0D0F900F90DF91CF9115
:100650001F910F910895CF93DF9300D0CDB7DEB7F0
:100660009A838983CE0101960E94DB01682F8CEB6F
:1006700092E00E94501B8CEB92E00E94521BAB0157
:10068000BC0122E030E08CE793E00E941A240F9036
:100690000F90DF91CF910895CF93DF9300D0CDB726
:1006A000DEB79A838983CE0101960E94DB01682F11
:1006B0008AEC92E00E9472118AEC92E00E9474111E
:1006C000882319F06CE471E002C061E571E08CE709
:1006D00093E00E9428220F900F90DF91CF91089510
:1006E000CF93DF9300D0CDB7DEB79A838983CE0155
:1006F00001960E94DB01682F89EC92E00E947A1A31
:1007000089EC92E00E947F1A4AE050E0BC018CE73D
:1007100093E00E94DD220F900F90DF91CF9108951A
:10072000EF92FF920F931F93CF93DF9300D01F920E
:10073000CDB7DEB79A838983CE0101960E94DB0193
:10074000682FCE0101966B830E94DB01F82E6B812E
:100750008AEC92E00E947211CE0101960E94DB01A8
:10076000182FCE0101960E94DB01082FCE010196C1
:100770000E94DB01E82EF0FE07C0282F402F612FDA
:100780008AEC92E00E94BD11F1FE07C02E2D402F91
:10079000612F8AEC92E00E94C3110F900F900F908E
:1007A000DF91CF911F910F91FF90EF900895EF92FD
:1007B000FF920F931F93CF93DF9300D01F92CDB77B
:1007C000DEB79A838983CE0101960E94DB01682FF0
:1007D000CE0101966B830E94DB01F82E6B818CEBBE
:1007E00092E00E94501BCE0101960E94DB01182F5F
:1007F000CE0101960E94DB01082FCE0101960E94D6
:10080000DB01E82EF0FE07C0282F402F612F8CEB74
:1008100092E00E94C11BF1FE07C02E2D402F612FD8
:100820008CEB92E00E94C71B0F900F900F90DF910E
:10083000CF911F910F91FF90EF9008950F931F9309
:10084000CF93DF9300D01F92CDB7DEB79A83898311
:10085000CE0101960E94DB01682FCE0101966B83C9
:100860000E94DB018C016B8186EB92E00E94721783
:1008700086EB92E00E94741786EB92E0013011053E
:1008800019F40E948D1702C00E9490174AE050E0B0
:10089000682F8CE793E00E9402230F900F900F9037
:1008A000DF91CF911F910F910895FF920F931F93A6
:1008B000CF93DF9300D000D0CDB7DEB79A83898382
:1008C000CE0101960E94DB01682FCE0101966C8358
:1008D0000E94DB01F82ECE0101960E94DB01482F19
:1008E000CE0101964B830E94DB018C016C818BE968
:1008F00092E00E94241221E04B81012B09F420E0B8
:100900006F2D8BE992E00E94D1130F900F900F9002
:100910000F90DF91CF911F910F91FF9008951F933A
:10092000CF93DF9300D000D0CDB7DEB79A83898311
:10093000CE0101960E94DB01682FCE0101966C83E7
:100940000E94DB01182FCE0101960E94DB01482F87
:10095000CE0101964B830E9444016C818BE992E0A9
:100960000E94241229813A814B81612F8BE992E008
:100970000E9477130F900F900F900F90DF91CF91FF
:100980001F9108959F92AF92BF92CF92DF92EF9204
:10099000FF920F931F93CF93DF93CDB7DEB760978E
:1009A0000FB6F894DEBF0FBECDBF988B8F878E0138
:1009B000015F1F4FC8010E94DB01982EC8010E94F1
:1009C000DB01D82EC8010E94DB01C82ECE010196A2
:1009D0007C015C01C8010E94DB01F70181937F016A
:1009E000E017F107B9F7692D8BE992E00E94241214
:1009F00095014C2D6D2D8BE992E00E944612609678
:100A00000FB6F894DEBF0FBECDBFDF91CF911F911F
:100A10000F91FF90EF90DF90CF90BF90AF909F909D
:100A200008951F93CF93DF9300D01F92CDB7DEB709
:100A30009A838983CE0101960E94DB01682FCE0143
:100A400001966B830E94DB01182FCE0101960E9454
:100A5000DB01482F6B818BE992E04B830E942412CB
:100A60004B81612F8BE992E00E94F7120F900F905B
:100A70000F90DF91CF911F9108951F93CF93DF9334
:100A800000D01F92CDB7DEB79A838983CE0101963D
:100A90000E94DB01682FCE0101966B830E94DB016F
:100AA000182FCE0101960E94DB01482F6B818BE944
:100AB00092E04B830E9424124B81612F8BE992E0DC
:100AC0000E941E130F900F900F90DF91CF911F91F6
:100AD0000895CF93DF9300D0CDB7DEB79A83898393
:100AE000CE0101960E94DB01682F8BE992E00E9403
:100AF00024128BE992E00E9426120F900F90DF9152
:100B0000CF9108951F93CF93DF9300D0CDB7DEB779
:100B10009A838983CE0101960E94DB01182FCE01B2
:100B200001960E94DB01682F812F0E94861F0F9083
:100B30000F90DF91CF911F910895FF920F931F9314
:100B4000CF93DF9300D01F92CDB7DEB79A8389830E
:100B5000CE0101960E94DB01682FCE0101966B83C6
:100B60000E94DB01F82ECE0101960E94DB018C0170
:100B70006B818AEC92E00E947211F1FE0AC08AEC4D
:100B800092E00115110519F00E94F11102C00E94B6
:100B9000F611F0FE09C08AEC92E0012B19F00E94D8
:100BA000E71102C00E94EC110F900F900F90DF919F
:100BB000CF911F910F91FF900895CF93DF9300D0B5
:100BC000CDB7DEB79A838983CE0101960E94DB01FF
:100BD000682F8FE392E00E941A1B8FE392E00E943D
:100BE0001C1B882319F06CE471E002C061E571E020
:100BF0008CE793E00E9428220F900F90DF91CF9115
:100C000008950F931F93CF93DF9300D01F92CDB71A
:100C1000DEB79A838983CE0101960E94DB01682F9B
:100C2000CE0101966B830E94DB018C016B8184E411
:100C300092E00E94B60F84E492E00E94B80F60E058
:100C400084E492E0012B19F40E94DC0F02C00E94A0
:100C5000D10F4AE050E0BC018CE793E00E941923D9
:100C60000F900F900F90DF91CF911F910F910895EA
:100C7000CF93DF9300D0CDB7DEB79A838983CE01BF
:100C800001960E94DB010E94A81E4AE050E0BC01D0
:100C90008CE793E00E94DD220F900F90DF91CF91BF
:100CA0000895CF93DF9300D0CDB7DEB79A838983C1
:100CB000CE0101960E94DB01682F86E892E00E9437
:100CC000830BCE0101960E94DB01BC0186E892E015
:100CD0000E94A80B0F900F90DF91CF9108950F9372
:100CE0001F93CF93DF9300D0CDB7DEB79A8389836C
:100CF000CE0101960E94DB01182FCE0101960E94C1
:100D0000DB01082F61E0812F0E944D1F602F812F92
:100D10000E94861F0F900F90DF91CF911F910F912E
:100D20000895CF93DF9300D0CDB7DEB79A83898340
:100D3000CE0101960E94DB01682F86E592E00E94B9
:100D4000BD1886E592E00E94BF184AE050E0682F87
:100D50008CE793E00E9402230F900F90DF91CF91D8
:100D60000895CF93DF93EC010E944401888199811B
:100D7000DF91CF910C945F28CF92DF92EF92FF9298
:100D80001F93CF93DF9300D0CDB7DEB79A838983CB
:100D9000CE0101960E94DB01182FCE0101960E9420
:100DA000B1066B017C01612F8BE992E00E94241255
:100DB000B701A6018BE992E00E9410140F900F90EA
:100DC000DF91CF911F91FF90EF90DF90CF9008952A
:100DD000CF92DF92EF92FF921F93CF93DF9300D0D9
:100DE000CDB7DEB79A838983CE0101960E94DB01DD
:100DF000182FCE0101960E94B1066B017C01612F74
:100E000083E392E00E94240CB701A60183E392E001
:100E10000E944B0C0F900F90DF91CF911F91FF908C
:100E2000EF90DF90CF900895EF92FF920F931F9372
:100E3000CF93DF931F92CDB7DEB78C0101960E944E
:100E400063288137910509F4DBC00CF060C08B305A
:100E5000910509F421C164F58330910509F4E4C0DA
:100E600074F48130910509F4D5C00CF0D8C0892BF9
:100E700009F03FC124EEE22E22E0F22E11C18830AB
:100E8000910509F49AC044F4079709F032C14BE97F
:100E9000E42E42E0F42E04C18930910509F492C099
:100EA0000A9709F026C1B8E0EB2EB3E0FB2EF2C0A2
:100EB0008636910509F490C07CF48D30910509F4D3
:100EC000E5C00CF475C08336910509F012C1B6E493
:100ED000EB2EB9E0FB2EDEC08E36910509F486C0FC
:100EE0004CF48D36910509F004C167EDE62E63E000
:100EF000F62ED0C08F36910509F47DC0803791055C
:100F000009F0F7C03CEBE32E36E0F32EC3C08A377E
:100F1000910509F4A7C01CF58537910509F493C024
:100F20005CF48337910509F470C00CF087C09FE82A
:100F3000E92E94E0F92EAEC08737910509F488C0F8
:100F40000CF477C08837910509F487C0893791057B
:100F500009F0CFC02DEDE22E25E0F22EA1C08E3794
:100F6000910509F48EC05CF48C37910509F47FC0BB
:100F70000CF082C0B8EEEB2EB6E0FB2E8BC0893CA5
:100F8000910529F14CF4883C910509F0B2C0A6EE18
:100F9000EA2EA1E0FA2E7EC08A3C910511F18C3C2C
:100FA000910509F0A6C0A1E5EA2EA6E0FA2E72C0CE
:100FB00033ECE32E32E0F32E73C09BE5E92E92E092
:100FC000F92E6EC081E5E82E81E0F82E63C0F3E3D0
:100FD000EF2EF2E0FF2E5EC0E2EBEE2EE0E0FE2E02
:100FE00059C074E0E72E72E0F72E54C05BE2E52EA4
:100FF00053E0F52E55C04EE1E42E44E0F42E50C0EF
:1010000025E5E22E24E0F22E45C082ECE82E84E0B5
:10101000F82E40C0A1E1EA2EA5E0FA2E3BC0FDE388
:10102000EF2EF5E0FF2E36C0E9E6EE2EE5E0FE2ECF
:1010300031C070E9E72E73E0F72E2CC060E7E62E92
:1010400063E0F62E2DC05CE4E52E53E0F52E28C0BB
:1010500042E8E42E45E0F42E1DC03DE9E32E35E0E4
:10106000F32E18C091E0E92E96E0F92E19C088E31E
:10107000E82E86E0F82E14C0FFE6EF2EF6E0FF2EF5
:1010800009C0E1E9EE2EE6E0FE2E0AC076E9E72E81
:1010900071E0F72E20E005C06BE7E62E62E0F62E49
:1010A00021E0D8010D900020E9F7AD014150510930
:1010B000401B510BE0917C03F0917D030280F38192
:1010C000E02DB8018CE793E029830995C801F70169
:1010D0000995298121110DC067E571E08CE793E046
:1010E0000F90DF91CF911F910F91FF90EF900C9493
:1010F00028220F90DF91CF911F910F91FF90EF90D9
:101100000895FC0120812D3411F40C9414070895E6
:1011100060E083E10E944D1F60E082E10E944D1F6C
:1011200060E080E10E944D1F60E08FE00E944D1F53
:1011300061E083E00E944D1F61E08EE00E944D1F40
:1011400061E084E00E944D1F61E08DE00E944D1F30
:101150008AE492E00C94B91028EE33E040E050E0CD
:1011600066E271E085E592E00E94FC0D2CE231E040
:1011700040E050E06FEE71E085E592E00E94FC0DEA
:1011800026E040E052EC61E070E08CE793E00E94E2
:10119000C8200C9488080F931F938AE492E00E9461
:1011A0002C11892B79F00E940B1E60931E02709304
:1011B0001F02809320029093210280914D02809320
:1011C000220215C00E940B1E00911E0210911F02E8
:1011D0002091200230912102601B710B820B930B36
:1011E000693C71058105910510F0109222021F9152
:1011F0000F910895DF92EF92FF920F931F93CF9379
:10120000DF93CAEDD2E00AE511E0F2E0CE3DDF0760
:10121000A9F1EE24E394F12C8881811102C0E12C24
:10122000F12CF801D1908F018D2D0E94BC1FE81682
:10123000F90611F18881882311F018821DC060E938
:1012400071E080E090E00E943A1E6D2D86ED92E004
:101250000E94941786ED92E00E94AE1761E086ED41
:1012600092E00E94251886ED92E00E94DC1786ED40
:1012700092E00E948D1888832196C7CFDF91CF918D
:101280001F910F91FF90EF90DF9008950F931F93A0
:10129000CF93DF9380E090E00E94B20060E083E0B3
:1012A0000E94861F60E084E00E94861F60E08EE05E
:1012B0000E94861F60E08DE00E94861F0E94FA084F
:1012C000CAE5D1E00AED12E0F1E0CE35DF0741F1E9
:1012D000F80181918F01882309F18130A1F468819F
:1012E0008CEB92E00E94501B20E040E060E08CEB31
:1012F00092E00E94C11B20E040E060E08CEB92E0B5
:101300000E94C71B0BC0833049F468818BE992E0CF
:101310000E9424128BE992E00E9426122196D4CFDB
:10132000DF91CF911F910F910895CF93DF9386EDB9
:1013300092E00E94931760E08AEC92E00E945611BE
:1013400060E089EC92E00E947D1A60E08CEB92E014
:101350000E94341B60E086EB92E00E945E1760E022
:101360008BE992E00E94201260E080E992E00E9406
:101370008C0E60E086E892E00E948F0B60E087E7C9
:1013800092E00E94831A60E08EE692E00E942619A5
:1013900060E08BE592E00E94021A60E086E592E050
:1013A0000E94A91867E085E592E00E94F90D62E0CD
:1013B0008AE492E00E949D1060E084E492E00E9442
:1013C000A20F60E08FE392E00E94061B60E083E3DF
:1013D00092E00E94100CC7E2D2E0CE010E94891C6C
:1013E000239682E0C333D807C1F7DF91CF910895E8
:1013F0008EE692E00C94F6191F93CF93DF93C0E82A
:10140000D0E010E28CE793E00E94E51F892B81F188
:101410008CE793E00E94FE1F20911C0230911D0278
:101420008A30C1F4C9010197FC01E456FE4F4081A6
:101430004D3011F49C01F6CFF901E456FE4F1083B4
:10144000118210921D0210921C028CE991E00E9400
:101450008108D8CFF901E456FE4F8083C901019677
:10146000BE010E94AF2690931D0280931C02CACF3A
:10147000DF91CF911F9108950E94CB080C94FC0935
:10148000089570E0FB01E458FF4FE491DC01EC9318
:10149000FB01E057FF4FE491F0E0EE0FFF1FEC552A
:1014A000FF4F25913491FC013283218308951F93CE
:1014B000CF93DF93FC011081C181D2819981812F6B
:1014C0008095892389838A81812B8A838AE090E0B1
:1014D0000E94621E9881912381E009F480E0DF91EF
:1014E000CF911F910895FF920F931F93CF93DF9396
:1014F000FC011081C181D281F8948981F12EF09490
:101500008F2189838A81812B8A8378940DE701500A
:1015100041F182E090E00E94621E88818123B9F34C
:10152000F8948A818F218A838981812B8983789499
:1015300080EE91E00E94621EF89489818F21898358
:101540008A81812B8A8386E490E00E94621E8881D2
:10155000812301E009F000E078948AE991E00E949B
:10156000621E802FDF91CF911F910F91FF90089500
:101570001F93CF93DF93FC011081C181D281912F02
:10158000909560FF12C0F8948A8189238A838981AB
:10159000812B89838AE090E00E94621E8A81812BE0
:1015A0008A83789487E390E011C0F8948A81892334
:1015B0008A838981812B898381E490E00E94621E65
:1015C0008A81812B8A83789485E090E0DF91CF91A6
:1015D0001F910C94621E0F931F93CF93DF93FC0116
:1015E0001081C181D281F8948981812B89838A817C
:1015F000012F009580238A8383E090E00E94621E81
:101600008981802389838A81812B8A838AE090E083
:101610000E94621EC881789485E390E00E94621E59
:101620001C2381E009F480E0DF91CF911F910F919D
:101630000895CF92DF92EF92FF920F931F93CF9373
:10164000DF931F92CDB7DEB76C01E62E08E010E005
:10165000FF24F39461E09F2D9E2109F460E0C60110
:1016600049830E94B80AFF0C0150110949810115F4
:10167000110581F741111DC0F894D6011196ED9125
:10168000FC91129791818C91809589238183119689
:10169000ED91FC91129782819C91892B8283119606
:1016A000ED91FC91129792818C9180958923828390
:1016B00078940F90DF91CF911F910F91FF90EF9051
:1016C000DF90CF900895EF92FF920F931F93CF93E7
:1016D000DF938C01C8E0D0E0F12CEE24E394C80144
:1016E0000E94EB0A8111FE28EE0C2197C1F78F2D85
:1016F000DF91CF911F910F91FF90EF90089540E0FF
:101700006CEC0C94190BCF93DF93EC010E949417AF
:101710008CE291E09F838E83DF91CF9108950F93A8
:101720001F93CF93DF931F92CDB7DEB78C016983F0
:101730000E949317F801178216821086118669811C
:10174000C8010F90DF91CF911F910F910C94830BE3
:10175000CF92DF92EF92FF92CF93DF93EC016F3F36
:10176000710519F014F06FEF70E061308FEF7807BA
:1017700014F461E07FEF8E819F818617970709F44B
:1017800048C07F836E836B01EE24D7FCE094FE2C6F
:10179000CE0177FD14C00E94AE1762E0CE010E9418
:1017A0002518CE010E94AE17C701B6010E94782508
:1017B00020E030E040E250E40E94DD241BC00E94A3
:1017C000AE1762E0CE010E942518CE010E94AE172E
:1017D000C701B6010E94782520E030E040E250E4E5
:1017E0000E94DD249B01AC0160E070E088EC92E493
:1017F0000E9474240E944A25CE010E94251884EF7D
:1018000091E0DF91CF91FF90EF90DF90CF900C941B
:10181000621EDF91CF91FF90EF90DF90CF900895FF
:101820000F931F93CF93DF931F92CDB7DEB78C0139
:1018300069830E9493176981C8010F90DF91CF914E
:101840001F910F910C9494170C949417CF93DF93DE
:10185000EC010E94AE1781111BC062E0CE010E9414
:101860002518CE010E94AE17811112C06C81CE01E5
:101870000E9425186D81CE010E9425186E81CE012F
:101880000E9425186F81CE01DF91CF910C9425180D
:10189000DF91CF9108952F923F924F925F926F9276
:1018A0007F928F929F92AF92BF92CF92DF92EF92F0
:1018B000FF920F931F93CF93DF93CDB7DEB72F9790
:1018C0000FB6F894DEBF0FBECDBF8C012A013B01DD
:1018D0009A01AB01FC0160857185828593850E9428
:1018E000D924882309F46CC1F801408651866286A8
:1018F0007386CE0101969C878B878AE0EB85FC85F9
:1019000011928A95E9F720E03CE34CE156E4C301EB
:10191000B2010E94282687FD04C089E0F801848373
:101920000EC020E030EC49E754ECC301B2010E9444
:10193000D924181644F080E1F801848389E0858376
:1019400086838783D3C020E030E0A901C301B201C0
:101950000E94D924811107C080E4F8018483858323
:1019600086831782C3C020E030E0A901C301B20121
:101970000E94D92487FF07C077FA709477F8709493
:10198000F1E0FD8701C01D8620E030E04AE754E425
:10199000C301B2010E94DD240E944A256983C3016C
:1019A000B2010E9445259B01CB0168EE73E00E94C5
:1019B000AF26E4E6F0E0BF010E94AF266A83C901CA
:1019C000BF010E94AF264AE0E42EF12CB7010E942D
:1019D000AF266B83C901B7010E94AF265C018C83DF
:1019E00020E030E040E251E4C301B2010E942C2625
:1019F0000E944525CB01B7010E94AF266C018D8363
:101A000020E030E048EC52E4C301B2010E942C26F1
:101A10000E944525CB01B7010E94AF264C018E8361
:101A200020E030E04AE754E4C301B2010E942C26D2
:101A30000E944525CB01B7010E94AF269F878E8764
:101A40008F83212CE22CF12CE1E0F0E0EC0FFD1F64
:101A5000EE0DFF1D3080311002C02394F3CF20E043
:101A600030E040E85FE3C301B2010E94282687FD11
:101A700010C0A32CFE01EE0DFF1DC280FE01EE0D75
:101A8000FF1D8380FE01EE0DFF1D848124E02219DD
:101A900007C0BB24DD2499248E859F85992721E0EA
:101AA0003D85313059F480E1F8018483A582C682F6
:101AB0008782223051F02130C9F40DC0F801A48290
:101AC000C58286828783233021F486818062868363
:101AD0000DC0223029F4F80185818062858306C01B
:101AE000213021F4F801848180628483F8018481AB
:101AF00085FF0BC08581811141C0868181113EC067
:101B00008781882309F445C039C0F801858185FFA4
:101B10000AC0868181114DC0878181114AC0F801B8
:101B200085818F703FC0F801868185FF0CC0878159
:101B3000811109C086818F70878385818683848126
:101B4000858380E48483C8012F960FB6F894DEBFA6
:101B50000FBECDBFDF91CF911F910F91FF90EF90FE
:101B6000DF90CF90BF90AF909F908F907F906F90BD
:101B70005F904F903F902F900C94260CF801868137
:101B8000811117C0F8018781811113C0F801858187
:101B900009C0F80184818F70878380E48483858302
:101BA0008683D1CF87838481868380E48483858301
:101BB000CACFF80187818111C6CFF8018681BCCFD9
:101BC0002F960FB6F894DEBF0FBECDBFDF91CF9139
:101BD0001F910F91FF90EF90DF90CF90BF90AF904B
:101BE0009F908F907F906F905F904F903F902F903D
:101BF00008956093DE0208954F925F926F927F92F4
:101C00008F929F92AF92BF92CF92DF92EF92FF920C
:101C10000F931F93CF93DF9369017A019B0140E0FB
:101C200050E060E472E48FE090E00E94E526E90174
:101C3000890137FF02C00F5F1F4F1595079561E0BF
:101C40008091DE020E944D1FA8EEB3E0A70196012D
:101C50000E9404274B015C01C12CD12C76012E017E
:101C6000662457FC6094762CC814D904EA04FB045B
:101C7000B0F461E08091DE020E94861FC8010E94DC
:101C8000621E60E08091DE020E94861FC8010E94F1
:101C9000621EA895C40CD51CE61CF71CE5CFDF918D
:101CA000CF911F910F91FF90EF90DF90CF90BF9059
:101CB000AF909F908F907F906F905F904F9008951E
:101CC0000F931F93CF93DF93EC01062F10E0000FCB
:101CD000111F065F1E4F633050F0F8016081CE0186
:101CE0000E949417F8018181898718860CC061E0F1
:101CF000F80181810E944D1FF80180818D838181CF
:101D00008C8381E088878CE291E09F838E83DF91D2
:101D1000CF911F910F9108950F931F93CF93DF934E
:101D20001F92CDB7DEB78C0169830E949317F8012B
:101D3000178216821086118612866981C8010F905B
:101D4000DF91CF911F910F910C94600EEF92FF9253
:101D50000F931F93CF93DF9300D0CDB7DEB77C01F5
:101D6000FC018285811109C069837A830E94C800C1
:101D700081E0F70182877A8169818B016F3F71056C
:101D800019F014F00FEF10E00130FFEF1F0714F40B
:101D900001E01FEFF701868197818017910709F411
:101DA000C8C017830683808517FD4EC0813079F542
:101DB0008481873019F4848160E006C0F701848152
:101DC000883089F4848161E00E94861FF701858153
:101DD000B8010F900F90DF91CF911F910F91FF905D
:101DE000EF900C94C51EF7018481893029F0F7012A
:101DF0008481863009F09DC0848161E00E94861F45
:101E0000F70185816FEF70E0601B710BE2CFC701B6
:101E10000E94AE1762E0C7010E942518C7010E9408
:101E2000AE17F7016185C7010E942518B801882700
:101E300077FD8095982F0E94782520E030E040E2E1
:101E400050E40E94DD2464C08130F1F5F701848103
:101E5000873061F4848161E00E94861FF7018581EB
:101E600066277727601B710B0E94C51EF7018481CE
:101E7000883061F4848160E00E94861FF7018581CB
:101E800066277727601B710B0E94C51EF7018481AE
:101E9000893059F4858161E00E94861FF7018481B1
:101EA000B80161507F4F0E94C51EF70184818630C2
:101EB00009F03FC0858161E00E94861FF70184819F
:101EC000B80161507F4F85CFC7010E94AE1762E015
:101ED000C7010E942518C7010E94AE17F70161854E
:101EE000C7010E942518B801882777FD8095982F93
:101EF0000E94782520E030E040E250E40E94DD249A
:101F00009B01AC0160E070E088EC92E40E947424D4
:101F10000E944A25C7010E94251884EF91E00F9086
:101F20000F90DF91CF911F910F91FF90EF900C9444
:101F3000621E0F900F90DF91CF911F910F91FF9034
:101F4000EF9008950F931F93CF93DF931F92CDB718
:101F5000DEB78C0169830E9493176981C8010F90D5
:101F6000DF91CF911F910F910C9494170C949417BB
:101F7000CF93DF93EC010E94AE1781110FC062E096
:101F8000CE010E942518CE010E94DC17CE010E94CE
:101F90008D188C83CE010E948D188D83DF91CF9197
:101FA0000895CF93DF93EC0161110E94B80F8C81EB
:101FB00090E0DF91CF910895CF93DF93EC01611111
:101FC0000E94B80F8D8190E0DF91CF9108951F920C
:101FD0000F920FB60F9211240F931F932F933F93DD
:101FE0004F935F936F937F938F939F93AF93BF9321
:101FF000CF93EF93FF938091DF020E94BC1FC82F05
:102000002091E6023091E7022F5F3F4F3093E702C5
:102010002093E60280914C03843618F085E080938B
:10202000E1029091E102933079F018F4923039F0A6
:1020300070C0943011F1953009F44AC06AC0C111E2
:1020400068C010924C0329C0C13009F062C0E09111
:102050004C0381E08E0F80934C03F0E08091E60208
:102060009091E702E052FD4F80871092E7021092B4
:10207000E60284E08093E1024CC0C11114C0E091FB
:102080004C0381E08E0F80934C03F0E08091E602D8
:102090009091E702E052FD4F80871092E702109284
:1020A000E60283E0E7CF8091E6029091E702853671
:1020B000910578F185E08093E1020E940B1E609308
:1020C000E2027093E3028093E4029093E50221C060
:1020D0000E940B1E0091E2021091E3022091E402A3
:1020E0003091E502601B710B820B930B693C71050B
:1020F0008105910540F010924C031092E702109276
:10210000E60282E0B7CFC11104C01092E70210923C
:10211000E602FF91EF91CF91BF91AF919F918F9187
:102120007F916F915F914F913F912F911F910F91EF
:102130000F900FBE0F901F9018956093DF02809153
:10214000DF0260E00E944D1F8091DF028093E00279
:1021500008958091DF02861759F06093DF02809125
:10216000DF0260E00E944D1F8091DF028093E00259
:102170000895F89482E08093B0008093B10094E6D3
:102180009093B3001092B2008093700078941092F4
:102190004C038093E10208951F93CF93DF93FC01DA
:1021A000A681B7818C9186588D3558F480859185AC
:1021B00083309105A1F411968C9111978152893148
:1021C00018F080E090E044C012968C9188508730DF
:1021D000C0F7158281E0808381E090E039C08334CC
:1021E00091057CF311968C91119783548F3248F7A7
:1021F00082E090E040E050E0BA019D012F5F3F4F48
:10220000EC01CA0FDB1FC881C850C730D0F6E90106
:10221000C80FD91F18811751133180F4769567952F
:1022200057954795706802968234910549F780E288
:1022300085834183528363837483CCCFC881C85024
:10224000C73008F0BECF7695679557954795EBCF89
:10225000DF91CF911F9108950F931F93CF93DF9339
:10226000EC0188EE92E09F838E8380914C0390E096
:10227000998788878091E102853081F4CE010E94A0
:10228000CC108C01CE010115110529F00E94B91066
:1022900001E010E005C00E94B91002C000E010E0AB
:1022A000C801DF91CF911F910F9108950F931F9354
:1022B000CF93DF931F92CDB7DEB78C0169830E9465
:1022C0009317F801158216821782108611861286DE
:1022D00013866981C8010F90DF91CF911F910F91F3
:1022E0000C9494170C949417CF93DF93EC010E94F5
:1022F000AE17811111C062E0CE010E942518CE01F7
:102300000E94DC17CE010E948D188C8388E293E234
:102310000E94621E8C8101C080E0DF91CF91089500
:10232000CF93DF93EC010E94AE17811123C063E0CD
:10233000CE010E942518CE010E94AE1781111AC04D
:102340006E81CE010E9425186F81CE010E94251852
:102350006885CE010E9425186985CE010E94251846
:102360006A85CE010E9425186B85CE01DF91CF9141
:102370000C942518DF91CF910895FC016683478363
:1023800020870C949011FC016187428723870C946D
:1023900090111F93CF93DF93EC01162F0E94AE177D
:1023A000811111C064E0CE010E942518CE010E9467
:1023B000AE17811108C01D836D81CE01DF91CF91D1
:1023C0001F910C942518DF91CF911F910895FC0166
:1023D000658161600C94C911FC0165816E7F0C946C
:1023E000C911FC01658162600C94C911FC01658111
:1023F0006D7F0C94C9110F931F93CF93DF9300D07F
:102400001F92CDB7DEB78C012B834A8369830E946C
:102410009317F801349685E1DF011D928A95E9F75B
:102420004A81F801418F2B81228F6981C8010F9069
:102430000F900F90DF91CF911F910F910C949417F3
:1024400025E04EE00C94FB110C949417CF93DF938E
:10245000EC01298D80E090E0821730F4FE01E80F56
:10246000F91F14820196F8CFCE010E94AE17811198
:102470000AC065E0CE010E94251888E893E1DF914B
:10248000CF910C94621EDF91CF9108955F926F926D
:102490007F928F929F92AF92BF92CF92DF92EF92F4
:1024A000FF920F931F93CF93DF93EC01542E4901BA
:1024B000E98CF12C8A8DA62EBB24A7FCB094222790
:1024C00033272E193F092A153B0594F4AE14BF0497
:1024D0007CF490E0C42EDD24C7FCD094222733275F
:1024E000281B390B2C153D051CF4C816D90694F091
:1024F000CE01DF91CF911F910F91FF90EF90DF9070
:10250000CF90BF90AF909F908F907F906F905F9093
:102510000C942612CE010E94AE1762E0CE010E94FA
:102520002518CE010E94AE17002711270A191B0992
:1025300037016A187B08AA24BB24AC18BD0806150D
:10254000170504F517FD17C00E151F05A4F4F401B7
:10255000E00FF11F608157FC06C00C2C01C0660F14
:102560000A94EAF709C070E00A2C02C075956795D5
:102570000A94E2F701C060E0CE010E9425180F5FC7
:102580001F4FDDCFDF91CF911F910F91FF90EF9003
:10259000DF90CF90BF90AF909F908F907F906F9083
:1025A0005F9008950F931F93CF93DF93EC01062F55
:1025B000142F0E94AE17811115C063E0CE010E9456
:1025C0002518CE010E94AE1781110CC0602FCE01DC
:1025D0000E942518612FCE01DF91CF911F910F919D
:1025E0000C942518DF91CF911F910F910895CF93EF
:1025F000DF93E62FF0E0DC0159962C91599730E0FB
:10260000E217F307C4F4242F30E05A96AC91B0E0FF
:102610002A173B0784F4E80FF91F548121E030E0CA
:1026200001C0220F4A95EAF7522B54834481DF916F
:10263000CF910C94D212DF91CF910895CF93DF9375
:10264000E62FF0E0DC0159962C91599730E0E21723
:10265000F307CCF4242F30E05A96AC91B0E02A175F
:102660003B078CF4E80FF91F548121E030E001C0F2
:10267000220F4A95EAF72095252324834481DF9190
:10268000CF910C94D212DF91CF910895FF920F93C6
:102690001F93CF93DF93EC01F62E042F122F0E948D
:1026A000AE1781111EC067E0CE010E942518CE0131
:1026B0000E94AE17811115C06F2DCE010E94251802
:1026C000602FCE010E942518612FCE010E9425188F
:1026D00088EB9BE0DF91CF911F910F91FF900C94BD
:1026E000621EDF91CF911F910F91FF900895AF92DD
:1026F000BF92CF92DF92EF92FF920F931F93CF93EF
:10270000DF93EC01B62EA42E790100E010E0C62E76
:10271000DD24C7FCD094C8018C0D9D1D8B3F2FEF8D
:1027200092071CF1298D30E08217930724F5F701F9
:10273000208121110EC08C01898D90E008171907A6
:10274000D4F440E0602FCE010E94D2120F5F1F4FE1
:10275000F3CF21526B2D600F2E3518F023E040E0AF
:1027600001C04A2DCE010E9446130A5F1F4FFFEFA2
:10277000EF1AFF0AD0CF1FEF1B0D1B143CF440E0F3
:10278000612FCE010E94D212B12EF5CFDF91CF91F1
:102790001F910F91FF90EF90DF90CF90BF90AF907F
:1027A0000895EF92FF920F931F93CF93DF93EC0165
:1027B000862FF42E022F1AE0612F0E94A326E92E05
:1027C0002FE0280F40E06FEFCE010E9446132FE06C
:1027D0002E0D40E064E0CE010E9446138F2D612F44
:1027E0000E94A326192F2FE0280F40E06BE0CE01B6
:1027F0000E9446132FE0210F40E060E1CE010E94CD
:102800004613002311F044E101C040E06AE0CE012C
:10281000DF91CF911F910F91FF90EF900C94D21206
:102820002F923F924F925F926F927F928F929F92E0
:10283000AF92BF92CF92DF92EF92FF920F931F93CE
:10284000CF93DF93CDB7DEB72D970FB6F894DEBFE9
:102850000FBECDBF8C012A013B01CE0101969C87A2
:102860008B878AE0EB85FC8511928A95E9F720E059
:1028700030EC49E754E4C301B2010E94282687FDE9
:1028800004C028E140E06FEF0DC020E030E046ECEE
:1028900052ECC301B2010E94D924181654F12CE065
:1028A00040E060E0C8010E94461328E140E064E097
:1028B000C8010E94461328E140E069E0C8012D9656
:1028C0000FB6F894DEBF0FBECDBFDF91CF911F9141
:1028D0000F91FF90EF90DF90CF90BF90AF909F90BF
:1028E0008F907F906F905F904F903F902F900C94BF
:1028F000461320E030E0A901C301B2010E94D924AF
:10290000811102C02FE0D8CF20E030E0A901C3013F
:10291000B2010E94D92487FF07C077FA709477F834
:102920007094F1E0FD8701C01D8620E030E04AE7A9
:1029300054E4C301B2010E94DD240E944A25698348
:10294000C301B2010E9445259B01CB0168EE73E0F3
:102950000E94AF26E4E6F0E0BF010E94AF266A8342
:10296000C901BF010E94AF26EAE0EE2EF12CB701AB
:102970000E94AF266B83C901B7010E94AF266C018C
:102980008C8320E030E040E251E4C301B2010E94B8
:102990002C260E944525CB01B7010E94AF264C0191
:1029A0008D8320E030E048EC52E4C301B2010E9484
:1029B0002C260E944525CB01B7010E94AF261C01A1
:1029C0008E8320E030E04AE754E4C301B2010E9464
:1029D0002C260E944525CB01B7010E94AF268F838C
:1029E00080E0A82EB12CE1E0F0E0EC0FFD1FEA0D35
:1029F000FB1DF080F11002C08F5FF3CF20E030E0CC
:102A000040E85FE3C301B2010E94282687FD0DC0A4
:102A1000CF2CD12CFE01EA0DFB1DE280F12CFE0132
:102A2000EA0DFB1DA380B12C05C0DD247401FF2439
:102A30005101BB248D85813009F071C120E030E067
:102A400040E251E4C301B2010E94282687FD16C06E
:102A50002CE040E06FEFC8010E9446132FE02C0DE0
:102A600040E064E0C8010E9446132FE02E0D40E0D4
:102A7000CA94CD2809F021CF68E020CF20E030E0D3
:102A800040E85FE3C301B2010E94282687FDFDC133
:102A9000E114F10409F046C0AB2809F043C023E07B
:102AA00040E060E0C8010E944613C6018B7F039797
:102AB00099F42FE02C0D40E068E0C8010E94461315
:102AC00044E066E0C8010E94D21244E067E0C80119
:102AD0000E94D21244E021C1E4E0CE16D10499F460
:102AE00023E140E068E0C8010E94461344E065E04D
:102AF000C8010E94D21244E066E0C8010E94D212CE
:102B000044E067E0A7C123E040E060E0C8010E9424
:102B100046132CE040E065E0C8010E9446132FE018
:102B20002C0DCACEF1E0CF16D10409F047C0C70181
:102B300001972CE040E0029790F183E0E816F10461
:102B400061F460E0C8010E94461320E140E064E0C7
:102B5000C8010E94461322E12EC194E0E916F10457
:102B600071F46FEFC8010E94461320E140E063E07A
:102B7000C8010E94461323E140E068E0CAC0E7E0D4
:102B8000EE16F10461F460E0C8010E94461320E1F2
:102B900040E064E0C8010E94461326E10CC16FEFDB
:102BA000C8010E94461320E140E063E0C8010E9492
:102BB00046132FE02E0D40E069E0ABC0F2E0CF16E7
:102BC000D10409F044C02CE040E06FEF82E0E81649
:102BD000F10421F0C7010497029700F5C8010E9493
:102BE000461321E140E063E0C8010E9446132FE054
:102BF0002E0D40E092E0E916F10421F0E5E0EE163A
:102C0000F10411F469E001C068E0C8010E944613B4
:102C100042E067E0C8010E94D2127EC0C801F1E024
:102C2000EF16F10449F40E94461321E140E063E00D
:102C3000C8010E944613B9C00E94461321E140E03A
:102C400063E0C8010E9446132FE02E0DB4C083E05C
:102C5000C816D10459F57FE0D72EDE0CC7010397C3
:102C600022E140E062E0029720F097E0E916F104EB
:102C700039F4C8010E9446132D2D40E068E006C0DB
:102C8000C8010E9446132D2D40E069E0C8010E9452
:102C9000461344E060E0C8010E94D21244E061E0C3
:102CA000C8010E94D21244E062E0B4CFEFE0CE0E41
:102CB000E114F10411F42C2DFFCD2CE040E06FEF76
:102CC000C8010E9446132C2D40E063E0C8010E9419
:102CD00046136FE0D62EDE0CC7018D7F2D2D40E010
:102CE000019711F46AE001C069E0C8010E9446132F
:102CF00040E169E0C8010E94D2122D2D40E069E058
:102D0000F2E0EF16F10429F085E0E816F10409F08D
:102D100054C0C8010E94461340E168E09BC020E017
:102D200030E048EC52E4C301B2010E94282687FD3E
:102D300019C091E0C916D10421F420E140E060E01F
:102D400004C02FE02C0D40E06FEFC8010E94461335
:102D50002FE02E0D40E064E0C8010E9446132FE0F2
:102D60002A0DAACD20E030E040E251E4C301B201D7
:102D70000E9428265FE0952E9C0C87FD24C0292DFB
:102D800040E06FEFC8010E9446132FE02E0D40E097
:102D9000CA94CD2811F463E001C064E0C8010E9428
:102DA0004613F1E0AF16B10421F420E140E06AE0FF
:102DB00004C02FE02A0D40E069E0C8010E944613DC
:102DC00040E169E047C020E030E040E85FE3C30154
:102DD000B2010E942826292D40E06FEF87FD17C021
:102DE000C8010E94461381E0E816F10421F420E1B5
:102DF00040E065E004C02FE02E0D40E064E0C80133
:102E00000E94461391E0A916B104D9F416C0C80176
:102E10000E944613E1E0EE16F10421F420E140E0C7
:102E200065E004C02FE02E0D40E064E0C8010E9480
:102E30004613F1E0AF16B10421F420E140E06AE06E
:102E400004C02FE02A0D40E069E0C8010E9446134B
:102E500040E164E0C8012D960FB6F894DEBF0FBEC6
:102E6000CDBFDF91CF911F910F91FF90EF90DF9039
:102E7000CF90BF90AF909F908F907F906F905F901A
:102E80004F903F902F900C94D2122D960FB6F8943D
:102E9000DEBF0FBECDBFDF91CF911F910F91FF908D
:102EA000EF90DF90CF90BF90AF909F908F907F90EA
:102EB0006F905F904F903F902F9008950F931F93C6
:102EC000CF93DF931F92CDB7DEB78C0169830E9449
:102ED00093176981C8010F90DF91CF911F910F91D6
:102EE0000C9494170C949417CF93DF93EC010E94E9
:102EF000AE1781110FC062E0CE010E942518CE01ED
:102F00000E94DC17CE010E948D188C83CE010E9496
:102F10008D188D83DF91CF910895FC0184810895F0
:102F2000FC01858108950895DC016C9370E0FB013C
:102F3000E458FF4FE4911196EC931197FB01E05791
:102F4000FF4FE491F0E0EE0FFF1FEC55FF4F85912E
:102F5000949113969C938E9312970895FF920F93DA
:102F60001F93CF93DF938C01FC01F180C281D38149
:102F700089818F2989839A818F2D809589238A83DE
:102F800080EE91E00E94621E60E0F80180810E9464
:102F90004D1F82E390E00E94621EC88184E690E0AB
:102FA0000E94621EFC2281E009F480E0DF91CF9153
:102FB0001F910F91FF900895AF92BF92CF92DF9231
:102FC000EF92FF920F931F93CF93DF938C01FC013D
:102FD000B180C281D3810E940B1E6B017C0189816B
:102FE000AB2CA0948A2189838A818B298A8388814A
:102FF0008B2169F00E940B1E6C197D098E099F09B7
:10300000653671058105910590F380E013C08881D4
:103010008B21E9F389818B2989838A818A218A839B
:103020008EE190E00E94621E60E0F80180810E94C3
:103030004D1F81E0DF91CF911F910F91FF90EF9095
:10304000DF90CF90BF90AF9008950F931F93CF93D1
:10305000DF93EC01062F18E0F89460E088810E946D
:10306000861F61E088810E944D1F85E090E00E94EC
:10307000621E00FF02C061E001C060E088810E9422
:10308000861F069578948EE190E00E94621E61E0B2
:1030900088810E94861F85E090E00E94621E115088
:1030A000D9F660E08881DF91CF911F910F910C9448
:1030B0004D1FCF92DF92EF92FF921F93CF93DF933A
:1030C000FC011181C281D3810E940B1E6B017C0126
:1030D0008881812359F00E940B1E6C197D098E098D
:1030E0009F09643071058105910590F3F8948EE194
:1030F00090E00E94621EC881789488E290E00E946D
:10310000621E1C2381E009F480E0DF91CF911F91C2
:10311000FF90EF90DF90CF9008950F931F93CF9380
:10312000DF93EC0160E088810E944D1F08E010E011
:10313000CE010E94591820E8829FC00111241695E3
:10314000182B0150A9F7812FDF91CF911F910F917B
:1031500008950F931F93CF93DF931F92CDB7DEB7E0
:103160008C0169830E9493176981C8010F90DF91D8
:10317000CF911F910F910C9494170C949417CF93A7
:10318000DF93EC010E94AE1781110DC062E0CE0109
:103190000E942518CE010E94DC17CE010E948D18D6
:1031A0008C838C8101C080E0DF91CF910895EF92F4
:1031B000FF920F931F93CF93DF931F92CDB7DEB78C
:1031C0007C01DC0112968D919C911397062F10E0E3
:1031D000009749F02D913C912017310779F16983CF
:1031E0000E94D0276981F70111830083F3E06F9F6C
:1031F000C00111240E943827D70113969C938E9307
:103200001297892B21F48EE591E00E94892880E0B5
:1032100090E0F701408151819A01220F331F240F62
:10322000351F8217930750F4D7011296ED91FC9148
:103230001397E80FF91F10820196EBCF0F90DF91E3
:10324000CF911F910F91FF90EF900895CF93DF934F
:10325000EC01862F262F30E0F901E458FF4FE4916E
:10326000E887F901E057FF4FE491F0E0EE0FFF1F10
:10327000E255FF4F259134913D832C8361E00E94FC
:103280004D1F60E2CE01DF91CF910C94D718CF9300
:10329000DF93EC01862F262F30E0F901E458FF4F31
:1032A000E491E887F901E057FF4FE491F0E0EE0F79
:1032B000FF1FE255FF4F259134913D832C8361E040
:1032C0000E944D1F60E2CE01DF91CF910C94D71880
:1032D0000F93FC01A62FB0E080819181A817B90758
:1032E000B8F4862F880F860F90E0A281B381A80FD3
:1032F000B91F2C93A281B381A80FB91F11964C93CB
:103300000280F381E02DE80FF91F028381E001C004
:1033100080E00F910895CF92DF92EF92FF920F938A
:103320001F93CF93DF937C01142FD22EC02E6111F7
:1033300013C0C0E0D0E0F70180819181C817D907A0
:1033400048F40C2D2D2D412F6C2FC7010E946819B8
:103350002196F1CF81E004C061500E94681980E09D
:10336000DF91CF911F910F91FF90EF90DF90CF9061
:1033700008950F931F93D8013FB7F8949C91822F23
:1033800080958923292BFB01460F571FE417F5076A
:1033900081F0919168E02C9300C097FF8C93990F76
:1033A00000C000C000C008F48C9300C06A9599F773
:1033B000EDCF3FBF1F910F9108950F931F93FC0115
:1033C0000481158120813181A901440F551F420FCD
:1033D000531F6281738120850E94B91961E070E0FA
:1033E00080E090E01F910F910C943A1ECF93DF93F1
:1033F000EC018A819B810E94D0271B821A82DF9177
:10340000CF9108950F931F93CF93DF931F92CDB762
:10341000DEB78C0169830E949317F80134968FE020
:10342000DF011D928A95E9F76981C8010F90DF914C
:10343000CF911F910F910C9494170C9494170F93A4
:10344000611116C060E070E0FC01E60FF71F2483F5
:10345000FB013196E80FF91F4483FB013296E80F18
:10346000F91F04836D5F7F4F6F30710569F718C0D6
:103470006630B0F470E061507109E62FEE0FE60F90
:10348000F0E0DC01AE0FBF1F14962C93DF01119604
:10349000A80FB91F14964C933296E80FF91F0483B6
:1034A0000F9108950F931F93CF93DF93EC010E9428
:1034B000AE17811117C062E0CE010E942518CE011F
:1034C0000E94AE1781110EC000E010E0FE01E00F77
:1034D000F11F6481CE010E9425180F5F1F4F0F302E
:1034E0001105A1F7DF91CF911F910F910895FC0174
:1034F00060830895FC01608308950C94771AFC01A1
:1035000080810C94A81E0F931F93CF93DF931F927B
:10351000CDB7DEB78C0169830E94400A6981F8014A
:103520006687C8010F90DF91CF911F910F910C9486
:10353000410A0C94410ACF92DF92EF92FF920F93CF
:103540001F93CF93DF93CDB7DEB72C970FB6F894C8
:10355000DEBF0FBECDBF8C010E94730AC8010E945E
:103560007F0B40E064E4C8010E94190B0E940B1E0F
:103570006B017C01C8010E94570A81110BC00E9497
:103580000B1E6C197D098E099F096E3E72408105E4
:10359000910580F3C8010E94730AC8010E947F0B45
:1035A00040E06EEBC8010E94190BCE0101967C0130
:1035B0006E0196E0C90ED11CC8010E94630BF70191
:1035C00081937F01EC15FD05B9F76A8170E0762FD4
:1035D00066278981682B882777FD8095982F0E9420
:1035E000782520E030E040E85DE30E942C262C9610
:1035F0000FB6F894DEBF0FBECDBFDF91CF911F9104
:103600000F91FF90EF90DF90CF9008950F931F934D
:10361000CF93DF931F92CDB7DEB78C0169830E94F1
:1036200093176981C8010F90DF91CF911F910F917E
:103630000C9494170C949417CF93DF93EC010E9491
:10364000AE1781110DC062E0CE010E942518CE0197
:103650000E94DC17CE010E948D188C838C8101C0E2
:1036600080E0DF91CF9108950F931F93CF93DF9365
:103670001F92CDB7DEB78C0169830E949317F801C2
:103680001682178210861186128613861486698127
:10369000C8010F90DF91CF911F910F910C94941757
:1036A0000C949417CF92DF92EF92FF92CF93DF9317
:1036B000EC010E94AE17882339F0C12CD12C8AEF7F
:1036C000E82E83E4F82E27C062E0CE010E94251880
:1036D000CE010E94DC17CE010E948D188C83CE0192
:1036E0000E948D188D838D816C8170E0782B80E035
:1036F00090E00E9476252CE53FE84CE851E40E94DA
:10370000DD246B017C0120E030E04AEF53E40E94AD
:103710002826181694F2C701B601DF91CF91FF90C9
:10372000EF90DF90CF900895CF93DF93EC010E944C
:10373000AE17811123C063E0CE010E942518CE018F
:103740000E94AE1781111AC06E81CE010E94251809
:103750006F81CE010E9425186885CE010E94251830
:103760006985CE010E9425186A85CE010E94251820
:103770006B85CE01DF91CF910C942518DF91CF910D
:103780000895FC016683478320870C94941BFC01F9
:103790006187428723870C94941B1F920F920FB668
:1037A0000F9211242F933F934F935F936F937F93C7
:1037B0008F939F93AF93BF93EF93FF9380914E03AB
:1037C00087FF05C010928500109284001AC02091D6
:1037D0004E03332727FD309580914D0390E0281745
:1037E00039077CF480914E03992787FD9095FC0161
:1037F000EE0FFF1FE80FF91FE15BFC4F808187FD93
:1038000015C080914E038F5F80934E0320914E032D
:10381000332727FD309580914D0390E02817390715
:10382000BCF480914E038C305CF112C080914E0349
:10383000992787FD9095FC01EE0FFF1FE80FF91FF8
:10384000E15BFC4F808160E08F770E94861FD9CFBB
:103850008091840090918500049680349C4918F4EE
:1038600080E49CE905C080918400909185000496D5
:1038700090938900809388008FEF80934E0338C027
:10388000209184003091850080914E03992787FD17
:103890009095FC01EE0FFF1FE80FF91FE15BFC4F55
:1038A00081819281820F931F909389008093880079
:1038B00080914E03992787FD9095FC01EE0FFF1F25
:1038C000E80FF91FE15BFC4F808187FF11C08091F9
:1038D0004E03992787FD9095FC01EE0FFF1FE80F1F
:1038E000F91FE15BFC4F808161E08F770E94861FAA
:1038F000FF91EF91BF91AF919F918F917F916F91C8
:103900005F914F913F912F910F900FBE0F901F909D
:10391000189520914D032C30A0F431E0320F3093F4
:103920004D03FC012083822F90E0FC01EE0FFF1F6E
:10393000E80FF91FE15BFC4F88EB9BE092838183EA
:1039400008952FEFFC0120830895DF92EF92FF92FC
:103950000F931F93CF93DF93EC01D62E7A01890149
:1039600088818C3008F066C061E08D2D0E944D1F6B
:103970008881A82FB0E0FD01EE0FFF1FEA0FFB1FAB
:10398000E15BFC4F2D2D2F7790819078922B9083C7
:1039900060E272E06E197F0977FF02C06D5F7F4FB2
:1039A0007595679575956795698340E659E0401B65
:1039B000510B57FF02C04D5F5F4F55954795559589
:1039C00047954A836CE00E94A3269CE0899FB00142
:1039D000112420E030E0A901460F571FFA01EE0F35
:1039E000FF1FE40FF51FE15BFC4F908197FD16C0B0
:1039F0002F5F3F4F2C30310571F781110FC01092AE
:103A0000800082E0809381001092850010928400F3
:103A1000B19A80916F00826080936F00888190E0FE
:103A2000FC01EE0FFF1FE80FF91FE15BFC4F8081E7
:103A3000806880838881DF91CF911F910F91FF90E3
:103A4000EF90DF90089520E639E040E252E00C94D8
:103A5000A51CFC0180818C3070F5918128E830E054
:103A6000291B310997FD3395220F331F220F331F76
:103A7000621773077CF0928128E532E0291B310937
:103A800097FD3395220F331F220F331F62177307E1
:103A90000CF49B0122503109220F331F4FB7F894C9
:103AA00090E0FC01EE0FFF1FE80FF91FE15BFC4FF8
:103AB000328321834FBF08954F925F926F927F921E
:103AC000AF92BF92CF92DF92EF92FF920F931F932C
:103AD000CF93DF93EC01603282E078070CF040C0B6
:103AE00077FD06C0653B71052CF064EB70E002C009
:103AF00060E070E0898128E830E0281B310987FD0B
:103B00003395220F331F220F331F5901CC24B7FCEA
:103B1000C094DC2C882777FD8095982F2A8148E572
:103B200052E0421B510927FD5395440F551F440F86
:103B3000551F2A01662457FC6094762C7F926F9261
:103B40005F924F9214EBE12EF12C00E010E020E0A8
:103B500030E0A9010E942C240F900F900F900F903D
:103B6000CE01DF91CF911F910F91FF90EF90DF90E9
:103B7000CF90BF90AF907F906F905F904F900C94DC
:103B8000291D1F920F920FB60F9211242F933F936E
:103B90008F939F93AF93BF9380917403909175031C
:103BA000A0917603B09177033091730323E0230F44
:103BB0002D3720F40196A11DB11D05C026E8230F65
:103BC0000296A11DB11D20937303809374039093FB
:103BD0007503A0937603B093770380917803909157
:103BE0007903A0917A03B0917B030196A11DB11DC9
:103BF0008093780390937903A0937A03B0937B0327
:103C0000BF91AF919F918F913F912F910F900FBED8
:103C10000F901F9018952FB7F894609174037091CE
:103C2000750380917603909177032FBF08953FB776
:103C3000F8948091780390917903A0917A03B091E0
:103C40007B0326B5A89B05C02F3F19F00196A11D47
:103C5000B11D3FBF6627782F892F9A2F620F711DE4
:103C6000811D911D42E0660F771F881F991F4A959D
:103C7000D1F70895CF92DF92EF92FF92CF93DF9327
:103C80006B017C010E94171EEB01C114D104E104F9
:103C9000F10489F00E9473240E94171E6C1B7D0B97
:103CA000683E734090F381E0C81AD108E108F1083A
:103CB000C851DC4FEACFDF91CF91FF90EF90DF90BA
:103CC000CF9008958230910538F0880F991F880FA2
:103CD000991F05970197F1F70895789484B582604C
:103CE00084BD84B5816084BD85B5826085BD85B5A0
:103CF000816085BDEEE6F0E0808181608083E1E84F
:103D0000F0E0108280818260808380818160808386
:103D1000E0E8F0E0808181608083E1EBF0E0808189
:103D200084608083E0EBF0E0808181608083EAE75B
:103D3000F0E08081846080838081826080838081E4
:103D4000816080838081806880831092C1000895A3
:103D50008E3008F08E5087702091220190E4299FC8
:103D600090011124822B80937C0080917A008064E2
:103D700080937A0080917A0086FDFCCF8091780054
:103D80002091790090E0922B08951F93CF93DF93B9
:103D9000182FEB0161E00E944D1F209711F460E0A5
:103DA00004C0CF3FD10539F461E0812FDF91CF917D
:103DB0001F910C94861FE12FF0E0E859FF4FE4912A
:103DC000E330F9F048F4E130B9F0E230A1F584B520
:103DD000806284BDC8BD34C0E730E9F0E83019F135
:103DE000E43049F580918000806280938000D09318
:103DF0008B00C0938A0024C084B5806884BDC7BD91
:103E00001FC080918000806880938000D0938900DB
:103E1000C093880015C08091B00080688093B00086
:103E2000C093B3000DC08091B00080628093B00059
:103E3000C093B40005C0C038D1050CF0B5CFAFCFEA
:103E4000DF91CF911F910895833081F028F4813064
:103E500099F08230A1F008958730A9F08830B9F048
:103E60008430D1F4809180008F7D03C080918000E8
:103E70008F7780938000089584B58F7702C084B5D2
:103E80008F7D84BD08958091B0008F7703C08091AD
:103E9000B0008F7D8093B0000895CF93DF9390E0C2
:103EA000FC01E458FF4F2491FC01E057FF4F84913F
:103EB000882349F190E0880F991FFC01E854FF4FD7
:103EC000A591B49182559F4FFC01C591D4919FB7A4
:103ED000611108C0F8948C91209582238C9388817D
:103EE00082230AC0623051F4F8948C91322F3095BD
:103EF00083238C938881822B888304C0F8948C91CF
:103F0000822B8C939FBFDF91CF9108950F931F93C6
:103F1000CF93DF931F92CDB7DEB7282F30E0F901A2
:103F2000E859FF4F8491F901E458FF4F1491F901CA
:103F3000E057FF4F04910023C9F0882321F06983E3
:103F40000E94241F6981E02FF0E0EE0FFF1FE25571
:103F5000FF4FA591B4919FB7F8948C91611103C064
:103F60001095812301C0812B8C939FBF0F90DF910F
:103F7000CF911F910F910895CF93DF93282F30E0B9
:103F8000F901E859FF4F8491F901E458FF4FD491AA
:103F9000F901E057FF4FC491CC2391F081110E94A9
:103FA000241FEC2FF0E0EE0FFF1FEC55FF4FA59103
:103FB000B4912C912D2381E090E021F480E002C0A7
:103FC00080E090E0DF91CF910895FC01818D228DFA
:103FD00090E0805C9F4F821B91098F739927089511
:103FE000FC01918D828D981731F0828DE80FF11DC3
:103FF000858D90E008958FEF9FEF0895FC01918DDE
:10400000828D981761F0828DDF01A80FB11D5D963A
:104010008C91928D9F5F9F73928F90E008958FEFA8
:104020009FEF089582E891E2892B49F080E090E0CB
:10403000892B29F00E94822181110C94000008959F
:10404000FC01848DDF01A80FB11DA35ABF4F2C9135
:10405000848D90E001968F739927848FA689B78904
:104060002C93A089B1898C9180648C93938D848DDD
:10407000981306C00288F389E02D80818F7D8083AC
:104080000895CF93DF93EC01888D8823C9F0EA89E6
:10409000FB89808185FD05C0A889B9898C9186FD41
:1040A0000FC00FB607FCF5CF808185FFF2CFA8893E
:1040B000B9898C9185FFEDCFCE010E942020E7CFFA
:1040C000DF91CF910895CF92DF92FF920F931F93CC
:1040D000CF93DF931F92CDB7DEB76C0181E0D6019D
:1040E00058968C9358975B969C915B975C968C91B5
:1040F0005C97981307C05096ED91FC915197808181
:1041000085FD2EC0F601038D10E00F5F1F4F0F736A
:104110001127F02EF601848DF81211C00FB607FC9E
:10412000F9CFD6015096ED91FC915197808185FF92
:10413000F1CFC60169830E9420206981EBCF838D76
:10414000E80FF11DE35AFF4F6083D6015B960C9395
:104150005B975296ED91FC915397808180620CC0E1
:10416000D6015696ED91FC91579760835096ED914C
:10417000FC91519780818064808381E090E00F9072
:10418000DF91CF911F910F91FF90DF90CF90089515
:10419000BF92CF92DF92EF92FF92CF93DF93EC0129
:1041A0006A017B01B22EE889F98982E0808341159A
:1041B00081EE580761057105A1F060E079E08DE3BB
:1041C00090E0A70196010E94C326215031094109C0
:1041D00051095695479537952795211580E1380760
:1041E00098F0E889F989108260E874E88EE190E03F
:1041F000A70196010E94C3262150310941095109A6
:104200005695479537952795EC85FD853083EE8546
:10421000FF852083188EEC89FD89B082EA89FB89AD
:10422000808180618083EA89FB89808188608083C6
:10423000EA89FB89808180688083EA89FB898081A3
:104240008F7D8083DF91CF91FF90EF90DF90CF90B3
:10425000BF9008951F920F920FB60F9211242F93C3
:104260008F939F93EF93FF93E0918C03F0918D03D5
:104270008081E0919203F091930382FD12C09081BE
:10428000809195038F5F8F7320919603821751F071
:10429000E0919503F0E0E458FC4F958F80939503EF
:1042A00001C08081FF91EF919F918F912F910F908D
:1042B0000FBE0F901F9018951F920F920FB60F927E
:1042C00011242F933F934F935F936F937F938F931B
:1042D0009F93AF93BF93EF93FF938CE793E00E947C
:1042E0002020FF91EF91BF91AF919F918F917F918E
:1042F0006F915F914F913F912F910F900FBE0F9053
:104300001F9018958CE793E00E94E51F21E0892B10
:1043100009F420E0822F089510927F0310927E030B
:1043200088EE93E0A0E0B0E0809380039093810357
:10433000A0938203B09383038EE791E090937D0373
:1043400080937C0385EC90E09093890380938803AD
:1043500084EC90E090938B0380938A0380EC90E050
:1043600090938D0380938C0381EC90E090938F0366
:1043700080938E0382EC90E090939103809390035E
:1043800086EC90E0909393038093920310929503B0
:10439000109296031092970310929803089508952F
:1043A0000E946D1E0E94CF210E94AC08C2E1D0E2A3
:1043B0000E943C0A2097E1F30E941220F9CFCF928D
:1043C000DF92EF92FF920F931F93CF93DF936C01D5
:1043D0007A01EB01E60EF71E00E010E0CE15DF05D6
:1043E00061F06991D601ED91FC910190F081E02D91
:1043F000C6010995080F191FF1CFC801DF91CF91B0
:104400001F910F91FF90EF90DF90CF90089561156D
:10441000710581F0DB010D900020E9F7AD014150FD
:104420005109461B570BDC01ED91FC910280F38191
:10443000E02D099480E090E00895DC01ED91FC917D
:104440000190F081E02D09946AE871E00C94072254
:104450000F931F93CF93DF93EC010E9407228C01EF
:10446000CE010E942422800F911FDF91CF911F91D6
:104470000F9108958F929F92AF92BF92CF92DF9249
:10448000EF92FF920F931F93CF93DF93CDB7DEB7D9
:10449000A1970FB6F894DEBF0FBECDBF7C01C42E2E
:1044A000E52FCB01D22E19A221E02D1510F02AE024
:1044B000D22E8E010F5D1F4F8D2C912CA12CB12C73
:1044C0006C2D7E2FA50194010E94C3268C2DD29EB7
:1044D00080191124015011098A3014F4805D01C043
:1044E000895CF8018083211531054105510521F0D2
:1044F000C22EE32FCA01E4CFB801C7010E940722F0
:10450000A1960FB6F894DEBF0FBECDBFDF91CF915D
:104510001F910F91FF90EF90DF90CF90BF90AF90E1
:104520009F908F900895CF92DF92EF92FF920F931A
:104530001F93CF93DF93EC016A017B0121153105B5
:1045400079F4E881F9810190F081E02D642FDF9109
:10455000CF911F910F91FF90EF90DF90CF90099432
:104560002A303105E9F477FF1AC06DE20E941D225E
:104570008C0144275527BA014C195D096E097F0942
:104580002AE0CE010E943A22800F911FDF91CF9145
:104590001F910F91FF90EF90DF90CF9008952AE048
:1045A000B701A601CE01DF91CF911F910F91FF902E
:1045B000EF90DF90CF900C943A220F931F93CF93FC
:1045C000DF93EC019A01AB01662757FD6095762FCA
:1045D0000E9493228C01CE010E942422800F911F01
:1045E000DF91CF911F910F9108952115310541F46D
:1045F000DC01ED91FC910190F081E02D642F099494
:104600000C943A220F931F93CF93DF93EC019A01FE
:10461000462F50E060E070E00E94F5228C01CE0150
:104620000E942422800F911FDF91CF911F910F9143
:1046300008950F931F93CF93DF93EC019A01AB0181
:1046400060E070E00E94F5228C01CE010E942422DD
:10465000800F911FDF91CF911F910F9108954F927D
:104660005F926F927F928F929F92AF92BF92CF9202
:10467000DF92EF92FF920F931F93CF93DF93EC01A2
:104680006A017B01B22E9A01AB01C701B6010E94FB
:104690008F26882319F06DE871E027C026013701C5
:1046A000E89477F82FEF3FEF4FE75FE7C301B201E0
:1046B0000E948F2681110DC02FEF3FEF4FE75FE77C
:1046C000C301B2010E94D92418161CF461E971E0FB
:1046D0000CC02FEF3FEF4FE75FE4C701B6010E9428
:1046E00028261816ACF465E971E0CE01DF91CF9170
:1046F0001F910F91FF90EF90DF90CF90BF90AF9000
:104700009F908F907F906F905F904F900C940722B6
:104710002FEF3FEF4FE75FECC701B6010E94D924AE
:1047200087FDE1CF20E030E0A901C701B6010E947A
:10473000D92487FF0AC06DE2CE010E941D228C01A0
:10474000F7FAF094F7F8F09402C000E010E0A12C22
:1047500060E070E080E09FE3AB1441F020E030E0E7
:1047600040E251E40E94DD24A394F6CF9B01AC010A
:10477000C701B6010E9475246B017C010E944A2585
:104780002B013C010E9476259B01AC01C701B601BB
:104790000E9474246B017C012AE0B301A201CE01C6
:1047A0000E943A22080F191FBB2039F069E971E015
:1047B000CE010E940722080F191F7B2C772041F1A0
:1047C00020E030E040E251E4C701B6010E942C260F
:1047D0006B017C010E9445254B01AA2497FCA09403
:1047E000BA2C2AE030E0B501A401CE010E94932248
:1047F000080F191FC501B4010E9478259B01AC0167
:10480000C701B6010E9474246B017C017A94D6CF53
:10481000C801DF91CF911F910F91FF90EF90DF9032
:10482000CF90BF90AF909F908F907F906F905F9050
:104830004F9008950F931F93CF93DF93EC010E9445
:104840002F238C01CE010E942422800F911FDF9123
:10485000CF911F910F9108954F925F926F927F9227
:10486000AF92BF92CF92DF92EF92FF920F931F937E
:10487000CF93DF93CDB7DEB729013A01621B730BEB
:10488000840B950B29893A894B895C892A193B0944
:104890004C095D09298B3A8B4B8B5C8B9B01AC01DE
:1048A00069897A898B899C890E949326E418F50886
:1048B00006091709A80197010E94E5262A0D3B1D4C
:1048C0004C1D5D1DCA01B901DF91CF911F910F9160
:1048D000FF90EF90DF90CF90BF90AF907F906F9060
:1048E0005F904F90089508955058BB27AA270ED087
:1048F00075C166D130F06BD120F031F49F3F11F4D7
:104900001EF45BC10EF4E095E7FB51C1E92F77D1AE
:1049100080F3BA17620773078407950718F071F4DC
:104920009EF58FC10EF4E0950B2EBA2FA02D0B0132
:10493000B90190010C01CA01A0011124FF27591BE4
:1049400099F0593F50F4503E68F11A16F040A22FEA
:10495000232F342F4427585FF3CF4695379527955B
:10496000A795F0405395C9F77EF41F16BA0B620B5A
:10497000730B840BBAF09150A1F0FF0FBB1F661FA1
:10498000771F881FC2F70EC0BA0F621F731F841FE4
:1049900048F4879577956795B795F7959E3F08F00A
:1049A000B3CF9395880F08F09927EE0F97958795C9
:1049B0000895D9D008F481E008950CD00FC107D133
:1049C00040F0FED030F021F45F3F19F0F0C05111FB
:1049D00039C1F3C014D198F39923C9F35523B1F326
:1049E000951B550BBB27AA2762177307840738F05E
:1049F0009F5F5F4F220F331F441FAA1FA9F333D0BD
:104A00000E2E3AF0E0E830D091505040E695001C70
:104A1000CAF729D0FE2F27D0660F771F881FBB1F2C
:104A2000261737074807AB07B0E809F0BB0B802D06
:104A3000BF01FF2793585F4F2AF09E3F510568F052
:104A4000B6C000C15F3FECF3983EDCF386957795E6
:104A50006795B795F7959F5FC9F7880F911D969554
:104A6000879597F90895E1E0660F771F881FBB1FB0
:104A7000621773078407BA0720F0621B730B840B5D
:104A8000BA0BEE1F88F7E095089504D06894B11131
:104A9000D9C00895BCD088F09F5790F0B92F9927BE
:104AA000B751A0F0D1F0660F771F881F991F1AF039
:104AB000BA95C9F712C0B13081F0C3D0B1E0089502
:104AC000C0C0672F782F8827B85F39F0B93FCCF383
:104AD000869577956795B395D9F73EF4909580952F
:104AE000709561957F4F8F4F9F4F0895E89409C04F
:104AF00097FB3EF490958095709561957F4F8F4F11
:104B00009F4F9923A9F0F92F96E9BB279395F69526
:104B1000879577956795B795F111F8CFFAF4BB0FA4
:104B200011F460FF1BC06F5F7F4F8F4F9F4F16C008
:104B3000882311F096E911C0772321F09EE8872F92
:104B4000762F05C0662371F096E8862F70E060E04E
:104B50002AF09A95660F771F881FDAF7880F9695C7
:104B6000879597F90895990F0008550FAA0BE0E86B
:104B7000FEEF16161706E807F907C0F0121613061F
:104B8000E407F50798F0621B730B840B950B39F45F
:104B90000A2661F0232B242B252B21F408950A26C5
:104BA00009F4A140A6958FEF811D811D089597F905
:104BB0009F6780E870E060E008959FEF80EC0895C3
:104BC00000240A94161617061806090608950024EC
:104BD0000A9412161306140605060895092E039466
:104BE000000C11F4882352F0BB0F40F4BF2B11F4DA
:104BF00060FF04C06F5F7F4F8F4F9F4F089557FD39
:104C00009058440F551F59F05F3F71F04795880F3A
:104C100097FB991F61F09F3F79F0879508951216D1
:104C200013061406551FF2CF4695F1DF08C016167D
:104C300017061806991FF1CF86957105610508942E
:104C40000895E894BB2766277727CB0197F9089545
:104C50008ADF08F48FEF08950BD0C0CFB1DF28F0C2
:104C6000B6DF18F0952309F0A2CFA7CF1124EACF21
:104C7000C6DFA0F3959FD1F3950F50E0551F629FBB
:104C8000F001729FBB27F00DB11D639FAA27F00DA5
:104C9000B11DAA1F649F6627B00DA11D661F829FCC
:104CA0002227B00DA11D621F739FB00DA11D621FB1
:104CB000839FA00D611D221F749F3327A00D611DCE
:104CC000231F849F600D211D822F762F6A2F1124B0
:104CD0009F5750408AF0E1F088234AF0EE0FFF1F03
:104CE000BB1F661F771F881F91505040A9F79E3F3A
:104CF000510570F05CCFA6CF5F3FECF3983EDCF33C
:104D0000869577956795B795F795E7959F5FC1F776
:104D1000FE2B880F911D9695879597F9089523DFAF
:104D2000880B990B0895DB018F939F930E940427B2
:104D3000BF91AF91A29F800D911DA39F900DB29F37
:104D4000900D11240895991B79E004C0991F9617BE
:104D500008F0961B881F7A95C9F78095089597FBF0
:104D6000072E16F4009407D077FD09D00E940F2774
:104D700007FC05D03EF4909581959F4F089570955E
:104D800061957F4F0895A1E21A2EAA1BBB1BFD015E
:104D90000DC0AA1FBB1FEE1FFF1FA217B307E4071A
:104DA000F50720F0A21BB30BE40BF50B661F771F72
:104DB000881F991F1A9469F7609570958095909552
:104DC0009B01AC01BD01CF010895052E97FB1EF498
:104DD00000940E94FC2657FD07D00E94C32607FCC2
:104DE00003D04EF40C94FC265095409530952195B7
:104DF0003F4F4F4F5F4F0895909580957095619507
:104E00007F4F8F4F9F4F08950E942927A59F900D98
:104E1000B49F900DA49F800D911D11240895AA1B8D
:104E2000BB1B51E107C0AA1FBB1FA617B70710F095
:104E3000A61BB70B881F991F5A95A9F780959095C7
:104E4000BC01CD010895EE0FFF1F0590F491E02DF8
:104E50000994A29FB001B39FC001A39F700D811D53
:104E60001124911DB29F700D811D1124911D089573
:104E7000CF93DF938230910510F482E090E0E091CF
:104E80001B04F0911C0420E030E0A0E0B0E030977B
:104E900039F14081518148175907B8F0481759072F
:104EA00071F482819381109729F013969C938E93CD
:104EB00012972CC090931C0480931B0427C02115CB
:104EC000310531F04217530718F0A901DB0101C089
:104ED000EF019A01BD01DF010280F381E02DD7CF00
:104EE00021153105F9F0281B390B2430310580F4E8
:104EF0008A819B816115710521F0FB019383828377
:104F000004C090931C0480931B04FE01329644C09D
:104F1000FE01E20FF31F81939193225031093983EF
:104F200028833AC02091190430911A04232B41F4AC
:104F3000209102013091030130931A042093190447
:104F400020910001309101012115310541F42DB767
:104F50003EB74091040150910501241B350BE091AF
:104F60001904F0911A04E217F307A0F42E1B3F0B6B
:104F70002817390778F0AC014E5F5F4F24173507CB
:104F800048F04E0F5F1F50931A0440931904819309
:104F9000919302C0E0E0F0E0CF01DF91CF9108955E
:104FA000CF93DF93009709F487C0FC0132971382F7
:104FB0001282C0911B04D0911C04209781F420819F
:104FC0003181280F391F8091190490911A0482179A
:104FD000930779F5F0931A04E09319046DC0DE018C
:104FE00020E030E0AE17BF0750F412964D915C916F
:104FF00013979D014115510509F1DA01F3CFB383F0
:10500000A28340815181840F951F8A179B0771F4F9
:105010008D919C911197840F951F029691838083A7
:1050200012968D919C91139793838283211531055C
:1050300029F4F0931C04E0931B043EC0D90113969D
:10504000FC93EE9312974D915D91A40FB51FEA1753
:10505000FB0779F480819181840F951F0296D90115
:1050600011969C938E938281938113969C938E9339
:105070001297E0E0F0E08A819B81009719F0FE0131
:10508000EC01F9CFCE01029628813981820F931F5E
:105090002091190430911A042817390769F43097C0
:1050A00029F410921C0410921B0402C01382128275
:1050B000D0931A04C0931904DF91CF910895662705
:1050C00077270C94842BFC0188279927E894219159
:1050D0002032E9F3293010F02E30C8F32B3241F0A2
:1050E0002D3239F4689404C00E948128820F911DEA
:1050F000219120532A30C0F31EF4909581959F4F43
:1051000008957AE0979F902D879F802D910D11240F
:1051100008950F931F93CF93DF93E0911F04F091B5
:105120002004238121FF1BC0EC0100E010E08991E5
:1051300060911F0470912004DB011896ED91FC91A1
:105140001997882331F00995892B89F30FEF1FEF09
:10515000EECF8AE00995892B11F4C80102C08FEFC8
:105160009FEFDF91CF911F910F910895AEE0B0E0D6
:10517000ECEBF8E20C947C2D85E08C838B899C8988
:105180009A838983AE01495E5F4F6D897E89CE0126
:1051900001960E944D2A2E96E2E00C94982D20FD57
:1051A00009C0FC0123FD05C022FF02C07383628396
:1051B00051834083089544FD10C046FD10C0DB01BB
:1051C000FC01AA0FBB1FEE1FFF1F1094D1F76A0F3F
:1051D0007B1F8E1F9F1F31E003C033E001C034E00E
:1051E000660F771F881F991F3150D1F7620F711D0D
:1051F000811D911D08950F931F93CF93DF938C0111
:10520000C8010E94122DEC0197FD08C00E94E72CF6
:10521000892BB1F7B801CE010E94502DCE01DF914C
:10522000CF911F910F9108958F929F92AF92CF923D
:10523000DF92EF92FF920F931F93CF93DF93EC01D6
:10524000A62E4A01022F0E94122DAC0155274B3287
:10525000510521F04D32510551F40068AA9411F422
:1052600080E067C0CE010E94122D97FDF9CF102F6C
:105270001D7F302F307301F58033F1F4FF24FA9451
:10528000FA0C09F442C0CE010E94122D97FD3DC0D8
:10529000382F3F7D383551F41264AA94AA94A9F1AD
:1052A000CE010E94122D97FF07C02FC006FF02C03B
:1052B000126001C01261AF2CC12CD12C760120EDFF
:1052C000280F283080F014FF04C0BE010E94502D2A
:1052D00019C02A3040F016FFF8CF2F7D3FEE320F75
:1052E000363098F72750412FC701B6010E94DB28BE
:1052F0006B017C011260AA9459F0CE010E94122D1C
:1053000097FFDDCF11FD04C0ABCFC12CD12C7601AE
:1053100017FF08C0F094E094D094C094C11CD11C35
:10532000E11CF11C212FB701A601C4010E94CF2866
:1053300081E0DF91CF911F910F91FF90EF90DF906F
:10534000CF90AF909F908F900895A1E2B0E0EBEAEC
:10535000F9E20C94712D5C017A018E010F5F1F4FF1
:10536000680180E2D8011D928A95E9F7F501738002
:1053700040E050E0812CB0E0912C81E090E0F90118
:1053800073FCA59173FEA1918F017A2F9F01A1114A
:1053900003C080E090E07DC0AE3519F441155105A1
:1053A00059F1E92DF0E0E417F5073CF4AD3569F16A
:1053B000AD3219F4BB2319F103C0B11101C08A2E1B
:1053C000E72FE695E695E69586010E0F111DF8018B
:1053D000A72FA7708C0102C0000F111FAA95E2F73A
:1053E000D801B081BA2BB083781559F0781510F434
:1053F0007F5FE6CF7150E4CF9924939403C0B1E06E
:1054000001C0B0E04F5F5F4FBACFBB2319F08E8170
:1054100080628E83911003C09924939415C0F60185
:10542000CE018196208120952193E817F907D1F7C5
:10543000F3CFE114F10429F0D7018C93F7013196F1
:105440007F01615001F1912CC50169A30E94122DC9
:1054500069A197FD16C0282F269526952695F60159
:10546000E20FF11D208130E0AC014770552702C0EA
:10547000359527954A95E2F720FDDBCFB5010E94CF
:10548000502D911086CFE114F10411F0D7011C9238
:10549000C801A196EDE00C948D2D4F925F927F9202
:1054A0008F929F92AF92BF92CF92DF92EF92FF9234
:1054B0000F931F93CF93DF931F92CDB7DEB78C016D
:1054C0002B017A01FC0117821682A12CF801D380EE
:1054D000F201D3FC8591D3FE8191382F2F018823CF
:1054E00009F4FCC090E039830E94E72C3981892BB4
:1054F00021F0C8010E94FB28E9CF353241F4F201C6
:10550000D3FC3591D3FE31912F01353269F4C801B6
:1055100039830E94122D398197FDDEC03817B1F210
:10552000B8010E94502DDAC03A3241F4D3FC3591D3
:10553000D3FE31912F01BB24B39401C0B12C712C47
:1055400020ED230F2A3090F4FB2DF260BF2E672D43
:1055500070E080E090E040E20E94DB28762EF201CD
:10556000D3FC3591D3FE31912F01EACFB1FE03C0B8
:10557000711003C0B3C077247A94383619F03C36E2
:1055800061F014C0F201D3FC3591D3FE31912F01AB
:10559000383661F4FB2DF860BF2E8B2D8460B82E59
:1055A000F201D3FC3591D3FE31912F01332309F45D
:1055B00095C0632F70E082EC90E039830E94EF2C5D
:1055C0003981892B09F48AC0B0FC07C0F701C0807B
:1055D000D180C70102967C0102C0C12CD12C3E367D
:1055E00051F4F8014681578160E070E02B2DC6012F
:1055F0000E94CF286BCF3336A1F4B1FC02C07724D0
:105600007394C8010E94122D97FD66C0C114D10485
:1056100029F0F6018083C60101966C017A9489F71E
:1056200057C03B3559F49201A601672DC8010E946D
:10563000A5292C01009709F04BC045C0C80139834A
:105640000E94FB28398197FD47C03F3669F128F455
:10565000343631F1393679F12BC0333769F03537CB
:10566000F9F026C0C114D10429F0F6018082C601E8
:1056700001966C017A9471F0C8010E94122D4C01C0
:1056800097FD08C00E94E72C892B61F3B801C40183
:105690000E94502DC114D104D9F0F601108218C017
:1056A000FB2DF062BF2E07C08B2D8061B82E03C08A
:1056B0009B2D9064B92E2B2DA601672DC8010E9449
:1056C0001429811105C0F8018381807329F406C073
:1056D000B0FCFCCEA394FACEAA2019F08A2D90E05B
:1056E00002C08FEF9FEF0F90DF91CF911F910F912D
:1056F000FF90EF90DF90CF90BF90AF909F908F90F2
:105700007F905F904F900895A0E0B0E0EAE8FBE260
:105710000C94722D8B016115710521F0DB018C93C6
:1057200011969C93EC015E01BFEFAB1ABB0A7501A9
:10573000C8808C2D90E00E94E72C892B11F0E501A8
:10574000F2CFEDE2CE1208C07E01F2E0EF0EF11CC6
:10575000C980DD24D39409C02BE2C21205C07E01AA
:1057600042E0E40EF11CC980D12CE701219743E00F
:1057700050E066ED70E0CE010E94FA2C892BC1F456
:10578000239645E050E061ED70E0CE010E94FA2CD6
:10579000892B09F425960115110519F0D801CD932F
:1057A000DC93D11006C160E070E080E89FE70AC199
:1057B00043E050E06EEC70E0CE010E94FA2C892BA1
:1057C00059F40115110509F4F9C0B2E0EB0EF11C12
:1057D000F801F182E082F2C0F70160E070E0CB01F5
:1057E000C0E0D0E07F01A0EDAA2EAC0C29E02A1584
:1057F00030F14D2D4260B42E2D2D2870D2FE04C004
:10580000211125C0219623C021112197A5E0B0E0E8
:105810009B01AC010E940427660F771F881F991F08
:105820006A0D711D811D911D6839A9E97A078A07E2
:10583000A9E19A0760F0BD2DB660BB2E08C02EEF1F
:10584000A2120AC0D3FC50C04D2D4860B42E319630
:10585000D701CC90DB2CC6CF2C2D2F7D253409F021
:1058600043C0A081AD3241F4BD2DB061DB2E7F017C
:1058700022E0E20EF11C0CC07F01AB3231F04FEFA1
:10588000E41AF40A21E030E006C0A2E0EA0EF11CBE
:10589000A18122E030E0A053AA3018F0E21AF30A06
:1058A00023C0F70120E030E02038BCE03B075CF487
:1058B000A901440F551F440F551F240F351F220FF8
:1058C000331F2A0F311DAF014F5F5F4F7A01A08157
:1058D000A053AA3010F4FA01E7CFD4FE03C03195EB
:1058E00021953109C20FD31FD1FE09C00115110541
:1058F00031F0E1E0EE1AF108D801ED92FC920E943D
:1059000076252D2D2370233019F04B015C0106C044
:105910004B015C01B7FAB094B7F8B09420E030E0E6
:10592000A901C501B4010E94D924882309F43EC00D
:10593000D7FF06C0D195C195D1090DEE10E002C088
:1059400005E011E06801B8E1CB1AD10890E2E92E38
:10595000F12CCE15DF0574F0F801259135914591B4
:105960005491C501B4010E942C264B015C01CE1953
:10597000DF09EFCF04501109F594E7940C151D05CC
:1059800041F78A2D880F8B2D881F8F3F49F020E02B
:1059900030E0A901C501B4010E94D924811106C0DB
:1059A00082E290E09093240480932304C501B40123
:1059B00009C060E070E080E89FEF04C060E070E044
:1059C00080EC9FE7CDB7DEB7ECE00C948E2D911103
:1059D00080C0803219F089508550D0F70895FC01BD
:1059E0000590061621F00020D9F7C00108953197DF
:1059F000CF010895FB01DC014150504088F08D91AA
:105A000081341CF08B350CF4805E659161341CF0A0
:105A10006B350CF4605E861B611171F3990B089570
:105A2000881BFCCFCF93DF93EC012B8120FF33C089
:105A300026FF0AC02F7B2B838E819F8101969F8337
:105A40008E838A8190E029C022FF0FC0E881F9810E
:105A50008081992787FD9095009719F420622B8308
:105A60001AC03196F983E8830EC0EA85FB85099553
:105A700097FF09C02B81019611F480E101C080E2FB
:105A8000822B8B8308C02E813F812F5F3F4F3F8346
:105A90002E83992702C08FEF9FEFDF91CF9108955A
:105AA000FB01238120FF12C026FD10C08F3F3FEF76
:105AB000930761F082832F7D2064238326813781C1
:105AC0002150310937832683992708958FEF9FEF5F
:105AD00008959927882708952F923F924F925F92B9
