:100000000C949F000C94C7000C94C7000C94C7007C
:100010000C94C7000C94C7000C94C7000C94EE1904
:100020000C94C7000C94C7000C94C7000C94322A9F
:100030000C94C7000C94C7000C94C7000C94C70024
:100040000C94EE2A0C94C7000C94572E0C94892E15
:100050000C94C7000C94C7000C94C7000C94C70004
:100060000C94C7000C94C700084AD73B3BCE016EE6
:1000700084BCBFFDC12F3D6C74319ABD56833DDAFF
:100080003D00C77F11BED9E4BB4C3E916BAAAABE0E
:10009000000000803F000000000800020100000393
:1000A0000407000000000000000001020408102006
:1000B00040800102040810200102040810200404FA
:1000C0000404040404040202020202020303030300
:1000D00003030000000023002600290000000000A8
:1000E000250028002B0000000000240027002A0023
:1000F0006364696E6F70737578585B004E414E494A
:100100004E495459494E46CDCCCC3D0AD7233C17D5
:10011000B7D13877CC2B329595E6241FB14F0A0022
:100120000020410000C84200401C4620BCBE4CCA12
:100130001B0E5AAEC59D7400D10DB92E760E11243A
:100140001FBECFEFD8E0DEBFCDBF11E0A0E0B1E031
:10015000E6EAF7E702C005900D92A03AB107D9F799
:1001600024E0A0EAB1E001C01D92A63BB207E1F78E
:1001700011E0CCE3D1E004C02297FE010E94483593
:10018000C833D107C9F70E94FD2E0C94C63B0C94CE
:10019000000063E271E08DE094E00C94552F61E083
:1001A0008AE193E00E942C1560E070E08AE193E020
:1001B0000E94721562E08AE193E00E942C1560E0D3
:1001C00070E08AE193E00C947215CF92DF92EF9287
:1001D000FF920F931F93CF93DF93C2E3D0E000E031
:1001E00010E084E10E94D52B080F191F2197C9F751
:1001F000B80180E090E00E94BE3223ED36EF4FEA76
:100200005BE30E94F33320E030E048E452E40E94D4
:1002100025326B017C0120E030E040E450E40E9494
:10022000213287FF06C0C12CD12C90E4E92EFE2C90
:1002300011C023E333E343E850E4C701B6010E9451
:10024000E83318163CF483E3C82EDC2C83E8E82E50
:1002500080E4F82E20E030E040E450E4C701B6012D
:100260000E945A312AE939E949E95FE30E942532BF
:1002700020E030E048EC52E40E94F3330E94563410
:100280000E948D324AE050E08DE094E0DF91CF9102
:100290001F910F91FF90EF90DF90CF900C940A3058
:1002A0000895EF92FF920F931F93CF93DF93EB018B
:1002B000FC016081613401F5FF92EF921F930F936F
:1002C0003F932F935F934F93DF93CF932FE331E0CF
:1002D0003F932F939F938F930E94E136888199815A
:1002E0000E96998388838DB79EB70E960FB6F894B5
:1002F0009EBF0FBE8DBF1AC0FF92EF921F930F9348
:100300003F932F935F934F93DF93CF9320E431E09C
:100310003F932F939F938F930E94E1368DB79EB7A3
:100320000E960FB6F8949EBF0FBE8DBFDF91CF9192
:100330001F910F91FF90EF900895DC01ED91FC91DA
:1003400011979F012F5F3F4F2D933C9320812032C7
:10035000A1F70895EF92FF920F931F93CF93DF932E
:10036000CDB7DEB72C970FB6F894DEBF0FBECDBF6A
:100370009C878B87CE010B960E949D01CE01019632
:100380007C018E010D5F1F4F9E012B5F3F4FAE0121
:10039000495F5F4FBE01675F7F4F8B859C850E94E1
:1003A000510169858CEE92E00E94642609812B81BF
:1003B0004D816F818CEE92E00E94A8268CEE92E037
:1003C0000E94F9262C960FB6F894DEBF0FBECDBF63
:1003D000DF91CF911F910F91FF90EF900895EF92D1
:1003E000FF920F931F93CF93DF93CDB7DEB72C9778
:1003F0000FB6F894DEBF0FBECDBF9C878B87CE01B2
:100400000B960E949D01CE0101967C018E010D5F2D
:100410001F4F9E012B5F3F4FAE01495F5F4FBE01F3
:10042000675F7F4F8B859C850E945101698589EDAF
:1004300092E00E94352709812B814D816F8189EDE2
:1004400092E00E94372789ED92E00E946A272C965D
:100450000FB6F894DEBF0FBECDBFDF91CF911F91D5
:100460000F91FF90EF900895CF93DF93EC010E94DE
:100470009D0188819981DF91CF910C948636CF932D
:10048000DF9300D0CDB7DEB79A838983CE01019682
:100490000E943402682F8AE193E00E942C15CE015D
:1004A00001960E943402BC018AE193E00E94721519
:1004B0000F900F90DF91CF9108950F931F93CF93DB
:1004C000DF9300D0CDB7DEB79A838983CE01019642
:1004D0000E9434028C01CE0101960E943402033145
:1004E000110561F00231110561F00031110561F073
:1004F0000F301105B9F423E030E008C020E030E00F
:1005000005C021E030E002C022E030E066E0629FFA
:10051000A001639F500D1124BC01CA018E5F9C4F46
:100520000E947A100F900F90DF91CF911F910F9141
:1005300008951F93CF93DF9300D01F92CDB7DEB7FE
:100540009A838983CE0101960E943402682FCE01DE
:1005500001966B830E943402182F41E06B8182E286
:1005600092E00E94AD27612F82E292E00E94C527AF
:100570000F900F900F90DF91CF911F910895CF931F
:10058000DF9300D0CDB7DEB79A83898362E08AE13A
:1005900093E00E942C15CE0101960E943402BC010A
:1005A0008AE193E00E94721561E08AE193E00E9483
:1005B0002C15CE0101960E943402BC018AE193E021
:1005C0000E9472150F900F90DF91CF9108951F93A5
:1005D000CF93DF9300D0CDB7DEB79A838983CE0166
:1005E00001960E943402182F60E00E947A2C812F1D
:1005F0000E94D52B4AE050E0BC018DE094E00E94BF
:100600000A300F900F90DF91CF911F9108951F93A3
:10061000CF93DF9300D0CDB7DEB79A838983CE0125
:1006200001960E943402182F60E00E947A2C812FDC
:100630000E94D52B4AE050E0BC018DE094E00E947E
:100640000A300F900F90DF91CF911F910895CF93B3
:10065000DF9300D0CDB7DEB79A838983CE010196B0
:100660000E943402682F83EF92E00E943E2883EFBD
:1006700092E00E944028AB01BC0122E030E08DE016
:1006800094E00E9447310F900F90DF91CF91089531
:100690000F931F93CF93DF9300D0CDB7DEB79A832C
:1006A0008983CE0101960E9434028C01CE0101960D
:1006B0000E9434029C01442737FD4095542FB80115
:1006C00083ED92E00E94AB130F900F90DF91CF91DA
:1006D0001F910F910895CF93DF9300D0CDB7DEB770
:1006E0009A838983CE0101960E943402682F86E4A2
:1006F00093E00E945B2986E493E00E945D29AB01B0
:10070000BC0122E030E08DE094E00E9447310F9080
:100710000F90DF91CF910895CF93DF9300D0CDB7A5
:10072000DEB79A838983CE0101960E943402682F36
:1007300083E593E00E94922783E593E00E941D28C1
:100740004AE050E0BC018DE094E00E9446300F90FA
:100750000F90DF91CF9108950F931F93CF93DF9365
:1007600000D000D01F92CDB7DEB79A838983CE0127
:1007700001960E943402682FCE0101966D830E947B
:100780003402182FCE0101960E943402482FCE0168
:1007900001964C830E943402282FCE0101962B83B0
:1007A0000E943402082F6D8184E593E00E94B91BFA
:1007B0002B814C81612F84E593E00E94041C0F90F3
:1007C0000F900F900F900F90DF91CF911F910F918D
:1007D00008950F931F93CF93DF9300D000D01F9203
:1007E000CDB7DEB79A838983CE0101960E94340289
:1007F000682FCE0101966D830E943402182FCE011E
:1008000001960E943402482FCE0101964C830E942B
:100810003402282FCE0101962B830E943402082F28
:100820006D8186E493E00E945B292B814C81612FCE
:1008300086E493E00E94D8290F900F900F900F90BC
:100840000F90DF91CF911F910F910895FF920F9319
:100850001F93CF93DF9300D01F92CDB7DEB79A835B
:100860008983CE0101960E943402682FCE01019641
:100870006B830E943402F82ECE0101960E9434024E
:100880008C016B8184E593E00E94B91B41E0012B50
:1008900009F440E06F2D84E593E00E944A1C0F901C
:1008A0000F900F90DF91CF911F910F91FF900895BE
:1008B000FF920F931F93CF93DF9300D01F92CDB77A
:1008C000DEB79A838983CE0101960E943402682F95
:1008D000CE0101966B830E943402F82ECE01019660
:1008E0000E9434028C016B8186E493E00E945B29B4
:1008F00041E0012B09F440E06F2D86E493E00E9473
:10090000EC290F900F900F90DF91CF911F910F91D5
:10091000FF9008951F93CF93DF9300D01F92CDB720
:10092000DEB79A838983CE0101960E943402682F34
:10093000CE0101966B830E943402182F6B8180E4F4
:1009400093E00E94BD22612F80E493E00E94162371
:100950004AE050E0BC018DE094E00E9446300F90E8
:100960000F900F90DF91CF911F910895FF920F93F9
:100970001F93CF93DF9300D000D0CDB7DEB79A831B
:100980008983CE0101960E943402682FCE01019620
:100990006C830E943402F82ECE0101960E9434022C
:1009A000482FCE0101964B830E9434028C016C814A
:1009B00085E293E00E944D1D21E04B81012B09F45B
:1009C00020E06F2D85E293E00E94FE1E0F900F90B5
:1009D0000F900F90DF91CF911F910F91FF9008958D
:1009E0001F93CF93DF9300D000D0CDB7DEB79A83AB
:1009F0008983CE0101960E943402682FCE010196B0
:100A00006C830E943402182FCE0101960E9434029A
:100A1000482FCE0101964B830E949D016C8185E297
:100A200093E00E944D1D29813A814B81612F85E21F
:100A300093E00E94A41E0F900F900F900F90DF91F3
:100A4000CF911F9108959F92AF92BF92CF92DF9264
:100A5000EF92FF920F931F93CF93DF93CDB7DEB743
:100A600060970FB6F894DEBF0FBECDBF988B8F870F
:100A70008E01015F1F4FC8010E943402982EC801E9
:100A80000E943402D82EC8010E943402C82ECE0122
:100A900001967C015C01C8010E943402F701819338
:100AA0007F01E017F107B9F7692D85E293E00E9415
:100AB0004D1D95014C2D6D2D85E293E00E946F1D1B
:100AC00060960FB6F894DEBF0FBECDBFDF91CF9119
:100AD0001F910F91FF90EF90DF90CF90BF90AF905C
:100AE0009F9008951F93CF93DF9300D01F92CDB7AF
:100AF000DEB79A838983CE0101960E943402682F63
:100B0000CE0101966B830E943402182FCE0101960C
:100B10000E943402482F6B8185E293E04B830E9450
:100B20004D1D4B81612F85E293E00E94241E0F90A2
:100B30000F900F90DF91CF911F9108951F93CF9346
:100B4000DF9300D01F92CDB7DEB79A838983CE01A1
:100B500001960E943402682FCE0101966B830E9499
:100B60003402182FCE0101960E943402482F6B8167
:100B700085E293E04B830E944D1D4B81612F85E2FE
:100B800093E00E944B1E0F900F900F90DF91CF913A
:100B90001F910895CF93DF9300D0CDB7DEB79A832E
:100BA0008983CE0101960E943402682F85E293E08A
:100BB0000E944D1D85E293E00E944F1D0F900F9003
:100BC000DF91CF9108951F93CF93DF9300D0CDB7DE
:100BD000DEB79A838983CE0101960E943402182FD2
:100BE000CE0101960E943402682F812F0E94B32CFF
:100BF0000F900F90DF91CF911F9108950F931F9346
:100C0000CF93DF9300D01F92CDB7DEB79A8389834D
:100C1000CE0101960E943402682FCE0101966B83AB
:100C20000E9434028C016B8182EC92E00E94BD191B
:100C300082EC92E00E94BF1960E082EC92E0012B0E
:100C400019F40E94E31902C00E94D8194AE050E04A
:100C5000BC018DE094E00E9446300F900F900F9001
:100C6000DF91CF911F910F910895CF93DF9300D023
:100C7000CDB7DEB79A838983CE0101960E943402F4
:100C80000E94D52B4AE050E0BC018DE094E00E9428
:100C90000A300F900F90DF91CF9108950F931F931B
:100CA000CF93DF9300D0CDB7DEB79A838983CE018F
:100CB00001960E943402182FCE0101960E94340240
:100CC000082F61E0812F0E947A2C602F812F0E94D3
:100CD000B32C0F900F90DF91CF911F910F9108953A
:100CE000CF93DF9300D0CDB7DEB79A838983CE014F
:100CF00001960E943402682F84ED92E00E94A9259B
:100D000084ED92E00E94AB254AE050E0682F8DE030
:100D100094E00E942F300F900F90DF91CF910895B3
:100D2000FF920F931F93CF93DF9300D01F92CDB705
:100D3000DEB79A838983CE0101960E943402682F20
:100D4000CE0101966B830E943402F82ECE010196EB
:100D50000E9434028C016B818BEA92E00E94E410C5
:100D600041E0012B09F440E06F2D8BEA92E00E94F4
:100D7000E6100F900F900F90DF91CF911F910F9180
:100D8000FF900895CF93DF9300D0CDB7DEB79A835D
:100D90008983CE0101960E943402682F89E992E08E
:100DA0000E94C61389E992E00E9454140F900F909C
:100DB000DF91CF9108950F931F93CF93DF9300D0CE
:100DC0001F92CDB7DEB79A838983CE0101960E9428
:100DD0003402682FCE0101966B830E9434028C018D
:100DE0006B8189E992E00E94C61361E0012B09F44E
:100DF00060E089E992E00E9468140F900F900F90D4
:100E0000DF91CF911F910F9108951F93CF93DF939F
:100E100000D01F92CDB7DEB79A838983CE010196A9
:100E20000E943402682FCE0101966B830E94340227
:100E3000182F6B8189E992E00E94C613612F89E91E
:100E400092E00E9485144AE050E0BC018DE094E0FD
:100E50000E9446300F900F900F90DF91CF911F911D
:100E600008951F93CF93DF9300D01F92CDB7DEB7C5
:100E70009A838983CE0101960E943402682FCE01A5
:100E800001966B830E943402182F6B8182E992E0F5
:100E90000E948216612F82E992E00E94A1164AE028
:100EA00050E0682F8DE094E00E942F300F900F905B
:100EB0000F90DF91CF911F9108951F93CF93DF93F0
:100EC00000D01F92CDB7DEB79A838983CE010196F9
:100ED0000E943402682FCE0101966B830E94340277
:100EE000182F6B818AE892E00E94841C612F8AE8A7
:100EF00092E00E94A31C4AE050E0682F8DE094E04D
:100F00000E942F300F900F900F90DF91CF911F9183
:100F100008951F93CF93DF9300D01F92CDB7DEB714
:100F20009A838983CE0101960E943402682FCE01F4
:100F300001966B830E943402182F6B818AE792E03E
:100F40000E94CE14612F8AE792E00E940B154AE0BE
:100F500050E0BC018DE094E00E9446300F900F906D
:100F60000F90DF91CF911F9108951F93CF93DF933F
:100F700000D01F92CDB7DEB79A838983CE01019648
:100F80000E943402682FCE0101966B830E943402C6
:100F9000182F6B818AE392E00E94FF16612F8AE38B
:100FA00092E00E946419AB01BC0122E030E08DE0C8
:100FB00094E00E9447310F900F900F90DF91CF91F6
:100FC0001F9108950F931F93CF93DF9300D01F922B
:100FD000CDB7DEB79A838983CE0101960E94340291
:100FE000682FCE0101966B830E9434028C016B81C5
:100FF00081E392E00E94D72561E0012B09F460E0D3
:1010000081E392E00E94D9250F900F900F90DF911D
:10101000CF911F910F9108950F931F93CF93DF935B
:1010200000D01F92CDB7DEB79A838983CE01019697
:101030000E943402682FCE0101966B830E94340215
:101040008C016B818DE292E00E940F2A61E0012BFE
:1010500009F460E08DE292E00E94112A0F900F9057
:101060000F90DF91CF911F910F910895CF93DF9350
:1010700000D0CDB7DEB79A838983CE0101960E9456
:101080003402682F88E292E00E94472388E292E0CF
:101090000E94C6230F900F90DF91CF910895CF93B8
:1010A000DF9300D0CDB7DEB79A838983CE01019656
:1010B0000E943402682F88E292E00E94472388E26F
:1010C00092E00E94B0230F900F90DF91CF9108958E
:1010D000CF93DF9300D0CDB7DEB79A838983CE015B
:1010E00001960E943402682F88E292E00E94472312
:1010F00088E292E00E949A230F900F90DF91CF91A7
:101100000895CF93DF9300D0CDB7DEB79A8389835C
:10111000CE0101960E943402682F88E292E00E947C
:10112000472388E292E00E941C240F900F90DF91E9
:10113000CF9108951F93CF93DF9300D01F92CDB727
:10114000DEB79A838983CE0101960E943402682F0C
:10115000CE0101966B830E943402182F6B8188E2C6
:1011600092E00E944723612F88E292E00E94DC23F4
:101170000F900F900F90DF91CF911F9108950F93D3
:101180001F93CF93DF9300D01F92CDB7DEB79A8322
:101190008983CE0101960E943402682FCE01019608
:1011A0006B830E9434028C016B8188E292E00E9482
:1011B0004723B80188E292E00E9449230F900F90E4
:1011C0000F90DF91CF911F910F9108951F93CF93AF
:1011D000DF9300D01F92CDB7DEB79A838983CE010B
:1011E00001960E943402682FCE0101966B830E9403
:1011F0003402182F6B8188E292E00E944723612F0E
:1012000088E292E00E9474230F900F900F90DF917C
:10121000CF911F910895CF93DF9300D0CDB7DEB764
:101220009A838983CE0101960E943402682F84E25A
:1012300092E00E94D51C84E292E00E94D71C4AE012
:1012400050E0BC018DE094E00E9446300F900F907A
:10125000DF91CF9108950F931F93CF93DF9300D029
:101260001F92CDB7DEB79A838983CE0101960E9483
:101270003402682FCE0101966B830E9434028C01E8
:101280006B8184E292E00E94D51C61E0012B09F49D
:1012900060E084E292E00E94031D0F900F900F9097
:1012A000DF91CF911F910F910895CF93DF93EC01C0
:1012B0000E949D0188819981DF91CF910C948236A3
:1012C000CF92DF92EF92FF921F93CF93DF9300D0E4
:1012D000CDB7DEB79A838983CE0101960E9434028E
:1012E000182FCE0101960E9455096B017C01612FD8
:1012F00085E293E00E944D1DB701A60185E293E0CF
:101300000E943D1F0F900F90DF91CF911F91FF9092
:10131000EF90DF90CF900895CF92DF92EF92FF92FF
:101320001F93CF93DF9300D0CDB7DEB79A83898325
:10133000CE0101960E943402182FCE0101960E9420
:1013400055096B017C01612F80EB92E00E944411F2
:10135000B701A60180EB92E00E948F110F900F90D1
:10136000DF91CF911F91FF90EF90DF90CF90089584
:10137000882319F060E571E002C065E571E08DE059
:1013800094E00C94552FCF93DF9300D0CDB7DEB708
:101390009A838983CE0101960E943402682F88ECDB
:1013A00092E00E94B01ACE0101960E943402682F8A
:1013B00088EC92E00E94C01A0E94B8090F900F902A
:1013C000DF91CF9108951F93CF93DF9300D0CDB7D6
:1013D000DEB79A838983CE0101960E943402182FCA
:1013E00060E00E947A2C812F0E94E92C21E0892B59
:1013F00009F020E0822F0E94B8090F900F90DF9132
:10140000CF911F910895CF93DF9300D0CDB7DEB772
:101410009A838983CE0101960E943402682F84E565
:1014200093E00E94B91B84E593E00E94BB1B91E00E
:10143000811101C090E0892F0E94B8090F900F9090
:10144000DF91CF9108951F93CF93DF9300D01F9228
:10145000CDB7DEB79A838983CE0101960E9434020C
:10146000682FCE0101966B830E943402182F6B8186
:1014700080E493E00E94BD22612F80E493E00E940B
:10148000162321E08038924008F020E0822F0E944D
:10149000B8090F900F900F90DF91CF911F91089591
:1014A000CF93DF9300D0CDB7DEB79A838983CE0187
:1014B00001960E943402682F8DEB92E00E940C2965
:1014C0008DEB92E00E940E2991E0811101C090E025
:1014D000892F0E94B8090F900F90DF91CF91089546
:1014E0000F931F93CF93DF9300D01F92CDB7DEB73A
:1014F0009A838983CE0101960E943402682FCE011F
:1015000001966B830E9434028C016B818BEA92E01E
:101510000E94E4108BEA92E00E941D11282F30E017
:1015200081E02017310709F080E00E94B8090F9090
:101530000F900F90DF91CF911F910F910895CF934E
:10154000DF9300D0CDB7DEB79A838983CE010196B1
:101550000E943402682F86EA92E00E947B2586EA88
:1015600092E00E947D2591E0811101C090E0892FD9
:101570000E94B8090F900F90DF91CF910895CF93FB
:10158000DF9300D0CDB7DEB79A838983CE01019671
:101590000E943402682F81E992E00E94972281E93B
:1015A00092E00E949F220E94B8090F900F90DF9155
:1015B000CF9108951F93CF93DF9300D01F92CDB7A3
:1015C000DEB79A838983CE0101960E943402682F88
:1015D000CE0101966B830E943402182F6B8185E344
:1015E00092E00E94BF28612F85E392E00E94D928F3
:1015F0000E94B8090F900F900F90DF91CF911F912B
:101600000895CF93DF9300D0CDB7DEB79A83898357
:10161000CE0101960E943402682F88E292E00E9477
:10162000472388E292E00E94042491E0811101C0E6
:1016300090E0892F0E94B8090F900F90DF91CF9111
:101640000895FF920F931F93CF93DF938C01019620
:101650000E9486368032910509F45CC10CF071C09D
:101660008031910509F435C1CCF58830910509F434
:10167000E8C0ECF48330910509F40DC164F48130C5
:10168000910509F402C10CF003C1892B09F09AC13C
:10169000C3EED9E080C18630910509F477C10CF022
:1016A00078C1059709F08EC1C9ECD0E074C18C30C7
:1016B000910509F4C3C04CF48A30910509F43FC187
:1016C0000CF43AC1C7E0D3E066C18E30910509F44D
:1016D000FAC00CF0FBC0CFEED1E033C188319105E8
:1016E00009F409C1BCF48431910509F4FBC04CF440
:1016F0008231910509F4F0C00CF0F1C0C2ECD6E0E3
:1017000020C18631910509F4F0C00CF0F1C0CFEB97
:10171000DAE041C18C31910509F402C14CF48A31FF
:10172000910509F4EBC00CF0ECC0CAEDDAE033C16E
:101730008E31910509F4F1C00CF4F5C0C8E6D8E08B
:1017400000C18637910509F488C0D4F58E3691051D
:1017500009F489C0F4F48336910509F493C064F464
:101760008232910509F4D0C00CF4D1C0879709F0FA
:1017700029C1C1E8D8E0E5C08C36910509F476C0EE
:101780000CF068C08636910509F01CC1CFECD0E0A2
:10179000D8C08237910509F472C04CF480379105A6
:1017A00009F467C00CF068C0CAE8D4E0F4C084371C
:1017B000910509F473C00CF074C0C3E2D5E0C1C058
:1017C0008E37910509F470C0BCF48A37910509F48D
:1017D00071C04CF48837910509F442C00CF067C021
:1017E000C3EED5E0AEC08C37910509F466C00CF4A9
:1017F00067C0CEE4D6E0A5C08238910509F499C04F
:1018000044F48038910561F10CF090C0C8E5D4E053
:1018100098C0893C9105C1F03CF4883C910509F0E1
:10182000D1C0CFE3D2E08DC08A3C910581F08C3CE1
:10183000910509F0C7C0CDE5D2E083C0C7E2D3E08F
:10184000AAC0C7EED2E0A7C0CFEBD2E07AC0C9E908
:10185000D2E077C0C9EED3E074C0CCEAD3E071C067
:10186000C6E2D4E06EC0CBE6D3E095C0C3E2DAE0D6
:1018700092C0C0E6D9E065C0C6EBD4E062C0C0EF5C
:10188000D4E05FC0C2E8DDE05CC0C2E7D5E059C08B
:10189000CEE9D5E056C0CAECD5E053C0CCE8D3E0E1
:1018A0007AC0C3E0DAE077C0C0E7D6E074C0C0E534
:1018B000DAE071C0CEEFD5E06EC0C5E3D6E06BC014
:1018C000CCE8D9E03EC0C0E7DAE065C0C0E9D6E0C8
:1018D00038C0CFE9DAE05FC0CBEDD6E032C0C5E07A
:1018E000D7E059C0C1E3D7E056C0CDE5D7E053C03B
:1018F000C9E8D7E050C0C5EBD7E04DC0C2EED7E095
:1019000020C0CCE0D8E01DC0C1E0DBE044C0C6E3AD
:10191000D8E017C0CFE4D8E014C0CAE9D8E011C0BD
:10192000CFEBD8E00EC0C6EED8E00BC0CBE0D9E0DC
:1019300032C0CBE2D9E005C0CAEAD1E002C0C8E4B7
:10194000D3E0F12CC801FE010995F1103BC0F8016C
:1019500001900020E9F7AF0141505109401B510BA4
:10196000E0910D04F0910E040280F381E02DB801A6
:101970008DE094E009956BE571E08DE094E0DF91F6
:10198000CF911F910F91FF900C94552FC5EED0E091
:1019900002C0C3ECD9E0F80101900020E9F7AF01E3
:1019A00041505109401B510BE0910D04F0910E0480
:1019B0000280F381E02DB8018DE094E00995FF24C9
:1019C000F394C0CFDF91CF911F910F91FF900895B5
:1019D000FC0120812D3411F40C94210B089563E156
:1019E00082E093E00E94031062E188E093E00E94AD
:1019F000031060E18EE093E00E9403106FE084E149
:101A000093E00E94031060E083E10E947A2C60E082
:101A100082E10E947A2C60E080E10E947A2C60E0F2
:101A20008FE00E947A2C61E083E00E947A2C61E0D2
:101A30008EE00E947A2C61E084E00E947A2C61E0C2
:101A40008DE00E947A2C60E084E10E947A2C88EC80
:101A500092E00C94C71A26E040E052EC61E070E09E
:101A60008DE094E00E94F52D0C94EF0CDF92EF9244
:101A7000FF920F931F93CF93DF93C4E6D3E00EE55D
:101A800011E0F3E0C836DF07A9F1EE24E394F12C6E
:101A90008881811102C0E12CF12CF801D1908F01D5
:101AA0008D2D0E94E92CE816F90611F18881882312
:101AB00011F018821DC060E971E080E090E00E94A2
:101AC000672B6D2D80E693E00E94332480E693E03F
:101AD0000E944D2461E080E693E00E94EA2480E6C3
:101AE00093E00E947B2480E693E00E944525888352
:101AF0002196C7CFDF91CF911F910F91FF90EF906B
:101B0000DF9008950F931F93CF93DF9380E090E0D1
:101B10000E94CF0060E083E00E94B32C60E084E08C
:101B20000E94B32C60E08EE00E94B32C60E08DE058
:101B30000E94B32C0E94360DCEE5D1E004E613E0FE
:101B4000F1E0C236DF0741F1F80181918F0188236E
:101B500009F18130A1F4688186E493E00E945B2959
:101B600020E040E060E086E493E00E94CC2920E0A1
:101B700040E060E086E493E00E94D2290BC083300D
:101B800049F4688185E293E00E944D1D85E293E06F
:101B90000E944F1D2196D4CFDF91CF911F910F91BD
:101BA0000895CF93DF9380E693E00E94322460E0B3
:101BB00084E593E00E949D1B60E083E593E00E9432
:101BC0001B2860E086E493E00E943F2960E080E407
:101BD00093E00E94A92260E085E293E00E94491D03
:101BE00060E08AE193E00E945815C2E0D3E060E033
:101BF000CE010E940F10269683E0CA31D807B9F7AC
:101C000060E083EF92E00E94282860E08CEE92E092
:101C10000E94432660E089ED92E00E941A2760E06E
:101C200084ED92E00E94952567E083ED92E00E94AA
:101C3000401362E088EC92E00E94A41A60E082EC1B
:101C400092E00E94A91960E08DEB92E00E94F828D2
:101C500060E080EB92E00E94561160E08BEA92E037
:101C60000E94D01060E086EA92E00E94672560E062
:101C700089E992E00E94B01360E082E992E00E945C
:101C80006E1660E081E992E00E949D2260E08AE8A1
:101C900092E00E94701C60E08AE792E00E94B31418
:101CA00060E08AE392E00E94BF1660E085E392E084
:101CB0000E94AB2860E081E392E00E94C32560E0CF
:101CC0008DE292E00E94FB2960E088E292E00E94AF
:101CD000332360E084E292E00E94C11C40E060E0B7
:101CE00082E292E0DF91CF910C9495278CEE92E006
:101CF0000C940E271F93CF93DF93C0E8D0E010E23F
:101D00008DE094E00E94122D892B81F18DE094E00A
:101D10000E942B2D20912002309121028A30C1F4A3
:101D2000C9010197FC01E056FE4F40814D3011F48E
:101D30009C01F6CFF901E056FE4F108311821092FC
:101D400021021092200280EA91E00E94E80CD8CF94
:101D5000F901E056FE4F8083C9010196BE010E9441
:101D6000D2349093210280932002CACFDF91CF9189
:101D70001F91089588EC92E00E94641B0C947A0EE7
:101D8000089570E0FB01E655FF4FE491DC01EC9310
:101D9000FB01E254FF4FE491F0E0EE0FFF1FEE5223
:101DA000FF4F25913491FC013283218308951F93C5
:101DB000CF93DF93FC011081C181D2819981812F62
:101DC0008095892389838A81812B8A838AE090E0A8
:101DD0000E948F2B9881912381E009F480E0DF91AC
:101DE000CF911F910895FF920F931F93CF93DF938D
:101DF000FC011081C181D281F8948981F12EF09487
:101E00008F2189838A81812B8A8378940DE7015001
:101E100041F182E090E00E948F2B88818123B9F309
:101E2000F8948A818F218A838981812B8983789490
:101E300080EE91E00E948F2BF89489818F21898315
:101E40008A81812B8A8386E490E00E948F2B88818F
:101E5000812301E009F000E078948AE991E00E9492
:101E60008F2B802FDF91CF911F910F91FF900895BD
:101E70001F93CF93DF93FC011081C181D281912FF9
:101E8000909560FF12C0F8948A8189238A838981A2
:101E9000812B89838AE090E00E948F2B8A81812B9D
:101EA0008A83789487E390E011C0F8948A8189232B
:101EB0008A838981812B898381E490E00E948F2B22
:101EC0008A81812B8A83789485E090E0DF91CF919D
:101ED0001F910C948F2B0F931F93CF93DF93FC01D3
:101EE0001081C181D281F8948981812B89838A8173
:101EF000012F009580238A8383E090E00E948F2B3E
:101F00008981802389838A81812B8A838AE090E07A
:101F10000E948F2BC881789485E390E00E948F2BDC
:101F20001C2381E009F480E0DF91CF911F910F9194
:101F30000895CF92DF92EF92FF920F931F93CF936A
:101F4000DF931F92CDB7DEB76C01E62E08E010E0FC
:101F5000FF24F39461E09F2D9E2109F460E0C60107
:101F600049830E94380FFF0C015011094981011566
:101F7000110581F741111DC0F894D6011196ED911C
:101F8000FC91129791818C91809589238183119680
:101F9000ED91FC91129782819C91892B82831196FD
:101FA000ED91FC91129792818C9180958923828387
:101FB00078940F90DF91CF911F910F91FF90EF9048
:101FC000DF90CF900895EF92FF920F931F93CF93DE
:101FD000DF938C01C8E0D0E0F12CEE24E394C8013B
:101FE0000E946B0F8111FE28EE0C2197C1F78F2DF7
:101FF000DF91CF911F910F91FF90EF90089540E0F6
:102000006CEC0C94990FCF93DF93EC010E94332476
:102010008CE291E09D838C83DF91CF9108950F93A3
:102020001F93CF93DF931F92CDB7DEB78C016983E7
:102030000E943224F801158214826981C8010F9030
:10204000DF91CF911F910F910C9403101F93CF93A9
:10205000DF93EC016F3F710519F014F06FEF70E042
:102060009B0161308FEF780714F421E03FEF8C8102
:102070009D8128173907D1F13D832C83B901882729
:1020800077FD8095982F37FD09C00E94C03223E369
:1020900033E343E250E40E94253210C00E94C03274
:1020A00023E333E343E250E40E9425329B01AC0179
:1020B00060E070E088EC92E40E945A310E94923213
:1020C000162FCE010E944D2462E0CE010E94EA2428
:1020D000CE010E944D24612FCE010E94EA2484EF9C
:1020E00091E0DF91CF911F910C948F2BDF91CF91D5
:1020F0001F910895EF92FF920F931F93CF93DF9359
:102100007C01FC01C481D581CF3FD10519F014F0C9
:10211000C1E0D0E08B016F3F710519F014F00FEFB3
:1021200010E00130FFEF1F0714F401E01FEF0C1760
:102130001D0779F1C017D1074CF5C8018C1B9D0B09
:102140008B30910514F08AE090E0C80FD91FBE01D2
:10215000C7010E94261064E170E080E090E00E94D8
:10216000672BE8CFCE01801B910B8B30910514F0CB
:102170008AE090E0C81BD90BBE01C7010E9426105F
:1021800064E170E080E090E00E94672B0C171D076F
:102190004CF3DF91CF911F910F91FF90EF90089535
:1021A0000F931F93CF93DF931F92CDB7DEB78C01B0
:1021B00069830E9432246981C8010F90DF91CF9119
:1021C0001F910F910C9433240C943324EF92FF92BF
:1021D0001F93CF93DF931F92CDB7DEB77C01162FED
:1021E00049830E944D244981811120C0442311F06C
:1021F00063E001C064E0C7010E94EA24C7010E94B5
:102200004D24811113C0112339F0115061E001C038
:10221000660F1A95EAF701C06FE0C7010F90DF91D2
:10222000CF911F91FF90EF900C94EA240F90DF91D3
:10223000CF911F91FF90EF900895CF93DF93EC0122
:102240000E944D2481111CC062E0CE010E94EA244C
:10225000CE010E947B24CE010E9445258C838C8177
:10226000823059F018F4813041F008C0843021F0F8
:10227000883021F484E001C083E08C838C8101C02C
:1022800080E0DF91CF910895CF93DF93EC010E941E
:10229000332481E08C8740E050E46CE176E44887A9
:1022A00059876A877B87DF91CF9108950F931F939A
:1022B000CF93DF931F92CDB7DEB78C0169830E9465
:1022C00032246981C8010F90DF91CF911F910F9146
:1022D0000C944411CF93DF93EC010E944D248111A3
:1022E0001BC062E0CE010E94EA24CE010E944D2470
:1022F000811112C06C81CE010E94EA246D81CE0151
:102300000E94EA246E81CE010E94EA246F81CE01F0
:10231000DF91CF910C94EA24DF91CF9108952F9211
:102320003F924F925F926F927F928F929F92AF9265
:10233000BF92CF92DF92EF92FF920F931F93CF93B2
:10234000DF93CDB7DEB72F970FB6F894DEBF0FBE81
:10235000CDBF8C012A013B01FC018485882311F04B
:1023600014860CC09A01AB01F801608571858285E5
:1023700093850E942132882309F469C1F8014086BF
:10238000518662867386CE0101969C878B878AE090
:10239000EB85FC8511928A95E9F720E03CE34CE15E
:1023A00056E4C301B2010E94E83387FD04C089E00E
:1023B000F80184830EC020E030EC49E754ECC301FF
:1023C000B2010E942132181644F080E1F8018483A2
:1023D00089E0858386838783D3C020E030E0A9012C
:1023E000C301B2010E942132811107C080E4F801CB
:1023F0008483858386831782C3C020E030E0A901EF
:10240000C301B2010E94213287FF07C077FA70949E
:1024100077F87094F1E0FD8701C01D8620E030E080
:102420004AE754E4C301B2010E9425320E9492326D
:102430006983C301B2010E948D329B01CB0168EE1A
:1024400073E00E94D234E4E6F0E0BF010E94D2348F
:102450006A83C901BF010E94D2344AE0E42EF12C04
:10246000B7010E94D2346B83C901B7010E94D234F4
:102470005C018C8320E030E040E251E4C301B20112
:102480000E94F3330E948D32CB01B7010E94D234F7
:102490006C018D8320E030E048EC52E4C301B201CE
:1024A0000E94F3330E948D32CB01B7010E94D234D7
:1024B0004C018E8320E030E04AE754E4C301B201CE
:1024C0000E94F3330E948D32CB01B7010E94D234B7
:1024D0009F878E878F83212CE22CF12CE1E0F0E0A6
:1024E000EC0FFD1FEE0DFF1D3080311002C0239454
:1024F000F3CF20E030E040E85FE3C301B2010E9487
:10250000E83387FD10C0A32CFE01EE0DFF1DC28035
:10251000FE01EE0DFF1D8380FE01EE0DFF1D848187
:1025200024E0221907C0BB24DD2499248E859F85D1
:10253000992721E03D85313059F480E1F801848309
:10254000A582C6828782223051F02130C9F40DC0A5
:10255000F801A482C58286828783233021F4868194
:10256000806286830DC0223029F4F8018581806263
:10257000858306C0213021F4F80184818062848340
:10258000F801848185FF12C08581811148C0868150
:10259000811145C08781811142C0F80184818F700B
:1025A000878380E48483858386831EC0F8018581C8
:1025B00085FF0AC08681811143C08781811140C097
:1025C000F80185818F7035C0F801868185FF0CC0C8
:1025D0008781811109C086818F7087838581868379
:1025E0008481858380E48483C8012F960FB6F89494
:1025F000DEBF0FBECDBFDF91CF911F910F91FF9036
:10260000EF90DF90CF90BF90AF909F908F907F9092
:102610006F905F904F903F902F900C946A11F8014B
:10262000868181110DC0F8018781811109C0F801EF
:10263000858187838481868380E484838583D4CF66
:10264000F80187818111D0CFF8018681C6CF2F96FE
:102650000FB6F894DEBF0FBECDBFDF91CF911F91B3
:102660000F91FF90EF90DF90CF90BF90AF909F9031
:102670008F907F906F905F904F903F902F90089534
:10268000FC01608308952F923F924F925F926F9268
:102690007F928F929F92AF92BF92CF92DF92EF92F2
:1026A000FF920F931F93CF93DF93EC0169017A019F
:1026B0009B0140E050E060E472E48FE090E00E9413
:1026C00008358901590137FF03C08FEFA81AB80AEE
:1026D00015013594279461E088810E947A2CA8EE38
:1026E000B3E0A70196010E9427352B013C01C12CC4
:1026F000D12C76014801AA2497FCA094BA2CC414CA
:10270000D504E604F704A0F461E088810E94B32CAC
:10271000C1010E948F2B60E088810E94B32CC1010F
:102720000E948F2BA895C80CD91CEA1CFB1CE7CF74
:10273000DF91CF911F910F91FF90EF90DF90CF909D
:10274000BF90AF909F908F907F906F905F904F90D1
:102750003F902F900895F8940E9443137894089521
:102760000F931F93CF93DF931F92CDB7DEB78C01EA
:1027700069830E943224F80114866981C8010F9090
:10278000DF91CF911F910F910C9433240C9433243B
:10279000CF92DF92EF92FF920F931F93CF93DF932D
:1027A000CDB7DEB728970FB6F894DEBF0FBECDBF0A
:1027B0008C01CE0101967C0188E0F70111928A9587
:1027C000E9F7C8010E944D24811135C062E0C801BB
:1027D0000E94EA24C8010E947B246E01F9E0CF0E1A
:1027E000D11CC8010E944525F70181937F01EC159A
:1027F000FD05B9F78A8190E0982F88272981822BDF
:10280000F801958384838C8190E0982F88272B8111
:10281000822B978386838E8190E0982F88272D8145
:10282000822B91878087888590E0982F88272F8139
:10283000822B9387828728960FB6F894DEBF0FBE4F
:10284000CDBFDF91CF911F910F91FF90EF90DF905F
:10285000CF900895FC0124856681778121110CC0F9
:1028600080E090E00E94BE322DEC3CEC4CE050E465
:102870000E9425320E949232972F862F0895FC01E4
:1028800024856085718521110CC080E090E00E9454
:10289000BE322AE939E949E95FE30E9425320E9404
:1028A0009232972F862F0895CF93DF93EC010E94E9
:1028B0004D2481110AC064E0CE010E94EA2488EB15
:1028C0009BE00E948F2B81E08C87DF91CF91089550
:1028D0001F93CF93DF93EC01162F0E944D2481119B
:1028E00010C063E0CE010E94EA24CE010E944D2474
:1028F000811107C0612FCE01DF91CF911F910C9400
:10290000EA24DF91CF911F9108950F931F93CF93E6
:10291000DF931F92CDB7DEB78C0169830E94C81385
:102920006981623041F0633071F0F801613099F4EF
:102930008481958112C0C8010F90DF91CF911F91C2
:102940000F910C942A14C8010F90DF91CF911F9121
:102950000F910C943F14828593850F90DF91CF9156
:102960001F910F9108950F931F93CF93DF931F92A1
:10297000CDB7DEB78C0169830E943224F80115823D
:10298000148217821682118610866981C8010F9001
:10299000DF91CF911F910F910C9433240C94332429
:1029A0000F931F93CF93DF93EC010E944D2481116D
:1029B0002DC062E0CE010E94EA24CE010E947B2459
:1029C00000E010E0CE010E944525FE01E00FF11F5E
:1029D00082870F5F1F4F06301105A1F78A8590E0AF
:1029E000982F88272B85822B9D838C838C8590E064
:1029F000982F88272D85822B9F838E838E8590E04C
:102A0000982F88272F85822B99878887DF91CF91F0
:102A10001F910F9108950F931F93CF93DF931F92F0
:102A2000CDB7DEB78C0169830E94D014698166231B
:102A300031F0613041F4F8018681978107C0F801D7
:102A40008481958103C0F801808591850F90DF9185
:102A5000CF911F910F9108950F931F93CF93DF9301
:102A6000EC01062F10E0000F111F065F1E4F6330B0
:102A700050F0F8016081CE010E943324F801818179
:102A8000898718860CC061E0F80181810E947A2C48
:102A9000F80180818D8381818C8381E088878CE23D
:102AA00091E09F838E83DF91CF911F910F910895C5
:102AB0000F931F93CF93DF931F92CDB7DEB78C0197
:102AC00069830E943224F8011782168210861186CB
:102AD00012866981C8010F90DF91CF911F910F91EC
:102AE0000C942C15EF92FF920F931F93CF93DF93CB
:102AF00000D0CDB7DEB77C01FC018285811109C011
:102B000069837A830E94500181E0F70182877A818C
:102B100069818B016F3F710519F014F00FEF10E020
:102B20000130FFEF1F0714F401E01FEFF70186816A
:102B300097818017910709F4C8C0178306838085A1
:102B400017FD4EC0813079F58481873019F4848176
:102B500060E006C0F7018481883089F4848161E0F7
:102B60000E94B32CF7018581B8010F900F90DF917F
:102B7000CF911F910F91FF90EF900C94F22BF701E2
:102B80008481893029F0F7018481863009F09DC065
:102B9000848161E00E94B32CF70185816FEF70E0C2
:102BA000601B710BE2CFC7010E944D2462E0C70198
:102BB0000E94EA24C7010E944D24F7016185C701E4
:102BC0000E94EA24B801882777FD8095982F0E94FB
:102BD000C03223E333E343E250E40E94253264C071
:102BE0008130F1F5F7018481873061F4848161E0FF
:102BF0000E94B32CF701858166277727601B710B34
:102C00000E94F22BF7018481883061F4848160E0B6
:102C10000E94B32CF701858166277727601B710B13
:102C20000E94F22BF7018481893059F4858161E09B
:102C30000E94B32CF7018481B80161507F4F0E943C
:102C4000F22BF7018481863009F03FC0858161E075
:102C50000E94B32CF7018481B80161507F4F85CF6A
:102C6000C7010E944D2462E0C7010E94EA24C70107
:102C70000E944D24F7016185C7010E94EA24B80132
:102C8000882777FD8095982F0E94C03223E333E395
:102C900043E250E40E9425329B01AC0160E070E009
:102CA00088EC92E40E945A310E949232C7010E943D
:102CB000EA2484EF91E00F900F90DF91CF911F9164
:102CC0000F91FF90EF900C948F2B0F900F90DF914E
:102CD000CF911F910F91FF90EF9008950F931F9345
:102CE000CF93DF931F92CDB7DEB78C0169830E942B
:102CF00032246981C8010F90DF91CF911F910F910C
:102D00000C9433240C943324CF93DF93EC010E9472
:102D10004D24811113C062E0CE010E94EA24CE014D
:102D20000E947B24CE010E9445258C83CE010E9407
:102D300045258D83CE010E9445258E83DF91CF915D
:102D400008950F931F93CF93DF931F92CDB7DEB7F4
:102D50008C0169830E9484166981613029F0633097
:102D600031F4F801868105C0F801848102C0F801C0
:102D700085810F90DF91CF911F910F9108951F933F
:102D8000CF93DF93EC01162F0E94322440E050E0F5
:102D900063E872E44C835D836E837F8318861986B3
:102DA0001A861B861C861D861E861F86188A198A0F
:102DB0001A8A1B8A1C8A1D8A1E8A1F8A188E198EDF
:102DC0001A8E1B8E1C8E1D8E1E8E1F8E19A218A28F
:102DD0001BA21AA21DA21CA21EA21FA218A619A6FF
:102DE0001AA61BA61CA61DA61EA61FA618AA19AACF
:102DF000612FCE01DF91CF911F910C9433240C945D
:102E000033242F923F924F925F926F927F928F92D4
:102E10009F92AF92BF92CF92DF92EF92FF920F9369
:102E20001F93CF93DF93CDB7DEB768970FB6F894B3
:102E3000DEBF0FBECDBF1C010E94382B4B015C01D1
:102E4000C0906803D0906903E0906A03F0906B0330
:102E50000E94382B609368037093690380936A0320
:102E600090936B03C1010E944D24811114C262E052
:102E7000C1010E94EA24C1010E947B2400E010E00D
:102E8000C1010E944525F101E00FF11F82AB0F5FE8
:102E90001F4F0E301105A1F7C501B4016C197D0952
:102EA0008E099F090E94BE3220E030E04AE754E4D8
:102EB0000E9425326B017C01D101D2964C90D297B1
:102EC000512C542C4424D3968C91D397482A919614
:102ED0005C924E929097D4966C90D497712C762CED
:102EE0006624D5968C91D597682A93967C926E929B
:102EF0009297D6960C91D69710E0102F0027D79670
:102F00008C91D797082B95961C930E9394971496B3
:102F10008D909D90AD90BC901797DA966C91DA9752
:102F200070E0762F6627DB968C91682B882777FDDB
:102F30008095982F0E94C032F10126A137A140A5AB
:102F400051A50E945A31A50194010E9425326D833A
:102F50007E838F839887D10154966D937D938D9353
:102F60009C935797DC966C91DC9770E0762F6627E0
:102F7000DD968C91682B882777FD8095982F0E948D
:102F8000C032F10122A533A544A555A50E945A31AE
:102F9000A50194010E94253269877A878B879C87D7
:102FA000D10158966D937D938D939C935B97DE969C
:102FB0006C91DE9770E0762F6627DF968C91682BF8
:102FC000882777FD8095982F0E94C032F10126A5B1
:102FD00037A540A951A90E945A31A50194010E9428
:102FE00025326D877E878F87988BD1015C966D9394
:102FF0007D938D939C935F97B301882777FD809590
:10300000982F0E94C03269837A838B839C83B80196
:10301000882777FD8095982F0E94C0329B01AC01D4
:103020000E94F333698B7A8B8B8B9C8B29813A813D
:103030004B815C81CA01B9010E94F33329893A8925
:103040004B895C890E945B310E947A349B01AC0100
:10305000B201882777FD8095982F2D8B3E8B4F8B63
:10306000588F0E94C0324B015C012D893E894F89E7
:10307000588D0E94CE3120E030E044E353E40E94BA
:10308000F3332AED3FE049E450E40E9425322B015E
:103090003C01A5019401C501B4010E94F3332989C3
:1030A0003A894B895C890E945B310E947A349B018A
:1030B000AC0169817A818B819C810E94CE3120E0B4
:1030C00030E044E353E40E94F3332AED3FE049E467
:1030D00050E40E9425324B015C01A70196016985ED
:1030E0007A858B859C851016110624F50E94F33392
:1030F0009B01AC01F10160857185828593850E94F9
:103100005A31D10118966D937D938D939C931B97A3
:10311000A70196016D817E818F8198850E94F3338E
:103120009B01AC01F10164857585868597850E94B8
:103130005B3123C00E94F3339B01AC01F101608538
:103140007185828593850E945B31D10118966D93BC
:103150007D938D939C931B97A70196016D817E8132
:103160008F8198850E94F3339B01AC01F101648546
:103170007585868597850E945A31D1011C966D937D
:103180007D938D939C931F97A70196016D857E85F6
:103190008F8598890E94F333F10120893189428912
:1031A00053890E945B316B017C0120E030E044EBED
:1031B00053E40E9425320E94FB3220E030E044EBD1
:1031C00053E40E94F3339B01AC01C701B6010E9496
:1031D0005A316B017C0120E030E044E353E40E946B
:1031E000E833181644F0D1015096CD92DD92ED925D
:1031F000FC9253970DC020E030E044EB53E4C7014C
:10320000B6010E945A31F101608B718B828B938BD6
:1032100028E431EE4AE75FE3D1011C966D917D9180
:103220008D919C911F970E94F3336B017C012AE0E2
:1032300037ED43EA5CE3C501B4010E94F3339B011F
:10324000AC01C701B6010E945B31F101648775874B
:103250008687978728E431EE4AE75FE360857185CA
:10326000828593850E94F3336B017C012AE037ED60
:1032700043EA5CE3C301B2010E94F3339B01AC015A
:10328000C701B6010E945B31D10118966D937D9301
:103290008D939C931B9768960FB6F894DEBF0FBE74
:1032A000CDBFDF91CF911F910F91FF90EF90DF90F5
:1032B000CF90BF90AF909F908F907F906F905F90D6
:1032C0004F903F902F9008950F931F93CF93DF93CC
:1032D0001F92CDB7DEB78C0169830E940117698107
:1032E0006230E1F050F4662399F0613049F5F8015D
:1032F000648575858685978526C06430D9F0A0F0F1
:103300006530F1F4F801648D758D868D978D1BC045
:10331000F801608571858285938515C0F801608903
:103320007189828993890FC0F801648975898689BA
:10333000978909C0F801608D718D828D938D03C0CE
:1033400060E070E0CB010F90DF91CF911F910F9162
:1033500008950F931F93CF93DF931F92CDB7DEB7DE
:103360008C0169830E9432246981C8010F90DF912A
:10337000CF911F910F910C9433240C943324CF934D
:10338000DF93EC010E944D2481110FC062E0CE0159
:103390000E94EA24CE010E947B24CE010E94452592
:1033A0008C83CE010E9445258D83DF91CF910895B6
:1033B000CF93DF93EC0161110E94BF198C8190E0E3
:1033C000DF91CF910895CF93DF93EC0161110E94BB
:1033D000BF198D8190E0DF91CF9108951F920F92D8
:1033E0000FB60F9211240F931F932F933F934F9378
:1033F0005F936F937F938F939F93AF93BF93CF937D
:10340000EF93FF93809170030E94E92CC82F2091C5
:103410007703309178032F5F3F4F309378032093E9
:1034200077038091DD03843618F085E08093720382
:1034300090917203933079F018F4923039F070C0A3
:10344000943011F1953009F44AC06AC0C11168C0C6
:103450001092DD0329C0C13009F062C0E091DD03A4
:1034600081E08E0F8093DD03F0E0809177039091EF
:103470007803EF58FC4F80871092780310927703FF
:1034800084E0809372034CC0C11114C0E091DD034D
:1034900081E08E0F8093DD03F0E0809177039091BF
:1034A0007803EF58FC4F80871092780310927703CF
:1034B00083E0E7CF8091770390917803853691057B
:1034C00078F185E0809372030E94382B6093730338
:1034D00070937403809375039093760321C00E94C8
:1034E000382B009173031091740320917503309170
:1034F0007603601B710B820B930B693C7105810590
:10350000910540F01092DD0310927803109277033A
:1035100082E0B7CFC11104C01092780310927703F4
:10352000FF91EF91CF91BF91AF919F918F917F913B
:103530006F915F914F913F912F911F910F910F903C
:103540000FBE0F901F9018956093700380917003C9
:1035500060E00E947A2C809170038093710308953B
:1035600080917003861759F0609370038091700307
:1035700060E00E947A2C809170038093710308951B
:1035800021E0FC018285861320E0822F0895F894C3
:1035900082E08093B0008093B10094E69093B300F2
:1035A0001092B2008093700078941092DD038093A3
:1035B000720308951F93CF93DF93FC01A681B78117
:1035C0008C9186588D3558F480859185833091058E
:1035D000A1F411968C9111978152893118F080E0F5
:1035E00090E044C012968C9188508730C0F71582C5
:1035F00081E0808381E090E039C0833491057CF3E1
:1036000011968C91119783548F3248F782E090E0A5
:1036100040E050E0BA019D012F5F3F4FEC01CA0F1F
:10362000DB1FC881C850C730D0F6E901C80FD91FC9
:1036300018811751133180F4769567955795479502
:10364000706802968234910549F780E28583418350
:10365000528363837483CCCFC881C850C73008F0CD
:10366000BECF7695679557954795EBCFDF91CF9174
:103670001F9108950F931F93CF93DF93EC0189E778
:1036800093E09F838E838091DD0390E09987888704
:1036900080917203853081F4CE010E94DA1A8C0188
:1036A000CE010115110529F00E94C71A01E010E0B2
:1036B00005C00E94C71A02C000E010E0C801DF91F7
:1036C000CF911F910F910895CF92DF92EF92FF92C9
:1036D0000F931F93CF93DF93EC010E943A1B8C0151
:1036E000009769F00E94382B60936C0370936D0310
:1036F00080936E0390936F038B818A8714C00E941E
:10370000382BC0906C03D0906D03E0906E03F09066
:103710006F036C197D098E099F09693C710581054C
:10372000910508F01A86C801DF91CF911F910F9182
:10373000FF90EF90DF90CF9008950F931F93CF935A
:10374000DF931F92CDB7DEB78C0169830E943224CC
:10375000F80115821682178210861186128613864A
:103760006981C8010F90DF91CF911F910F910C9447
:1037700033240C943324CF93DF93EC010E944D2427
:10378000811111C062E0CE010E94EA24CE010E94A4
:103790007B24CE010E9445258C8388E293E20E941F
:1037A0008F2B8C8101C080E0DF91CF910895CF9362
:1037B000DF93EC010E944D24811123C063E0CE0110
:1037C0000E94EA24CE010E944D2481111AC06E810C
:1037D000CE010E94EA246F81CE010E94EA2468850E
:1037E000CE010E94EA246985CE010E94EA246A85FE
:1037F000CE010E94EA246B85CE01DF91CF910C941B
:10380000EA24DF91CF9108950F93FC0160FF03C07C
:1038100046832783008761FF03C041872287038790
:10382000637021F0CF010F910C94D71B0F91089575
:103830001F93CF93DF93EC01162F0E944D2481112B
:1038400011C064E0CE010E94EA24CE010E944D2402
:10385000811108C01D836D81CE01DF91CF911F9131
:103860000C94EA24DF91CF911F910895FC016581AA
:1038700061600C94181CFC0165816E7F0C94181C0F
:10388000FC01658162600C94181CFC0165816D7FF0
:103890000C94181C0F931F93CF93DF93EC01062F0A
:1038A000142F60FF07C0442319F00E94361C02C089
:1038B0000E943B1C01FF0FC0CE01112331F0DF91AC
:1038C000CF911F910F910C94401CDF91CF911F91CC
:1038D0000F910C94451CDF91CF911F910F9108958A
:1038E0000F931F93CF93DF931F92CDB7DEB78C0159
:1038F00069830E9432246981C8010F90DF91CF91C2
:103900001F910F910C9433240C943324CF93DF93A5
:10391000EC010E944D24811113C062E0CE010E948F
:10392000EA24CE010E947B24CE010E9445258C838F
:10393000CE010E9445258D83CE010E9445258E83B0
:10394000DF91CF9108950F931F93CF93DF931F9231
:10395000CDB7DEB78C0169830E94861C698166231E
:1039600029F0613031F4F801858105C0F8018481C6
:1039700002C0F80186810F90DF91CF911F910F91C6
:1039800008950F931F93CF93DF931F92CDB7DEB7A8
:103990008C0169830E9432246981C8010F90DF91F4
:1039A000CF911F910F910C9433240C943324CF9317
:1039B000DF93EC010E944D24811120C062E0CE0112
:1039C0000E94EA24CE010E947B24CE010E9445255C
:1039D000682F70E080E090E00E94C03220E030EC80
:1039E0004FE754E40E94F33320E030E04FE753E424
:1039F0000E9425320E949232CB0102C080E090E00A
:103A0000DF91CF9108950F931F93CF93DF931F9270
:103A1000CDB7DEB78C0169830E944D246981811185
:103A20000DC0662311F063E001C064E0C8010F908F
:103A3000DF91CF911F910F910C94EA240F90DF91A9
:103A4000CF911F910F9108950F931F93CF93DF9301
:103A500000D01F92CDB7DEB78C012B834A836983D8
:103A60000E943224F801349685E1DF011D928A9587
:103A7000E9F74A81F801418F2B81228F6981C801C2
:103A80000F900F900F90DF91CF911F910F910C9499
:103A9000332425E04EE00C94241D0C943324CF9362
:103AA000DF93EC01298D80E090E0821730F4FE0175
:103AB000E80FF91F14820196F8CFCE010E944D2421
:103AC00081110AC065E0CE010E94EA2488E893E1F2
:103AD000DF91CF910C948F2BDF91CF9108955F925E
:103AE0006F927F928F929F92AF92BF92CF92DF920E
:103AF000EF92FF920F931F93CF93DF93EC01542E1D
:103B00004901E98CF12C8A8DA62EBB24A7FCB09428
:103B1000222733272E193F092A153B0594F4AE14AA
:103B2000BF047CF490E0C42EDD24C7FCD09422278F
:103B30003327281B390B2C153D051CF4C816D90654
:103B400094F0CE01DF91CF911F910F91FF90EF90F4
:103B5000DF90CF90BF90AF909F908F907F906F90AD
:103B60005F900C944F1DCE010E944D2462E0CE0167
:103B70000E94EA24CE010E944D24002711270A1931
:103B80001B0937016A187B08AA24BB24AC18BD089E
:103B90000615170504F517FD17C00E151F05A4F42B
:103BA000F401E00FF11F608157FC06C00C2C01C02E
:103BB000660F0A94EAF709C070E00A2C02C07595F6
:103BC00067950A94E2F701C060E0CE010E94EA2402
:103BD0000F5F1F4FDDCFDF91CF911F910F91FF90AE
:103BE000EF90DF90CF90BF90AF909F908F907F909D
:103BF0006F905F9008950F931F93CF93DF93EC0125
:103C0000162F042F898D6817D0F4CE010E944D2401
:103C1000811115C063E0CE010E94EA24CE010E940A
:103C20004D2481110CC0612FCE010E94EA24602F27
:103C3000CE01DF91CF911F910F910C94EA24DF9177
:103C4000CF911F910F910895CF93DF93E62FF0E06E
:103C5000DC0159962C91599730E0E217F307C4F430
:103C6000242F30E05A96AC91B0E02A173B0784F439
:103C7000E80FF91F548121E030E001C0220F4A957E
:103C8000EAF7522B54834481DF91CF910C94FB1DB2
:103C9000DF91CF910895CF93DF93E62FF0E0DC0121
:103CA00059962C91599730E0E217F307CCF4242F62
:103CB00030E05A96AC91B0E02A173B078CF4E80F3D
:103CC000F91F548121E030E001C0220F4A95EAF744
:103CD0002095252324834481DF91CF910C94FB1DF3
:103CE000DF91CF910895FF920F931F93CF93DF93AE
:103CF000EC01F62E042F122F0E944D2481111EC0BC
:103D000067E0CE010E94EA24CE010E944D24811179
:103D100015C06F2DCE010E94EA24602FCE010E94B3
:103D2000EA24612FCE010E94EA2488EB9BE0DF9118
:103D3000CF911F910F91FF900C948F2BDF91CF911A
:103D40001F910F91FF900895AF92BF92CF92DF9293
:103D5000EF92FF920F931F93CF93DF93EC01B62E58
:103D6000A42E790100E010E0C62EDD24C7FCD0941B
:103D7000C8018C0D9D1D8B3F2FEF92071CF1298DE3
:103D800030E08217930724F5F701208121110EC03E
:103D90008C01898D90E008171907D4F440E0602F5A
:103DA000CE010E94FB1D0F5F1F4FF3CF21526B2DE1
:103DB000600F2E3518F023E040E001C04A2DCE01FF
:103DC0000E94731E0A5F1F4FFFEFEF1AFF0AD0CF4A
:103DD0001FEF1B0D1B143CF440E0612FCE010E942D
:103DE000FB1DB12EF5CFDF91CF911F910F91FF9069
:103DF000EF90DF90CF90BF90AF900895EF92FF9239
:103E00000F931F93CF93DF93EC01862FF42E022F95
:103E10001AE0612F0E94C634E92E2FE0280F40E0FF
:103E20006FEFCE010E94731E2FE02E0D40E064E084
:103E3000CE010E94731E8F2D612F0E94C634192F50
:103E40002FE0280F40E06BE0CE010E94731E2FE0B0
:103E5000210F40E060E1CE010E94731E002311F0AB
:103E600044E101C040E06AE0CE01DF91CF911F91B3
:103E70000F91FF90EF900C94FB1D2F923F924F9269
:103E80005F926F927F928F929F92AF92BF92CF92EA
:103E9000DF92EF92FF920F931F93CF93DF93CDB7F3
:103EA000DEB72D970FB6F894DEBF0FBECDBF8C01E5
:103EB0002A013B01CE0101969C878B878AE0EB8526
:103EC000FC8511928A95E9F720E030EC49E754E44B
:103ED000C301B2010E94E83387FD04C028E140E03D
:103EE0006FEF0DC020E030E046EC52ECC301B201B0
:103EF0000E942132181654F12CE040E060E0C80125
:103F00000E94731E28E140E064E0C8010E94731E15
:103F100028E140E069E0C8012D960FB6F894DEBFB5
:103F20000FBECDBFDF91CF911F910F91FF90EF900A
:103F3000DF90CF90BF90AF909F908F907F906F90C9
:103F40005F904F903F902F900C94731E20E030E0D4
:103F5000A901C301B2010E94213281110EC023E0E8
:103F600040E060E0C8010E94731E23E040E064E08E
:103F7000C8010E94731E2FE0CCCF20E030E0A901E1
:103F8000C301B2010E94213287FF07C077FA709403
:103F900077F87094F1E0FD8701C01D8620E030E0E5
:103FA0004AE754E4C301B2010E9425320E949232D2
:103FB0006983C301B2010E948D329B01CB0168EE7F
:103FC00073E00E94D234E4E6F0E0BF010E94D234F4
:103FD0006A83C901BF010E94D234EAE0EE2EF12CBF
:103FE000B7010E94D2346B83C901B7010E94D23459
:103FF0006C018C8320E030E040E251E4C301B20167
:104000000E94F3330E948D32CB01B7010E94D2345B
:104010004C018D8320E030E048EC52E4C301B20152
:104020000E94F3330E948D32CB01B7010E94D2343B
:104030001C018E8320E030E04AE754E4C301B20162
:104040000E94F3330E948D32CB01B7010E94D2341B
:104050008F8380E0A82EB12CE1E0F0E0EC0FFD1F93
:10406000EA0DFB1DF080F11002C08F5FF3CF20E05E
:1040700030E040E85FE3C301B2010E94E83387FD0E
:104080000DC0CF2CD12CFE01EA0DFB1DE280F12CDE
:10409000FE01EA0DFB1DA380B12C05C0DD247401D7
:1040A000FF245101BB248D85813009F071C120E0CE
:1040B00030E040E251E4C301B2010E94E83387FDE1
:1040C00016C02CE040E06FEFC8010E94731E2FE085
:1040D0002C0D40E064E0C8010E94731E2FE02E0DFD
:1040E00040E0CA94CD2809F015CF68E014CF20E055
:1040F00030E040E85FE3C301B2010E94E83387FD8E
:10410000FDC1E114F10409F046C0AB2809F043C039
:1041100023E040E060E0C8010E94731EC6018B7F6F
:10412000039799F42FE02C0D40E068E0C8010E944D
:10413000731E44E066E0C8010E94FB1D44E067E096
:10414000C8010E94FB1D44E021C1E4E0CE16D10469
:1041500099F423E140E068E0C8010E94731E44E046
:1041600065E0C8010E94FB1D44E066E0C8010E94B2
:10417000FB1D44E067E0A7C123E040E060E0C80128
:104180000E94731E2CE040E065E0C8010E94731E8F
:104190002FE02C0DBECEF1E0CF16D10409F047C0C0
:1041A000C70101972CE040E0029790F183E0E81608
:1041B000F10461F460E0C8010E94731E20E140E058
:1041C00064E0C8010E94731E22E12EC194E0E9164A
:1041D000F10471F46FEFC8010E94731E20E140E00A
:1041E00063E0C8010E94731E23E140E068E0CAC09A
:1041F000E7E0EE16F10461F460E0C8010E94731E6E
:1042000020E140E064E0C8010E94731E26E10CC179
:104210006FEFC8010E94731E20E140E063E0C80117
:104220000E94731E2FE02E0D40E069E0ABC0F2E06B
:10423000CF16D10409F044C02CE040E06FEF82E0DB
:10424000E816F10421F0C7010497029700F5C801B0
:104250000E94731E21E140E063E0C8010E94731ECA
:104260002FE02E0D40E092E0E916F10421F0E5E0A8
:10427000EE16F10411F469E001C068E0C8010E9483
:10428000731E42E067E0C8010E94FB1D7EC0C801AA
:10429000F1E0EF16F10449F40E94731E21E140E0C1
:1042A00063E0C8010E94731EB9C00E94731E21E121
:1042B00040E063E0C8010E94731E2FE02E0DB4C0E1
:1042C00083E0C816D10459F57FE0D72EDE0CC70174
:1042D000039722E140E062E0029720F097E0E916C0
:1042E000F10439F4C8010E94731E2D2D40E068E0EE
:1042F00006C0C8010E94731E2D2D40E069E0C80170
:104300000E94731E44E060E0C8010E94FB1D44E06F
:1043100061E0C8010E94FB1D44E062E0B4CFEFE021
:10432000CE0EE114F10411F42C2DF3CD2CE040E07D
:104330006FEFC8010E94731E2C2D40E063E0C8019E
:104340000E94731E6FE0D62EDE0CC7018D7F2D2DCF
:1043500040E0019711F46AE001C069E0C8010E94E1
:10436000731E40E169E0C8010E94FB1D2D2D40E055
:1043700069E0F2E0EF16F10429F085E0E816F104B7
:1043800009F054C0C8010E94731E40E168E09BC060
:1043900020E030E048EC52E4C301B2010E94E8336F
:1043A00087FD19C091E0C916D10421F420E140E055
:1043B00060E004C02FE02C0D40E06FEFC8010E94C8
:1043C000731E2FE02E0D40E064E0C8010E94731EB2
:1043D0002FE02A0D9ECD20E030E040E251E4C30101
:1043E000B2010E94E8335FE0952E9C0C87FD24C04B
:1043F000292D40E06FEFC8010E94731E2FE02E0DA3
:1044000040E0CA94CD2811F463E001C064E0C80123
:104410000E94731EF1E0AF16B10421F420E140E0E8
:104420006AE004C02FE02A0D40E069E0C8010E9464
:10443000731E40E169E047C020E030E040E85FE300
:10444000C301B2010E94E833292D40E06FEF87FDE0
:1044500017C0C8010E94731E81E0E816F10421F420
:1044600020E140E065E004C02FE02E0D40E064E074
:10447000C8010E94731E91E0A916B104D9F416C0B8
:10448000C8010E94731EE1E0EE16F10421F420E160
:1044900040E065E004C02FE02E0D40E064E0C8017C
:1044A0000E94731EF1E0AF16B10421F420E140E058
:1044B0006AE004C02FE02A0D40E069E0C8010E94D4
:1044C000731E40E164E0C8012D960FB6F894DEBF7C
:1044D0000FBECDBFDF91CF911F910F91FF90EF9055
:1044E000DF90CF90BF90AF909F908F907F906F9014
:1044F0005F904F903F902F900C94FB1D2D960FB620
:10450000F894DEBF0FBECDBFDF91CF911F910F9109
:10451000FF90EF90DF90CF90BF90AF909F908F90E3
:104520007F906F905F904F903F902F900895FC0187
:10453000862F608360E00C947A2C0C949722FC0107
:1045400080810E94E92C21E0892B09F420E0822F50
:1045500008950F931F93CF93DF931F92CDB7DEB7CC
:104560008C0169830E9432246981C8010F90DF9118
:10457000CF911F910F910C9433240C943324CF933B
:10458000DF93EC010E944D2481110FC062E0CE0147
:104590000E94EA24CE010E947B24CE010E94452580
:1045A0008C83CE010E9445258D83DF91CF910895A4
:1045B000FC01648170E080E090E00E94C03220E065
:1045C00030E04FE753E40E9425329B01AC0160E0EC
:1045D00070E080E89FE30E945A3120E030EC4FE722
:1045E00054E40E94F3330E949232CB010895FC01FF
:1045F000658170E080E090E00E94C03220E030E011
:104600004FE753E40E9425329B01AC0160E070E06B
:1046100080E89FE30E945A3120E030EC4FE754E4F9
:104620000E94F3330E949232CB0108950F931F939F
:10463000CF93DF931F92CDB7DEB78C0169830E94C1
:10464000BF226981C801623039F40F90DF91CF91A8
:104650001F910F910C94F7220F90DF91CF911F9132
:104660000F910C94D8220F931F93CF93DF931F9237
:10467000CDB7DEB78C0169830E9432246981C801FD
:104680000F90DF91CF911F910F910C9433240C94D4
:1046900033240F931F93CF93DF93EC01162F072F33
:1046A0000E944D2481111BC062E0CE010E94EA24C9
:1046B000CE010E944D24811112C0602FCE010E94B4
:1046C000EA24612FCE010E94EA246CE370E080E0CE
:1046D00090E0DF91CF911F910F910C94672BDF91A8
:1046E000CF911F910F9108951F93CF93DF93EC010A
:1046F000162F0E944D24811119C063E0CE010E9443
:10470000EA24CE010E944D24811110C0612F17317F
:1047100008F066E1CE010E94EA246CE370E080E0DC
:1047200090E0DF91CF911F910C94672BDF91CF9197
:104730001F910895CF93DF93EC010E944D248111C6
:104740000CC064E0CE010E94EA246CE370E080E0DB
:1047500090E0DF91CF910C94672BDF91CF9108957A
:10476000CF93DF93EC010E944D2481110CC065E0D2
:10477000CE010E94EA246CE370E080E090E0DF91DB
:10478000CF910C94672BDF91CF910895CF93DF9356
:10479000EC010E944D2481110CC066E0CE010E9404
:1047A000EA246CE370E080E090E0DF91CF910C941C
:1047B000672BDF91CF9108951F93CF93DF93EC0187
:1047C000162F623011F06430D9F4CE010E944D24CE
:1047D000811116C067E0CE010E94EA24CE010E943A
:1047E0004D2481110DC0612FCE010E94EA2462ED9B
:1047F00070E080E090E0DF91CF911F910C94672BE7
:10480000DF91CF911F910895CF93DF93EC010E9428
:104810004D2481110DC068E0CE010E94EA24CE0132
:104820000E947B24CE010E9445258C838C8101C08F
:1048300082E0DF91CF910895CF93DF93EC010E9446
:104840004D2481110CC069E0CE010E94EA246CE382
:1048500070E080E090E0DF91CF910C94672BDF91C6
:10486000CF9108950895DC016C9370E0FB01E6554B
:10487000FF4FE4911196EC931197FB01E254FF4F27
:10488000E491F0E0EE0FFF1FEE52FF4F85919491FF
:1048900013969C938E9312970895FF920F931F93F4
:1048A000CF93DF938C01FC01F180C281D381898198
:1048B0008F2989839A818F2D809589238A8380EE21
:1048C00091E00E948F2B60E0F80180810E947A2C99
:1048D00082E390E00E948F2BC88184E690E00E94E2
:1048E0008F2BFC2281E009F480E0DF91CF911F91B2
:1048F0000F91FF900895AF92BF92CF92DF92EF9207
:10490000FF920F931F93CF93DF938C01FC01B18033
:10491000C281D3810E94382B6B017C018981AB2C31
:10492000A0948A2189838A818B298A8388818B211B
:1049300069F00E94382B6C197D098E099F09653634
:1049400071058105910590F381E013C088818B2169
:10495000E9F389818B2989838A818A218A838EE17F
:1049600090E00E948F2B60E0F80180810E947A2CF9
:1049700080E0DF91CF911F910F91FF90EF90DF903A
:10498000CF90BF90AF9008951F93CF93DF93EC012A
:10499000162FF89460E088810E94B32C61E0888132
:1049A0000E947A2C85E090E00E948F2B612F8881F5
:1049B0000E94B32C78948EE190E00E948F2B61E0EE
:1049C00088810E94B32C85E090E0DF91CF911F9108
:1049D0000C948F2BEF92FF920F931F93CF93DF9343
:1049E0008C01C0E0D0E0E62EF12CB7010C2E02C005
:1049F000759567950A94E2F76170C8010E94C42416
:104A00002196C830D10589F760E0F8018081DF91F7
:104A1000CF911F910F91FF90EF900C947A2CCF9231
:104A2000DF92EF92FF921F93CF93DF93FC011181EE
:104A3000C281D3810E94382B6B017C018881812344
:104A400081F4F8948EE190E00E948F2BC8817894D5
:104A500088E290E00E948F2B1C2381E071F480E0BB
:104A60000CC00E94382B6C197D098E099F09643097
:104A700071058105910528F7E1CFDF91CF911F9155
:104A8000FF90EF90DF90CF900895FF920F931F93C8
:104A9000CF93DF938C0160E0FC0180810E947A2C2F
:104AA000C0E0D0E0F12CC8010E940F250C2E01C0FF
:104AB000880F0A94EAF78F29F82E2196C830D1057D
:104AC00091F7DF91CF911F910F91FF9008950F9370
:104AD0001F93CF93DF931F92CDB7DEB78C0169830D
:104AE0000E9432246981C8010F90DF91CF911F91FC
:104AF0000F910C9433240C943324CF93DF93EC0167
:104B00000E944D2481110DC062E0CE010E94EA2472
:104B1000CE010E947B24CE010E9445258C838C818E
:104B200001C080E0DF91CF9108950F931F93CF9341
:104B3000DF931F92CDB7DEB78C0169830E943224C8
:104B40006981C8010F90DF91CF911F910F910C9453
:104B500033240C943324CF93DF93EC010E944D2433
:104B600081110DC062E0CE010E94EA24CE010E94B4
:104B70007B24CE010E9445258C838C8101C080E07E
:104B8000DF91CF9108950F931F93CF93DF931F92DF
:104B9000CDB7DEB78C0169830E9432246981C801D8
:104BA0000F90DF91CF911F910F910C9433240C94AF
:104BB00033241F93CF93DF93EC01162F0E944D24D3
:104BC00081110EC062E0CE010E94EA24CE010E9453
:104BD0004D24612FCE01DF91CF911F910C94EA24D7
:104BE000DF91CF911F910895EF92FF920F931F9342
:104BF000CF93DF931F92CDB7DEB77C01DC01129615
:104C00008D919C911397062F10E0009749F02D91FC
:104C10003C912017310779F169830E94F33569814E
:104C2000F70111830083F3E06F9FC00111240E94FC
:104C30005B35D70113969C938E931297892B21F4A1
:104C400082E691E00E94B43680E090E0F701408176
:104C500051819A01220F331F240F351F82179307AA
:104C600050F4D7011296ED91FC911397E80FF91FBC
:104C700010820196EBCF0F90DF91CF911F910F9192
:104C8000FF90EF900895CF93DF93EC01862F262FAE
:104C900030E0F901E655FF4FE491EE83F901E2546B
:104CA000FF4FE491F0E0EE0FFF1FE452FF4F25911C
:104CB00034913D832C8361E00E947A2C60E2CE0126
:104CC000DF91CF910C94F425CF93DF93EC01862FE5
:104CD000262F30E0F901E655FF4FE491EE83F9010C
:104CE000E254FF4FE491F0E0EE0FFF1FE452FF4F5C
:104CF000259134913D832C8361E00E947A2C60E2FF
:104D0000CE01DF91CF910C94F4250F93FC01A62FD7
:104D1000B0E080819181A817B907B8F4862F880F79
:104D2000860F90E0A281B381A80FB91F2C93A281B6
:104D3000B381A80FB91F11964C930280F381E02D27
:104D4000E80FF91F028381E001C080E00F91089510
:104D5000CF92DF92EF92FF920F931F93CF93DF9347
:104D60007C01142FD22EC02E611113C0C0E0D0E000
:104D7000F70180819181C817D90748F40C2D2D2D9A
:104D8000412F6C2FC7010E9485262196F1CF81E02B
:104D900004C061500E94852680E0DF91CF911F9171
:104DA0000F91FF90EF90DF90CF900895CF93CFB702
:104DB000F894D901EC91542F50955E234E2BFC01B1
:104DC000680F791FE617F70789F08191D90198E0FC
:104DD0004C9300C087FF5C93880F00C000C000C0E8
:104DE00008F45C9300C09A9599F7ECCFCFBFCF91B0
:104DF0000895FC012481358180819181BC01660F79
:104E0000771F680F791F4681828193810E94D62681
:104E100061E070E080E090E00C94672BCF93DF932B
:104E2000EC018A819B810E94F3351B821A82DF91FB
:104E3000CF9108950F931F93CF93DF931F92CDB718
:104E4000DEB78C0169830E943224F80134968FE02A
:104E5000DF011D928A95E9F76981C8010F90DF9102
:104E6000CF911F910F910C9433240C9433240F9302
:104E7000611116C060E070E0FC01E60FF71F2483AB
:104E8000FB013196E80FF91F4483FB013296E80FCE
:104E9000F91F04836D5F7F4F6F30710569F718C08C
:104EA0006630B0F470E061507109E62FEE0FE60F46
:104EB000F0E0DC01AE0FBF1F14962C93DF011196BA
:104EC000A80FB91F14964C933296E80FF91F04836C
:104ED0000F9108950F931F93CF93DF93EC010E94DE
:104EE0004D24811117C062E0CE010E94EA24CE0158
:104EF0000E944D2481110EC000E010E0FE01E00F81
:104F0000F11F6481CE010E94EA240F5F1F4F0F3012
:104F10001105A1F7DF91CF911F910F910895FC0129
:104F200060830895FC01608308950F931F93CF93CE
:104F3000DF931F92CDB7DEB78C01862FF801608317
:104F400061E049830E947A2C4981F80141830F90E6
:104F5000DF91CF911F910F9108950F931F93CF93DE
:104F6000DF931F92CDB7DEB78C01862FF8016083E7
:104F700061E049830E947A2C4981F80141830F90B6
:104F8000DF91CF911F910F9108958F929F92AF92D1
:104F9000BF92CF92DF92EF92FF920F931F93CF9326
:104FA000DF938C01653B08F064EB8AE0689F400169
:104FB0001124E8EA8E1AEDEF9E0AC62FD0E0E296A1
:104FC00083E0CC0FDD1F8A95E1F792E3C92ED12C47
:104FD00020E2A22E2EE4B22EF8018181811102C0BE
:104FE000740101C07E0161E0F80180810E94B32C50
:104FF000C7010E948F2B60E0F80180810E94B32CD2
:10500000C5018E199F090E948F2BF1E0CF1AD1089C
:1050100019F764E670E080E090E0DF91CF911F9196
:105020000F91FF90EF90DF90CF90BF90AF909F9047
:105030008F900C94672B0C948F27FC0180810E9429
:10504000D52B2FEF33E0A901481B590BCA01089556
:105050000F931F93CF93DF931F92CDB7DEB78C01D1
:1050600069830E94C00E6981F8016687C8010F90AC
:10507000DF91CF911F910F910C94C10E0C94C10E32
:10508000CF92DF92EF92FF920F931F93CF93DF9314
:10509000CDB7DEB72C970FB6F894DEBF0FBECDBFED
:1050A0008C010E94F30EC8010E94FF0F40E064E4EF
:1050B000C8010E94990F0E94382B6B017C01C80126
:1050C0000E94D70E81110BC00E94382B6C197D09EC
:1050D0008E099F096E3E72408105910580F3C801DB
:1050E0000E94F30EC8010E94FF0F40E06EEBC80162
:1050F0000E94990FCE0101967C016E0196E0C90EC7
:10510000D11CC8010E94E30FF70181937F01EC15C8
:10511000FD05B9F76A8170E0762F66278981682BD3
:10512000882777FD8095982F0E94C03220E030E0DC
:1051300040E85DE30E94F3332C960FB6F894DEBF8F
:105140000FBECDBFDF91CF911F910F91FF90EF90D8
:10515000DF90CF9008950F931F93CF93DF931F920B
:10516000CDB7DEB78C0169830E9432246981C80102
:105170000F90DF91CF911F910F910C9433240C94D9
:105180003324CF93DF93EC010E944D2481110DC095
:1051900062E0CE010E94EA24CE010E947B24CE016F
:1051A0000E9445258C838C8101C080E0DF91CF91E6
:1051B0000895CF93DF931F92CDB7DEB769830E9426
:1051C000C128982F6981613019F0623029F008C038
:1051D00081E0923041F408C081E0913021F404C0B4
:1051E00081E0911101C080E00F90DF91CF9108958F
:1051F0000F931F93CF93DF931F92CDB7DEB78C0130
:1052000069830E9432246981C8010F90DF91CF9198
:105210001F910F910C9433240C943324CF93DF937C
:10522000EC010E944D2481110DC062E0CE010E946C
:10523000EA24CE010E947B24CE010E9445258C8366
:105240008C8101C080E0DF91CF910895CF93DF93EF
:10525000EC010E944D2481110FC064E0CE010E9438
:10526000EA24CE010E944D24811106C06C85CE0136
:10527000DF91CF910C94EA24DF91CF9108950F93A1
:105280001F93CF93DF931F92CDB7DEB78C01698355
:105290000E943224F8011682178210861186128627
:1052A000138614866981C8010F90DF91CF911F91F9
:1052B0000F910C9433240C943324CF92DF92EF920D
:1052C000FF92CF93DF93EC010E944D24882339F0A5
:1052D000C12CD12C8AEFE82E83E4F82E27C062E09F
:1052E000CE010E94EA24CE010E947B24CE010E94BE
:1052F00045258C83CE010E9445258D838D816C814F
:1053000070E0782B80E090E00E94BE322CE53FE810
:105310004CE851E40E9425326B017C0120E030E032
:105320004AEF53E40E94E833181694F2C701B6011D
:10533000DF91CF91FF90EF90DF90CF900895CF93C2
:10534000DF93EC010E944D24811123C063E0CE0164
:105350000E94EA24CE010E944D2481111AC06E8160
:10536000CE010E94EA246F81CE010E94EA24688562
:10537000CE010E94EA246985CE010E94EA246A8552
:10538000CE010E94EA246B85CE01DF91CF910C946F
:10539000EA24DF91CF910895FC016683478320873B
:1053A0000C949F29FC016187428723870C949F29D5
:1053B0000F93FC0160FF03C046832783008761FFD2
:1053C00003C0418722870387637021F0CF010F91CB
:1053D0000C949F290F910895637061F0FC0124855E
:1053E000442319F0262B248703C060956223648729
:1053F0000C94262908950F931F93CF93DF931F9248
:10540000CDB7DEB78C0169830E9432246981C8015F
:105410000F90DF91CF911F910F910C9433240C9436
:1054200033240F931F93CF93DF931F92CDB7DEB733
:105430008C0169830E944D24698181110DC066230E
:1054400011F062E001C063E0C8010F90DF91CF91DD
:105450001F910F910C94EA240F90DF91CF911F912F
:105460000F9108951F920F920FB60F9211242F9350
:105470003F934F935F936F937F938F939F93AF93DC
:10548000BF93EF93FF938091DF0387FF05C01092D6
:105490008500109284001AC02091DF03332727FD76
:1054A00030958091DE0390E0281739077CF48091D5
:1054B000DF03992787FD9095FC01EE0FFF1FE80F92
:1054C000F91FE052FC4F808187FD15C08091DF03FA
:1054D0008F5F8093DF032091DF03332727FD309513
:1054E0008091DE0390E028173907BCF48091DF0338
:1054F0008C305CF112C08091DF03992787FD909575
:10550000FC01EE0FFF1FE80FF91FE052FC4F8081F6
:1055100060E08F770E94B32CD9CF80918400909166
:105520008500049680349C4918F480E49CE905C009
:1055300080918400909185000496909389008093D7
:1055400088008FEF8093DF0338C020918400309172
:1055500085008091DF03992787FD9095FC01EE0F70
:10556000FF1FE80FF91FE052FC4F81819281820FEB
:10557000931F90938900809388008091DF0399277F
:1055800087FD9095FC01EE0FFF1FE80FF91FE05219
:10559000FC4F808187FF11C08091DF03992787FD31
:1055A0009095FC01EE0FFF1FE80FF91FE052FC4F32
:1055B000808161E08F770E94B32CFF91EF91BF91C2
:1055C000AF919F918F917F916F915F914F913F919B
:1055D0002F910F900FBE0F901F9018951F920F9252
:1055E0000FB60F9211242F933F938F939F93AF93F6
:1055F000BF938091050490910604A0910704B09197
:1056000008043091040423E0230F2D3720F4019681
:10561000A11DB11D05C026E8230F0296A11DB11DD5
:10562000209304048093050490930604A093070438
:10563000B09308048091090490910A04A0910B048E
:10564000B0910C040196A11DB11D809309049093A3
:105650000A04A0930B04B0930C04BF91AF919F91E7
:105660008F913F912F910F900FBE0F901F90189523
:105670002FB7F89460910504709106048091070497
:10568000909108042FBF08953FB7F89480910904C2
:1056900090910A04A0910B04B0910C0426B5A89B2C
:1056A00005C02F3F19F00196A11DB11D3FBF662710
:1056B000782F892F9A2F620F711D811D911D42E055
:1056C000660F771F881F991F4A95D1F70895CF92CB
:1056D000DF92EF92FF92CF93DF936B017C010E94E8
:1056E000442BEB01C114D104E104F10489F00E94C0
:1056F00059310E94442B6C1B7D0B683E734090F324
:1057000081E0C81AD108E108F108C851DC4FEACF9E
:10571000DF91CF91FF90EF90DF90CF90089582308E
:10572000910538F0880F991F880F991F05970197E9
:10573000F1F70895789484B5826084BD84B5816062
:1057400084BD85B5826085BD85B5816085BDEEE689
:10575000F0E0808181608083E1E8F0E01082808168
:1057600082608083808181608083E0E8F0E08081D6
:1057700081608083E1EBF0E0808184608083E0EBF6
:10578000F0E0808181608083EAE7F0E080818460DE
:10579000808380818260808380818160808380813A
:1057A000806880831092C10008958E3008F08E507A
:1057B00087702091220190E4299F90011124822B6F
:1057C00080937C0080917A00806480937A0080913D
:1057D0007A0086FDFCCF809178002091790090E0DE
:1057E000922B08951F93CF93DF93182FEB0161E065
:1057F0000E947A2C209711F460E004C0CF3FD105BD
:1058000039F461E0812FDF91CF911F910C94B32C7B
:10581000E12FF0E0EA56FF4FE491E330F9F048F46D
:10582000E130B9F0E230A1F584B5806284BDC8BD35
:1058300034C0E730E9F0E83019F1E43049F58091FF
:105840008000806280938000D0938B00C0938A0098
:1058500024C084B5806884BDC7BD1FC0809180000E
:10586000806880938000D0938900C093880015C021
:105870008091B00080688093B000C093B3000DC0E9
:105880008091B00080628093B000C093B40005C0E6
:10589000C038D1050CF0B5CFAFCFDF91CF911F91BC
:1058A0000895833081F028F4813099F08230A1F09E
:1058B00008958730A9F08830B9F08430D1F4809110
:1058C00080008F7D03C0809180008F77809380005F
:1058D000089584B58F7702C084B58F7D84BD089507
:1058E0008091B0008F7703C08091B0008F7D80934E
:1058F000B0000895CF93DF9390E0FC01E655FF4F91
:105900002491FC01E254FF4F8491882349F190E0F7
:10591000880F991FFC01EA51FF4FA591B491845261
:105920009F4FFC01C591D4919FB7611108C0F894B5
:105930008C91209582238C93888182230AC06230C7
:1059400051F4F8948C91322F309583238C93888175
:10595000822B888304C0F8948C91822B8C939FBFF8
:10596000DF91CF9108950F931F93CF93DF931F92F1
:10597000CDB7DEB7282F30E0F901EA56FF4F84910A
:10598000F901E655FF4F1491F901E254FF4F0491DC
:105990000023C9F0882321F069830E94512C69817A
:1059A000E02FF0E0EE0FFF1FE452FF4FA591B491FE
:1059B0009FB7F8948C91611103C01095812301C0A9
:1059C000812B8C939FBF0F90DF91CF911F910F91EF
:1059D0000895CF93DF93282F30E0F901EA56FF4F67
:1059E0008491F901E655FF4FD491F901E254FF4F3C
:1059F000C491CC2391F081110E94512CEC2FF0E046
:105A0000EE0FFF1FEE52FF4FA591B4912C912D2365
:105A100081E090E021F480E002C080E090E0DF913E
:105A2000CF910895FC01818D228D90E0805C9F4F85
:105A3000821B91098F7399270895FC01918D828DA6
:105A4000981731F0828DE80FF11D858D90E0089553
:105A50008FEF9FEF0895FC01918D828D981761F073
:105A6000828DDF01A80FB11D5D968C91928D9F5F95
:105A70009F73928F90E008958FEF9FEF08958FEAC4
:105A80009EE2892B49F080E090E0892B29F00E946A
:105A9000AF2E81110C9400000895FC01848DDF016C
:105AA000A80FB11DA35ABF4F2C91848D90E0019691
:105AB0008F739927848FA689B7892C93A089B18980
:105AC0008C9180648C93938D848D981306C002888A
:105AD000F389E02D80818F7D80830895CF93DF93BC
