:100000000C949F000C94C7000C94C7000C94C7007C
:100010000C94C7000C94C7000C94C7000C947E1974
:100020000C94C7000C94C7000C94C7000C947A2A57
:100030000C94C7000C94C7000C94C7000C94C70024
:100040000C946E2C0C94C7000C94D72F0C94093090
:100050000C94C7000C94C7000C94C7000C94C70004
:100060000C94C7000C94C700084AD73B3BCE016EE6
:1000700084BCBFFDC12F3D6C74319ABD56833DDAFF
:100080003D00C77F11BED9E4BB4C3E916BAAAABE0E
:10009000000000803F000000000800020100000393
:1000A0000407000000000000000001020408102006
:1000B00040800102040810200102040810200404FA
:1000C0000404040404040202020202020303030300
:1000D00003030000000023002600290000000000A8
:1000E000250028002B0000000000240027002A0023
:1000F0006364696E6F70737578585B004E414E494A
:100100004E495459494E46CDCCCC3D0AD7233C17D5
:10011000B7D13877CC2B329595E6241FB14F0A0022
:100120000020410000C84200401C4620BCBE4CCA12
:100130001B0E5AAEC59D7400EF0D3930930E11247D
:100140001FBECFEFD8E0DEBFCDBF11E0A0E0B1E031
:10015000E4E1FBE702C005900D92AC39B107D9F795
:1001600024E0ACE9B1E001C01D92A53BB207E1F784
:1001700011E0CCE3D1E004C02297FE010E94FF36DB
:10018000C833D107C9F70E947D300C947D3D0C9493
:10019000000061E088E193E00E94BC1460E070E040
:1001A00088E193E00E94021562E088E193E00E94FA
:1001B000BC1460E070E088E193E00C9402154AE022
:1001C00050E062E070E08CE094E00C948A3181E0D1
:1001D000809380008BE0809381000895CF93DF931C
:1001E000EEE1F2E0C0E0D0E04191242F30E02817AA
:1001F0003907C9F0411110C0FE01E25EFD4F808356
:100200009E01220F331F2C0F3D1FBC01C9018E5DC3
:100210009D4F0E94D02B07C02196C430D10521F7F5
:1002200080E090E001C0CE01DF91CF910895EF9280
:10023000FF920F931F93CF93DF93EB01FC0160813B
:10024000613401F5FF92EF921F930F933F932F9329
:100250005F934F93DF93CF932BE331E03F932F9343
:100260009F938F930E949038888199810E969983ED
:1002700088838DB79EB70E960FB6F8949EBF0FBEBB
:100280008DBF1AC0FF92EF921F930F933F932F934E
:100290005F934F93DF93CF932CE331E03F932F9302
:1002A0009F938F930E9490388DB79EB70E960FB68E
:1002B000F8949EBF0FBE8DBFDF91CF911F910F911C
:1002C000FF90EF900895DC01ED91FC9111979F0153
:1002D0002F5F3F4F2D933C9320812032A1F708954B
:1002E000EF92FF920F931F93CF93DF93CDB7DEB7BB
:1002F0002C970FB6F894DEBF0FBECDBF9C878B87BF
:10030000CE010B960E946301CE0101967C018E0105
:100310000D5F1F4F9E012B5F3F4FAE01495F5F4F47
:10032000BE01675F7F4F8B859C850E9417016985A1
:1003300086EF92E00E944C2709812B814D816F81CD
:1003400086EF92E00E94902786EF92E00E94E227DB
:100350002C960FB6F894DEBF0FBECDBFDF91CF91C4
:100360001F910F91FF90EF900895EF92FF920F93DE
:100370001F93CF93DF93CDB7DEB72C970FB6F894CA
:10038000DEBF0FBECDBF9C878B87CE010B960E9430
:100390006301CE0101967C018E010D5F1F4F9E010E
:1003A0002B5F3F4FAE01495F5F4FBE01675F7F4FDD
:1003B0008B859C850E941701698583EE92E00E94DF
:1003C000222809812B814D816F8183EE92E00E946A
:1003D000242883EE92E00E9457282C960FB6F894BA
:1003E000DEBF0FBECDBFDF91CF911F910F91FF9068
:1003F000EF900895CF93DF93EC010E946301888111
:100400009981DF91CF910C943D38CF93DF9300D049
:10041000CDB7DEB79A838983CE0101960E94FA0197
:10042000682F88E193E00E94BC14CE0101960E94DF
:10043000FA01BC0188E193E00E9402150F900F9031
:10044000DF91CF910895CF93DF9300D0CDB7DEB782
:100450009A838983CE0101960E94FA01682F8EE06B
:1004600093E00E942010CE0101960E94FA01BC0187
:100470008EE093E00E9445100F900F90DF91CF9196
:100480000895EF92FF920F931F93CF93DF9300D0C5
:10049000CDB7DEB79A838983CE0101960E94FA0117
:1004A0007C01CE0101960E94FA018C01C7010E94D5
:1004B000EE00053B110558F49C01220F331F280F55
:1004C000391FB801C9018E5D9D4F0E94092C0F9004
:1004D0000F90DF91CF911F910F91FF90EF900895B2
:1004E000CF93DF9300D0CDB7DEB79A83898362E0E4
:1004F00088E193E00E94BC14CE0101960E94FA01AB
:10050000BC0188E193E00E94021561E088E193E07C
:100510000E94BC14CE0101960E94FA01BC0188E140
:1005200093E00E9402150F900F90DF91CF910895F4
:100530001F93CF93DF9300D0CDB7DEB79A83898323
:10054000CE0101960E94FA01182F60E00E94FA2D58
:10055000812F0E94552D4AE050E0BC018CE094E0D0
:100560000E948A310F900F90DF91CF911F910895D3
:100570001F93CF93DF9300D0CDB7DEB79A838983E3
:10058000CE0101960E94FA01182F60E00E94FA2D18
:10059000812F0E94552D4AE050E0BC018CE094E090
:1005A0000E948A310F900F90DF91CF911F91089593
:1005B000CF93DF9300D0CDB7DEB79A838983CE0186
:1005C00001960E94FA01682F8FEF92E00E94A52801
:1005D0008FEF92E00E94A728AB01BC0122E030E03F
:1005E0008CE094E00E94C7320F900F90DF91CF9182
:1005F00008950F931F93CF93DF9300D0CDB7DEB74D
:100600009A838983CE0101960E94FA018C01CE0162
:1006100001960E94FA019C01442737FD4095542F12
:10062000B8018DED92E00E9471130F900F90DF9151
:10063000CF911F910F910895CF93DF9300D0CDB745
:10064000DEB79A838983CE0101960E94FA01682F52
:1006500084E493E00E94A32984E493E00E94A52906
:10066000AB01BC0122E030E08CE094E00E94C73294
:100670000F900F90DF91CF910895CF93DF9300D02B
:10068000CDB7DEB79A838983CE0101960E94FA0125
:10069000682F81E593E00E947F2881E593E00E9426
:1006A00084284AE050E0BC018CE094E00E94C6310E
:1006B0000F900F90DF91CF9108950F931F93CF93D9
:1006C000DF9300D000D01F92CDB7DEB79A83898325
:1006D000CE0101960E94FA01682FCE0101966D832A
:1006E0000E94FA01182FCE0101960E94FA01482FAC
:1006F000CE0101964C830E94FA01282FCE0101966B
:100700002B830E94FA01082F6D8182E593E00E94FD
:100710003F1B2B814C81612F82E593E00E948A1B55
:100720000F900F900F900F900F90DF91CF911F912E
:100730000F9108950F931F93CF93DF9300D000D0B4
:100740001F92CDB7DEB79A838983CE0101960E94AE
:10075000FA01682FCE0101966D830E94FA01182FCD
:10076000CE0101960E94FA01482FCE0101964C83DA
:100770000E94FA01282FCE0101962B830E94FA01D4
:10078000082F6D8184E493E00E94A3292B814C8182
:10079000612F84E493E00E94202A0F900F900F9025
:1007A0000F900F90DF91CF911F910F910895FF92BD
:1007B0000F931F93CF93DF9300D01F92CDB7DEB777
:1007C0009A838983CE0101960E94FA01682FCE0197
:1007D00001966B830E94FA01F82ECE0101960E94C9
:1007E000FA018C016B8182E593E00E943F1B41E09E
:1007F000012B09F440E06F2D82E593E00E94D01BAD
:100800000F900F900F90DF91CF911F910F91FF905C
:100810000895FF920F931F93CF93DF9300D01F9201
:10082000CDB7DEB79A838983CE0101960E94FA0183
:10083000682FCE0101966B830E94FA01F82ECE013B
:1008400001960E94FA018C016B8184E493E00E947E
:10085000A32941E0012B09F440E06F2D84E493E0EB
:100860000E94342A0F900F900F90DF91CF911F912B
:100870000F91FF9008951F93CF93DF9300D01F92A5
:10088000CDB7DEB79A838983CE0101960E94FA0123
:10089000682FCE0101966B830E94FA01182F6B819D
:1008A0008EE393E00E94D021612F8EE393E00E94BB
:1008B00029224AE050E0BC018CE094E00E94C6315D
:1008C0000F900F900F90DF91CF911F910895FF929D
:1008D0000F931F93CF93DF9300D000D0CDB7DEB737
:1008E0009A838983CE0101960E94FA01682FCE0176
:1008F00001966C830E94FA01F82ECE0101960E94A7
:10090000FA01482FCE0101964B830E94FA018C0117
:100910006C8183E293E00E94701C21E04B81012BEB
:1009200009F420E06F2D83E293E00E941D1E0F90DA
:100930000F900F900F90DF91CF911F910F91FF902B
:1009400008951F93CF93DF9300D000D0CDB7DEB7CB
:100950009A838983CE0101960E94FA01682FCE0105
:1009600001966C830E94FA01182FCE0101960E9415
:10097000FA01482FCE0101964B830E9463016C81DE
:1009800083E293E00E94701C29813A814B81612FA0
:1009900083E293E00E94C31D0F900F900F900F9081
:1009A000DF91CF911F9108959F92AF92BF92CF9206
:1009B000DF92EF92FF920F931F93CF93DF93CDB708
:1009C000DEB760970FB6F894DEBF0FBECDBF988B31
:1009D0008F878E01015F1F4FC8010E94FA01982E78
:1009E000C8010E94FA01D82EC8010E94FA01C82E3F
:1009F000CE0101967C015C01C8010E94FA01F70159
:100A000081937F01E017F107B9F7692D83E293E045
:100A10000E94701C95014C2D6D2D83E293E00E9485
:100A2000921C60960FB6F894DEBF0FBECDBFDF916B
:100A3000CF911F910F91FF90EF90DF90CF90BF90DB
:100A4000AF909F9008951F93CF93DF9300D01F9294
:100A5000CDB7DEB79A838983CE0101960E94FA0151
:100A6000682FCE0101966B830E94FA01182FCE01E8
:100A700001960E94FA01482F6B8183E293E04B8339
:100A80000E94701C4B81612F83E293E00E94431D02
:100A90000F900F900F90DF91CF911F9108951F93AA
:100AA000CF93DF9300D01F92CDB7DEB79A838983AF
:100AB000CE0101960E94FA01682FCE0101966B8348
:100AC0000E94FA01182FCE0101960E94FA01482FC8
:100AD0006B8183E293E04B830E94701C4B81612FFA
:100AE00083E293E00E946A1D0F900F900F90DF91B8
:100AF000CF911F910895CF93DF9300D0CDB7DEB78C
:100B00009A838983CE0101960E94FA01682F83E2BD
:100B100093E00E94701C83E293E00E94721C0F908D
:100B20000F90DF91CF9108951F93CF93DF9300D063
:100B3000CDB7DEB79A838983CE0101960E94FA0170
:100B4000182FCE0101960E94FA01682F812F0E9472
:100B5000332E0F900F90DF91CF911F9108950F9337
:100B60001F93CF93DF9300D01F92CDB7DEB79A8348
:100B70008983CE0101960E94FA01682FCE01019669
:100B80006B830E94FA018C016B818CEC92E00E94D5
:100B90004D198CEC92E00E944F1960E08CEC92E0D1
:100BA000012B19F40E94731902C00E9468194AE0CF
:100BB00050E0BC018CE094E00E94C6310F900F9091
:100BC0000F90DF91CF911F910F910895CF93DF93F5
:100BD00000D0CDB7DEB79A838983CE0101960E94FB
:100BE000FA010E94552D4AE050E0BC018CE094E0EF
:100BF0000E948A310F900F90DF91CF9108950F934B
:100C00001F93CF93DF9300D0CDB7DEB79A8389834C
:100C1000CE0101960E94FA01182FCE0101960E9482
:100C2000FA01082F61E0812F0E94FA2D602F812F99
:100C30000E94332E0F900F90DF91CF911F910F9153
:100C40000895CF93DF9300D0CDB7DEB79A83898321
:100C5000CE0101960E94FA01682F8EED92E00E946B
:100C600091268EED92E00E9493264AE050E0682F94
:100C70008CE094E00E94AF310F900F90DF91CF9104
:100C80000895FF920F931F93CF93DF9300D01F928D
:100C9000CDB7DEB79A838983CE0101960E94FA010F
:100CA000682FCE0101966B830E94FA01F82ECE01C7
:100CB00001960E94FA018C016B8186EB92E00E9402
:100CC000C11041E0012B09F440E06F2D86EB92E06A
:100CD0000E94C3100F900F900F90DF91CF911F9142
:100CE0000F91FF900895CF93DF9300D0CDB7DEB77B
:100CF0009A838983CE0101960E94FA01682F85EAC2
:100D000092E00E948A1385EA92E00E94EE130F900F
:100D10000F90DF91CF9108950F931F93CF93DF939F
:100D200000D01F92CDB7DEB79A838983CE0101969A
:100D30000E94FA01682FCE0101966B830E94FA018E
:100D40008C016B8185EA92E00E948A1361E0012B9D
:100D500009F460E085EA92E00E9402140F900F907F
:100D60000F90DF91CF911F910F9108951F93CF9313
:100D7000DF9300D01F92CDB7DEB79A838983CE016F
:100D800001960E94FA01682FCE0101966B830E94A2
:100D9000FA01182F6B8185EA92E00E948A13612F75
:100DA00085EA92E00E941F144AE050E0BC018CE00A
:100DB00094E00E94C6310F900F900F90DF91CF9179
:100DC0001F9108951F93CF93DF9300D01F92CDB74B
:100DD000DEB79A838983CE0101960E94FA01682FBB
:100DE000CE0101966B830E94FA01182F6B818EE968
:100DF00092E00E941216612F8EE992E00E94311655
:100E00004AE050E0682F8CE094E00E94AF310F90F0
:100E10000F900F90DF91CF911F9108951F93CF9363
:100E2000DF9300D01F92CDB7DEB79A838983CE01BE
:100E300001960E94FA01682FCE0101966B830E94F1
:100E4000FA01182F6B8186E992E00E940A1C612F3B
:100E500086E992E00E94291C4AE050E0682F8CE06D
:100E600094E00E94AF310F900F900F90DF91CF91DF
:100E70001F9108951F93CF93DF9300D01F92CDB79A
:100E8000DEB79A838983CE0101960E94FA01682F0A
:100E9000CE0101966B830E94FA01182F6B8186E8C0
:100EA00092E00E945E14612F86E892E00E949B14FB
:100EB0004AE050E0BC018CE094E00E94C6310F9003
:100EC0000F900F90DF91CF911F9108951F93CF93B3
:100ED000DF9300D01F92CDB7DEB79A838983CE010E
:100EE00001960E94FA01682FCE0101966B830E9441
:100EF000FA01182F6B8186E492E00E948F16612F11
:100F000086E492E00E94F418AB01BC0122E030E0DC
:100F10008CE094E00E94C7320F900F900F90DF9109
:100F2000CF911F910895CF93DF9300D0CDB7DEB757
:100F30009A838983CE0101960E94FA01682F81E489
:100F400092E00E94262981E492E00E9428294AE04A
:100F500050E0682F8CE094E00E94AF310F900F902A
:100F6000DF91CF9108950F931F93CF93DF9300D01C
:100F70001F92CDB7DEB79A838983CE0101960E9476
:100F8000FA01682FCE0101966B830E94FA018C0151
:100F90006B818DE392E00E94BF2661E0012B09F492
:100FA00060E08DE392E00E94C1260F900F900F90B9
:100FB000DF91CF911F910F9108950F931F93CF93BE
:100FC000DF9300D01F92CDB7DEB79A838983CE011D
:100FD00001960E94FA01682FCE0101966B830E9450
:100FE000FA018C016B8189E392E00E94572A61E04B
:100FF000012B09F460E089E392E00E94592A0F90E6
:101000000F900F90DF91CF911F910F910895CF9383
:10101000DF9300D0CDB7DEB79A838983CE010196E6
:101020000E94FA01682F84E392E00E945A2284E32E
:1010300092E00E94D6220F900F90DF91CF910895F9
:10104000CF93DF9300D0CDB7DEB79A838983CE01EB
:1010500001960E94FA01682F84E392E00E945A22CE
:1010600084E392E00E94C0220F900F90DF91CF9115
:101070000895CF93DF9300D0CDB7DEB79A838983ED
:10108000CE0101960E94FA01682F84E392E00E944B
:101090005A2284E392E00E94AA220F900F90DF91DF
:1010A000CF9108951F93CF93DF9300D01F92CDB7B8
:1010B000DEB79A838983CE0101960E94FA01682FD8
:1010C000CE0101966B830E94FA01182F6B8184E395
:1010D00092E00E945A22612F84E392E00E94EC2267
:1010E0000F900F900F90DF91CF911F9108950F9364
:1010F0001F93CF93DF9300D01F92CDB7DEB79A83B3
:101100008983CE0101960E94FA01682FCE010196D3
:101110006B830E94FA018C016B8184E392E00E9450
:101120005A22B80184E392E00E945C220F900F9053
:101130000F90DF91CF911F910F9108951F93CF933F
:10114000DF9300D01F92CDB7DEB79A838983CE019B
:1011500001960E94FA01682FCE0101966B830E94CE
:10116000FA01182F6B8184E392E00E945A22612FCA
:1011700084E392E00E9487220F900F900F90DF91FE
:10118000CF911F9108951F93CF93DF9300D01F92AB
:10119000CDB7DEB79A838983CE0101960E94FA010A
:1011A000682FCE0101966B830E94FA01182F6B8184
:1011B0008EE292E00E944523612F8EE292E00E942F
:1011C00047230F900F900F90DF91CF911F910895BB
:1011D0001F93CF93DF9300D000D0CDB7DEB79A83B3
:1011E0008983CE0101960E94FA01682FCE010196F3
:1011F0006C830E94FA01182FCE0101960E94FA0119
:10120000482FCE0101964B830E9463016C818EE2D0
:1012100092E00E94452329813A814B81612F8EE221
:1012200092E00E945E230F900F900F900F90DF913D
:10123000CF911F910895CF93DF9300D0CDB7DEB744
:101240009A838983CE0101960E94FA01682F8EE26B
:1012500092E00E9445238EE292E00E944A230F9082
:101260000F90DF91CF910895CF93DF93EC010E940F
:10127000630188819981DF91CF910C943938CF92A5
:10128000DF92EF92FF921F93CF93DF9300D0CDB701
:10129000DEB79A838983CE0101960E94FA01182F46
:1012A000CE0101960E9434096B017C01612F83E21B
:1012B00093E00E94701CB701A60183E293E00E94B4
:1012C0005C1E0F900F90DF91CF911F91FF90EF90D8
:1012D000DF90CF900895CF92DF92EF92FF921F930D
:1012E000CF93DF9300D0CDB7DEB79A838983CE0149
:1012F00001960E94FA01182FCE0101960E9434092E
:101300006B017C01612F8BEB92E00E943511B701DC
:10131000A6018BEB92E00E945C110F900F90DF9181
:10132000CF911F91FF90EF90DF90CF900895BF92E3
:10133000CF92DF92EF92FF920F931F93CF93DF93A1
:1013400000D01F92CDB7DEB79A838983CE01019674
:101350000E94FA01182FCE0101960E94FA01B82EC0
:10136000CE0101960E94FA01482FCE0101964B83CF
:101370000E9434096B017C01612F8EE292E00E9491
:101380004523970186014B816B2D8EE292E00E94EE
:10139000D5230F900F900F90DF91CF911F910F9158
:1013A000FF90EF90DF90CF90BF900895882319F0C1
:1013B0006CE471E002C061E571E08CE094E00C94B3
:1013C000D530CF93DF9300D0CDB7DEB79A83898332
:1013D000CE0101960E94FA01682F82ED92E00E94F0
:1013E000401ACE0101960E94FA01682F82ED92E028
:1013F0000E94501A0E94D6090F900F90DF91CF9152
:1014000008951F93CF93DF9300D0CDB7DEB79A83B3
:101410008983CE0101960E94FA01182F60E00E9494
:10142000FA2D812F0E94692E21E0892B09F020E0FE
:10143000822F0E94D6090F900F90DF91CF911F91BC
:101440000895CF93DF9300D0CDB7DEB79A83898319
:10145000CE0101960E94FA01682F82E593E00E9476
:101460003F1B82E593E00E94411B91E0811101C086
:1014700090E0892F0E94D6090F900F90DF91CF91B5
:101480000895CF93DF9300D0CDB7DEB79A838983D9
:10149000CE0101960E94FA01682F87EC92E00E942B
:1014A000542987EC92E00E94562991E0811101C0F5
:1014B00090E0892F0E94D6090F900F90DF91CF9175
:1014C00008950F931F93CF93DF9300D01F92CDB752
:1014D000DEB79A838983CE0101960E94FA01682FB4
:1014E000CE0101966B830E94FA018C016B8186EB21
:1014F00092E00E94C11086EB92E00E94FA10282F21
:1015000030E081E02017310709F080E00E94D60921
:101510000F900F900F90DF91CF911F910F91089531
:10152000CF93DF9300D0CDB7DEB79A838983CE0106
:1015300001960E94FA01682F81EB92E00E946326D7
:1015400081EB92E00E94652691E0811101C090E05C
:10155000892F0E94D6090F900F90DF91CF910895A7
:10156000CF93DF9300D0CDB7DEB79A838983CE01C6
:1015700001960E94FA01682F8DE992E00E94AA214B
:101580008DE992E00E94B2210E94D6090F900F903F
:10159000DF91CF910895CF93DF9300D0CDB7DEB721
:1015A0009A838983CE0101960E94FA01682F84E311
:1015B00092E00E945A2284E392E00E94142391E078
:1015C000811101C090E0892F0E94D6090F900F90E1
:1015D000DF91CF910895EF92FF920F931F93CF93D6
:1015E000DF931F92CDB7DEB78C0101960E943D3884
:1015F0008132910509F4C4C10CF082C0813191059A
:1016000009F496C10CF041C08930910509F404C178
:101610000CF58330910509F44FC174F481309105C4
:1016200009F440C10CF043C1892B09F0FFC151E01E
:10163000E52E5AE0F52ED1C18730910509F4E2C0BC
:101640000CF0E5C0059709F0F1C1EFEDEE2EE0E0FA
:10165000FE2EC3C18D30910509F44CC15CF48B3072
:10166000910509F4B6C10CF4DCC068EDE62E62E029
:10167000F62EB3C18F30910509F450C10CF053C15F
:1016800071E6E72E7AE0F72EA8C18931910509F4B9
:101690006DC1DCF48531910509F459C15CF48331E5
:1016A000910509F44AC10CF04DC13CE8E32E36E047
:1016B000F32E8DC18731910509F44EC10CF051C153
:1016C000BEE0EB2EB7E0FB2E88C18D31910509F409
:1016D0006BC15CF48B31910509F44DC10CF05FC115
:1016E00073EBE72E77E0F72E72C18F31910509F485
:1016F0004CC10CF44FC130E2E32E38E0F32E67C149
:101700008537910509F4E2C00CF040C08D36910593
:1017100009F4A0C004F58532910509F44FC15CF4C9
:101720008332910509F445C10CF04DC15BECE52E07
:101730005AE0F52E52C18336910509F4AEC08636C3
:10174000910509F47DC0869709F070C17BE1E72E11
:1017500079E0F72E3CC18137910509F494C05CF41F
:101760008F36910509F485C00CF088C04CE1E42E59
:1017700043E0F42E32C18337910509F489C00CF09F
:10178000A0C081EAE82E84E0F82E21C18D379105B2
:1017900009F4A6C0DCF48937910509F4B0C05CF403
:1017A0008737910509F497C00CF05EC07DE5E72E00
:1017B00073E0F72E0CC18B37910509F4AAC00CF029
:1017C000A3C0BFEAEB2EB5E0FB2E07C1883C910514
:1017D00069F15CF48F37910509F441C00CF485C0C0
:1017E0008038910509F440C021C18A3C910569F116
:1017F00014F18C3C910509F019C183E2E82E82E0D6
:10180000F82EE5C071EEE72E79E0F72EE6C048E944
:10181000E42E42E0F42EE1C030E7E32E31E0F32E77
:10182000D6C029EFE22E22E0F22ED1C095E0E92EBB
:1018300092E0F92ECCC0B0E7EB2EB2E0FB2EC7C091
:10184000A9ECEA2EA0E0FA2EC2C0F1E4EF2EF2E0FD
:10185000FF2EBDC0EAE9EE2EE3E0FE2EB8C069E03F
:10186000E62E64E0F62EB3C057EDE52E53E0F52EDC
:10187000AEC03BE3E32E34E0F32EAFC02FE3E22E05
:1018800029E0F22EA4C097E6E92E94E0F92E9FC03D
:10189000B4EDEB2EB4E0FB2E9AC0A0EAEA2EADE048
:1018A000FA2E95C0F3E2EF2EF5E0FF2E90C0EFE4A4
:1018B000EE2EE5E0FE2E8BC07BE7E72E75E0F72EDF
:1018C00086C06DE3E62E63E0F62E87C051E2E52E7A
:1018D0005AE0F52E82C044E9E42E45E0F42E77C0AC
:1018E0003FEFE32E35E0F32E72C021E2E22E26E038
:1018F000F22E73C095EBE92E91E0F92E68C081E4D9
:10190000E82E8AE0F82E69C0A6EEEA2EA5E0FA2EAF
:1019100064C0FBE6EF2EF9E0FF2E59C061E4E62E2D
:1019200066E0F62E54C050E9E52E5AE0F52E55C07B
:1019300043E7E42E46E0F42E4AC026EBE22E26E0F2
:10194000F22E4BC092EEE92E96E0F92E46C080EBC7
:10195000E82E8AE0F82E41C0AAE3EA2EA7E0FA2E8C
:101960003CC0F6E6EF2EF7E0FF2E37C0E3E9EE2E9F
:10197000E7E0FE2E32C06DEDE62E67E0F62E27C0C2
:1019800047E0E42E48E0F42E22C029E3E22E28E0CE
:10199000F22E1DC092E5E92E98E0F92E18C087E7D7
:1019A000E82E88E0F82E13C0BEE9EB2EB8E0FB2E3F
:1019B0000EC0A3ECEA2EA8E0FA2E09C0F8EEEF2E36
:1019C000F8E0FF2E04C0E7E9EE2EE9E0FE2E20E06D
:1019D00005C068EBE62E62E0F62E21E0D8010D90FE
:1019E0000020E9F7AD0141505109401B510BE09136
:1019F0000C04F0910D040280F381E02DB8018CE01D
:101A000094E029830995C801F701099529812111DD
:101A10000DC067E571E08CE094E00F90DF91CF910D
:101A20001F910F91FF90EF900C94D5300F90DF91A4
:101A3000CF911F910F91FF90EF900895FC012081AD
:101A40002D3411F40C94EB0A089560E083E10E94B8
:101A5000FA2D60E082E10E94FA2D60E080E10E94B0
:101A6000FA2D60E08FE00E94FA2D61E083E00E9491
:101A7000FA2D61E08EE00E94FA2D61E084E00E9480
:101A8000FA2D61E08DE00E94FA2D82ED92E00C9437
:101A9000571A26E040E052EC61E070E08CE094E000
:101AA0000E94752F0C94250DDF92EF92FF920F93F9
:101AB0001F93CF93DF93C2E6D3E00AE511E0F3E092
:101AC000C636DF07A9F1EE24E394F12C8881811159
:101AD00002C0E12CF12CF801D1908F018D2D0E94D4
:101AE000692EE816F90611F18881882311F0188211
:101AF0001DC060E971E080E090E00E94E72C6D2D50
:101B00008EE593E00E943A258EE593E00E945425ED
:101B100061E08EE593E00E94CB258EE593E00E9484
:101B200082258EE593E00E94332688832196C7CFD5
:101B3000DF91CF911F910F91FF90EF90DF9008956B
:101B40000F931F93CF93DF9380E090E00E94C90032
:101B500060E083E00E94332E60E084E00E94332E38
:101B600060E08EE00E94332E60E08DE00E94332E14
:101B70000E94540DCAE5D1E002E613E0F1E0CE3553
:101B8000DF0741F1F80181918F01882309F181304C
:101B9000A1F4688184E493E00E94A32920E040E05E
:101BA00060E084E493E00E94142A20E040E060E0DA
:101BB00084E493E00E941A2A0BC0833049F46881C0
:101BC00083E293E00E94701C83E293E00E94721C07
:101BD0002196D4CFDF91CF911F910F910895CF938C
:101BE000DF938EE593E00E94392560E082E593E083
:101BF0000E94231B60E081E593E00E94822860E060
:101C000084E493E00E94872960E08EE393E00E94E1
:101C1000BC2160E083E293E00E946C1C60E088E1FC
:101C200093E00E94E81460E08EE093E00E942C10A4
:101C300060E08FEF92E00E948F2860E086EF92E0F4
:101C40000E942B2760E083EE92E00E94072860E06C
:101C50008EED92E00E947D2667E08DED92E00E947D
:101C60000A1362E082ED92E00E94341A60E08CEC8C
:101C700092E00E94391960E087EC92E00E944029CE
:101C800060E08BEB92E00E94211160E086EB92E035
:101C90000E94AD1060E081EB92E00E944F2660E070
:101CA00085EA92E00E94761360E08EE992E00E945D
:101CB000FE1560E08DE992E00E94B02160E086E9C7
:101CC00092E00E94F61B60E086E892E00E944314D6
:101CD00060E086E492E00E944F1660E081E492E0CA
:101CE0000E94122960E08DE392E00E94AB2660E042
:101CF00089E392E00E94432A60E084E392E00E943C
:101D0000462260E08EE292E00E942C23C2E2D2E002
:101D1000CE010E94362B239682E0CE32D807C1F73F
:101D2000DF91CF91089586EF92E00C94FB271F93EB
:101D3000CF93DF93C0E8D0E010E28CE094E00E9403
:101D4000922E892B81F18CE094E00E94AB2E2091A1
:101D50001C0230911D028A30C1F4C9010197FC01B7
:101D6000E456FE4F40814D3011F49C01F6CFF9014D
:101D7000E456FE4F1083118210921D0210921C0235
:101D80008CE991E00E941E0DD8CFF901E456FE4F78
:101D90008083C9010196BE010E94893690931D027D
:101DA00080931C02CACFDF91CF911F91089582EDDD
:101DB00092E00E94F41A0C94970E089570E0FB01D3
:101DC000E655FF4FE491DC01EC93FB01E254FF4F39
:101DD000E491F0E0EE0FFF1FEE52FF4F259134919A
:101DE000FC013283218308951F93CF93DF93FC017D
:101DF0001081C181D2819981812F80958923898326
:101E00008A81812B8A838AE090E00E940F2D98813D
:101E1000912381E009F480E0DF91CF911F91089533
:101E2000FF920F931F93CF93DF93FC011081C18129
:101E3000D281F8948981F12EF0948F2189838A814F
:101E4000812B8A8378940DE7015041F182E090E084
:101E50000E940F2D88818123B9F3F8948A818F2104
:101E60008A838981812B8983789480EE91E00E9416
:101E70000F2DF89489818F2189838A81812B8A8310
:101E800086E490E00E940F2D8881812301E009F013
:101E900000E078948AE991E00E940F2D802FDF9175
:101EA000CF911F910F91FF9008951F93CF93DF93D0
:101EB000FC011081C181D281912F909560FF12C0E9
:101EC000F8948A8189238A838981812B89838AE096
:101ED00090E00E940F2D8A81812B8A83789487E37A
:101EE00090E011C0F8948A8189238A838981812BAB
:101EF000898381E490E00E940F2D8A81812B8A835F
:101F0000789485E090E0DF91CF911F910C940F2D94
:101F10000F931F93CF93DF93FC011081C181D28176
:101F2000F8948981812B89838A81012F00958023F0
:101F30008A8383E090E00E940F2D8981802389832A
:101F40008A81812B8A838AE090E00E940F2DC881CC
:101F5000789485E390E00E940F2D1C2381E009F422
:101F600080E0DF91CF911F910F910895CF92DF9282
:101F7000EF92FF920F931F93CF93DF931F92CDB7F2
:101F8000DEB76C01E62E08E010E0FF24F39461E078
:101F90009F2D9E2109F460E0C60149830E94550FE0
:101FA000FF0C0150110949810115110581F74111FB
:101FB0001DC0F894D6011196ED91FC911297918174
:101FC0008C918095892381831196ED91FC911297D4
:101FD00082819C91892B82831196ED91FC911297BD
:101FE00092818C9180958923828378940F90DF91E0
:101FF000CF911F910F91FF90EF90DF90CF900895B8
:10200000EF92FF920F931F93CF93DF938C01C8E061
:10201000D0E0F12CEE24E394C8010E94880F8111D6
:10202000FE28EE0C2197C1F78F2DDF91CF911F91E4
:102030000F91FF90EF90089540E06CEC0C94B60F78
:10204000CF93DF93EC010E943A258CE291E09F83CD
:102050008E83DF91CF9108950F931F93CF93DF93DA
:102060001F92CDB7DEB78C0169830E943925F80134
:1020700017821682108611866981C8010F90DF9140
:10208000CF911F910F910C942010CF92DF92EF927D
:10209000FF92CF93DF93EC016F3F710519F014F0BD
:1020A0006FEF70E061308FEF780714F461E07FEF3D
:1020B0008E819F818617970709F448C07F836E83BE
:1020C0006B01EE24D7FCE094FE2CCE0177FD14C00A
:1020D0000E94542562E0CE010E94CB25CE010E94D1
:1020E0005425C701B6010E94873423E333E343E25A
:1020F00050E40E94EC331BC00E94542562E0CE01E4
:102100000E94CB25CE010E945425C701B6010E9432
:10211000873423E333E343E250E40E94EC339B0132
:10212000AC0160E070E088EC92E40E9421330E94F0
:102130005934CE010E94CB2584EF91E0DF91CF91FD
:10214000FF90EF90DF90CF900C940F2DDF91CF9107
:10215000FF90EF90DF90CF9008950F931F93CF9350
:10216000DF931F92CDB7DEB78C0169830E943925BA
:102170006981C8010F90DF91CF911F910F910C944D
:102180003A250C943A25EF92FF921F93CF93DF9359
:102190001F92CDB7DEB77C01162F49830E945425CC
:1021A0004981811120C0442311F063E001C064E043
:1021B000C7010E94CB25C7010E945425811113C07D
:1021C000112339F0115061E001C0660F1A95EAF74A
:1021D00001C06FE0C7010F90DF91CF911F91FF9079
:1021E000EF900C94CB250F90DF91CF911F91FF9032
:1021F000EF900895CF93DF93EC010E945425811155
:102200001CC062E0CE010E94CB25CE010E94822537
:10221000CE010E9433268C838C81823059F018F4D1
:10222000813041F008C0843021F0883021F484E00E
:1022300001C083E08C838C8101C080E0DF91CF916D
:1022400008950F931F93CF93DF931F92CDB7DEB7FF
:102250008C0169830E9439256981C8010F90DF9143
:10226000CF911F910F910C943A250C943A25CF935E
:10227000DF93EC010E94542581111BC062E0CE0166
:102280000E94CB25CE010E945425811112C06C8181
:10229000CE010E94CB256D81CE010E94CB256E819F
:1022A000CE010E94CB256F81CE01DF91CF910C949E
:1022B000CB25DF91CF9108952F923F924F925F925D
:1022C0006F927F928F929F92AF92BF92CF92DF9246
:1022D000EF92FF920F931F93CF93DF93CDB7DEB7AB
:1022E0002F970FB6F894DEBF0FBECDBF8C012A0129
:1022F0003B019A01AB01FC01608571858285938564
:102300000E94E833882309F46CC1F80140865186A5
:1023100062867386CE0101969C878B878AE0EB8567
:10232000FC8511928A95E9F720E03CE34CE156E404
:10233000C301B2010E94AF3587FD04C089E0F801F6
:1023400084830EC020E030EC49E754ECC301B201B5
:102350000E94E833181644F080E1F801848389E094
:10236000858386838783D3C020E030E0A901C30141
:10237000B2010E94E833811107C080E4F801848330
:10238000858386831782C3C020E030E0A901C301A2
:10239000B2010E94E83387FF07C077FA709477F89C
:1023A0007094F1E0FD8701C01D8620E030E04AE72F
:1023B00054E4C301B2010E94EC330E945934698392
:1023C000C301B2010E9454349B01CB0168EE73E05B
:1023D0000E948936E4E6F0E0BF010E9489366A83F4
:1023E000C901BF010E9489364AE0E42EF12CB701F1
:1023F0000E9489366B83C901B7010E9489365C014E
:102400008C8320E030E040E251E4C301B2010E943D
:10241000BA350E945434CB01B7010E9489366C0151
:102420008D8320E030E048EC52E4C301B2010E9409
:10243000BA350E945434CB01B7010E9489364C0151
:102440008E8320E030E04AE754E4C301B2010E94E9
:10245000BA350E945434CB01B7010E9489369F8758
:102460008E878F83212CE22CF12CE1E0F0E0EC0F41
:10247000FD1FEE0DFF1D3080311002C02394F3CFFD
:1024800020E030E040E85FE3C301B2010E94AF35D5
:1024900087FD10C0A32CFE01EE0DFF1DC280FE01C2
:1024A000EE0DFF1D8380FE01EE0DFF1D848124E0F3
:1024B000221907C0BB24DD2499248E859F85992786
:1024C00021E03D85313059F480E1F8018483A58213
:1024D000C6828782223051F02130C9F40DC0F80144
:1024E000A482C58286828783233021F4868180621C
:1024F00086830DC0223029F4F801858180628583AE
:1025000006C0213021F4F801848180628483F801BF
:10251000848185FF0BC08581811141C08681811135
:102520003EC08781882309F445C039C0F801858100
:1025300085FF0AC0868181114DC0878181114AC003
:10254000F80185818F703FC0F801868185FF0CC03E
:102550008781811109C086818F70878385818683F9
:102560008481858380E48483C8012F960FB6F89414
:10257000DEBF0FBECDBFDF91CF911F910F91FF90B6
:10258000EF90DF90CF90BF90AF909F908F907F9013
:102590006F905F904F903F902F900C943711F801FF
:1025A0008681811117C0F8018781811113C0F8015C
:1025B000858109C0F80184818F70878380E48483DA
:1025C00085838683D1CF87838481868380E48483D7
:1025D0008583CACFF80187818111C6CFF801868132
:1025E000BCCF2F960FB6F894DEBF0FBECDBFDF91E4
:1025F000CF911F910F91FF90EF90DF90CF90BF9000
:10260000AF909F908F907F906F905F904F903F9092
:102610002F9008956093660308954F925F926F9292
:102620007F928F929F92AF92BF92CF92DF92EF9262
:10263000FF920F931F93CF93DF9369017A019B0160
:1026400040E050E060E472E48FE090E00E94BF362A
:10265000E901890137FF02C00F5F1F4F15950795EC
:1026600061E0809166030E94FA2DA8EEB3E0A70115
:1026700096010E94DE364B015C01C12CD12C760103
:102680002E01662457FC6094762CC814D904EA0401
:10269000FB04B0F461E0809166030E94332EC80110
:1026A0000E940F2D60E0809166030E94332EC801C6
:1026B0000E940F2DA895C40CD51CE61CF71CE5CF75
:1026C000DF91CF911F910F91FF90EF90DF90CF900E
:1026D000BF90AF909F908F907F906F905F904F9042
:1026E0000895F8940E940D13789408950F931F9302
:1026F000CF93DF931F92CDB7DEB78C0169830E9421
:1027000039256981C8010F90DF91CF911F910F91F9
:102710000C943A250C943A25CF92DF92EF92FF92D7
:102720000F931F93CF93DF93CDB7DEB728970FB6E4
:10273000F894DEBF0FBECDBF8C01CE0101967C01A7
:1027400088E0F70111928A95E9F7C8010E945425A3
:10275000811135C062E0C8010E94CB25C8010E94EA
:1027600082256E01F9E0CF0ED11CC8010E943326EC
:10277000F70181937F01EC15FD05B9F78A8190E09F
:10278000982F88272981822BF801958384838C8157
:1027900090E0982F88272B81822B978386838E81C8
:1027A00090E0982F88272D81822B918780878885BC
:1027B00090E0982F88272F81822B938782872896F5
:1027C0000FB6F894DEBF0FBECDBFDF91CF911F9142
:1027D0000F91FF90EF90DF90CF900895CF93DF930C
:1027E000EC010E94542581110AC064E0CE010E94D0
:1027F000CB2588EB9BE0DF91CF910C940F2DDF91DF
:10280000CF9108951F93CF93DF93EC01162F0E9471
:102810005425811110C063E0CE010E94CB25CE016A
:102820000E945425811107C0612FCE01DF91CF9105
:102830001F910C94CB25DF91CF911F9108950F9399
:102840001F93CF93DF931F92CDB7DEB78C016983BF
:102850000E948C136981F801623039F0633041F0D5
:10286000613049F48481958108C08681978105C0D3
:102870008085918502C0828593850F90DF91CF91ED
:102880001F910F9108950F931F93CF93DF931F9282
:10289000CDB7DEB78C0169830E943925F801158216
:1028A000148217821682118610866981C8010F90E2
:1028B000DF91CF911F910F910C943A250C943A25FA
:1028C0000F931F93CF93DF93EC010E945425811146
:1028D0002DC062E0CE010E94CB25CE010E94822550
:1028E00000E010E0CE010E943326FE01E00FF11F50
:1028F00082870F5F1F4F06301105A1F78A8590E090
:10290000982F88272B85822B9D838C838C8590E044
:10291000982F88272D85822B9F838E838E8590E02C
:10292000982F88272F85822B99878887DF91CF91D1
:102930001F910F9108950F931F93CF93DF931F92D1
:10294000CDB7DEB78C0169830E946014698166236C
:1029500031F0613041F4F8018681978107C0F801B8
:102960008481958103C0F801808591850F90DF9166
:10297000CF911F910F9108950F931F93CF93DF93E2
:10298000EC01062F10E0000F111F065F1E4F633091
:1029900050F0F8016081CE010E943A25F801818152
:1029A000898718860CC061E0F80181810E94FA2DA8
:1029B000F80180818D8381818C8381E088878CE21E
:1029C00091E09F838E83DF91CF911F910F910895A6
:1029D0000F931F93CF93DF931F92CDB7DEB78C0178
:1029E00069830E943925F8011782168210861186A4
:1029F00012866981C8010F90DF91CF911F910F91CD
:102A00000C94BC14EF92FF920F931F93CF93DF931C
:102A100000D0CDB7DEB77C01FC018285811109C0F1
:102A200069837A830E94E70081E0F70182877A81D7
:102A300069818B016F3F710519F014F00FEF10E001
:102A40000130FFEF1F0714F401E01FEFF70186814B
:102A500097818017910709F4C8C017830683808582
:102A600017FD4EC0813079F58481873019F4848157
:102A700060E006C0F7018481883089F4848161E0D8
:102A80000E94332EF7018581B8010F900F90DF91DE
:102A9000CF911F910F91FF90EF900C94722DF70141
:102AA0008481893029F0F7018481863009F09DC046
:102AB000848161E00E94332EF70185816FEF70E021
:102AC000601B710BE2CFC7010E94542562E0C70171
:102AD0000E94CB25C7010E945425F7016185C701DB
:102AE0000E94CB25B801882777FD8095982F0E94FA
:102AF000873420E030E040E250E40E94EC3364C0D0
:102B00008130F1F5F7018481873061F4848161E0DF
:102B10000E94332EF701858166277727601B710B92
:102B20000E94722DF7018481883061F4848160E015
:102B30000E94332EF701858166277727601B710B72
:102B40000E94722DF7018481893059F4858161E0FA
:102B50000E94332EF7018481B80161507F4F0E949B
:102B6000722DF7018481863009F03FC0858161E0D4
:102B70000E94332EF7018481B80161507F4F85CFC9
:102B8000C7010E94542562E0C7010E94CB25C701FE
:102B90000E945425F7016185C7010E94CB25B80129
:102BA000882777FD8095982F0E94873420E030E0B9
:102BB00040E250E40E94EC339B01AC0160E070E025
:102BC00088EC92E40E9421330E945934C7010E948C
:102BD000CB2584EF91E00F900F90DF91CF911F9163
:102BE0000F91FF90EF900C940F2D0F900F90DF91AD
:102BF000CF911F910F91FF90EF9008950F931F9326
:102C0000CF93DF931F92CDB7DEB78C0169830E940B
:102C100039256981C8010F90DF91CF911F910F91E4
:102C20000C943A250C943A25CF93DF93EC010E9443
:102C30005425811113C062E0CE010E94CB25CE0144
:102C40000E948225CE010E9433268C83CE010E94F1
:102C500033268D83CE010E9433268E83DF91CF9160
:102C600008950F931F93CF93DF931F92CDB7DEB7D5
:102C70008C0169830E9414166981613029F06330E8
:102C800031F4F801868105C0F801848102C0F801A1
:102C900085810F90DF91CF911F910F9108951F9320
:102CA000CF93DF93EC01162F0E94392540E050E0CE
:102CB00063E872E44C835D836E837F831886198694
:102CC0001A861B861C861D861E861F86188A198AF0
:102CD0001A8A1B8A1C8A1D8A1E8A1F8A188E198EC0
:102CE0001A8E1B8E1C8E1D8E1E8E1F8E19A218A270
:102CF0001BA21AA21DA21CA21EA21FA218A619A6E0
:102D00001AA61BA61CA61DA61EA61FA618AA19AAAF
:102D1000612FCE01DF91CF911F910C943A250C9435
:102D20003A252F923F924F925F926F927F928F92AD
:102D30009F92AF92BF92CF92DF92EF92FF920F934A
:102D40001F93CF93DF93CDB7DEB768970FB6F89494
:102D5000DEBF0FBECDBF1C010E94B82C4B015C0131
:102D6000C0906703D0906803E0906903F0906A0315
:102D70000E94B82C60936703709368038093690383
:102D800090936A03C1010E945425811114C262E02C
:102D9000C1010E94CB25C1010E94822500E010E004
:102DA000C1010E943326F101E00FF11F82AB0F5FDA
:102DB0001F4F0E301105A1F7C501B4016C197D0933
:102DC0008E099F090E94853420E030E04AE754E4F0
:102DD0000E94EC336B017C01D101D2964C90D297CA
:102DE000512C542C4424D3968C91D397482A9196F5
:102DF0005C924E929097D4966C90D497712C762CCE
:102E00006624D5968C91D597682A93967C926E927B
:102E10009297D6960C91D69710E0102F0027D79650
:102E20008C91D797082B95961C930E939497149694
:102E30008D909D90AD90BC901797DA966C91DA9733
:102E400070E0762F6627DB968C91682B882777FDBC
:102E50008095982F0E948734F10126A137A140A5C3
:102E600051A50E942133A50194010E94EC336D838A
:102E70007E838F839887D10154966D937D938D9334
:102E80009C935797DC966C91DC9770E0762F6627C1
:102E9000DD968C91682B882777FD8095982F0E946E
:102EA0008734F10122A533A544A555A50E942133FD
:102EB000A50194010E94EC3369877A878B879C87F0
:102EC000D10158966D937D938D939C935B97DE967D
:102ED0006C91DE9770E0762F6627DF968C91682BD9
:102EE000882777FD8095982F0E948734F10126A5C9
:102EF00037A540A951A90E942133A50194010E9440
:102F0000EC336D877E878F87988BD1015C966D93AC
:102F10007D938D939C935F97B301882777FD809570
:102F2000982F0E94873469837A838B839C83B801AE
:102F3000882777FD8095982F0E9487349B01AC01EC
:102F40000E94BA35698B7A8B8B8B9C8B29813A8155
:102F50004B815C81CA01B9010E94BA3529893A893D
:102F60004B895C890E9422330E9421369B01AC016F
:102F7000B201882777FD8095982F2D8B3E8B4F8B44
:102F8000588F0E9487344B015C012D893E894F89FF
:102F9000588D0E94953320E030E044E353E40E94D2
:102FA000BA352AED3FE049E450E40E94EC332B01AE
:102FB0003C01A5019401C501B4010E94BA352989DB
:102FC0003A894B895C890E9422330E9421369B01F9
:102FD000AC0169817A818B819C810E94953320E0CC
:102FE00030E044E353E40E94BA352AED3FE049E47F
:102FF00050E40E94EC334B015C01A7019601698506
:103000007A858B859C851016110624F50E94BA35A9
:103010009B01AC01F10160857185828593850E94D9
:103020002133D10118966D937D938D939C931B97BB
:10303000A70196016D817E818F8198850E94BA35A6
:103040009B01AC01F10164857585868597850E9499
:10305000223323C00E94BA359B01AC01F101608587
:103060007185828593850E942233D10118966D93D4
:103070007D938D939C931B97A70196016D817E8113
:103080008F8198850E94BA359B01AC01F10164855E
:103090007585868597850E942133D1011C966D9395
:1030A0007D938D939C931F97A70196016D857E85D7
:1030B0008F8598890E94BA35F1012089318942892A
:1030C00053890E9422336B017C0120E030E044EB05
:1030D00053E40E94EC330E94C23420E030E044EB21
:1030E00053E40E94BA359B01AC01C701B6010E94AE
:1030F00021336B017C0120E030E044E353E40E9483
:10310000AF35181644F0D1015096CD92DD92ED9274
:10311000FC9253970DC020E030E044EB53E4C7012C
:10312000B6010E942133F101608B718B828B938BEE
:1031300028E431EE4AE75FE3D1011C966D917D9161
:103140008D919C911F970E94BA356B017C012AE0FA
:1031500037ED43EA5CE3C501B4010E94BA359B0137
:10316000AC01C701B6010E942233F1016487758763
:103170008687978728E431EE4AE75FE360857185AB
:10318000828593850E94BA356B017C012AE037ED78
:1031900043EA5CE3C301B2010E94BA359B01AC0172
:1031A000C701B6010E942233D10118966D937D9319
:1031B0008D939C931B9768960FB6F894DEBF0FBE55
:1031C000CDBFDF91CF911F910F91FF90EF90DF90D6
:1031D000CF90BF90AF909F908F907F906F905F90B7
:1031E0004F903F902F9008950F931F93CF93DF93AD
:1031F0001F92CDB7DEB78C0169830E949116698159
:103200006230E1F050F4662399F0613049F5F8013D
:10321000608D718D828D938D26C06430D9F0A0F0C1
:103220006530F1F4F80160897189828993891BC046
:10323000F801648975898689978915C0F801648DBC
:10324000758D868D978D0FC0F8016085718582859B
:10325000938509C0F801648575858685978503C0C7
:1032600060E070E0CB010F90DF91CF911F910F9143
:1032700008950F931F93CF93DF931F92CDB7DEB7BF
:103280008C0169830E9439256981C8010F90DF9103
:10329000CF911F910F910C943A250C943A25CF931E
:1032A000DF93EC010E94542581110FC062E0CE0132
:1032B0000E94CB25CE010E948225CE010E9433269A
:1032C0008C83CE010E9433268D83DF91CF910895A8
:1032D000CF93DF93EC0161110E944F198C8190E034
:1032E000DF91CF910895CF93DF93EC0161110E949C
:1032F0004F198D8190E0DF91CF9108951F920F9229
:103300000FB60F9211240F931F932F933F934F9358
:103310005F936F937F938F939F93AF93BF93CF935D
:10332000EF93FF9380916F030E94692EC82F209125
:103330007603309177032F5F3F4F309377032093CD
:1033400076038091DC03843618F085E08093710366
:1033500090917103933079F018F4923039F070C085
:10336000943011F1953009F44AC06AC0C11168C0A7
:103370001092DC0329C0C13009F062C0E091DC0387
:1033800081E08E0F8093DC03F0E0809176039091D2
:103390007703E059FC4F80871092770310927603F1
:1033A00084E0809371034CC0C11114C0E091DC0330
:1033B00081E08E0F8093DC03F0E0809176039091A2
:1033C0007703E059FC4F80871092770310927603C1
:1033D00083E0E7CF8091760390917703853691055E
:1033E00078F185E0809371030E94B82C609372039A
:1033F00070937303809374039093750321C00E94AC
:10340000B82C0091720310917303209174033091D2
:103410007503601B710B820B930B693C7105810571
:10342000910540F01092DC0310927703109276031E
:1034300082E0B7CFC11104C01092770310927603D7
:10344000FF91EF91CF91BF91AF919F918F917F911C
:103450006F915F914F913F912F911F910F910F901D
:103460000FBE0F901F90189560936F0380916F03AC
:1034700060E00E94FA2D80916F038093700308959D
:1034800080916F03861759F060936F0380916F03EB
:1034900060E00E94FA2D80916F038093700308957D
:1034A00021E0FC018285861320E0822F0895F894A4
:1034B00082E08093B0008093B10094E69093B300D3
:1034C0001092B2008093700078941092DC03809385
:1034D000710308951F93CF93DF93FC01A681B781F9
:1034E0008C9186588D3558F480859185833091056F
:1034F000A1F411968C9111978152893118F080E0D6
:1035000090E044C012968C9188508730C0F71582A5
:1035100081E0808381E090E039C0833491057CF3C1
:1035200011968C91119783548F3248F782E090E086
:1035300040E050E0BA019D012F5F3F4FEC01CA0F00
:10354000DB1FC881C850C730D0F6E901C80FD91FAA
:1035500018811751133180F47695679557954795E3
:10356000706802968234910549F780E28583418331
:10357000528363837483CCCFC881C850C73008F0AE
:10358000BECF7695679557954795EBCFDF91CF9155
:103590001F9108950F931F93CF93DF93EC0188E75A
:1035A00093E09F838E838091DC0390E099878887E6
:1035B00080917103853081F4CE010E946A1A8C01DA
:1035C000CE010115110529F00E94571A01E010E003
:1035D00005C00E94571A02C000E010E0C801DF9148
:1035E000CF911F910F9108950F931F93CF93DF9366
:1035F000EC010E94CA1A892B69F00E94B82C6093D2
:103600006B0370936C0380936D0390936E038B81B7
:103610008A8714C00E94B82C00916B0310916C0330
:1036200020916D0330916E03601B710B820B930B25
:10363000693C71058105910508F01A86DF91CF91EB
:103640001F910F9108950F931F93CF93DF931F92B4
:10365000CDB7DEB78C0169830E943925F801158248
:103660001682178210861186128613866981C80118
:103670000F90DF91CF911F910F910C943A250C94EC
:103680003A25CF93DF93EC010E945425811111C09C
:1036900062E0CE010E94CB25CE010E948225CE01A0
:1036A0000E9433268C8388E293E20E940F2D8C8146
:1036B00001C080E0DF91CF910895CF93DF93EC01BB
:1036C0000E945425811123C063E0CE010E94CB25C6
:1036D000CE010E94542581111AC06E81CE010E9434
:1036E000CB256F81CE010E94CB256885CE010E943B
:1036F000CB256985CE010E94CB256A85CE010E942B
:10370000CB256B85CE01DF91CF910C94CB25DF913A
:10371000CF9108950F93FC0160FF03C04683278378
:10372000008761FF03C0418722870387637021F010
:10373000CF010F910C945D1B0F9108951F93CF93B0
:10374000DF93EC01162F0E945425811111C064E013
:10375000CE010E94CB25CE010E945425811108C0C4
:103760001D836D81CE01DF91CF911F910C94CB25EC
:10377000DF91CF911F910895FC01658161600C94E8
:103780009E1BFC0165816E7F0C949E1BFC01658174
:1037900062600C949E1BFC0165816D7F0C949E1BE6
:1037A0000F931F93CF93DF93EC01062F142F60FF2D
:1037B00007C0442319F00E94BC1B02C00E94C11B19
:1037C00001FF0FC0CE01112331F0DF91CF911F9186
:1037D0000F910C94C61BDF91CF911F910F910C9408
:1037E000CB1BDF91CF911F910F9108950F931F93E2
:1037F000CF93DF931F92CDB7DEB78C0169830E9410
:1038000039256981C8010F90DF91CF911F910F91E8
:103810000C943A250C943A25CF93DF93EC010E9447
:103820005425811113C062E0CE010E94CB25CE0148
:103830000E948225CE010E9433268C83CE010E94F5
:1038400033268D83CE010E9433268E83DF91CF9164
:1038500008950F931F93CF93DF931F92CDB7DEB7D9
:103860008C0169830E940C1C6981662329F06130F8
:1038700031F4F801858105C0F801848102C0F801A6
:1038800086810F90DF91CF911F910F9108950F9333
:103890001F93CF93DF9300D01F92CDB7DEB78C017B
:1038A0002B834A8369830E943925F801349685E188
:1038B000DF011D928A95E9F74A81F801418F2B813A
:1038C000228F6981C8010F900F900F90DF91CF91E7
:1038D0001F910F910C943A2525E04EE00C94471C63
:1038E0000C943A25CF93DF93EC01298D80E090E092
:1038F000821730F4FE01E80FF91F14820196F8CF09
:10390000CE010E94542581110AC065E0CE010E94BB
:10391000CB2588E893E1DF91CF910C940F2DDF91B7
:10392000CF9108955F926F927F928F929F92AF9204
:10393000BF92CF92DF92EF92FF920F931F93CF939C
:10394000DF93EC01542E4901E98CF12C8A8DA62ECF
:10395000BB24A7FCB094222733272E193F092A1530
:103960003B0594F4AE14BF047CF490E0C42EDD2437
:10397000C7FCD09422273327281B390B2C153D0573
:103980001CF4C816D90694F0CE01DF91CF911F9197
:103990000F91FF90EF90DF90CF90BF90AF909F90EE
:1039A0008F907F906F905F900C94721CCE010E945C
:1039B000542562E0CE010E94CB25CE010E94542501
:1039C000002711270A191B0937016A187B08AA2446
:1039D000BB24AC18BD080615170504F517FD17C064
:1039E0000E151F05A4F4F401E00FF11F608157FCD0
:1039F00006C00C2C01C0660F0A94EAF709C070E0FB
:103A00000A2C02C0759567950A94E2F701C060E040
:103A1000CE010E94CB250F5F1F4FDDCFDF91CF91ED
:103A20001F910F91FF90EF90DF90CF90BF90AF90DC
:103A30009F908F907F906F905F9008950F931F934A
:103A4000CF93DF93EC01062F142F0E945425811190
:103A500015C063E0CE010E94CB25CE010E94542503
:103A600081110CC0602FCE010E94CB25612FCE01A9
:103A7000DF91CF911F910F910C94CB25DF91CF91C6
:103A80001F910F910895CF93DF93E62FF0E0DC01B3
:103A900059962C91599730E0E217F307C4F4242F7C
:103AA00030E05A96AC91B0E02A173B0784F4E80F57
:103AB000F91F548121E030E001C0220F4A95EAF756
:103AC000522B54834481DF91CF910C941E1DDF91C2
:103AD000CF910895CF93DF93E62FF0E0DC01599664
:103AE0002C91599730E0E217F307CCF4242F30E003
:103AF0005A96AC91B0E02A173B078CF4E80FF91FF7
:103B0000548121E030E001C0220F4A95EAF7209568
:103B1000252324834481DF91CF910C941E1DDF91D6
:103B2000CF910895FF920F931F93CF93DF93EC01F2
:103B3000F62E042F122F0E94542581111EC067E01B
:103B4000CE010E94CB25CE010E945425811115C0C3
:103B50006F2DCE010E94CB25602FCE010E94CB2578
:103B6000612FCE010E94CB2588EB9BE0DF91CF91A6
:103B70001F910F91FF900C940F2DDF91CF911F910A
:103B80000F91FF900895AF92BF92CF92DF92EF9284
:103B9000FF920F931F93CF93DF93EC01B62EA42EC9
:103BA000790100E010E0C62EDD24C7FCD094C801E6
:103BB0008C0D9D1D8B3F2FEF92071CF1298D30E05E
:103BC0008217930724F5F701208121110EC08C0183
:103BD000898D90E008171907D4F440E0602FCE01DA
:103BE0000E941E1D0F5F1F4FF3CF21526B2D600FE0
:103BF0002E3518F023E040E001C04A2DCE010E948E
:103C0000921D0A5F1F4FFFEFEF1AFF0AD0CF1FEF81
:103C10001B0D1B143CF440E0612FCE010E941E1DC1
:103C2000B12EF5CFDF91CF911F910F91FF90EF90C3
:103C3000DF90CF90BF90AF900895EF92FF920F93D7
:103C40001F93CF93DF93EC01862FF42E022F1AE0FF
:103C5000612F0E947D36E92E2FE0280F40E06FEFA4
:103C6000CE010E94921D2FE02E0D40E064E0CE01B7
:103C70000E94921D8F2D612F0E947D36192F2FE0FB
:103C8000280F40E06BE0CE010E94921D2FE0210F33
:103C900040E060E1CE010E94921D002311F044E15A
:103CA00001C040E06AE0CE01DF91CF911F910F91FA
:103CB000FF90EF900C941E1D2F923F924F925F92B7
:103CC0006F927F928F929F92AF92BF92CF92DF922C
:103CD000EF92FF920F931F93CF93DF93CDB7DEB791
:103CE0002D970FB6F894DEBF0FBECDBF8C012A0111
:103CF0003B01CE0101969C878B878AE0EB85FC8592
:103D000011928A95E9F720E030EC49E754E4C301C9
:103D1000B2010E94AF3587FD04C028E140E06FEF9B
:103D20000DC020E030E046EC52ECC301B2010E942D
:103D3000E833181654F12CE040E060E0C8010E941E
:103D4000921D28E140E064E0C8010E94921D28E134
:103D500040E069E0C8012D960FB6F894DEBF0FBEB3
:103D6000CDBFDF91CF911F910F91FF90EF90DF902A
:103D7000CF90BF90AF909F908F907F906F905F900B
:103D80004F903F902F900C94921D20E030E0A901BD
:103D9000C301B2010E94E833811102C02FE0D8CFE5
:103DA00020E030E0A901C301B2010E94E83387FF9F
:103DB00007C077FA709477F87094F1E0FD8701C03E
:103DC0001D8620E030E04AE754E4C301B2010E94BE
:103DD000EC330E9459346983C301B2010E94543408
:103DE0009B01CB0168EE73E00E948936E4E6F0E0C7
:103DF000BF010E9489366A83C901BF010E948936CA
:103E0000EAE0EE2EF12CB7010E9489366B83C901DE
:103E1000B7010E9489366C018C8320E030E040E2DB
:103E200051E4C301B2010E94BA350E945434CB015F
:103E3000B7010E9489364C018D8320E030E048ECC8
:103E400052E4C301B2010E94BA350E945434CB013E
:103E5000B7010E9489361C018E8320E030E04AE7DA
:103E600054E4C301B2010E94BA350E945434CB011C
:103E7000B7010E9489368F8380E0A82EB12CE1E043
:103E8000F0E0EC0FFD1FEA0DFB1DF080F11002C009
:103E90008F5FF3CF20E030E040E85FE3C301B20181
:103EA0000E94AF3587FD0DC0CF2CD12CFE01EA0D4D
:103EB000FB1DE280F12CFE01EA0DFB1DA380B12C5D
:103EC00005C0DD247401FF245101BB248D858130A0
:103ED00009F071C120E030E040E251E4C301B201D9
:103EE0000E94AF3587FD16C02CE040E06FEFC8019F
:103EF0000E94921D2FE02C0D40E064E0C8010E945A
:103F0000921D2FE02E0D40E0CA94CD2809F021CF5C
:103F100068E020CF20E030E040E85FE3C301B20179
:103F20000E94AF3587FDFDC1E114F10409F046C0E0
:103F3000AB2809F043C023E040E060E0C8010E94E4
:103F4000921DC6018B7F039799F42FE02C0D40E062
:103F500068E0C8010E94921D44E066E0C8010E942A
:103F60001E1D44E067E0C8010E941E1D44E021C1FF
:103F7000E4E0CE16D10499F423E140E068E0C80102
:103F80000E94921D44E065E0C8010E941E1D44E0AD
:103F900066E0C8010E941E1D44E067E0A7C123E05F
:103FA00040E060E0C8010E94921D2CE040E065E026
:103FB000C8010E94921D2FE02C0DCACEF1E0CF1651
:103FC000D10409F047C0C70101972CE040E00297F7
:103FD00090F183E0E816F10461F460E0C8010E940A
:103FE000921D20E140E064E0C8010E94921D22E1A0
:103FF0002EC194E0E916F10471F46FEFC8010E943C
:10400000921D20E140E063E0C8010E94921D23E17F
:1040100040E068E0CAC0E7E0EE16F10461F460E059
:10402000C8010E94921D20E140E064E0C8010E94A6
:10403000921D26E10CC16FEFC8010E94921D20E184
:1040400040E063E0C8010E94921D2FE02E0D40E089
:1040500069E0ABC0F2E0CF16D10409F044C02CE017
:1040600040E06FEF82E0E816F10421F0C701049709
:10407000029700F5C8010E94921D21E140E063E033
:10408000C8010E94921D2FE02E0D40E092E0E9163B
:10409000F10421F0E5E0EE16F10411F469E001C04D
:1040A00068E0C8010E94921D42E067E0C8010E94DA
:1040B0001E1D7EC0C801F1E0EF16F10449F40E9414
:1040C000921D21E140E063E0C8010E94921DB9C049
:1040D0000E94921D21E140E063E0C8010E94921D10
:1040E0002FE02E0DB4C083E0C816D10459F57FE04F
:1040F000D72EDE0CC701039722E140E062E0029771
:1041000020F097E0E916F10439F4C8010E94921DED
:104110002D2D40E068E006C0C8010E94921D2D2DA3
:1041200040E069E0C8010E94921D44E060E0C801DF
:104130000E941E1D44E061E0C8010E941E1D44E073
:1041400062E0B4CFEFE0CE0EE114F10411F42C2DB7
:10415000FFCD2CE040E06FEFC8010E94921D2C2D96
:1041600040E063E0C8010E94921D6FE0D62EDE0C95
:10417000C7018D7F2D2D40E0019711F46AE001C049
:1041800069E0C8010E94921D40E169E0C8010E94F7
:104190001E1D2D2D40E069E0F2E0EF16F10429F03C
:1041A00085E0E816F10409F054C0C8010E94921D90
:1041B00040E168E09BC020E030E048EC52E4C301FD
:1041C000B2010E94AF3587FD19C091E0C916D10434
:1041D00021F420E140E060E004C02FE02C0D40E03D
:1041E0006FEFC8010E94921D2FE02E0D40E064E0A9
:1041F000C8010E94921D2FE02A0DAACD20E030E0D8
:1042000040E251E4C301B2010E94AF355FE0952E58
:104210009C0C87FD24C0292D40E06FEFC8010E944F
:10422000921D2FE02E0D40E0CA94CD2811F463E0DA
:1042300001C064E0C8010E94921DF1E0AF16B10414
:1042400021F420E140E06AE004C02FE02A0D40E0C4
:1042500069E0C8010E94921D40E169E047C020E08A
:1042600030E040E85FE3C301B2010E94AF35292D81
:1042700040E06FEF87FD17C0C8010E94921D81E0EA
:10428000E816F10421F420E140E065E004C02FE0ED
:104290002E0D40E064E0C8010E94921D91E0A91635
:1042A000B104D9F416C0C8010E94921DE1E0EE16D7
:1042B000F10421F420E140E065E004C02FE02E0D80
:1042C00040E064E0C8010E94921DF1E0AF16B10425
:1042D00021F420E140E06AE004C02FE02A0D40E034
:1042E00069E0C8010E94921D40E164E0C8012D967A
:1042F0000FB6F894DEBF0FBECDBFDF91CF911F91F7
:104300000F91FF90EF90DF90CF90BF90AF909F9074
:104310008F907F906F905F904F903F902F900C9474
:104320001E1D2D960FB6F894DEBF0FBECDBFDF91D8
:10433000CF911F910F91FF90EF90DF90CF90BF90A2
:10434000AF909F908F907F906F905F904F903F9035
:104350002F900895FC01862F608360E00C94FA2D65
:104360000C94AA21FC0180810E94692E21E0892BF6
:1043700009F420E0822F08950F931F93CF93DF93CA
:104380001F92CDB7DEB78C0169830E943925698100
:10439000C8010F90DF91CF911F910F910C943A2596
:1043A0000C943A25CF93DF93EC010E9454258111A0
:1043B0000FC062E0CE010E94CB25CE010E94822573
:1043C000CE010E9433268C83CE010E9433268D833A
:1043D000DF91CF910895FC01648170E080E090E06E
:1043E0000E94873420E030E04FE753E40E94EC3332
:1043F0009B01AC0160E070E080E89FE30E94213304
:1044000020E030EC4FE754E40E94BA350E94593462
:10441000CB010895FC01658170E080E090E00E948E
:10442000873420E030E04FE753E40E94EC339B01F7
:10443000AC0160E070E080E89FE30E94213320E05F
:1044400030EC4FE754E40E94BA350E945934CB0156
:1044500008950F931F93CF93DF931F92CDB7DEB7CD
:104460008C0169830E94D2216981C801623039F4CC
:104470000F90DF91CF911F910F910C940A220F9012
:10448000DF91CF911F910F910C94EB210F931F930C
:10449000CF93DF931F92CDB7DEB78C0169830E9463
:1044A00039256981C8010F90DF91CF911F910F913C
:1044B0000C943A250C943A250F931F93CF93DF93D6
:1044C000EC01162F072F0E94542581111BC062E0BA
:1044D000CE010E94CB25CE010E945425811112C02D
:1044E000602FCE010E94CB25612FCE010E94CB25EB
:1044F0006CE370E080E090E0DF91CF911F910F912D
:104500000C94E72CDF91CF911F910F9108951F9389
:10451000CF93DF93EC01162F0E945425811116C012
:1045200063E0CE010E94CB25CE010E94542581116B
:104530000DC0612FCE010E94CB256CE370E080E0BE
:1045400090E0DF91CF911F910C94E72CDF91CF91F8
:104550001F910895CF93DF93EC010E9454258111A0
:104560000CC064E0CE010E94CB256CE370E080E0DB
:1045700090E0DF91CF910C94E72CDF91CF910895DB
:10458000CF93DF93EC010E94542581110CC065E0AC
:10459000CE010E94CB256CE370E080E090E0DF91DB
:1045A000CF910C94E72CDF91CF910895CF93DF93B7
:1045B000EC010E94542581110CC066E0CE010E94DE
:1045C000CB256CE370E080E090E0DF91CF910C941C
:1045D000E72CDF91CF9108951F93CF93DF93EC01E8
:1045E000162F623011F06430D9F4CE010E945425A8
:1045F000811116C067E0CE010E94CB25CE010E943A
:10460000542581110DC0612FCE010E94CB2562ED92
:1046100070E080E090E0DF91CF911F910C94E72C47
:10462000DF91CF911F910895CF93DF93EC010E940A
:10463000542581110DC068E0CE010E94CB25CE012A
:104640000E948225CE010E9433268C838C8101C07A
:1046500082E0DF91CF9108950F931F93CF93DF9363
:104660001F92CDB7DEB78C0169830E94392588E09F
:10467000F801848382E085836981C8010F90DF910E
:10468000CF911F910F910C943A250C943A25FC017F
:1046900064830895CF93DF93EC010E945425811128
:1046A0000AC064E0CE010E94CB2588EB9BE0DF913D
:1046B000CF910C940F2DDF91CF910895EF92FF923F
:1046C0000F931F93CF93DF93EC01E62EF42E890115
:1046D0000E94542581112DC062E0CE010E94CB259D
:1046E000CE010E945425811124C06C81CE010E940C
:1046F000CB256E2DCE010E94CB256F2DCE010E94C1
:10470000CB25F12CF801EF0DF11D6081CE01662360
:1047100021F00E94CB25F394F5CF0E94CB2588EBA6
:104720009BE0DF91CF911F910F91FF90EF900C9440
:104730000F2DDF91CF911F910F91FF90EF90089572
:10474000FF920F931F93CF93DF93EC01F62E042F6C
:10475000122F0E945425811122C065E0CE010E94D3
:10476000CB25CE010E945425811119C06C81CE0148
:104770000E94CB256F2DCE010E94CB25602FCE014C
:104780000E94CB25612FCE010E94CB2588EB9BE0B8
:10479000DF91CF911F910F91FF900C940F2DDF911E
:1047A000CF911F910F91FF9008952F923F924F92BA
:1047B0005F926F927F928F929F92AF92BF92CF92B1
:1047C000DF92EF92FF920F931F93CF93DF9300D06E
:1047D00000D0CDB7DEB71C016B834C834801590173
:1047E00020E030E0A901C501B4010E94E833811145
:1047F0001CC020E04C816B81C1010F900F900F9085
:104800000F90DF91CF911F910F91FF90EF90DF906C
:10481000CF90BF90AF909F908F907F906F905F9060
:104820004F903F902F900C94A02320E030E0A901FE
:10483000C501B4010E94E83387FF0DC02DEF4C8104
:104840006B81C1010E94A0238B81885F8B83B7FAA3
:10485000B094B7F8B094C501B4010E9454346B0110
:104860007C010E9487349B01AC01C501B4010E9408
:1048700021334B015C011C141D041E041F040CF0A9
:1048800097C0412C8AEC582E8AE9682E8BE3782E4B
:10489000C701B601A30192010E94BF36232B242B2E
:1048A000252B59F4C301B2012AE030E040E050E08A
:1048B0000E94BF3629013A01EBCFF2E04F165104B6
:1048C0006104710424F1C701B601A30192010E94A1
:1048D000BF36162F082F392F4C816B81C1013A83C7
:1048E00079830E94A023C12E7981D72EE02E3A81B0
:1048F000F32EC301B2012AE030E040E050E00E9414
:10490000BF3629013A01EB81E85FEB83D6CF2C2D2E
:104910004C816B81C1010E94A02320E030E0A901FD
:10492000C501B4010E94AF3518160CF08BC0F1011F
:104930008581882309F486C06B81685F2EEF4C81E6
:10494000C1010E94A0237B80F0E17F0E10E0F10105
:104950008581181708F076C020E030E040E251E48D
:10496000C501B4010E94BA356B017C010E94593423
:10497000062F262F4C81672DC1010E94A023602F96
:1049800070E080E090E00E9487349B01AC01C70199
:10499000B6010E9421334B015C01F8E07F0E1F5FDE
:1049A00020E030E0A9010E94AF35181684F24AC019
:1049B000F1018581882309F445C020E04C816B8199
:1049C000C1010E94A0236B81685F2EEF4C81C10161
:1049D0000E94A0237B80F0E17F0EF101158210E0A0
:1049E00020E030E0A901C501B4010E94AF351816DE
:1049F0004CF5F1018581181728F520E030E040E200
:104A000051E4C501B4010E94BA356B017C010E94DA
:104A10005934062F262F4C81672DC1010E94A023F7
:104A2000602F70E080E090E00E9487349B01AC0131
:104A3000C701B6010E9421334B015C01F8E07F0EF3
:104A40001F5FCECF0F900F900F900F90DF91CF91FF
:104A50001F910F91FF90EF90DF90CF90BF90AF909C
:104A60009F908F907F906F905F904F903F902F908E
:104A700008950895DC016C9370E0FB01E655FF4F4B
:104A8000E4911196EC931197FB01E254FF4FE491EE
:104A9000F0E0EE0FFF1FEE52FF4F859194911396B9
:104AA0009C938E9312970895FF920F931F93CF9329
:104AB000DF938C01FC01F180C281D38189818F2930
:104AC00089839A818F2D809589238A8380EE91E056
:104AD0000E940F2D60E0F80180810E94FA2D82E390
:104AE00090E00E940F2DC88184E690E00E940F2D77
:104AF000FC2281E009F480E0DF91CF911F910F91BA
:104B0000FF900895AF92BF92CF92DF92EF92FF9203
:104B10000F931F93CF93DF938C01FC01B180C2816F
:104B2000D3810E94B82C6B017C018981AB2CA094AD
:104B30008A2189838A818B298A8388818B2169F0E4
:104B40000E94B82C6C197D098E099F096536710584
:104B50008105910590F380E013C088818B21E9F3F2
:104B600089818B2989838A818A218A838EE190E0D9
:104B70000E940F2D60E0F80180810E94FA2D81E0F3
:104B8000DF91CF911F910F91FF90EF90DF90CF9029
:104B9000BF90AF9008950F931F93CF93DF93EC01D5
:104BA000062F18E0F89460E088810E94332E61E0BF
:104BB00088810E94FA2D85E090E00E940F2D00FF71
:104BC00002C061E001C060E088810E94332E06953A
:104BD00078948EE190E00E940F2D61E088810E9420
:104BE000332E85E090E00E940F2D1150D9F660E041
:104BF0008881DF91CF911F910F910C94FA2DCF9264
:104C0000DF92EF92FF921F93CF93DF93FC0111810C
:104C1000C281D3810E94B82C6B017C0188818123E1
:104C200059F00E94B82C6C197D098E099F096430D7
:104C300071058105910590F3F8948EE190E00E9452
:104C40000F2DC881789488E290E00E940F2D1C23DC
:104C500081E009F480E0DF91CF911F91FF90EF9008
:104C6000DF90CF9008950F931F93CF93DF93EC01C4
:104C700060E088810E94FA2D08E010E0CE010E94D9
:104C8000FF2520E8829FC00111241695182B0150A2
:104C9000A9F7812FDF91CF911F910F9108950F9365
:104CA0001F93CF93DF931F92CDB7DEB78C0169833B
:104CB0000E9439256981C8010F90DF91CF911F9122
:104CC0000F910C943A250C943A25CF93DF93EC0185
:104CD0000E94542581110DC062E0CE010E94CB25B7
:104CE000CE010E948225CE010E9433268C838C81C6
:104CF00001C080E0DF91CF9108950F931F93CF9370
:104D0000DF931F92CDB7DEB78C0169830E943925EE
:104D10006981C8010F90DF91CF911F910F910C9481
:104D20003A250C943A25CF93DF93EC010E94542549
:104D300081110DC062E0CE010E94CB25CE010E9400
:104D40008225CE010E9433268C838C8101C080E0B5
:104D5000DF91CF9108950F931F93CF93DF931F920D
:104D6000CDB7DEB78C0169830E9439256981C801FE
:104D70000F90DF91CF911F910F910C943A250C94D5
:104D80003A251F93CF93DF93EC01162F0E945425F1
:104D900081110EC062E0CE010E94CB25CE010E949F
:104DA0005425612FCE01DF91CF911F910C94CB251B
:104DB000DF91CF911F910895EF92FF920F931F9370
:104DC000CF93DF931F92CDB7DEB77C01DC01129643
:104DD0008D919C911397062F10E0009749F02D912B
:104DE0003C912017310779F169830E94AA376981C4
:104DF000F70111830083F3E06F9FC00111240E942B
:104E00001237D70113969C938E931297892B21F416
:104E10008EE591E00E94633880E090E0F7014081E8
:104E200051819A01220F331F240F351F82179307D8
:104E300050F4D7011296ED91FC911397E80FF91FEA
:104E400010820196EBCF0F90DF91CF911F910F91C0
:104E5000FF90EF900895CF93DF93EC01862F262FDC
:104E600030E0F901E655FF4FE491E887F901E2549B
:104E7000FF4FE491F0E0EE0FFF1FE452FF4F25914A
:104E800034913D832C8361E00E94FA2D60E2CE01D3
:104E9000DF91CF910C94DC26CF93DF93EC01862F2A
:104EA000262F30E0F901E655FF4FE491E887F9013C
:104EB000E254FF4FE491F0E0EE0FFF1FE452FF4F8A
:104EC000259134913D832C8361E00E94FA2D60E2AC
:104ED000CE01DF91CF910C94DC260F93FC01A62F1D
:104EE000B0E080819181A817B907B8F4862F880FA8
:104EF000860F90E0A281B381A80FB91F2C93A281E5
:104F0000B381A80FB91F11964C930280F381E02D55
:104F1000E80FF91F028381E001C080E00F9108953E
:104F2000CF92DF92EF92FF920F931F93CF93DF9375
:104F30007C01142FD22EC02E611113C0C0E0D0E02E
:104F4000F70180819181C817D90748F40C2D2D2DC8
:104F5000412F6C2FC7010E946D272196F1CF81E070
:104F600004C061500E946D2780E0DF91CF911F91B6
:104F70000F91FF90EF90DF90CF9008950F931F93C4
:104F8000D8013FB7F8949C91822F80958923292BD3
:104F9000FB01460F571FE417F50781F0919168E078
:104FA0002C9300C097FF8C93990F00C000C000C0E5
:104FB00008F48C9300C06A9599F7EDCF3FBF1F911D
:104FC0000F9108950F931F93FC0104811581208197
:104FD0003181A901440F551F420F531F6281738114
:104FE00020850E94BE2761E070E080E090E01F9184
:104FF0000F910C94E72CCF93DF93EC018A819B8176
:105000000E94AA371B821A82DF91CF9108950F93D5
:105010001F93CF93DF931F92CDB7DEB78C016983C7
:105020000E943925F80134968FE0DF011D928A95A0
:10503000E9F76981C8010F90DF91CF911F910F911E
:105040000C943A250C943A250F93611116C060E038
:1050500070E0FC01E60FF71F2483FB013196E80F97
:10506000F91F4483FB013296E80FF91F04836D5F3B
:105070007F4F6F30710569F718C06630B0F470E08B
:1050800061507109E62FEE0FE60FF0E0DC01AE0F84
:10509000BF1F14962C93DF011196A80FB91F149609
:1050A0004C933296E80FF91F04830F9108950F93E4
:1050B0001F93CF93DF93EC010E945425811117C0F9
:1050C00062E0CE010E94CB25CE010E9454258111C1
:1050D0000EC000E010E0FE01E00FF11F6481CE0180
:1050E0000E94CB250F5F1F4F0F301105A1F7DF91F5
:1050F000CF911F910F910895FC0160830895FC01E9
:10510000608308950C947C28FC0180810E94552DB9
:105110002FEF33E0A901481B590BCA0108950F93E3
:105120001F93CF93DF931F92CDB7DEB78C016983B6
:105130000E94DD0E6981F8016687C8010F90DF913A
:10514000CF911F910F910C94DE0E0C94DE0ECF9236
:10515000DF92EF92FF920F931F93CF93DF93CDB720
:10516000DEB72C970FB6F894DEBF0FBECDBF8C0113
:105170000E94100FC8010E941C1040E064E4C801A6
:105180000E94B60F0E94B82C6B017C01C8010E94DE
:10519000F40E81110BC00E94B82C6C197D098E0988
:1051A0009F096E3E72408105910580F3C8010E94FF
:1051B000100FC8010E941C1040E06EEBC8010E9455
:1051C000B60FCE0101967C016E0196E0C90ED11C8E
:1051D000C8010E940010F70181937F01EC15FD05C5
:1051E000B9F76A8170E0762F66278981682B882756
:1051F00077FD8095982F0E94873420E030E040E8CA
:105200005DE30E94BA352C960FB6F894DEBF0FBE50
:10521000CDBFDF91CF911F910F91FF90EF90DF9065
:10522000CF9008950F931F93CF93DF931F92CDB725
:10523000DEB78C0169830E9439256981C8010F900E
:10524000DF91CF911F910F910C943A250C943A2540
:10525000CF93DF93EC010E94542581110DC062E0D1
:10526000CE010E94CB25CE010E948225CE010E9454
:1052700033268C838C8101C080E0DF91CF9108952B
:105280000F931F93CF93DF931F92CDB7DEB78C019F
:1052900069830E9439256981C8010F90DF91CF9100
:1052A0001F910F910C943A250C943A25CF93DF93DC
:1052B000EC010E94542581110DC062E0CE010E94D4
:1052C000CB25CE010E948225CE010E9433268C83FD
:1052D0008C8101C080E0DF91CF910895CF93DF935F
:1052E000EC010E94542581110FC064E0CE010E94A0
:1052F000CB25CE010E945425811106C06C85CE01BC
:10530000DF91CF910C94CB25DF91CF9108950F932E
:105310001F93CF93DF931F92CDB7DEB78C016983C4
:105320000E943925F801168217821086118612868E
:10533000138614866981C8010F90DF91CF911F9168
:105340000F910C943A250C943A25CF92DF92EF926C
:10535000FF92CF93DF93EC010E945425882339F00C
:10536000C12CD12C8AEFE82E83E4F82E27C062E00E
:10537000CE010E94CB25CE010E948225CE010E9443
:1053800033268C83CE010E9433268D838D816C81E0
:1053900070E0782B80E090E00E9485342CE53FE8B7
:1053A0004CE851E40E94EC336B017C0120E030E0DA
:1053B0004AEF53E40E94AF35181694F2C701B601C4
:1053C000DF91CF91FF90EF90DF90CF900895CF9332
:1053D000DF93EC010E945425811123C063E0CE01CC
:1053E0000E94CB25CE010E94542581111AC06E81E6
:1053F000CE010E94CB256F81CE010E94CB2568850E
:10540000CE010E94CB256985CE010E94CB256A85FD
:10541000CE010E94CB256B85CE01DF91CF910C94FC
:10542000CB25DF91CF910895FC01668347832087C8
:105430000C94E729FC016187428723870C94E729B4
:105440000F93FC0160FF03C046832783008761FF41
:1054500003C0418722870387637021F0CF010F913A
:105460000C94E7290F910895637061F0FC01248585
:10547000442319F0262B248703C060956223648798
:105480000C946E2908950F931F93CF93DF931F926F
:10549000CDB7DEB78C0169830E9439256981C801C7
:1054A0000F90DF91CF911F910F910C943A250C949E
:1054B0003A250F931F93CF93DF931F92CDB7DEB79B
:1054C0008C0169830E945425698181110DC0662376
:1054D00011F062E001C063E0C8010F90DF91CF914D
:1054E0001F910F910C94CB250F90DF91CF911F91BD
:1054F0000F9108951F920F920FB60F9211242F93C0
:105500003F934F935F936F937F938F939F93AF934B
:10551000BF93EF93FF938091DE0387FF05C0109246
:105520008500109284001AC02091DE03332727FDE6
:1055300030958091DD0390E0281739077CF4809145
:10554000DE03992787FD9095FC01EE0FFF1FE80F02
:10555000F91FE152FC4F808187FD15C08091DE0369
:105560008F5F8093DE032091DE03332727FD309584
:105570008091DD0390E028173907BCF48091DE03A9
:105580008C305CF112C08091DE03992787FD9095E5
:10559000FC01EE0FFF1FE80FF91FE152FC4F808165
:1055A00060E08F770E94332ED9CF80918400909154
:1055B0008500049680349C4918F480E49CE905C079
:1055C0008091840090918500049690938900809347
:1055D00088008FEF8093DE0338C0209184003091E3
:1055E00085008091DE03992787FD9095FC01EE0FE1
:1055F000FF1FE80FF91FE152FC4F81819281820F5A
:10560000931F90938900809388008091DE039927EF
:1056100087FD9095FC01EE0FFF1FE80FF91FE15287
:10562000FC4F808187FF11C08091DE03992787FDA1
:105630009095FC01EE0FFF1FE80FF91FE152FC4FA0
:10564000808161E08F770E94332EFF91EF91BF91AF
:10565000AF919F918F917F916F915F914F913F910A
:105660002F910F900FBE0F901F9018952091DD0382
:105670002C30A0F431E0320F3093DD03FC012083A5
:10568000822F90E0FC01EE0FFF1FE80FF91FE1529F
:10569000FC4F88EB9BE09283818308952FEFFC0100
:1056A00020830895DF92EF92FF920F931F93CF9381
:1056B000DF93EC01D62E7A01890188818C3008F0C5
:1056C00066C061E08D2D0E94FA2D8881A82FB0E080
:1056D000FD01EE0FFF1FEA0FFB1FE152FC4F2D2DC6
:1056E0002F7790819078922B908360E272E06E1910
:1056F0007F0977FF02C06D5F7F4F75956795759540
:105700006795698340E659E0401B510B57FF02C083
:105710004D5F5F4F55954795559547954A836CE08A
:105720000E947D369CE0899FB001112420E030E08A
:10573000A901460F571FFA01EE0FFF1FE40FF51FD7
:10574000E152FC4F908197FD16C02F5F3F4F2C30E8
:10575000310571F781110FC01092800082E08093B3
:1057600081001092850010928400B19A80916F00A0
:10577000826080936F00888190E0FC01EE0FFF1F34
:10578000E80FF91FE152FC4F808180688083888197
:10579000DF91CF911F910F91FF90EF90DF900895CF
:1057A00020E639E040E252E00C94522BFC0180816B
:1057B0008C3070F5918128E830E0291B310997FD84
:1057C0003395220F331F220F331F621773077CF0AC
:1057D000928128E532E0291B310997FD3395220F8C
:1057E000331F220F331F621773070CF49B012250E3
:1057F0003109220F331F4FB7F89490E0FC01EE0FF0
:10580000FF1FE80FF91FE152FC4F328321834FBF86
:1058100008954F925F926F927F92AF92BF92CF9214
:10582000DF92EF92FF920F931F93CF93DF93EC01E0
:10583000603282E078070CF040C077FD06C0653B1F
:1058400071052CF064EB70E002C060E070E08981CB
:1058500028E830E0281B310987FD3395220F331FDC
:10586000220F331F5901CC24B7FCC094DC2C8827AD
:1058700077FD8095982F2A8148E552E0421B510917
:1058800027FD5395440F551F440F551F2A016624C9
:1058900057FC6094762C7F926F925F924F9214EB3C
:1058A000E12EF12C00E010E020E030E0A9010E94A0
:1058B000D9320F900F900F900F90CE01DF91CF91C2
:1058C0001F910F91FF90EF90DF90CF90BF90AF901E
:1058D0007F906F905F904F900C94D62B1F920F92F9
:1058E0000FB60F9211242F933F938F939F93AF93F3
:1058F000BF938091040490910504A0910604B09197
:1059000007043091030423E0230F2D3720F4019680
:10591000A11DB11D05C026E8230F0296A11DB11DD2
:10592000209303048093040490930504A093060439
:10593000B09307048091080490910904A0910A048F
:10594000B0910B040196A11DB11D809308049093A2
:105950000904A0930A04B0930B04BF91AF919F91E7
:105960008F913F912F910F900FBE0F901F90189520
:105970002FB7F89460910404709105048091060497
:10598000909107042FBF08953FB7F89480910804C1
:1059900090910904A0910A04B0910B0426B5A89B2C
:1059A00005C02F3F19F00196A11DB11D3FBF66270D
:1059B000782F892F9A2F620F711D811D911D42E052
:1059C000660F771F881F991F4A95D1F70895CF92C8
:1059D000DF92EF92FF92CF93DF936B017C010E94E5
:1059E000C42CEB01C114D104E104F10489F00E943C
:1059F00020330E94C42C6C1B7D0B683E734090F3D7
:105A000081E0C81AD108E108F108C851DC4FEACF9B
:105A1000DF91CF91FF90EF90DF90CF90089582308B
:105A2000910538F0880F991F880F991F05970197E6
:105A3000F1F70895789484B5826084BD84B581605F
:105A400084BD85B5826085BD85B5816085BDEEE686
:105A5000F0E0808181608083E1E8F0E01082808165
:105A600082608083808181608083E0E8F0E08081D3
:105A700081608083E1EBF0E0808184608083E0EBF3
:105A8000F0E0808181608083EAE7F0E080818460DB
:105A90008083808182608083808181608083808137
:105AA000806880831092C10008958E3008F08E5077
:105AB00087702091220190E4299F90011124822B6C
:105AC00080937C0080917A00806480937A0080913A
:105AD0007A0086FDFCCF809178002091790090E0DB
