:100000000C949F000C94C7000C94C7000C94C7007C
:100010000C94C7000C94C7000C94C7000C9453199F
:100020000C94C7000C94C7000C94C7000C94802A51
:100030000C94C7000C94C7000C94C7000C94C70024
:100040000C94742C0C94C7000C94DD2F0C940F307E
:100050000C94C7000C94C7000C94C7000C94C70004
:100060000C94C7000C94C700084AD73B3BCE016EE6
:1000700084BCBFFDC12F3D6C74319ABD56833DDAFF
:100080003D00C77F11BED9E4BB4C3E916BAAAABE0E
:10009000000000803F000000000800020100000393
:1000A0000407000000000000000001020408102006
:1000B00040800102040810200102040810200404FA
:1000C0000404040404040202020202020303030300
:1000D00003030000000023002600290000000000A8
:1000E000250028002B0000000000240027002A0023
:1000F0006364696E6F70737578585B004E414E494A
:100100004E495459494E46CDCCCC3D0AD7233C17D5
:10011000B7D13877CC2B329595E6241FB14F0A0022
:100120000020410000C84200401C4620BCBE4CCA12
:100130001B0E5AAEC59D7400C40D3F30680E1124CD
:100140001FBECFEFD8E0DEBFCDBF11E0A0E0B1E031
:10015000E0E2FBE702C005900D92AC39B107D9F798
:1001600024E0ACE9B1E001C01D92AD3CB207E1F77B
:1001700011E0CCE3D1E004C02297FE010E940537D4
:10018000C833D107C9F70E9483300C94833D0C9487
:10019000000061E080E393E00E94911460E070E071
:1001A00080E393E00E94D71462E080E393E00E9432
:1001B000911460E070E080E393E00C94D7144AE07F
:1001C00050E062E070E084E294E00C949031089595
:1001D000CF93DF93EEE1F2E0C0E0D0E04191242F35
:1001E00030E028173907C9F0411110C0FE01E25E66
:1001F000FD4F80839E01220F331F2C0F3D1FBC013A
:10020000C901885D9D4F0E94D62B07C02196CA3038
:10021000D10521F780E090E001C0CE01DF91CF91C0
:100220000895EF92FF920F931F93CF93DF93EB010B
:10023000FC016081613401F5FF92EF921F930F93EF
:100240003F932F935F934F93DF93CF932BE331E053
:100250003F932F939F938F930E9496388881998123
:100260000E96998388838DB79EB70E960FB6F89435
:100270009EBF0FBE8DBF1AC0FF92EF921F930F93C8
:100280003F932F935F934F93DF93CF932CE331E012
:100290003F932F939F938F930E9496388DB79EB76D
:1002A0000E960FB6F8949EBF0FBE8DBFDF91CF9113
:1002B0001F910F91FF90EF900895DC01ED91FC915B
:1002C00011979F012F5F3F4F2D933C932081203248
:1002D000A1F70895EF92FF920F931F93CF93DF93AF
:1002E000CDB7DEB72C970FB6F894DEBF0FBECDBFEB
:1002F0009C878B87CE010B960E945D01CE010196F3
:100300007C018E010D5F1F4F9E012B5F3F4FAE01A1
:10031000495F5F4FBE01675F7F4F8B859C850E9461
:10032000110169858EE093E00E943F2709812B81AE
:100330004D816F818EE093E00E9483278EE093E0F1
:100340000E94D5272C960FB6F894DEBF0FBECDBF06
:10035000DF91CF911F910F91FF90EF900895EF9251
:10036000FF920F931F93CF93DF93CDB7DEB72C97F8
:100370000FB6F894DEBF0FBECDBF9C878B87CE0132
:100380000B960E945D01CE0101967C018E010D5FEE
:100390001F4F9E012B5F3F4FAE01495F5F4FBE0174
:1003A000675F7F4F8B859C850E94110169858BEF6C
:1003B00092E00E94152809812B814D816F818BEF7E
:1003C00092E00E9417288BEF92E00E944A282C9618
:1003D0000FB6F894DEBF0FBECDBFDF91CF911F9156
:1003E0000F91FF90EF900895CF93DF93EC010E945F
:1003F0005D0188819981DF91CF910C944338CF932F
:10040000DF9300D0CDB7DEB79A838983CE01019602
:100410000E94F401682F80E393E00E949114CE01C2
:1004200001960E94F401BC0180E393E00E94D7147E
:100430000F900F90DF91CF910895CF93DF9300D06D
:10044000CDB7DEB79A838983CE0101960E94F4016D
:10045000682F86E293E00E94F50FCE0101960E947C
:10046000F401BC0186E293E00E941A100F900F90F5
:10047000DF91CF910895EF92FF920F931F93CF9347
:10048000DF9300D0CDB7DEB79A838983CE01019682
:100490000E94F4017C01CE0101960E94F4018C01BE
:1004A000C7010E94E800053B110558F49C01220F8A
:1004B000331F280F391FB801C901885D9D4F0E9465
:1004C0000F2C0F900F90DF91CF911F910F91FF9004
:1004D000EF900895CF93DF9300D0CDB7DEB79A8326
:1004E000898362E080E393E00E949114CE0101963B
:1004F0000E94F401BC0180E393E00E94D71461E004
:1005000080E393E00E949114CE0101960E94F401D1
:10051000BC0180E393E00E94D7140F900F90DF910D
:10052000CF9108951F93CF93DF9300D0CDB7DEB75F
:100530009A838983CE0101960E94F401182F60E00E
:100540000E94002E812F0E945B2D4AE050E0BC01EA
:1005500084E294E00E9490310F900F90DF91CF9150
:100560001F9108951F93CF93DF9300D0CDB7DEB7CF
:100570009A838983CE0101960E94F401182F60E0CE
:100580000E94002E812F0E945B2D4AE050E0BC01AA
:1005900084E294E00E9490310F900F90DF91CF9110
:1005A0001F910895CF93DF9300D0CDB7DEB79A8324
:1005B0008983CE0101960E94F401682F87E193E0C0
:1005C0000E94982887E193E00E949A28AB01BC0121
:1005D00022E030E084E294E00E94CD320F900F9050
:1005E000DF91CF9108950F931F93CF93DF9300D0A6
:1005F000CDB7DEB79A838983CE0101960E94F401BC
:100600008C01CE0101960E94F4019C01442737FD24
:100610004095542FB80185EF92E00E9446130F9049
:100620000F90DF91CF911F910F910895CF93DF939A
:1006300000D0CDB7DEB79A838983CE0101960E94A0
:10064000F401682F8CE593E00E94B5298CE593E0D6
:100650000E94B729AB01BC0122E030E084E294E0C3
:100660000E94CD320F900F90DF91CF910895CF93DC
:10067000DF9300D0CDB7DEB79A838983CE01019690
:100680000E94F401682F89E693E00E94722889E6AF
:1006900093E00E9477284AE050E0BC0184E294E0B5
:1006A0000E94CC310F900F90DF91CF9108950F935E
:1006B0001F93CF93DF9300D000D01F92CDB7DEB74A
:1006C0009A838983CE0101960E94F401682FCE019E
:1006D00001966D830E94F401182FCE0101960E94AD
:1006E000F401482FCE0101964C830E94F401282F7B
:1006F000CE0101962B830E94F401082F6D818AE6BA
:1007000093E00E94141B2B814C81612F8AE693E0B9
:100710000E945F1B0F900F900F900F900F90DF9132
:10072000CF911F910F9108950F931F93CF93DF9354
:1007300000D000D01F92CDB7DEB79A838983CE0157
:1007400001960E94F401682FCE0101966D830E94EC
:10075000F401182FCE0101960E94F401482FCE011A
:1007600001964C830E94F401282FCE0101962B8321
:100770000E94F401082F6D818CE593E00E94B52959
:100780002B814C81612F8CE593E00E94262A0F90EB
:100790000F900F900F900F90DF91CF911F910F91BD
:1007A0000895FF920F931F93CF93DF9300D01F9272
:1007B000CDB7DEB79A838983CE0101960E94F401FA
:1007C000682FCE0101966B830E94F401F82ECE01B2
:1007D00001960E94F4018C016B818AE693E00E94ED
:1007E000141B41E0012B09F440E06F2D8AE693E0F1
:1007F0000E94A51B0F900F900F90DF91CF911F913A
:100800000F91FF900895FF920F931F93CF93DF9363
:1008100000D01F92CDB7DEB79A838983CE010196AF
:100820000E94F401682FCE0101966B830E94F401AF
:10083000F82ECE0101960E94F4018C016B818CE5AB
:1008400093E00E94B52941E0012B09F440E06F2DAF
:100850008CE593E00E943A2A0F900F900F90DF9161
:10086000CF911F910F91FF9008951F93CF93DF9326
:1008700000D01F92CDB7DEB79A838983CE0101964F
:100880000E94F401682FCE0101966B830E94F4014F
:10089000182F6B8186E593E00E94C321612F86E5C6
:1008A00093E00E941C224AE050E0BC0184E294E004
:1008B0000E94CC310F900F900F90DF91CF911F913C
:1008C0000895FF920F931F93CF93DF9300D000D032
:1008D000CDB7DEB79A838983CE0101960E94F401D9
:1008E000682FCE0101966C830E94F401F82ECE0190
:1008F00001960E94F401482FCE0101964B830E947D
:10090000F4018C016C818BE393E00E94451C21E093
:100910004B81012B09F420E06F2D8BE393E00E94C3
:10092000F21D0F900F900F900F90DF91CF911F91BC
:100930000F91FF9008951F93CF93DF9300D000D0C5
:10094000CDB7DEB79A838983CE0101960E94F40168
:10095000682FCE0101966C830E94F401182FCE01FE
:1009600001960E94F401482FCE0101964B830E940C
:100970005D016C818BE393E00E94451C29813A81E3
:100980004B81612F8BE393E00E94981D0F900F9095
:100990000F900F90DF91CF911F9108959F92AF928A
:1009A000BF92CF92DF92EF92FF920F931F93CF935C
:1009B000DF93CDB7DEB767970FB6F894DEBF0FBEF3
:1009C000CDBF9F8B8E8B8E010A5E1F4FC8010E9488
:1009D000F401982EC8010E94F401D82EC8010E948B
:1009E000F401C82ECE0101967C015C01C8010E9471
:1009F000F401F70181937F01E017F107B9F7692D41
:100A00008BE393E00E94451C95014C2D6D2D8BE3EB
:100A100093E00E94671C67960FB6F894DEBF0FBE86
:100A2000CDBFDF91CF911F910F91FF90EF90DF909D
:100A3000CF90BF90AF909F9008951F93CF93DF9377
:100A400000D01F92CDB7DEB79A838983CE0101967D
:100A50000E94F401682FCE0101966B830E94F4017D
:100A6000182FCE0101960E94F401482F6B818BE371
:100A700093E04B830E94451C4B81612F8BE393E0F5
:100A80000E94181D0F900F900F90DF91CF911F9132
:100A900008951F93CF93DF9300D01F92CDB7DEB799
:100AA0009A838983CE0101960E94F401682FCE01BA
:100AB00001966B830E94F401182FCE0101960E94CB
:100AC000F401482F6B818BE393E04B830E94451C1C
:100AD0004B81612F8BE393E00E943F1D0F900F909D
:100AE0000F90DF91CF911F910895CF93DF9300D0A6
:100AF000CDB7DEB79A838983CE0101960E94F401B7
:100B0000682F8BE393E00E94451C8BE393E00E94E7
:100B1000471C0F900F90DF91CF9108950F931F9373
:100B2000CF93DF9300D01F92CDB7DEB79A8389832E
:100B3000CE0101960E94F401682FCE0101966B83CD
:100B40000E94F4018C016B8184EE92E00E942219D4
:100B500084EE92E00E94241960E084EE92E0012B82
:100B600019F40E94481902C00E943D194AE050E061
:100B7000BC0184E294E00E94CC310F900F900F9062
:100B8000DF91CF911F910F910895CF93DF9300D004
:100B9000CDB7DEB79A838983CE0101960E94F40116
:100BA0000E945B2D4AE050E0BC0184E294E00E9488
:100BB00090310F900F90DF91CF9108950F931F9375
:100BC000CF93DF9300D0CDB7DEB79A838983CE0170
:100BD00001960E94F401182FCE0101960E94F401A3
:100BE000082F61E0812F0E94002E602F812F0E942C
:100BF000392E0F900F90DF91CF911F910F91089593
:100C0000CF93DF9300D0CDB7DEB79A838983CE012F
:100C100001960E94F401682F86EF92E00E948426DC
:100C200086EF92E00E9486264AE050E0682F84E238
:100C300094E00E94B5310F900F90DF91CF9108950D
:100C4000FF920F931F93CF93DF9300D01F92CDB7E6
:100C5000DEB79A838983CE0101960E94F401682F42
:100C6000CE0101966B830E94F401F82ECE0101960D
:100C70000E94F4018C016B818EEC92E00E94961030
:100C800041E0012B09F440E06F2D8EEC92E00E94D0
:100C900098100F900F900F90DF91CF911F910F91AF
:100CA000FF900895CF93DF9300D0CDB7DEB79A833E
:100CB0008983CE0101960E94F401682F8DEB92E0AA
:100CC0000E945F138DEB92E00E94C3130F900F9070
:100CD000DF91CF9108950F931F93CF93DF9300D0AF
:100CE0001F92CDB7DEB79A838983CE0101960E9409
:100CF000F401682FCE0101966B830E94F4018C01F0
:100D00006B818DEB92E00E945F1361E0012B09F48F
:100D100060E08DEB92E00E94D7130F900F900F9040
:100D2000DF91CF911F910F9108951F93CF93DF9380
:100D300000D01F92CDB7DEB79A838983CE0101968A
:100D40000E94F401682FCE0101966B830E94F4018A
:100D5000182F6B818DEB92E00E945F13612F8DEB5A
:100D600092E00E94F4134AE050E0BC0184E294E077
:100D70000E94CC310F900F900F90DF91CF911F9177
:100D800008951F93CF93DF9300D01F92CDB7DEB7A6
:100D90009A838983CE0101960E94F401682FCE01C7
:100DA00001966B830E94F401182F6B8186EB92E011
:100DB0000E94E715612F86EB92E00E9406164AE03A
:100DC00050E0682F84E294E00E94B5310F900F90BC
:100DD0000F90DF91CF911F9108951F93CF93DF93D1
:100DE00000D01F92CDB7DEB79A838983CE010196DA
:100DF0000E94F401682FCE0101966B830E94F401DA
:100E0000182F6B818EEA92E00E94DF1B612F8EEA21
:100E100092E00E94FE1B4AE050E0682F84E294E0DA
:100E20000E94B5310F900F900F90DF91CF911F91DD
:100E300008951F93CF93DF9300D01F92CDB7DEB7F5
:100E40009A838983CE0101960E94F401682FCE0116
:100E500001966B830E94F401182F6B818EE992E05A
:100E60000E943314612F8EE992E00E9470144AE0D0
:100E700050E0BC0184E294E00E94CC310F900F90CE
:100E80000F90DF91CF911F9108951F93CF93DF9320
:100E900000D01F92CDB7DEB79A838983CE01019629
:100EA0000E94F401682FCE0101966B830E94F40129
:100EB000182F6B818EE592E00E946416612F8EE5FB
:100EC00092E00E94C918AB01BC0122E030E084E24C
:100ED00094E00E94CD320F900F900F90DF91CF9150
:100EE0001F9108950F931F93CF93DF9300D01F920C
:100EF000CDB7DEB79A838983CE0101960E94F401B3
:100F0000682FCE0101966B830E94F4018C016B81E6
:100F100085E592E00E94B22661E0012B09F460E0D1
:100F200085E592E00E94B4260F900F900F90DF911C
:100F3000CF911F910F9108950F931F93CF93DF933C
:100F400000D01F92CDB7DEB79A838983CE01019678
:100F50000E94F401682FCE0101966B830E94F40178
:100F60008C016B8181E592E00E945D2A61E0012B9A
:100F700009F460E081E592E00E945F2A0F900F90F3
:100F80000F90DF91CF911F910F910895CF93DF9331
:100F900000D0CDB7DEB79A838983CE0101960E9437
:100FA000F401682F8CE492E00E944D228CE492E0E0
:100FB0000E94C9220F900F90DF91CF910895CF9397
:100FC000DF9300D0CDB7DEB79A838983CE01019637
:100FD0000E94F401682F8CE492E00E944D228CE480
:100FE00092E00E94B3220F900F90DF91CF9108956D
:100FF000CF93DF9300D0CDB7DEB79A838983CE013C
:1010000001960E94F401682F8CE492E00E944D2228
:101010008CE492E00E949D220F900F90DF91CF917F
:1010200008951F93CF93DF9300D01F92CDB7DEB703
:101030009A838983CE0101960E94F401682FCE0124
:1010400001966B830E94F401182F6B818CE492E06F
:101050000E944D22612F8CE492E00E94DF220F90CB
:101060000F900F90DF91CF911F9108950F931F93D1
:10107000CF93DF9300D01F92CDB7DEB79A838983D9
:10108000CE0101960E94F401682FCE0101966B8378
:101090000E94F4018C016B818CE492E00E944D224D
:1010A000B8018CE492E00E944F220F900F900F90B5
:1010B000DF91CF911F910F9108951F93CF93DF93ED
:1010C00000D01F92CDB7DEB79A838983CE010196F7
:1010D0000E94F401682FCE0101966B830E94F401F7
:1010E000182F6B818CE492E00E944D22612F8CE4DA
:1010F00092E00E947A220F900F900F90DF91CF9193
:101100001F9108951F93CF93DF9300D01F92CDB707
:10111000DEB79A838983CE0101960E94F401682F7D
:10112000CE0101966B830E94F401182F6B8186E437
:1011300092E00E943823612F86E492E00E943A23D5
:101140000F900F900F90DF91CF911F9108951F93F3
:10115000CF93DF9300D000D0CDB7DEB79A838983D9
:10116000CE0101960E94F401682FCE0101966C8396
:101170000E94F401182FCE0101960E94F401482F1D
:10118000CE0101964B830E945D016C8186E492E062
:101190000E94382329813A814B81612F86E492E0B5
:1011A0000E9451230F900F900F900F90DF91CF91DD
:1011B0001F910895CF93DF9300D0CDB7DEB79A8308
:1011C0008983CE0101960E94F401682F86E492E0A3
:1011D0000E94382386E492E00E943D230F900F90F6
:1011E000DF91CF910895CF93DF93EC010E945D01D1
:1011F00088819981DF91CF910C943F38CF92DF9213
:10120000EF92FF921F93CF93DF9300D0CDB7DEB75D
:101210009A838983CE0101960E94F401182FCE0192
:1012200001960E94F3086B017C01612F8BE393E030
:101230000E94451CB701A6018BE393E00E94311E7A
:101240000F900F90DF91CF911F91FF90EF90DF9063
:10125000CF900895CF92DF92EF92FF921F93CF939A
:10126000DF9300D0CDB7DEB79A838983CE01019694
:101270000E94F401182FCE0101960E94F3086B0121
:101280007C01612F83ED92E00E940A11B701A60153
:1012900083ED92E00E9431110F900F90DF91CF917A
:1012A0001F91FF90EF90DF90CF900895BF92CF9263
:1012B000DF92EF92FF920F931F93CF93DF9300D0B3
:1012C0001F92CDB7DEB79A838983CE0101960E9423
:1012D000F401182FCE0101960E94F401B82ECE0120
:1012E00001960E94F401482FCE0101964B830E9483
:1012F000F3086B017C01612F86E492E00E943823A1
:10130000970186014B816B2D86E492E00E94C823F1
:101310000F900F900F90DF91CF911F910F91FF9041
:10132000EF90DF90CF90BF900895882319F06CE480
:1013300071E002C061E571E084E294E00C94DB307E
:10134000CF93DF9300D0CDB7DEB79A838983CE01E8
:1013500001960E94F401682F8AEE92E00E94151A0D
:10136000CE0101960E94F401682F8AEE92E00E945D
:10137000251A0E9495090F900F90DF91CF91089543
:101380001F93CF93DF9300D0CDB7DEB79A838983C5
:10139000CE0101960E94F401182F60E00E94002EF9
:1013A000812F0E946F2E21E0892B09F020E0822FEF
:1013B0000E9495090F900F90DF91CF911F91089592
:1013C000CF93DF9300D0CDB7DEB79A838983CE0168
:1013D00001960E94F401682F8AE693E00E94141B94
:1013E0008AE693E00E94161B91E0811101C090E013
:1013F000892F0E9495090F900F90DF91CF9108954A
:10140000CF93DF9300D0CDB7DEB79A838983CE0127
:1014100001960E94F401682F8FED92E00E946629E8
:101420008FED92E00E94682991E0811101C090E067
:10143000892F0E9495090F900F90DF91CF91089509
:101440000F931F93CF93DF9300D01F92CDB7DEB7DA
:101450009A838983CE0101960E94F401682FCE0100
:1014600001966B830E94F4018C016B818EEC92E0FB
:101470000E9496108EEC92E00E94CF10282F30E050
:1014800081E02017310709F080E00E9495090F9054
:101490000F900F90DF91CF911F910F910895CF93EF
:1014A000DF9300D0CDB7DEB79A838983CE01019652
:1014B0000E94F401682F89EC92E00E94562689EC84
:1014C00092E00E94582691E0811101C090E0892F9E
:1014D0000E9495090F900F90DF91CF910895CF93BF
:1014E000DF9300D0CDB7DEB79A838983CE01019612
:1014F0000E94F401682F85EB92E00E949D2185EB0C
:1015000092E00E94A5210E9495090F900F90DF9113
:10151000CF9108951F93CF93DF9300D01F92CDB743
:10152000DEB79A838983CE0101960E94F401682F69
:10153000CE0101966B830E94F401182F6B8189E51F
:1015400092E00E941929612F89E592E00E943329D7
:101550000E9495090F900F900F90DF91CF911F91EE
:101560000895CF93DF9300D0CDB7DEB79A838983F8
:10157000CE0101960E94F401682F8CE492E00E9453
:101580004D228CE492E00E94072391E0811101C07A
:1015900090E0892F0E9495090F900F90DF91CF91D5
:1015A0000895EF92FF920F931F93CF93DF931F92B3
:1015B000CDB7DEB78C0101960E9443388032910589
:1015C00009F4C9C10CF081C08031910509F491C1C1
:1015D0000CF040C08830910509F413C104F5823045
:1015E000910509F44FC15CF4009709F405C1019716
:1015F00009F002C2EDE1EE2EE5E0FE2ECEC185300F
:10160000910509F467C18730910509F4EBC0039790
:1016100009F0F2C165E7E62E65E0F62EBEC18C301A
:10162000910509F4E4C05CF48A30910509F4EEC038
:101630000CF0B5C12AE6E22E21E0F22EAEC18E30CA
:10164000910509F44CC10CF04FC19FEAE92E91E0DD
:10165000F92EA3C18831910509F469C1DCF4843104
:10166000910509F455C15CF48231910509F446C134
:101670000CF049C142E5E42E46E0F42E8EC18631DD
:10168000910509F44AC10CF04DC18FE6E82E8AE0BD
:10169000F82E89C18C31910509F467C15CF48A3157
:1016A000910509F449C10CF04CC1EAE8EE2EEAE0DC
:1016B000FE2E79C18E31910509F452C10CF45AC144
:1016C00028EFE22E27E0F22E68C18337910509F456
:1016D000CFC00CF043C08336910509F4CEC0FCF4B2
:1016E0008332910509F44BC164F48132910509F408
:1016F0002DC1829709F080C151EBE52E5AE0F52EFD
:1017000052C18532910509F43FC10CF442C186975C
:1017100009F072C17AEDE72E78E0F72E3EC18F36E0
:10172000910509F496C07CF48D36910509F482C0C8
:101730000CF08AC08636910509F05EC1F9ECEF2EF7
:10174000F0E0FF2E2AC18137910509F487C00CF023
:101750008AC09EEFE92E98E0F92E1FC18D379105C2
:1017600009F49FC0FCF48937910509F4A4C07CF406
:101770008537910509F490C00CF489C0863791052E
:1017800009F03AC167E5E62E63E0F62E06C18B3715
:10179000910509F49AC00CF093C0BEE8EB2EB5E0B9
:1017A000FB2E01C1883C9105B1F17CF48F37910586
:1017B00009F445C00CF47AC08038910509F01CC1C9
:1017C00041EDE42E43E0F42EE8C08A3C910569F136
:1017D0003CF18C3C910509F00FC1BDE1EB2EB2E06C
:1017E000FB2EDBC060EAE62E69E0F62EDCC052ED8F
:1017F000E52E52E0F52ED7C040ECE42E49E0F42E61
:10180000D2C032E9E32E32E0F32ECDC093EFE92EC1
:1018100092E0F92EC2C08FEFE82E81E0F82EBDC015
:10182000AAE6EA2EA2E0FA2EB8C0EBE3EE2EE2E042
:10183000FE2EB3C074E9E72E73E0F72EAEC053E07E
:10184000E52E54E0F52EA9C036E1E32E33E0F32E69
:10185000AAC025E3E22E24E0F22EA5C081E6E82E00
:1018600084E0F82E9AC0BBE9EB2EB4E0FB2E95C0C5
:10187000AEECEA2EA4E0FA2E90C0F6E7EF2EFDE0E3
:10188000FF2E8BC079E4E72E75E0F72E86C057E374
:10189000E52E53E0F52E87C040EEE42E49E0F42E0D
:1018A00082C03EEDE32E35E0F32E77C020E0E22E3D
:1018B00026E0F22E78C080E0E82E8AE0F82E73C091
:1018C000A5ECEA2EA5E0FA2E6EC0FAE2EF2EF9E0C2
:1018D000FF2E63C0EFEDEE2EE0E0FE2E64C070E25E
:1018E000E72E7AE0F72E5FC060E2E62E66E0F62E85
:1018F00054C05FE4E52E5AE0F52E55C03BE6E32EDA
:1019000036E0F32E4AC025E9E22E26E0F22E4BC047
:1019100091ECE92E96E0F92E46C0BDEEEB2EB6E036
:10192000FB2E41C0A9E1EA2EA7E0FA2E3CC0F5E467
:10193000EF2EF7E0FF2E37C072E7E72E77E0F72EA5
:101940002CC06CE9E62E67E0F62E27C046ECE42EAC
:1019500047E0F42E22C03FEDE32E37E0F32E1DC00A
:1019600091E1E92E98E0F92E18C086E3E82E88E090
:10197000F82E13C0BDE5EB2EB8E0FB2E0EC0A2E89A
:10198000EA2EA8E0FA2E09C0F7EAEF2EF8E0FF2EC3
:1019900004C0E6E5EE2EE9E0FE2E20E005C062EB95
:1019A000E62E62E0F62E21E0D8010D900020E9F746
:1019B000AD0141505109401B510BE0912404F091BD
:1019C00025040280F381E02DB80184E294E02983AC
:1019D0000995C801F7010995298121110DC067E515
:1019E00071E084E294E00F90DF91CF911F910F910D
:1019F000FF90EF900C94DB300F90DF91CF911F910F
:101A00000F91FF90EF900895FC0120812D3411F487
:101A10000C94D10A089560E089E00E94002E60E0F5
:101A20008AE00E94002E60E08CE00E94002E60E0C0
:101A300084E00E94002E8AEE92E00C942C1A26E09C
:101A400040E052EC61E070E084E294E00E947B2F81
:101A50000C940B0DDF92EF92FF920F931F93CF9395
:101A6000DF93CAE7D3E00AE511E0F3E0CE37DF0702
:101A7000A9F1EE24E394F12C8881811102C0E12CBC
:101A8000F12CF801D1908F018D2D0E946F2EE81658
:101A9000F90611F18881882311F018821DC060E9D0
:101AA00071E080E090E00E94ED2C6D2D86E793E0E0
:101AB0000E942D2586E793E00E94472561E086E796
:101AC00093E00E94BE2586E793E00E94752586E795
:101AD00093E00E94262688832196C7CFDF91CF917D
:101AE0001F910F91FF90EF90DF900895EF92FF927A
:101AF0000F93CF93DF9380E090E00E94C90063E0F2
:101B00008EE093E00E943F2700E020E040E060E0AC
:101B10008EE093E00E9483278EE093E00E94D52719
:101B20000E942A0DCAE5D1E0EAE7EE2EE3E0FE2EA0
:101B3000F1E0CE35DF0711F1F70181917F018823B4
:101B4000D9F0813071F468818CE593E00E94B52969
:101B500000E020E040E063E08CE593E00E94262A6C
:101B60000BC0833049F468818BE393E00E94451CED
:101B70008BE393E00E94471C2196DACFDF91CF914F
:101B80000F91FF90EF900895CF93DF9386E793E056
:101B90000E942C2560E08AE693E00E94F81A60E03B
:101BA00089E693E00E94752860E08CE593E00E944E
:101BB000992960E086E593E00E94AF2160E08BE325
:101BC00093E00E94411C60E080E393E00E94BD141A
:101BD00060E086E293E00E94011060E087E193E01C
:101BE0000E94822860E08EE093E00E941E2760E061
:101BF0008BEF92E00E94FA2760E086EF92E00E946D
:101C000070266BE085EF92E00E94DF126FE08AEEB3
:101C100092E00E94091A60E084EE92E00E940E19A0
:101C200060E08FED92E00E94522960E083ED92E047
:101C30000E94F61060E08EEC92E00E94821060E05C
:101C400089EC92E00E94422660E08DEB92E00E94D7
:101C50004B1360E086EB92E00E94D31560E085EBC9
:101C600092E00E94A32160E08EEA92E00E94CB1BEA
:101C700060E08EE992E00E94181460E08EE592E048
:101C80000E94241660E089E592E00E94052960E048
:101C900085E592E00E949E2660E081E592E00E9448
:101CA000492A60E08CE492E00E94392260E086E4F8
:101CB00092E00E941F23C8E2D2E0CE010E943C2B9A
:101CC000239682E0C634D807C1F7DF91CF910895FB
:101CD0008EE093E00C94EE271F93CF93DF93C0E840
:101CE000D0E010E284E294E00E94982E892B81F1EA
:101CF00084E294E00E94B12E20911C0230911D02DA
:101D00008A30C1F4C9010197FC01E456FE4F4081BD
:101D10004D3011F49C01F6CFF901E456FE4F1083CB
:101D2000118210921D0210921C028CE991E00E9417
:101D3000040DD8CFF901E456FE4F8083C901019606
:101D4000BE010E948F3690931D0280931C02CACF61
:101D5000DF91CF911F9108958AEE92E00E94C91AF7
:101D60000C946C0E089570E0FB01E655FF4FE49172
:101D7000DC01EC93FB01E254FF4FE491F0E0EE0F45
:101D8000FF1FEE52FF4F25913491FC0132832183D6
:101D900008951F93CF93DF93FC011081C181D281FD
:101DA0009981812F8095892389838A81812B8A83D8
:101DB0008AE090E00E94152D9881912381E009F43A
:101DC00080E0DF91CF911F910895FF920F931F93B1
:101DD000CF93DF93FC011081C181D281F894898176
:101DE000F12EF0948F2189838A81812B8A837894C4
:101DF0000DE7015041F182E090E00E94152D8881AD
:101E00008123B9F3F8948A818F218A838981812B78
:101E10008983789480EE91E00E94152DF894898151
:101E20008F2189838A81812B8A8386E490E00E94B6
:101E3000152D8881812301E009F000E078948AE97A
:101E400091E00E94152D802FDF91CF911F910F916E
:101E5000FF9008951F93CF93DF93FC011081C18100
:101E6000D281912F909560FF12C0F8948A818923C6
:101E70008A838981812B89838AE090E00E94152DD5
:101E80008A81812B8A83789487E390E011C0F8944B
:101E90008A8189238A838981812B898381E490E0E7
:101EA0000E94152D8A81812B8A83789485E090E0A9
:101EB000DF91CF911F910C94152D0F931F93CF930A
:101EC000DF93FC011081C181D281F8948981812B3B
:101ED00089838A81012F009580238A8383E090E0A3
:101EE0000E94152D8981802389838A81812B8A8391
:101EF0008AE090E00E94152DC881789485E390E0F7
:101F00000E94152D1C2381E009F480E0DF91CF9120
:101F10001F910F910895CF92DF92EF92FF920F934E
:101F20001F93CF93DF931F92CDB7DEB76C01E62EE0
:101F300008E010E0FF24F39461E09F2D9E2109F456
:101F400060E0C60149830E942A0FFF0C015011096D
:101F500049810115110581F741111DC0F894D60181
:101F60001196ED91FC91129791818C918095892326
:101F700081831196ED91FC91129782819C91892B1E
:101F800082831196ED91FC91129792818C918095AC
:101F90008923828378940F90DF91CF911F910F91C5
:101FA000FF90EF90DF90CF900895EF92FF920F9304
:101FB0001F93CF93DF938C01C8E0D0E0F12CEE2487
:101FC000E394C8010E945D0F8111FE28EE0C219759
:101FD000C1F78F2DDF91CF911F910F91FF90EF905F
:101FE000089540E06CEC0C948B0FCF93DF93EC01E1
:101FF0000E942D258CE291E09F838E83DF91CF910B
:1020000008950F931F93CF93DF931F92CDB7DEB741
:102010008C0169830E942C25F80117821682108694
:1020200011866981C8010F90DF91CF911F910F91A7
:102030000C94F50FCF92DF92EF92FF92CF93DF9344
:10204000EC016F3F710519F014F06FEF70E0613033
:102050008FEF780714F461E07FEF8E819F81861700
:10206000970709F448C07F836E836B01EE24D7FC89
:10207000E094FE2CCE0177FD14C00E94472562E05B
:10208000CE010E94BE25CE010E944725C701B601A0
:102090000E948D3423E333E343E250E40E94F233A1
:1020A0001BC00E94472562E0CE010E94BE25CE01E2
:1020B0000E944725C701B6010E948D3423E333E314
:1020C00043E250E40E94F2339B01AC0160E070E017
:1020D00088EC92E40E9427330E945F34CE010E9474
:1020E000BE2584EF91E0DF91CF91FF90EF90DF90DC
:1020F000CF900C94152DDF91CF91FF90EF90DF9052
:10210000CF9008950F931F93CF93DF931F92CDB776
:10211000DEB78C0169830E942C256981C8010F906C
:10212000DF91CF911F910F910C942D250C942D25AB
:10213000EF92FF921F93CF93DF931F92CDB7DEB73D
:102140007C01162F49830E9447254981811120C0B7
:10215000442311F063E001C064E0C7010E94BE2582
:10216000C7010E944725811113C0112339F0115076
:1021700061E001C0660F1A95EAF701C06FE0C70180
:102180000F90DF91CF911F91FF90EF900C94BE259F
:102190000F90DF91CF911F91FF90EF900895CF9313
:1021A000DF93EC010E94472581111CC062E0CE0143
:1021B0000E94BE25CE010E947525CE010E942626D2
:1021C0008C838C81823059F018F4813041F008C042
:1021D000843021F0883021F484E001C083E08C83D6
:1021E0008C8101C080E0DF91CF9108950F931F9300
:1021F000CF93DF931F92CDB7DEB78C0169830E9426
:102200002C256981C8010F90DF91CF911F910F910B
:102210000C942D250C942D25CF93DF93EC010E9477
:10222000472581111BC062E0CE010E94BE25CE0170
:102230000E944725811112C06C81CE010E94BE25EB
:102240006D81CE010E94BE256E81CE010E94BE2509
:102250006F81CE01DF91CF910C94BE25DF91CF919C
:1022600008952F923F924F925F926F927F928F923A
:102270009F92AF92BF92CF92DF92EF92FF920F9315
:102280001F93CF93DF93CDB7DEB72F970FB6F89498
:10229000DEBF0FBECDBF8C012A013B019A01AB010D
:1022A000FC0160857185828593850E94EE338823C9
:1022B00009F46CC1F8014086518662867386CE01AE
:1022C00001969C878B878AE0EB85FC8511928A9525
:1022D000E9F720E03CE34CE156E4C301B2010E947F
:1022E000B53587FD04C089E0F80184830EC020E085
:1022F00030EC49E754ECC301B2010E94EE331816EA
:1023000044F080E1F801848389E0858386838783B4
:10231000D3C020E030E0A901C301B2010E94EE3336
:10232000811107C080E4F801848385838683178246
:10233000C3C020E030E0A901C301B2010E94EE3326
:1023400087FF07C077FA709477F87094F1E0FD8703
:1023500001C01D8620E030E04AE754E4C301B20129
:102360000E94F2330E945F346983C301B2010E946C
:102370005A349B01CB0168EE73E00E948F36E4E68D
:10238000F0E0BF010E948F366A83C901BF010E943D
:102390008F364AE0E42EF12CB7010E948F366B8312
:1023A000C901B7010E948F365C018C8320E030E0C8
:1023B00040E251E4C301B2010E94C0350E945A3488
:1023C000CB01B7010E948F366C018D8320E030E095
:1023D00048EC52E4C301B2010E94C0350E945A3455
:1023E000CB01B7010E948F364C018E8320E030E094
:1023F0004AE754E4C301B2010E94C0350E945A3436
:10240000CB01B7010E948F369F878E878F83212C47
:10241000E22CF12CE1E0F0E0EC0FFD1FEE0DFF1DD2
:102420003080311002C02394F3CF20E030E040E848
:102430005FE3C301B2010E94B53587FD10C0A32C34
:10244000FE01EE0DFF1DC280FE01EE0DFF1D83801B
:10245000FE01EE0DFF1D848124E0221907C0BB247C
:10246000DD2499248E859F85992721E03D85313093
:1024700059F480E1F8018483A582C68287822230E4
:1024800051F02130C9F40DC0F801A482C5828682C2
:102490008783233021F48681806286830DC02230B9
:1024A00029F4F80185818062858306C0213021F4FA
:1024B000F801848180628483F801848185FF0BC0E8
:1024C0008581811141C0868181113EC08781882329
:1024D00009F445C039C0F801858185FF0AC08681AD
:1024E00081114DC0878181114AC0F80185818F70AB
:1024F0003FC0F801868185FF0CC08781811109C02A
:1025000086818F708783858186838481858380E43B
:102510008483C8012F960FB6F894DEBF0FBECDBFDF
:10252000DF91CF911F910F91FF90EF90DF90CF90AF
:10253000BF90AF909F908F907F906F905F904F90E3
:102540003F902F900C940C11F8018681811117C0D7
:10255000F8018781811113C0F801858109C0F80154
:1025600084818F70878380E4848385838683D1CF41
:1025700087838481868380E484838583CACFF8013E
:1025800087818111C6CFF8018681BCCF2F960FB607
:10259000F894DEBF0FBECDBFDF91CF911F910F9199
:1025A000FF90EF90DF90CF90BF90AF909F908F9073
:1025B0007F906F905F904F903F902F900895609321
:1025C0007E0308954F925F926F927F928F929F92B7
:1025D000AF92BF92CF92DF92EF92FF920F931F9331
:1025E000CF93DF9369017A019B0140E050E060E402
:1025F00072E48FE090E00E94C536E901890137FF5F
:1026000002C00F5F1F4F1595079561E080917E0313
:102610000E94002EA8EEB3E0A70196010E94E436C6
:102620004B015C01C12CD12C76012E01662457FC94
:102630006094762CC814D904EA04FB04B0F461E079
:1026400080917E030E94392EC8010E94152D60E002
:1026500080917E030E94392EC8010E94152DA895F5
:10266000C40CD51CE61CF71CE5CFDF91CF911F9160
:102670000F91FF90EF90DF90CF90BF90AF909F9021
:102680008F907F906F905F904F900895F8940E9484
:10269000E212789408950F931F93CF93DF931F92C4
:1026A000CDB7DEB78C0169830E942C256981C801F2
:1026B0000F90DF91CF911F910F910C942D250C94C9
:1026C0002D25CF92DF92EF92FF920F931F93CF931E
:1026D000DF93CDB7DEB728970FB6F894DEBF0FBEF5
:1026E000CDBF8C01CE0101967C0188E0F7011192EB
:1026F0008A95E9F7C8010E944725811135C062E03B
:10270000C8010E94BE25C8010E9475256E01F9E02E
:10271000CF0ED11CC8010E942626F70181937F01AC
:10272000EC15FD05B9F78A8190E0982F882729815B
:10273000822BF801958384838C8190E0982F8827E1
:102740002B81822B978386838E8190E0982F882718
:102750002D81822B91878087888590E0982F88270C
:102760002F81822B9387828728960FB6F894DEBF3D
:102770000FBECDBFDF91CF911F910F91FF90EF90D2
:10278000DF90CF900895CF93DF93EC010E9447250F
:1027900081110AC064E0CE010E94BE2588EB9BE057
:1027A000DF91CF910C94152DDF91CF9108951F9358
:1027B000CF93DF93EC01162F0E944725811110C0A3
:1027C00063E0CE010E94BE25CE010E944725811103
:1027D00007C0612FCE01DF91CF911F910C94BE25D0
:1027E000DF91CF911F9108950F931F93CF93DF93A4
:1027F0001F92CDB7DEB78C0169830E946113698196
:10280000F801623039F0633041F0613049F484817D
:10281000958108C08681978105C08085918502C019
:10282000828593850F90DF91CF911F910F9108952D
:102830000F931F93CF93DF931F92CDB7DEB78C0119
:1028400069830E942C25F801158214821782168252
:10285000118610866981C8010F90DF91CF911F9179
:102860000F910C942D250C942D250F931F93CF932E
:10287000DF93EC010E94472581112DC062E0CE015B
:102880000E94BE25CE010E94752500E010E0CE0119
:102890000E942626FE01E00FF11F82870F5F1F4F67
:1028A00006301105A1F78A8590E0982F88272B859F
:1028B000822B9D838C838C8590E0982F88272D8593
:1028C000822B9F838E838E8590E0982F88272F857B
:1028D000822B99878887DF91CF911F910F9108955F
:1028E0000F931F93CF93DF931F92CDB7DEB78C0169
:1028F00069830E9435146981662331F0613041F4A7
:10290000F8018681978107C0F8018481958103C011
:10291000F801808591850F90DF91CF911F910F91E4
:1029200008950F931F93CF93DF93EC01062F10E0D0
:10293000000F111F065F1E4F633050F0F8016081D9
:10294000CE010E942D25F8018181898718860CC04F
:1029500061E0F80181810E94002EF80180818D8361
:1029600081818C8381E088878CE291E09F838E83D4
:10297000DF91CF911F910F9108950F931F93CF93E4
:10298000DF931F92CDB7DEB78C0169830E942C259F
:10299000F801178216821086118612866981C80195
:1029A0000F90DF91CF911F910F910C949114EF92A2
:1029B000FF920F931F93CF93DF9300D0CDB7DEB775
:1029C0007C01FC018285811109C069837A830E94A0
:1029D000E70081E0F70182877A8169818B016F3F8F
:1029E000710519F014F00FEF10E00130FFEF1F0731
:1029F00014F401E01FEFF70186819781801791079A
:102A000009F4C8C017830683808517FD4EC0813046
:102A100079F58481873019F4848160E006C0F7017C
:102A20008481883089F4848161E00E94392EF70125
:102A30008581B8010F900F90DF91CF911F910F9179
:102A4000FF90EF900C94782DF7018481893029F064
:102A5000F7018481863009F09DC0848161E00E9485
:102A6000392EF70185816FEF70E0601B710BE2CFAB
:102A7000C7010E94472562E0C7010E94BE25C70129
:102A80000E944725F7016185C7010E94BE25B80154
:102A9000882777FD8095982F0E948D3420E030E0C4
:102AA00040E250E40E94F23364C08130F1F5F70156
:102AB0008481873061F4848161E00E94392EF701BE
:102AC000858166277727601B710B0E94782DF7019F
:102AD0008481883061F4848160E00E94392EF7019E
:102AE000858166277727601B710B0E94782DF7017F
:102AF0008481893059F4858161E00E94392EF70183
:102B00008481B80161507F4F0E94782DF701848144
:102B1000863009F03FC0858161E00E94392EF701BF
:102B20008481B80161507F4F85CFC7010E9447253E
:102B300062E0C7010E94BE25C7010E944725F70138
:102B40006185C7010E94BE25B801882777FD809561
:102B5000982F0E948D3420E030E040E250E40E9443
:102B6000F2339B01AC0160E070E088EC92E40E94DB
:102B700027330E945F34C7010E94BE2584EF91E095
:102B80000F900F90DF91CF911F910F91FF90EF90D9
:102B90000C94152D0F900F90DF91CF911F910F91F5
:102BA000FF90EF9008950F931F93CF93DF931F92A1
:102BB000CDB7DEB78C0169830E942C256981C801DD
:102BC0000F90DF91CF911F910F910C942D250C94B4
:102BD0002D25CF93DF93EC010E944725811113C06F
:102BE00062E0CE010E94BE25CE010E947525CE0175
:102BF0000E9426268C83CE010E9426268D83CE013C
:102C00000E9426268E83DF91CF9108950F931F9304
:102C1000CF93DF931F92CDB7DEB78C0169830E94FB
:102C2000E9156981613029F0633031F4F80186815A
:102C300005C0F801848102C0F80185810F90DF9101
:102C4000CF911F910F9108951F93CF93DF93EC01C4
:102C5000162F0E942C2540E050E063E872E44C837C
:102C60005D836E837F83188619861A861B861C8671
:102C70001D861E861F86188A198A1A8A1B8A1C8A34
:102C80001D8A1E8A1F8A188E198E1A8E1B8E1C8E04
:102C90001D8E1E8E1F8E19A218A21BA21AA21DA283
:102CA0001CA21EA21FA218A619A61AA61BA61CA625
:102CB0001DA61EA61FA618AA19AA612FCE01DF9174
:102CC000CF911F910C942D250C942D252F923F927E
:102CD0004F925F926F927F928F929F92AF92BF922C
:102CE000CF92DF92EF92FF920F931F93CF93DF93D8
:102CF000CDB7DEB768970FB6F894DEBF0FBECDBF75
:102D00001C010E94BE2C4B015C01C0907F03D0903F
:102D10008003E0908103F09082030E94BE2C6093B8
:102D20007F03709380038093810390938203C1019A
:102D30000E944725811114C262E0C1010E94BE2594
:102D4000C1010E94752500E010E0C1010E94262605
:102D5000F101E00FF11F82AB0F5F1F4F0E30110525
:102D6000A1F7C501B4016C197D098E099F090E9464
:102D70008B3420E030E04AE754E40E94F2336B01E8
:102D80007C01D101D2964C90D297512C542C4424E2
:102D9000D3968C91D397482A91965C924E929097B5
:102DA000D4966C90D497712C762C6624D5968C9101
:102DB000D597682A93967C926E929297D6960C91AC
:102DC000D69710E0102F0027D7968C91D797082B15
:102DD00095961C930E93949714968D909D90AD901C
:102DE000BC901797DA966C91DA9770E0762F662789
:102DF000DB968C91682B882777FD8095982F0E9411
:102E00008D34F10126A137A140A551A50E94273399
:102E1000A50194010E94F2336D837E838F8398878E
:102E2000D10154966D937D938D939C935797DC9627
:102E30006C91DC9770E0762F6627DD968C91682B7D
:102E4000882777FD8095982F0E948D34F10122A567
:102E500033A544A555A50E942733A50194010E94DE
:102E6000F23369877A878B879C87D10158966D9357
:102E70007D938D939C935B97DE966C91DE9770E0CB
:102E8000762F6627DF968C91682B882777FD8095B3
:102E9000982F0E948D34F10126A537A540A951A98C
:102EA0000E942733A50194010E94F2336D877E872B
:102EB0008F87988BD1015C966D937D938D939C93B6
:102EC0005F97B301882777FD8095982F0E948D34F6
:102ED00069837A838B839C83B801882777FD8095EB
:102EE000982F0E948D349B01AC010E94C035698BE4
:102EF0007A8B8B8B9C8B29813A814B815C81CA01B7
:102F0000B9010E94C03529893A894B895C890E94A0
:102F100028330E9427369B01AC01B201882777FD38
:102F20008095982F2D8B3E8B4F8B588F0E948D3420
:102F30004B015C012D893E894F89588D0E949B333E
:102F400020E030E044E353E40E94C0352AED3FE046
:102F500049E450E40E94F2332B013C01A5019401A5
:102F6000C501B4010E94C03529893A894B895C8921
:102F70000E9428330E9427369B01AC0169817A8127
:102F80008B819C810E949B3320E030E044E353E43A
:102F90000E94C0352AED3FE049E450E40E94F2333C
:102FA0004B015C01A701960169857A858B859C851B
:102FB0001016110624F50E94C0359B01AC01F101E9
:102FC00060857185828593850E942733D10118968B
:102FD0006D937D938D939C931B97A70196016D81B3
:102FE0007E818F8198850E94C0359B01AC01F101E3
:102FF00064857585868597850E94283323C00E9445
:10300000C0359B01AC01F101608571858285938596
:103010000E942833D10118966D937D938D939C93D4
:103020001B97A70196016D817E818F8198850E94F3
:10303000C0359B01AC01F101648575858685978556
:103040000E942733D1011C966D937D938D939C93A1
:103050001F97A70196016D857E858F8598890E94AF
:10306000C035F10120893189428953890E94283372
:103070006B017C0120E030E044EB53E40E94F2332A
:103080000E94C83420E030E044EB53E40E94C03595
:103090009B01AC01C701B6010E9427336B017C0183
:1030A00020E030E044E353E40E94B535181644F0C4
:1030B000D1015096CD92DD92ED92FC9253970DC0C6
:1030C00020E030E044EB53E4C701B6010E9427330F
:1030D000F101608B718B828B938B28E431EE4AE790
:1030E0005FE3D1011C966D917D918D919C911F970D
:1030F0000E94C0356B017C012AE037ED43EA5CE3B6
:10310000C501B4010E94C0359B01AC01C701B601E5
:103110000E942833F101648775878687978728E4A2
:1031200031EE4AE75FE360857185828593850E9471
:10313000C0356B017C012AE037ED43EA5CE3C30153
:10314000B2010E94C0359B01AC01C701B6010E94CB
:103150002833D10118966D937D938D939C931B9783
:1031600068960FB6F894DEBF0FBECDBFDF91CF914A
:103170001F910F91FF90EF90DF90CF90BF90AF9095
:103180009F908F907F906F905F904F903F902F9087
:1031900008950F931F93CF93DF931F92CDB7DEB7A0
:1031A0008C0169830E94661669816230E1F050F4F7
:1031B000662399F0613049F5F801608D718D828D3B
:1031C000938D26C06430D9F0A0F06530F1F4F80199
:1031D00060897189828993891BC0F8016489758926
:1031E0008689978915C0F801648D758D868D978DB8
:1031F0000FC0F801608571858285938509C0F8014B
:10320000648575858685978503C060E070E0CB0195
:103210000F90DF91CF911F910F9108950F931F93FE
:10322000CF93DF931F92CDB7DEB78C0169830E94E5
:103230002C256981C8010F90DF91CF911F910F91CB
:103240000C942D250C942D25CF93DF93EC010E9437
:10325000472581110FC062E0CE010E94BE25CE013C
:103260000E947525CE010E9426268C83CE010E94E5
:1032700026268D83DF91CF910895CF93DF93EC01C4
:1032800061110E9424198C8190E0DF91CF91089503
:10329000CF93DF93EC0161110E9424198D8190E09E
:1032A000DF91CF9108951F920F920FB60F921124C4
:1032B0000F931F932F933F934F935F936F937F933E
:1032C0008F939F93AF93BF93CF93EF93FF9380918F
:1032D00087030E946F2EC82F20918E0330918F0399
:1032E0002F5F3F4F30938F0320938E038091F40321
:1032F000843618F085E08093890390918903933098
:1033000079F018F4923039F070C0943011F19530A2
:1033100009F44AC06AC0C11168C01092F40329C000
:10332000C13009F062C0E091F40381E08E0F809318
:10333000F403F0E080918E0390918F03E857FC4FE7
:10334000808710928F0310928E0384E0809389030C
:103350004CC0C11114C0E091F40381E08E0F809342
:10336000F403F0E080918E0390918F03E857FC4FB7
:10337000808710928F0310928E0383E0E7CF8091B5
:103380008E0390918F038536910578F185E08093C7
:1033900089030E94BE2C60938A0370938B038093F1
:1033A0008C0390938D0321C00E94BE2C00918A0350
:1033B00010918B0320918C0330918D03601B710B56
:1033C000820B930B693C71058105910540F01092C9
:1033D000F40310928F0310928E0382E0B7CFC111D5
:1033E00004C010928F0310928E03FF91EF91CF9142
:1033F000BF91AF919F918F917F916F915F914F910D
:103400003F912F911F910F910F900FBE0F901F9022
:103410001895609387038091870360E00E94002ED7
:10342000809187038093880308958091870386178E
:1034300059F0609387038091870360E00E94002E1B
:103440008091870380938803089521E0FC018285A1
:10345000861320E0822F0895F89482E08093B000D4
:103460008093B10094E69093B3001092B2008093E1
:10347000700078941092F4038093890308951F9349
:10348000CF93DF93FC01A681B7818C9186588D354F
:1034900058F48085918583309105A1F411968C9123
:1034A00011978152893118F080E090E044C0129663
:1034B0008C9188508730C0F7158281E0808381E04D
:1034C00090E039C0833491057CF311968C9111976B
:1034D00083548F3248F782E090E040E050E0BA0138
:1034E0009D012F5F3F4FEC01CA0FDB1FC881C85001
:1034F000C730D0F6E901C80FD91F18811751133111
:1035000080F4769567955795479570680296823452
:10351000910549F780E285834183528363837483F5
:10352000CCCFC881C850C73008F0BECF769567951C
:1035300057954795EBCFDF91CF911F9108950F934A
:103540001F93CF93DF93EC0180E993E09F838E83F9
:103550008091F40390E09987888780918903853072
:1035600081F4CE010E943F1A8C01CE010115110594
:1035700029F00E942C1A01E010E005C00E942C1ACC
:1035800002C000E010E0C801DF91CF911F910F91C0
:1035900008950F931F93CF93DF93EC010E949F1A1E
:1035A000892B69F00E94BE2C60938303709384037F
:1035B00080938503909386038B818A8714C00E9431
:1035C000BE2C0091830310918403209185033091D8
:1035D0008603601B710B820B930B693C710581059F
:1035E000910508F01A86DF91CF911F910F910895F0
:1035F0000F931F93CF93DF931F92CDB7DEB78C014C
:1036000069830E942C25F801158216821782108684
:103610001186128613866981C8010F90DF91CF91C0
:103620001F910F910C942D250C942D25CF93DF9392
:10363000EC010E944725811111C062E0CE010E9479
:10364000BE25CE010E947525CE010E9426268C83C0
:1036500088E293E20E94152D8C8101C080E0DF9109
:10366000CF910895CF93DF93EC010E9447258111FC
:1036700023C063E0CE010E94BE25CE010E944725F3
:1036800081111AC06E81CE010E94BE256F81CE01CC
:103690000E94BE256885CE010E94BE256985CE01A7
:1036A0000E94BE256A85CE010E94BE256B85CE0193
:1036B000DF91CF910C94BE25DF91CF9108950F93A8
:1036C000FC0160FF03C046832783008761FF03C0BE
:1036D000418722870387637021F0CF010F910C94FB
:1036E000321B0F9108951F93CF93DF93EC01162F98
:1036F0000E944725811111C064E0CE010E94BE25C1
:10370000CE010E944725811108C01D836D81CE0125
:10371000DF91CF911F910C94BE25DF91CF911F9126
:103720000895FC01658161600C94731BFC01658147
:103730006E7F0C94731BFC01658162600C94731B9B
:10374000FC0165816D7F0C94731B0F931F93CF93C6
:10375000DF93EC01062F142F60FF07C0442319F0FC
:103760000E94911B02C00E94961B01FF0FC0CE0158
:10377000112331F0DF91CF911F910F910C949B1B7E
:10378000DF91CF911F910F910C94A01BDF91CF91EE
:103790001F910F9108950F931F93CF93DF931F9263
:1037A000CDB7DEB78C0169830E942C256981C801E1
:1037B0000F90DF91CF911F910F910C942D250C94B8
:1037C0002D25CF93DF93EC010E944725811113C073
:1037D00062E0CE010E94BE25CE010E947525CE0179
:1037E0000E9426268C83CE010E9426268D83CE0140
:1037F0000E9426268E83DF91CF9108950F931F9309
:10380000CF93DF931F92CDB7DEB78C0169830E94FF
:10381000E11B6981662329F0613031F4F80185816B
:1038200005C0F801848102C0F80186810F90DF9104
:10383000CF911F910F9108950F931F93CF93DF9313
:1038400000D01F92CDB7DEB78C012B834A836983EA
:103850000E942C25F801349685E1DF011D928A959E
:10386000E9F74A81F801418F2B81228F6981C801D4
:103870000F900F900F90DF91CF911F910F910C94AB
:103880002D2527E045E10C941C1C0C942D25CF938D
:10389000DF93EC01298D80E090E0821730F4FE0187
:1038A000E80FF91F14820196F8CFCE010E94472538
:1038B00081110AC065E0CE010E94BE2588E893E12F
:1038C000DF91CF910C94152DDF91CF9108955F92E8
:1038D0006F927F928F929F92AF92BF92CF92DF9220
:1038E000EF92FF920F931F93CF93DF93EC01542E2F
:1038F0004901E98CF12C8A8DA62EBB24A7FCB0943B
:10390000222733272E193F092A153B0594F4AE14BC
:10391000BF047CF490E0C42EDD24C7FCD0942227A1
:103920003327281B390B2C153D051CF4C816D90666
:1039300094F0CE01DF91CF911F910F91FF90EF9006
:10394000DF90CF90BF90AF909F908F907F906F90BF
:103950005F900C94471CCE010E94472562E0CE0187
:103960000E94BE25CE010E944725002711270A1973
:103970001B0937016A187B08AA24BB24AC18BD08B0
:103980000615170504F517FD17C00E151F05A4F43D
:10399000F401E00FF11F608157FC06C00C2C01C040
:1039A000660F0A94EAF709C070E00A2C02C0759508
:1039B00067950A94E2F701C060E0CE010E94BE253F
:1039C0000F5F1F4FDDCFDF91CF911F910F91FF90C0
:1039D000EF90DF90CF90BF90AF909F908F907F90AF
:1039E0006F905F9008950F931F93CF93DF93EC0137
:1039F000062F142F0E944725811115C063E0CE01C8
:103A00000E94BE25CE010E94472581110CC0602F67
:103A1000CE010E94BE25612FCE01DF91CF911F9173
:103A20000F910C94BE25DF91CF911F910F910895B6
:103A3000CF93DF93E62FF0E0DC0159962C91599754
:103A400030E0E217F307C4F4242F30E05A96AC912B
:103A5000B0E02A173B0784F4E80FF91F548121E0F6
:103A600030E001C0220F4A95EAF7522B548344817B
:103A7000DF91CF910C94F31CDF91CF910895CF93F8
:103A8000DF93E62FF0E0DC0159962C91599730E056
:103A9000E217F307CCF4242F30E05A96AC91B0E053
:103AA0002A173B078CF4E80FF91F548121E030E01E
:103AB00001C0220F4A95EAF72095252324834481EB
:103AC000DF91CF910C94F31CDF91CF910895FF9279
:103AD0000F931F93CF93DF93EC01F62E042F122F39
:103AE0000E94472581111EC067E0CE010E94BE25BD
:103AF000CE010E944725811115C06F2DCE010E9475
:103B0000BE25602FCE010E94BE25612FCE010E94EE
:103B1000BE2588EB9BE0DF91CF911F910F91FF9025
:103B20000C94152DDF91CF911F910F91FF90089567
:103B3000AF92BF92CF92DF92EF92FF920F931F93BB
:103B4000CF93DF93EC01B62EA42E790100E010E0B4
:103B5000C62EDD24C7FCD094C8018C0D9D1D8B3F63
:103B60002FEF92071CF1298D30E08217930724F57F
:103B7000F701208121110EC08C01898D90E008177A
:103B80001907D4F440E0602FCE010E94F31C0F5FB0
:103B90001F4FF3CF21526B2D600F2E3518F023E00D
:103BA00040E001C04A2DCE010E94671D0A5F1F4FF1
:103BB000FFEFEF1AFF0AD0CF1FEF1B0D1B143CF4D1
:103BC00040E0612FCE010E94F31CB12EF5CFDF91B2
:103BD000CF911F910F91FF90EF90DF90CF90BF900A
:103BE000AF900895EF92FF920F931F93CF93DF93BF
:103BF000EC01862FF42E022F1AE0612F0E948336EB
:103C0000E92E2FE0280F40E06FEFCE010E94671DE4
:103C10002FE02E0D40E064E0CE010E94671D8F2D45
:103C2000612F0E948336192F2FE0280F40E06BE0B0
:103C3000CE010E94671D2FE0210F40E060E1CE0120
:103C40000E94671D002311F044E101C040E06AE0DA
:103C5000CE01DF91CF911F910F91FF90EF900C94C7
:103C6000F31C2F923F924F925F926F927F928F92AE
:103C70009F92AF92BF92CF92DF92EF92FF920F93FB
:103C80001F93CF93DF93CDB7DEB76B970FB6F89442
:103C9000DEBF0FBECDBF8C012A013B01CE010196D4
:103CA0009C8B8B8B8AE0EB89FC8911928A95E9F7D2
:103CB000CE010B969E8B8D8B88E0ED89FE8911924B
:103CC0008A95E9F720E03CE34CE156E4C301B201F8
:103CD0000E94B53587FD1BC028E140E06FEFC801A9
:103CE0000E94671D28E140E064E0C8010E94671D52
:103CF00028E140E069E0C8010E94671D28E140E03A
:103D00006EE0C8010E94671D40E064E12DC020E024
:103D100030EC49E754ECC301B2010E94EE331816AF
:103D2000F4F128E140E064E0C8010E94671D28E149
:103D300040E06AE0C8010E94671D28E140E06FE0B2
:103D4000C8010E94671D48E060E0C8010E94F31CA2
:103D500048E061E0C8010E94F31C48E062E0C8014D
:103D60000E94F31C48E063E0C8016B960FB6F8941C
:103D7000DEBF0FBECDBFDF91CF911F910F91FF909E
:103D8000EF90DF90CF90BF90AF909F908F907F90FB
:103D90006F905F904F903F902F900C94F31C20E019
:103DA00030E0A901C301B2010E94EE33811130C09D
:103DB00023E040E060E0C8010E94671D23E040E08E
:103DC00065E0C8010E94671D23E040E06AE0C80189
:103DD0000E94671D2FE040E06FE0C8016B960FB6B0
:103DE000F894DEBF0FBECDBFDF91CF911F910F9131
:103DF000FF90EF90DF90CF90BF90AF909F908F900B
:103E00007F906F905F904F903F902F900C94671D24
:103E100020E030E0A901C301B2010E94EE3387FF28
:103E200007C077FA709477F87094F1E0FF8B01C0C7
:103E30001F8A20E030E04AE754E4C301B2010E9447
:103E4000F2330E945F346983C301B2010E945A3485
:103E50009B01CB0168EE73E00E948F36E4E6F0E050
:103E6000BF010E948F366A83C901BF010E948F364D
:103E70004AE0E42EF12CB7010E948F366B83C90112
:103E8000B7010E948F366C018C8320E030E040E265
:103E900051E4C301B2010E94C0350E945A34CB01E3
:103EA000B7010E948F365C018D8320E030E048EC42
:103EB00052E4C301B2010E94C0350E945A34CB01C2
:103EC000B7010E948F364C018E8320E030E04AE734
:103ED00054E4C301B2010E94C0350E945A34CB01A0
:103EE000B7010E948F369A8F898F8F83212CE22C05
:103EF000F12CE1E0F0E0EC0FFD1FEE0DFF1D308036
:103F0000311002C02394F3CF20E030E040E85FE3BB
:103F1000C301B2010E94B53587FD1DC0832D90E01D
:103F20009C878B87FE01EE0DFF1D828190E09E87AE
:103F30008D87FE01EE0DFF1D838190E0988B8F87AA
:103F4000FE01EE0DFF1D848190E09A8B898B84E049
:103F5000B82EB21810C0DD24DC86CB86BB24BE860A
:103F6000AD869924988A8F86898D9A8D99279A8B08
:103F7000898BBB24B394CB2CD12C8F89813009F051
:103F8000B6C020E030E048EC52E4C301B2010E9428
:103F9000B53587FD09C02CE040E06FEFC8010E94F5
:103FA000671DB3E09B2E25C020E030E040E251E4E5
:103FB000C301B2010E94B535EF84F88887FD0BC0BC
:103FC000EF2849F72CE040E064E0C8010E94671D3B
:103FD000A2E09A2E0EC0EF28F1F68D859E85892BE2
:103FE00089F72CE040E069E0C8010E94671D992430
:103FF0009394C6010196382E330C330C380E01967B
:10400000882E880C880C880EFE013B965F016BE0C1
:10401000E12CF12C892D90E0988F8F8BEF89F88D12
:10402000EE16FF060CF070C1F5E02F2E260E93E081
:1040300099121AC0F5012081215FEC14FD0414F0DF
:10404000655001C0675040E0C8010E94671D20E034
:1040500030E048EC52E4C301B2010E94B53587FF5D
:1040600021C040E4632D23C0F2E09F1224C0F5017B
:104070002081215FEC14FD040CF4625040E0C80183
:104080000E94671D23E040E06FEFC8010E94671D9A
:1040900020E030E040E251E4C301B2010E94B535B6
:1040A00087FD03C040E064E102C040E4682DC80120
:1040B0000E94F31C14C0F5012081215FEC14FD0463
:1040C0001CF040E0622D02C06D5F40E0C8010E941C
:1040D000671D23E040E064E0C8010E94671DFFEF18
:1040E000EF1AFF0A82E0A80EB11C622D97CF20E0E4
:1040F00030E04AE754E4C301B2010E94B53587FDC0
:1041000003C0E4E09E2E39C020E030E048EC52E4E9
:10411000C301B2010E94B535E988FA8887FD03C062
:10412000EF2879F710C020E030E040E251E4C3010D
:10413000B2010E94B53587FD09C0EF2811F78F85C0
:104140009889892BA9F073E0972E17C020E030E002
:1041500040E85FE3C301B2010E94B535EF2889F65C
:104160008F859889892B79F78D859E85892B19F004
:1041700062E0962E02C0992493948B2C880C880CB4
:104180008B0CC6010196382E330C330C380EFAE036
:10419000F80DFF8B7E018BE0E80EF11C3BE0A12CBB
:1041A000B12CE92DF0E0FA8FE98FE98DFA8DAE168A
:1041B000BF060CF0A9C055E0252E230EF4E09F1297
:1041C0001BC0F7012081215FAC14BD0414F066EF21
:1041D00001C064EF630F40E0C8010E94671D20E04A
:1041E00030E04AE754E4C301B2010E94B53587FFCD
:1041F0007EC040E4682D7DC0F3E09F1223C023E021
:1042000040E06FEFC8013B8F0E94671D3B8DF701B7
:104210002081215FAC14BD0414F06BEF01C069EF85
:10422000630F40E0C8010E94671D20E030E048ECC9
:1042300052E4C301B2010E94B53587FF58C040E483
:10424000632D57C0F2E023E040E06FEFC8013B8FE1
:104250009F1225C00E94671D23E040E064E0C80172
:104260000E94671D3B8DF7012081215FAC14BD04C6
:104270001CF040E0632F03C06EEF630F40E0C80105
:104280000E94671D20E030E040E251E4C301B2012A
:104290000E94B53587FF2BC040E46F892AC00E9479
:1042A000671D23E040E064E0C8010E94671D23E031
:1042B00040E069E0C8010E94671D3B8DF701208145
:1042C000215FAC14BD041CF040E0622D03C063E02C
:1042D000630F40E0C8010E94671D20E030E040E825
:1042E0005FE3C301B2010E94B53587FD05C040E020
:1042F00064E1C8010E94F31CFFEFAF1ABF0A82E01D
:10430000E80EF11C322D51CF6B960FB6F894DEBF3C
:104310000FBECDBFDF91CF911F910F91FF90EF9016
:10432000DF90CF90BF90AF909F908F907F906F90D5
:104330005F904F903F902F900895FC01862F6083EF
:1043400060E00C94002E0C949D21FC0180810E9461
:104350006F2E21E0892B09F420E0822F08950F931E
:104360001F93CF93DF931F92CDB7DEB78C01698384
:104370000E942C256981C8010F90DF91CF911F9178
:104380000F910C942D250C942D25CF93DF93EC01E8
:104390000E94472581110FC062E0CE010E94BE2518
:1043A000CE010E947525CE010E9426268C83CE0167
:1043B0000E9426268D83DF91CF910895FC016481B0
:1043C00070E080E090E00E948D3420E030E04FE724
:1043D00053E40E94F2339B01AC0160E070E080E89E
:1043E0009FE30E94273320E030EC4FE754E40E9423
:1043F000C0350E945F34CB010895FC01658170E0F7
:1044000080E090E00E948D3420E030E04FE753E4FC
:104410000E94F2339B01AC0160E070E080E89FE312
:104420000E94273320E030EC4FE754E40E94C0356F
:104430000E945F34CB0108950F931F93CF93DF93B6
:104440001F92CDB7DEB78C0169830E94C5216981B7
:10445000C801623039F40F90DF91CF911F910F9115
:104460000C94FD210F90DF91CF911F910F910C942F
:10447000DE210F931F93CF93DF931F92CDB7DEB74B
:104480008C0169830E942C256981C8010F90DF91FE
:10449000CF911F910F910C942D250C942D250F93E6
:1044A0001F93CF93DF93EC01162F072F0E94472510
:1044B00081111BC062E0CE010E94BE25CE010E9488
:1044C0004725811112C0602FCE010E94BE25612FA9
:1044D000CE010E94BE256CE370E080E090E0DF91A9
:1044E000CF911F910F910C94ED2CDF91CF911F91E3
:1044F0000F9108951F93CF93DF93EC01162F0E9425
:104500004725811116C063E0CE010E94BE25CE0171
:104510000E94472581110DC0612FCE010E94BE254A
:104520006CE370E080E090E0DF91CF911F910C94FC
:10453000ED2CDF91CF911F910895CF93DF93EC0184
:104540000E94472581110CC064E0CE010E94BE2567
:104550006CE370E080E090E0DF91CF910C94ED2C63
:10456000DF91CF910895CF93DF93EC010E9447250F
:1045700081110CC065E0CE010E94BE256CE370E0A5
:1045800080E090E0DF91CF910C94ED2CDF91CF9102
:104590000895CF93DF93EC010E94472581110CC051
:1045A00066E0CE010E94BE256CE370E080E090E002
:1045B000DF91CF910C94ED2CDF91CF9108951F9353
:1045C000CF93DF93EC01162F623011F06430D9F4F1
:1045D000CE010E944725811116C067E0CE010E94DE
:1045E000BE25CE010E94472581110DC0612FCE014D
:1045F0000E94BE2562ED70E080E090E0DF91CF91F7
:104600001F910C94ED2CDF91CF911F910895CF93C2
:10461000DF93EC010E94472581110DC068E0CE01B7
:104620000E94BE25CE010E947525CE010E9426263D
:104630008C838C8101C082E0DF91CF9108950F932C
:104640001F93CF93DF931F92CDB7DEB78C016983A1
:104650000E942C2588E0F801848382E085836981AB
:10466000C8010F90DF91CF911F910F910C942D25D0
:104670000C942D25FC0164830895CF93DF93EC0106
:104680000E94472581110AC064E0CE010E94BE2528
:1046900088EB9BE0DF91CF910C94152DDF91CF91AA
:1046A0000895EF92FF920F931F93CF93DF93EC0146
:1046B000E62EF42E89010E94472581112DC062E06B
:1046C000CE010E94BE25CE010E944725811124C043
:1046D0006C81CE010E94BE256E2DCE010E94BE25AA
:1046E0006F2DCE010E94BE25F12CF801EF0DF11DBA
:1046F0006081CE01662321F00E94BE25F394F5CFA0
:104700000E94BE2588EB9BE0DF91CF911F910F9116
:10471000FF90EF900C94152DDF91CF911F910F9189
:10472000FF90EF900895FF920F931F93CF93DF9325
:10473000EC01F62E042F122F0E944725811122C072
:1047400065E0CE010E94BE25CE010E944725811161
:1047500019C06C81CE010E94BE256F2DCE010E9432
:10476000BE25602FCE010E94BE25612FCE010E9482
:10477000BE2588EB9BE0DF91CF911F910F91FF90B9
:104780000C94152DDF91CF911F910F91FF900895FB
:104790002F923F924F925F926F927F928F929F9251
:1047A000AF92BF92CF92DF92EF92FF920F931F933F
:1047B000CF93DF9300D000D0CDB7DEB71C016B8361
:1047C0004C834801590120E030E0A901C501B40142
:1047D0000E94EE3381111CC020E04C816B81C1012D
:1047E0000F900F900F900F90DF91CF911F910F912D
:1047F000FF90EF90DF90CF90BF90AF909F908F9001
:104800007F906F905F904F903F902F900C949323E8
:1048100020E030E0A901C501B4010E94EE3387FF1A
:104820000DC02DEF4C816B81C1010E9493238B81C0
:10483000885F8B83B7FAB094B7F8B094C501B40120
:104840000E945A346B017C010E948D349B01AC01A3
:10485000C501B4010E9427334B015C011C141D04E7
:104860001E041F040CF097C0412C8AEC582E8AE9D4
:10487000682E8BE3782EC701B601A30192010E9436
:10488000C536232B242B252B59F4C301B2012AE072
:1048900030E040E050E00E94C53629013A01EBCFFC
:1048A000F2E04F1651046104710424F1C701B6010E
:1048B000A30192010E94C536162F082F392F4C8173
:1048C0006B81C1013A8379830E949323C12E798140
:1048D000D72EE02E3A81F32EC301B2012AE030E058
:1048E00040E050E00E94C53629013A01EB81E85FC3
:1048F000EB83D6CF2C2D4C816B81C1010E94932379
:1049000020E030E0A901C501B4010E94B5351816B8
:104910000CF08BC0F1018581882309F486C06B817E
:10492000685F2EEF4C81C1010E9493237B80F0E1F0
:104930007F0E10E0F1018581181708F076C020E0A5
:1049400030E040E251E4C501B4010E94C0356B0182
:104950007C010E945F34062F262F4C81672DC101F8
:104960000E949323602F70E080E090E00E948D34DD
:104970009B01AC01C701B6010E9427334B015C01CA
:10498000F8E07F0E1F5F20E030E0A9010E94B535FE
:10499000181684F24AC0F1018581882309F445C0C4
:1049A00020E04C816B81C1010E9493236B81685F81
:1049B0002EEF4C81C1010E9493237B80F0E17F0E9A
:1049C000F101158210E020E030E0A901C501B40139
:1049D0000E94B53518164CF5F1018581181728F598
:1049E00020E030E040E251E4C501B4010E94C0354E
:1049F0006B017C010E945F34062F262F4C81672DAE
:104A0000C1010E949323602F70E080E090E00E943B
:104A10008D349B01AC01C701B6010E9427334B01C5
:104A20005C01F8E07F0E1F5FCECF0F900F900F90CC
:104A30000F90DF91CF911F910F91FF90EF90DF903A
:104A4000CF90BF90AF909F908F907F906F905F902E
:104A50004F903F902F9008950895DC016C9370E083
:104A6000FB01E655FF4FE4911196EC931197FB0182
:104A7000E254FF4FE491F0E0EE0FFF1FEE52FF4FC4
:104A80008591949113969C938E9312970895FF921B
:104A90000F931F93CF93DF938C01FC01F180C281B0
:104AA000D38189818F2989839A818F2D809589234C
:104AB0008A8380EE91E00E94152D60E0F8018081EC
:104AC0000E94002E82E390E00E94152DC88184E6AA
:104AD00090E00E94152DFC2281E009F480E0DF9136
:104AE000CF911F910F91FF900895AF92BF92CF92F7
:104AF000DF92EF92FF920F931F93CF93DF938C017E
:104B0000FC01B180C281D3810E94BE2C6B017C016B
:104B10008981AB2CA0948A2189838A818B298A83FD
:104B200088818B2169F00E94BE2C6C197D098E0949
:104B30009F09653671058105910590F380E013C0EA
:104B400088818B21E9F389818B2989838A818A2154
:104B50008A838EE190E00E94152D60E0F80180814B
:104B60000E94002E81E0DF91CF911F910F91FF9065
:104B7000EF90DF90CF90BF90AF9008950F931F9369
:104B8000CF93DF93EC01062F18E0F89460E0888162
:104B90000E94392E61E088810E94002E85E090E01D
:104BA0000E94152D00FF02C061E001C060E0888115
:104BB0000E94392E069578948EE190E00E94152D82
:104BC00061E088810E94392E85E090E00E94152DD9
:104BD0001150D9F660E08881DF91CF911F910F913C
:104BE0000C94002ECF92DF92EF92FF921F93CF93FF
:104BF000DF93FC011181C281D3810E94BE2C6B0125
:104C00007C018881812359F00E94BE2C6C197D099A
:104C10008E099F09643071058105910590F3F89420
:104C20008EE190E00E94152DC881789488E290E092
:104C30000E94152D1C2381E009F480E0DF91CF91C3
:104C40001F91FF90EF90DF90CF9008950F931F93E7
:104C5000CF93DF93EC0160E088810E94002E08E092
:104C600010E0CE010E94F22520E8829FC0011124AD
:104C70001695182B0150A9F7812FDF91CF911F9125
:104C80000F9108950F931F93CF93DF931F92CDB78A
:104C9000DEB78C0169830E942C256981C8010F90C1
:104CA000DF91CF911F910F910C942D250C942D2500
:104CB000CF93DF93EC010E94472581110DC062E084
:104CC000CE010E94BE25CE010E947525CE010E9414
:104CD00026268C838C8101C080E0DF91CF910895DE
:104CE0000F931F93CF93DF931F92CDB7DEB78C0145
:104CF00069830E942C256981C8010F90DF91CF91B3
:104D00001F910F910C942D250C942D25CF93DF939B
:104D1000EC010E94472581110DC062E0CE010E9486
:104D2000BE25CE010E947525CE010E9426268C83C9
:104D30008C8101C080E0DF91CF9108950F931F9384
:104D4000CF93DF931F92CDB7DEB78C0169830E94AA
:104D50002C256981C8010F90DF91CF911F910F9190
:104D60000C942D250C942D251F93CF93DF93EC01EC
:104D7000162F0E94472581110EC062E0CE010E94CD
:104D8000BE25CE010E944725612FCE01DF91CF9134
:104D90001F910C94BE25DF91CF911F910895EF9242
:104DA000FF920F931F93CF93DF931F92CDB7DEB780
:104DB0007C01DC0112968D919C911397062F10E0D7
:104DC000009749F02D913C912017310779F16983C3
:104DD0000E94B0376981F70111830083F3E06F9F70
:104DE000C00111240E941837D70113969C938E930B
:104DF0001297892B21F48EE591E00E94693880E0BA
:104E000090E0F701408151819A01220F331F240F56
:104E1000351F8217930750F4D7011296ED91FC913C
:104E20001397E80FF91F10820196EBCF0F90DF91D7
:104E3000CF911F910F91FF90EF900895CF93DF9343
:104E4000EC01862F262F30E0F901E655FF4FE49163
:104E5000E887F901E254FF4FE491F0E0EE0FFF1F05
:104E6000E452FF4F259134913D832C8361E00E94F1
:104E7000002E60E2CE01DF91CF910C94CF26CF932C
:104E8000DF93EC01862F262F30E0F901E655FF4F26
:104E9000E491E887F901E254FF4FE491F0E0EE0F6E
:104EA000FF1FE452FF4F259134913D832C8361E035
:104EB0000E94002E60E2CE01DF91CF910C94CF26AC
:104EC0000F93FC01A62FB0E080819181A817B9074C
:104ED000B8F4862F880F860F90E0A281B381A80FC7
:104EE000B91F2C93A281B381A80FB91F11964C93BF
:104EF0000280F381E02DE80FF91F028381E001C0F9
:104F000080E00F910895CF92DF92EF92FF920F937E
:104F10001F93CF93DF937C01142FD22EC02E6111EB
:104F200013C0C0E0D0E0F70180819181C817D90794
:104F300048F40C2D2D2D412F6C2FC7010E946027A6
:104F40002196F1CF81E004C061500E94602780E08B
:104F5000DF91CF911F910F91FF90EF90DF90CF9055
:104F600008950F931F93D8013FB7F8949C91822F17
:104F700080958923292BFB01460F571FE417F5075E
:104F800081F0919168E02C9300C097FF8C93990F6A
:104F900000C000C000C008F48C9300C06A9599F767
:104FA000EDCF3FBF1F910F9108950F931F93FC0109
:104FB0000481158120813181A901440F551F420FC1
:104FC000531F6281738120850E94B12761E070E0E8
:104FD00080E090E01F910F910C94ED2CCF93DF9324
:104FE000EC018A819B810E94B0371B821A82DF917B
:104FF000CF9108950F931F93CF93DF931F92CDB757
:10500000DEB78C0169830E942C25F80134968FE06D
:10501000DF011D928A95E9F76981C8010F90DF9140
:10502000CF911F910F910C942D250C942D250F934A
:10503000611116C060E070E0FC01E60FF71F2483E9
:10504000FB013196E80FF91F4483FB013296E80F0C
:10505000F91F04836D5F7F4F6F30710569F718C0CA
:105060006630B0F470E061507109E62FEE0FE60F84
:10507000F0E0DC01AE0FBF1F14962C93DF011196F8
:10508000A80FB91F14964C933296E80FF91F0483AA
:105090000F9108950F931F93CF93DF93EC010E941C
:1050A0004725811117C062E0CE010E94BE25CE01C6
:1050B0000E94472581110EC000E010E0FE01E00FC4
:1050C000F11F6481CE010E94BE250F5F1F4F0F307C
:1050D0001105A1F7DF91CF911F910F910895FC0168
:1050E00060830895FC01608308950C946F28FC018F
:1050F00080810E945B2D2FEF33E0A901481B590BE3
:10510000CA0108950F931F93CF93DF931F92CDB7DA
:10511000DEB78C0169830E94B20E6981F80166874F
:10512000C8010F90DF91CF911F910F910C94B30E96
:105130000C94B30ECF92DF92EF92FF920F931F93D6
:10514000CF93DF93CDB7DEB72C970FB6F894DEBFC1
:105150000FBECDBF8C010E94E50EC8010E94F10F69
:1051600040E064E4C8010E948B0F0E94BE2C6B01DA
:105170007C01C8010E94C90E81110BC00E94BE2C87
:105180006C197D098E099F096E3E7240810591055B
:1051900080F3C8010E94E50EC8010E94F10F40E0B3
:1051A0006EEBC8010E948B0FCE0101967C016E014F
:1051B00096E0C90ED11CC8010E94D50FF70181935A
:1051C0007F01EC15FD05B9F76A8170E0762F66273F
:1051D0008981682B882777FD8095982F0E948D34D0
:1051E00020E030E040E85DE30E94C0352C960FB629
:1051F000F894DEBF0FBECDBFDF91CF911F910F910D
:10520000FF90EF90DF90CF9008950F931F93CF936F
:10521000DF931F92CDB7DEB78C0169830E942C25E6
:105220006981C8010F90DF91CF911F910F910C946C
:105230002D250C942D25CF93DF93EC010E9447255B
:1052400081110DC062E0CE010E94BE25CE010E94F8
:105250007525CE010E9426268C838C8101C080E0BA
:10526000DF91CF910895CF93DF931F92CDB7DEB733
:1052700069830E941B29982F6981613019F062307F
:1052800029F008C081E0923041F408C081E09130FB
:1052900021F404C081E0911101C080E00F90DF9102
:1052A000CF9108950F931F93CF93DF931F92CDB7A4
:1052B000DEB78C0169830E942C256981C8010F909B
:1052C000DF91CF911F910F910C942D250C942D25DA
:1052D000CF93DF93EC010E94472581110DC062E05E
:1052E000CE010E94BE25CE010E947525CE010E94EE
:1052F00026268C838C8101C080E0DF91CF910895B8
:10530000CF93DF93EC010E94472581110FC064E029
:10531000CE010E94BE25CE010E944725811106C004
:105320006C85CE01DF91CF910C94BE25DF91CF919A
:1053300008950F931F93CF93DF931F92CDB7DEB7DE
:105340008C0169830E942C25F80116821782108631
:1053500011861286138614866981C8010F90DF9129
:10536000CF911F910F910C942D250C942D25CF9248
:10537000DF92EF92FF92CF93DF93EC010E944725DB
:10538000882339F0C12CD12C8AEFE82E83E4F82E43
:1053900027C062E0CE010E94BE25CE010E94752585
:1053A000CE010E9426268C83CE010E9426268D8364
:1053B0008D816C8170E0782B80E090E00E948B34CE
:1053C0002CE53FE84CE851E40E94F2336B017C018C
:1053D00020E030E04AEF53E40E94B535181694F20D
:1053E000C701B601DF91CF91FF90EF90DF90CF9092
:1053F0000895CF93DF93EC010E944725811123C0CC
:1054000063E0CE010E94BE25CE010E944725811196
:105410001AC06E81CE010E94BE256F81CE010E940E
:10542000BE256885CE010E94BE256985CE010E94F9
:10543000BE256A85CE010E94BE256B85CE01DF9117
:10544000CF910C94BE25DF91CF9108950F93FC016D
:1054500060FF03C046832783008761FF03C0418745
:1054600022870387637021F0CF010F910C94F929F3
:105470000F910895637061F0FC012485442319F0B5
:10548000262B248703C06095622364870C948029AF
:1054900008950F931F93CF93DF931F92CDB7DEB77D
:1054A0008C0169830E942C256981C8010F90DF91CE
:1054B000CF911F910F910C942D250C942D250F93B6
:1054C0001F93CF93DF931F92CDB7DEB78C01698313
:1054D0000E944725698181110DC0662311F062E0A9
:1054E00001C063E0C8010F90DF91CF911F910F9130
:1054F0000C94BE250F90DF91CF911F910F910895CD
:105500001F920F920FB60F9211242F933F934F9338
:105510005F936F937F938F939F93AF93BF93EF931B
:10552000FF938091F60387FF05C0109285001092CB
:1055300084001AC02091F603332727FD309580910F
:10554000F50390E0281739077CF48091F60399273A
:1055500087FD9095FC01EE0FFF1FE80FF91FE95042
:10556000FC4F808187FD15C08091F6038F5F80938B
:10557000F6032091F603332727FD30958091F5033C
:1055800090E028173907BCF48091F6038C305CF169
:1055900012C08091F603992787FD9095FC01EE0FCC
:1055A000FF1FE80FF91FE950FC4F808160E08F7703
:1055B0000E94392ED9CF8091840090918500049665
:1055C00080349C4918F480E49CE905C080918400F3
:1055D00090918500049690938900809388008FEFC6
:1055E0008093F60338C0209184003091850080912B
:1055F000F603992787FD9095FC01EE0FFF1FE80F3A
:10560000F91FE950FC4F81819281820F931F909383
:105610008900809388008091F603992787FD9095F3
:10562000FC01EE0FFF1FE80FF91FE950FC4F8081CE
:1056300087FF11C08091F603992787FD9095FC01A3
:10564000EE0FFF1FE80FF91FE950FC4F808161E06A
:105650008F770E94392EFF91EF91BF91AF919F916B
:105660008F917F916F915F914F913F912F910F900B
:105670000FBE0F901F9018952091F5032C30A0F4C9
:1056800031E0320F3093F503FC012083822F90E04C
:10569000FC01EE0FFF1FE80FF91FE950FC4F88EBEC
:1056A0009BE09283818308952FEFFC01208308956E
:1056B000DF92EF92FF920F931F93CF93DF93EC0152
:1056C000D62E7A01890188818C3008F066C061E0AD
:1056D0008D2D0E94002E8881A82FB0E0FD01EE0FD5
:1056E000FF1FEA0FFB1FE950FC4F2D2D2F779081F4
:1056F0009078922B908360E272E06E197F0977FFB9
:1057000002C06D5F7F4F7595679575956795698345
:1057100040E659E0401B510B57FF02C04D5F5F4F01
:1057200055954795559547954A836CE00E94833679
:105730009CE0899FB001112420E030E0A901460FD0
:10574000571FFA01EE0FFF1FE40FF51FE950FC4F42
:10575000908197FD16C02F5F3F4F2C30310571F7B8
:1057600081110FC01092800082E08093810010921E
:10577000850010928400B19A80916F0082608093BE
:105780006F00888190E0FC01EE0FFF1FE80FF91F0A
:10579000E950FC4F8081806880838881DF91CF91C0
:1057A0001F910F91FF90EF90DF90089520E639E070
:1057B00040E252E00C94582BFC0180818C3070F553
:1057C000918128E830E0291B310997FD3395220F9C
:1057D000331F220F331F621773077CF0928128E575
:1057E00032E0291B310997FD3395220F331F220F19
:1057F000331F621773070CF49B0122503109220FEB
:10580000331F4FB7F89490E0FC01EE0FFF1FE80F35
:10581000F91FE950FC4F328321834FBF08954F9207
:105820005F926F927F92AF92BF92CF92DF92EF9290
:10583000FF920F931F93CF93DF93EC01603282E0CE
:1058400078070CF040C077FD06C0653B71052CF071
:1058500064EB70E002C060E070E0898128E830E02D
:10586000281B310987FD3395220F331F220F331F69
:105870005901CC24B7FCC094DC2C882777FD809597
:10588000982F2A8148E552E0421B510927FD539584
:10589000440F551F440F551F2A01662457FC60947E
:1058A000762C7F926F925F924F9214EBE12EF12C47
:1058B00000E010E020E030E0A9010E94DF320F900C
:1058C0000F900F900F90CE01DF91CF911F910F910C
:1058D000FF90EF90DF90CF90BF90AF907F906F9050
:1058E0005F904F900C94DC2B1F920F920FB60F928B
:1058F00011242F933F938F939F93AF93BF938091E6
:105900001C0490911D04A0911E04B0911F043091BD
:105910001B0423E0230F2D3720F40196A11DB11D98
:1059200005C026E8230F0296A11DB11D20931B047C
:1059300080931C0490931D04A0931E04B0931F0435
:105940008091200490912104A0912204B09123041D
:105950000196A11DB11D8093200490932104A09372
:105960002204B0932304BF91AF919F918F913F91F7
:105970002F910F900FBE0F901F9018952FB7F8948E
:1059800060911C0470911D0480911E0490911F046D
:105990002FBF08953FB7F89480912004909121047F
:1059A000A0912204B091230426B5A89B05C02F3FE7
:1059B00019F00196A11DB11D3FBF6627782F892FD1
:1059C0009A2F620F711D811D911D42E0660F771F96
:1059D000881F991F4A95D1F70895CF92DF92EF92D1
:1059E000FF92CF93DF936B017C010E94CA2CEB01E5
:1059F000C114D104E104F10489F00E9426330E940D
:105A0000CA2C6C1B7D0B683E734090F381E0C81A72
:105A1000D108E108F108C851DC4FEACFDF91CF91FE
:105A2000FF90EF90DF90CF9008958230910538F08D
:105A3000880F991F880F991F05970197F1F708950F
:105A4000789484B5826084BD84B5816084BD85B559
:105A5000826085BD85B5816085BDEEE6F0E0808120
:105A600081608083E1E8F0E0108280818260808341
:105A7000808181608083E0E8F0E0808181608083C4
:105A8000E1EBF0E0808184608083E0EBF0E08081F6
:105A900081608083EAE7F0E0808184608083808198
:105AA0008260808380818160808380818068808340
:105AB0001092C10008958E3008F08E5087702091AA
:105AC000220190E4299F90011124822B80937C0075
:105AD00080917A00806480937A0080917A0086FDBC
