:100000000C9488000C94B0000C94B0000C94B000D8
:100010000C94B0000C94B0000C94B0000C944C0FF5
:100020000C94B0000C94B0000C94B0000C94321BF3
:100030000C94B0000C94B0000C94B0000C94B00080
:100040000C94261D0C94B0000C948F200C94C120AD
:100050000C94B0000C94B0000C94B0000C94B00060
:100060000C94B0000C94B0000000000800020100E5
:100070000003040700000000000000000102040863
:100080001020408001020408102001020408102002
:10009000040404040404040402020202020203032E
:1000A00003030303000000002300260029000000D2
:1000B0000000250028002B0000000000240027007D
:1000C0002A006364696E6F70737578585B004E41E7
:1000D0004E494E495459494E46CDCCCC3D0AD723C2
:1000E0003C17B7D13877CC2B329595E6241FB14F0A
:1000F0000A000020410000C84200401C4620BCBE4F
:100100004CCA1B0E5AAEC59D7400FA08F1205D0959
:1001100011241FBECFEFD8E0DEBFCDBF11E0A0E0BD
:10012000B1E0EAE2FAE502C005900D92AC39B10700
:10013000D9F724E0ACE9B1E001C01D92AD33B207BC
:10014000E1F711E0CEE0D1E004C02297FE010E9469
:100150008A26CA30D107C9F70E9435210C94082D90
:100160000C94000061E088EA92E00E94C50D60E016
:1001700070E088EA92E00E940B0E62E088EA92E06A
:100180000E94C50D60E070E088EA92E00C940B0ECE
:100190000895CF93DF93E3E2F2E0C0E0D0E0419135
:1001A000242F30E028173907C9F0411110C0FE0193
:1001B000ED5DFD4F80839E01220F331F2C0F3D1FED
:1001C000BC01C901835D9D4F0E94881C07C0219618
:1001D000CA30D10521F780E090E001C0CE01DF9167
:1001E000CF910895EF92FF920F931F93CF93DF93D8
:1001F000EB01FC016081613401F5FF92EF921F93E6
:100200000F933F932F935F934F93DF93CF932BE302
:1002100031E03F932F939F938F930E941B288881F7
:1002200099810E96998388838DB79EB70E960FB6E7
:10023000F8949EBF0FBE8DBF1AC0FF92EF921F931E
:100240000F933F932F935F934F93DF93CF932CE3C1
:1002500031E03F932F939F938F930E941B288DB77C
:100260009EB70E960FB6F8949EBF0FBE8DBFDF915E
:10027000CF911F910F91FF90EF900895DC01ED91C8
:10028000FC9111979F012F5F3F4F2D933C9320814D
:100290002032A1F70895EF92FF920F931F93CF930F
:1002A000DF93CDB7DEB72C970FB6F894DEBF0FBE45
:1002B000CDBF9C878B87CE010B960E943E01CE015D
:1002C00001967C018E010D5F1F4F9E012B5F3F4FFA
:1002D000AE01495F5F4FBE01675F7F4F8B859C8595
:1002E0000E94F200698586E892E00E9498180981D0
:1002F0002B814D816F8186E892E00E94DC1886E8B0
:1003000092E00E942E192C960FB6F894DEBF0FBE15
:10031000CDBFDF91CF911F910F91FF90EF90089586
:10032000EF92FF920F931F93CF93DF93CDB7DEB77A
:100330002C970FB6F894DEBF0FBECDBF9C878B877E
:10034000CE010B960E943E01CE0101967C018E01EA
:100350000D5F1F4F9E012B5F3F4FAE01495F5F4F07
:10036000BE01675F7F4F8B859C850E94F200698587
:1003700083E792E00E946E1909812B814D816F8184
:1003800083E792E00E94701983E792E00E94A3192C
:100390002C960FB6F894DEBF0FBECDBFDF91CF9184
:1003A0001F910F91FF90EF900895CF93DF93EC0191
:1003B0000E943E0188819981DF91CF910C94C827DA
:1003C000CF93DF9300D0CDB7DEB79A838983CE0178
:1003D00001960E94D501682F88EA92E00E94C50D1F
:1003E000CE0101960E94D501BC0188EA92E00E94EC
:1003F0000B0E0F900F90DF91CF910895CF93DF9365
:1004000000D0CDB7DEB79A838983CE0101960E94D2
:10041000D501682F8EE992E00E94E80ACE0101968C
:100420000E94D501BC018EE992E00E940D0B0F9055
:100430000F90DF91CF910895EF92FF920F931F934A
:10044000CF93DF9300D0CDB7DEB79A838983CE01F7
:1004500001960E94D5017C01CE0101960E94D50132
:100460008C01C7010E94C900053B110558F49C018D
:10047000220F331F280F391FB801C901835D9D4F1B
:100480000E94C11C0F900F90DF91CF911F910F918F
:10049000FF90EF900895CF93DF9300D0CDB7DEB7F4
:1004A0009A83898362E088EA92E00E94C50DCE01BA
:1004B00001960E94D501BC0188EA92E00E940B0ED1
:1004C00061E088EA92E00E94C50DCE0101960E948B
:1004D000D501BC0188EA92E00E940B0E0F900F90AC
:1004E000DF91CF9108951F93CF93DF9300D0CDB7C5
:1004F000DEB79A838983CE0101960E94D501182F19
:1005000060E00E94B21E812F0E940D1E4AE050E062
:10051000BC0184E993E00E9442220F900F90DF918A
:10052000CF911F9108951F93CF93DF9300D0CDB744
:10053000DEB79A838983CE0101960E94D501182FD8
:1005400060E00E94B21E812F0E940D1E4AE050E022
:10055000BC0184E993E00E9442220F900F90DF914A
:10056000CF911F910895CF93DF9300D0CDB7DEB721
:100570009A838983CE0101960E94D501682F82E675
:1005800092E00E940E10CE0101960E94D5012091AA
:10059000220230E02817390719F46CE471E002C038
:1005A00061E571E084E993E00E948D210F900F9046
:1005B000DF91CF910895CF93DF9300D0CDB7DEB711
:1005C0009A838983CE0101960E94D501682F8FE816
:1005D00092E00E94EA198FE892E00E94EC19AB01C8
:1005E000BC0122E030E084E993E00E947F230F9079
:1005F0000F90DF91CF9108951F93CF93DF9300D099
:10060000CDB7DEB79A838983CE0101960E94D501CA
:10061000182F60E00E94B21E812F0E94211F892B9B
:1006200019F46CE471E002C061E571E084E993E0E3
:100630000E948D210F900F90DF91CF911F9108950F
:100640000F931F93CF93DF9300D0CDB7DEB79A837C
:100650008983CE0101960E94D5018C01CE010196BD
:100660000E94D5019C01442737FD4095542FB801C5
:100670008DE692E00E94610D0F900F90DF91CF9177
:100680001F910F910895CF93DF9300D0CDB7DEB7C0
:100690009A838983CE0101960E94D501682F84ED4B
:1006A00092E00E94A11A84ED92E00E94A31AAB018D
:1006B000BC0122E030E084E993E00E947F230F90A8
:1006C0000F90DF91CF910895CF93DF9300D0CDB7F6
:1006D000DEB79A838983CE0101960E94D501682FE7
:1006E00082EE92E00E94D71082EE92E00E94D91032
:1006F000882319F06CE471E002C061E571E084E9DF
:1007000093E00E948D210F900F90DF91CF9108957B
:10071000CF93DF9300D0CDB7DEB79A838983CE0124
:1007200001960E94D501682F81EE92E00E94CB19BC
:1007300081EE92E00E94D0194AE050E0BC0184E9C9
:1007400093E00E9442220F900F90DF91CF91089585
:10075000EF92FF920F931F93CF93DF9300D01F92DE
:10076000CDB7DEB79A838983CE0101960E94D50169
:10077000682FCE0101966B830E94D501F82E6B8104
:1007800082EE92E00E94D710CE0101960E94D50120
:10079000182FCE0101960E94D501082FCE01019697
:1007A0000E94D501E82EF0FE07C0282F402F612FB0
:1007B00082EE92E00E942211F1FE07C02E2D402F02
:1007C000612F82EE92E00E9428110F900F900F90FF
:1007D000DF91CF911F910F91FF90EF900895EF92CD
:1007E000FF920F931F93CF93DF9300D01F92CDB74B
:1007F000DEB79A838983CE0101960E94D501682FC6
:10080000CE0101966B830E94D501F82E6B8184ED99
:1008100092E00E94A11ACE0101960E94D501182FE4
:10082000CE0101960E94D501082FCE0101960E94AB
:10083000D501E82EF0FE07C0282F402F612F84ED50
:1008400092E00E94121BF1FE07C02E2D402F612F57
:1008500084ED92E00E94181B0F900F900F90DF9193
:10086000CF911F910F91FF90EF9008950F931F93D9
:10087000CF93DF9300D01F92CDB7DEB79A838983E1
:10088000CE0101960E94D501682FCE0101966B839F
:100890000E94D5018C016B818EEC92E00E94C31600
:1008A0008EEC92E00E94C5168EEC92E001301105AC
:1008B00019F40E94DE1602C00E94E1164AE050E0E0
:1008C000682F84E993E00E9467220F900F900F90A9
:1008D000DF91CF911F910F910895FF920F931F9376
:1008E000CF93DF9300D000D0CDB7DEB79A83898352
:1008F000CE0101960E94D501682FCE0101966C832E
:100900000E94D501F82ECE0101960E94D501482FF4
:10091000CE0101964B830E94D5018C016C8183EB43
:1009200092E00E94571121E04B81012B09F420E055
:100930006F2D83EB92E00E9404130F900F900F90A5
:100940000F90DF91CF911F910F91FF9008951F930A
:10095000CF93DF9300D000D0CDB7DEB79A838983E1
:10096000CE0101960E94D501682FCE0101966C83BD
:100970000E94D501182FCE0101960E94D501482F63
:10098000CE0101964B830E943E016C8183EB92E085
:100990000E94571129813A814B81612F83EB92E0AC
:1009A0000E94AA120F900F900F900F90DF91CF919D
:1009B0001F9108959F92AF92BF92CF92DF92EF92D4
:1009C000FF920F931F93CF93DF93CDB7DEB7679757
:1009D0000FB6F894DEBF0FBECDBF9F8B8E8B8E01FE
:1009E0000A5E1F4FC8010E94D501982EC8010E94BF
:1009F000D501D82EC8010E94D501C82ECE0101967E
:100A00007C015C01C8010E94D501F70181937F013F
:100A1000E017F107B9F7692D83EB92E00E945711B7
:100A200095014C2D6D2D83EB92E00E947911679614
:100A30000FB6F894DEBF0FBECDBFDF91CF911F91EF
:100A40000F91FF90EF90DF90CF90BF90AF909F906D
:100A500008951F93CF93DF9300D01F92CDB7DEB7D9
:100A60009A838983CE0101960E94D501682FCE0119
:100A700001966B830E94D501182FCE0101960E942A
:100A8000D501482F6B8183EB92E04B830E94571175
:100A90004B81612F83EB92E00E942A120F900F90FE
:100AA0000F90DF91CF911F9108951F93CF93DF9304
:100AB00000D01F92CDB7DEB79A838983CE0101960D
:100AC0000E94D501682FCE0101966B830E94D5014B
:100AD000182FCE0101960E94D501482F6B8183EB20
:100AE00092E04B830E9457114B81612F83EB92E080
:100AF0000E9451120F900F900F90DF91CF911F9194
:100B00000895CF93DF9300D0CDB7DEB79A83898362
:100B1000CE0101960E94D501682F83EB92E00E94DE
:100B2000571183EB92E00E9459110F900F90DF91C3
:100B3000CF910895CF93DF9300D0CDB7DEB79A83DE
:100B40008983CE0101960E94D501682F87E592E046
:100B50000E946B1A87E592E00E946D1A882319F0B3
:100B60006CE471E002C061E571E084E993E00E9409
:100B70008D210F900F90DF91CF9108950F931F93C8
:100B8000CF93DF9300D01F92CDB7DEB79A838983CE
:100B9000CE0101960E94D501682FCE0101966B838C
:100BA0000E94D5018C016B818CE592E00E941B0FA5
:100BB0008CE592E00E941D0F60E08CE592E0012B35
:100BC00019F40E94410F02C00E94360F4AE050E023
:100BD000BC0184E993E00E947E220F900F900F9059
:100BE000DF91CF911F910F910895CF93DF9300D0A4
:100BF000CDB7DEB79A838983CE0101960E94D501D5
:100C00000E940D1E4AE050E0BC0184E993E00E947E
:100C100042220F900F90DF91CF9108950F931F9371
:100C2000CF93DF9300D0CDB7DEB79A838983CE010F
:100C300001960E94D501182FCE0101960E94D50180
:100C4000082F61E0812F0E94B21E602F812F0E9429
:100C5000EB1E0F900F90DF91CF911F910F91089590
:100C6000CF93DF9300D0CDB7DEB79A838983CE01CF
:100C700001960E94D501682F8EE692E00E940E1820
:100C80008EE692E00E9410184AE050E0682F84E956
:100C900093E00E9467220F900F90DF91CF9108950B
:100CA000CF93DF93EC010E943E0188819981DF910F
:100CB000CF910C94C427CF92DF92EF92FF921F93B3
:100CC000CF93DF9300D0CDB7DEB79A838983CE016F
:100CD00001960E94D501182FCE0101960E94500660
:100CE0006B017C01612F83EB92E00E945711B701E9
:100CF000A60183EB92E00E9443130F900F90DF91C7
:100D0000CF911F91FF90EF90DF90CF900895CF92F9
:100D1000DF92EF92FF921F93CF93DF9300D0CDB776
:100D2000DEB79A838983CE0101960E94D501182FE0
:100D3000CE0101960E9450066B017C01612F8BE46D
:100D400092E00E94890BB701A6018BE492E00E9419
:100D5000B00B0F900F90DF91CF911F91FF90EF900C
:100D6000DF90CF900895EF92FF920F931F93CF9350
:100D7000DF931F92CDB7DEB78C0101960E94C82782
:100D80008037910509F4CBC00CF054C08A3091052E
:100D900009F4ACC00CF58330910509F4DEC074F49D
:100DA0008130910509F4CFC00CF0D2C0892B09F035
:100DB0002AC18CEFE82E82E0F82EFCC08830910525
:100DC00009F48AC00CF08DC0079709F01CC123EB11
:100DD000E22E22E0F22EEEC08336910509F4AEC079
:100DE00074F48C30910509F472C00CF4DFC00D97D7
:100DF00009F009C1B0E9EB2EB1E0FB2ED5C08D366C
:100E0000910509F482C04CF48636910509F0FBC0C7
:100E100052EBE52E50E0F52EC7C08E36910509F451
:100E200079C08F36910509F0EEC096E3E92E94E083
:100E3000F92EC0C08A37910509F4A8C0FCF48437A4
:100E4000910509F494C05CF48237910509F46CC0F3
:100E50000CF06FC0BDE6EB2EB4E0FB2EA5C08637CC
:100E6000910509F47FC00CF487C08937910509F01A
:100E7000CAC0AAE9EA2EA5E0FA2E9CC08E379105D9
:100E800009F47FC05CF48C37910509F484C00CF43C
:100E900087C09EE0E92E96E0F92E86C0893C910538
:100EA00051F14CF4883C910509F0ADC0E0EEEE2E16
:100EB000E1E0FE2E79C08A3C910511F18C3C910550
:100EC00009F0A1C07EEFE72E71E0F72E6DC09BED1B
:100ED000E92E92E0F92E6EC0B3E7EB2EB2E0FB2EC6
:100EE00069C0ABE4EA2EA1E0FA2E5EC0F0E2EF2E7C
:100EF000F3E0FF2E59C06BE4E62E62E0F62E54C0FC
:100F00004CE1E42E42E0F42E4FC03FEEE32E33E0FE
:100F1000F32E4AC023E4E22E23E0F22E4BC08BE5F1
:100F2000E82E86E0F82E40C0A7EAEA2EA4E0FA2ECA
:100F30003BC0FAEDEF2EF4E0FF2E36C0ECEAEE2EC9
:100F4000E8E0FE2E31C079E2E72E75E0F72E2CC0E6
:100F500065E5E62E65E0F62E27C051E8E52E55E062
:100F6000F52E22C048EAE42E43E0F42E1DC038E8F6
:100F7000E32E33E0F32E1EC024E6E22E23E0F22E11
:100F800019C080E3E82E86E0F82E14C0FEEBEF2EA9
:100F9000F5E0FF2E0FC0E5EFEE2EE5E0FE2E0AC0D5
:100FA00077E8E72E76E0F72E20E005C063E9E62E2D
:100FB00062E0F62E21E0D8010D900020E9F7AD01A6
:100FC00041505109401B510BE0919403F09195035E
:100FD0000280F381E02DB80184E993E0298309952B
:100FE000C801F7010995298121110DC067E571E05C
:100FF00084E993E00F90DF91CF911F910F91FF90C3
:10100000EF900C948D210F90DF91CF911F910F9154
:10101000FF90EF900895FC0120812D3411F40C9481
:10102000B306089560E089E00E94B21E60E08AE0A5
:101030000E94B21E60E08CE00E94B21E60E084E07C
:101040000E94B21E82E692E00C941E1026E040E060
:1010500052EC61E070E084E993E00E942D200C9452
:1010600012080F931F9382E692E00E949110892B41
:1010700079F00E94701D60931E0270931F0280938E
:10108000200290932102809165028093220215C074
:101090000E94701D00911E0210911F0220912002DB
:1010A00030912102601B710B820B930B693C71051F
:1010B0008105910510F0109222021F910F91089561
:1010C000DF92EF92FF920F931F93CF93DF93C2EFC4
:1010D000D2E00AE511E0F2E0C63FDF07A9F1EE2415
:1010E000E394F12C8881811102C0E12CF12CF801EC
:1010F000D1908F018D2D0E94211FE816F90611F164
:101100008881882311F018821DC060E971E080E0B9
:1011100090E00E949F1D6D2D8EEE92E00E94E516DC
:101120008EEE92E00E94FF1661E08EEE92E00E9449
:1011300076178EEE92E00E942D178EEE92E00E94BE
:10114000DE1788832196C7CFDF91CF911F910F9132
:10115000FF90EF90DF900895EF92FF920F93CF935F
:10116000DF9380E090E00E94B20063E086E892E0C6
:101170000E94981800E020E040E060E086E892E0FD
:101180000E94DC1886E892E00E942E190E946008F6
:10119000CAE5D1E042EFE42E42E0F42EF1E0CE3594
:1011A000DF0711F1F70181917F018823D9F08130A8
:1011B00071F4688184ED92E00E94A11A00E020E0C1
:1011C00040E063E084ED92E00E941E1B0BC0833080
:1011D00049F4688183EB92E00E94571183EB92E01F
:1011E0000E9459112196DACFDF91CF910F91FF9094
:1011F000EF900895CF93DF938EEE92E00E94E41675
:1012000060E082EE92E00E94BB1060E081EE92E02E
:101210000E94CE1960E084ED92E00E94851A60E0A1
:101220008EEC92E00E94AF1660E083EB92E00E94A9
:10123000531160E088EA92E00E94F10D60E08EE9CF
:1012400092E00E94F40A60E08FE892E00E94D419D4
:1012500060E086E892E00E94771860E083E792E021
:101260000E94531960E08EE692E00E94FA176BE04C
:101270008DE692E00E945E0D6FE082E692E00E94B1
:10128000021060E08CE592E00E94070F60E087E5C5
:1012900092E00E94571A60E08BE492E00E94750B86
:1012A000CDE2D2E0CE010E94EE1B239682E0CB3449
:1012B000D807C1F7DF91CF91089586E892E00C94AA
:1012C00047191F93CF93DF93C0E8D0E010E284E981
:1012D00093E00E944A1F892B81F184E993E00E94E8
:1012E000631F20911C0230911D028A30C1F4C90194
:1012F0000197FC01E456FE4F40814D3011F49C01F2
:10130000F6CFF901E456FE4F1083118210921D02B0
:1013100010921C028CE991E00E940B08D8CFF901D1
:10132000E456FE4F8083C9010196BE010E94142637
:1013300090931D0280931C02CACFDF91CF911F9121
:1013400008950E9431080C946109089570E0FB0132
:10135000E458FF4FE491DC01EC93FB01E057FF4FB1
:10136000E491F0E0EE0FFF1FEC55FF4F2591349113
:10137000FC013283218308951F93CF93DF93FC01F7
:101380001081C181D2819981812F809589238983A0
:101390008A81812B8A838AE090E00E94C71D988110
:1013A000912381E009F480E0DF91CF911F910895AE
:1013B000FF920F931F93CF93DF93FC011081C181A4
:1013C000D281F8948981F12EF0948F2189838A81CA
:1013D000812B8A8378940DE7015041F182E090E0FF
:1013E0000E94C71D88818123B9F3F8948A818F21D7
:1013F0008A838981812B8983789480EE91E00E9491
:10140000C71DF89489818F2189838A81812B8A83E2
:1014100086E490E00E94C71D8881812301E009F0E5
:1014200000E078948AE991E00E94C71D802FDF9147
:10143000CF911F910F91FF9008951F93CF93DF934A
:10144000FC011081C181D281912F909560FF12C063
:10145000F8948A8189238A838981812B89838AE010
:1014600090E00E94C71D8A81812B8A83789487E34C
:1014700090E011C0F8948A8189238A838981812B25
:10148000898381E490E00E94C71D8A81812B8A8331
:10149000789485E090E0DF91CF911F910C94C71D67
:1014A0000F931F93CF93DF93FC011081C181D281F1
:1014B000F8948981812B89838A81012F009580236B
:1014C0008A8383E090E00E94C71D898180238983FD
:1014D0008A81812B8A838AE090E00E94C71DC8819F
:1014E000789485E390E00E94C71D1C2381E009F4F5
:1014F00080E0DF91CF911F910F910895CF92DF92FD
:10150000EF92FF920F931F93CF93DF931F92CDB76C
:10151000DEB76C01E62E08E010E0FF24F39461E0F2
:101520009F2D9E2109F460E0C60149830E941D0A97
:10153000FF0C0150110949810115110581F7411175
:101540001DC0F894D6011196ED91FC9112979181EE
:101550008C918095892381831196ED91FC9112974E
:1015600082819C91892B82831196ED91FC91129737
:1015700092818C9180958923828378940F90DF915A
:10158000CF911F910F91FF90EF90DF90CF90089532
:10159000EF92FF920F931F93CF93DF938C01C8E0DC
:1015A000D0E0F12CEE24E394C8010E94500A81118E
:1015B000FE28EE0C2197C1F78F2DDF91CF911F915F
:1015C0000F91FF90EF90089540E06CEC0C947E0A30
:1015D000CF93DF93EC010E94E5168CE291E09F83AC
:1015E0008E83DF91CF9108950F931F93CF93DF9355
:1015F0001F92CDB7DEB78C0169830E94E416F80113
:1016000017821682108611866981C8010F90DF91BA
:10161000CF911F910F910C94E80ACF92DF92EF9235
:10162000FF92CF93DF93EC016F3F710519F014F037
:101630006FEF70E061308FEF780714F461E07FEFB7
:101640008E819F818617970709F448C07F836E8338
:101650006B01EE24D7FCE094FE2CCE0177FD14C084
:101660000E94FF1662E0CE010E947617CE010E9412
:10167000FF16C701B6010E94DD2420E030E040E201
:1016800050E40E9442241BC00E94FF1662E0CE017B
:101690000E947617CE010E94FF16C701B6010E9474
:1016A000DD2420E030E040E250E40E9442249B012F
:1016B000AC0160E070E088EC92E40E94D9230E94C3
:1016C000AF24CE010E94761784EF91E0DF91CF9195
:1016D000FF90EF90DF90CF900C94C71DDF91CF91DA
:1016E000FF90EF90DF90CF9008950F931F93CF93CB
:1016F000DF931F92CDB7DEB78C0169830E94E41699
:101700006981C8010F90DF91CF911F910F910C94C7
:10171000E5160C94E516CF93DF93EC010E94FF16BB
:1017200081111BC062E0CE010E947617CE010E949B
:10173000FF16811112C06C81CE010E9476176D8157
:10174000CE010E9476176E81CE010E9476176F81BE
:10175000CE01DF91CF910C947617DF91CF91089550
:101760002F923F924F925F926F927F928F929F92B1
:10177000AF92BF92CF92DF92EF92FF920F931F939F
:10178000CF93DF93CDB7DEB72F970FB6F894DEBFB8
:101790000FBECDBF8C012A013B019A01AB01FC01B8
:1017A00060857185828593850E943E24882309F493
:1017B0006CC1F8014086518662867386CE0101961F
:1017C0009C878B878AE0EB85FC8511928A95E9F7E7
:1017D00020E03CE34CE156E4C301B2010E948D25B8
:1017E00087FD04C089E0F80184830EC020E030EC5E
:1017F00049E754ECC301B2010E943E24181644F09C
:1018000080E1F801848389E0858386838783D3C060
:1018100020E030E0A901C301B2010E943E24811101
:1018200007C080E4F8018483858386831782C3C060
:1018300020E030E0A901C301B2010E943E2487FFED
:1018400007C077FA709477F87094F1E0FD8701C0D3
:101850001D8620E030E04AE754E4C301B2010E9453
:1018600042240E94AF246983C301B2010E94AA24CA
:101870009B01CB0168EE73E00E941426E4E6F0E0E1
:10188000BF010E9414266A83C901BF010E94142669
:101890004AE0E42EF12CB7010E9414266B83C901A3
:1018A000B7010E9414265C018C8320E030E040E206
:1018B00051E4C301B2010E9491250E94AA24CB01E8
:1018C000B7010E9414266C018D8320E030E048ECC3
:1018D00052E4C301B2010E9491250E94AA24CB01C7
:1018E000B7010E9414264C018E8320E030E04AE7C5
:1018F00054E4C301B2010E9491250E94AA24CB01A5
:10190000B7010E9414269F878E878F83212CE22C9B
:10191000F12CE1E0F0E0EC0FFD1FEE0DFF1D30803B
:10192000311002C02394F3CF20E030E040E85FE3C1
:10193000C301B2010E948D2587FD10C0A32CFE01BA
:10194000EE0DFF1DC280FE01EE0DFF1D8380FE0126
:10195000EE0DFF1D848124E0221907C0BB24DD2485
:1019600099248E859F85992721E03D85313059F452
:1019700080E1F8018483A582C6828782223051F0FB
:101980002130C9F40DC0F801A482C5828682878304
:10199000233021F48681806286830DC0223029F4B1
:1019A000F80185818062858306C0213021F4F80129
:1019B000848180628483F801848185FF0BC08581E6
:1019C000811141C0868181113EC08781882309F43D
:1019D00045C039C0F801858185FF0AC08681811123
:1019E0004DC0878181114AC0F80185818F703FC049
:1019F000F801868185FF0CC08781811109C086812D
:101A00008F708783858186838481858380E4848346
:101A1000C8012F960FB6F894DEBF0FBECDBFDF9181
:101A2000CF911F910F91FF90EF90DF90CF90BF90DB
:101A3000AF909F908F907F906F905F904F903F906E
:101A40002F900C948B0BF8018681811117C0F8013F
:101A50008781811113C0F801858109C0F801848153
:101A60008F70878380E4848385838683D1CF878347
:101A70008481868380E484838583CACFF80187814B
:101A80008111C6CFF8018681BCCF2F960FB6F8948E
:101A9000DEBF0FBECDBFDF91CF911F910F91FF90A1
:101AA000EF90DF90CF90BF90AF909F908F907F90FE
:101AB0006F905F904F903F902F9008956093F60243
:101AC00008954F925F926F927F928F929F92AF9202
:101AD000BF92CF92DF92EF92FF920F931F93CF931B
:101AE000DF9369017A019B0140E050E060E472E419
:101AF0008FE090E00E944A26E901890137FF02C089
:101B00000F5F1F4F1595079561E08091F6020E94C7
:101B1000B21EA8EEB3E0A70196010E9469264B0110
:101B20005C01C12CD12C76012E01662457FC6094F7
:101B3000762CC814D904EA04FB04B0F461E0809167
:101B4000F6020E94EB1EC8010E94C71D60E0809152
:101B5000F6020E94EB1EC8010E94C71DA895C40C86
:101B6000D51CE61CF71CE5CFDF91CF911F910F919B
:101B7000FF90EF90DF90CF90BF90AF909F908F90AD
:101B80007F906F905F904F9008950F931F93CF9326
:101B9000DF93EC01062F10E0000F111F065F1E4FB0
:101BA000633050F0F8016081CE010E94E516F80123
:101BB0008181898718860CC061E0F80181810E94CB
:101BC000B21EF80180818D8381818C8381E08887BA
:101BD0008CE291E09F838E83DF91CF911F910F91D3
:101BE00008950F931F93CF93DF931F92CDB7DEB766
:101BF0008C0169830E94E416F80117821682108610
:101C0000118612866981C8010F90DF91CF911F91D3
:101C10000F910C94C50DEF92FF920F931F93CF93EA
:101C2000DF9300D0CDB7DEB77C01FC018285811146
:101C300009C069837A830E94C80081E0F701828726
:101C40007A8169818B016F3F710519F014F00FEFF4
:101C500010E00130FFEF1F0714F401E01FEFF70160
:101C6000868197818017910709F4C8C0178306837E
:101C7000808517FD4EC0813079F58481873019F455
:101C8000848160E006C0F7018481883089F4848112
:101C900061E00E94EB1EF7018581B8010F900F9063
:101CA000DF91CF911F910F91FF90EF900C942A1E1E
:101CB000F7018481893029F0F7018481863009F0A9
:101CC0009DC0848161E00E94EB1EF70185816FEF6A
:101CD00070E0601B710BE2CFC7010E94FF1662E04B
:101CE000C7010E947617C7010E94FF16F7016185A0
:101CF000C7010E947617B801882777FD8095982F35
:101D00000E94DD2420E030E040E250E40E944224C2
:101D100064C08130F1F5F7018481873061F48481FA
:101D200061E00E94EB1EF701858166277727601B23
:101D3000710B0E942A1EF7018481883061F484812E
:101D400060E00E94EB1EF701858166277727601B04
:101D5000710B0E942A1EF7018481893059F4858114
:101D600061E00E94EB1EF7018481B80161507F4F52
:101D70000E942A1EF7018481863009F03FC08581C8
:101D800061E00E94EB1EF7018481B80161507F4F32
:101D900085CFC7010E94FF1662E0C7010E94761737
:101DA000C7010E94FF16F7016185C7010E947617DF
:101DB000B801882777FD8095982F0E94DD2420E0C8
:101DC00030E040E250E40E9442249B01AC0160E01C
:101DD00070E088EC92E40E94D9230E94AF24C701EE
:101DE0000E94761784EF91E00F900F90DF91CF91D2
:101DF0001F910F91FF90EF900C94C71D0F900F90C3
:101E0000DF91CF911F910F91FF90EF9008950F9365
:101E10001F93CF93DF931F92CDB7DEB78C016983F9
:101E20000E94E4166981C8010F90DF91CF911F9144
:101E30000F910C94E5160C94E516CF93DF93EC010B
:101E40000E94FF1681110FC062E0CE010E9476173A
:101E5000CE010E942D17CE010E94DE178C83CE0189
:101E60000E94DE178D83DF91CF910895CF93DF938A
:101E7000EC0161110E941D0F8C8190E0DF91CF91E8
:101E80000895CF93DF93EC0161110E941D0F8D81A6
:101E900090E0DF91CF9108951F920F920FB60F92AD
:101EA00011240F931F932F933F934F935F936F933F
:101EB0007F938F939F93AF93BF93CF93EF93FF93B2
:101EC0008091F7020E94211FC82F2091FE023091BD
:101ED000FF022F5F3F4F3093FF022093FE0280915D
:101EE0006403843618F085E08093F9029091F9023A
:101EF000933079F018F4923039F070C0943011F1C9
:101F0000953009F44AC06AC0C11168C010926403D8
:101F100029C0C13009F062C0E091640381E08E0FF6
:101F200080936403F0E08091FE029091FF02E850FC
:101F3000FD4F80871092FF021092FE0284E0809392
:101F4000F9024CC0C11114C0E091640381E08E0F0E
:101F500080936403F0E08091FE029091FF02E850CC
:101F6000FD4F80871092FF021092FE0283E0E7CFC0
:101F70008091FE029091FF028536910578F185E00F
:101F80008093F9020E94701D6093FA027093FB0225
:101F90008093FC029093FD0221C00E94701D00916D
:101FA000FA021091FB022091FC023091FD02601BAD
:101FB000710B820B930B693C71058105910540F013
:101FC000109264031092FF021092FE0282E0B7CFDB
:101FD000C11104C01092FF021092FE02FF91EF9116
:101FE000CF91BF91AF919F918F917F916F915F91B1
:101FF0004F913F912F911F910F910F900FBE0F9016
:102000001F9018956093F7028091F70260E00E949C
:10201000B21E8091F7028093F80208958091F70232
:10202000861759F06093F7028091F70260E00E94F2
:10203000B21E8091F7028093F8020895F89482E02E
:102040008093B0008093B10094E69093B300109217
:10205000B200809370007894109264038093F90228
:1020600008951F93CF93DF93FC01A681B7818C91D4
:1020700086588D3558F48085918583309105A1F47B
:1020800011968C9111978152893118F080E090E07F
:1020900044C012968C9188508730C0F7158281E039
:1020A000808381E090E039C0833491057CF3119600
:1020B0008C91119783548F3248F782E090E040E092
:1020C00050E0BA019D012F5F3F4FEC01CA0FDB1FAB
:1020D000C881C850C730D0F6E901C80FD91F188190
:1020E0001751133180F47695679557954795706829
:1020F00002968234910549F780E2858341835283B9
:1021000063837483CCCFC881C850C73008F0BECF7A
:102110007695679557954795EBCFDF91CF911F91B6
:1021200008950F931F93CF93DF93EC0180E093E02A
:102130009F838E838091640390E099878887809144
:10214000F902853081F4CE010E9431108C01CE015C
:102150000115110529F00E941E1001E010E005C0D4
:102160000E941E1002C000E010E0C801DF91CF9174
:102170001F910F9108950F931F93CF93DF931F9299
:10218000CDB7DEB78C0169830E94E416F801158291
:102190001682178210861186128613866981C801FD
:1021A0000F90DF91CF911F910F910C94E5160C9435
:1021B000E516CF93DF93EC010E94FF16811111C049
:1021C00062E0CE010E947617CE010E942D17CE014B
:1021D0000E94DE178C8388E293E20E94C71D8C81E7
:1021E00001C080E0DF91CF910895CF93DF93EC01A0
:1021F0000E94FF16811123C063E0CE010E94761772
:10220000CE010E94FF1681111AC06E81CE010E947C
:1022100076176F81CE010E9476176885CE010E94E5
:1022200076176985CE010E9476176A85CE010E94D5
:1022300076176B85CE01DF91CF910C947617DF91E5
:10224000CF910895FC016683478320870C94F51095
:10225000FC016187428723870C94F5100F931F932D
:10226000CF93DF9300D01F92CDB7DEB78C012B83C5
:102270004A8369830E94E416F801349685E1DF0100
:102280001D928A95E9F74A81F801418F2B81228FAF
:102290006981C8010F900F900F90DF91CF911F912E
:1022A0000F910C94E51627E045E10C942E110C9447
:1022B000E516CF93DF93EC01298D80E090E0821743
:1022C00030F4FE01E80FF91F14820196F8CFCE0119
:1022D0000E94FF1681110AC065E0CE010E947617A8
:1022E00088E893E1DF91CF910C94C71DDF91CF91E6
:1022F00008955F926F927F928F929F92AF92BF925A
:10230000CF92DF92EF92FF920F931F93CF93DF93C1
:10231000EC01542E4901E98CF12C8A8DA62EBB24A8
:10232000A7FCB094222733272E193F092A153B0515
:1023300094F4AE14BF047CF490E0C42EDD24C7FCFA
:10234000D09422273327281B390B2C153D051CF46C
:10235000C816D90694F0CE01DF91CF911F910F914D
:10236000FF90EF90DF90CF90BF90AF909F908F90B5
:102370007F906F905F900C945911CE010E94FF16D0
:1023800062E0CE010E947617CE010E94FF16002760
:1023900011270A191B0937016A187B08AA24BB24D4
:1023A000AC18BD080615170504F517FD17C00E1566
:1023B0001F05A4F4F401E00FF11F608157FC06C073
:1023C0000C2C01C0660F0A94EAF709C070E00A2CD1
:1023D00002C0759567950A94E2F701C060E0CE01EE
:1023E0000E9476170F5F1F4FDDCFDF91CF911F91B6
:1023F0000F91FF90EF90DF90CF90BF90AF909F90A4
:102400008F907F906F905F9008950F931F93CF935D
:10241000DF93EC01062F142F0E94FF16811115C0C7
:1024200063E0CE010E947617CE010E94FF16811153
:102430000CC0602FCE010E947617612FCE01DF9174
:10244000CF911F910F910C947617DF91CF911F912F
:102450000F910895CF93DF93E62FF0E0DC015996BA
:102460002C91599730E0E217F307C4F4242F30E0A1
:102470005A96AC91B0E02A173B0784F4E80FF91F95
:10248000548121E030E001C0220F4A95EAF7522B37
:1024900054834481DF91CF910C940512DF91CF9149
:1024A0000895CF93DF93E62FF0E0DC0159962C914D
:1024B000599730E0E217F307CCF4242F30E05A9616
:1024C000AC91B0E02A173B078CF4E80FF91F548158
:1024D00021E030E001C0220F4A95EAF7209525233C
:1024E00024834481DF91CF910C940512DF91CF9129
:1024F0000895FF920F931F93CF93DF93EC01F62E75
:10250000042F122F0E94FF1681111EC067E0CE011A
:102510000E947617CE010E94FF16811115C06F2D03
:10252000CE010E947617602FCE010E947617612F90
:10253000CE010E94761788EB9BE0DF91CF911F912F
:102540000F91FF900C94C71DDF91CF911F910F91B8
:10255000FF900895AF92BF92CF92DF92EF92FF92D9
:102560000F931F93CF93DF93EC01B62EA42E790126
:1025700000E010E0C62EDD24C7FCD094C8018C0D0D
:102580009D1D8B3F2FEF92071CF1298D30E08217A4
:10259000930724F5F701208121110EC08C01898D4C
:1025A00090E008171907D4F440E0602FCE010E9494
:1025B00005120F5F1F4FF3CF21526B2D600F2E3589
:1025C00018F023E040E001C04A2DCE010E947912AC
:1025D0000A5F1F4FFFEFEF1AFF0AD0CF1FEF1B0D4F
:1025E0001B143CF440E0612FCE010E940512B12E75
:1025F000F5CFDF91CF911F910F91FF90EF90DF907A
:10260000CF90BF90AF900895EF92FF920F931F93DA
:10261000CF93DF93EC01862FF42E022F1AE0612F67
:102620000E940826E92E2FE0280F40E06FEFCE0130
:102630000E9479122FE02E0D40E064E0CE010E944E
:1026400079128F2D612F0E940826192F2FE0280F55
:1026500040E06BE0CE010E9479122FE0210F40E0B4
:1026600060E1CE010E947912002311F044E101C023
:1026700040E06AE0CE01DF91CF911F910F91FF9072
:10268000EF900C9405122F923F924F925F926F92AF
:102690007F928F929F92AF92BF92CF92DF92EF92F2
:1026A000FF920F931F93CF93DF93CDB7DEB76B9756
:1026B0000FB6F894DEBF0FBECDBF8C012A013B01DF
:1026C000CE0101969C8B8B8B8AE0EB89FC89119261
:1026D0008A95E9F7CE010B969E8B8D8B88E0ED896C
:1026E000FE8911928A95E9F720E03CE34CE156E43B
:1026F000C301B2010E948D2587FD1BC028E140E087
:102700006FEFC8010E94791228E140E064E0C8013F
:102710000E94791228E140E069E0C8010E94791224
:1027200028E140E06EE0C8010E94791240E064E1D7
:102730002DC020E030EC49E754ECC301B2010E9407
:102740003E241816F4F128E140E064E0C8010E943C
:10275000791228E140E06AE0C8010E94791228E17C
:1027600040E06FE0C8010E94791248E060E0C801D3
:102770000E94051248E061E0C8010E94051248E08D
:1027800062E0C8010E94051248E063E0C8016B9650
:102790000FB6F894DEBF0FBECDBFDF91CF911F9172
:1027A0000F91FF90EF90DF90CF90BF90AF909F90F0
:1027B0008F907F906F905F904F903F902F900C94F0
:1027C000051220E030E0A901C301B2010E943E24BD
:1027D000811130C023E040E060E0C8010E9479121E
:1027E00023E040E065E0C8010E94791223E040E068
:1027F0006AE0C8010E9479122FE040E06FE0C80152
:102800006B960FB6F894DEBF0FBECDBFDF91CF91B0
:102810001F910F91FF90EF90DF90CF90BF90AF90FE
:102820009F908F907F906F905F904F903F902F90F0
:102830000C94791220E030E0A901C301B2010E949A
:102840003E2487FF07C077FA709477F87094F1E020
:10285000FF8B01C01F8A20E030E04AE754E4C30147
:10286000B2010E9442240E94AF246983C301B201D5
:102870000E94AA249B01CB0168EE73E00E941426FB
:10288000E4E6F0E0BF010E9414266A83C901BF019B
:102890000E9414264AE0E42EF12CB7010E9414266F
:1028A0006B83C901B7010E9414266C018C8320E060
:1028B00030E040E251E4C301B2010E9491250E9440
:1028C000AA24CB01B7010E9414265C018D8320E06D
:1028D00030E048EC52E4C301B2010E9491250E940D
:1028E000AA24CB01B7010E9414264C018E8320E05C
:1028F00030E04AE754E4C301B2010E9491250E94EE
:10290000AA24CB01B7010E9414269A8F898F8F8346
:10291000212CE22CF12CE1E0F0E0EC0FFD1FEE0D9C
:10292000FF1D3080311002C02394F3CF20E030E04F
:1029300040E85FE3C301B2010E948D2587FD1DC001
:10294000832D90E09C878B87FE01EE0DFF1D828119
:1029500090E09E878D87FE01EE0DFF1D838190E044
:10296000988B8F87FE01EE0DFF1D848190E09A8B7E
:10297000898B84E0B82EB21810C0DD24DC86CB86AB
:10298000BB24BE86AD869924988A8F86898D9A8DC0
:1029900099279A8B898BBB24B394CB2CD12C8F890C
:1029A000813009F0B6C020E030E048EC52E4C301C9
:1029B000B2010E948D2587FD09C02CE040E06FEF39
:1029C000C8010E947912B3E09B2E25C020E030E0C0
:1029D00040E251E4C301B2010E948D25EF84F888E2
:1029E00087FD0BC0EF2849F72CE040E064E0C80108
:1029F0000E947912A2E09A2E0EC0EF28F1F68D8582
:102A00009E85892B89F72CE040E069E0C8010E948F
:102A1000791299249394C6010196382E330C330C05
:102A2000380E0196882E880C880C880EFE013B9685
:102A30005F016BE0E12CF12C892D90E0988F8F8B5A
:102A4000EF89F88DEE16FF060CF070C1F5E02F2E21
:102A5000260E93E099121AC0F5012081215FEC1433
:102A6000FD0414F0655001C0675040E0C8010E94A9
:102A7000791220E030E048EC52E4C301B2010E9438
:102A80008D2587FF21C040E4632D23C0F2E09F1213
:102A900024C0F5012081215FEC14FD040CF4625088
:102AA00040E0C8010E94791223E040E06FEFC801C6
:102AB0000E94791220E030E040E251E4C301B2010B
:102AC0000E948D2587FD03C040E064E102C040E420
:102AD000682DC8010E94051214C0F5012081215FF4
:102AE000EC14FD041CF040E0622D02C06D5F40E07C
:102AF000C8010E94791223E040E064E0C8010E940E
:102B00007912FFEFEF1AFF0A82E0A80EB11C622DC6
:102B100097CF20E030E04AE754E4C301B2010E94BD
:102B20008D2587FD03C0E4E09E2E39C020E030E013
:102B300048EC52E4C301B2010E948D25E988FA886D
:102B400087FD03C0EF2879F710C020E030E040E2B5
:102B500051E4C301B2010E948D2587FD09C0EF2811
:102B600011F78F859889892BA9F073E0972E17C0EC
:102B700020E030E040E85FE3C301B2010E948D2510
:102B8000EF2889F68F859889892B79F78D859E8521
:102B9000892B19F062E0962E02C0992493948B2C15
:102BA000880C880C8B0CC6010196382E330C330C24
:102BB000380EFAE0F80DFF8B7E018BE0E80EF11C79
:102BC0003BE0A12CB12CE92DF0E0FA8FE98FE98DE3
:102BD000FA8DAE16BF060CF0A9C055E0252E230EC7
:102BE000F4E09F121BC0F7012081215FAC14BD04EB
:102BF00014F066EF01C064EF630F40E0C8010E946B
:102C0000791220E030E04AE754E4C301B2010E94A7
:102C10008D2587FF7EC040E4682D7DC0F3E09F12C4
:102C200023C023E040E06FEFC8013B8F0E94791280
:102C30003B8DF7012081215FAC14BD0414F06BEFD4
:102C400001C069EF630F40E0C8010E94791220E0E3
:102C500030E048EC52E4C301B2010E948D2587FFA9
:102C600058C040E4632D57C0F2E023E040E06FEF2E
:102C7000C8013B8F9F1225C00E94791223E040E0DB
:102C800064E0C8010E9479123B8DF7012081215F29
:102C9000AC14BD041CF040E0632F03C06EEF630F63
:102CA00040E0C8010E94791220E030E040E251E4A7
:102CB000C301B2010E948D2587FF2BC040E46F89BC
:102CC0002AC00E94791223E040E064E0C8010E941B
:102CD000791223E040E069E0C8010E9479123B8D3F
:102CE000F7012081215FAC14BD041CF040E0622D8F
:102CF00003C063E0630F40E0C8010E94791220E046
:102D000030E040E85FE3C301B2010E948D2587FDFA
:102D100005C040E064E1C8010E940512FFEFAF1A50
:102D2000BF0A82E0E80EF11C322D51CF6B960FB630
:102D3000F894DEBF0FBECDBFDF91CF911F910F91F1
:102D4000FF90EF90DF90CF90BF90AF909F908F90CB
:102D50007F906F905F904F903F902F9008950F93CA
:102D60001F93CF93DF931F92CDB7DEB78C0169839A
:102D70000E94E4166981C8010F90DF91CF911F91E5
:102D80000F910C94E5160C94E516CF93DF93EC01AC
:102D90000E94FF1681110FC062E0CE010E947617DB
:102DA000CE010E942D17CE010E94DE178C83CE012A
:102DB0000E94DE178D83DF91CF910895FC018481FD
:102DC0000895FC01858108950895DC016C9370E0FD
:102DD000FB01E458FF4FE4911196EC931197FB012E
:102DE000E057FF4FE491F0E0EE0FFF1FEC55FF4F6F
:102DF0008591949113969C938E9312970895FF92C8
:102E00000F931F93CF93DF938C01FC01F180C2815C
:102E1000D38189818F2989839A818F2D80958923F8
:102E20008A8380EE91E00E94C71D60E0F8018081F6
:102E30000E94B21E82E390E00E94C71DC88184E612
:102E400090E00E94C71DFC2281E009F480E0DF9140
:102E5000CF911F910F91FF900895AF92BF92CF92A3
:102E6000DF92EF92FF920F931F93CF93DF938C012A
:102E7000FC01B180C281D3810E94701D6B017C0175
:102E80008981AB2CA0948A2189838A818B298A83AA
:102E900088818B2169F00E94701D6C197D098E0953
:102EA0009F09653671058105910590F380E013C097
:102EB00088818B21E9F389818B2989838A818A2101
:102EC0008A838EE190E00E94C71D60E0F801808156
:102ED0000E94B21E81E0DF91CF911F910F91FF9070
:102EE000EF90DF90CF90BF90AF9008950F931F9316
:102EF000CF93DF93EC01062F18E0F89460E088810F
:102F00000E94EB1E61E088810E94B21E85E090E085
:102F10000E94C71D00FF02C061E001C060E088811F
:102F20000E94EB1E069578948EE190E00E94C71DEA
:102F300061E088810E94EB1E85E090E00E94C71D41
:102F40001150D9F660E08881DF91CF911F910F91E8
:102F50000C94B21ECF92DF92EF92FF921F93CF9309
:102F6000DF93FC011181C281D3810E94701D6B012E
:102F70007C018881812359F00E94701D6C197D09A4
:102F80008E099F09643071058105910590F3F894CD
:102F90008EE190E00E94C71DC881789488E290E09D
:102FA0000E94C71D1C2381E009F480E0DF91CF91CE
:102FB0001F91FF90EF90DF90CF9008950F931F9394
:102FC000CF93DF93EC0160E088810E94B21E08E09D
:102FD00010E0CE010E94AA1720E8829FC0011124B0
:102FE0001695182B0150A9F7812FDF91CF911F91D2
:102FF0000F9108950F931F93CF93DF931F92CDB737
:10300000DEB78C0169830E94E4166981C8010F90C4
:10301000DF91CF911F910F910C94E5160C94E5165A
:10302000CF93DF93EC010E94FF1681110DC062E087
:10303000CE010E947617CE010E942D17CE010E946C
:10304000DE178C838C8101C080E0DF91CF910895E1
:10305000EF92FF920F931F93CF93DF931F92CDB701
:10306000DEB77C01DC0112968D919C911397062F9F
:1030700010E0009749F02D913C912017310779F12C
:1030800069830E9435276981F70111830083F3E08A
:103090006F9FC00111240E949D26D70113969C9317
:1030A0008E931297892B21F48EE591E00E94EE27F2
:1030B00080E090E0F701408151819A01220F331F97
:1030C000240F351F8217930750F4D7011296ED9104
:1030D000FC911397E80FF91F10820196EBCF0F9028
:1030E000DF91CF911F910F91FF90EF900895CF93B3
:1030F000DF93EC01862F262F30E0F901E458FF4FD3
:10310000E491E887F901E057FF4FE491F0E0EE0F1A
:10311000FF1FE255FF4F259134913D832C8361E0E1
:103120000E94B21E60E2CE01DF91CF910C9428186C
:10313000CF93DF93EC01862F262F30E0F901E4587E
:10314000FF4FE491E887F901E057FF4FE491F0E089
:10315000EE0FFF1FE255FF4F259134913D832C83E5
:1031600061E00E94B21E60E2CE01DF91CF910C942B
:1031700028180F93FC01A62FB0E080819181A81739
:10318000B907B8F4862F880F860F90E0A281B3812B
:10319000A80FB91F2C93A281B381A80FB91F119654
:1031A0004C930280F381E02DE80FF91F028381E048
:1031B00001C080E00F910895CF92DF92EF92FF92CD
:1031C0000F931F93CF93DF937C01142FD22EC02E29
:1031D000611113C0C0E0D0E0F70180819181C81770
:1031E000D90748F40C2D2D2D412F6C2FC7010E94BB
:1031F000B9182196F1CF81E004C061500E94B9183E
:1032000080E0DF91CF911F910F91FF90EF90DF90C1
:10321000CF9008950F931F93D8013FB7F8949C91D6
:10322000822F80958923292BFB01460F571FE41716
:10323000F50781F0919168E02C9300C097FF8C9383
:10324000990F00C000C000C008F48C9300C06A95BC
:1032500099F7EDCF3FBF1F910F9108950F931F93E3
:10326000FC010481158120813181A901440F551F82
:10327000420F531F6281738120850E940A1961E009
:1032800070E080E090E01F910F910C949F1DCF9310
:10329000DF93EC018A819B810E9435271B821A8271
:1032A000DF91CF9108950F931F93CF93DF931F92D8
:1032B000CDB7DEB78C0169830E94E416F80134961D
:1032C0008FE0DF011D928A95E9F76981C8010F90AF
:1032D000DF91CF911F910F910C94E5160C94E51698
:1032E0000F93611116C060E070E0FC01E60FF71F5C
:1032F0002483FB013196E80FF91F4483FB013296CA
:10330000E80FF91F04836D5F7F4F6F30710569F718
:1033100018C06630B0F470E061507109E62FEE0F0E
:10332000E60FF0E0DC01AE0FBF1F14962C93DF0117
:103330001196A80FB91F14964C933296E80FF91FF7
:1033400004830F9108950F931F93CF93DF93EC01A4
:103350000E94FF16811117C062E0CE010E9476170D
:10336000CE010E94FF1681110EC000E010E0FE01A8
:10337000E00FF11F6481CE010E9476170F5F1F4F8F
:103380000F301105A1F7DF91CF911F910F91089593
:10339000FC0160830895FC01608308950C94C819B2
:1033A000FC0180810C940D1E0F931F93CF93DF932C
:1033B0001F92CDB7DEB78C0169830E94A509698190
:1033C000F8016687C8010F90DF91CF911F910F918F
:1033D0000C94A6090C94A609CF92DF92EF92FF926B
:1033E0000F931F93CF93DF93CDB7DEB72C970FB614
:1033F000F894DEBF0FBECDBF8C010E94D809C80172
:103400000E94E40A40E064E4C8010E947E0A0E942F
:10341000701D6B017C01C8010E94BC0981110BC0A9
:103420000E94701D6C197D098E099F096E3E7240C5
:103430008105910580F3C8010E94D809C8010E9446
:10344000E40A40E06EEBC8010E947E0ACE010196BC
:103450007C016E0196E0C90ED11CC8010E94C80A09
:10346000F70181937F01EC15FD05B9F76A8170E0E2
:10347000762F66278981682B882777FD8095982F7E
:103480000E94DD2420E030E040E85DE30E949125C9
:103490002C960FB6F894DEBF0FBECDBFDF91CF9153
:1034A0001F910F91FF90EF90DF90CF9008950F93B1
:1034B0001F93CF93DF931F92CDB7DEB78C01698343
:1034C0000E94E4166981C8010F90DF91CF911F918E
:1034D0000F910C94E5160C94E516CF93DF93EC0155
:1034E0000E94FF1681110DC062E0CE010E94761786
:1034F000CE010E942D17CE010E94DE178C838C8195
:1035000001C080E0DF91CF9108950F931F93CF9377
:10351000DF931F92CDB7DEB78C0169830E94E4165A
:10352000F801168217821086118612861386148679
:103530006981C8010F90DF91CF911F910F910C9479
:10354000E5160C94E516CF92DF92EF92FF92CF939F
:10355000DF93EC010E94FF16882339F0C12CD12C97
:103560008AEFE82E83E4F82E27C062E0CE010E94A5
:103570007617CE010E942D17CE010E94DE178C8394
:10358000CE010E94DE178D838D816C8170E0782BD7
:1035900080E090E00E94DB242CE53FE84CE851E419
:1035A0000E9442246B017C0120E030E04AEF53E4AA
:1035B0000E948D25181694F2C701B601DF91CF91B4
:1035C000FF90EF90DF90CF900895CF93DF93EC01C1
:1035D0000E94FF16811123C063E0CE010E9476177E
:1035E000CE010E94FF1681111AC06E81CE010E9489
:1035F00076176F81CE010E9476176885CE010E94F2
:1036000076176985CE010E9476176A85CE010E94E1
:1036100076176B85CE01DF91CF910C947617DF91F1
:10362000CF910895FC016683478320870C94E51AA7
:10363000FC016187428723870C94E51A0F93FC01F4
:1036400060FF03C046832783008761FF03C0418773
:1036500022870387637021F0CF010F910C94E51A44
:103660000F9108951F920F920FB60F9211242F936E
:103670003F934F935F936F937F938F939F93AF93FA
:10368000BF93EF93FF938091660387FF05C010926D
:103690008500109284001AC020916603332727FD0D
:1036A00030958091650390E0281739077CF480916C
:1036B0006603992787FD9095FC01EE0FFF1FE80F29
:1036C000F91FE959FC4F808187FD15C08091660381
:1036D0008F5F8093660320916603332727FD309523
:1036E0008091650390E028173907BCF48091660348
:1036F0008C305CF112C080916603992787FD90950C
:10370000FC01EE0FFF1FE80FF91FE959FC4F808104
:1037100060E08F770E94EB1ED9CF8091840090915A
:103720008500049680349C4918F480E49CE905C027
:1037300080918400909185000496909389008093F5
:1037400088008FEF8093660338C020918400309109
:10375000850080916603992787FD9095FC01EE0F07
:10376000FF1FE80FF91FE959FC4F81819281820FF9
:10377000931F909389008093880080916603992716
:1037800087FD9095FC01EE0FFF1FE80FF91FE95927
:10379000FC4F808187FF11C080916603992787FDC8
:1037A0009095FC01EE0FFF1FE80FF91FE959FC4F40
:1037B000808161E08F770E94EB1EFF91EF91BF91B6
:1037C000AF919F918F917F916F915F914F913F91B9
:1037D0002F910F900FBE0F901F90189520916503A9
:1037E0002C30A0F431E0320F30936503FC012083CC
:1037F000822F90E0FC01EE0FFF1FE80FF91FE9593F
:10380000FC4F88EB9BE09283818308952FEFFC01AE
:1038100020830895DF92EF92FF920F931F93CF932F
:10382000DF93EC01D62E7A01890188818C3008F073
:1038300066C061E08D2D0E94B21E8881A82FB0E085
:10384000FD01EE0FFF1FEA0FFB1FE959FC4F2D2D65
:103850002F7790819078922B908360E272E06E19BE
:103860007F0977FF02C06D5F7F4F759567957595EE
:103870006795698340E659E0401B510B57FF02C032
:103880004D5F5F4F55954795559547954A836CE039
:103890000E9408269CE0899FB001112420E030E0BE
:1038A000A901460F571FFA01EE0FFF1FE40FF51F86
:1038B000E959FC4F908197FD16C02F5F3F4F2C3088
:1038C000310571F781110FC01092800082E0809362
:1038D00081001092850010928400B19A80916F004F
:1038E000826080936F00888190E0FC01EE0FFF1FE3
:1038F000E80FF91FE959FC4F808180688083888137
:10390000DF91CF911F910F91FF90EF90DF9008957D
:1039100020E639E040E252E00C940A1CFC01808170
:103920008C3070F5918128E830E0291B310997FD32
:103930003395220F331F220F331F621773077CF05A
:10394000928128E532E0291B310997FD3395220F3A
:10395000331F220F331F621773070CF49B01225091
:103960003109220F331F4FB7F89490E0FC01EE0F9E
:10397000FF1FE80FF91FE959FC4F328321834FBF26
:1039800008954F925F926F927F92AF92BF92CF92C3
:10399000DF92EF92FF920F931F93CF93DF93EC018F
:1039A000603282E078070CF040C077FD06C0653BCE
:1039B00071052CF064EB70E002C060E070E089817A
:1039C00028E830E0281B310987FD3395220F331F8B
:1039D000220F331F5901CC24B7FCC094DC2C88275C
:1039E00077FD8095982F2A8148E552E0421B5109C6
:1039F00027FD5395440F551F440F551F2A01662478
:103A000057FC6094762C7F926F925F924F9214EBEA
:103A1000E12EF12C00E010E020E030E0A9010E944E
:103A200091230F900F900F900F90CE01DF91CF91C7
:103A30001F910F91FF90EF90DF90CF90BF90AF90CC
:103A40007F906F905F904F900C948E1C1F920F92FE
:103A50000FB60F9211242F933F938F939F93AF93A1
:103A6000BF9380918C0390918D03A0918E03B091B0
:103A70008F0330918B0323E0230F2D3720F4019621
:103A8000A11DB11D05C026E8230F0296A11DB11D81
:103A900020938B0380938C0390938D03A0938E03CC
:103AA000B0938F038091900390919103A091920322
:103AB000B09193030196A11DB11D80939003909343
:103AC0009103A0939203B0939303BF91AF919F9101
:103AD0008F913F912F910F900FBE0F901F901895CF
:103AE0002FB7F89460918C0370918D0380918E03B1
:103AF00090918F032FBF08953FB7F8948091900362
:103B000090919103A0919203B091930326B5A89B45
:103B100005C02F3F19F00196A11DB11D3FBF6627BB
:103B2000782F892F9A2F620F711D811D911D42E000
:103B3000660F771F881F991F4A95D1F70895CF9276
:103B4000DF92EF92FF92CF93DF936B017C010E9493
:103B50007C1DEB01C114D104E104F10489F00E9441
:103B6000D8230E947C1D6C1B7D0B683E734090F334
:103B700081E0C81AD108E108F108C851DC4FEACF4A
:103B8000DF91CF91FF90EF90DF90CF90089582303A
:103B9000910538F0880F991F880F991F0597019795
:103BA000F1F70895789484B5826084BD84B581600E
:103BB00084BD85B5826085BD85B5816085BDEEE635
:103BC000F0E0808181608083E1E8F0E01082808114
:103BD00082608083808181608083E0E8F0E0808182
:103BE00081608083E1EBF0E0808184608083E0EBA2
:103BF000F0E0808181608083EAE7F0E0808184608A
:103C000080838081826080838081816080838081E5
:103C1000806880831092C10008958E3008F08E5025
:103C200087702091220190E4299F90011124822B1A
:103C300080937C0080917A00806480937A008091E8
:103C40007A0086FDFCCF809178002091790090E089
:103C5000922B08951F93CF93DF93182FEB0161E010
:103C60000E94B21E209711F460E004C0CF3FD1053E
:103C700039F461E0812FDF91CF911F910C94EB1EFD
:103C8000E12FF0E0E859FF4FE491E330F9F048F418
:103C9000E130B9F0E230A1F584B5806284BDC8BDE1
:103CA00034C0E730E9F0E83019F1E43049F58091AB
:103CB0008000806280938000D0938B00C0938A0044
:103CC00024C084B5806884BDC7BD1FC080918000BA
:103CD000806880938000D0938900C093880015C0CD
:103CE0008091B00080688093B000C093B3000DC095
:103CF0008091B00080628093B000C093B40005C092
:103D0000C038D1050CF0B5CFAFCFDF91CF911F9167
:103D10000895833081F028F4813099F08230A1F049
:103D200008958730A9F08830B9F08430D1F48091BB
:103D300080008F7D03C0809180008F77809380000A
:103D4000089584B58F7702C084B58F7D84BD0895B2
:103D50008091B0008F7703C08091B0008F7D8093F9
:103D6000B0000895CF93DF9390E0FC01E458FF4F3B
:103D70002491FC01E057FF4F8491882349F190E0A2
:103D8000880F991FFC01E854FF4FA591B49182550B
:103D90009F4FFC01C591D4919FB7611108C0F89461
:103DA0008C91209582238C93888182230AC0623073
:103DB00051F4F8948C91322F309583238C93888121
:103DC000822B888304C0F8948C91822B8C939FBFA4
:103DD000DF91CF9108950F931F93CF93DF931F929D
:103DE000CDB7DEB7282F30E0F901E859FF4F8491B5
:103DF000F901E458FF4F1491F901E057FF4F049186
:103E00000023C9F0882321F069830E94891E6981FB
:103E1000E02FF0E0EE0FFF1FE255FF4FA591B491A8
:103E20009FB7F8948C91611103C01095812301C054
:103E3000812B8C939FBF0F90DF91CF911F910F919A
:103E40000895CF93DF93282F30E0F901E859FF4F11
:103E50008491F901E458FF4FD491F901E057FF4FE5
:103E6000C491CC2391F081110E94891EEC2FF0E0C7
:103E7000EE0FFF1FEC55FF4FA591B4912C912D2310
:103E800081E090E021F480E002C080E090E0DF91EA
:103E9000CF910895FC01818D228D90E0805C9F4F31
:103EA000821B91098F7399270895FC01918D828D52
:103EB000981731F0828DE80FF11D858D90E00895FF
:103EC0008FEF9FEF0895FC01918D828D981761F01F
:103ED000828DDF01A80FB11D5D968C91928D9F5F41
:103EE0009F73928F90E008958FEF9FEF089587EE74
:103EF00090E2892B49F080E090E0892B29F00E9424
:103F0000E72081110C9400000895FC01848DDF01ED
:103F1000A80FB11DA35ABF4F2C91848D90E001963C
:103F20008F739927848FA689B7892C93A089B1892B
:103F30008C9180648C93938D848D981306C0028835
:103F4000F389E02D80818F7D80830895CF93DF9367
:103F5000EC01888D8823C9F0EA89FB89808185FD81
:103F600005C0A889B9898C9186FD0FC00FB607FCE2
:103F7000F5CF808185FFF2CFA889B9898C9185FF23
:103F8000EDCFCE010E94851FE7CFDF91CF9108953D
:103F9000CF92DF92FF920F931F93CF93DF931F92E5
:103FA000CDB7DEB76C0181E0D60158968C93589757
:103FB0005B969C915B975C968C915C97981307C07D
:103FC0005096ED91FC915197808185FD2EC0F601B0
:103FD000038D10E00F5F1F4F0F731127F02EF601B6
:103FE000848DF81211C00FB607FCF9CFD601509698
:103FF000ED91FC915197808185FFF1CFC6016983D6
:104000000E94851F6981EBCF838DE80FF11DE35A74
:10401000FF4F6083D6015B960C935B975296ED91B0
:10402000FC915397808180620CC0D6015696ED9129
:10403000FC91579760835096ED91FC915197808148
:104040008064808381E090E00F90DF91CF911F9199
:104050000F91FF90DF90CF900895BF92CF92DF92A3
:10406000EF92FF92CF93DF93EC016A017B01B22EB6
:10407000E889F98982E08083411581EE580761055E
:104080007105A1F060E079E08DE390E0A701960171
:104090000E9428262150310941095109569547951A
:1040A00037952795211580E1380798F0E889F98937
:1040B000108260E874E88EE190E0A70196010E940A
:1040C00028262150310941095109569547953795C0
:1040D0002795EC85FD853083EE85FF852083188E3E
:1040E000EC89FD89B082EA89FB89808180618083C7
:1040F000EA89FB89808188608083EA89FB898081E5
:1041000080688083EA89FB8980818F7D8083DF914D
:10411000CF91FF90EF90DF90CF90BF9008951F92C6
:104120000F920FB60F9211242F938F939F93EF93BB
:10413000FF93E091A403F091A5038081E091AA038D
:10414000F091AB0382FD12C090818091AD038F5F2F
:104150008F732091AE03821751F0E091AD03F0E030
:10416000EC56FC4F958F8093AD0301C08081FF9189
:10417000EF919F918F912F910F900FBE0F901F90F5
:1041800018951F920F920FB60F9211242F933F9301
:104190004F935F936F937F938F939F93AF93BF934F
:1041A000EF93FF9384E993E00E94851FFF91EF91C5
:1041B000BF91AF919F918F917F916F915F914F913F
:1041C0003F912F910F900FBE0F901F90189584E98B
:1041D00093E00E944A1F21E0892B09F420E0822FFE
:1041E0000895109297031092960388EE93E0A0E052
:1041F000B0E08093980390939903A0939A03B093AF
:104200009B038EE791E0909395038093940385EC54
:1042100090E09093A1038093A00384EC90E09093AE
:10422000A3038093A20380EC90E09093A503809376
:10423000A40381EC90E09093A7038093A60382EC03
:1042400090E09093A9038093A80386EC90E090936C
:10425000AB038093AA031092AD031092AE031092A9
:10426000AF031092B003089508950E94D21D0E94DA
:1042700034210E942608C7E7DFE10E94A1092097A8
:10428000E1F30E94771FF9CFCF92DF92EF92FF9276
:104290000F931F93CF93DF936C017A01EB01E60E2E
:1042A000F71E00E010E0CE15DF0561F06991D60140
:1042B000ED91FC910190F081E02DC6010995080F68
:1042C000191FF1CFC801DF91CF911F910F91FF907E
:1042D000EF90DF90CF9008956115710581F0DB01BB
:1042E0000D900020E9F7AD0141505109461B570BD5
:1042F000DC01ED91FC910280F381E02D099480E0D6
:1043000090E00895DC01ED91FC910190F081E02DA9
:1043100009946AE871E00C946C210F931F93CF937A
:10432000DF93EC010E946C218C01CE010E94892157
:10433000800F911FDF91CF911F910F9108958F9260
:104340009F92AF92BF92CF92DF92EF92FF920F9324
:104350001F93CF93DF93CDB7DEB7A1970FB6F89435
:10436000DEBF0FBECDBF7C01C42EE52FCB01D22E08
:1043700019A221E02D1510F02AE0D22E8E010F5D3A
:104380001F4F8D2C912CA12CB12C6C2D7E2FA501B3
:1043900094010E9428268C2DD29E80191124015050
:1043A00011098A3014F4805D01C0895CF8018083B2
:1043B000211531054105510521F0C22EE32FCA0117
:1043C000E4CFB801C7010E946C21A1960FB6F89402
:1043D000DEBF0FBECDBFDF91CF911F910F91FF9038
:1043E000EF90DF90CF90BF90AF909F908F90089507
:1043F000CF92DF92EF92FF920F931F93CF93DF93B1
:10440000EC016A017B012115310579F4E881F9811C
:104410000190F081E02D642FDF91CF911F910F91DA
:10442000FF90EF90DF90CF9009942A303105E9F4A6
:1044300077FF1AC06DE20E9482218C014427552724
:10444000BA014C195D096E097F092AE0CE010E946C
:104450009F21800F911FDF91CF911F910F91FF90AE
:10446000EF90DF90CF9008952AE0B701A601CE012A
:10447000DF91CF911F910F91FF90EF90DF90CF9040
:104480000C949F210F931F93CF93DF93EC019A011C
:10449000AB01662757FD6095762F0E94F8218C01AD
:1044A000CE010E948921800F911FDF91CF911F9132
:1044B0000F9108952115310541F4DC01ED91FC9136
:1044C0000190F081E02D642F09940C949F210F93AB
:1044D0001F93CF93DF93EC019A01462F50E060E0E9
:1044E00070E00E945A228C01CE010E948921800F27
:1044F000911FDF91CF911F910F9108950F931F93FB
:10450000CF93DF93EC019A01AB0160E070E00E9471
:104510005A228C01CE010E948921800F911FDF91C8
:10452000CF911F910F9108954F925F926F927F925A
:104530008F929F92AF92BF92CF92DF92EF92FF92B3
:104540000F931F93CF93DF93EC016A017B01B22E8F
:104550009A01AB01C701B6010E94F425882319F026
:104560006DE871E027C026013701E89477F82FEF56
:104570003FEF4FE75FE7C301B2010E94F4258111CD
:104580000DC02FEF3FEF4FE75FE7C301B2010E947D
:104590003E2418161CF461E971E00CC02FEF3FEFC8
:1045A0004FE75FE4C701B6010E948D251816ACF4F1
:1045B00065E971E0CE01DF91CF911F910F91FF90DE
:1045C000EF90DF90CF90BF90AF909F908F907F90B3
:1045D0006F905F904F900C946C212FEF3FEF4FE75F
:1045E0005FECC701B6010E943E2487FDE1CF20E0C9
:1045F00030E0A901C701B6010E943E2487FF0AC02E
:104600006DE2CE010E9482218C01F7FAF094F7F856
:10461000F09402C000E010E0A12C60E070E080E0C7
:104620009FE3AB1441F020E030E040E251E40E940F
:104630004224A394F6CF9B01AC01C701B6010E94AE
:10464000DA236B017C010E94AF242B013C010E9404
:10465000DB249B01AC01C701B6010E94D9236B0189
:104660007C012AE0B301A201CE010E949F21080F24
:10467000191FBB2039F069E971E0CE010E946C215D
:10468000080F191F7B2C772041F120E030E040E239
:1046900051E4C701B6010E9491256B017C010E9483
:1046A000AA244B01AA2497FCA094BA2C2AE030E05B
:1046B000B501A401CE010E94F821080F191FC50100
:1046C000B4010E94DD249B01AC01C701B6010E9428
:1046D000D9236B017C017A94D6CFC801DF91CF91A9
:1046E0001F910F91FF90EF90DF90CF90BF90AF9010
:1046F0009F908F907F906F905F904F9008950F9351
:104700001F93CF93DF93EC010E9494228C01CE0182
:104710000E948921800F911FDF91CF911F910F91EE
:1047200008954F925F926F927F92AF92BF92CF9215
:10473000DF92EF92FF920F931F93CF93DF93CDB74A
:10474000DEB729013A01621B730B840B950B298993
:104750003A894B895C892A193B094C095D09298BE7
:104760003A8B4B8B5C8B9B01AC0169897A898B8975
:104770009C890E94F825E418F50806091709A80184
:1047800097010E944A262A0D3B1D4C1D5D1DCA0142
:10479000B901DF91CF911F910F91FF90EF90DF90C2
:1047A000CF90BF90AF907F906F905F904F900895A3
:1047B00008955058BB27AA270ED075C166D130F096
:1047C0006BD120F031F49F3F11F41EF45BC10EF465
:1047D000E095E7FB51C1E92F77D180F3BA17620763
:1047E00073078407950718F071F49EF58FC10EF4D6
:1047F000E0950B2EBA2FA02D0B01B90190010C01F1
:10480000CA01A0011124FF27591B99F0593F50F408
:10481000503E68F11A16F040A22F232F342F442760
:10482000585FF3CF469537952795A795F040539558
:10483000C9F77EF41F16BA0B620B730B840BBAF028
:104840009150A1F0FF0FBB1F661F771F881FC2F793
:104850000EC0BA0F621F731F841F48F487957795A7
:104860006795B795F7959E3F08F0B3CF9395880F5E
:1048700008F09927EE0F979587950895D9D008F4F9
:1048800081E008950CD00FC107D140F0FED030F088
:1048900021F45F3F19F0F0C0511139C1F3C014D1B8
:1048A00098F39923C9F35523B1F3951B550BBB27F7
:1048B000AA2762177307840738F09F5F5F4F220FA4
:1048C000331F441FAA1FA9F333D00E2E3AF0E0E89D
:1048D00030D091505040E695001CCAF729D0FE2FE9
:1048E00027D0660F771F881FBB1F2617370748077B
:1048F000AB07B0E809F0BB0B802DBF01FF27935831
:104900005F4F2AF09E3F510568F0B6C000C15F3F7F
:10491000ECF3983EDCF3869577956795B795F79518
:104920009F5FC9F7880F911D9695879597F9089510
:10493000E1E0660F771F881FBB1F621773078407AC
:10494000BA0720F0621B730B840BBA0BEE1F88F7BB
:10495000E095089504D06894B111D9C00895BCD0F1
:1049600088F09F5790F0B92F9927B751A0F0D1F058
:10497000660F771F881F991F1AF0BA95C9F712C0E2
:10498000B13081F0C3D0B1E00895C0C0672F782F57
:104990008827B85F39F0B93FCCF38695779567954E
:1049A000B395D9F73EF490958095709561957F4FBA
:1049B0008F4F9F4F0895E89409C097FB3EF4909560
:1049C0008095709561957F4F8F4F9F4F9923A9F0E8
:1049D000F92F96E9BB279395F69587957795679577
:1049E000B795F111F8CFFAF4BB0F11F460FF1BC0BB
:1049F0006F5F7F4F8F4F9F4F16C0882311F096E94E
:104A000011C0772321F09EE8872F762F05C06623FB
:104A100071F096E8862F70E060E02AF09A95660FB4
:104A2000771F881FDAF7880F9695879597F908956D
:104A3000990F0008550FAA0BE0E8FEEF16161706AF
:104A4000E807F907C0F012161306E407F50798F017
:104A5000621B730B840B950B39F40A2661F0232B30
:104A6000242B252B21F408950A2609F4A140A695AC
:104A70008FEF811D811D089597F99F6780E870E091
:104A800060E008959FEF80EC089500240A941616C4
:104A9000170618060906089500240A94121613062C
:104AA000140605060895092E0394000C11F48823BA
:104AB00052F0BB0F40F4BF2B11F460FF04C06F5FD6
:104AC0007F4F8F4F9F4F089557FD9058440F551FAC
:104AD00059F05F3F71F04795880F97FB991F61F080
:104AE0009F3F79F087950895121613061406551FF7
:104AF000F2CF4695F1DF08C0161617061806991F63
:104B0000F1CF86957105610508940895E894BB2757
:104B100066277727CB0197F908958ADF08F48FEF8E
:104B200008950BD0C0CFB1DF28F0B6DF18F0952381
:104B300009F0A2CFA7CF1124EACFC6DFA0F3959F3B
:104B4000D1F3950F50E0551F629FF001729FBB2774
:104B5000F00DB11D639FAA27F00DB11DAA1F649F20
:104B60006627B00DA11D661F829F2227B00DA11DD3
:104B7000621F739FB00DA11D621F839FA00D611D59
:104B8000221F749F3327A00D611D231F849F600D7A
:104B9000211D822F762F6A2F11249F5750408AF0B3
:104BA000E1F088234AF0EE0FFF1FBB1F661F771F3F
:104BB000881F91505040A9F79E3F510570F05CCF7F
:104BC000A6CF5F3FECF3983EDCF38695779567952B
:104BD000B795F795E7959F5FC1F7FE2B880F911D5D
:104BE0009695879597F9089523DF880B990B08957B
:104BF000DB018F939F930E946926BF91AF91A29F83
:104C0000800D911DA39F900DB29F900D11240895CA
:104C1000991B79E004C0991F961708F0961B881F0E
:104C20007A95C9F78095089597FB072E16F400949E
:104C300007D077FD09D00E94742607FC05D03EF40A
:104C4000909581959F4F0895709561957F4F089538
:104C5000A1E21A2EAA1BBB1BFD010DC0AA1FBB1F80
:104C6000EE1FFF1FA217B307E407F50720F0A21BF2
:104C7000B30BE40BF50B661F771F881F991F1A945F
:104C800069F760957095809590959B01AC01BD0189
:104C9000CF010895052E97FB1EF400940E94612613
:104CA00057FD07D00E94282607FC03D04EF40C9431
:104CB000612650954095309521953F4F4F4F5F4F5E
:104CC000089590958095709561957F4F8F4F9F4F78
:104CD00008950E948E26A59F900DB49F900DA49FCD
:104CE000800D911D11240895AA1BBB1B51E107C023
:104CF000AA1FBB1FA617B70710F0A61BB70B881F6C
:104D0000991F5A95A9F780959095BC01CD010895FA
:104D1000EE0FFF1F0590F491E02D0994A29FB001C2
:104D2000B39FC001A39F700D811D1124911DB29FDF
:104D3000700D811D1124911D0895CF93DF93823052
:104D4000910510F482E090E0E0913304F091340496
:104D500020E030E0A0E0B0E0309739F140815181AF
:104D600048175907B8F04817590771F482819381A1
:104D7000109729F013969C938E9312972CC09093C2
:104D800034048093330427C02115310531F04217D4
:104D9000530718F0A901DB0101C0EF019A01BD0121
:104DA000DF010280F381E02DD7CF21153105F9F025
:104DB000281B390B2430310580F48A819B816115D1
:104DC000710521F0FB019383828304C09093340426
:104DD00080933304FE01329644C0FE01E20FF31FBC
:104DE0008193919322503109398328833AC02091CD
:104DF000310430913204232B41F42091020130918F
:104E0000030130933204209331042091000130914A
:104E100001012115310541F42DB73EB74091040140
:104E200050910501241B350BE0913104F0913204BF
:104E3000E217F307A0F42E1B3F0B2817390778F071
:104E4000AC014E5F5F4F2417350748F04E0F5F1FD0
:104E500050933204409331048193919302C0E0E077
:104E6000F0E0CF01DF91CF910895CF93DF930097CA
:104E700009F487C0FC01329713821282C091330477
:104E8000D0913404209781F420813181280F391F7B
:104E900080913104909132048217930779F5F09351
:104EA0003204E09331046DC0DE0120E030E0AE1743
:104EB000BF0750F412964D915C9113979D014115D7
:104EC000510509F1DA01F3CFB383A2834081518107
:104ED000840F951F8A179B0771F48D919C911197F0
:104EE000840F951F02969183808312968D919C91D9
:104EF0001397938382832115310529F4F0933404A9
:104F0000E09333043EC0D9011396FC93EE931297BD
:104F10004D915D91A40FB51FEA17FB0779F48081CD
:104F20009181840F951F0296D90111969C938E93BF
:104F30008281938113969C938E931297E0E0F0E028
:104F40008A819B81009719F0FE01EC01F9CFCE0117
:104F5000029628813981820F931F2091310430916C
:104F600032042817390769F4309729F41092340471
:104F70001092330402C013821282D0933204C09381
:104F80003104DF91CF910895662777270C94E92AA1
:104F9000FC0188279927E89421912032E9F32930F0
:104FA00010F02E30C8F32B3241F02D3239F46894D2
:104FB00004C00E94E627820F911D219120532A30C0
:104FC000C0F31EF4909581959F4F08957AE0979FC6
:104FD000902D879F802D910D112408950F931F937D
:104FE000CF93DF93E0913704F0913804238121FFC0
:104FF0001BC0EC0100E010E08991609137047091D2
:105000003804DB011896ED91FC911997882331F053
:105010000995892B89F30FEF1FEFEECF8AE00995F1
:10502000892B11F4C80102C08FEF9FEFDF91CF9160
:105030001F910F910895AEE0B0E0E1E2F8E20C9428
:10504000E12C85E08C838B899C899A838983AE01CE
:10505000495E5F4F6D897E89CE0101960E94B2291B
:105060002E96E2E00C94FD2C20FD09C0FC0123FDEE
:1050700005C022FF02C07383628351834083089579
:1050800044FD10C046FD10C0DB01FC01AA0FBB1F90
:10509000EE1FFF1F1094D1F76A0F7B1F8E1F9F1FFB
:1050A00031E003C033E001C034E0660F771F881F92
:1050B000991F3150D1F7620F711D811D911D089507
:1050C0000F931F93CF93DF938C01C8010E94772C1D
:1050D000EC0197FD08C00E944C2C892BB1F7B80158
:1050E000CE010E94B52CCE01DF91CF911F910F917F
:1050F00008958F929F92AF92CF92DF92EF92FF929C
:105100000F931F93CF93DF93EC01A62E4A01022F3A
:105110000E94772CAC0155274B32510521F04D32BE
:10512000510551F40068AA9411F480E067C0CE01E3
:105130000E94772C97FDF9CF102F1D7F302F3073F1
:1051400001F58033F1F4FF24FA94FA0C09F442C01B
:10515000CE010E94772C97FD3DC0382F3F7D38351A
:1051600051F41264AA94AA94A9F1CE010E94772C5A
:1051700097FF07C02FC006FF02C0126001C0126176
:10518000AF2CC12CD12C760120ED280F283080F0D7
:1051900014FF04C0BE010E94B52C19C02A3040F093
:1051A00016FFF8CF2F7D3FEE320F363098F727509D
:1051B000412FC701B6010E9440286B017C0112609B
:1051C000AA9459F0CE010E94772C97FFDDCF11FDF4
:1051D00004C0ABCFC12CD12C760117FF08C0F094CE
:1051E000E094D094C094C11CD11CE11CF11C212F6F
:1051F000B701A601C4010E94342881E0DF91CF915C
:105200001F910F91FF90EF90DF90CF90AF909F9004
:105210008F900895A1E2B0E0E0E1F9E20C94D62C81
:105220005C017A018E010F5F1F4F680180E2D80197
:105230001D928A95E9F7F501738040E050E0812CDA
:10524000B0E0912C81E090E0F90173FCA59173FE30
:10525000A1918F017A2F9F01A11103C080E090E0FE
:105260007DC0AE3519F44115510559F1E92DF0E035
:10527000E417F5073CF4AD3569F1AD3219F4BB2301
:1052800019F103C0B11101C08A2EE72FE695E6950A
:10529000E69586010E0F111DF801A72FA7708C014E
:1052A00002C0000F111FAA95E2F7D801B081BA2BF6
:1052B000B083781559F0781510F47F5FE6CF715000
:1052C000E4CF9924939403C0B1E001C0B0E04F5FF4
:1052D0005F4FBACFBB2319F08E8180628E8391100D
:1052E00003C09924939415C0F601CE0181962081C4
:1052F00020952193E817F907D1F7F3CFE114F104D2
:1053000029F0D7018C93F70131967F01615001F1AB
:10531000912CC50169A30E94772C69A197FD16C045
:10532000282F269526952695F601E20FF11D20815E
:1053300030E0AC014770552702C0359527954A9556
:10534000E2F720FDDBCFB5010E94B52C911086CF8E
:10535000E114F10411F0D7011C92C801A196EDE00F
:105360000C94F22C4F925F927F928F929F92AF9209
:10537000BF92CF92DF92EF92FF920F931F93CF9342
:10538000DF931F92CDB7DEB78C012B017A01FC01B0
:1053900017821682A12CF801D380F201D3FC8591EB
:1053A000D3FE8191382F2F01882309F4FCC090E0AF
:1053B00039830E944C2C3981892B21F0C8010E942D
:1053C0006028E9CF353241F4F201D3FC3591D3FEA8
:1053D00031912F01353269F4C80139830E94772C4D
:1053E000398197FDDEC03817B1F2B8010E94B52CA3
:1053F000DAC03A3241F4D3FC3591D3FE31912F011A
:10540000BB24B39401C0B12C712C20ED230F2A30A2
:1054100090F4FB2DF260BF2E672D70E080E090E0ED
:1054200040E20E944028762EF201D3FC3591D3FE53
:1054300031912F01EACFB1FE03C0711003C0B3C098
:1054400077247A94383619F03C3661F014C0F201B2
:10545000D3FC3591D3FE31912F01383661F4FB2D09
:10546000F860BF2E8B2D8460B82EF201D3FC3591ED
:10547000D3FE31912F01332309F495C0632F70E0DF
:1054800082EC90E039830E94542C3981892B09F4F5
:105490008AC0B0FC07C0F701C080D180C701029666
:1054A0007C0102C0C12CD12C3E3651F4F80146815A
:1054B000578160E070E02B2DC6010E9434286BCF2D
:1054C0003336A1F4B1FC02C077247394C8010E9462
:1054D000772C97FD66C0C114D10429F0F6018083B2
:1054E000C60101966C017A9489F757C03B3559F48F
:1054F0009201A601672DC8010E940A292C0100977C
:1055000009F04BC045C0C80139830E946028398129
:1055100097FD47C03F3669F128F4343631F139360A
:1055200079F12BC0333769F03537F9F026C0C11453
:10553000D10429F0F6018082C60101966C017A94AB
:1055400071F0C8010E94772C4C0197FD08C00E94A1
:105550004C2C892B61F3B801C4010E94B52CC114F5
:10556000D104D9F0F601108218C0FB2DF062BF2ED5
:1055700007C08B2D8061B82E03C09B2D9064B92E7F
:105580002B2DA601672DC8010E947928811105C025
:10559000F8018381807329F406C0B0FCFCCEA3948B
:1055A000FACEAA2019F08A2D90E002C08FEF9FEF6B
:1055B0000F90DF91CF911F910F91FF90EF90DF90AF
:1055C000CF90BF90AF909F908F907F905F904F90C3
:1055D0000895A0E0B0E0EFEEFAE20C94D72C8B0136
:1055E0006115710521F0DB018C9311969C93EC0100
:1055F0005E01BFEFAB1ABB0A7501C8808C2D90E02D
:105600000E944C2C892B11F0E501F2CFEDE2CE1275
:1056100008C07E01F2E0EF0EF11CC980DD24D394B6
:1056200009C02BE2C21205C07E0142E0E40EF11C6B
:10563000C980D12CE701219743E050E066ED70E08E
:10564000CE010E945F2C892BC1F4239645E050E0E7
:1056500061ED70E0CE010E945F2C892B09F4259644
:105660000115110519F0D801CD93DC93D11006C1B5
:1056700060E070E080E89FE70AC143E050E06EEC34
:1056800070E0CE010E945F2C892B59F401151105A1
:1056900009F4F9C0B2E0EB0EF11CF801F182E082EE
:1056A000F2C0F70160E070E0CB01C0E0D0E07F0124
:1056B000A0EDAA2EAC0C29E02A1530F14D2D426048
:1056C000B42E2D2D2870D2FE04C0211125C02196A4
:1056D00023C021112197A5E0B0E09B01AC010E94FD
:1056E0006926660F771F881F991F6A0D711D811D1E
:1056F000911D6839A9E97A078A07A9E19A0760F03C
:10570000BD2DB660BB2E08C02EEFA2120AC0D3FC7E
:1057100050C04D2D4860B42E3196D701CC90DB2C73
:10572000C6CF2C2D2F7D253409F043C0A081AD328A
:1057300041F4BD2DB061DB2E7F0122E0E20EF11CB1
:105740000CC07F01AB3231F04FEFE41AF40A21E0D4
:1057500030E006C0A2E0EA0EF11CA18122E030E0B8
:10576000A053AA3018F0E21AF30A23C0F70120E090
:1057700030E02038BCE03B075CF4A901440F551F22
:10578000440F551F240F351F220F331F2A0F311DC1
:10579000AF014F5F5F4F7A01A081A053AA3010F490
:1057A000FA01E7CFD4FE03C0319521953109C20F2C
:1057B000D31FD1FE09C00115110531F0E1E0EE1A49
:1057C000F108D801ED92FC920E94DB242D2D23706C
:1057D000233019F04B015C0106C04B015C01B7FAA4
:1057E000B094B7F8B09420E030E0A901C501B4014D
:1057F0000E943E24882309F43EC0D7FF06C0D195FD
:10580000C195D1090DEE10E002C005E011E068017C
:10581000B8E1CB1AD10890E2E92EF12CCE15DF05C4
:1058200074F0F8012591359145915491C501B40169
:105830000E9491254B015C01CE19DF09EFCF045086
:105840001109F594E7940C151D0541F78A2D880F71
:105850008B2D881F8F3F49F020E030E0A901C50162
:10586000B4010E943E24811106C082E290E0909330
:105870003C0480933B04C501B40109C060E070E0C2
:1058800080E89FEF04C060E070E080EC9FE7CDB758
:10589000DEB7ECE00C94F32C911180C0803219F04B
:1058A00089508550D0F70895FC010590061621F027
:1058B0000020D9F7C00108953197CF010895FB0169
:1058C000DC014150504088F08D9181341CF08B35C3
:1058D0000CF4805E659161341CF06B350CF4605EF5
:1058E000861B611171F3990B0895881BFCCFCF9330
:1058F000DF93EC012B8120FF33C026FF0AC02F7BF2
:105900002B838E819F8101969F838E838A8190E075
:1059100029C022FF0FC0E881F9818081992787FD86
:105920009095009719F420622B831AC03196F98361
:10593000E8830EC0EA85FB85099597FF09C02B8196
:10594000019611F480E101C080E2822B8B8308C0B4
:105950002E813F812F5F3F4F3F832E83992702C0C7
:105960008FEF9FEFDF91CF910895FB01238120FFFF
:1059700012C026FD10C08F3F3FEF930761F0828376
:105980002F7D20642383268137812150310937837D
:105990002683992708958FEF9FEF089599278827E9
:1059A00008952F923F924F925F926F927F928F92C3
:1059B0009F92AF92BF92CF92DF92EF92FF920F939E
:1059C0001F93CF93DF93CDB7DEB7CA1BDB0B0FB6A8
:1059D000F894DEBF0FBECDBF09942A883988488865
:1059E0005F846E847D848C849B84AA84B984C884FB
:1059F000DF80EE80FD800C811B81AA81B981CE0FF2
:105A0000D11D0FB6F894DEBF0FBECDBFED010895D6
:105A100011E0CEE0D1E004C0FE010E948A26229669
:0A5A2000C031D107C9F7F894FFCF99
:105A2A0000003D0480000100000000000607050890
:105A3A0013011302120112021101110210011002C4
:105A4A000000014125640A004125642025640A00FA
:105A5A004125642025642025640A00412564202507
:105A6A00642025642025642025640A007472756503
:105A7A000066616C7365004F4B00090A0C04546898
:105A8A00657265206973206E6F7420656E6F756725
:105A9A0068207370616365210D0000000000C81F53
:105AAA0044214A1F631F551FA61F0D0A006E616E0F
:0C5ABA0000696E66006F7666002E00002A
:00000001FF
