:100000000C9472000C949A000C949A000C949A0030
:100010000C949A000C949A000C949A000C94BF08CB
:100020000C949A000C949A000C949A000C94C70CAF
:100030000C949A000C949A000C949A000C949A00D8
:100040000C94830D0C949A000C94EC100C941E11DB
:100050000C949A000C949A000C949A000C949A00B8
:100060000C949A000C949A0005A84CCDB2D44EB9C9
:100070003836A9020C50B9918688083CA6AAAA2A4B
:10008000BE000000803F00000008000201000003E5
:100090000407000000000000000001020408102016
:1000A000408001020408102001020408102004040A
:1000B0000404040404040202020202020303030310
:1000C00003030000000023002600290000000000B8
:1000D000250028002B0000000000240027002A0033
:1000E00040064E1111241FBECFEFD8E0DEBFCDBFBA
:1000F00011E0A0E0B1E0E2E8FBE202C005900D9261
:10010000AC36B107D9F723E0ACE6B1E001C01D92EF
:10011000A03AB207E1F710E0C4EED0E004C02297A5
:10012000FE010E942115C03ED107C9F70E9492111D
:100130000C94BF150C94000081E0809380008BE04C
:10014000809381000895CF93C82F61E083E00E94DF
:100150000F0F6C2F83E0CF910C94480FCF93C82FD3
:1001600061E08EE00E940F0F6C2F8EE0CF910C9417
:10017000480FCF93C82F61E084E00E940F0F6C2FCF
:1001800084E0CF910C94480FCF93C82F61E08DE0AD
:100190000E940F0F6C2F8DE0CF910C94480FCF93DE
:1001A000DF93EB012CE231E040E050E0BC0189E557
:1001B00092E00E94780784E0CC0FDD1F8A95E1F77A
:1001C000C55BDF4FD0930D01C0930C01DF91CF9140
:1001D00008954F925F926F927F928F929F92AF920B
:1001E000BF92CF92DF92EF92FF9226E030E040E0A4
:1001F00050E061E070E080E090E00E9421120E94F7
:10020000391320E030E040EC50E40E94A3129B013F
:10021000AC016091F6017091F7018091F801909125
:10022000F9010E943F126093F6017093F7018093E9
:10023000F8019093F90126E030E040E050E061E001
:1002400070E080E090E00E9421120E94391320E0CB
:1002500030E040EC50E40E94A3129B01AC0160919D
:10026000F2017091F3018091F4019091F5010E94E7
:100270003F126093F2017093F3018093F401909325
:10028000F50126E030E040E050E061E070E080E021
:1002900090E00E9421120E94391320E030E040ECEF
:1002A00050E40E94A3122091EE013091EF014091A1
:1002B000F0015091F1010E943F126B017C016093AB
:1002C000EE017093EF018093F0019093F10120E033
:1002D00030E040E85EE36091F6017091F7018091B3
:1002E000F8019091F9010E94F81320E030E040E01D
:1002F0005FE30E943F120E945B144B015C0120E00F
:1003000030E040E151E46091F2017091F30180919D
:10031000F4019091F5010E94A31220E030E040E842
:100320005FE30E943F1226E636E646E050E40E9474
:100330003F120E945B142B013C0120E030E040E6BC
:1003400051E4C701B6010E94A3122BEA3AEA4AEA35
:100350005EE30E943F1226E636E646E850E40E943D
:100360003F120E945B1420E030E040E85FE30E940F
:100370003F1220E030E040E852E40E94F8130E946F
:100380000B13E62E20E030E040E85FE3C301B2014A
:100390000E943F1220E030E040E852E40E94F8134F
:1003A0000E940B13F62E20E030E040E85FE3C50129
:1003B000B4010E943F1220E030E040E852E40E9485
:1003C000F8130E940B13D62E2E2D4F2D82E392E0B0
:1003D0000E94830A2E2D4F2D6D2D82E392E0FF9017
:1003E000EF90DF90CF90BF90AF909F908F907F90D5
:1003F0006F905F904F900C94890A0F931F93CF9347
:10040000DF938C01EB0166277727681B790B86E267
:1004100092E00E94C307BE018BE192E00E94C307F5
:1004200010161106FCF480E01C161D0624F40E9430
:10043000A30080E02FC00E94A30080E00E94AE00D5
:1004400080E00E94B90081E00E94C40082E392E053
:100450000E94BC0A82E392E0DF91CF911F910F913D
:100460000C94AD0A1C161D068CF480E00E94A300BB
:1004700080E00E94AE0081E00E94B90080E00E940E
:10048000C40082E392E00E94B70A10C081E00E949B
:10049000A30081E00E94AE0080E00E94B90080E0ED
:1004A0000E94C40082E392E00E94BC0A82E392E0D0
:1004B000DF91CF911F910F910C94B20A80910C01A2
:1004C00090910D01BC010C94FD0180910C01909163
:1004D0000D01919581959109BC010C94FD018091CC
:1004E0000C0190910D01BC019195819591090C949D
:1004F000FD0180910C0190910D0166277727681B03
:10050000790B0C94FD0160E070E080E090E00C94C9
:10051000FD01CF93C82F0E94CD0D609313027093FD
:1005200014028093150290931602C03409F4C6C0D9
:1005300090F5CD3009F4B0C0A8F4C83009F4D5C0A6
:1005400030F4C73009F0DDC083E090E0BFC0C930AF
:1005500009F4BAC0CC3009F0D4C060E070E086E2A3
:1005600091E0CCC0C83109F4C5C050F4C53109F0E0
:10057000C8C08091170291E089278093170297C025
:10058000C93109F49EC0CC3109F0BBC065E070E010
:1005900089EB91E0B3C0C634E9F118F5C33409F42E
:1005A0006EC040F4C23409F0ACC067E070E08CE289
:1005B00092E0A4C0C43409F455C0C53409F0A1C008
:1005C00086E990E090930D0180930C0110921A023D
:1005D0000E9483022CE231E040E050E066E271E0EC
:1005E0002AC0C23509F477C050F4C73449F1CA347F
:1005F00009F087C069E070E085E992E07FC0CA3504
:1006000009F46EC0CE3509F07CC063E070E08EE581
:1006100091E074C084E690E090930D0180930C010A
:1006200081E080931A020E9483022CE231E040E0D4
:1006300050E06AE471E089E592E0CF910C9478078C
:1006400082E080931A0284E690E090930D018093FB
:100650000C010E9483022CE231E040E050E06EE5A4
:1006600071E0E9CF88EC90E090930D0180930C014C
:100670002CE231E040E050E069E871E0DCCF8FEF40
:1006800090E090930D0180930C012CE231E040E06A
:1006900050E069EB71E0CFCF85E080931A0284E6E9
:1006A00090E090930D0180930C010E9483022CE254
:1006B00031E040E050E06FEE71E0BDCF81E090E0CE
:1006C00005C082E090E002C084E090E090931902BF
:1006D0008093180216C068E070E08DE492E00EC0CE
:1006E00066E070E08FEE91E009C064E070E089E8B8
:1006F00091E004C062E070E08AE491E0CF910C9454
:10070000CF00CF9108958091180290911902823004
:10071000910571F02CF4009789F0019739F0089554
:100720008330910539F0049739F008950C945E02F6
:100730000C9465020C946F020C9479020C94830261
:1007400028EE33E040E050E066E271E089E592E0B7
:100750000E94140781E00E94A30081E00E94AE0085
:1007600081E00E94B90081E00E94C4000E948302DF
:1007700082E392E00E94B70A82E392E00E94AD0A0F
:1007800065E08EE392E00E94EA0A8EE392E00E9426
:100790000D0B41E160E08EE392E00E942D0B42E000
:1007A00061E08EE392E00E942D0B44E062E08EE374
:1007B00092E00E942D0B48E063E08EE392E00E94FD
:1007C0002D0B40E164E08EE392E00E942D0B40E0AF
:1007D00065E08EE392E00E942D0B40E066E08EE340
:1007E00092E00E942D0B40E067E08EE392E00E94D1
:1007F0002D0B40E068E08EE392E00E942D0B40E17B
:1008000069E08EE392E00E942D0B48E06AE08EE3FF
:1008100092E00E942D0B44E06BE08EE392E00E9498
:100820002D0B42E06CE08EE392E00E942D0B41E143
:100830006DE08EE392E00E942D0B2CE231E040E06F
:1008400050E06FEE71E089E592E00E94140726E027
:1008500040E052EC61E070E083E093E00E948A1097
:100860008AE592E00C9481098091060281110DC005
:100870000E94CD0D609302027093030280930402E4
:100880009093050281E08093060282E392E00E9449
:100890003A0A882399F186E00E946A0EBC018827F3
:1008A00077FD8095982F0E94F51162E070E080E05E
:1008B00090E00E94FD1120910C0130910D01662302
:1008C00061F0EE27FF27E21BF30BC9016BEF7FEF0F
:1008D0000E94AB14CB01BF0109C0C9016BEF7FEFD0
:1008E0000E94AB1488279927821B930B0E94FD015D
:1008F00064EF71E080E090E00C94FC0D80910C01BD
:1009000090910D01BC010C94FD010F931F9381E3A5
:1009100092E00E94BC0C853F914098F464E670E040
:1009200084E690E00E94FD011092FE011092FF010A
:1009300010920002109201021092FD011092FC012F
:1009400065C08091FE019091FF01A0910002B091DD
:100950000102892B8A2B8B2B71F520910A01309192
:100960000B0184E6829FB001839F700D11244CE936
:100970004203C001439F900D11240E94FD010E947B
:10098000CD0D08EC10E00090FC0102C0000F111F1B
:100990000A94E2F7222717FD2095322F600F711F6E
:1009A000821F931F6093FE017093FF0180930002EA
:1009B000909301022BC00E94CD0D0091FE01109179
:1009C000FF01209100023091010260177107820738
:1009D0009307E0F01092FE011092FF0110920002C6
:1009E0001092010280910A0190910B0191958195DD
:1009F000910990930B0180930A018091FC019091E1
:100A0000FD0101969093FD018093FC011F910F91D0
:100A100008958091FA019091FB018531910594F040
:100A200066E970E080E090E00E94FD0164E670E01D
:100A300080E090E00E94FC0D8091FA019091FB0112
:100A4000019713C04497A9F060E070E086E990E058
:100A50000E94FD0164E670E080E090E00E94FC0DE1
:100A60008091FA019091FB0101969093FB01809394
:100A7000FA018091FA019091FB018531910529F4E9
:100A80001092FB011092FA010895439731F488E225
:100A900090E09093FB018093FA010895DC01ED91C1
:100AA000FC911197CF01019611969C938E93208112
:100AB0002032A9F70C949115FB012191BF0122234B
:100AC00039F0FC013191CF013217B1F380E0089584
:100AD00081E00895CF93DF93EB01FC0101900020AA
:100AE000E9F7AF0141505109481B590BE09103034D
:100AF000F09104030280F381E02DBC0183E093E0D8
:100B00000995BE0183E093E0DF91CF910C94E3114E
:100B10000F931F93CF93DF9300D01F92CDB7DEB713
:100B20009A8389838C0167E271E00E945C058823C7
:100B300031F06BE271E0C8010E946A0599C06BE375
:100B400071E0C8010E945C05882351F06FE371E0F9
:100B5000C8010E946A058EE392E00E940D0B88C0D6
:100B600062E471E0C8010E945C058823B1F06FE384
:100B700071E0C8010E946A05CE0101960E944E05EF
:100B8000682FCE0101966B830E944E05482F6B8122
:100B90008EE392E00E94790B6BC065E471E0C801BE
:100BA0000E945C058823B1F06FE371E0C8010E94E8
:100BB0006A05CE0101960E944E05682FCE0101966E
:100BC0006B830E944E05482F6B818EE392E00E945A
:100BD000520B4EC068E471E0C8010E945C05882396
:100BE00009F446C06FE371E0C8010E946A0589817B
:100BF0009A8102960E949115813089F480911202A7
:100C000080931A0280910F029091100290930D012F
:100C100080930C0180911102809317021CC08230D6
:100C200029F5809117028093110280910C01909117
:100C30000D019093100280930F0280911A0280930D
:100C4000120210921A021092170260E070E080E027
:100C500090E00E94FD012CE231E040E050E066E2CD
:100C600071E089E592E00E94780702C00E94890243
:100C70000F900F900F90DF91CF911F910F910895DA
:100C800062E08AE592E00E94750967E089E592E0FA
:100C90000E94110760E18EE392E00E94E60A62E1A1
:100CA00082E392E00E941E0A63E181E392E00E94E7
:100CB000BA0C62E086E292E00E94A90761E08BE153
:100CC00092E00E94A90780911A02809312028091FB
:100CD00017028093110280910C0190910D01909365
:100CE000100280930F0208951F93CF93DF93C0E803
:100CF000D0E010E283E093E00E94A70F892B81F1FE
:100D000083E093E00E94C00F2091EC013091ED014F
:100D10008A30C1F4C9010197FC01E459FE4F4081BA
:100D20004D3011F49C01F6CFF901E459FE4F1083C8
:100D300011821092ED011092EC018CE691E00E947C
:100D40008805D8CFF901E459FE4F8083C901019687
:100D5000BE010E94AB149093ED018093EC01CACFC9
:100D6000DF91CF911F9108950F931F9380910E02F1
:100D7000882319F00E94740614C083E093E00E9457
:100D8000A70F892B21F081E080930E020AC08AE52B
:100D900092E00E94F409892B21F080915D020E946B
:100DA00089020E94CD0D009113021091140220912E
:100DB000150230911602601B710B820B930B693781
:100DC00071058105910570F00E94CD0D60931302AD
:100DD00070931402809315029093160210921902D8
:100DE0001092180280911A02813059F038F0823046
:100DF00059F0853059F40E94090508C00E94830308
:100E000005C00E94340402C00E948504809117022C
:100E1000882321F01F910F910C94E9001F910F91ED
:100E200008956093650208954F925F926F927F924A
:100E30008F929F92AF92BF92CF92DF92EF92FF92EA
:100E40000F931F93CF93DF9369017A019B0140E0D9
:100E500050E060E472E48FE090E00E94E114E90168
:100E6000890137FF02C00F5F1F4F1595079561E09D
:100E7000809165020E940F0FA8EEB3E0A7019601D2
:100E80000E9400154B015C01C12CD12C76012E0172
:100E9000662457FC6094762CC814D904EA04FB0439
:100EA000B0F461E0809165020E94480FC8010E9481
:100EB000240E60E0809165020E94480FC8010E94E4
:100EC000240EA895C40CD51CE61CF71CE5CFDF91B9
:100ED000CF911F910F91FF90EF90DF90CF90BF9037
:100EE000AF909F908F907F906F905F904F900895FC
:100EF000F8940E941407789408950F931F93CF934A
:100F0000DF93EC01062F10E0000F111F025F1E4F50
:100F1000633050F0F8016081CE010E94A20BF8010D
:100F20008181898718860CC061E0F80181810E9467
:100F30000F0FF80180818D8381818C8381E0888708
:100F40008CE291E09F838E83DF91CF911F910F916F
:100F500008950F931F93CF93DF931F92CDB7DEB702
:100F60008C0169830E94A10BF801178216821086FA
:100F7000118612866981C8010F90DF91CF911F9170
:100F80000F910C947D07EF92FF920F931F93CF93D5
:100F9000DF9300D0CDB7DEB77C01FC0182858111E3
:100FA00009C069837A830E949C0081E0F7018287EF
:100FB0007A8169818B016F3F710519F014F00FEF91
:100FC00010E00130FFEF1F0714F401E01FEFF701FD
:100FD000868197818017910709F4C8C0178306831B
:100FE000808517FD4EC0813079F58481873019F4F2
:100FF000848160E006C0F7018481883089F48481AF
:1010000061E00E94480FF7018581B8010F900F90B1
:10101000DF91CF911F910F91FF90EF900C94870E6D
:10102000F7018481893029F0F7018481863009F045
:101030009DC0848161E00E94480FF70185816FEFB8
:1010400070E0601B710BE2CFC7010E94BC0B62E035
:10105000C7010E94330CC7010E94BC0BF7016185D8
:10106000C7010E94330CB801882777FD8095982F1F
:101070000E94391320E030E040E250E40E94A312C5
:1010800064C08130F1F5F7018481873061F4848197
:1010900061E00E94480FF701858166277727601B72
:1010A000710B0E94870EF7018481883061F484817E
:1010B00060E00E94480FF701858166277727601B53
:1010C000710B0E94870EF7018481893059F4858164
:1010D00061E00E94480FF7018481B80161507F4FA1
:1010E0000E94870EF7018481863009F03FC0858118
:1010F00061E00E94480FF7018481B80161507F4F81
:1011000085CFC7010E94BC0B62E0C7010E94330C6F
:10111000C7010E94BC0BF7016185C7010E94330C17
:10112000B801882777FD8095982F0E94391320E019
:1011300030E040E250E40E94A3129B01AC0160E069
:1011400070E088EC92E40E943E120E940B13C701EB
:101150000E94330C84EF91E00F900F90DF91CF91BC
:101160001F910F91FF90EF900C94240E0F900F9011
:10117000DF91CF911F910F91FF90EF9008951F92F3
:101180000F920FB60F9211240F931F932F933F933B
:101190004F935F936F937F938F939F93AF93BF937F
:1011A000CF93EF93FF93809166020E947E0FC82F2A
:1011B00020916D0230916E022F5F3F4F30936E028F
:1011C00020936D028091D302843618F085E08093DD
:1011D000680290916802933079F018F4923039F0F7
:1011E00070C0943011F1953009F44AC06AC0C11141
:1011F00068C01092D30229C0C13009F062C0E091EA
:10120000D30281E08E0F8093D302F0E080916D02D3
:1012100090916E02E959FD4F808710926E021092F4
:101220006D0284E0809368024CC0C11114C0E0914B
:10123000D30281E08E0F8093D302F0E080916D02A3
:1012400090916E02E959FD4F808710926E021092C4
:101250006D0283E0E7CF80916D0290916E0285363A
:10126000910578F185E0809368020E94CD0D60932E
:10127000690270936A0280936B0290936C0221C0A2
:101280000E94CD0D0091690210916A0220916B02BB
:1012900030916C02601B710B820B930B693C7105E2
:1012A0008105910540F01092D30210926E021092C7
:1012B0006D0282E0B7CFC11104C010926E0210928D
:1012C0006D02FF91EF91CF91BF91AF919F918F915F
:1012D0007F916F915F914F913F912F911F910F914E
:1012E0000F900FBE0F901F9018956093660280912B
:1012F000660260E00E940F0F809166028093670291
:101300000895F89482E08093B0008093B10094E651
:101310009093B3001092B200809370007894109272
:10132000D3028093680208951F93CF93DF93FC014B
:10133000A681B7818C9186588D3558F4808591852A
:1013400083309105A1F411968C91119781528931C6
:1013500018F080E090E044C012968C91885087305D
:10136000C0F7158281E0808381E090E039C083344A
:1013700091057CF311968C91119783548F3248F725
:1013800082E090E040E050E0BA019D012F5F3F4FC6
:10139000EC01CA0FDB1FC881C850C730D0F6E90185
:1013A000C80FD91F18811751133180F476956795AE
:1013B00057954795706802968234910549F780E207
:1013C00085834183528363837483CCCFC881C850A3
:1013D000C73008F0BECF7695679557954795EBCF08
:1013E000DF91CF911F9108950F931F93CF93DF93B8
:1013F000EC018FE692E09F838E838091D30290E090
:101400009987888780916802853081F4CE010E9497
:1014100094098C01CE010115110529F00E94810962
:1014200001E010E005C00E94810902C000E010E068
:10143000C801DF91CF911F910F9108950F931F93D2
:10144000CF93DF931F92CDB7DEB78C0169830E94E3
:10145000A10BF8011582168217821086118612865A
:1014600013866981C8010F90DF91CF911F910F9171
:101470000C94A20BCF93DF93EC010E94BC0B811163
:1014800011C062E0CE010E94330CCE010E94EA0B33
:10149000CE010E949B0C8C8388E293E20E94240E72
:1014A0008C8101C080E0DF91CF910895CF93DF93CD
:1014B000EC010E94BC0B811123C063E0CE010E94AD
:1014C000330CCE010E94BC0B81111AC06E81CE017B
:1014D0000E94330C6F81CE010E94330C6885CE01CF
:1014E0000E94330C6985CE010E94330C6A85CE01BF
:1014F0000E94330C6B85CE01DF91CF910C94330C9D
:10150000DF91CF910895FC016683478320870C9477
:10151000560AFC016187428723870C94560A1F9361
:10152000CF93DF93EC01162F0E94BC0B811111C0E9
:1015300064E0CE010E94330CCE010E94BC0B8111ED
:1015400008C01D836D81CE01DF91CF911F910C9456
:10155000330CDF91CF911F910895FC01658161608B
:101560000C948F0AFC0165816E7F0C948F0AFC013C
:10157000658162600C948F0AFC0165816D7F0C941B
:101580008F0A0F931F93CF93DF9300D01F92CDB795
:10159000DEB78C012B834A8369830E94A10BF8017B
:1015A000349685E1DF011D928A95E9F74A81F801B9
:1015B000418F2B81228F6981C8010F900F900F906E
:1015C000DF91CF911F910F910C94A20B25E04EE07B
:1015D0000C94C10A1F93CF93DF93EC01162F0E9446
:1015E000BC0B811116C066E0CE010E94330CCE0107
:1015F0000E94BC0B612F183008F067E06868CE01CC
:101600000E94330C88EB9BE0DF91CF911F910C94EB
:10161000240EDF91CF911F910895CF93DF93EC01BA
:10162000298D80E090E0821730F4FE01E80FF91F69
:1016300014820196F8CFCE010E94BC0B81110AC022
:1016400065E0CE010E94330C88E893E1DF91CF91F1
:101650000C94240EDF91CF9108950F931F93CF9395
:10166000DF93EC01062F142F0E94BC0B811115C0D3
:1016700063E0CE010E94330CCE010E94BC0B8111AD
:101680000CC0602FCE010E94330C612FCE01DF9180
:10169000CF911F910F910C94330CDF91CF911F913B
:1016A0000F910895CF93DF93E62FF0E0DC01599678
:1016B0002C91599730E0E217F307C4F4242F30E05F
:1016C0005A96AC91B0E02A173B0784F4E80FF91F53
:1016D000548121E030E001C0220F4A95EAF7522BF5
:1016E00054834481DF91CF910C942D0BDF91CF91E6
:1016F0000895CF93DF93E62FF0E0DC0159962C910B
:10170000599730E0E217F307CCF4242F30E05A96D3
:10171000AC91B0E02A173B078CF4E80FF91F548115
:1017200021E030E001C0220F4A95EAF720952523F9
:1017300024834481DF91CF910C942D0BDF91CF91C5
:1017400008950895DC016C9370E0FB01E656FF4FAD
:10175000E4911196EC931197FB01E255FF4FE49150
:10176000F0E0EE0FFF1FEE53FF4F8591949113961B
:101770009C938E9312970895FF920F931F93CF938C
:10178000DF938C01FC01F180C281D38189818F2993
:1017900089839A818F2D809589238A8380EE91E0B9
:1017A0000E94240E60E0F80180810E940F0F82E306
:1017B00090E00E94240EC88184E690E00E94240EEE
:1017C000FC2281E009F480E0DF91CF911F910F911D
:1017D000FF900895AF92BF92CF92DF92EF92FF9267
:1017E0000F931F93CF93DF938C01FC01B180C281D3
:1017F000D3810E94CD0D6B017C018981AB2CA0941B
:101800008A2189838A818B298A8388818B2169F047
:101810000E94CD0D6C197D098E099F0965367105F1
:101820008105910590F380E013C088818B21E9F355
:1018300089818B2989838A818A218A838EE190E03C
:101840000E94240E60E0F80180810E940F0F81E069
:10185000DF91CF911F910F91FF90EF90DF90CF908C
:10186000BF90AF9008950F931F93CF93DF93EC0138
:10187000062F18E0F89460E088810E94480F61E02C
:1018800088810E940F0F85E090E00E94240E00FFE7
:1018900002C061E001C060E088810E94480F0695A7
:1018A00078948EE190E00E94240E61E088810E948D
:1018B000480F85E090E00E94240E1150D9F660E0B8
:1018C0008881DF91CF911F910F910C940F0FCF92D0
:1018D000DF92EF92FF921F93CF93DF93FC01118170
:1018E000C281D3810E94CD0D6B017C01888181234F
:1018F00059F00E94CD0D6C197D098E099F09643045
:1019000071058105910590F3F8948EE190E00E94B5
:10191000240EC881789488E290E00E94240E1C2353
:1019200081E009F480E0DF91CF911F91FF90EF906B
:10193000DF90CF9008950F931F93CF93DF93EC0127
:1019400060E088810E940F0F08E010E0CE010E9445
:10195000670C20E8829FC00111241695182B0150B6
:10196000A9F7812FDF91CF911F910F910895FC016D
:10197000608308950C94B70CFC0180810E946A0E6C
:101980002FEF33E0A901481B590BCA0108951F929C
:101990000F920FB60F9211242F933F934F935F93A3
:1019A0006F937F938F939F93AF93BF93EF93FF9327
:1019B0008091D50287FF05C01092850010928400A7
:1019C0001AC02091D502332727FD30958091D4028B
:1019D00090E0281739077CF48091D502992787FD7C
:1019E0009095FC01EE0FFF1FE80FF91FEA52FD4F23
:1019F000808187FD15C08091D5028F5F8093D502CD
:101A00002091D502332727FD30958091D40290E0B4
:101A100028173907BCF48091D5028C305CF112C0D4
:101A20008091D502992787FD9095FC01EE0FFF1F4D
:101A3000E80FF91FEA52FD4F808160E08F770E9426
:101A4000480FD9CF8091840090918500049680340E
:101A50009C4918F480E49CE905C080918400909131
:101A60008500049690938900809388008FEF80937F
:101A7000D50238C020918400309185008091D50234
:101A8000992787FD9095FC01EE0FFF1FE80FF91FC6
:101A9000EA52FD4F81819281820F931F90938900BA
:101AA000809388008091D502992787FD9095FC014D
:101AB000EE0FFF1FE80FF91FEA52FD4F808187FFED
:101AC00011C08091D502992787FD9095FC01EE0FFA
:101AD000FF1FE80FF91FEA52FD4F808161E08F7709
:101AE0000E94480FFF91EF91BF91AF919F918F910D
:101AF0007F916F915F914F913F912F910F900FBE0A
:101B00000F901F9018951F920F920FB60F921124ED
:101B10002F933F938F939F93AF93BF938091FB023B
:101B20009091FC02A091FD02B091FE023091FA0268
:101B300023E0230F2D3720F40196A11DB11D05C010
:101B400026E8230F0296A11DB11D2093FA0280936F
:101B5000FB029093FC02A093FD02B093FE028091E1
:101B6000FF0290910003A0910103B091020301963E
:101B7000A11DB11D8093FF0290930003A093010368
:101B8000B0930203BF91AF919F918F913F912F919D
:101B90000F900FBE0F901F9018952FB7F89460917B
:101BA000FB027091FC028091FD029091FE022FBF1A
:101BB00008953FB7F8948091FF0290910003A0919F
:101BC0000103B091020326B5A89B05C02F3F19F071
:101BD0000196A11DB11D3FBF6627782F892F9A2F2F
:101BE000620F711D811D911D42E0660F771F881FD6
:101BF000991F4A95D1F70895CF92DF92EF92FF9205
:101C0000CF93DF936B017C010E94D90DEB01C114CE
:101C1000D104E104F10489F00E943D120E94D90D23
:101C20006C1B7D0B683E734090F381E0C81AD108AD
:101C3000E108F108C851DC4FEACFDF91CF91FF9066
:101C4000EF90DF90CF9008958230910538F0880FA3
:101C5000991F880F991F05970197F1F708957894B8
:101C600084B5826084BD84B5816084BD85B58260A1
:101C700085BD85B5816085BDEEE6F0E0808181603F
:101C80008083E1E8F0E0108280818260808380813F
:101C900081608083E0E8F0E0808181608083E1EB17
:101CA000F0E0808184608083E0EBF0E080818160FF
:101CB0008083EAE7F0E080818460808380818260B5
:101CC000808380818160808380818068808310929E
:101CD000C10008958E3008F08E5087702091260143
:101CE00090E4299F90011124822B80937C008091A5
:101CF0007A00806480937A0080917A0086FDFCCF20
:101D0000809178002091790090E0922B08951F93A4
:101D1000CF93DF93182FEB0161E00E940F0F209704
:101D200011F460E004C0CF3FD10539F461E0812FA8
:101D3000DF91CF911F910C94480FE12FF0E0EA570B
:101D4000FF4FE491E330F9F048F4E130B9F0E230CC
:101D5000A1F584B5806284BDC8BD34C0E730E9F028
:101D6000E83019F1E43049F5809180008062809379
:101D70008000D0938B00C0938A0024C084B5806813
:101D800084BDC7BD1FC080918000806880938000A3
:101D9000D0938900C093880015C08091B0008068FE
:101DA0008093B000C093B3000DC08091B0008062FA
:101DB0008093B000C093B40005C0C038D1050CF0CA
:101DC000B5CFAFCFDF91CF911F910895833081F0D0
:101DD00028F4813099F08230A1F008958730A9F07D
:101DE0008830B9F08430D1F4809180008F7D03C0B9
:101DF000809180008F7780938000089584B58F77DD
:101E000002C084B58F7D84BD08958091B0008F7726
:101E100003C08091B0008F7D8093B0000895CF9370
:101E2000DF9390E0FC01E656FF4F2491FC01E25560
:101E3000FF4F8491882349F190E0880F991FFC019E
:101E4000EA52FF4FA591B49184539F4FFC01C59175
:101E5000D4919FB7611108C0F8948C91209582238A
:101E60008C93888182230AC0623051F4F8948C915B
:101E7000322F309583238C938881822B888304C0F2
:101E8000F8948C91822B8C939FBFDF91CF91089512
:101E90000F931F93CF93DF931F92CDB7DEB7282FF9
:101EA00030E0F901EA57FF4F8491F901E656FF4F00
:101EB0001491F901E255FF4F04910023C9F08823E2
:101EC00021F069830E94E60E6981E02FF0E0EE0FB9
:101ED000FF1FE453FF4FA591B4919FB7F8948C91E5
:101EE000611103C01095812301C0812B8C939FBF8A
:101EF0000F90DF91CF911F910F910895CF93DF93B2
:101F0000282F30E0F901EA57FF4F8491F901E65696
:101F1000FF4FD491F901E255FF4FC491CC2391F0CA
:101F200081110E94E60EEC2FF0E0EE0FFF1FEE5342
:101F3000FF4FA591B4912C912D2381E090E021F4E5
:101F400080E002C080E090E0DF91CF910895FC0135
:101F5000818D228D90E0805C9F4F821B91098F7351
:101F600099270895FC01918D828D981731F0828D0B
:101F7000E80FF11D858D90E008958FEF9FEF089594
:101F8000FC01918D828D981761F0828DDF01A80F81
:101F9000B11D5D968C91928D9F5F9F73928F90E0A3
:101FA00008958FEF9FEF089584E491E1892B49F024
:101FB00080E090E0892B29F00E94441181110C945B
:101FC00000000895FC01848DDF01A80FB11DA35A04
:101FD000BF4F2C91848D90E001968F739927848F49
:101FE000A689B7892C93A089B1898C9180648C9340
:101FF000938D848D981306C00288F389E02D80812B
:102000008F7D80830895CF93DF93EC01888D8823A3
:10201000C9F0EA89FB89808185FD05C0A889B98955
:102020008C9186FD0FC00FB607FCF5CF808185FF30
:10203000F2CFA889B9898C9185FFEDCFCE010E949E
:10204000E20FE7CFDF91CF910895CF92DF92FF9219
:102050000F931F93CF93DF931F92CDB7DEB76C0121
:1020600081E0D60158968C9358975B969C915B972C
:102070005C968C915C97981307C05096ED91FC91FB
:102080005197808185FD2EC0F601038D10E00F5F12
:102090001F4F0F731127F02EF601848DF81211C017
:1020A0000FB607FCF9CFD6015096ED91FC915197F0
:1020B000808185FFF1CFC60169830E94E20F6981AB
:1020C000EBCF838DE80FF11DE35AFF4F6083D601FC
:1020D0005B960C935B975296ED91FC9153978081A0
:1020E00080620CC0D6015696ED91FC9157976083A3
:1020F0005096ED91FC91519780818064808381E0BE
:1021000090E00F90DF91CF911F910F91FF90DF90A2
:10211000CF900895BF92CF92DF92EF92FF92CF932C
:10212000DF93EC016A017B01B22EE889F98982E034
:102130008083411581EE580761057105A1F060E0CB
:1021400079E08DE390E0A70196010E94BF14215031
:10215000310941095109569547953795279521151C
:1021600080E1380798F0E889F989108260E874E81E
:102170008EE190E0A70196010E94BF142150310921
:10218000410951095695479537952795EC85FD8569
:102190003083EE85FF852083188EEC89FD89B0821F
:1021A000EA89FB89808180618083EA89FB8980815B
:1021B00088608083EA89FB89808180688083EA89DE
:1021C000FB8980818F7D8083DF91CF91FF90EF909D
:1021D000DF90CF90BF9008951F920F920FB60F928D
:1021E00011242F938F939F93EF93FF93E091130309
:1021F000F09114038081E0911903F0911A0382FD9C
:1022000012C0908180911C038F5F8F7320911D03FA
:10221000821751F0E0911C03F0E0ED5FFC4F958FC9
:1022200080931C0301C08081FF91EF919F918F915A
:102230002F910F900FBE0F901F9018951F920F9225
:102240000FB60F9211242F933F934F935F936F9389
:102250007F938F939F93AF93BF93EF93FF9383E00D
:1022600093E00E94E20FFF91EF91BF91AF919F9198
:102270008F917F916F915F914F913F912F910F902F
:102280000FBE0F901F90189583E093E00E94A70F58
:1022900021E0892B09F420E0822F08951092060393
:1022A0001092050388EE93E0A0E0B0E0809307036E
:1022B00090930803A0930903B0930A038FE491E07D
:1022C000909304038093030385EC90E090931003B4
:1022D00080930F0384EC90E090931203809311039A
:1022E00080EC90E0909314038093130381EC90E0D2
:1022F000909316038093150382EC90E0909318035B
:102300008093170386EC90E090931A03809319034F
:1023100010921C0310921D0310921E0310921F03B3
:10232000089508950E942F0E0E9491110E94A0030B
:10233000C4EDDFE00E94B4062097E1F30E94D40FC1
:10234000F9CFCF92DF92EF92FF920F931F93CF932B
:10235000DF936C017A01EB01E60EF71E00E010E05E
:10236000CE15DF0561F06991D601ED91FC910190E8
:10237000F081E02DC6010995080F191FF1CFC801A2
:10238000DF91CF911F910F91FF90EF90DF90CF9051
:1023900008956115710581F0DB010D900020E9F7CA
:1023A000AD0141505109461B570BDC01ED91FC91E9
:1023B0000280F381E02D099480E090E008956BE5C0
:1023C00071E00C94C9110F931F93CF93DF93EC012D
:1023D0000E94C9118C01CE010E94DF11800F911F54
:1023E000DF91CF911F910F910895611571058105BE
:1023F000910511F00C9488150895CF93DF9300D0C8
:1024000000D0CDB7DEB79B01AC0161157105810528
:10241000910569F069833A834B835C830E9483153D
:1024200029813A814B815C810E94E11403C060E004
:1024300070E0CB010F900F900F900F90DF91CF9134
:102440000895CF92DF92EF92FF926B017C016217A9
:1024500073078407950764F4CA01B9016C197D09F3
:102460008E099F090E94FD116C0D7D1D8E1D9F1D03
:10247000FF90EF90DF90CF90089508955058BB27BC
:10248000AA270ED07BC16CD130F071D120F031F48D
:102490009F3F11F41EF43CC10EF4E095E7FB24C10C
:1024A000E92F7DD180F3BA17620773078407950778
:1024B00018F071F49EF595C10EF4E0950B2EBA2F2D
:1024C000A02D0B01B90190010C01CA01A00111243A
:1024D000FF27591B99F0593F50F4503E68F11A16E6
:1024E000F040A22F232F342F4427585FF3CF469577
:1024F00037952795A795F0405395C9F77EF41F1699
:10250000BA0B620B730B840BBAF09150A1F0FF0F62
:10251000BB1F661F771F881FC2F70EC0BA0F621F4E
:10252000731F841F48F4879577956795B795F7953E
:102530009E3F08F0B3CF9395880F08F09927EE0FD0
:102540009795879508950CD019C111D140F008D105
:1025500030F021F45F3F19F0C7C0511143C1D8C01A
:102560001ED198F39923C9F35523B1F3951B550B4D
:10257000BB27AA2762177307840738F09F5F5F4F56
:10258000220F331F441FAA1FA9F333D00E2E3AF097
:10259000E0E830D091505040E695001CCAF729D0B1
:1025A000FE2F27D0660F771F881FBB1F2617370700
:1025B0004807AB07B0E809F0BB0B802DBF01FF2730
:1025C00093585F4F2AF09E3F510568F08DC00AC1B5
:1025D0005F3FECF3983EDCF3869577956795B7956A
:1025E000F7959F5FC9F7880F911D9695879597F985
:1025F0000895E1E0660F771F881FBB1F62177307FE
:102600008407BA0720F0621B730B840BBA0BEE1F12
:1026100088F7E0950895CBD088F09F5790F0B92FB8
:102620009927B751A0F0D1F0660F771F881F991F27
:102630001AF0BA95C9F712C0B13081F0D2D0B1E02A
:102640000895CFC0672F782F8827B85F39F0B93F3A
:10265000CCF3869577956795B395D9F73EF4909529
:102660008095709561957F4F8F4F9F4F0895E894A7
:1026700009C097FB3EF490958095709561957F4FCA
:102680008F4F9F4F9923A9F0F92F96E9BB27939578
:10269000F695879577956795B795F111F8CFFAF488
:1026A000BB0F11F460FF1BC06F5F7F4F8F4F9F4FB9
:1026B00016C0882311F096E911C0772321F09EE817
:1026C000872F762F05C0662371F096E8862F70E07D
:1026D00060E02AF09A95660F771F881FDAF7880F57
:1026E0009695879597F9089597F99F6780E870E028
:1026F00060E008959F3F31F0915020F487957795E1
:102700006795B795880F911D9695879597F90895C8
:102710009FEF80EC0895DF93CF931F930F93FF9269
:10272000EF92DF927B018C01689405C0DA2EEF01F5
:102730006BD0FE01E894A591259135914591559175
:10274000AEF3EF01ADDEFE019701A801DA9479F74F
:10275000DF90EF90FF900F911F91CF91DF9108953F
:1027600000240A9416161706180609060895002470
:102770000A9412161306140605060895092E0394EA
:10278000000C11F4882352F0BB0F40F4BF2B11F45E
:1027900060FF04C06F5F7F4F8F4F9F4F089557FDBD
:1027A0009058440F551F59F05F3F71F04795880FBF
:1027B00097FB991F61F09F3F79F087950895121656
:1027C00013061406551FF2CF4695F1DF08C0161602
:1027D00017061806991FF1CF8695710561050894B3
:1027E0000895E894BB2766277727CB0197F90895CA
:1027F0000BD0C4CFB5DF28F0BADF18F0952309F06D
:1028000073CF86CF1124EECFCADFA0F3959FD1F30B
:10281000950F50E0551F629FF001729FBB27F00D8E
:10282000B11D639FAA27F00DB11DAA1F649F6627E3
:10283000B00DA11D661F829F2227B00DA11D621F32
:10284000739FB00DA11D621F839FA00D611D221FEC
:10285000749F3327A00D611D231F849F600D211DD0
:10286000822F762F6A2F11249F5750408AF0E1F073
:1028700088234AF0EE0FFF1FBB1F661F771F881FBC
:1028800091505040A9F79E3F510570F02DCFAACF2F
:102890005F3FECF3983EDCF3869577956795B795A7
:1028A000F795E7959F5FC1F7FE2B880F911D9695D1
:1028B000879597F908959F9305D00F9007FCEE5FD9
:1028C00028C026CF74DFE8F3E894E0E0BB279F57E9
:1028D000F0F02AED3FE049EC06C0EE0FBB0F661F9B
:1028E000771F881F28F0B23A62077307840728F021
:1028F000B25A620B730B840BE3959A9572F780388A
:1029000030F49A95BB0F661F771F881FD2F7904847
:10291000F3CEEF93E0FF06C0A2EA2AED3FE049ECD8
:102920005FEBBEDD2BDF0F90039401FC9058E8E6CF
:10293000F0E000C09F938F937F936F93FF93EF938B
:102940009B01AC0155DFEF91FF91E5DE2F913F91A7
:102950004F915F914DCF97FB072E16F4009407D04F
:1029600077FD09D00E940B1507FC05D03EF4909529
:1029700081959F4F0895709561957F4F0895A1E2CD
:102980001A2EAA1BBB1BFD010DC0AA1FBB1FEE1FE9
:10299000FF1FA217B307E407F50720F0A21BB30B34
:1029A000E40BF50B661F771F881F991F1A9469F7B0
:1029B00060957095809590959B01AC01BD01CF010C
:1029C0000895052E97FB1EF400940E94F81457FDFD
:1029D00007D00E94BF1407FC03D04EF40C94F814E7
:1029E00050954095309521953F4F4F4F5F4F08953B
:1029F00090958095709561957F4F8F4F9F4F08956B
:102A00000E942515A59F900DB49F900DA49F800D49
:102A1000911D11240895AA1BBB1B51E107C0AA1FD9
:102A2000BB1FA617B70710F0A61BB70B881F991F6F
:102A30005A95A9F780959095BC01CD010895EE0FA8
:102A4000FF1F0590F491E02D0994A29FB001B39F60
:102A5000C001A39F700D811D1124911DB29F700DA7
:102A6000811D1124911D08958F929F92AF92BF9264
:102A7000CF92DF92EF92FF92CF93DF93EC016881C8
:102A800079818A819B81611571058105910521F408
:102A900064E279ED8BE597E02DE133EF41E050E022
:102AA0000E94E11449015A019B01AC01A7EAB1E47B
:102AB0000E9400156B017C01ACEEB4EFA5019401FE
:102AC0000E94BA15C60ED71EE81EF91EF7FE06C0F4
:102AD00081E0C81AD108E10880E8F80AC882D982E2
:102AE000EA82FB82C701B6019F77DF91CF91FF9009
:102AF000EF90DF90CF90BF90AF909F908F90089510
:102B00000E943415089586E091E00E9434150895DE
:102B10006093060170930701809308019093090167
:102B20000895FC0188279927E89421912032E9F340
:102B3000293010F02E30C8F32B3241F02D3239F409
:102B4000689404C00E94AF15820F911D21912053FB
:102B50002A30C0F31EF4909581959F4F08957AE036
:102B6000979F902D879F802D910D11240895B7FF79
:102B70000C9400150E940015821B930B0895F89485
:022B8000FFCF85
:102B82000000A00380000100000001009600000088
:102B92000A09050600000000000000000000000015
:102BA200000000000000015645520077656565622D
:102BB2006F746D696E695F415F31004C4641004F31
:102BC2004B004C46004C4F004952000000000025CB
:102BD20010A111A70FC00FB20F03100D0A006E61F2
:0C2BE2006E00696E66006F7666002E00C3
:00000001FF
