:100000000C9472000C949A000C949A000C949A0030
:100010000C949A000C949A000C949A000C94240965
:100020000C949A000C949A000C949A000C94440D31
:100030000C949A000C949A000C949A000C949A00D8
:100040000C94000E0C949A000C9469110C949B1162
:100050000C949A000C949A000C949A000C949A00B8
:100060000C949A000C949A0005A84CCDB2D44EB9C9
:100070003836A9020C50B9918688083CA6AAAA2A4B
:10008000BE000000803F00000008000201000003E5
:100090000407000000000000000001020408102016
:1000A000408001020408102001020408102004040A
:1000B0000404040404040202020202020303030310
:1000C00003030000000023002600290000000000B8
:1000D000250028002B0000000000240027002A0033
:1000E000A506CB1111241FBECFEFD8E0DEBFCDBFD8
:1000F00011E0A0E0B1E0ECE7FCE202C005900D9257
:10010000A437B107D9F723E0A4E7B1E001C01D92FD
:10011000A83AB207E1F710E0C4EED0E004C022979D
:10012000FE010E949E15C03ED107C9F70E940F1222
:100130000C943C160C94000081E0809380008BE0CE
:10014000809381000895CF93C82F61E083E00E94DF
:100150008C0F6C2F83E0CF910C94C50FCF93C82FD9
:1001600061E08EE00E948C0F6C2F8EE0CF910C949A
:10017000C50FCF93C82F61E084E00E948C0F6C2FD5
:1001800084E0CF910C94C50FCF93C82F61E08DE030
:100190000E948C0F6C2F8DE0CF910C94C50FCF93E4
:1001A000DF93EB012CE231E040E050E0BC0181E65E
:1001B00092E00E94DD0784E0CC0FDD1F8A95E1F715
:1001C000C55BDF4FD0930D01C0930C01DF91CF9140
:1001D00008954F925F926F927F928F929F92AF920B
:1001E000BF92CF92DF92EF92FF9226E030E040E0A4
:1001F00050E061E070E080E090E00E949E120E947A
:10020000B61320E030E040EC50E40E9420139B0144
:10021000AC016091FE017091FF018091000290910C
:1002200001020E94BC126093FE017093FF01809353
:1002300000029093010226E030E040E050E061E0EF
:1002400070E080E090E00E949E120E94B61320E0D1
:1002500030E040EC50E40E9420139B01AC0160911F
:10026000FA017091FB018091FC019091FD010E94C7
:10027000BC126093FA017093FB018093FC01909390
:10028000FD0126E030E040E050E061E070E080E019
:1002900090E00E949E120E94B61320E030E040ECF5
:1002A00050E40E9420132091F6013091F701409113
:1002B000F8015091F9010E94BC126B017C0160931E
:1002C000F6017093F7018093F8019093F90120E013
:1002D00030E040E85EE36091FE017091FF018091A3
:1002E0000002909101020E94751420E030E040E08D
:1002F0005FE30E94BC120E94D8144B015C0120E015
:1003000030E040E151E46091FA017091FB0180918D
:10031000FC019091FD010E94201320E030E040E8B4
:100320005FE30E94BC1226E636E646E050E40E94F7
:10033000BC120E94D8142B013C0120E030E040E6C2
:1003400051E4C701B6010E9420132BEA3AEA4AEAB7
:100350005EE30E94BC1226E636E646E850E40E94C0
:10036000BC120E94D81420E030E040E85FE30E9415
:10037000BC1220E030E040E852E40E9475140E9474
:100380008813E62E20E030E040E85FE3C301B201CD
:100390000E94BC1220E030E040E852E40E94751454
:1003A0000E948813F62E20E030E040E85FE3C501AC
:1003B000B4010E94BC1220E030E040E852E40E9408
:1003C00075140E948813D62E2E2D4F2D8AE392E0AD
:1003D0000E94E80A2E2D4F2D6D2D8AE392E0FF90AA
:1003E000EF90DF90CF90BF90AF909F908F907F90D5
:1003F0006F905F904F900C94EE0A0F931F93CF93E2
:10040000DF938C01EB0166277727681B790B8EE25F
:1004100092E00E942808BE0183E292E00E94280830
:1004200010161106FCF480E01C161D0624F40E9430
:10043000A30080E02FC00E94A30080E00E94AE00D5
:1004400080E00E94B90081E00E94C4008AE392E04B
:100450000E94350B8AE392E0DF91CF911F910F91BB
:100460000C94260B1C161D068CF480E00E94A30041
:1004700080E00E94AE0081E00E94B90080E00E940E
:10048000C4008AE392E00E94300B10C081E00E9419
:10049000A30081E00E94AE0080E00E94B90080E0ED
:1004A0000E94C4008AE392E00E94350B8AE392E046
:1004B000DF91CF911F910F910C942B0B80910C0128
:1004C00090910D01BC010C94FD0180910C01909163
:1004D0000D01919581959109BC010C94FD018091CC
:1004E0000C0190910D01BC019195819591090C949D
:1004F000FD0180910C0190910D0166277727681B03
:10050000790B0C94FD0160E070E080E090E00C94C9
:10051000FD01CF93C82F0E944A0E60931B02709377
:100520001C0280931D0290931E02C03409F4DBC0AC
:1005300060F5CD3009F4AAC0A8F4C83009F4EAC0C7
:1005400030F4C73009F0F2C083E090E0D4C0C93085
:1005500009F4CFC0CC3009F0E9C060E070E086E279
:1005600091E0E1C0C83109F4DAC020F4C53109F4E2
:1005700099C0DCC0C93109F4B9C0CC3109F0D6C08A
:1005800065E070E089EB91E0CEC0C634E9F118F582
:10059000C33409F46EC040F4C23409F0C7C067E048
:1005A00070E08CE292E0BFC0C43409F455C0C53499
:1005B00009F0BCC086E990E090930D0180930C0196
:1005C000109222020E9483022CE231E040E050E0CF
:1005D00066E271E02AC0C23509F492C050F4C73413
:1005E00049F1CA3409F0A2C069E070E085E992E0FF
:1005F0009AC0CA3509F489C0CE3509F097C063E0C6
:1006000070E08EE591E08FC084E690E090930D015C
:1006100080930C0181E0809322020E9483022CE2ED
:1006200031E040E050E06AE471E081E692E0CF9191
:100630000C94DD0782E08093220284E690E09093A0
:100640000D0180930C010E9483022CE231E040E016
:1006500050E06EE571E0E9CF88EC90E090930D01F9
:1006600080930C012CE231E040E050E069E871E059
:10067000DCCF8FEF90E090930D0180930C012CE282
:1006800031E040E050E069EB71E0CFCF85E080934E
:10069000220284E690E090930D0180930C010E9469
:1006A00083021AC080911F0290E0019663E070E01F
:1006B0000E94281580931F02892B71F420E040E0EE
:1006C00060E08AE392E00E94E80A20E040E060E017
:1006D0008AE392E00E94EE0A2CE231E040E050E032
:1006E0006FEE71E0A2CF81E090E005C082E090E083
:1006F00002C084E090E0909321028093200216C013
:1007000068E070E08DE492E00EC066E070E08FEE8D
:1007100091E009C064E070E089E891E004C062E023
:1007200070E08AE491E0CF910C94CF00CF910895CE
:1007300080912002909121028230910571F02CF479
:10074000009789F0019739F008958330910539F0C9
:10075000049739F008950C945E020C9465020C9491
:100760006F020C9479020C94830228EE33E040E08F
:1007700050E066E271E081E692E00E94790781E054
:100780000E94A30081E00E94AE0081E00E94B900B7
:1007900081E00E94C4000E9483028AE392E00E94EA
:1007A000300B8AE392E00E94260B65E086E492E03B
:1007B0000E94630B86E492E00E94860B41E160E0B8
:1007C00086E492E00E94A60B42E061E086E492E0BB
:1007D0000E94A60B44E062E086E492E00E94A60B31
:1007E00048E063E086E492E00E94A60B40E164E00A
:1007F00086E492E00E94A60B40E065E086E492E089
:100800000E94A60B40E066E086E492E00E94A60B00
:1008100040E067E086E492E00E94A60B40E068E0DA
:1008200086E492E00E94A60B40E169E086E492E053
:100830000E94A60B48E06AE086E492E00E94A60BC4
:1008400044E06BE086E492E00E94A60B42E06CE09C
:1008500086E492E00E94A60B41E16DE086E492E01E
:100860000E94A60B2CE231E040E050E06FEE71E018
:1008700081E692E00E94790726E040E052EC61E0D8
:1008800070E08BE093E00E94071182E692E00C9406
:10089000E60980910E0281110DC00E944A0E6093FC
:1008A0000A0270930B0280930C0290930D0281E078
:1008B00080930E028AE392E00E949F0A882399F1B6
:1008C00086E00E94E70EBC01882777FD8095982F6F
:1008D0000E94721262E070E080E090E00E947A1262
:1008E00020910C0130910D01662361F0EE27FF2766
:1008F000E21BF30BC9016BEF7FEF0E942815CB01C0
:10090000BF0109C0C9016BEF7FEF0E94281588273E
:100910009927821B930B0E94FD0164EF71E080E038
:1009200090E00C94790E80910C0190910D01BC0126
:100930000C94FD010F931F9389E392E00E94390DFF
:10094000853F914098F468EC70E088EC90E00E945C
:10095000FD011092060210920702109208021092F6
:100960000902109205021092040267C080910602EB
:1009700090910702A0910802B0910902892B8A2B5D
:100980008B2B81F580910A0190910B0128EC289F17
:10099000B001299F700D112428E3AC01249FC001F0
:1009A000259F900D941B11240E94FD010E944A0E68
:1009B00008EC10E00090040202C0000F111F0A941E
:1009C000E2F7222717FD2095322F600F711F821F3B
:1009D000931F60930602709307028093080290931E
:1009E00009022BC00E944A0E0091060210910702D4
:1009F000209108023091090260177107820793075E
:100A0000E0F0109206021092070210920802109273
:100A1000090280910A0190910B01919581959109AC
:100A200090930B0180930A0180910402909105023A
:100A3000019690930502809304021F910F910895EF
:100A400080910202909103028531910594F066E94C
:100A500070E080E090E00E94FD0164E670E080E0DC
:100A600090E00E94790E809102029091030201971A
:100A700013C04497A9F060E070E086E990E00E941E
:100A8000FD0164E670E080E090E00E94790E8091C4
:100A90000202909103020196909303028093020256
:100AA00080910202909103028531910529F4109200
:100AB0000302109202020895439731F488E290E015
:100AC00090930302809302020895DC01ED91FC9162
:100AD0001197CF01019611969C938E93208120321D
:100AE000A9F70C940E16FB012191BF01222339F0C6
:100AF000FC013191CF013217B1F380E0089581E01C
:100B00000895CF93DF93EB01FC0101900020E9F7FA
:100B1000AF0141505109481B590BE0910B03F09173
:100B20000C030280F381E02DBC018BE093E009957A
:100B3000BE018BE093E0DF91CF910C9460120F9394
:100B40001F93CF93DF9300D000D01F92CDB7DEB7B5
:100B50009A8389838C0167E271E00E947305882380
:100B600031F06BE271E0C8010E948105E4C06BE3E3
:100B700071E0C8010E947305882351F06FE371E0B2
:100B8000C8010E94810586E492E00E94860BD3C0D2
:100B900062E471E0C8010E9473058823B1F06FE33D
:100BA00071E0C8010E948105CE0101960E94650591
:100BB000682FCE0101966D830E946505482F6D81D7
:100BC00086E492E00E94F60BB6C065E471E0C801CD
:100BD0000E9473058823B1F06FE371E0C8010E94A1
:100BE0008105CE0101960E946505682FCE01019610
:100BF0006D830E946505482F6D8186E492E00E9416
:100C0000CF0B99C068E471E0C8010E947305882386
:100C100081F0CE0101960E9465058C01CE010196FE
:100C20000E9465059C01442737FD4095542FB8016B
:100C30007BC06BE471E0C8010E9473058823F9F062
:100C4000CE0101960E946505682FCE0101966D8345
:100C50000E946505482FCE0101964C830E946505D0
:100C6000282FCE0101962B830E946505082F2B812A
:100C70004C816D818AE392E00E94F40A5CC06FE4CB
:100C800071E0C8010E947305882309F454C06FE322
:100C900071E0C8010E94810589819A8102960E94B3
:100CA0000E16813089F480911A028093220280917D
:100CB00017029091180290930D0180930C0180917E
:100CC000190280931F022AC0823099F580911F0279
:100CD0008093190280910C0190910D01909318025C
:100CE000809317028091220280931A0210922202AE
:100CF00010921F0220E040E060E08AE392E00E9450
:100D0000E80A20E040E060E08AE392E00E94EE0A18
:100D100060E070E080E090E00E94FD012CE231E0B4
:100D200040E050E066E271E081E692E00E94DD077B
:100D300002C00E9489020F900F900F900F900F90A9
:100D4000DF91CF911F910F91089562E082E692E0CA
:100D50000E94DA0967E081E692E00E94760760E18E
:100D600086E492E00E945F0B62E18AE392E00E94D7
:100D7000830A63E189E392E00E94370D62E08EE22C
:100D800092E00E940E0861E083E292E00E940E0869
:100D90008091220280931A0280911F02809319028F
:100DA00080910C0190910D0190931802809317028D
:100DB00008951F93CF93DF93C0E8D0E010E28BE05B
:100DC00093E00E942410892B81F18BE093E00E9434
:100DD0003D102091F4013091F5018A30C1F4C90130
:100DE0000197FC01EC58FE4F40814D3011F49C01FD
:100DF000F6CFF901EC58FE4F108311821092F501E5
:100E00001092F40184E791E00E949F05D8CFF90188
:100E1000EC58FE4F8083C9010196BE010E9428153F
:100E20009093F5018093F401CACFDF91CF911F9188
:100E300008950F931F9380911602882319F00E9442
:100E4000D90614C08BE093E00E942410892B21F076
:100E500081E0809316020AC082E692E00E94590A5D
:100E6000892B21F0809165020E9489020E944A0E1E
:100E700000911B0210911C0220911D0230911E0254
:100E8000601B710B820B930B69377105810591050E
:100E900070F00E944A0E60931B0270931C028093B4
:100EA0001D0290931E021092210210922002809146
:100EB0002202813059F038F0823059F0853059F4EF
:100EC0000E94200508C00E94980305C00E944904A2
:100ED00002C00E949A0480911F02813021F41F9168
:100EE0000F910C94E9001F910F91089560936D028A
:100EF00008954F925F926F927F928F929F92AF92DE
:100F0000BF92CF92DF92EF92FF920F931F93CF93F6
:100F1000DF9369017A019B0140E050E060E472E4F4
:100F20008FE090E00E945E15E901890137FF02C061
:100F30000F5F1F4F1595079561E080916D020E942C
:100F40008C0FA8EEB3E0A70196010E947D154B011E
:100F50005C01C12CD12C76012E01662457FC6094D3
:100F6000762CC814D904EA04FB04B0F461E0809143
:100F70006D020E94C50FC8010E94A10E60E0809121
:100F80006D020E94C50FC8010E94A10EA895C40C55
:100F9000D51CE61CF71CE5CFDF91CF911F910F9177
:100FA000FF90EF90DF90CF90BF90AF909F908F9089
:100FB0007F906F905F904F900895F8940E9479070A
:100FC000789408950F931F93CF93DF93EC01062F2E
:100FD00010E0000F111F025F1E4F633050F0F80148
:100FE0006081CE010E941F0CF801818189871886DB
:100FF0000CC061E0F80181810E948C0FF8018081B2
:101000008D8381818C8381E088878CE291E09F834E
:101010008E83DF91CF911F910F9108950F931F93AE
:10102000CF93DF931F92CDB7DEB78C0169830E9407
:101030001E0CF801178216821086118612866981AD
:10104000C8010F90DF91CF911F910F910C94E2078F
:10105000EF92FF920F931F93CF93DF9300D0CDB702
:10106000DEB77C01FC018285811109C069837A8326
:101070000E949C0081E0F70182877A8169818B015F
:101080006F3F710519F014F00FEF10E00130FFEF22
:101090001F0714F401E01FEFF70186819781801785
:1010A000910709F4C8C017830683808517FD4EC0D9
:1010B000813079F58481873019F4848160E006C03D
:1010C000F7018481883089F4848161E00E94C50F32
:1010D000F7018581B8010F900F90DF91CF911F919B
:1010E0000F91FF90EF900C94040FF70184818930E9
:1010F00029F0F7018481863009F09DC0848161E088
:101100000E94C50FF70185816FEF70E0601B710BC6
:10111000E2CFC7010E94390C62E0C7010E94B00C07
:10112000C7010E94390CF7016185C7010E94B00C0C
:10113000B801882777FD8095982F0E94B61323E386
:1011400033E343E250E40E94201364C08130F1F5A0
:10115000F7018481873061F4848161E00E94C50FCA
:10116000F701858166277727601B710B0E94040FAA
:10117000F7018481883061F4848160E00E94C50FAA
:10118000F701858166277727601B710B0E94040F8A
:10119000F7018481893059F4858161E00E94C50F8F
:1011A000F7018481B80161507F4F0E94040FF7015D
:1011B0008481863009F03FC0858161E00E94C50FBF
:1011C000F7018481B80161507F4F85CFC7010E942C
:1011D000390C62E0C7010E94B00CC7010E94390CB3
:1011E000F7016185C7010E94B00CB801882777FD1F
:1011F0008095982F0E94B61323E333E343E250E433
:101200000E9420139B01AC0160E070E088EC92E446
:101210000E94BB120E948813C7010E94B00C84EF89
:1012200091E00F900F90DF91CF911F910F91FF9060
:10123000EF900C94A10E0F900F90DF91CF911F9122
:101240000F91FF90EF9008951F920F920FB60F929B
:1012500011240F931F932F933F934F935F936F939B
:101260007F938F939F93AF93BF93CF93EF93FF930E
:1012700080916E020E94FB0FC82F20917502309161
:1012800076022F5F3F4F3093760220937502809154
:10129000DB02843618F085E0809370029091700232
:1012A000933079F018F4923039F070C0943011F125
:1012B000953009F44AC06AC0C11168C01092DB02BF
:1012C00029C0C13009F062C0E091DB0281E08E0FDD
:1012D0008093DB02F0E08091750290917602E159F3
:1012E000FD4F8087109276021092750284E0809301
:1012F00070024CC0C11114C0E091DB0281E08E0F7E
:101300008093DB02F0E08091750290917602E159C2
:10131000FD4F8087109276021092750283E0E7CF2E
:1013200080917502909176028536910578F185E07D
:10133000809370020E944A0E609371027093720251
:10134000809373029093740221C00E944A0E009110
:101350007102109172022091730230917402601B2D
:10136000710B820B930B693C71058105910540F06F
:101370001092DB02109276021092750282E0B7CFD3
:10138000C11104C01092760210927502FF91EF9184
:10139000CF91BF91AF919F918F917F916F915F910D
:1013A0004F913F912F911F910F910F900FBE0F9072
:1013B0001F90189560936E0280916E0260E00E940B
:1013C0008C0F80916E0280936F020895F89482E0F2
:1013D0008093B0008093B10094E69093B300109294
:1013E000B2008093700078941092DB0280937002B8
:1013F00008951F93CF93DF93FC01A681B7818C9151
:1014000086588D3558F48085918583309105A1F4F7
:1014100011968C9111978152893118F080E090E0FB
:1014200044C012968C9188508730C0F7158281E0B5
:10143000808381E090E039C0833491057CF311967C
:101440008C91119783548F3248F782E090E040E00E
:1014500050E0BA019D012F5F3F4FEC01CA0FDB1F27
:10146000C881C850C730D0F6E901C80FD91F18810C
:101470001751133180F476956795579547957068A5
:1014800002968234910549F780E285834183528335
:1014900063837483CCCFC881C850C73008F0BECFF7
:1014A0007695679557954795EBCFDF91CF911F9133
:1014B00008950F931F93CF93DF93EC0187E792E09A
:1014C0009F838E838091DB0290E09987888780914B
:1014D0007002853081F4CE010E94F9098C01CE01A1
:1014E0000115110529F00E94E60901E010E005C090
:1014F0000E94E60902C000E010E0C801DF91CF9130
:101500001F910F9108950F931F93CF93DF931F9215
:10151000CDB7DEB78C0169830E941E0CF8011582DD
:101520001682178210861186128613866981C80179
:101530000F90DF91CF911F910F910C941F0CCF93BF
:10154000DF93EC010E94390C811111C062E0CE01E1
:101550000E94B00CCE010E94670CCE010E94180DB3
:101560008C8388E293E20E94A10E8C8101C080E00E
:10157000DF91CF910895CF93DF93EC010E94390C56
:10158000811123C063E0CE010E94B00CCE010E9405
:10159000390C81111AC06E81CE010E94B00C6F818E
:1015A000CE010E94B00C6885CE010E94B00C698506
:1015B000CE010E94B00C6A85CE010E94B00C6B85F2
:1015C000CE01DF91CF910C94B00CDF91CF910895B3
:1015D000FC016683478320870C94BB0AFC0161876A
:1015E000428723870C94BB0A0F93FC0160FF03C062
:1015F00046832783008761FF03C0418722870387D3
:10160000637021F0CF010F910C94BB0A0F910895E4
:101610001F93CF93DF93EC01162F0E94390C811199
:1016200011C064E0CE010E94B00CCE010E94390CC2
:10163000811108C01D836D81CE01DF91CF911F9173
:101640000C94B00CDF91CF911F910895FC0165813E
:1016500061600C94080BFC0165816E7F0C94080B93
:10166000FC01658162600C94080BFC0165816D7F53
:101670000C94080B0F931F93CF93DF9300D01F920E
:10168000CDB7DEB78C012B834A8369830E941E0C81
:10169000F801349685E1DF011D928A95E9F74A81C8
:1016A000F801418F2B81228F6981C8010F900F9023
:1016B0000F90DF91CF911F910F910C941F0C25E09B
:1016C0004EE00C943A0B1F93CF93DF93EC01162F4F
:1016D0000E94390C811116C066E0CE010E94B00C48
:1016E000CE010E94390C612F183008F067E068685D
:1016F000CE010E94B00C88EB9BE0DF91CF911F914F
:101700000C94A10EDF91CF911F910895CF93DF9399
:10171000EC01298D80E090E0821730F4FE01E80FA3
:10172000F91F14820196F8CFCE010E94390C811165
:101730000AC065E0CE010E94B00C88E893E1DF9119
:10174000CF910C94A10EDF91CF9108950F931F9329
:10175000CF93DF93EC01162F042F898D6817D0F4F7
:10176000CE010E94390C811115C063E0CE010E94A8
:10177000B00CCE010E94390C81110CC0612FCE013A
:101780000E94B00C602FCE01DF91CF911F910F917D
:101790000C94B00CDF91CF911F910F910895CF93CE
:1017A000DF93E62FF0E0DC0159962C91599730E059
:1017B000E217F307C4F4242F30E05A96AC91B0E05E
:1017C0002A173B0784F4E80FF91F548121E030E029
:1017D00001C0220F4A95EAF7522B54834481DF91CE
:1017E000CF910C94A60BDF91CF910895CF93DF9307
:1017F000E62FF0E0DC0159962C91599730E0E21782
:10180000F307CCF4242F30E05A96AC91B0E02A17BD
:101810003B078CF4E80FF91F548121E030E001C050
:10182000220F4A95EAF72095252324834481DF91EE
:10183000CF910C94A60BDF91CF9108950895DC0110
:101840006C9370E0FB01E656FF4FE4911196EC9328
:101850001197FB01E255FF4FE491F0E0EE0FFF1FFF
:10186000EE53FF4F8591949113969C938E9312970C
:101870000895FF920F931F93CF93DF938C01FC0188
:10188000F180C281D38189818F2989839A818F2DAB
:10189000809589238A8380EE91E00E94A10E60E00A
:1018A000F80180810E948C0F82E390E00E94A10EDB
:1018B000C88184E690E00E94A10EFC2281E009F438
:1018C00080E0DF91CF911F910F91FF900895AF922B
:1018D000BF92CF92DF92EF92FF920F931F93CF931D
:1018E000DF938C01FC01B180C281D3810E944A0E3A
:1018F0006B017C018981AB2CA0948A2189838A8128
:101900008B298A8388818B2169F00E944A0E6C1989
:101910007D098E099F09653671058105910590F352
:1019200080E013C088818B21E9F389818B29898329
:101930008A818A218A838EE190E00E94A10E60E074
:10194000F80180810E948C0F81E0DF91CF911F917F
:101950000F91FF90EF90DF90CF90BF90AF900895E0
:101960000F931F93CF93DF93EC01062F18E0F894A9
:1019700060E088810E94C50F61E088810E948C0F21
:1019800085E090E00E94A10E00FF02C061E001C06E
:1019900060E088810E94C50F069578948EE190E002
:1019A0000E94A10E61E088810E94C50F85E090E051
:1019B0000E94A10E1150D9F660E08881DF91CF918D
:1019C0001F910F910C948C0FCF92DF92EF92FF92A8
:1019D0001F93CF93DF93FC011181C281D3810E94B9
:1019E0004A0E6B017C018881812359F00E944A0EC6
:1019F0006C197D098E099F09643071058105910577
:101A000090F3F8948EE190E00E94A10EC881789442
:101A100088E290E00E94A10E1C2381E009F480E09E
:101A2000DF91CF911F91FF90EF90DF90CF900895BD
:101A30000F931F93CF93DF93EC0160E088810E94A6
:101A40008C0F08E010E0CE010E94E40C20E8829F99
:101A5000C00111241695182B0150A9F7812FDF9191
:101A6000CF911F910F910895FC01608308950C940C
:101A7000340DFC0180810E94E70E2FEF33E0A901B5
:101A8000481B590BCA0108951F920F920FB60F926F
:101A900011242F933F934F935F936F937F938F9373
:101AA0009F93AF93BF93EF93FF938091DD0287FFE6
:101AB00005C010928500109284001AC02091DD02AA
:101AC000332727FD30958091DC0290E028173907F5
:101AD0007CF48091DD02992787FD9095FC01EE0F43
:101AE000FF1FE80FF91FE252FD4F808187FD15C0EF
:101AF0008091DD028F5F8093DD022091DD0233272C
:101B000027FD30958091DC0290E028173907BCF45E
:101B10008091DD028C305CF112C08091DD0299274A
:101B200087FD9095FC01EE0FFF1FE80FF91FE252B1
:101B3000FD4F808160E08F770E94C50FD9CF8091E3
:101B4000840090918500049680349C4918F480E4C8
:101B50009CE905C080918400909185000496909343
:101B60008900809388008FEF8093DD0238C0209138
:101B70008400309185008091DD02992787FD909542
:101B8000FC01EE0FFF1FE80FF91FE252FD4F8181AC
:101B90009281820F931F9093890080938800809197
:101BA000DD02992787FD9095FC01EE0FFF1FE80FDE
:101BB000F91FE252FD4F808187FF11C08091DD0245
:101BC000992787FD9095FC01EE0FFF1FE80FF91F85
:101BD000E252FD4F808161E08F770E94C50FFF9137
:101BE000EF91BF91AF919F918F917F916F915F9195
:101BF0004F913F912F910F900FBE0F901F9018950E
:101C00001F920F920FB60F9211242F933F938F9331
:101C10009F93AF93BF938091030390910403A0918E
:101C20000503B09106033091020323E0230F2D3703
:101C300020F40196A11DB11D05C026E8230F0296D0
:101C4000A11DB11D2093020380930303909304030D
:101C5000A0930503B09306038091070390910803B6
:101C6000A0910903B0910A030196A11DB11D8093B3
:101C7000070390930803A0930903B0930A03BF914D
:101C8000AF919F918F913F912F910F900FBE0F9029
:101C90001F9018952FB7F894609103037091040377
:101CA00080910503909106032FBF08953FB7F894E4
:101CB0008091070390910803A0910903B0910A0352
:101CC00026B5A89B05C02F3F19F00196A11DB11D97
:101CD0003FBF6627782F892F9A2F620F711D811DB4
:101CE000911D42E0660F771F881F991F4A95D1F713
:101CF0000895CF92DF92EF92FF92CF93DF936B0123
:101D00007C010E94560EEB01C114D104E104F104E0
:101D100089F00E94BA120E94560E6C1B7D0B683E21
:101D2000734090F381E0C81AD108E108F108C85166
:101D3000DC4FEACFDF91CF91FF90EF90DF90CF9013
:101D400008958230910538F0880F991F880F991FE8
:101D500005970197F1F70895789484B5826084BD62
:101D600084B5816084BD85B5826085BD85B581609F
:101D700085BDEEE6F0E0808181608083E1E8F0E0FF
:101D80001082808182608083808181608083E0E82E
:101D9000F0E0808181608083E1EBF0E0808184600D
:101DA0008083E0EBF0E0808181608083EAE7F0E00F
:101DB0008081846080838081826080838081816073
:101DC00080838081806880831092C10008958E3066
:101DD00008F08E5087702091260190E4299F900191
:101DE0001124822B80937C0080917A008064809300
:101DF0007A0080917A0086FDFCCF80917800209156
:101E0000790090E0922B08951F93CF93DF93182FC2
:101E1000EB0161E00E948C0F209711F460E004C098
:101E2000CF3FD10539F461E0812FDF91CF911F9130
:101E30000C94C50FE12FF0E0EA57FF4FE491E33037
:101E4000F9F048F4E130B9F0E230A1F584B58062F0
:101E500084BDC8BD34C0E730E9F0E83019F1E430A2
:101E600049F580918000806280938000D0938B0040
:101E7000C0938A0024C084B5806884BDC7BD1FC0DC
:101E800080918000806880938000D0938900C09307
:101E9000880015C08091B00080688093B000C09326
:101EA000B3000DC08091B00080628093B000C093F9
:101EB000B40005C0C038D1050CF0B5CFAFCFDF916D
:101EC000CF911F910895833081F028F4813099F0EB
:101ED0008230A1F008958730A9F08830B9F08430BD
:101EE000D1F4809180008F7D03C0809180008F7736
:101EF00080938000089584B58F7702C084B58F7D6C
:101F000084BD08958091B0008F7703C08091B000A8
:101F10008F7D8093B0000895CF93DF9390E0FC0114
:101F2000E656FF4F2491FC01E255FF4F8491882330
:101F300049F190E0880F991FFC01EA52FF4FA591EB
:101F4000B49184539F4FFC01C591D4919FB7611107
:101F500008C0F8948C91209582238C9388818223E9
:101F60000AC0623051F4F8948C91322F309583235B
:101F70008C938881822B888304C0F8948C91822B67
:101F80008C939FBFDF91CF9108950F931F93CF93B1
:101F9000DF931F92CDB7DEB7282F30E0F901EA5763
:101FA000FF4F8491F901E656FF4F1491F901E25574
:101FB000FF4F04910023C9F0882321F069830E9418
:101FC000630F6981E02FF0E0EE0FFF1FE453FF4F36
:101FD000A591B4919FB7F8948C91611103C01095AD
:101FE000812301C0812B8C939FBF0F90DF91CF91F4
:101FF0001F910F910895CF93DF93282F30E0F901BF
:10200000EA57FF4F8491F901E656FF4FD491F90149
:10201000E255FF4FC491CC2391F081110E94630FD0
:10202000EC2FF0E0EE0FFF1FEE53FF4FA591B491A0
:102030002C912D2381E090E021F480E002C080E02B
:1020400090E0DF91CF910895FC01818D228D90E089
:10205000805C9F4F821B91098F7399270895FC0123
:10206000918D828D981731F0828DE80FF11D858D4D
:1020700090E008958FEF9FEF0895FC01918D828D80
:10208000981761F0828DDF01A80FB11D5D968C91CC
:10209000928D9F5F9F73928F90E008958FEF9FEFD7
:1020A000089581EC91E1892B49F080E090E0892B43
:1020B00029F00E94C11181110C9400000895FC01C7
:1020C000848DDF01A80FB11DA35ABF4F2C91848DC1
:1020D00090E001968F739927848FA689B7892C93F6
:1020E000A089B1898C9180648C93938D848D981391
:1020F00006C00288F389E02D80818F7D808308955A
:10210000CF93DF93EC01888D8823C9F0EA89FB899E
:10211000808185FD05C0A889B9898C9186FD0FC095
:102120000FB607FCF5CF808185FFF2CFA889B9896A
:102130008C9185FFEDCFCE010E945F10E7CFDF913C
:10214000CF910895CF92DF92FF920F931F93CF9379
:10215000DF931F92CDB7DEB76C0181E0D6015896B0
:102160008C9358975B969C915B975C968C915C974F
:10217000981307C05096ED91FC915197808185FD91
:102180002EC0F601038D10E00F5F1F4F0F73112754
:10219000F02EF601848DF81211C00FB607FCF9CFAE
:1021A000D6015096ED91FC915197808185FFF1CF3A
:1021B000C60169830E945F106981EBCF838DE80FB0
:1021C000F11DE35AFF4F6083D6015B960C935B973A
:1021D0005296ED91FC915397808180620CC0D6019C
:1021E0005696ED91FC91579760835096ED91FC9136
:1021F000519780818064808381E090E00F90DF912F
:10220000CF911F910F91FF90DF90CF900895BF92D3
:10221000CF92DF92EF92FF92CF93DF93EC016A01AE
:102220007B01B22EE889F98982E08083411581EE35
:10223000580761057105A1F060E079E08DE390E059
:10224000A70196010E943C1521503109410951090D
:102250005695479537952795211580E1380798F0D1
:10226000E889F989108260E874E88EE190E0A701BE
:1022700096010E943C15215031094109510956959A
:10228000479537952795EC85FD853083EE85FF854D
:102290002083188EEC89FD89B082EA89FB898081D0
:1022A00080618083EA89FB89808188608083EA89F4
:1022B000FB89808180688083EA89FB8980818F7DAA
:1022C0008083DF91CF91FF90EF90DF90CF90BF9010
:1022D00008951F920F920FB60F9211242F938F9390
:1022E0009F93EF93FF93E0911B03F0911C03808178
:1022F000E0912103F091220382FD12C09081809130
:1023000024038F5F8F7320912503821751F0E09192
:102310002403F0E0E55FFC4F958F8093240301C018
:102320008081FF91EF919F918F912F910F900FBE20
:102330000F901F9018951F920F920FB60F921124B5
:102340002F933F934F935F936F937F938F939F93BD
:10235000AF93BF93EF93FF938BE093E00E945F10E6
:10236000FF91EF91BF91AF919F918F917F916F916D
:102370005F914F913F912F910F900FBE0F901F9043
:1023800018958BE093E00E94241021E0892B09F43A
:1023900020E0822F089510920E0310920D0388EE14
:1023A00093E0A0E0B0E080930F0390931003A0931C
:1023B0001103B093120386E591E090930C03809390
:1023C0000B0385EC90E0909318038093170384EC43
:1023D00090E090931A038093190380EC90E090931F
:1023E0001C0380931B0381EC90E090931E03809369
:1023F0001D0382EC90E09093200380931F0386ECF2
:1024000090E0909322038093210310922403109272
:1024100025031092260310922703089508950E9421
:10242000AC0E0E940E120E94B503C1E5D0E10E94DD
:1024300019072097E1F30E945110F9CFCF92DF9254
:10244000EF92FF920F931F93CF93DF936C017A016A
:10245000EB01E60EF71E00E010E0CE15DF0561F09F
:102460006991D601ED91FC910190F081E02DC601BA
:102470000995080F191FF1CFC801DF91CF911F9166
:102480000F91FF90EF90DF90CF9008956115710547
:1024900081F0DB010D900020E9F7AD0141505109B9
:1024A000461B570BDC01ED91FC910280F381E02D7E
:1024B000099480E090E0089562E671E00C94461281
:1024C0000F931F93CF93DF93EC010E9446128C0170
:1024D000CE010E945C12800F911FDF91CF911F915E
:1024E0000F910895611571058105910511F00C9406
:1024F00005160895CF93DF9300D000D0CDB7DEB797
:102500009B01AC01611571058105910569F0698335
:102510003A834B835C830E94001629813A814B8168
:102520005C810E945E1503C060E070E0CB010F90FB
:102530000F900F900F90DF91CF910895CF92DF927F
:10254000EF92FF926B017C01621773078407950776
:1025500064F4CA01B9016C197D098E099F090E94B2
:102560007A126C0D7D1D8E1D9F1DFF90EF90DF90E8
:10257000CF90089508955058BB27AA270ED07BC14D
:102580006CD130F071D120F031F49F3F11F41EF482
:102590003CC10EF4E095E7FB24C1E92F7DD180F327
:1025A000BA17620773078407950718F071F49EF550
:1025B00095C10EF4E0950B2EBA2FA02D0B01B90199
:1025C00090010C01CA01A0011124FF27591B99F0A9
:1025D000593F50F4503E68F11A16F040A22F232FB5
:1025E000342F4427585FF3CF469537952795A79505
:1025F000F0405395C9F77EF41F16BA0B620B730BAC
:10260000840BBAF09150A1F0FF0FBB1F661F771F1C
:10261000881FC2F70EC0BA0F621F731F841F48F4D1
:10262000879577956795B795F7959E3F08F0B3CF57
:102630009395880F08F09927EE0F97958795089541
:102640000CD019C111D140F008D130F021F45F3F16
:1026500019F0C7C0511143C1D8C01ED198F39923B6
:10266000C9F35523B1F3951B550BBB27AA27621756
:102670007307840738F09F5F5F4F220F331F441F9B
:10268000AA1FA9F333D00E2E3AF0E0E830D09150D3
:102690005040E695001CCAF729D0FE2F27D0660FC0
:1026A000771F881FBB1F261737074807AB07B0E8FF
:1026B00009F0BB0B802DBF01FF2793585F4F2AF015
:1026C0009E3F510568F08DC00AC15F3FECF3983E14
:1026D000DCF3869577956795B795F7959F5FC9F772
:1026E000880F911D9695879597F90895E1E0660FFB
:1026F000771F881FBB1F621773078407BA0720F074
:10270000621B730B840BBA0BEE1F88F7E0950895DC
:10271000CBD088F09F5790F0B92F9927B751A0F0F0
:10272000D1F0660F771F881F991F1AF0BA95C9F765
:1027300012C0B13081F0D2D0B1E00895CFC0672F80
:10274000782F8827B85F39F0B93FCCF38695779515
:102750006795B395D9F73EF49095809570956195FE
:102760007F4F8F4F9F4F0895E89409C097FB3EF429
:1027700090958095709561957F4F8F4F9F4F9923CE
:10278000A9F0F92F96E9BB279395F695879577954C
:102790006795B795F111F8CFFAF4BB0F11F460FF0C
:1027A0001BC06F5F7F4F8F4F9F4F16C0882311F064
:1027B00096E911C0772321F09EE8872F762F05C078
:1027C000662371F096E8862F70E060E02AF09A9513
:1027D000660F771F881FDAF7880F9695879597F908
:1027E000089597F99F6780E870E060E008959F3F43
:1027F00031F0915020F4879577956795B795880FBC
:10280000911D9695879597F908959FEF80EC08950F
:10281000DF93CF931F930F93FF92EF92DF927B0191
:102820008C01689405C0DA2EEF016BD0FE01E894AC
:10283000A5912591359145915591AEF3EF01ADDE0E
:10284000FE019701A801DA9479F7DF90EF90FF90ED
:102850000F911F91CF91DF91089500240A941616CD
:10286000170618060906089500240A94121613067E
:10287000140605060895092E0394000C11F488230C
:1028800052F0BB0F40F4BF2B11F460FF04C06F5F28
:102890007F4F8F4F9F4F089557FD9058440F551FFE
:1028A00059F05F3F71F04795880F97FB991F61F0D2
:1028B0009F3F79F087950895121613061406551F49
:1028C000F2CF4695F1DF08C0161617061806991FB5
:1028D000F1CF86957105610508940895E894BB27AA
:1028E00066277727CB0197F908950BD0C4CFB5DFC2
:1028F00028F0BADF18F0952309F073CF86CF1124A2
:10290000EECFCADFA0F3959FD1F3950F50E0551F8E
:10291000629FF001729FBB27F00DB11D639FAA2734
:10292000F00DB11DAA1F649F6627B00DA11D661F83
:10293000829F2227B00DA11D621F739FB00DA11DA4
:10294000621F839FA00D611D221F749F3327A00D5E
:10295000611D231F849F600D211D822F762F6A2FFA
:1029600011249F5750408AF0E1F088234AF0EE0F7F
:10297000FF1FBB1F661F771F881F91505040A9F78C
:102980009E3F510570F02DCFAACF5F3FECF3983EEC
:10299000DCF3869577956795B795F795E7959F5FF3
:1029A000C1F7FE2B880F911D9695879597F908958D
:1029B0009F9305D00F9007FCEE5F28C026CF74DFF1
:1029C000E8F3E894E0E0BB279F57F0F02AED3FE002
:1029D00049EC06C0EE0FBB0F661F771F881F28F05B
:1029E000B23A62077307840728F0B25A620B730B7E
:1029F000840BE3959A9572F7803830F49A95BB0F63
:102A0000661F771F881FD2F79048F3CEEF93E0FF41
:102A100006C0A2EA2AED3FE049EC5FEBBEDD2BDF0A
:102A20000F90039401FC9058E8E6F0E000C09F93FB
:102A30008F937F936F93FF93EF939B01AC0155DFCF
:102A4000EF91FF91E5DE2F913F914F915F914DCF37
:102A500097FB072E16F4009407D077FD09D00E944B
:102A6000881507FC05D03EF4909581959F4F0895F9
:102A7000709561957F4F0895A1E21A2EAA1BBB1B8A
:102A8000FD010DC0AA1FBB1FEE1FFF1FA217B3073A
:102A9000E407F50720F0A21BB30BE40BF50B661F50
:102AA000771F881F991F1A9469F760957095809514
:102AB00090959B01AC01BD01CF010895052E97FBB8
:102AC0001EF400940E94751557FD07D00E943C1516
:102AD00007FC03D04EF40C94751550954095309535
:102AE00021953F4F4F4F5F4F08959095809570957A
:102AF00061957F4F8F4F9F4F08950E94A215A59F0C
:102B0000900DB49F900DA49F800D911D11240895E8
:102B1000AA1BBB1B51E107C0AA1FBB1FA617B70703
:102B200010F0A61BB70B881F991F5A95A9F780951F
:102B30009095BC01CD010895EE0FFF1F0590F49113
:102B4000E02D0994A29FB001B39FC001A39F700D17
:102B5000811D1124911DB29F700D811D1124911DA5
:102B600008958F929F92AF92BF92CF92DF92EF9291
:102B7000FF92CF93DF93EC01688179818A819B81F9
:102B8000611571058105910521F464E279ED8BE50C
:102B900097E02DE133EF41E050E00E945E154901DE
:102BA0005A019B01AC01A7EAB1E40E947D156B01BB
:102BB0007C01ACEEB4EFA50194010E943716C60E5D
:102BC000D71EE81EF91EF7FE06C081E0C81AD1081C
:102BD000E10880E8F80AC882D982EA82FB82C7014C
:102BE000B6019F77DF91CF91FF90EF90DF90CF906C
:102BF000BF90AF909F908F9008950E94B115089557
:102C000086E091E00E94B1150895609306017093EB
:102C1000070180930801909309010895FC0188271A
:102C20009927E89421912032E9F3293010F02E30D1
:102C3000C8F32B3241F02D3239F4689404C00E945D
:102C40002C16820F911D219120532A30C0F31EF4BF
:102C5000909581959F4F08957AE0979F902D879F3B
:102C6000802D910D11240895B7FF0C947D150E94BD
:0C2C70007D15821B930B0895F894FFCF94
:102C7C000000A80380000100000001009600000085
:102C8C000A0905060000000000000000000000001A
:102C9C000000000000000156455200776565656232
:102CAC006F746D696E695F415F31004C4641004F36
:102CBC004B004C46004C4F00425A005247420049D0
:102CCC00520000000000A2101E1224103D102F1004
:102CDC0080100D0A006E616E00696E66006F76667C
:042CEC00002E0000B6
:00000001FF
