:100000000C949F000C94C7000C94C7000C94C7007C
:100010000C94C7000C94C7000C94C7000C9493195F
:100020000C94C7000C94C7000C94C7000C94742A5D
:100030000C94C7000C94C7000C94C7000C94C70024
:100040000C94682C0C94C7000C94D12F0C940330A2
:100050000C94C7000C94C7000C94C7000C94C70004
:100060000C94C7000C94C700084AD73B3BCE016EE6
:1000700084BCBFFDC12F3D6C74319ABD56833DDAFF
:100080003D00C77F11BED9E4BB4C3E916BAAAABE0E
:10009000000000803F000000000800020100000393
:1000A0000407000000000000000001020408102006
:1000B00040800102040810200102040810200404FA
:1000C0000404040404040202020202020303030300
:1000D00003030000000023002600290000000000A8
:1000E000250028002B0000000000240027002A0023
:1000F0006364696E6F70737578585B004E414E494A
:100100004E495459494E46CDCCCC3D0AD7233C17D5
:10011000B7D13877CC2B329595E6241FB14F0A0022
:100120000020410000C84200401C4620BCBE4CCA12
:100130001B0E5AAEC59D7400090E3330AD0E11244E
:100140001FBECFEFD8E0DEBFCDBF11E0A0E0B1E031
:10015000E8E0FBE702C005900D92AC39B107D9F792
:1001600024E0ACE9B1E001C01D92A53BB207E1F784
:1001700011E0CCE3D1E004C02297FE010E94F936E1
:10018000C833D107C9F70E9477300C94773D0C949F
:10019000000061E088E193E00E94D11460E070E02B
:1001A00088E193E00E94171562E088E193E00E94E5
:1001B000D11460E070E088E193E00C9417154AE0F8
:1001C00050E062E070E08CE094E00C94843181E0D7
:1001D000809380008BE0809381000895CF93DF931C
:1001E000EEE1F2E0C0E0D0E04191242F30E02817AA
:1001F0003907C9F0411110C0FE01E25EFD4F808356
:100200009E01220F331F2C0F3D1FBC01C9018E5DC3
:100210009D4F0E94CA2B07C02196C430D10521F7FB
:1002200080E090E001C0CE01DF91CF910895EF9280
:10023000FF920F931F93CF93DF93EB01FC0160813B
:10024000613401F5FF92EF921F930F933F932F9329
:100250005F934F93DF93CF932BE331E03F932F9343
:100260009F938F930E948A38888199810E969983F3
:1002700088838DB79EB70E960FB6F8949EBF0FBEBB
:100280008DBF1AC0FF92EF921F930F933F932F934E
:100290005F934F93DF93CF932CE331E03F932F9302
:1002A0009F938F930E948A388DB79EB70E960FB694
:1002B000F8949EBF0FBE8DBFDF91CF911F910F911C
:1002C000FF90EF900895DC01ED91FC9111979F0153
:1002D0002F5F3F4F2D933C9320812032A1F708954B
:1002E000EF92FF920F931F93CF93DF93CDB7DEB7BB
:1002F0002C970FB6F894DEBF0FBECDBF9C878B87BF
:10030000CE010B960E946301CE0101967C018E0105
:100310000D5F1F4F9E012B5F3F4FAE01495F5F4F47
:10032000BE01675F7F4F8B859C850E9417016985A1
:1003300086EF92E00E94442709812B814D816F81D5
:1003400086EF92E00E94882786EF92E00E94DA27EB
:100350002C960FB6F894DEBF0FBECDBFDF91CF91C4
:100360001F910F91FF90EF900895EF92FF920F93DE
:100370001F93CF93DF93CDB7DEB72C970FB6F894CA
:10038000DEBF0FBECDBF9C878B87CE010B960E9430
:100390006301CE0101967C018E010D5F1F4F9E010E
:1003A0002B5F3F4FAE01495F5F4FBE01675F7F4FDD
:1003B0008B859C850E941701698583EE92E00E94DF
:1003C0001A2809812B814D816F8183EE92E00E9472
:1003D0001C2883EE92E00E944F282C960FB6F894CA
:1003E000DEBF0FBECDBFDF91CF911F910F91FF9068
:1003F000EF900895CF93DF93EC010E946301888111
:100400009981DF91CF910C943738CF93DF9300D04F
:10041000CDB7DEB79A838983CE0101960E94FA0197
:10042000682F88E193E00E94D114CE0101960E94CA
:10043000FA01BC0188E193E00E9417150F900F901C
:10044000DF91CF910895CF93DF9300D0CDB7DEB782
:100450009A838983CE0101960E94FA01682F8EE06B
:1004600093E00E943A10CE0101960E94FA01BC016D
:100470008EE093E00E945F100F900F90DF91CF917C
:100480000895EF92FF920F931F93CF93DF9300D0C5
:10049000CDB7DEB79A838983CE0101960E94FA0117
:1004A0007C01CE0101960E94FA018C01C7010E94D5
:1004B000EE00053B110558F49C01220F331F280F55
:1004C000391FB801C9018E5D9D4F0E94032C0F900A
:1004D0000F90DF91CF911F910F91FF90EF900895B2
:1004E000CF93DF9300D0CDB7DEB79A83898362E0E4
:1004F00088E193E00E94D114CE0101960E94FA0196
:10050000BC0188E193E00E94171561E088E193E067
:100510000E94D114CE0101960E94FA01BC0188E12B
:1005200093E00E9417150F900F90DF91CF910895DF
:100530001F93CF93DF9300D0CDB7DEB79A83898323
:10054000CE0101960E94FA01182F60E00E94F42D5E
:10055000812F0E944F2D4AE050E0BC018CE094E0D6
:100560000E9484310F900F90DF91CF911F910895D9
:100570001F93CF93DF9300D0CDB7DEB79A838983E3
:10058000CE0101960E94FA01182F60E00E94F42D1E
:10059000812F0E944F2D4AE050E0BC018CE094E096
:1005A0000E9484310F900F90DF91CF911F91089599
:1005B000CF93DF9300D0CDB7DEB79A838983CE0186
:1005C00001960E94FA01682F8FEF92E00E949D2809
:1005D0008FEF92E00E949F28AB01BC0122E030E047
:1005E0008CE094E00E94C1320F900F90DF91CF9188
:1005F00008950F931F93CF93DF9300D0CDB7DEB74D
:100600009A838983CE0101960E94FA018C01CE0162
:1006100001960E94FA019C01442737FD4095542F12
:10062000B8018DED92E00E9427130F900F90DF919B
:10063000CF911F910F910895CF93DF9300D0CDB745
:10064000DEB79A838983CE0101960E94FA01682F52
:1006500084E493E00E949D2984E493E00E949F2912
:10066000AB01BC0122E030E08CE094E00E94C1329A
:100670000F900F90DF91CF910895CF93DF9300D02B
:10068000CDB7DEB79A838983CE0101960E94FA0125
:10069000682F81E593E00E94772881E593E00E942E
:1006A0007C284AE050E0BC018CE094E00E94C0311C
:1006B0000F900F90DF91CF9108950F931F93CF93D9
:1006C000DF9300D000D01F92CDB7DEB79A83898325
:1006D000CE0101960E94FA01682FCE0101966D832A
:1006E0000E94FA01182FCE0101960E94FA01482FAC
:1006F000CE0101964C830E94FA01282FCE0101966B
:100700002B830E94FA01082F6D8182E593E00E94FD
:10071000541B2B814C81612F82E593E00E949F1B2B
:100720000F900F900F900F900F90DF91CF911F912E
:100730000F9108950F931F93CF93DF9300D000D0B4
:100740001F92CDB7DEB79A838983CE0101960E94AE
:10075000FA01682FCE0101966D830E94FA01182FCD
:10076000CE0101960E94FA01482FCE0101964C83DA
:100770000E94FA01282FCE0101962B830E94FA01D4
:10078000082F6D8184E493E00E949D292B814C8188
:10079000612F84E493E00E941A2A0F900F900F902B
:1007A0000F900F90DF91CF911F910F910895FF92BD
:1007B0000F931F93CF93DF9300D01F92CDB7DEB777
:1007C0009A838983CE0101960E94FA01682FCE0197
:1007D00001966B830E94FA01F82ECE0101960E94C9
:1007E000FA018C016B8182E593E00E94541B41E089
:1007F000012B09F440E06F2D82E593E00E94E51B98
:100800000F900F900F90DF91CF911F910F91FF905C
:100810000895FF920F931F93CF93DF9300D01F9201
:10082000CDB7DEB79A838983CE0101960E94FA0183
:10083000682FCE0101966B830E94FA01F82ECE013B
:1008400001960E94FA018C016B8184E493E00E947E
:100850009D2941E0012B09F440E06F2D84E493E0F1
:100860000E942E2A0F900F900F90DF91CF911F9131
:100870000F91FF9008950F931F93CF93DF9300D0B4
:100880001F92CDB7DEB79A838983CE0101960E946D
:10089000FA01682FCE0101966B830E94FA018C0148
:1008A0006B818EE393E00E94E5218EE393E00E944A
:1008B000E7218EE393E00130110519F40E94002234
:1008C00002C00E941F224AE050E0682F8CE094E0B2
:1008D0000E94A9310F900F900F90DF91CF911F913F
:1008E0000F910895FF920F931F93CF93DF9300D042
:1008F00000D0CDB7DEB79A838983CE0101960E94DE
:10090000FA01682FCE0101966C830E94FA01F82E3D
:10091000CE0101960E94FA01482FCE0101964B8329
:100920000E94FA018C016C8183E293E00E94851C95
:1009300021E04B81012B09F420E06F2D83E293E04D
:100940000E94321E0F900F900F900F90DF91CF9169
:100950001F910F91FF9008951F93CF93DF9300D0C5
:1009600000D0CDB7DEB79A838983CE0101960E946D
:10097000FA01682FCE0101966C830E94FA01182FAC
:10098000CE0101960E94FA01482FCE0101964B83B9
:100990000E9463016C8183E293E00E94851C29819F
:1009A0003A814B81612F83E293E00E94D81D0F9022
:1009B0000F900F900F90DF91CF911F9108959F920C
:1009C000AF92BF92CF92DF92EF92FF920F931F935D
:1009D000CF93DF93CDB7DEB760970FB6F894DEBF45
:1009E0000FBECDBF988B8F878E01015F1F4FC8014F
:1009F0000E94FA01982EC8010E94FA01D82EC8015F
:100A00000E94FA01C82ECE0101967C015C01C8014A
:100A10000E94FA01F70181937F01E017F107B9F70E
:100A2000692D83E293E00E94851C95014C2D6D2D6C
:100A300083E293E00E94A71C60960FB6F894DEBF95
:100A40000FBECDBFDF91CF911F910F91FF90EF901F
:100A5000DF90CF90BF90AF909F9008951F93CF935A
:100A6000DF9300D01F92CDB7DEB79A838983CE0182
:100A700001960E94FA01682FCE0101966B830E94B5
:100A8000FA01182FCE0101960E94FA01482F6B81BE
:100A900083E293E04B830E94851C4B81612F83E2AC
:100AA00093E00E94581D0F900F900F90DF91CF910F
:100AB0001F9108951F93CF93DF9300D01F92CDB75E
:100AC000DEB79A838983CE0101960E94FA01682FCE
:100AD000CE0101966B830E94FA01182FCE01019678
:100AE0000E94FA01482F6B8183E293E04B830E94BE
:100AF000851C4B81612F83E293E00E947F1D0F9044
:100B00000F900F90DF91CF911F910895CF93DF93B6
:100B100000D0CDB7DEB79A838983CE0101960E94BB
:100B2000FA01682F83E293E00E94851C83E293E040
:100B30000E94871C0F900F90DF91CF9108951F9313
:100B4000CF93DF9300D0CDB7DEB79A838983CE01F0
:100B500001960E94FA01182FCE0101960E94FA0117
:100B6000682F812F0E942D2E0F900F90DF91CF9133
:100B70001F9108950F931F93CF93DF9300D01F927F
:100B8000CDB7DEB79A838983CE0101960E94FA0120
:100B9000682FCE0101966B830E94FA018C016B8154
:100BA0008CEC92E00E9462198CEC92E00E94641935
:100BB00060E08CEC92E0012B19F40E94881902C0CD
:100BC0000E947D194AE050E0BC018CE094E00E9454
:100BD000C0310F900F900F90DF91CF911F910F9127
:100BE0000895CF93DF9300D0CDB7DEB79A83898382
:100BF000CE0101960E94FA010E944F2D4AE050E07A
:100C0000BC018CE094E00E9484310F900F90DF9142
:100C1000CF9108950F931F93CF93DF9300D0CDB75B
:100C2000DEB79A838983CE0101960E94FA01182FBC
:100C3000CE0101960E94FA01082F61E0812F0E94E7
:100C4000F42D602F812F0E942D2E0F900F90DF9199
:100C5000CF911F910F910895CF93DF9300D0CDB71F
:100C6000DEB79A838983CE0101960E94FA01682F2C
:100C70008EED92E00E9489268EED92E00E948B26F6
:100C80004AE050E0682F8CE094E00E94A9310F9078
:100C90000F90DF91CF910895FF920F931F93CF9301
:100CA000DF9300D01F92CDB7DEB79A838983CE0140
:100CB00001960E94FA01682FCE0101966B830E9473
:100CC000FA01F82ECE0101960E94FA018C016B8187
:100CD00086EB92E00E94DB1041E0012B09F440E03A
:100CE0006F2D86EB92E00E94DD100F900F900F9019
:100CF000DF91CF911F910F91FF900895CF93DF93D4
:100D000000D0CDB7DEB79A838983CE0101960E94C9
:100D1000FA01682F85EA92E00E949F1385EA92E02B
:100D20000E9403140F900F90DF91CF9108950F93BD
:100D30001F93CF93DF9300D01F92CDB7DEB79A8376
:100D40008983CE0101960E94FA01682FCE01019697
:100D50006B830E94FA018C016B8185EA92E00E940C
:100D60009F1361E0012B09F460E085EA92E00E94A4
:100D700017140F900F900F90DF91CF911F910F914B
:100D800008951F93CF93DF9300D01F92CDB7DEB7A6
:100D90009A838983CE0101960E94FA01682FCE01C1
:100DA00001966B830E94FA01182F6B8185EA92E00D
:100DB0000E949F13612F85EA92E00E9434144AE05A
:100DC00050E0BC018CE094E00E94C0310F900F9085
:100DD0000F90DF91CF911F9108951F93CF93DF93D1
:100DE00000D01F92CDB7DEB79A838983CE010196DA
:100DF0000E94FA01682FCE0101966B830E94FA01CE
:100E0000182F6B818EE992E00E942716612F8EE9E0
:100E100092E00E9446164AE050E0682F8CE094E091
:100E20000E94A9310F900F900F90DF91CF911F91E9
:100E300008951F93CF93DF9300D01F92CDB7DEB7F5
:100E40009A838983CE0101960E94FA01682FCE0110
:100E500001966B830E94FA01182F6B8186E992E05C
:100E60000E941F1C612F86E992E00E943E1C4AE00E
:100E700050E0682F8CE094E00E94A9310F900F9011
:100E80000F90DF91CF911F9108951F93CF93DF9320
:100E900000D01F92CDB7DEB79A838983CE01019629
:100EA0000E94FA01682FCE0101966B830E94FA011D
:100EB000182F6B8186E892E00E947314612F86E8F8
:100EC00092E00E94B0144AE050E0BC018CE094E053
:100ED0000E94C0310F900F900F90DF91CF911F9122
:100EE00008951F93CF93DF9300D01F92CDB7DEB745
:100EF0009A838983CE0101960E94FA01682FCE0160
:100F000001966B830E94FA01182F6B8186E492E0B0
:100F10000E94A416612F86E492E00E940919AB0199
:100F2000BC0122E030E08CE094E00E94C1320F90DE
:100F30000F900F90DF91CF911F9108950F931F9302
:100F4000CF93DF9300D01F92CDB7DEB79A8389830A
:100F5000CE0101960E94FA01682FCE0101966B83A3
:100F60000E94FA018C016B818DE392E00E94B7260A
:100F700061E0012B09F460E08DE392E00E94B92664
:100F80000F900F900F90DF91CF911F910F910895C7
:100F90000F931F93CF93DF9300D01F92CDB7DEB78F
:100FA0009A838983CE0101960E94FA01682FCE01AF
:100FB00001966B830E94FA018C016B8189E392E0B8
:100FC0000E94512A61E0012B09F460E089E392E07C
:100FD0000E94532A0F900F900F90DF91CF911F9195
:100FE0000F910895CF93DF9300D0CDB7DEB79A83EA
:100FF0008983CE0101960E94FA01682F84E392E072
:101000000E94522284E392E00E94CE220F900F9021
:10101000DF91CF910895CF93DF9300D0CDB7DEB7A6
:101020009A838983CE0101960E94FA01682F84E396
:1010300092E00E94522284E392E00E94B8220F9034
:101040000F90DF91CF910895CF93DF9300D0CDB76C
:10105000DEB79A838983CE0101960E94FA01682F38
:1010600084E392E00E94522284E392E00E94A22252
:101070000F900F90DF91CF9108951F93CF93DF933F
:1010800000D01F92CDB7DEB79A838983CE01019637
:101090000E94FA01682FCE0101966B830E94FA012B
:1010A000182F6B8184E392E00E945222612F84E327
:1010B00092E00E94E4220F900F900F90DF91CF9169
:1010C0001F9108950F931F93CF93DF9300D01F922A
:1010D000CDB7DEB79A838983CE0101960E94FA01CB
:1010E000682FCE0101966B830E94FA018C016B81FF
:1010F00084E392E00E945222B80184E392E00E94CD
:1011000054220F900F900F90DF91CF911F910F916C
:1011100008951F93CF93DF9300D01F92CDB7DEB712
:101120009A838983CE0101960E94FA01682FCE012D
:1011300001966B830E94FA01182F6B8184E392E081
:101140000E945222612F84E392E00E947F220F903E
:101150000F900F90DF91CF911F9108951F93CF9320
:10116000DF9300D01F92CDB7DEB79A838983CE017B
:1011700001960E94FA01682FCE0101966B830E94AE
:10118000FA01182F6B818EE292E00E943D23612FBD
:101190008EE292E00E943F230F900F900F90DF911C
:1011A000CF911F9108951F93CF93DF9300D000D06C
:1011B000CDB7DEB79A838983CE0101960E94FA01EA
:1011C000682FCE0101966C830E94FA01182FCE0180
:1011D00001960E94FA01482FCE0101964B830E948E
:1011E00063016C818EE292E00E943D2329813A8165
:1011F0004B81612F8EE292E00E9456230F900F9058
:101200000F900F90DF91CF911F910895CF93DF93AF
:1012100000D0CDB7DEB79A838983CE0101960E94B4
:10122000FA01682F8EE292E00E943D238EE292E066
:101230000E9442230F900F90DF91CF910895CF939A
:10124000DF93EC010E94630188819981DF91CF9146
:101250000C943338CF92DF92EF92FF921F93CF938B
:10126000DF9300D0CDB7DEB79A838983CE01019694
:101270000E94FA01182FCE0101960E941F096B01EE
:101280007C01612F83E293E00E94851CB701A601D7
:1012900083E293E00E94711E0F900F90DF91CF9137
:1012A0001F91FF90EF90DF90CF900895CF92DF9243
:1012B000EF92FF921F93CF93DF9300D0CDB7DEB7AD
:1012C0009A838983CE0101960E94FA01182FCE01DC
:1012D00001960E941F096B017C01612F8BEB92E04C
:1012E0000E944F11B701A6018BEB92E00E9476118C
:1012F0000F900F90DF91CF911F91FF90EF90DF90B3
:10130000CF900895BF92CF92DF92EF92FF920F930A
:101310001F93CF93DF9300D01F92CDB7DEB79A8390
:101320008983CE0101960E94FA01182FCE01019601
:101330000E94FA01B82ECE0101960E94FA01482FB0
:10134000CE0101964B830E941F096B017C01612F26
:101350008EE292E00E943D23970186014B816B2D26
:101360008EE292E00E94CD230F900F900F90DF91BC
:10137000CF911F910F91FF90EF90DF90CF90BF9092
:101380000895882319F06CE471E002C061E571E012
:101390008CE094E00C94CF30CF93DF9300D0CDB7A6
:1013A000DEB79A838983CE0101960E94FA01682FE5
:1013B00082ED92E00E94551ACE0101960E94FA0138
:1013C000682F82ED92E00E94651A0E94C1090F9079
:1013D0000F90DF91CF9108951F93CF93DF9300D0AB
:1013E000CDB7DEB79A838983CE0101960E94FA01B8
:1013F000182F60E00E94F42D812F0E94632E21E0BF
:10140000892B09F020E0822F0E94C1090F900F90D4
:10141000DF91CF911F910895CF93DF9300D0CDB787
:10142000DEB79A838983CE0101960E94FA01682F64
:1014300082E593E00E94541B82E593E00E94561BD4
:1014400091E0811101C090E0892F0E94C1090F90A5
:101450000F90DF91CF910895CF93DF9300D0CDB758
:10146000DEB79A838983CE0101960E94FA01682F24
:1014700087EC92E00E944E2987EC92E00E9450296E
:1014800091E0811101C090E0892F0E94C1090F9065
:101490000F90DF91CF9108950F931F93CF93DF9318
:1014A00000D01F92CDB7DEB79A838983CE01019613
:1014B0000E94FA01682FCE0101966B830E94FA0107
:1014C0008C016B8186EB92E00E94DB1086EB92E050
:1014D0000E941411282F30E081E02017310709F015
:1014E00080E00E94C1090F900F900F90DF91CF9183
:1014F0001F910F910895CF93DF9300D0CDB7DEB742
:101500009A838983CE0101960E94FA01682F81EBAC
:1015100092E00E945B2681EB92E00E945D2691E0C2
:10152000811101C090E0892F0E94C1090F900F9096
:10153000DF91CF910895CF93DF9300D0CDB7DEB781
:101540009A838983CE0101960E94FA01682F8DE962
:1015500092E00E94BF218DE992E00E94C7210E9483
:10156000C1090F900F90DF91CF910895CF93DF9332
:1015700000D0CDB7DEB79A838983CE0101960E9451
:10158000FA01682F81E492E00E941E2981E492E032
:101590000E9420290E94C1090F900F90DF91CF91E6
:1015A0000895CF93DF9300D0CDB7DEB79A838983B8
:1015B000CE0101960E94FA01682F84E392E00E9416
:1015C000522284E392E00E940C2391E0811101C039
:1015D00090E0892F0E94C1090F900F90DF91CF9169
:1015E0000895EF92FF920F931F93CF93DF931F9273
:1015F000CDB7DEB78C0101960E9437388132910554
:1016000009F4C4C10CF082C08131910509F496C17E
:101610000CF041C08930910509F404C10CF5833008
:10162000910509F44FC174F48130910509F440C16A
:101630000CF043C1892B09F0FFC15CEEE52E59E0A7
:10164000F52ED1C18730910509F4E2C00CF0E5C058
:10165000059709F0F1C1EFEDEE2EE0E0FE2EC3C1DB
:101660008D30910509F44CC15CF48B30910509F47F
:10167000B6C10CF4DCC068EDE62E62E0F62EB3C114
:101680008F30910509F450C10CF053C17CE4E72E72
:101690007AE0F72EA8C18931910509F46DC1DCF417
:1016A0008531910509F459C15CF48331910509F440
:1016B0004AC10CF04DC137E9E32E36E0F32E8DC15F
:1016C0008731910509F44EC10CF051C1B9E1EB2EFF
:1016D000B7E0FB2E88C18D31910509F46BC15CF434
:1016E0008B31910509F44DC10CF05FC17EE9E72E05
:1016F00077E0F72E72C18F31910509F44CC10CF4DB
:101700004FC13BE0E32E38E0F32E67C185379105EA
:1017100009F4E2C00CF040C08D36910509F4A0C078
:1017200004F58532910509F44FC15CF483329105CB
:1017300009F445C10CF04DC151EDE52E5AE0F52EEE
:1017400052C18336910509F4AEC08636910509F47D
:101750007DC0869709F070C176E0E72E79E0F72E1C
:101760003CC18137910509F494C05CF48F36910532
:1017700009F485C00CF088C04CE1E42E43E0F42E5F
:1017800032C18337910509F489C00CF0A0C08CEAFE
:10179000E82E84E0F82E21C18D37910509F4A6C00A
:1017A000DCF48937910509F4B0C05CF48737910502
:1017B00009F497C00CF05EC07DE5E72E73E0F72ECC
:1017C0000CC18B37910509F4AAC00CF0A3C0BAEB89
:1017D000EB2EB5E0FB2E07C1883C910569F15CF466
:1017E0008F37910509F441C00CF485C0803891050C
:1017F00009F440C021C18A3C910569F114F18C3C87
:10180000910509F019C183E2E82E82E0F82EE5C0C7
:101810007CECE72E79E0F72EE6C048E9E42E42E0C2
:10182000F42EE1C030E7E32E31E0F32ED6C029EFED
:10183000E22E22E0F22ED1C095E0E92E92E0F92EC0
:10184000CCC0B0E7EB2EB2E0FB2EC7C0A9ECEA2E6D
:10185000A0E0FA2EC2C0F1E4EF2EF2E0FF2EBDC0F0
:10186000EAE9EE2EE3E0FE2EB8C069E0E62E64E081
:10187000F62EB3C057EDE52E53E0F52EAEC03BE398
:10188000E32E34E0F32EAFC02AE2E22E29E0F22E5E
:10189000A4C092E7E92E94E0F92E9FC0BFEDEB2E95
:1018A000B4E0FB2E9AC0AAEBEA2EADE0FA2E95C06A
:1018B000FEE2EF2EF5E0FF2E90C0EAE5EE2EE5E029
:1018C000FE2E8BC076E8E72E75E0F72E86C06DE31E
:1018D000E62E63E0F62E87C05CE0E52E5AE0F52E9A
:1018E00082C04FE9E42E45E0F42E77C03AE0E32EC3
:1018F00036E0F32E72C02CE2E22E26E0F22E73C008
:1019000095EBE92E91E0F92E68C08CE2E82E8AE092
:10191000F82E69C0A1EFEA2EA5E0FA2E64C0F6E524
:10192000EF2EF9E0FF2E59C06CE4E62E66E0F62EAD
:1019300054C05BE7E52E5AE0F52E55C04EE7E42E85
:1019400046E0F42E4AC021ECE22E26E0F22E4BC0F7
:101950009DEEE92E96E0F92E46C08BE9E82E8AE04E
:10196000F82E41C0A5E4EA2EA7E0FA2E3CC0F1E72C
:10197000EF2EF7E0FF2E37C0E6EBEE2EEAE0FE2E6C
:1019800032C068ECE62E67E0F62E27C042EFE42E68
:1019900047E0F42E22C024E2E22E28E0F22E1DC001
:1019A0009DE3E92E98E0F92E18C082E6E82E88E043
:1019B000F82E13C0B9E8EB2EB8E0FB2E0EC0AEEA4D
:1019C000EA2EA8E0FA2E09C0F3EDEF2EF8E0FF2E84
:1019D00004C0E2E8EE2EE9E0FE2E20E005C068EB50
:1019E000E62E62E0F62E21E0D8010D900020E9F706
:1019F000AD0141505109401B510BE0910C04F09195
:101A00000D040280F381E02DB8018CE094E029837D
:101A10000995C801F7010995298121110DC067E5D4
:101A200071E08CE094E00F90DF91CF911F910F91C6
:101A3000FF90EF900C94CF300F90DF91CF911F91DA
:101A40000F91FF90EF900895FC0120812D3411F447
:101A50000C94F10A089560E083E10E94F42D60E0A7
:101A600082E10E94F42D60E080E10E94F42D60E0AC
:101A70008FE00E94F42D61E083E00E94F42D61E08C
:101A80008EE00E94F42D61E084E00E94F42D61E07C
:101A90008DE00E94F42D82ED92E00C946C1A28EEF9
:101AA00033E040E050E066E271E08DED92E00E94AC
:101AB00027132CE231E040E050E06FEE71E08DED55
:101AC00092E00E94271326E040E052EC61E070E0D3
:101AD0008CE094E00E946F2F0C942B0DDF92EF921C
:101AE000FF920F931F93CF93DF93C2E6D3E00AE5F3
:101AF00011E0F3E0C636DF07A9F1EE24E394F12C00
:101B00008881811102C0E12CF12CF801D1908F0164
:101B10008D2D0E94632EE816F90611F18881882325
:101B200011F018821DC060E971E080E090E00E9431
:101B3000E12C6D2D8EE593E00E9432258EE593E039
:101B40000E944C2561E08EE593E00E94C3258EE55E
:101B500093E00E947A258EE593E00E942B268883ED
:101B60002196C7CFDF91CF911F910F91FF90EF90FA
:101B7000DF9008950F931F93CF93DF9380E090E061
:101B80000E94C90060E083E00E942D2E60E084E0A6
:101B90000E942D2E60E08EE00E942D2E60E08DE0F0
:101BA0000E942D2E0E946E0DCAE5D1E002E613E0E0
:101BB000F1E0CE35DF0741F1F80181918F018823F3
:101BC00009F18130A1F4688184E493E00E949D29A9
:101BD00020E040E060E084E493E00E940E2A20E0F0
:101BE00040E060E084E493E00E94142A0BC083305C
:101BF00049F4688183E293E00E94851C83E293E0CC
:101C00000E94871C2196D4CFDF91CF911F910F9115
:101C10000895CF93DF938EE593E00E94312560E035
:101C200082E593E00E94381B60E081E593E00E942A
:101C30007A2860E084E493E00E94812960E08EE3EA
:101C400093E00E94D12160E083E293E00E94811C36
:101C500060E088E193E00E94FD1460E08EE093E094
:101C60000E94461060E08FEF92E00E94872860E0BB
:101C700086EF92E00E94232760E083EE92E00E94CC
:101C8000FF2760E08EED92E00E94752667E08DED03
:101C900092E00E94241362E082ED92E00E94491AD1
:101CA00060E08CEC92E00E944E1960E087EC92E0DC
:101CB0000E943A2960E08BEB92E00E943B1160E0C9
:101CC00086EB92E00E94C71060E081EB92E00E94F8
:101CD000472660E085EA92E00E948B1360E08EE97F
:101CE00092E00E94131660E08DE992E00E94C52107
:101CF00060E086E992E00E940B1C60E086E892E0DA
:101D00000E94581460E086E492E00E94641660E04D
:101D100081E492E00E940A2960E08DE392E00E9453
:101D2000A32660E089E392E00E943D2A60E084E31C
:101D300092E00E943E2260E08EE292E00E94242324
:101D4000C2E2D2E0CE010E94302B239682E0CE3256
:101D5000D807C1F7DF91CF91089586EF92E00C94F8
:101D6000F3271F93CF93DF93C0E8D0E010E28CE01D
:101D700094E00E948C2E892B81F18CE094E00E94EB
:101D8000A52E20911C0230911D028A30C1F4C90198
:101D90000197FC01E456FE4F40814D3011F49C0147
:101DA000F6CFF901E456FE4F1083118210921D0206
:101DB00010921C028CE991E00E94240DD8CFF90109
:101DC000E456FE4F8083C9010196BE010E9483360E
:101DD00090931D0280931C02CACFDF91CF911F9177
:101DE000089582ED92E00E94091B0C94B10E0895B3
:101DF00070E0FB01E655FF4FE491DC01EC93FB0141
:101E0000E254FF4FE491F0E0EE0FFF1FEE52FF4F60
:101E100025913491FC013283218308951F93CF9340
:101E2000DF93FC011081C181D2819981812F80953E
:101E3000892389838A81812B8A838AE090E00E94AA
:101E4000092D9881912381E009F480E0DF91CF9101
:101E50001F910895FF920F931F93CF93DF93FC017F
:101E60001081C181D281F8948981F12EF0948F2163
:101E700089838A81812B8A8378940DE7015041F10F
:101E800082E090E00E94092D88818123B9F3F894C3
:101E90008A818F218A838981812B8983789480EE3E
:101EA00091E00E94092DF89489818F2189838A818C
:101EB000812B8A8386E490E00E94092D888181230A
:101EC00001E009F000E078948AE991E00E94092D90
:101ED000802FDF91CF911F910F91FF9008951F9355
:101EE000CF93DF93FC011081C181D281912F909516
:101EF00060FF12C0F8948A8189238A838981812BAB
:101F000089838AE090E00E94092D8A81812B8A834F
:101F1000789487E390E011C0F8948A8189238A83BA
:101F20008981812B898381E490E00E94092D8A8137
:101F3000812B8A83789485E090E0DF91CF911F9187
:101F40000C94092D0F931F93CF93DF93FC01108105
:101F5000C181D281F8948981812B89838A81012F63
:101F6000009580238A8383E090E00E94092D898177
:101F7000802389838A81812B8A838AE090E00E9472
:101F8000092DC881789485E390E00E94092D1C23D7
:101F900081E009F480E0DF91CF911F910F910895C6
:101FA000CF92DF92EF92FF920F931F93CF93DF9325
:101FB0001F92CDB7DEB76C01E62E08E010E0FF24DB
:101FC000F39461E09F2D9E2109F460E0C6014983EE
:101FD0000E946F0FFF0C0150110949810115110575
:101FE00081F741111DC0F894D6011196ED91FC9135
:101FF000129791818C918095892381831196ED911F
:10200000FC91129782819C91892B82831196ED918C
:10201000FC91129792818C91809589238283789488
:102020000F90DF91CF911F910F91FF90EF90DF9074
:10203000CF900895EF92FF920F931F93CF93DF936A
:102040008C01C8E0D0E0F12CEE24E394C8010E949A
:10205000A20F8111FE28EE0C2197C1F78F2DDF9181
:10206000CF911F910F91FF90EF90089540E06CEC9D
:102070000C94D00FCF93DF93EC010E9432258CE2B9
:1020800091E09F838E83DF91CF9108950F931F93EB
:10209000CF93DF931F92CDB7DEB78C0169830E9487
:1020A0003125F80117821682108611866981C801D0
:1020B0000F90DF91CF911F910F910C943A10CF9216
:1020C000DF92EF92FF92CF93DF93EC016F3F7105A8
:1020D00019F014F06FEF70E061308FEF780714F4AF
:1020E00061E07FEF8E819F818617970709F448C0D2
:1020F0007F836E836B01EE24D7FCE094FE2CCE012F
:1021000077FD14C00E944C2562E0CE010E94C325D9
:10211000CE010E944C25C701B6010E94813423E301
:1021200033E343E250E40E94E6331BC00E944C2597
:1021300062E0CE010E94C325CE010E944C25C7015A
:10214000B6010E94813423E333E343E250E40E946A
:10215000E6339B01AC0160E070E088EC92E40E9401
:102160001B330E945334CE010E94C32584EF91E0BB
:10217000DF91CF91FF90EF90DF90CF900C94092DDD
:10218000DF91CF91FF90EF90DF90CF9008950F9364
:102190001F93CF93DF931F92CDB7DEB78C01698376
:1021A0000E9431256981C8010F90DF91CF911F9165
:1021B0000F910C9432250C943225EF92FF921F93CD
:1021C000CF93DF931F92CDB7DEB77C01162F4983E3
:1021D0000E944C254981811120C0442311F063E005
:1021E00001C064E0C7010E94C325C7010E944C25BD
:1021F000811113C0112339F0115061E001C0660F45
:102200001A95EAF701C06FE0C7010F90DF91CF91F7
:102210001F91FF90EF900C94C3250F90DF91CF9109
:102220001F91FF90EF900895CF93DF93EC010E94F0
:102230004C2581111CC062E0CE010E94C325CE0155
:102240000E947A25CE010E942B268C838C818230BD
:1022500059F018F4813041F008C0843021F0883002
:1022600021F484E001C083E08C838C8101C080E094
:10227000DF91CF9108950F931F93CF93DF931F9218
:10228000CDB7DEB78C0169830E9431256981C80111
:102290000F90DF91CF911F910F910C9432250C94E8
:1022A0003225CF93DF93EC010E944C2581111BC096
:1022B00062E0CE010E94C325CE010E944C2581110F
:1022C00012C06C81CE010E94C3256D81CE010E9497
:1022D000C3256E81CE010E94C3256F81CE01DF919F
:1022E000CF910C94C325DF91CF9108952F923F9207
:1022F0004F925F926F927F928F929F92AF92BF9216
:10230000CF92DF92EF92FF920F931F93CF93DF93C1
:10231000CDB7DEB72F970FB6F894DEBF0FBECDBF97
:102320008C012A013B019A01AB01FC01608571859A
:10233000828593850E94E233882309F46CC1F801F9
:102340004086518662867386CE0101969C878B8774
:102350008AE0EB85FC8511928A95E9F720E03CE361
:102360004CE156E4C301B2010E94A93587FD04C0C7
:1023700089E0F80184830EC020E030EC49E754EC9A
:10238000C301B2010E94E233181644F080E1F80163
:10239000848389E0858386838783D3C020E030E00F
:1023A000A901C301B2010E94E233811107C080E498
:1023B000F8018483858386831782C3C020E030E0E0
:1023C000A901C301B2010E94E23387FF07C077FA77
:1023D000709477F87094F1E0FD8701C01D8620E0CD
:1023E00030E04AE754E4C301B2010E94E6330E94A0
:1023F00053346983C301B2010E944E349B01CB0167
:1024000068EE73E00E948336E4E6F0E0BF010E94CC
:1024100083366A83C901BF010E9483364AE0E42EF5
:10242000F12CB7010E9483366B83C901B7010E946A
:1024300083365C018C8320E030E040E251E4C3014C
:10244000B2010E94B4350E944E34CB01B7010E9404
:1024500083366C018D8320E030E048EC52E4C30108
:10246000B2010E94B4350E944E34CB01B7010E94E4
:1024700083364C018E8320E030E04AE754E4C30108
:10248000B2010E94B4350E944E34CB01B7010E94C4
:1024900083369F878E878F83212CE22CF12CE1E0FD
:1024A000F0E0EC0FFD1FEE0DFF1D3080311002C07B
:1024B0002394F3CF20E030E040E85FE3C301B201B2
:1024C0000E94A93587FD10C0A32CFE01EE0DFF1D53
:1024D000C280FE01EE0DFF1D8380FE01EE0DFF1D8B
:1024E000848124E0221907C0BB24DD2499248E8531
:1024F0009F85992721E03D85313059F480E1F8012D
:102500008483A582C6828782223051F02130C9F4AB
:102510000DC0F801A482C58286828783233021F40E
:102520008681806286830DC0223029F4F80185817E
:102530008062858306C0213021F4F80184818062A5
:102540008483F801848185FF0BC08581811141C09E
:10255000868181113EC08781882309F445C039C036
:10256000F801858185FF0AC0868181114DC0878170
:1025700081114AC0F80185818F703FC0F8018681C2
:1025800085FF0CC08781811109C086818F70878388
:10259000858186838481858380E48483C8012F9626
:1025A0000FB6F894DEBF0FBECDBFDF91CF911F9164
:1025B0000F91FF90EF90DF90CF90BF90AF909F90E2
:1025C0008F907F906F905F904F903F902F900C94E2
:1025D0005111F8018681811117C0F801878181119D
:1025E00013C0F801858109C0F80184818F70878349
:1025F00080E4848385838683D1CF878384818683A7
:1026000080E484838583CACFF80187818111C6CF96
:10261000F8018681BCCF2F960FB6F894DEBF0FBEAF
:10262000CDBFDF91CF911F910F91FF90EF90DF9081
:10263000CF90BF90AF909F908F907F906F905F9062
:102640004F903F902F9008956093660308954F92A6
:102650005F926F927F928F929F92AF92BF92CF9232
:10266000DF92EF92FF920F931F93CF93DF93690155
:102670007A019B0140E050E060E472E48FE090E07A
:102680000E94B936E901890137FF02C00F5F1F4F71
:102690001595079561E0809166030E94F42DA8EEE0
:1026A000B3E0A70196010E94D8364B015C01C12C12
:1026B000D12C76012E01662457FC6094762CC81428
:1026C000D904EA04FB04B0F461E0809166030E943F
:1026D0002D2EC8010E94092D60E0809166030E94A2
:1026E0002D2EC8010E94092DA895C40CD51CE61CEE
:1026F000F71CE5CFDF91CF911F910F91FF90EF90E5
:10270000DF90CF90BF90AF909F908F907F906F9011
:102710005F904F9008950F931F93CF93DF931F9275
:10272000CDB7DEB78C0169830E9431256981C8016C
:102730000F90DF91CF911F910F910C9432250C9443
:102740003225CF92DF92EF92FF920F931F93CF9398
:10275000DF93CDB7DEB728970FB6F894DEBF0FBE74
:10276000CDBF8C01CE0101967C0188E0F70111926A
:102770008A95E9F7C8010E944C25811135C062E0B5
:10278000C8010E94C325C8010E947A256E01F9E0A4
:10279000CF0ED11CC8010E942B26F70181937F0127
:1027A000EC15FD05B9F78A8190E0982F88272981DB
:1027B000822BF801958384838C8190E0982F882761
:1027C0002B81822B978386838E8190E0982F882798
:1027D0002D81822B91878087888590E0982F88278C
:1027E0002F81822B9387828728960FB6F894DEBFBD
:1027F0000FBECDBFDF91CF911F910F91FF90EF9052
:10280000DF90CF900895CF93DF93EC010E944C2589
:1028100081110AC064E0CE010E94C32588EB9BE0D1
:10282000DF91CF910C94092DDF91CF9108951F93E3
:10283000CF93DF93EC01162F0E944C25811110C01D
:1028400063E0CE010E94C325CE010E944C25811178
:1028500007C0612FCE01DF91CF911F910C94C3254A
:10286000DF91CF911F9108950F931F93CF93DF9323
:102870001F92CDB7DEB78C0169830E94A1136981D5
:10288000F801623039F0633041F0613049F48481FD
:10289000958108C08681978105C08085918502C099
:1028A000828593850F90DF91CF911F910F910895AD
:1028B0000F931F93CF93DF931F92CDB7DEB78C0199
:1028C00069830E943125F8011582148217821682CD
:1028D000118610866981C8010F90DF91CF911F91F9
:1028E0000F910C9432250C9432250F931F93CF93A4
:1028F000DF93EC010E944C2581112DC062E0CE01D6
:102900000E94C325CE010E947A2500E010E0CE018E
:102910000E942B26FE01E00FF11F82870F5F1F4FE1
:1029200006301105A1F78A8590E0982F88272B851E
:10293000822B9D838C838C8590E0982F88272D8512
:10294000822B9F838E838E8590E0982F88272F85FA
:10295000822B99878887DF91CF911F910F910895DE
:102960000F931F93CF93DF931F92CDB7DEB78C01E8
:1029700069830E9475146981662331F0613041F4E6
:10298000F8018681978107C0F8018481958103C091
:10299000F801808591850F90DF91CF911F910F9164
:1029A00008950F931F93CF93DF93EC01062F10E050
:1029B000000F111F065F1E4F633050F0F801608159
:1029C000CE010E943225F8018181898718860CC0CA
:1029D00061E0F80181810E94F42DF80180818D83EE
:1029E00081818C8381E088878CE291E09F838E8354
:1029F000DF91CF911F910F9108950F931F93CF9364
:102A0000DF931F92CDB7DEB78C0169830E94312519
:102A1000F801178216821086118612866981C80114
:102A20000F90DF91CF911F910F910C94D114EF92E1
:102A3000FF920F931F93CF93DF9300D0CDB7DEB7F4
:102A40007C01FC018285811109C069837A830E941F
:102A5000E70081E0F70182877A8169818B016F3F0E
:102A6000710519F014F00FEF10E00130FFEF1F07B0
:102A700014F401E01FEFF701868197818017910719
:102A800009F4C8C017830683808517FD4EC08130C6
:102A900079F58481873019F4848160E006C0F701FC
:102AA0008481883089F4848161E00E942D2EF701B1
:102AB0008581B8010F900F90DF91CF911F910F91F9
:102AC000FF90EF900C946C2DF7018481893029F0F0
:102AD000F7018481863009F09DC0848161E00E9405
:102AE0002D2EF70185816FEF70E0601B710BE2CF37
:102AF000C7010E944C2562E0C7010E94C325C7019F
:102B00000E944C25F7016185C7010E94C325B801C9
:102B1000882777FD8095982F0E94813420E030E04F
:102B200040E250E40E94E63364C08130F1F5F701E1
:102B30008481873061F4848161E00E942D2EF70149
:102B4000858166277727601B710B0E946C2DF7012A
:102B50008481883061F4848160E00E942D2EF70129
:102B6000858166277727601B710B0E946C2DF7010A
:102B70008481893059F4858161E00E942D2EF7010E
:102B80008481B80161507F4F0E946C2DF7018481D0
:102B9000863009F03FC0858161E00E942D2EF7014B
:102BA0008481B80161507F4F85CFC7010E944C25B9
:102BB00062E0C7010E94C325C7010E944C25F701AE
:102BC0006185C7010E94C325B801882777FD8095DC
:102BD000982F0E94813420E030E040E250E40E94CF
:102BE000E6339B01AC0160E070E088EC92E40E9467
:102BF0001B330E945334C7010E94C32584EF91E028
:102C00000F900F90DF91CF911F910F91FF90EF9058
:102C10000C94092D0F900F90DF91CF911F910F9180
:102C2000FF90EF9008950F931F93CF93DF931F9220
:102C3000CDB7DEB78C0169830E9431256981C80157
:102C40000F90DF91CF911F910F910C9432250C942E
:102C50003225CF93DF93EC010E944C25811113C0E4
:102C600062E0CE010E94C325CE010E947A25CE01EA
:102C70000E942B268C83CE010E942B268D83CE01B1
:102C80000E942B268E83DF91CF9108950F931F937F
:102C9000CF93DF931F92CDB7DEB78C0169830E947B
:102CA00029166981613029F0633031F4F801868199
:102CB00005C0F801848102C0F80185810F90DF9181
:102CC000CF911F910F9108951F93CF93DF93EC0144
:102CD000162F0E94312540E050E063E872E44C83F7
:102CE0005D836E837F83188619861A861B861C86F1
:102CF0001D861E861F86188A198A1A8A1B8A1C8AB4
:102D00001D8A1E8A1F8A188E198E1A8E1B8E1C8E83
:102D10001D8E1E8E1F8E19A218A21BA21AA21DA202
:102D20001CA21EA21FA218A619A61AA61BA61CA6A4
:102D30001DA61EA61FA618AA19AA612FCE01DF91F3
:102D4000CF911F910C9432250C9432252F923F92F3
:102D50004F925F926F927F928F929F92AF92BF92AB
:102D6000CF92DF92EF92FF920F931F93CF93DF9357
:102D7000CDB7DEB768970FB6F894DEBF0FBECDBFF4
:102D80001C010E94B22C4B015C01C0906703D090E3
:102D90006803E0906903F0906A030E94B22C60938C
:102DA0006703709368038093690390936A03C1017A
:102DB0000E944C25811114C262E0C1010E94C3250A
:102DC000C1010E947A2500E010E0C1010E942B267B
:102DD000F101E00FF11F82AB0F5F1F4F0E301105A5
:102DE000A1F7C501B4016C197D098E099F090E94E4
:102DF0007F3420E030E04AE754E40E94E6336B0180
:102E00007C01D101D2964C90D297512C542C442461
:102E1000D3968C91D397482A91965C924E92909734
:102E2000D4966C90D497712C762C6624D5968C9180
:102E3000D597682A93967C926E929297D6960C912B
:102E4000D69710E0102F0027D7968C91D797082B94
:102E500095961C930E93949714968D909D90AD909B
:102E6000BC901797DA966C91DA9770E0762F662708
:102E7000DB968C91682B882777FD8095982F0E9490
:102E80008134F10126A137A140A551A50E941B3331
:102E9000A50194010E94E6336D837E838F8398871A
:102EA000D10154966D937D938D939C935797DC96A7
:102EB0006C91DC9770E0762F6627DD968C91682BFD
:102EC000882777FD8095982F0E948134F10122A5F3
:102ED00033A544A555A50E941B33A50194010E946A
:102EE000E63369877A878B879C87D10158966D93E3
:102EF0007D938D939C935B97DE966C91DE9770E04B
:102F0000762F6627DF968C91682B882777FD809532
:102F1000982F0E948134F10126A537A540A951A917
:102F20000E941B33A50194010E94E6336D877E87C2
:102F30008F87988BD1015C966D937D938D939C9335
:102F40005F97B301882777FD8095982F0E94813481
:102F500069837A838B839C83B801882777FD80956A
:102F6000982F0E9481349B01AC010E94B435698B7B
:102F70007A8B8B8B9C8B29813A814B815C81CA0136
:102F8000B9010E94B43529893A894B895C890E942C
:102F90001C330E941B369B01AC01B201882777FDD0
:102FA0008095982F2D8B3E8B4F8B588F0E948134AC
:102FB0004B015C012D893E894F89588D0E948F33CA
:102FC00020E030E044E353E40E94B4352AED3FE0D2
:102FD00049E450E40E94E6332B013C01A501940131
:102FE000C501B4010E94B43529893A894B895C89AD
:102FF0000E941C330E941B369B01AC0169817A81BF
:103000008B819C810E948F3320E030E044E353E4C5
:103010000E94B4352AED3FE049E450E40E94E633D3
:103020004B015C01A701960169857A858B859C859A
:103030001016110624F50E94B4359B01AC01F10174
:1030400060857185828593850E941B33D101189616
:103050006D937D938D939C931B97A70196016D8132
:103060007E818F8198850E94B4359B01AC01F1016E
:1030700064857585868597850E941C3323C00E94D0
:10308000B4359B01AC01F101608571858285938522
:103090000E941C33D10118966D937D938D939C9360
:1030A0001B97A70196016D817E818F8198850E9473
:1030B000B4359B01AC01F1016485758586859785E2
:1030C0000E941B33D1011C966D937D938D939C932D
:1030D0001F97A70196016D857E858F8598890E942F
:1030E000B435F10120893189428953890E941C330A
:1030F0006B017C0120E030E044EB53E40E94E633B6
:103100000E94BC3420E030E044EB53E40E94B4352C
:103110009B01AC01C701B6010E941B336B017C010E
:1031200020E030E044E353E40E94A935181644F04F
:10313000D1015096CD92DD92ED92FC9253970DC045
:1031400020E030E044EB53E4C701B6010E941B339A
:10315000F101608B718B828B938B28E431EE4AE70F
:103160005FE3D1011C966D917D918D919C911F978C
:103170000E94B4356B017C012AE037ED43EA5CE341
:10318000C501B4010E94B4359B01AC01C701B60171
:103190000E941C33F101648775878687978728E42E
:1031A00031EE4AE75FE360857185828593850E94F1
:1031B000B4356B017C012AE037ED43EA5CE3C301DF
:1031C000B2010E94B4359B01AC01C701B6010E9457
:1031D0001C33D10118966D937D938D939C931B970F
:1031E00068960FB6F894DEBF0FBECDBFDF91CF91CA
:1031F0001F910F91FF90EF90DF90CF90BF90AF9015
:103200009F908F907F906F905F904F903F902F9006
:1032100008950F931F93CF93DF931F92CDB7DEB71F
:103220008C0169830E94A61669816230E1F050F436
:10323000662399F0613049F5F801608D718D828DBA
:10324000938D26C06430D9F0A0F06530F1F4F80118
:1032500060897189828993891BC0F80164897589A5
:103260008689978915C0F801648D758D868D978D37
:103270000FC0F801608571858285938509C0F801CA
:10328000648575858685978503C060E070E0CB0115
:103290000F90DF91CF911F910F9108950F931F937E
:1032A000CF93DF931F92CDB7DEB78C0169830E9465
:1032B00031256981C8010F90DF91CF911F910F9146
:1032C0000C9432250C943225CF93DF93EC010E94AD
:1032D0004C2581110FC062E0CE010E94C325CE01B2
:1032E0000E947A25CE010E942B268C83CE010E945B
:1032F0002B268D83DF91CF910895CF93DF93EC013F
:1033000061110E9464198C8190E0DF91CF91089542
:10331000CF93DF93EC0161110E9464198D8190E0DD
:10332000DF91CF9108951F920F920FB60F92112443
:103330000F931F932F933F934F935F936F937F93BD
:103340008F939F93AF93BF93CF93EF93FF9380910E
:103350006F030E94632EC82F20917603309177036C
:103360002F5F3F4F30937703209376038091DC03E8
:10337000843618F085E08093710390917103933047
:1033800079F018F4923039F070C0943011F1953022
:1033900009F44AC06AC0C11168C01092DC0329C098
:1033A000C13009F062C0E091DC0381E08E0F8093B0
:1033B000DC03F0E08091760390917703E059FC4FB5
:1033C0008087109277031092760384E080937103D4
:1033D0004CC0C11114C0E091DC0381E08E0F8093DA
:1033E000DC03F0E08091760390917703E059FC4F85
:1033F0008087109277031092760383E0E7CF809165
:103400007603909177038536910578F185E0809376
:1034100071030E94B22C60937203709373038093C4
:1034200074039093750321C00E94B22C0091720323
:10343000109173032091740330917503601B710B1D
:10344000820B930B693C71058105910540F0109248
:10345000DC03109277031092760382E0B7CFC1119C
:1034600004C01092770310927603FF91EF91CF91F1
:10347000BF91AF919F918F917F916F915F914F918C
:103480003F912F911F910F910F900FBE0F901F90A2
:10349000189560936F0380916F0360E00E94F42D94
:1034A00080916F0380937003089580916F03861756
:1034B00059F060936F0380916F0360E00E94F42DD8
:1034C00080916F0380937003089521E0FC01828551
:1034D000861320E0822F0895F89482E08093B00054
:1034E0008093B10094E69093B3001092B200809361
:1034F000700078941092DC038093710308951F93F9
:10350000CF93DF93FC01A681B7818C9186588D35CE
:1035100058F48085918583309105A1F411968C91A2
:1035200011978152893118F080E090E044C01296E2
:103530008C9188508730C0F7158281E0808381E0CC
:1035400090E039C0833491057CF311968C911197EA
:1035500083548F3248F782E090E040E050E0BA01B7
:103560009D012F5F3F4FEC01CA0FDB1FC881C85080
:10357000C730D0F6E901C80FD91F18811751133190
:1035800080F47695679557954795706802968234D2
:10359000910549F780E28583418352836383748375
:1035A000CCCFC881C850C73008F0BECF769567959C
:1035B00057954795EBCFDF91CF911F9108950F93CA
:1035C0001F93CF93DF93EC0188E793E09F838E8373
:1035D0008091DC0390E09987888780917103853022
:1035E00081F4CE010E947F1A8C01CE0101151105D4
:1035F00029F00E946C1A01E010E005C00E946C1ACC
:1036000002C000E010E0C801DF91CF911F910F913F
:1036100008950F931F93CF93DF93EC010E94DF1A5D
:10362000892B69F00E94B22C60936B0370936C033A
:1036300080936D0390936E038B818A8714C00E94E0
:10364000B22C00916B0310916C0320916D033091AB
:103650006E03601B710B820B930B693C7105810536
:10366000910508F01A86DF91CF911F910F9108956F
:103670000F931F93CF93DF931F92CDB7DEB78C01CB
:1036800069830E943125F8011582168217821086FF
:103690001186128613866981C8010F90DF91CF9140
:1036A0001F910F910C9432250C943225CF93DF9308
:1036B000EC010E944C25811111C062E0CE010E94F4
:1036C000C325CE010E947A25CE010E942B268C8331
:1036D00088E293E20E94092D8C8101C080E0DF9195
:1036E000CF910895CF93DF93EC010E944C25811177
:1036F00023C063E0CE010E94C325CE010E944C2569
:1037000081111AC06E81CE010E94C3256F81CE0146
:103710000E94C3256885CE010E94C3256985CE011C
:103720000E94C3256A85CE010E94C3256B85CE0108
:10373000DF91CF910C94C325DF91CF9108950F9322
:10374000FC0160FF03C046832783008761FF03C03D
:10375000418722870387637021F0CF010F910C947A
:10376000721B0F9108951F93CF93DF93EC01162FD7
:103770000E944C25811111C064E0CE010E94C32536
:10378000CE010E944C25811108C01D836D81CE01A0
:10379000DF91CF911F910C94C325DF91CF911F91A1
:1037A0000895FC01658161600C94B31BFC01658187
:1037B0006E7F0C94B31BFC01658162600C94B31B9B
:1037C000FC0165816D7F0C94B31B0F931F93CF9306
:1037D000DF93EC01062F142F60FF07C0442319F07C
:1037E0000E94D11B02C00E94D61B01FF0FC0CE0158
:1037F000112331F0DF91CF911F910F910C94DB1BBE
:10380000DF91CF911F910F910C94E01BDF91CF912D
:103810001F910F9108950F931F93CF93DF931F92E2
:10382000CDB7DEB78C0169830E9431256981C8015B
:103830000F90DF91CF911F910F910C9432250C9432
:103840003225CF93DF93EC010E944C25811113C0E8
:1038500062E0CE010E94C325CE010E947A25CE01EE
:103860000E942B268C83CE010E942B268D83CE01B5
:103870000E942B268E83DF91CF9108950F931F9383
:10388000CF93DF931F92CDB7DEB78C0169830E947F
:10389000211C6981662329F0613031F4F8018581AA
:1038A00005C0F801848102C0F80186810F90DF9184
:1038B000CF911F910F9108950F931F93CF93DF9393
:1038C00000D01F92CDB7DEB78C012B834A8369836A
:1038D0000E943125F801349685E1DF011D928A9519
:1038E000E9F74A81F801418F2B81228F6981C80154
:1038F0000F900F900F90DF91CF911F910F910C942B
:10390000322525E04EE00C945C1C0C943225CF93BC
:10391000DF93EC01298D80E090E0821730F4FE0106
:10392000E80FF91F14820196F8CFCE010E944C25B2
:1039300081110AC065E0CE010E94C32588E893E1A9
:10394000DF91CF910C94092DDF91CF9108955F9273
:103950006F927F928F929F92AF92BF92CF92DF929F
:10396000EF92FF920F931F93CF93DF93EC01542EAE
:103970004901E98CF12C8A8DA62EBB24A7FCB094BA
:10398000222733272E193F092A153B0594F4AE143C
:10399000BF047CF490E0C42EDD24C7FCD094222721
:1039A0003327281B390B2C153D051CF4C816D906E6
:1039B00094F0CE01DF91CF911F910F91FF90EF9086
:1039C000DF90CF90BF90AF909F908F907F906F903F
:1039D0005F900C94871CCE010E944C2562E0CE01C2
:1039E0000E94C325CE010E944C25002711270A19E9
:1039F0001B0937016A187B08AA24BB24AC18BD0830
:103A00000615170504F517FD17C00E151F05A4F4BC
:103A1000F401E00FF11F608157FC06C00C2C01C0BF
:103A2000660F0A94EAF709C070E00A2C02C0759587
:103A300067950A94E2F701C060E0CE010E94C325B9
:103A40000F5F1F4FDDCFDF91CF911F910F91FF903F
:103A5000EF90DF90CF90BF90AF909F908F907F902E
:103A60006F905F9008950F931F93CF93DF93EC01B6
:103A7000062F142F0E944C25811115C063E0CE0142
:103A80000E94C325CE010E944C2581110CC0602FDD
:103A9000CE010E94C325612FCE01DF91CF911F91EE
:103AA0000F910C94C325DF91CF911F910F91089531
:103AB000CF93DF93E62FF0E0DC0159962C915997D4
:103AC00030E0E217F307C4F4242F30E05A96AC91AB
:103AD000B0E02A173B0784F4E80FF91F548121E076
:103AE00030E001C0220F4A95EAF7522B54834481FB
:103AF000DF91CF910C94331DDF91CF910895CF9337
:103B0000DF93E62FF0E0DC0159962C91599730E0D5
:103B1000E217F307CCF4242F30E05A96AC91B0E0D2
:103B20002A173B078CF4E80FF91F548121E030E09D
:103B300001C0220F4A95EAF720952523248344816A
:103B4000DF91CF910C94331DDF91CF910895FF92B7
:103B50000F931F93CF93DF93EC01F62E042F122FB8
:103B60000E944C2581111EC067E0CE010E94C32532
:103B7000CE010E944C25811115C06F2DCE010E94EF
:103B8000C325602FCE010E94C325612FCE010E9464
:103B9000C32588EB9BE0DF91CF911F910F91FF90A0
:103BA0000C94092DDF91CF911F910F91FF900895F3
:103BB000AF92BF92CF92DF92EF92FF920F931F933B
:103BC000CF93DF93EC01B62EA42E790100E010E034
:103BD000C62EDD24C7FCD094C8018C0D9D1D8B3FE3
:103BE0002FEF92071CF1298D30E08217930724F5FF
:103BF000F701208121110EC08C01898D90E00817FA
:103C00001907D4F440E0602FCE010E94331D0F5FEE
:103C10001F4FF3CF21526B2D600F2E3518F023E08C
:103C200040E001C04A2DCE010E94A71D0A5F1F4F30
:103C3000FFEFEF1AFF0AD0CF1FEF1B0D1B143CF450
:103C400040E0612FCE010E94331DB12EF5CFDF91F0
:103C5000CF911F910F91FF90EF90DF90CF90BF9089
:103C6000AF900895EF92FF920F931F93CF93DF933E
:103C7000EC01862FF42E022F1AE0612F0E94773676
:103C8000E92E2FE0280F40E06FEFCE010E94A71D24
:103C90002FE02E0D40E064E0CE010E94A71D8F2D85
:103CA000612F0E947736192F2FE0280F40E06BE03C
:103CB000CE010E94A71D2FE0210F40E060E1CE0160
:103CC0000E94A71D002311F044E101C040E06AE01A
:103CD000CE01DF91CF911F910F91FF90EF900C9447
:103CE000331D2F923F924F925F926F927F928F92ED
:103CF0009F92AF92BF92CF92DF92EF92FF920F937B
:103D00001F93CF93DF93CDB7DEB72D970FB6F894FF
:103D1000DEBF0FBECDBF8C012A013B01CE01019653
:103D20009C878B878AE0EB85FC8511928A95E9F761
:103D300020E030EC49E754E4C301B2010E94A93508
:103D400087FD04C028E140E06FEF0DC020E030E0C7
:103D500046EC52ECC301B2010E94E233181654F152
:103D60002CE040E060E0C8010E94A71D28E140E08F
:103D700064E0C8010E94A71D28E140E069E0C80195
:103D80002D960FB6F894DEBF0FBECDBFDF91CF9159
:103D90001F910F91FF90EF90DF90CF90BF90AF9069
:103DA0009F908F907F906F905F904F903F902F905B
:103DB0000C94A71D20E030E0A901C301B2010E94CC
:103DC000E233811102C02FE0D8CF20E030E0A9011A
:103DD000C301B2010E94E23387FF07C077FA7094F3
:103DE00077F87094F1E0FD8701C01D8620E030E097
:103DF0004AE754E4C301B2010E94E6330E945334FF
:103E00006983C301B2010E944E349B01CB0168EE6D
:103E100073E00E948336E4E6F0E0BF010E9483363F
:103E20006A83C901BF010E948336EAE0EE2EF12CBD
:103E3000B7010E9483366B83C901B7010E948336A4
:103E40006C018C8320E030E040E251E4C301B20118
:103E50000E94B4350E944E34CB01B7010E948336D4
:103E60004C018D8320E030E048EC52E4C301B20104
:103E70000E94B4350E944E34CB01B7010E948336B4
:103E80001C018E8320E030E04AE754E4C301B20114
:103E90000E94B4350E944E34CB01B7010E94833694
:103EA0008F8380E0A82EB12CE1E0F0E0EC0FFD1F45
:103EB000EA0DFB1DF080F11002C08F5FF3CF20E010
:103EC00030E040E85FE3C301B2010E94A93587FDFD
:103ED0000DC0CF2CD12CFE01EA0DFB1DE280F12C90
:103EE000FE01EA0DFB1DA380B12C05C0DD24740189
:103EF000FF245101BB248D85813009F071C120E080
:103F000030E040E251E4C301B2010E94A93587FDCF
:103F100016C02CE040E06FEFC8010E94A71D2FE003
:103F20002C0D40E064E0C8010E94A71D2FE02E0D7B
:103F300040E0CA94CD2809F021CF68E020CF20E0EE
:103F400030E040E85FE3C301B2010E94A93587FD7C
:103F5000FDC1E114F10409F046C0AB2809F043C0EB
:103F600023E040E060E0C8010E94A71DC6018B7FEE
:103F7000039799F42FE02C0D40E068E0C8010E94FF
:103F8000A71D44E066E0C8010E94331D44E067E0DD
:103F9000C8010E94331D44E021C1E4E0CE16D104E3
:103FA00099F423E140E068E0C8010E94A71D44E0C5
:103FB00065E0C8010E94331D44E066E0C8010E942C
:103FC000331D44E067E0A7C123E040E060E0C801A2
:103FD0000E94A71D2CE040E065E0C8010E94A71DDB
:103FE0002FE02C0DCACEF1E0CF16D10409F047C066
:103FF000C70101972CE040E0029790F183E0E816BA
:10400000F10461F460E0C8010E94A71D20E140E0D6
:1040100064E0C8010E94A71D22E12EC194E0E916C8
:10402000F10471F46FEFC8010E94A71D20E140E088
:1040300063E0C8010E94A71D23E140E068E0CAC018
:10404000E7E0EE16F10461F460E0C8010E94A71DEC
:1040500020E140E064E0C8010E94A71D26E10CC1F8
:104060006FEFC8010E94A71D20E140E063E0C80196
:104070000E94A71D2FE02E0D40E069E0ABC0F2E0EA
:10408000CF16D10409F044C02CE040E06FEF82E08D
:10409000E816F10421F0C7010497029700F5C80162
:1040A0000E94A71D21E140E063E0C8010E94A71D16
:1040B0002FE02E0D40E092E0E916F10421F0E5E05A
:1040C000EE16F10411F469E001C068E0C8010E9435
:1040D000A71D42E067E0C8010E94331D7EC0C801F1
:1040E000F1E0EF16F10449F40E94A71D21E140E040
:1040F00063E0C8010E94A71DB9C00E94A71D21E16D
:1041000040E063E0C8010E94A71D2FE02E0DB4C05F
:1041100083E0C816D10459F57FE0D72EDE0CC70125
:10412000039722E140E062E0029720F097E0E91671
:10413000F10439F4C8010E94A71D2D2D40E068E06C
:1041400006C0C8010E94A71D2D2D40E069E0C801EE
:104150000E94A71D44E060E0C8010E94331D44E0B6
:1041600061E0C8010E94331D44E062E0B4CFEFE09B
:10417000CE0EE114F10411F42C2DFFCD2CE040E023
:104180006FEFC8010E94A71D2C2D40E063E0C8011D
:104190000E94A71D6FE0D62EDE0CC7018D7F2D2D4E
:1041A00040E0019711F46AE001C069E0C8010E9493
:1041B000A71D40E169E0C8010E94331D2D2D40E09C
:1041C00069E0F2E0EF16F10429F085E0E816F10469
:1041D00009F054C0C8010E94A71D40E168E09BC0DF
:1041E00020E030E048EC52E4C301B2010E94A9355E
:1041F00087FD19C091E0C916D10421F420E140E007
:1042000060E004C02FE02C0D40E06FEFC8010E9479
:10421000A71D2FE02E0D40E064E0C8010E94A71DFD
:104220002FE02A0DAACD20E030E040E251E4C301A6
:10423000B2010E94A9355FE0952E9C0C87FD24C039
:10424000292D40E06FEFC8010E94A71D2FE02E0D21
:1042500040E0CA94CD2811F463E001C064E0C801D5
:104260000E94A71DF1E0AF16B10421F420E140E067
:104270006AE004C02FE02A0D40E069E0C8010E9416
:10428000A71D40E169E047C020E030E040E85FE37F
:10429000C301B2010E94A935292D40E06FEF87FDCF
:1042A00017C0C8010E94A71D81E0E816F10421F49F
:1042B00020E140E065E004C02FE02E0D40E064E026
:1042C000C8010E94A71D91E0A916B104D9F416C037
:1042D000C8010E94A71DE1E0EE16F10421F420E1DF
:1042E00040E065E004C02FE02E0D40E064E0C8012E
:1042F0000E94A71DF1E0AF16B10421F420E140E0D7
:104300006AE004C02FE02A0D40E069E0C8010E9485
:10431000A71D40E164E0C8012D960FB6F894DEBFFA
:104320000FBECDBFDF91CF911F910F91FF90EF9006
:10433000DF90CF90BF90AF909F908F907F906F90C5
:104340005F904F903F902F900C94331D2D960FB699
:10435000F894DEBF0FBECDBFDF91CF911F910F91BB
:10436000FF90EF90DF90CF90BF90AF909F908F9095
:104370007F906F905F904F903F902F900895FC0139
:10438000862F608360E00C94F42D0C94BF21FC0117
:1043900080810E94632E21E0892B09F420E0822F86
:1043A00008950F931F93CF93DF931F92CDB7DEB77E
:1043B0008C0169830E9431256981C8010F90DF91CA
:1043C000CF911F910F910C9432250C943225CF93ED
:1043D000DF93EC010E944C2581110FC062E0CE01F9
:1043E0000E94C325CE010E947A25CE010E942B2671
:1043F0008C83CE010E942B268D83DF91CF9108956F
:10440000FC01648170E080E090E00E94813420E053
:1044100030E04FE753E40E94E6339B01AC0160E0DB
:1044200070E080E89FE30E941B3320E030EC4FE710
:1044300054E40E94B4350E945334CB010895FC012A
:10444000658170E080E090E00E94813420E030E0FF
:104450004FE753E40E94E6339B01AC0160E070E05B
:1044600080E89FE30E941B3320E030EC4FE754E4E8
:104470000E94B4350E945334CB0108950F931F93CB
:10448000CF93DF931F92CDB7DEB78C0169830E9473
:1044900031256981C8010F90DF91CF911F910F9154
:1044A0000C9432250C9432250F931F93CF93DF93F6
:1044B000EC01162F072F0E944C2581111BC062E0D2
:1044C000CE010E94C325CE010E944C25811112C04D
:1044D000602FCE010E94C325612FCE010E94C3250B
:1044E0006CE370E080E090E0DF91CF911F910F913D
:1044F0000C94E12CDF91CF911F910F9108951F93A0
:10450000CF93DF93EC01162F0E944C25811116C02A
:1045100063E0CE010E94C325CE010E944C2581118B
:104520000DC0612FCE010E94C3256CE370E080E0D6
:1045300090E0DF91CF911F910C94E12CDF91CF910E
:104540001F910895CF93DF93EC010E944C258111B8
:104550000CC064E0CE010E94C3256CE370E080E0F3
:1045600090E0DF91CF910C94E12CDF91CF910895F1
:10457000CF93DF93EC010E944C2581110CC065E0C4
:10458000CE010E94C3256CE370E080E090E0DF91F3
:10459000CF910C94E12CDF91CF910895CF93DF93CD
:1045A000EC010E944C2581110CC066E0CE010E94F6
:1045B000C3256CE370E080E090E0DF91CF910C9434
:1045C000E12CDF91CF9108951F93CF93DF93EC01FE
:1045D000162F623011F06430D9F4CE010E944C25C0
:1045E000811116C067E0CE010E94C325CE010E9452
:1045F0004C2581110DC0612FCE010E94C32562EDB3
:1046000070E080E090E0DF91CF911F910C94E12C5D
:10461000DF91CF911F910895CF93DF93EC010E941A
:104620004C2581110DC068E0CE010E94C325CE014A
:104630000E947A25CE010E942B268C838C8101C09A
:1046400082E0DF91CF9108950F931F93CF93DF9373
:104650001F92CDB7DEB78C0169830E94312588E0B7
:10466000F801848382E085836981C8010F90DF911E
:10467000CF911F910F910C9432250C943225FC019F
:1046800064830895CF93DF93EC010E944C25811140
:104690000AC064E0CE010E94C32588EB9BE0DF9155
:1046A000CF910C94092DDF91CF910895EF92FF9255
:1046B0000F931F93CF93DF93EC01E62EF42E890125
:1046C0000E944C2581112DC062E0CE010E94C325BD
:1046D000CE010E944C25811124C06C81CE010E9424
:1046E000C3256E2DCE010E94C3256F2DCE010E94E1
:1046F000C325F12CF801EF0DF11D6081CE01662379
:1047000021F00E94C325F394F5CF0E94C32588EBC6
:104710009BE0DF91CF911F910F91FF90EF900C9450
:10472000092DDF91CF911F910F91FF90EF90089588
:10473000FF920F931F93CF93DF93EC01F62E042F7C
:10474000122F0E944C25811122C065E0CE010E94EB
:10475000C325CE010E944C25811119C06C81CE0168
:104760000E94C3256F2DCE010E94C325602FCE016C
:104770000E94C325612FCE010E94C32588EB9BE0D8
:10478000DF91CF911F910F91FF900C94092DDF9134
:10479000CF911F910F91FF9008952F923F924F92CA
:1047A0005F926F927F928F929F92AF92BF92CF92C1
:1047B000DF92EF92FF920F931F93CF93DF9300D07E
:1047C00000D0CDB7DEB71C016B834C834801590183
:1047D00020E030E0A901C501B4010E94E23381115B
:1047E0001CC020E04C816B81C1010F900F900F9095
:1047F0000F90DF91CF911F910F91FF90EF90DF907D
:10480000CF90BF90AF909F908F907F906F905F9070
:104810004F903F902F900C94982320E030E0A90116
:10482000C501B4010E94E23387FF0DC02DEF4C811A
:104830006B81C1010E9498238B81885F8B83B7FABB
:10484000B094B7F8B094C501B4010E944E346B0126
:104850007C010E9481349B01AC01C501B4010E941E
:104860001B334B015C011C141D041E041F040CF0BF
:1048700097C0412C8AEC582E8AE9682E8BE3782E5B
:10488000C701B601A30192010E94B936232B242B44
:10489000252B59F4C301B2012AE030E040E050E09A
:1048A0000E94B93629013A01EBCFF2E04F165104CC
:1048B0006104710424F1C701B601A30192010E94B1
:1048C000B936162F082F392F4C816B81C1013A83DD
:1048D00079830E949823C12E7981D72EE02E3A81C8
:1048E000F32EC301B2012AE030E040E050E00E9424
:1048F000B93629013A01EB81E85FEB83D6CF2C2D45
:104900004C816B81C1010E94982320E030E0A90115
:10491000C501B4010E94A93518160CF08BC0F10135
:104920008581882309F486C06B81685F2EEF4C81F6
:10493000C1010E9498237B80F0E17F0E10E0F1011D
:104940008581181708F076C020E030E040E251E49D
:10495000C501B4010E94B4356B017C010E9453343F
:10496000062F262F4C81672DC1010E949823602FAE
:1049700070E080E090E00E9481349B01AC01C701AF
:10498000B6010E941B334B015C01F8E07F0E1F5FF4
:1049900020E030E0A9010E94A935181684F24AC02F
:1049A000F1018581882309F445C020E04C816B81A9
:1049B000C1010E9498236B81685F2EEF4C81C10179
:1049C0000E9498237B80F0E17F0EF101158210E0B8
:1049D00020E030E0A901C501B4010E94A9351816F4
:1049E0004CF5F1018581181728F520E030E040E210
:1049F00051E4C501B4010E94B4356B017C010E94F1
:104A00005334062F262F4C81672DC1010E94982315
:104A1000602F70E080E090E00E9481349B01AC0147
:104A2000C701B6010E941B334B015C01F8E07F0E09
:104A30001F5FCECF0F900F900F900F90DF91CF910F
:104A40001F910F91FF90EF90DF90CF90BF90AF90AC
:104A50009F908F907F906F905F904F903F902F909E
:104A600008950895DC016C9370E0FB01E655FF4F5B
:104A7000E4911196EC931197FB01E254FF4FE491FE
:104A8000F0E0EE0FFF1FEE52FF4F859194911396C9
:104A90009C938E9312970895FF920F931F93CF9339
:104AA000DF938C01FC01F180C281D38189818F2940
:104AB00089839A818F2D809589238A8380EE91E066
:104AC0000E94092D60E0F80180810E94F42D82E3AC
:104AD00090E00E94092DC88184E690E00E94092D93
:104AE000FC2281E009F480E0DF91CF911F910F91CA
:104AF000FF900895AF92BF92CF92DF92EF92FF9214
:104B00000F931F93CF93DF938C01FC01B180C2817F
:104B1000D3810E94B22C6B017C018981AB2CA094C3
:104B20008A2189838A818B298A8388818B2169F0F4
:104B30000E94B22C6C197D098E099F09653671059A
:104B40008105910590F380E013C088818B21E9F302
:104B500089818B2989838A818A218A838EE190E0E9
:104B60000E94092D60E0F80180810E94F42D81E00F
:104B7000DF91CF911F910F91FF90EF90DF90CF9039
:104B8000BF90AF9008950F931F93CF93DF93EC01E5
:104B9000062F18E0F89460E088810E942D2E61E0D5
:104BA00088810E94F42D85E090E00E94092D00FF8D
:104BB00002C061E001C060E088810E942D2E069550
:104BC00078948EE190E00E94092D61E088810E9436
:104BD0002D2E85E090E00E94092D1150D9F660E05D
:104BE0008881DF91CF911F910F910C94F42DCF927A
:104BF000DF92EF92FF921F93CF93DF93FC0111811D
:104C0000C281D3810E94B22C6B017C0188818123F7
:104C100059F00E94B22C6C197D098E099F096430ED
:104C200071058105910590F3F8948EE190E00E9462
:104C3000092DC881789488E290E00E94092D1C23F8
:104C400081E009F480E0DF91CF911F91FF90EF9018
:104C5000DF90CF9008950F931F93CF93DF93EC01D4
:104C600060E088810E94F42D08E010E0CE010E94EF
:104C7000F72520E8829FC00111241695182B0150BA
:104C8000A9F7812FDF91CF911F910F9108950F9375
:104C90001F93CF93DF931F92CDB7DEB78C0169834B
:104CA0000E9431256981C8010F90DF91CF911F913A
:104CB0000F910C9432250C943225CF93DF93EC01A5
:104CC0000E944C2581110DC062E0CE010E94C325D7
:104CD000CE010E947A25CE010E942B268C838C81E6
:104CE00001C080E0DF91CF9108950F931F93CF9380
:104CF000DF931F92CDB7DEB78C0169830E94312507
:104D00006981C8010F90DF91CF911F910F910C9491
:104D100032250C943225CF93DF93EC010E944C2571
:104D200081110DC062E0CE010E94C325CE010E9418
:104D30007A25CE010E942B268C838C8101C080E0D5
:104D4000DF91CF9108950F931F93CF93DF931F921D
:104D5000CDB7DEB78C0169830E9431256981C80116
:104D60000F90DF91CF911F910F910C9432250C94ED
:104D700032251F93CF93DF93EC01162F0E944C2511
:104D800081110EC062E0CE010E94C325CE010E94B7
:104D90004C25612FCE01DF91CF911F910C94C3253B
:104DA000DF91CF911F910895EF92FF920F931F9380
:104DB000CF93DF931F92CDB7DEB77C01DC01129653
:104DC0008D919C911397062F10E0009749F02D913B
:104DD0003C912017310779F169830E94A4376981DA
:104DE000F70111830083F3E06F9FC00111240E943B
:104DF0000C37D70113969C938E931297892B21F42D
:104E00008EE591E00E945D3880E090E0F7014081FE
:104E100051819A01220F331F240F351F82179307E8
:104E200050F4D7011296ED91FC911397E80FF91FFA
:104E300010820196EBCF0F90DF91CF911F910F91D0
:104E4000FF90EF900895CF93DF93EC01862F262FEC
:104E500030E0F901E655FF4FE491E887F901E254AB
:104E6000FF4FE491F0E0EE0FFF1FE452FF4F25915A
:104E700034913D832C8361E00E94F42D60E2CE01E9
:104E8000DF91CF910C94D426CF93DF93EC01862F42
:104E9000262F30E0F901E655FF4FE491E887F9014C
:104EA000E254FF4FE491F0E0EE0FFF1FE452FF4F9A
:104EB000259134913D832C8361E00E94F42D60E2C2
:104EC000CE01DF91CF910C94D4260F93FC01A62F35
:104ED000B0E080819181A817B907B8F4862F880FB8
:104EE000860F90E0A281B381A80FB91F2C93A281F5
:104EF000B381A80FB91F11964C930280F381E02D66
:104F0000E80FF91F028381E001C080E00F9108954E
:104F1000CF92DF92EF92FF920F931F93CF93DF9385
:104F20007C01142FD22EC02E611113C0C0E0D0E03E
:104F3000F70180819181C817D90748F40C2D2D2DD8
:104F4000412F6C2FC7010E9465272196F1CF81E088
:104F500004C061500E94652780E0DF91CF911F91CE
:104F60000F91FF90EF90DF90CF9008950F931F93D4
:104F7000D8013FB7F8949C91822F80958923292BE3
:104F8000FB01460F571FE417F50781F0919168E088
:104F90002C9300C097FF8C93990F00C000C000C0F5
:104FA00008F48C9300C06A9599F7EDCF3FBF1F912D
:104FB0000F9108950F931F93FC01048115812081A7
:104FC0003181A901440F551F420F531F6281738124
:104FD00020850E94B62761E070E080E090E01F919C
:104FE0000F910C94E12CCF93DF93EC018A819B818C
:104FF0000E94A4371B821A82DF91CF9108950F93EC
:105000001F93CF93DF931F92CDB7DEB78C016983D7
:105010000E943125F80134968FE0DF011D928A95B8
:10502000E9F76981C8010F90DF91CF911F910F912E
:105030000C9432250C9432250F93611116C060E058
:1050400070E0FC01E60FF71F2483FB013196E80FA7
:10505000F91F4483FB013296E80FF91F04836D5F4B
:105060007F4F6F30710569F718C06630B0F470E09B
:1050700061507109E62FEE0FE60FF0E0DC01AE0F94
:10508000BF1F14962C93DF011196A80FB91F149619
:105090004C933296E80FF91F04830F9108950F93F4
:1050A0001F93CF93DF93EC010E944C25811117C011
:1050B00062E0CE010E94C325CE010E944C258111E1
:1050C0000EC000E010E0FE01E00FF11F6481CE0190
:1050D0000E94C3250F5F1F4F0F301105A1F7DF910D
:1050E000CF911F910F910895FC0160830895FC01F9
:1050F000608308950C947428FC0180810E944F2DD8
:105100002FEF33E0A901481B590BCA0108950F93F3
:105110001F93CF93DF931F92CDB7DEB78C016983C6
:105120000E94F70E6981F8016687C8010F90DF9130
:10513000CF911F910F910C94F80E0C94F80ECF9212
:10514000DF92EF92FF920F931F93CF93DF93CDB730
:10515000DEB72C970FB6F894DEBF0FBECDBF8C0123
:105160000E942A0FC8010E94361040E064E4C80182
:105170000E94D00F0E94B22C6B017C01C8010E94DA
:105180000E0F81110BC00E94B22C6C197D098E0983
:105190009F096E3E72408105910580F3C8010E940F
:1051A0002A0FC8010E94361040E06EEBC8010E9431
:1051B000D00FCE0101967C016E0196E0C90ED11C84
:1051C000C8010E941A10F70181937F01EC15FD05BB
:1051D000B9F76A8170E0762F66278981682B882766
:1051E00077FD8095982F0E94813420E030E040E8E0
:1051F0005DE30E94B4352C960FB6F894DEBF0FBE67
:10520000CDBFDF91CF911F910F91FF90EF90DF9075
:10521000CF9008950F931F93CF93DF931F92CDB735
:10522000DEB78C0169830E9431256981C8010F9026
:10523000DF91CF911F910F910C9432250C94322560
:10524000CF93DF93EC010E944C2581110FC062E0E7
:10525000CE010E94C325CE010E947A25CE010E9474
:105260002B268C839C8181E0911101C080E0DF912D
:10527000CF9108950F931F93CF93DF931F92CDB7D4
:10528000DEB78C0169830E9431256981C8010F90C6
:10529000DF91CF911F910F910C9432250C94322500
:1052A000CF93DF93EC010E944C2581110DC062E089
:1052B000CE010E94C325CE010E947A25CE010E9414
:1052C0002B268C838C8101C080E0DF91CF910895E3
:1052D000CF93DF93EC010E944C2581110FC064E055
:1052E000CE010E94C325CE010E944C25811106C02B
:1052F0006C85CE01DF91CF910C94C325DF91CF91C6
:1053000008950F931F93CF93DF931F92CDB7DEB70E
:105310008C0169830E943125F8011682178210865C
:1053200011861286138614866981C8010F90DF9159
:10533000CF911F910F910C9432250C943225CF926E
:10534000DF92EF92FF92CF93DF93EC010E944C2506
:10535000882339F0C12CD12C8AEFE82E83E4F82E73
:1053600027C062E0CE010E94C325CE010E947A25AB
:10537000CE010E942B268C83CE010E942B268D838A
:105380008D816C8170E0782B80E090E00E947F340A
:105390002CE53FE84CE851E40E94E6336B017C01C8
:1053A00020E030E04AEF53E40E94A935181694F249
:1053B000C701B601DF91CF91FF90EF90DF90CF90C2
:1053C0000895CF93DF93EC010E944C25811123C0F7
:1053D00063E0CE010E94C325CE010E944C258111BD
:1053E0001AC06E81CE010E94C3256F81CE010E943A
:1053F000C3256885CE010E94C3256985CE010E9420
:10540000C3256A85CE010E94C3256B85CE01DF913D
:10541000CF910C94C325DF91CF910895FC01668351
:10542000478320870C94E129FC0161874287238709
:105430000C94E1290F93FC0160FF03C0468327838E
:10544000008761FF03C0418722870387637021F0D3
:10545000CF010F910C94E1290F910895637061F0D1
:10546000FC012485442319F0262B248703C0609572
:10547000622364870C94682908950F931F93CF9338
:10548000DF931F92CDB7DEB78C0169830E9431256F
:105490006981C8010F90DF91CF911F910F910C94FA
:1054A00032250C9432250F931F93CF93DF931F92D5
:1054B000CDB7DEB78C0169830E944C2569818111CB
:1054C0000DC0662311F062E001C063E0C8010F90D7
:1054D000DF91CF911F910F910C94C3250F90DF9115
:1054E000CF911F910F9108951F920F920FB60F92B7
:1054F00011242F933F934F935F936F937F938F93D9
:105500009F93AF93BF93EF93FF938091DE0387FF49
:1055100005C010928500109284001AC02091DE030D
:10552000332727FD30958091DD0390E02817390758
:105530007CF48091DE03992787FD9095FC01EE0FA6
:10554000FF1FE80FF91FE152FC4F808187FD15C056
:105550008091DE038F5F8093DE032091DE0333278B
:1055600027FD30958091DD0390E028173907BCF4C2
:105570008091DE038C305CF112C08091DE039927AC
:1055800087FD9095FC01EE0FFF1FE80FF91FE15218
:10559000FC4F808160E08F770E942D2ED9CF8091C3
:1055A000840090918500049680349C4918F480E42E
:1055B0009CE905C0809184009091850004969093A9
:1055C0008900809388008FEF8093DE0338C020919C
:1055D0008400309185008091DE03992787FD9095A6
:1055E000FC01EE0FFF1FE80FF91FE152FC4F818114
:1055F0009281820F931F90938900809388008091FD
:10560000DE03992787FD9095FC01EE0FFF1FE80F41
:10561000F91FE152FC4F808187FF11C08091DE03AA
:10562000992787FD9095FC01EE0FFF1FE80FF91FEA
:10563000E152FC4F808161E08F770E942D2EFF9117
:10564000EF91BF91AF919F918F917F916F915F91FA
:105650004F913F912F910F900FBE0F901F90189573
:105660002091DD032C30A0F431E0320F3093DD03C4
:10567000FC012083822F90E0FC01EE0FFF1FE80F5A
:10568000F91FE152FC4F88EB9BE0928381830895E0
:105690002FEFFC0120830895DF92EF92FF920F938A
:1056A0001F93CF93DF93EC01D62E7A018901888175
:1056B0008C3008F066C061E08D2D0E94F42D888149
:1056C000A82FB0E0FD01EE0FFF1FEA0FFB1FE15214
:1056D000FC4F2D2D2F7790819078922B908360E254
:1056E00072E06E197F0977FF02C06D5F7F4F75957D
:1056F000679575956795698340E659E0401B510BA6
:1057000057FF02C04D5F5F4F55954795559547959B
:105710004A836CE00E9477369CE0899FB001112497
:1057200020E030E0A901460F571FFA01EE0FFF1FDE
:10573000E40FF51FE152FC4F908197FD16C02F5FDB
:105740003F4F2C30310571F781110FC0109280004E
:1057500082E0809381001092850010928400B19ABB
:1057600080916F00826080936F00888190E0FC01DF
:10577000EE0FFF1FE80FF91FE152FC4F8081806898
:1057800080838881DF91CF911F910F91FF90EF90DF
:10579000DF90089520E639E040E252E00C944C2B73
:1057A000FC0180818C3070F5918128E830E0291B64
:1057B000310997FD3395220F331F220F331F6217D4
:1057C00073077CF0928128E532E0291B310997FDAF
:1057D0003395220F331F220F331F621773070CF408
:1057E0009B0122503109220F331F4FB7F89490E0EC
:1057F000FC01EE0FFF1FE80FF91FE152FC4F32834F
:1058000021834FBF08954F925F926F927F92AF9224
:10581000BF92CF92DF92EF92FF920F931F93CF939D
:10582000DF93EC01603282E078070CF040C077FD36
:1058300006C0653B71052CF064EB70E002C060E0CF
:1058400070E0898128E830E0281B310987FD339515
:10585000220F331F220F331F5901CC24B7FCC094F1
:10586000DC2C882777FD8095982F2A8148E552E027
:10587000421B510927FD5395440F551F440F551FD7
:105880002A01662457FC6094762C7F926F925F9277
:105890004F9214EBE12EF12C00E010E020E030E01C
:1058A000A9010E94D3320F900F900F900F90CE015C
:1058B000DF91CF911F910F91FF90EF90DF90CF90EC
:1058C000BF90AF907F906F905F904F900C94D02BD3
:1058D0001F920F920FB60F9211242F933F938F9325
:1058E0009F93AF93BF938091040490910504A0917E
:1058F0000604B09107043091030423E0230F2D37F1
:1059000020F40196A11DB11D05C026E8230F0296C3
:10591000A11DB11D209303048093040490930504FA
:10592000A0930604B09307048091080490910904A1
:10593000A0910A04B0910B040196A11DB11D8093A2
:10594000080490930904A0930A04B0930B04BF9138
:10595000AF919F918F913F912F910F900FBE0F901C
:105960001F9018952FB7F894609104047091050466
:1059700080910604909107042FBF08953FB7F894D3
:105980008091080490910904A0910A04B0910B043D
:1059900026B5A89B05C02F3F19F00196A11DB11D8A
:1059A0003FBF6627782F892F9A2F620F711D811DA7
:1059B000911D42E0660F771F881F991F4A95D1F706
:1059C0000895CF92DF92EF92FF92CF93DF936B0116
:1059D0007C010E94BE2CEB01C114D104E104F1044E
:1059E00089F00E941A330E94BE2C6C1B7D0B683E0E
:1059F000734090F381E0C81AD108E108F108C8515A
:105A0000DC4FEACFDF91CF91FF90EF90DF90CF9006
:105A100008958230910538F0880F991F880F991FDB
:105A200005970197F1F70895789484B5826084BD55
:105A300084B5816084BD85B5826085BD85B5816092
:105A400085BDEEE6F0E0808181608083E1E8F0E0F2
:105A50001082808182608083808181608083E0E821
:105A6000F0E0808181608083E1EBF0E08081846000
:105A70008083E0EBF0E0808181608083EAE7F0E002
:105A80008081846080838081826080838081816066
:105A900080838081806880831092C10008958E3059
:105AA00008F08E5087702091220190E4299F900188
:105AB0001124822B80937C0080917A0080648093F3
:105AC0007A0080917A0086FDFCCF80917800209149
:105AD000790090E0922B08951F93CF93DF93182FB6
