:100000000C9472000C949A000C949A000C949A0030
:100010000C949A000C949A000C949A000C944D093C
:100020000C949A000C949A000C949A000C946D0D08
:100030000C949A000C949A000C949A000C949A00D8
:100040000C94290E0C949A000C9492110C94C411E7
:100050000C949A000C949A000C949A000C949A00B8
:100060000C949A000C949A0005A84CCDB2D44EB9C9
:100070003836A9020C50B9918688083CA6AAAA2A4B
:10008000BE000000803F00000008000201000003E5
:100090000407000000000000000001020408102016
:1000A000408001020408102001020408102004040A
:1000B0000404040404040202020202020303030310
:1000C00003030000000023002600290000000000B8
:1000D000250028002B0000000000240027002A0033
:1000E000CE06F41111241FBECFEFD8E0DEBFCDBF86
:1000F00011E0A0E0B1E0EEECFCE202C005900D9250
:10010000A637B107D9F723E0A6E7B1E001C01D92F9
:10011000AF3AB207E1F710E0C4EED0E004C0229796
:10012000FE010E94C715C03ED107C9F70E943812D0
:100130000C9465160C94000081E0809380008BE0A5
:10014000809381000895CF93C82F61E083E00E94DF
:10015000B50F6C2F83E0CF910C94EE0FCF93C82F87
:1001600061E08EE00E94B50F6C2F8EE0CF910C9471
:10017000EE0FCF93C82F61E084E00E94B50F6C2F83
:1001800084E0CF910C94EE0FCF93C82F61E08DE007
:100190000E94B50F6C2F8DE0CF910C94EE0FCF9392
:1001A000DF93EB012CE231E040E050E0BC0188E657
:1001B00092E00E94060884E0CC0FDD1F8A95E1F7EB
:1001C000C55BDF4FD0930D01C0930C01DF91CF9140
:1001D00008954F925F926F927F928F929F92AF920B
:1001E000BF92CF92DF92EF92FF9226E030E040E0A4
:1001F00050E061E070E080E090E00E94C7120E9451
:10020000DF1320E030E040EC50E40E9449139B01F2
:10021000AC01609100027091010280910202909104
:1002200003020E94E5126093000270930102809322
:1002300002029093030226E030E040E050E061E0EB
:1002400070E080E090E00E94C7120E94DF1320E07F
:1002500030E040EC50E40E9449139B01AC016091F6
:10026000FC017091FD018091FE019091FF010E94BF
:10027000E5126093FC017093FD018093FE01909361
:10028000FF0126E030E040E050E061E070E080E017
:1002900090E00E94C7120E94DF1320E030E040ECA3
:1002A00050E40E9449132091F8013091F9014091E6
:1002B000FA015091FB010E94E5126B017C016093F1
:1002C000F8017093F9018093FA019093FB0120E00B
:1002D00030E040E85EE3609100027091010280919D
:1002E0000202909103020E949E1420E030E040E060
:1002F0005FE30E94E5120E9401154B015C0120E0C2
:1003000030E040E151E46091FC017091FD01809189
:10031000FE019091FF010E94491320E030E040E887
:100320005FE30E94E51226E636E646E050E40E94CE
:10033000E5120E9401152B013C0120E030E040E66F
:1003400051E4C701B6010E9449132BEA3AEA4AEA8E
:100350005EE30E94E51226E636E646E850E40E9497
:10036000E5120E94011520E030E040E85FE30E94C2
:10037000E51220E030E040E852E40E949E140E9422
:10038000B113E62E20E030E040E85FE3C301B201A4
:100390000E94E51220E030E040E852E40E949E1402
:1003A0000E94B113F62E20E030E040E85FE3C50183
:1003B000B4010E94E51220E030E040E852E40E94DF
:1003C0009E140E94B113D62E2E2D4F2D81E492E063
:1003D0000E94110B2E2D4F2D6D2D81E492E0FF9088
:1003E000EF90DF90CF90BF90AF909F908F907F90D5
:1003F0006F905F904F900C94170B0F931F93CF93B8
:10040000DF938C01EB0166277727681B790B85E367
:1004100092E00E945108BE018AE292E00E945108D7
:1004200010161106FCF480E01C161D0624F40E9430
:10043000A30080E02FC00E94A30080E00E94AE00D5
:1004400080E00E94B90081E00E94C40081E492E053
:100450000E945E0B81E492E0DF91CF911F910F919A
:100460000C944F0B1C161D068CF480E00E94A30018
:1004700080E00E94AE0081E00E94B90080E00E940E
:10048000C40081E492E00E94590B10C081E00E94F8
:10049000A30081E00E94AE0080E00E94B90080E0ED
:1004A0000E94C40081E492E00E945E0B81E492E02D
:1004B000DF91CF911F910F910C94540B80910C01FF
:1004C00090910D01BC010C94FD0180910C01909163
:1004D0000D01919581959109BC010C94FD018091CC
:1004E0000C0190910D01BC019195819591090C949D
:1004F000FD0180910C0190910D0166277727681B03
:10050000790B0C94FD0160E070E080E090E00C94C9
:10051000FD01CF93C82F0E94730E60932202709347
:1005200023028093240290932502C03409F4DBC097
:1005300060F5CD3009F4AAC0A8F4C83009F4ECC0C5
:1005400030F4C73009F0F4C083E090E0D4C0C93083
:1005500009F4CFC0CC3009F0EBC060E070E086E277
:1005600091E0E3C0C83109F4DCC020F4C53109F4DE
:1005700099C0DEC0C93109F4B9C0CC3109F0D8C086
:1005800065E070E089EB91E0D0C0C634E9F118F580
:10059000C33409F46EC040F4C23409F0C9C067E046
:1005A00070E08CE292E0C1C0C43409F455C0C53497
:1005B00009F0BEC086E990E090930D0180930C0194
:1005C000109229020E9483022CE231E040E050E0C8
:1005D00066E271E02AC0C23509F494C050F4C73411
:1005E00049F1CA3409F0A4C069E070E085E992E0FD
:1005F0009CC0CA3509F48BC0CE3509F099C063E0C0
:1006000070E08EE591E091C084E690E090930D015A
:1006100080930C0181E0809329020E9483022CE2E6
:1006200031E040E050E06AE471E088E692E0CF918A
:100630000C94060882E08093290284E690E090936F
:100640000D0180930C010E9483022CE231E040E016
:1006500050E06EE571E0E9CF88EC90E090930D01F9
:1006600080930C012CE231E040E050E069E871E059
:10067000DCCF8FEF90E090930D0180930C012CE282
:1006800031E040E050E069EB71E0CFCF85E080934E
:10069000290284E690E090930D0180930C010E9462
:1006A00083021AC08091260290E0019663E070E018
:1006B0000E94511580932602892B71F420E040E0BE
:1006C00060E081E492E00E94110B20E040E060E0F5
:1006D00081E492E00E94170B2CE231E040E050E010
:1006E0006FEE71E0A2CF81E090E005C082E090E083
:1006F00002C084E090E09093280280932702109239
:100700001C0216C068E070E08DE492E00EC066E066
:1007100070E08FEE91E009C064E070E089E891E05C
:1007200004C062E070E08AE491E0CF910C94CF00C5
:10073000CF91089528EE33E040E050E066E271E0AA
:1007400088E692E00E94A20781E00E94A30081E077
:100750000E94AE0081E00E94B90081E00E94C400C6
:100760000E94830281E492E00E94590B81E492E0AE
:100770000E944F0B65E08DE492E00E948C0B8DE4AB
:1007800092E00E94AF0B41E160E08DE492E00E94B4
:10079000CF0B42E061E08DE492E00E94CF0B44E099
:1007A00062E08DE492E00E94CF0B48E063E08DE4CC
:1007B00092E00E94CF0B40E164E08DE492E00E9461
:1007C000CF0B40E065E08DE492E00E94CF0B40E06B
:1007D00066E08DE492E00E94CF0B40E067E08DE49C
:1007E00092E00E94CF0B40E068E08DE492E00E942E
:1007F000CF0B40E169E08DE492E00E94CF0B48E02E
:100800006AE08DE492E00E94CF0B44E06BE08DE45F
:1008100092E00E94CF0B42E06CE08DE492E00E94F7
:10082000CF0B41E16DE08DE492E00E94CF0B2CE212
:1008300031E040E050E06FEE71E088E692E00E9427
:10084000A20726E040E052EC61E070E082E193E034
:100850000E94301189E692E00C940F0A80911C02EC
:10086000882351F0609118027091190280911A0248
:1008700090911B020C94FD01809127029091280217
:100880008230910571F02CF4009789F0019739F0CE
:1008900008958330910539F0049739F008950C9448
:1008A0005E020C9465020C946F020C9479020C9415
:1008B00083028091100281110DC00E94730E60931B
:1008C0000C0270930D0280930E0290930F0281E050
:1008D0008093100281E492E00E94C80A882399F173
:1008E00086E00E94100FBC01882777FD8095982F25
:1008F0000E949B1262E070E080E090E00E94A312F0
:1009000020910C0130910D01662361F0EE27FF2745
:10091000E21BF30BC9016BEF7FEF0E945115CB0176
:10092000BF0109C0C9016BEF7FEF0E9451158827F5
:100930009927821B930B0E94FD0164EF71E080E018
:1009400090E00C94A20E80910C0190910D01BC01DD
:100950000C94FD010F931F9380E492E00E94620DBE
:10096000853F914098F464E670E084E690E00E9450
:10097000FD01109208021092090210920A021092D0
:100980000B02109207021092060265C080910802C5
:1009900090910902A0910A02B0910B02892B8A2B37
:1009A0008B2B71F520910A0130910B0184E6829F17
:1009B000B001839F700D11244CE94203C001439F95
:1009C000900D11240E94FD010E94730E08EC10E0AE
:1009D0000090060202C0000F111F0A94E2F72227BE
:1009E00017FD2095322F600F711F821F931F609398
:1009F00008027093090280930A0290930B022BC0A5
:100A00000E94730E009108021091090220910A02BF
:100A100030910B026017710782079307E0F0109284
:100A200008021092090210920A0210920B028091A1
:100A30000A0190910B0191958195910990930B0179
:100A400080930A018091060290910702019690938B
:100A50000702809306021F910F910895809104026E
:100A6000909105028531910594F066E970E080E08F
:100A700090E00E94FD0164E670E080E090E00E945A
:100A8000A20E8091040290910502019713C0449731
:100A9000A9F060E070E086E990E00E94FD0164E664
:100AA00070E080E090E00E94A20E8091040290919C
:100AB000050201969093050280930402809104023E
:100AC000909105028531910529F41092050210924A
:100AD00004020895439731F488E290E09093050270
:100AE000809304020895DC01ED91FC911197CF01F0
:100AF000019611969C938E9320812032A9F70C9435
:100B00003716FB012191BF01222339F0FC013191FD
:100B1000CF013217B1F380E0089581E00895CF93BB
:100B2000DF93EB01FC0101900020E9F7AF01415098
:100B30005109481B590BE0911203F09113030280F5
:100B4000F381E02DBC0182E193E00995BE0182E1D1
:100B500093E0DF91CF910C9489120F931F93CF9361
:100B6000DF9300D000D01F92CDB7DEB79A83898380
:100B70008C0167E271E00E948105882331F06BE20D
:100B800071E0C8010E948F05FFC06BE371E0C801EE
:100B90000E948105882351F06FE371E0C8010E9433
:100BA0008F058DE492E00E94AF0BEEC062E471E02D
:100BB000C8010E9481058823B1F06FE371E0C8018C
:100BC0000E948F05CE0101960E947305682FCE0109
:100BD00001966D830E947305482F6D818DE492E02C
:100BE0000E941F0CD1C065E471E0C8010E9481051C
:100BF0008823B1F06FE371E0C8010E948F05CE0138
:100C000001960E947305682FCE0101966D830E94A4
:100C10007305482F6D818DE492E00E94F80BB4C0FB
:100C200068E471E0C8010E948105882381F0CE014B
:100C300001960E9473058C01CE0101960E947305F6
:100C40009C01442737FD4095542FB80196C06BE4B2
:100C500071E0C8010E9481058823F9F0CE01019658
:100C60000E947305682FCE0101966D830E94730563
:100C7000482FCE0101964C830E947305282FCE0188
:100C800001962B830E947305082F2B814C816D8167
:100C900081E492E00E941D0B77C06FE471E0C8010F
:100CA0000E9481058823A1F081E080931C02CE017F
:100CB00001960E94730590931B0280931A02CE0145
:100CC00001960E94730590931902809318025CC0EC
:100CD00062E571E0C8010E948105882309F454C0CF
:100CE0006FE371E0C8010E948F0589819A810296A5
:100CF0000E943716813089F4809121028093290265
:100D000080911E0290911F0290930D0180930C011F
:100D100080912002809326022AC0823099F580912A
:100D200026028093200280910C0190910D019093F6
:100D30001F0280931E02809129028093210210924B
:100D400029021092260220E040E060E081E492E077
:100D50000E94110B20E040E060E081E492E00E94FC
:100D6000170B60E070E080E090E00E94FD012CE253
:100D700031E040E050E066E271E088E692E00E94F7
:100D8000060802C00E9489020F900F900F900F90EA
:100D90000F90DF91CF911F910F91089562E089E646
:100DA00092E00E94030A67E088E692E00E949F07B3
:100DB00060E18DE492E00E94880B62E181E492E0C0
:100DC0000E94AC0A63E180E492E00E94600D62E060
:100DD00085E392E00E94370861E08AE292E00E9497
:100DE0003708809129028093210280912602809306
:100DF000200280910C0190910D0190931F0280932D
:100E00001E0208951F93CF93DF93C0E8D0E010E255
:100E100082E193E00E944D10892B81F182E193E001
:100E20000E9466102091F6013091F7018A30C1F4DA
:100E3000C9010197FC01EA58FE4F40814D3011F481
:100E40009C01F6CFF901EA58FE4F108311821092EF
:100E5000F7011092F60186E791E00E94AD05D8CF28
:100E6000F901EA58FE4F8083C9010196BE010E9434
:100E700051159093F7018093F601CACFDF91CF917E
:100E80001F9108950F931F9380911D02882319F0DD
:100E90000E94020714C082E193E00E944D10892B4A
:100EA00021F081E080931D020AC089E692E00E9451
:100EB000820A892B21F080916C020E9489020E9493
:100EC000730E00912202109123022091240230918E
:100ED0002502601B710B820B930B6937710581052D
:100EE000910570F00E94730E6093220270932302AA
:100EF00080932402909325021092280210922702D8
:100F000080912902813059F038F0823059F08530D3
:100F100059F40E942E0508C00E942E0405C00E94AC
:100F2000590402C00E94AA0480912602813021F453
:100F30001F910F910C94E9001F910F9108956093F8
:100F4000740208954F925F926F927F928F929F9258
:100F5000AF92BF92CF92DF92EF92FF920F931F93C7
:100F6000CF93DF9369017A019B0140E050E060E498
:100F700072E48FE090E00E948715E901890137FF54
:100F800002C00F5F1F4F1595079561E080917402B5
:100F90000E94B50FA8EEB3E0A70196010E94A61526
:100FA0004B015C01C12CD12C76012E01662457FC2B
:100FB0006094762CC814D904EA04FB04B0F461E010
:100FC000809174020E94EE0FC8010E94CA0E60E078
:100FD000809174020E94EE0FC8010E94CA0EA8956B
:100FE000C40CD51CE61CF71CE5CFDF91CF911F91F7
:100FF0000F91FF90EF90DF90CF90BF90AF909F90B8
:101000008F907F906F905F904F900895F8940E941A
:10101000A207789408950F931F93CF93DF93EC0169
:10102000062F10E0000F111F025F1E4F633050F0BB
:10103000F8016081CE010E94480CF8018181898706
:1010400018860CC061E0F80181810E94B50FF8019B
:1010500080818D8381818C8381E088878CE291E01F
:101060009F838E83DF91CF911F910F9108950F93EE
:101070001F93CF93DF931F92CDB7DEB78C016983A7
:101080000E94470CF801178216821086118612867C
:101090006981C8010F90DF91CF911F910F910C943E
:1010A0000B08EF92FF920F931F93CF93DF9300D023
:1010B000CDB7DEB77C01FC018285811109C069834F
:1010C0007A830E949C0081E0F70182877A8169819E
:1010D0008B016F3F710519F014F00FEF10E0013034
:1010E000FFEF1F0714F401E01FEFF70186819781DE
:1010F0008017910709F4C8C017830683808517FD00
:101100004EC0813079F58481873019F4848160E0A4
:1011100006C0F7018481883089F4848161E00E94EF
:10112000EE0FF7018581B8010F900F90DF91CF91FD
:101130001F910F91FF90EF900C942D0FF701848178
:10114000893029F0F7018481863009F09DC08481BF
:1011500061E00E94EE0FF70185816FEF70E0601B88
:10116000710BE2CFC7010E94620C62E0C7010E94CE
:10117000D90CC7010E94620CF7016185C7010E946A
:10118000D90CB801882777FD8095982F0E94DF132E
:1011900023E333E343E250E40E94491364C0813007
:1011A000F1F5F7018481873061F4848161E00E9468
:1011B000EE0FF701858166277727601B710B0E9470
:1011C0002D0FF7018481883061F4848160E00E94F2
:1011D000EE0FF701858166277727601B710B0E9450
:1011E0002D0FF7018481893059F4858161E00E94D7
:1011F000EE0FF7018481B80161507F4F0E942D0FDF
:10120000F7018481863009F03FC0858161E00E944A
:10121000EE0FF7018481B80161507F4F85CFC70180
:101220000E94620C62E0C7010E94D90CC7010E94B3
:10123000620CF7016185C7010E94D90CB8018827AB
:1012400077FD8095982F0E94DF1323E333E343E279
:1012500050E40E9449139B01AC0160E070E088EC0F
:1012600092E40E94E4120E94B113C7010E94D90CBB
:1012700084EF91E00F900F90DF91CF911F910F912C
:10128000FF90EF900C94CA0E0F900F90DF91CF91CA
:101290001F910F91FF90EF9008951F920F920FB63C
:1012A0000F9211240F931F932F933F934F935F93AC
:1012B0006F937F938F939F93AF93BF93CF93EF934E
:1012C000FF93809175020E942410C82F20917C0208
:1012D00030917D022F5F3F4F30937D0220937C023F
:1012E0008091E202843618F085E080937702909135
:1012F0007702933079F018F4923039F070C094305E
:1013000011F1953009F44AC06AC0C11168C0109249
:10131000E20229C0C13009F062C0E091E20281E03E
:101320008E0F8093E202F0E080917C0290917D022A
:10133000EA58FD4F808710927D0210927C0284E073
:10134000809377024CC0C11114C0E091E20281E0A9
:101350008E0F8093E202F0E080917C0290917D02FA
:10136000EA58FD4F808710927D0210927C0283E044
:10137000E7CF80917C0290917D028536910578F1CE
:1013800085E0809377020E94730E609378027093D9
:10139000790280937A0290937B0221C00E94730E9F
:1013A000009178021091790220917A0230917B02AB
:1013B000601B710B820B930B693C710581059105D4
:1013C00040F01092E20210927D0210927C0282E0C4
:1013D000B7CFC11104C010927D0210927C02FF9120
:1013E000EF91CF91BF91AF919F918F917F916F912D
:1013F0005F914F913F912F911F910F910F900FBED1
:101400000F901F901895609375028091750260E0AF
:101410000E94B50F80917502809376020895F8942A
:1014200082E08093B0008093B10094E69093B30083
:101430001092B2008093700078941092E202809330
:10144000770208951F93CF93DF93FC01A681B781A4
:101450008C9186588D3558F480859185833091051F
:10146000A1F411968C9111978152893118F080E086
:1014700090E044C012968C9188508730C0F7158256
:1014800081E0808381E090E039C0833491057CF372
:1014900011968C91119783548F3248F782E090E037
:1014A00040E050E0BA019D012F5F3F4FEC01CA0FB1
:1014B000DB1FC881C850C730D0F6E901C80FD91F5B
:1014C00018811751133180F4769567955795479594
:1014D000706802968234910549F780E285834183E2
:1014E000528363837483CCCFC881C850C73008F05F
:1014F000BECF7695679557954795EBCFDF91CF9106
:101500001F9108950F931F93CF93DF93EC018EE704
:1015100092E09F838E838091E20290E09987888792
:1015200080917702853081F4CE010E94220A8C01DD
:10153000CE010115110529F00E940F0A01E010E00B
:1015400005C00E940F0A02C000E010E0C801DF9150
:10155000CF911F910F9108950F931F93CF93DF9316
:101560001F92CDB7DEB78C0169830E94470CF8014A
:10157000158216821782108611861286138669815B
:10158000C8010F90DF91CF911F910F910C94480CDF
:10159000CF93DF93EC010E94620C811111C062E0D5
:1015A000CE010E94D90CCE010E94900CCE010E9467
:1015B000410D8C8388E293E20E94CA0E8C8101C0A7
:1015C00080E0DF91CF910895CF93DF93EC010E94EB
:1015D000620C811123C063E0CE010E94D90CCE01C0
:1015E0000E94620C81111AC06E81CE010E94D90C3A
:1015F0006F81CE010E94D90C6885CE010E94D90C62
:101600006985CE010E94D90C6A85CE010E94D90C51
:101610006B85CE01DF91CF910C94D90CDF91CF91E6
:101620000895FC016683478320870C94E40AFC013B
:101630006187428723870C94E40A0F93FC0160FFC3
:1016400003C046832783008761FF03C04187228749
:101650000387637021F0CF010F910C94E40A0F917E
:1016600008951F93CF93DF93EC01162F0E94620C15
:10167000811111C064E0CE010E94D90CCE010E94FC
:10168000620C811108C01D836D81CE01DF91CF9165
:101690001F910C94D90CDF91CF911F910895FC01FB
:1016A000658161600C94310BFC0165816E7F0C9447
:1016B000310BFC01658162600C94310BFC0165818A
:1016C0006D7F0C94310B0F931F93CF93DF9300D05A
:1016D0001F92CDB7DEB78C012B834A8369830E94AA
:1016E000470CF801349685E1DF011D928A95E9F7F0
:1016F0004A81F801418F2B81228F6981C8010F90A7
:101700000F900F90DF91CF911F910F910C94480C87
:1017100025E04EE00C94630B1F93CF93DF93EC0115
:10172000162F0E94620C811116C066E0CE010E9445
:10173000D90CCE010E94620C612F183008F067E0CE
:101740006868CE010E94D90C88EB9BE0DF91CF91B5
:101750001F910C94CA0EDF91CF911F910895CF93E2
:10176000DF93EC01298D80E090E0821730F4FE01D8
:10177000E80FF91F14820196F8CFCE010E94620C87
:1017800081110AC065E0CE010E94D90C88E893E17E
:10179000DF91CF910C94CA0EDF91CF9108950F93F2
:1017A0001F93CF93DF93EC01162F042F898D6817B9
:1017B000D0F4CE010E94620C811115C063E0CE010D
:1017C0000E94D90CCE010E94620C81110CC0612FC5
:1017D000CE010E94D90C602FCE01DF91CF911F91D5
:1017E0000F910C94D90CDF91CF911F910F91089517
:1017F000CF93DF93E62FF0E0DC0159962C915997B7
:1018000030E0E217F307C4F4242F30E05A96AC918D
:10181000B0E02A173B0784F4E80FF91F548121E058
:1018200030E001C0220F4A95EAF7522B54834481DD
:10183000DF91CF910C94CF0BDF91CF910895CF938F
:10184000DF93E62FF0E0DC0159962C91599730E0B8
:10185000E217F307CCF4242F30E05A96AC91B0E0B5
:101860002A173B078CF4E80FF91F548121E030E080
:1018700001C0220F4A95EAF720952523248344814D
:10188000DF91CF910C94CF0BDF91CF910895089504
:10189000DC016C9370E0FB01E656FF4FE49111967A
:1018A000EC931197FB01E255FF4FE491F0E0EE0F4E
:1018B000FF1FEE53FF4F8591949113969C938E9347
:1018C00012970895FF920F931F93CF93DF938C018C
:1018D000FC01F180C281D38189818F2989839A811A
:1018E0008F2D809589238A8380EE91E00E94CA0E15
:1018F00060E0F80180810E94B50F82E390E00E94D1
:10190000CA0EC88184E690E00E94CA0EFC2281E0E3
:1019100009F480E0DF91CF911F910F91FF9008951E
:10192000AF92BF92CF92DF92EF92FF920F931F93ED
:10193000CF93DF938C01FC01B180C281D3810E94DF
:10194000730E6B017C018981AB2CA0948A21898361
:101950008A818B298A8388818B2169F00E94730E8A
:101960006C197D098E099F09653671058105910500
:1019700090F380E013C088818B21E9F389818B2962
:1019800089838A818A218A838EE190E00E94CA0E2F
:1019900060E0F80180810E94B50F81E0DF91CF9176
:1019A0001F910F91FF90EF90DF90CF90BF90AF907D
:1019B00008950F931F93CF93DF93EC01062F18E048
:1019C000F89460E088810E94EE0F61E088810E94B7
:1019D000B50F85E090E00E94CA0E00FF02C061E0F2
:1019E00001C060E088810E94EE0F069578948EE138
:1019F00090E00E94CA0E61E088810E94EE0F85E0AF
:101A000090E00E94CA0E1150D9F660E08881DF9103
:101A1000CF911F910F910C94B50FCF92DF92EF925F
:101A2000FF921F93CF93DF93FC011181C281D38179
:101A30000E94730E6B017C018881812359F00E9402
:101A4000730E6C197D098E099F096430710581053B
:101A5000910590F3F8948EE190E00E94CA0EC8813F
:101A6000789488E290E00E94CA0E1C2381E009F479
:101A700080E0DF91CF911F91FF90EF90DF90CF90AA
:101A800008950F931F93CF93DF93EC0160E088815B
:101A90000E94B50F08E010E0CE010E940D0D20E875
:101AA000829FC00111241695182B0150A9F7812F90
:101AB000DF91CF911F910F910895FC0160830895EC
:101AC0000C945D0DFC0180810E94100F2FEF33E01C
:101AD000A901481B590BCA0108951F920F920FB616
:101AE0000F9211242F933F934F935F936F937F93A4
:101AF0008F939F93AF93BF93EF93FF938091E402F3
:101B000087FF05C010928500109284001AC02091B2
:101B1000E402332727FD30958091E30290E02817F7
:101B200039077CF48091E402992787FD9095FC01A8
:101B3000EE0FFF1FE80FF91FEB51FD4F808187FD6E
:101B400015C08091E4028F5F8093E4022091E4024B
:101B5000332727FD30958091E30290E0281739075D
:101B6000BCF48091E4028C305CF112C08091E402FC
:101B7000992787FD9095FC01EE0FFF1FE80FF91FD5
:101B8000EB51FD4F808160E08F770E94EE0FD9CF3F
:101B90008091840090918500049680349C4918F4CB
:101BA00080E49CE905C080918400909185000496B2
:101BB00090938900809388008FEF8093E40238C06F
:101BC00020918400309185008091E402992787FD5F
:101BD0009095FC01EE0FFF1FE80FF91FEB51FD4F31
:101BE00081819281820F931F909389008093880056
:101BF0008091E402992787FD9095FC01EE0FFF1F6D
:101C0000E80FF91FEB51FD4F808187FF11C08091D4
:101C1000E402992787FD9095FC01EE0FFF1FE80F66
:101C2000F91FEB51FD4F808161E08F770E94EE0F2D
:101C3000FF91EF91BF91AF919F918F917F916F91A4
:101C40005F914F913F912F910F900FBE0F901F907A
:101C500018951F920F920FB60F9211242F933F9356
:101C60008F939F93AF93BF9380910A0390910B033F
:101C7000A0910C03B0910D033091090323E0230FD1
:101C80002D3720F40196A11DB11D05C026E8230FB4
:101C90000296A11DB11D2093090380930A0390931E
:101CA0000B03A0930C03B0930D0380910E0390914E
:101CB0000F03A0911003B09111030196A11DB11D56
:101CC00080930E0390930F03A0931003B09311031E
:101CD000BF91AF919F918F913F912F910F900FBE28
:101CE0000F901F9018952FB7F89460910A03709188
:101CF0000B0380910C0390910D032FBF08953FB704
:101D0000F89480910E0390910F03A0911003B0916D
:101D1000110326B5A89B05C02F3F19F00196A11D00
:101D2000B11D3FBF6627782F892F9A2F620F711D33
:101D3000811D911D42E0660F771F881F991F4A95EC
:101D4000D1F70895CF92DF92EF92FF92CF93DF9376
:101D50006B017C010E947F0EEB01C114D104E104F0
:101D6000F10489F00E94E3120E947F0E6C1B7D0B30
:101D7000683E734090F381E0C81AD108E108F10889
:101D8000C851DC4FEACFDF91CF91FF90EF90DF9009
:101D9000CF9008958230910538F0880F991F880FF1
:101DA000991F05970197F1F70895789484B582609B
:101DB00084BD84B5816084BD85B5826085BD85B5EF
:101DC000816085BDEEE6F0E0808181608083E1E89E
:101DD000F0E01082808182608083808181608083D6
:101DE000E0E8F0E0808181608083E1EBF0E08081D9
:101DF00084608083E0EBF0E0808181608083EAE7AB
:101E0000F0E0808184608083808182608083808133
:101E1000816080838081806880831092C1000895F2
:101E20008E3008F08E5087702091260190E4299F13
:101E300090011124822B80937C0080917A00806431
:101E400080937A0080917A0086FDFCCF80917800A3
:101E50002091790090E0922B08951F93CF93DF9308
:101E6000182FEB0161E00E94B50F209711F460E09C
:101E700004C0CF3FD10539F461E0812FDF91CF91CC
:101E80001F910C94EE0FE12FF0E0EA57FF4FE49121
:101E9000E330F9F048F4E130B9F0E230A1F584B56F
:101EA000806284BDC8BD34C0E730E9F0E83019F184
:101EB000E43049F580918000806280938000D09367
:101EC0008B00C0938A0024C084B5806884BDC7BDE0
:101ED0001FC080918000806880938000D09389002B
:101EE000C093880015C08091B00080688093B000D6
:101EF000C093B3000DC08091B00080628093B000A9
:101F0000C093B40005C0C038D1050CF0B5CFAFCF39
:101F1000DF91CF911F910895833081F028F48130B3
:101F200099F08230A1F008958730A9F08830B9F097
:101F30008430D1F4809180008F7D03C08091800037
:101F40008F7780938000089584B58F7702C084B521
:101F50008F7D84BD08958091B0008F7703C08091FC
:101F6000B0008F7D8093B0000895CF93DF9390E011
:101F7000FC01E656FF4F2491FC01E255FF4F84918E
:101F8000882349F190E0880F991FFC01EA52FF4F26
:101F9000A591B49184539F4FFC01C591D4919FB7F3
:101FA000611108C0F8948C91209582238C938881CC
:101FB00082230AC0623051F4F8948C91322F30950C
:101FC00083238C938881822B888304C0F8948C911E
:101FD000822B8C939FBFDF91CF9108950F931F9316
:101FE000CF93DF931F92CDB7DEB7282F30E0F901F2
:101FF000EA57FF4F8491F901E656FF4F1491F9011A
:10200000E255FF4F04910023C9F0882321F0698332
:102010000E948C0F6981E02FF0E0EE0FFF1FE45368
:10202000FF4FA591B4919FB7F8948C91611103C0B3
:102030001095812301C0812B8C939FBF0F90DF915E
:10204000CF911F910F910895CF93DF93282F30E008
:10205000F901EA57FF4F8491F901E656FF4FD491F9
:10206000F901E255FF4FC491CC2391F081110E94F8
:102070008C0FEC2FF0E0EE0FFF1FEE53FF4FA591FA
:10208000B4912C912D2381E090E021F480E002C0F6
:1020900080E090E0DF91CF910895FC01818D228D49
:1020A00090E0805C9F4F821B91098F739927089560
:1020B000FC01918D828D981731F0828DE80FF11D12
:1020C000858D90E008958FEF9FEF0895FC01918D2D
:1020D000828D981761F0828DDF01A80FB11D5D968A
:1020E0008C91928D9F5F9F73928F90E008958FEFF8
:1020F0009FEF08958AEE91E1892B49F080E090E00E
:10210000892B29F00E94EA1181110C940000089596
:10211000FC01848DDF01A80FB11DA35ABF4F2C9184
:10212000848D90E001968F739927848FA689B78953
:102130002C93A089B1898C9180648C93938D848D2C
:10214000981306C00288F389E02D80818F7D8083FB
:102150000895CF93DF93EC01888D8823C9F0EA8935
:10216000FB89808185FD05C0A889B9898C9186FD90
:102170000FC00FB607FCF5CF808185FFF2CFA8898D
:10218000B9898C9185FFEDCFCE010E948810E7CFF1
:10219000DF91CF910895CF92DF92FF920F931F931B
:1021A000CF93DF931F92CDB7DEB76C0181E0D601EC
:1021B00058968C9358975B969C915B975C968C9104
:1021C0005C97981307C05096ED91FC9151978081D0
:1021D00085FD2EC0F601038D10E00F5F1F4F0F73BA
:1021E0001127F02EF601848DF81211C00FB607FCEE
:1021F000F9CFD6015096ED91FC915197808185FFE2
:10220000F1CFC60169830E9488106981EBCF838D6D
:10221000E80FF11DE35AFF4F6083D6015B960C93E4
:102220005B975296ED91FC915397808180620CC030
:10223000D6015696ED91FC91579760835096ED919B
:10224000FC91519780818064808381E090E00F90C1
:10225000DF91CF911F910F91FF90DF90CF90089564
:10226000BF92CF92DF92EF92FF92CF93DF93EC0178
:102270006A017B01B22EE889F98982E080834115E9
:1022800081EE580761057105A1F060E079E08DE30A
:1022900090E0A70196010E9465152150310941097E
:1022A00051095695479537952795211580E13807AF
:1022B00098F0E889F989108260E874E88EE190E08E
:1022C000A70196010E946515215031094109510964
:1022D0005695479537952795EC85FD853083EE8596
:1022E000FF852083188EEC89FD89B082EA89FB89FD
:1022F000808180618083EA89FB8980818860808316
:10230000EA89FB89808180688083EA89FB898081F2
:102310008F7D8083DF91CF91FF90EF90DF90CF9002
:10232000BF9008951F920F920FB60F9211242F9312
:102330008F939F93EF93FF93E0912203F0912303F8
:102340008081E0912803F091290382FD12C09081E1
:1023500080912B038F5F8F7320912C03821751F094
:10236000E0912B03F0E0EE5EFC4F958F80932B0302
:1023700001C08081FF91EF919F918F912F910F90DC
:102380000FBE0F901F9018951F920F920FB60F92CD
:1023900011242F933F934F935F936F937F938F936A
:1023A0009F93AF93BF93EF93FF9382E193E00E94DB
:1023B0008810FF91EF91BF91AF919F918F917F9185
:1023C0006F915F914F913F912F910F900FBE0F90A2
:1023D0001F90189582E193E00E944D1021E0892B17
:1023E00009F420E0822F089510921503109214032F
:1023F00088EE93E0A0E0B0E080931603909317037B
:10240000A0931803B093190389E591E09093130307
:102410008093120385EC90E090931F0380931E033A
:1024200084EC90E0909321038093200380EC90E073
:10243000909323038093220381EC90E090932503F3
:102440008093240382EC90E09093270380932603EB
:1024500086EC90E0909329038093280310922B033D
:1024600010922C0310922D0310922E0308950895BC
:102470000E94D50E0E9437120E949A03CAE7D0E14B
:102480000E9442072097E1F30E947A10F9CFCF9281
:10249000DF92EF92FF920F931F93CF93DF936C0124
:1024A0007A01EB01E60EF71E00E010E0CE15DF0525
:1024B00061F06991D601ED91FC910190F081E02DE0
:1024C000C6010995080F191FF1CFC801DF91CF91FF
:1024D0001F910F91FF90EF90DF90CF9008956115BD
:1024E000710581F0DB010D900020E9F7AD0141504D
:1024F0005109461B570BDC01ED91FC910280F381E1
:10250000E02D099480E090E0089565E671E00C9478
:102510006F120F931F93CF93DF93EC010E946F1202
:102520008C01CE010E948512800F911FDF91CF9107
:102530001F910F910895611571058105910511F0A5
:102540000C942E160895CF93DF9300D000D0CDB712
:10255000DEB79B01AC01611571058105910569F03C
:1025600069833A834B835C830E94291629813A81CF
:102570004B815C810E94871503C060E070E0CB0155
:102580000F900F900F900F90DF91CF910895CF9201
:10259000DF92EF92FF926B017C0162177307840751
:1025A000950764F4CA01B9016C197D098E099F0968
:1025B0000E94A3126C0D7D1D8E1D9F1DFF90EF903C
:1025C000DF90CF90089508955058BB27AA270ED0CA
:1025D0007BC16CD130F071D120F031F49F3F11F408
:1025E0001EF43CC10EF4E095E7FB24C1E92F7DD138
:1025F00080F3BA17620773078407950718F071F420
:102600009EF595C10EF4E0950B2EBA2FA02D0B016F
:10261000B90190010C01CA01A0011124FF27591B27
:1026200099F0593F50F4503E68F11A16F040A22F2D
:10263000232F342F4427585FF3CF4695379527959E
:10264000A795F0405395C9F77EF41F16BA0B620B9D
:10265000730B840BBAF09150A1F0FF0FBB1F661FE4
:10266000771F881FC2F70EC0BA0F621F731F841F27
:1026700048F4879577956795B795F7959E3F08F04D
:10268000B3CF9395880F08F09927EE0F979587950C
:1026900008950CD019C111D140F008D130F021F4C7
:1026A0005F3F19F0C7C0511143C1D8C01ED198F384
:1026B0009923C9F35523B1F3951B550BBB27AA27C3
:1026C00062177307840738F09F5F5F4F220F331F35
:1026D000441FAA1FA9F333D00E2E3AF0E0E830D001
:1026E00091505040E695001CCAF729D0FE2F27D004
:1026F000660F771F881FBB1F261737074807AB07D2
:10270000B0E809F0BB0B802DBF01FF2793585F4F46
:102710002AF09E3F510568F08DC00AC15F3FECF37F
:10272000983EDCF3869577956795B795F7959F5F0B
:10273000C9F7880F911D9695879597F90895E1E05F
:10274000660F771F881FBB1F621773078407BA07BE
:1027500020F0621B730B840BBA0BEE1F88F7E09519
:102760000895CBD088F09F5790F0B92F9927B75193
:10277000A0F0D1F0660F771F881F991F1AF0BA9545
:10278000C9F712C0B13081F0D2D0B1E00895CFC006
:10279000672F782F8827B85F39F0B93FCCF386953B
:1027A00077956795B395D9F73EF490958095709598
:1027B00061957F4F8F4F9F4F0895E89409C097FB15
:1027C0003EF490958095709561957F4F8F4F9F4F08
:1027D0009923A9F0F92F96E9BB279395F69587954C
:1027E00077956795B795F111F8CFFAF4BB0F11F40F
:1027F00060FF1BC06F5F7F4F8F4F9F4F16C08823B6
:1028000011F096E911C0772321F09EE8872F762FEB
:1028100005C0662371F096E8862F70E060E02AF02C
:102820009A95660F771F881FDAF7880F9695879518
:1028300097F9089597F99F6780E870E060E0089540
:102840009F3F31F0915020F4879577956795B79524
:10285000880F911D9695879597F908959FEF80ECC5
:102860000895DF93CF931F930F93FF92EF92DF9220
:102870007B018C01689405C0DA2EEF016BD0FE015C
:10288000E894A5912591359145915591AEF3EF01CD
:10289000ADDEFE019701A801DA9479F7DF90EF90A1
:1028A000FF900F911F91CF91DF91089500240A941A
:1028B0001616170618060906089500240A9412161B
:1028C0001306140605060895092E0394000C11F44E
:1028D000882352F0BB0F40F4BF2B11F460FF04C0FB
:1028E0006F5F7F4F8F4F9F4F089557FD9058440F54
:1028F000551F59F05F3F71F04795880F97FB991F5F
:1029000061F09F3F79F0879508951216130614061B
:10291000551FF2CF4695F1DF08C0161617061806A8
:10292000991FF1CF86957105610508940895E89483
:10293000BB2766277727CB0197F908950BD0C4CF23
:10294000B5DF28F0BADF18F0952309F073CF86CFF2
:102950001124EECFCADFA0F3959FD1F3950F50E07D
:10296000551F629FF001729FBB27F00DB11D639F41
:10297000AA27F00DB11DAA1F649F6627B00DA11DE7
:10298000661F829F2227B00DA11D621F739FB00D8D
:10299000A11D621F839FA00D611D221F749F3327FD
:1029A000A00D611D231F849F600D211D822F762F96
:1029B0006A2F11249F5750408AF0E1F088234AF093
:1029C000EE0FFF1FBB1F661F771F881F91505040DF
:1029D000A9F79E3F510570F02DCFAACF5F3FECF3D2
:1029E000983EDCF3869577956795B795F795E795CB
:1029F0009F5FC1F7FE2B880F911D9695879597F9DC
:102A000008959F9305D00F9007FCEE5F28C026CF56
:102A100074DFE8F3E894E0E0BB279F57F0F02AED7D
:102A20003FE049EC06C0EE0FBB0F661F771F881F03
:102A300028F0B23A62077307840728F0B25A620B93
:102A4000730B840BE3959A9572F7803830F49A955E
:102A5000BB0F661F771F881FD2F79048F3CEEF9306
:102A6000E0FF06C0A2EA2AED3FE049EC5FEBBEDDE5
:102A70002BDF0F90039401FC9058E8E6F0E000C0D3
:102A80009F938F937F936F93FF93EF939B01AC0181
:102A900055DFEF91FF91E5DE2F913F914F915F91CF
:102AA0004DCF97FB072E16F4009407D077FD09D081
:102AB0000E94B11507FC05D03EF4909581959F4F7B
:102AC0000895709561957F4F0895A1E21A2EAA1B73
:102AD000BB1BFD010DC0AA1FBB1FEE1FFF1FA217CE
:102AE000B307E407F50720F0A21BB30BE40BF50BCB
:102AF000661F771F881F991F1A9469F76095709554
:102B0000809590959B01AC01BD01CF010895052EE4
:102B100097FB1EF400940E949E1557FD07D00E945B
:102B2000651507FC03D04EF40C949E155095409506
:102B3000309521953F4F4F4F5F4F08959095809569
:102B4000709561957F4F8F4F9F4F08950E94CB15D1
:102B5000A59F900DB49F900DA49F800D911D1124F1
:102B60000895AA1BBB1B51E107C0AA1FBB1FA617D4
:102B7000B70710F0A61BB70B881F991F5A95A9F726
:102B800080959095BC01CD010895EE0FFF1F059033
:102B9000F491E02D0994A29FB001B39FC001A39FBF
:102BA000700D811D1124911DB29F700D811D112486
:102BB000911D08958F929F92AF92BF92CF92DF9214
:102BC000EF92FF92CF93DF93EC01688179818A8144
:102BD0009B81611571058105910521F464E279ED10
:102BE0008BE597E02DE133EF41E050E00E9487153F
:102BF00049015A019B01AC01A7EAB1E40E94A61564
:102C00006B017C01ACEEB4EFA50194010E9460164B
:102C1000C60ED71EE81EF91EF7FE06C081E0C81AD0
:102C2000D108E10880E8F80AC882D982EA82FB82EA
:102C3000C701B6019F77DF91CF91FF90EF90DF90B2
:102C4000CF90BF90AF909F908F9008950E94DA151B
:102C5000089586E091E00E94DA15089560930601D8
:102C60007093070180930801909309010895FC0176
:102C700088279927E89421912032E9F3293010F030
:102C80002E30C8F32B3241F02D3239F4689404C051
:102C90000E945516820F911D219120532A30C0F3B6
:102CA0001EF4909581959F4F08957AE0979F902DFF
:102CB000879F802D910D11240895B7FF0C94A615C0
:0E2CC0000E94A615821B930B0895F894FFCF77
:102CCE000000AF038000010000000100960000002C
:102CDE000A090506000000000000000000000000C8
:102CEE0000000000000001564552007765656562E0
:102CFE006F746D696E695F415F31004C4641004FE4
:102D0E004B004C46004C4F00425A00524742004A7C
:102D1E00530049520000000000CB1047124D1066C0
:102D2E00105810A9100D0A006E616E00696E6600D3
:062D3E006F7666002E0016
:00000001FF
