:100000000C9488000C94B0000C94B0000C94B000D8
:100010000C94B0000C94B0000C94B0000C94380F09
:100020000C94B0000C94B0000C94B0000C941A1B0B
:100030000C94B0000C94B0000C94B0000C94B00080
:100040000C940E1D0C94B0000C9477200C94A920F5
:100050000C94B0000C94B0000C94B0000C94B00060
:100060000C94B0000C94B0000000000800020100E5
:100070000003040700000000000000000102040863
:100080001020408001020408102001020408102002
:10009000040404040404040402020202020203032E
:1000A00003030303000000002300260029000000D2
:1000B0000000250028002B0000000000240027007D
:1000C0002A006364696E6F70737578585B004E41E7
:1000D0004E494E495459494E46CDCCCC3D0AD723C2
:1000E0003C17B7D13877CC2B329595E6241FB14F0A
:1000F0000A000020410000C84200401C4620BCBE4F
:100100004CCA1B0E5AAEC59D7400E608D920490999
:1001100011241FBECFEFD8E0DEBFCDBF11E0A0E0BD
:10012000B1E0EAEFF9E502C005900D92AC39B107F4
:10013000D9F724E0ACE9B1E001C01D92AD33B207BC
:10014000E1F711E0CEE0D1E004C02297FE010E9469
:100150007226CA30D107C9F70E941D210C94F02CD9
:100160000C94000061E088EA92E00E94B10D60E02A
:1001700070E088EA92E00E94F70D62E088EA92E07F
:100180000E94B10D60E070E088EA92E00C94F70DF7
:100190000895CF93DF93E3E2F2E0C0E0D0E0419135
:1001A000242F30E028173907C9F0411110C0FE0193
:1001B000ED5DFD4F80839E01220F331F2C0F3D1FED
:1001C000BC01C901835D9D4F0E94701C07C0219630
:1001D000CA30D10521F780E090E001C0CE01DF9167
:1001E000CF910895EF92FF920F931F93CF93DF93D8
:1001F000EB01FC016081613401F5FF92EF921F93E6
:100200000F933F932F935F934F93DF93CF932BE302
:1002100031E03F932F939F938F930E94032888810F
:1002200099810E96998388838DB79EB70E960FB6E7
:10023000F8949EBF0FBE8DBF1AC0FF92EF921F931E
:100240000F933F932F935F934F93DF93CF932CE3C1
:1002500031E03F932F939F938F930E9403288DB794
:100260009EB70E960FB6F8949EBF0FBE8DBFDF915E
:10027000CF911F910F91FF90EF900895DC01ED91C8
:10028000FC9111979F012F5F3F4F2D933C9320814D
:100290002032A1F70895EF92FF920F931F93CF930F
:1002A000DF93CDB7DEB72C970FB6F894DEBF0FBE45
:1002B000CDBF9C878B87CE010B960E943E01CE015D
:1002C00001967C018E010D5F1F4F9E012B5F3F4FFA
:1002D000AE01495F5F4FBE01675F7F4F8B859C8595
:1002E0000E94F200698586E892E00E948C180981DC
:1002F0002B814D816F8186E892E00E94D01886E8BC
:1003000092E00E9422192C960FB6F894DEBF0FBE21
:10031000CDBFDF91CF911F910F91FF90EF90089586
:10032000EF92FF920F931F93CF93DF93CDB7DEB77A
:100330002C970FB6F894DEBF0FBECDBF9C878B877E
:10034000CE010B960E943E01CE0101967C018E01EA
:100350000D5F1F4F9E012B5F3F4FAE01495F5F4F07
:10036000BE01675F7F4F8B859C850E94F200698587
:1003700083E792E00E94621909812B814D816F8190
:1003800083E792E00E94641983E792E00E94971944
:100390002C960FB6F894DEBF0FBECDBFDF91CF9184
:1003A0001F910F91FF90EF900895CF93DF93EC0191
:1003B0000E943E0188819981DF91CF910C94B027F2
:1003C000CF93DF9300D0CDB7DEB79A838983CE0178
:1003D00001960E94D501682F88EA92E00E94B10D33
:1003E000CE0101960E94D501BC0188EA92E00E94EC
:1003F000F70D0F900F90DF91CF910895CF93DF937A
:1004000000D0CDB7DEB79A838983CE0101960E94D2
:10041000D501682F8EE992E00E94D40ACE010196A0
:100420000E94D501BC018EE992E00E94F90A0F906A
:100430000F90DF91CF910895EF92FF920F931F934A
:10044000CF93DF9300D0CDB7DEB79A838983CE01F7
:1004500001960E94D5017C01CE0101960E94D50132
:100460008C01C7010E94C900053B110558F49C018D
:10047000220F331F280F391FB801C901835D9D4F1B
:100480000E94A91C0F900F90DF91CF911F910F91A7
:10049000FF90EF900895CF93DF9300D0CDB7DEB7F4
:1004A0009A83898362E088EA92E00E94B10DCE01CE
:1004B00001960E94D501BC0188EA92E00E94F70DE6
:1004C00061E088EA92E00E94B10DCE0101960E949F
:1004D000D501BC0188EA92E00E94F70D0F900F90C1
:1004E000DF91CF9108951F93CF93DF9300D0CDB7C5
:1004F000DEB79A838983CE0101960E94D501182F19
:1005000060E00E949A1E812F0E94F51D4AE050E093
:10051000BC0184E993E00E942A220F900F90DF91A2
:10052000CF911F9108951F93CF93DF9300D0CDB744
:10053000DEB79A838983CE0101960E94D501182FD8
:1005400060E00E949A1E812F0E94F51D4AE050E053
:10055000BC0184E993E00E942A220F900F90DF9162
:10056000CF911F910895CF93DF9300D0CDB7DEB721
:100570009A838983CE0101960E94D501682F82E675
:1005800092E00E94FA0FCE0101960E94D5012091BF
:10059000220230E02817390719F46CE471E002C038
:1005A00061E571E084E993E00E9475210F900F905E
:1005B000DF91CF910895CF93DF9300D0CDB7DEB711
:1005C0009A838983CE0101960E94D501682F8FE816
:1005D00092E00E94DE198FE892E00E94E019AB01E0
:1005E000BC0122E030E084E993E00E9467230F9091
:1005F0000F90DF91CF9108951F93CF93DF9300D099
:10060000CDB7DEB79A838983CE0101960E94D501CA
:10061000182F60E00E949A1E812F0E94091F892BCB
:1006200019F46CE471E002C061E571E084E993E0E3
:100630000E9475210F900F90DF91CF911F91089527
:100640000F931F93CF93DF9300D0CDB7DEB79A837C
:100650008983CE0101960E94D5018C01CE010196BD
:100660000E94D5019C01442737FD4095542FB801C5
:100670008DE692E00E944D0D0F900F90DF91CF918B
:100680001F910F910895CF93DF9300D0CDB7DEB7C0
:100690009A838983CE0101960E94D501682F84ED4B
:1006A00092E00E94951A84ED92E00E94971AAB01A5
:1006B000BC0122E030E084E993E00E9467230F90C0
:1006C0000F90DF91CF910895CF93DF9300D0CDB7F6
:1006D000DEB79A838983CE0101960E94D501682FE7
:1006E00082EE92E00E94C31082EE92E00E94C5105A
:1006F000882319F06CE471E002C061E571E084E9DF
:1007000093E00E9475210F900F90DF91CF91089593
:10071000CF93DF9300D0CDB7DEB79A838983CE0124
:1007200001960E94D501682F81EE92E00E94BF19C8
:1007300081EE92E00E94C4194AE050E0BC0184E9D5
:1007400093E00E942A220F900F90DF91CF9108959D
:100750000F931F93CF93DF9300D000D01F92CDB79C
:10076000DEB79A838983CE0101960E94D501682F56
:10077000CE0101966D830E94D501182FCE010196FE
:100780000E94D501482FCE0101964C830E94D501CD
:10079000282FCE0101962B830E94D501082F6D8151
:1007A00082EE92E00E94C3102B814C81612F82EE79
:1007B00092E00E940E110F900F900F900F900F90EB
:1007C000DF91CF911F910F9108950F931F93CF93B6
:1007D000DF9300D000D01F92CDB7DEB79A83898314
:1007E000CE0101960E94D501682FCE0101966D833E
:1007F0000E94D501182FCE0101960E94D501482FE5
:10080000CE0101964C830E94D501282FCE0101967E
:100810002B830E94D501082F6D8184ED92E00E9408
:10082000951A2B814C81612F84ED92E00E94061B6A
:100830000F900F900F900F900F90DF91CF911F911D
:100840000F9108950F931F93CF93DF9300D01F92C2
:10085000CDB7DEB79A838983CE0101960E94D50178
:10086000682FCE0101966B830E94D5018C016B81AC
:100870008EEC92E00E94B7168EEC92E00E94B916C0
:100880008EEC92E00130110519F40E94D21602C0DC
:100890000E94D5164AE050E0682F84E993E00E9458
:1008A0004F220F900F900F90DF91CF911F910F91DA
:1008B0000895FF920F931F93CF93DF9300D000D042
:1008C000CDB7DEB79A838983CE0101960E94D50108
:1008D000682FCE0101966C830E94D501F82ECE01BF
:1008E00001960E94D501482FCE0101964B830E94AC
:1008F000D5018C016C8183EB92E00E944B1121E0C9
:100900004B81012B09F420E06F2D83EB92E00E94D4
:10091000F8120F900F900F900F90DF91CF911F91D1
:100920000F91FF9008951F93CF93DF9300D000D0D5
:10093000CDB7DEB79A838983CE0101960E94D50197
:10094000682FCE0101966C830E94D501182FCE012D
:1009500001960E94D501482FCE0101964B830E943B
:100960003E016C8183EB92E00E944B1129813A8118
:100970004B81612F83EB92E00E949E120F900F90AB
:100980000F900F90DF91CF911F9108959F92AF929A
:10099000BF92CF92DF92EF92FF920F931F93CF936C
:1009A000DF93CDB7DEB767970FB6F894DEBF0FBE03
:1009B000CDBF9F8B8E8B8E010A5E1F4FC8010E9498
:1009C000D501982EC8010E94D501D82EC8010E94D9
:1009D000D501C82ECE0101967C015C01C8010E94A0
:1009E000D501F70181937F01E017F107B9F7692D70
:1009F00083EB92E00E944B1195014C2D6D2D83EB02
:100A000092E00E946D1167960FB6F894DEBF0FBE9C
:100A1000CDBFDF91CF911F910F91FF90EF90DF90AD
:100A2000CF90BF90AF909F9008951F93CF93DF9387
:100A300000D01F92CDB7DEB79A838983CE0101968D
:100A40000E94D501682FCE0101966B830E94D501CB
:100A5000182FCE0101960E94D501482F6B8183EBA0
:100A600092E04B830E944B114B81612F83EB92E00C
:100A70000E941E120F900F900F90DF91CF911F9147
:100A800008951F93CF93DF9300D01F92CDB7DEB7A9
:100A90009A838983CE0101960E94D501682FCE01E9
:100AA00001966B830E94D501182FCE0101960E94FA
:100AB000D501482F6B8183EB92E04B830E944B1151
:100AC0004B81612F83EB92E00E9445120F900F90B3
:100AD0000F90DF91CF911F910895CF93DF9300D0B6
:100AE000CDB7DEB79A838983CE0101960E94D501E6
:100AF000682F83EB92E00E944B1183EB92E00E94FF
:100B00004D110F900F90DF91CF910895CF93DF9308
:100B100000D0CDB7DEB79A838983CE0101960E94BB
:100B2000D501682F87E592E00E945F1A87E592E081
:100B30000E94611A882319F06CE471E002C061E53B
:100B400071E084E993E00E9475210F900F90DF918E
:100B5000CF9108950F931F93CF93DF9300D01F92EF
:100B6000CDB7DEB79A838983CE0101960E94D50165
:100B7000682FCE0101966B830E94D5018C016B8199
:100B80008CE592E00E94070F8CE592E00E94090F2D
:100B900060E08CE592E0012B19F40E942D0F02C059
:100BA0000E94220F4AE050E0BC0184E993E00E94D9
:100BB00066220F900F900F90DF91CF911F910F91B0
:100BC0000895CF93DF9300D0CDB7DEB79A838983A2
:100BD000CE0101960E94D5010E94F51D4AE050E029
:100BE000BC0184E993E00E942A220F900F90DF91CC
:100BF000CF9108950F931F93CF93DF9300D0CDB77C
:100C0000DEB79A838983CE0101960E94D501182F01
:100C1000CE0101960E94D501082F61E0812F0E942C
:100C20009A1E602F812F0E94D31E0F900F90DF918C
:100C3000CF911F910F910895CF93DF9300D0CDB73F
:100C4000DEB79A838983CE0101960E94D501682F71
:100C50008EE692E00E9402188EE692E00E9404184E
:100C60004AE050E0682F84E993E00E944F220F9001
:100C70000F90DF91CF910895CF93DF93EC010E9405
:100C80003E0188819981DF91CF910C94AC27CF925E
:100C9000DF92EF92FF921F93CF93DF9300D0CDB7F7
:100CA000DEB79A838983CE0101960E94D501182F61
:100CB000CE0101960E943C066B017C01612F83EB03
:100CC00092E00E944B11B701A60183EB92E00E94D3
:100CD00037130F900F90DF91CF911F91FF90EF90FE
:100CE000DF90CF900895CF92DF92EF92FF921F9303
:100CF000CF93DF9300D0CDB7DEB79A838983CE013F
:100D000001960E94D501182FCE0101960E943C0643
:100D10006B017C01612F8BE492E00E94750BB7019F
:100D2000A6018BE492E00E949C0B0F900F90DF9144
:100D3000CF911F91FF90EF90DF90CF900895EF92A9
:100D4000FF920F931F93CF93DF931F92CDB7DEB720
:100D50008C0101960E94B0278037910509F4CBC021
:100D60000CF054C08A30910509F4ACC00CF5833006
:100D7000910509F4DEC074F48130910509F4CFC007
:100D80000CF0D2C0892B09F02AC18CEFE82E82E04A
:100D9000F82EFCC08830910509F48AC00CF08DC093
:100DA000079709F01CC123EBE22E22E0F22EEEC0E1
:100DB0008336910509F4AEC074F48C30910509F4C2
:100DC00072C00CF4DFC00D9709F009C1B0E9EB2E39
:100DD000B1E0FB2ED5C08D36910509F482C04CF4EC
:100DE0008636910509F0FBC052EBE52E50E0F52E5A
:100DF000C7C08E36910509F479C08F36910509F088
:100E0000EEC092E2E92E94E0F92EC0C08A37910537
:100E100009F4A8C0FCF48437910509F494C05CF48B
:100E20008237910509F46CC00CF06FC0B9E5EB2E68
:100E3000B4E0FB2EA5C08637910509F47FC00CF401
:100E400087C08937910509F0CAC0A6E8EA2EA5E057
:100E5000FA2E9CC08E37910509F47FC05CF48C3764
:100E6000910509F484C00CF487C09AEFE92E95E04F
:100E7000F92E86C0893C910551F14CF4883C9105CE
:100E800009F0ADC0E0EEEE2EE1E0FE2E79C08A3C26
:100E9000910511F18C3C910509F0A1C07EEFE72E80
:100EA00071E0F72E6DC09BEDE92E92E0F92E6EC039
:100EB000B3E7EB2EB2E0FB2E69C0ABE4EA2EA1E073
:100EC000FA2E5EC0F0E2EF2EF3E0FF2E59C06BE485
:100ED000E62E62E0F62E54C04CE1E42E42E0F42E01
:100EE0004FC035EEE32E33E0F32E4AC023E4E22E6A
:100EF00023E0F22E4BC087E4E82E86E0F82E40C0B7
:100F0000A3E9EA2EA4E0FA2E3BC0F6ECEF2EF4E0C3
:100F1000FF2E36C0E8E9EE2EE8E0FE2E31C075E186
:100F2000E72E75E0F72E2CC061E4E62E65E0F62E84
:100F300027C05DE6E52E55E0F52E22C048EAE42EF6
:100F400043E0F42E1DC038E8E32E33E0F32E1EC03C
:100F500024E6E22E23E0F22E19C08CE1E82E86E092
:100F6000F82E14C0FAEAEF2EF5E0FF2E0FC0E1EEE6
:100F7000EE2EE5E0FE2E0AC073E7E72E76E0F72EB0
:100F800020E005C063E9E62E62E0F62E21E0D801FC
:100F90000D900020E9F7AD0141505109401B510B64
:100FA000E0919403F09195030280F381E02DB80164
:100FB00084E993E029830995C801F70109952981FE
:100FC00021110DC067E571E084E993E00F90DF9196
:100FD000CF911F910F91FF90EF900C9475210F907E
:100FE000DF91CF911F910F91FF90EF900895FC0139
:100FF00020812D3411F40C949F06089560E089E05F
:101000000E949A1E60E08AE00E949A1E60E08CE0D6
:101010000E949A1E60E084E00E949A1E82E692E09E
:101020000C940A1026E040E052EC61E070E084E9A4
:1010300093E00E9415200C94FE070F931F9382E605
:1010400092E00E947D10892B79F00E94581D6093D8
:101050001E0270931F0280932002909321028091C0
:1010600065028093220215C00E94581D00911E0245
:1010700010911F022091200230912102601B710B00
:10108000820B930B693C71058105910510F010925C
:1010900022021F910F910895DF92EF92FF920F931A
:1010A0001F93CF93DF93C2EFD2E00AE511E0F2E0A5
:1010B000C63FDF07A9F1EE24E394F12C888181116A
:1010C00002C0E12CF12CF801D1908F018D2D0E94EE
:1010D000091FE816F90611F18881882311F018829A
:1010E0001DC060E971E080E090E00E94871D6D2DD9
:1010F0008EEE92E00E94D9168EEE92E00E94F316D8
:1011000061E08EEE92E00E946A178EEE92E00E94FD
:1011100021178EEE92E00E94D21788832196C7CFC6
:10112000DF91CF911F910F91FF90EF90DF90089585
:10113000EF92FF920F93CF93DF9380E090E00E94B5
:10114000B20063E086E892E00E948C1800E020E0A4
:1011500040E060E086E892E00E94D01886E892E0E5
:101160000E9422190E944C08CAE5D1E042EFE42E09
:1011700042E0F42EF1E0CE35DF0711F1F701819165
:101180007F018823D9F0813071F4688184ED92E089
:101190000E94951A00E020E040E063E084ED92E0D8
:1011A0000E94061B0BC0833049F4688183EB92E0F8
:1011B0000E944B1183EB92E00E944D112196DACFF1
:1011C000DF91CF910F91FF90EF900895CF93DF9330
:1011D0008EEE92E00E94D81660E082EE92E00E94CD
:1011E000A71060E081EE92E00E94C21960E084EDF9
:1011F00092E00E94791A60E08EEC92E00E94A316C1
:1012000060E083EB92E00E94471160E088EA92E0A0
:101210000E94DD0D60E08EE992E00E94E00A60E04D
:101220008FE892E00E94C81960E086E892E00E9490
:101230006B1860E083E792E00E94471960E08EE659
:1012400092E00E94EE176BE08DE692E00E944A0D5C
:101250006FE082E692E00E94EE0F60E08CE592E0A3
:101260000E94F30E60E087E592E00E944B1A60E076
:101270008BE492E00E94610BCDE2D2E0CE010E94AD
:10128000D61B239682E0CB34D807C1F7DF91CF91EC
:10129000089586E892E00C943B191F93CF93DF9357
:1012A000C0E8D0E010E284E993E00E94321F892B6D
:1012B00081F184E993E00E944B1F20911C02309140
:1012C0001D028A30C1F4C9010197FC01E456FE4FAA
:1012D00040814D3011F49C01F6CFF901E456FE4FE8
:1012E0001083118210921D0210921C028CE991E071
:1012F0000E94F707D8CFF901E456FE4F8083C90159
:101300000196BE010E94FC2590931D0280931C0251
:10131000CACFDF91CF911F9108950E941D080C94B0
:101320004D09089570E0FB01E458FF4FE491DC01A2
:10133000EC93FB01E057FF4FE491F0E0EE0FFF1F4D
:10134000EC55FF4F25913491FC01328321830895A0
:101350001F93CF93DF93FC011081C181D2819981CA
:10136000812F8095892389838A81812B8A838AE0D2
:1013700090E00E94AF1D9881912381E009F480E004
:10138000DF91CF911F910895FF920F931F93CF93F9
:10139000DF93FC011081C181D281F8948981F12E03
:1013A000F0948F2189838A81812B8A8378940DE739
:1013B000015041F182E090E00E94AF1D88818123BD
:1013C000B9F3F8948A818F218A838981812B89835B
:1013D000789480EE91E00E94AF1DF89489818F216E
:1013E00089838A81812B8A8386E490E00E94AF1DE5
:1013F0008881812301E009F000E078948AE991E096
:101400000E94AF1D802FDF91CF911F910F91FF9010
:1014100008951F93CF93DF93FC011081C181D28186
:10142000912F909560FF12C0F8948A8189238A8356
:101430008981812B89838AE090E00E94AF1D8A8197
:10144000812B8A83789487E390E011C0F8948A8195
:1014500089238A838981812B898381E490E00E949A
:10146000AF1D8A81812B8A83789485E090E0DF919B
:10147000CF911F910C94AF1D0F931F93CF93DF93C8
:10148000FC011081C181D281F8948981812B8983EB
:101490008A81012F009580238A8383E090E00E9457
:1014A000AF1D8981802389838A81812B8A838AE089
:1014B00090E00E94AF1DC881789485E390E00E947F
:1014C000AF1D1C2381E009F480E0DF91CF911F91D3
:1014D0000F910895CF92DF92EF92FF920F931F9397
:1014E000CF93DF931F92CDB7DEB76C01E62E08E0F5
:1014F00010E0FF24F39461E09F2D9E2109F460E049
:10150000C60149830E94090AFF0C01501109498153
:101510000115110581F741111DC0F894D6011196EE
:10152000ED91FC91129791818C9180958923818313
:101530001196ED91FC91129782819C91892B828367
:101540001196ED91FC91129792818C91809589234F
:10155000828378940F90DF91CF911F910F91FF902C
:10156000EF90DF90CF900895EF92FF920F931F932B
:10157000CF93DF938C01C8E0D0E0F12CEE24E3940C
:10158000C8010E943C0A8111FE28EE0C2197C1F788
:101590008F2DDF91CF911F910F91FF90EF900895C4
:1015A00040E06CEC0C946A0ACF93DF93EC010E944C
:1015B000D9168CE291E09F838E83DF91CF910895BD
:1015C0000F931F93CF93DF931F92CDB7DEB78C019C
:1015D00069830E94D816F801178216821086118638
:1015E0006981C8010F90DF91CF911F910F910C94E9
:1015F000D40ACF92DF92EF92FF92CF93DF93EC0168
:101600006F3F710519F014F06FEF70E061308FEFEC
:10161000780714F461E07FEF8E819F81861797072A
:1016200009F448C07F836E836B01EE24D7FCE094FD
:10163000FE2CCE0177FD14C00E94F31662E0CE01AD
:101640000E946A17CE010E94F316C701B6010E94DC
:10165000C52420E030E040E250E40E942A241BC070
:101660000E94F31662E0CE010E946A17CE010E942A
:10167000F316C701B6010E94C52420E030E040E225
:1016800050E40E942A249B01AC0160E070E088ECE9
:1016900092E40E94C1230E949724CE010E946A17FF
:1016A00084EF91E0DF91CF91FF90EF90DF90CF90AA
:1016B0000C94AF1DDF91CF91FF90EF90DF90CF9012
:1016C00008950F931F93CF93DF931F92CDB7DEB78B
:1016D0008C0169830E94D8166981C8010F90DF913F
:1016E000CF911F910F910C94D9160C94D916CF93CA
:1016F000DF93EC010E94F31681111BC062E0CE0162
:101700000E946A17CE010E94F316811112C06C81EB
:10171000CE010E946A176D81CE010E946A176E8108
:10172000CE010E946A176F81CE01DF91CF910C9498
:101730006A17DF91CF9108952F923F924F925F9257
:101740006F927F928F929F92AF92BF92CF92DF92D1
:10175000EF92FF920F931F93CF93DF93CDB7DEB736
:101760002F970FB6F894DEBF0FBECDBF8C012A01B4
:101770003B019A01AB01FC016085718582859385EF
:101780000E942624882309F46CC1F8014086518602
:1017900062867386CE0101969C878B878AE0EB85F3
:1017A000FC8511928A95E9F720E03CE34CE156E490
:1017B000C301B2010E94752587FD04C089E0F801CC
:1017C00084830EC020E030EC49E754ECC301B20141
:1017D0000E942624181644F080E1F801848389E0F1
:1017E000858386838783D3C020E030E0A901C301CD
:1017F000B2010E942624811107C080E4F80184838D
:10180000858386831782C3C020E030E0A901C3012D
:10181000B2010E94262487FF07C077FA709477F8F8
:101820007094F1E0FD8701C01D8620E030E04AE7BA
:1018300054E4C301B2010E942A240E9497246983C0
:10184000C301B2010E9492249B01CB0168EE73E0B8
:101850000E94FC25E4E6F0E0BF010E94FC256A83BB
:10186000C901BF010E94FC254AE0E42EF12CB7011A
:101870000E94FC256B83C901B7010E94FC255C0115
:101880008C8320E030E040E251E4C301B2010E94C9
:1018900079250E949224CB01B7010E94FC256C019E
:1018A0008D8320E030E048EC52E4C301B2010E9495
:1018B00079250E949224CB01B7010E94FC254C019E
:1018C0008E8320E030E04AE754E4C301B2010E9475
:1018D00079250E949224CB01B7010E94FC259F87A5
:1018E0008E878F83212CE22CF12CE1E0F0E0EC0FCD
:1018F000FD1FEE0DFF1D3080311002C02394F3CF89
:1019000020E030E040E85FE3C301B2010E947525AA
:1019100087FD10C0A32CFE01EE0DFF1DC280FE014D
:10192000EE0DFF1D8380FE01EE0DFF1D848124E07E
:10193000221907C0BB24DD2499248E859F85992711
:1019400021E03D85313059F480E1F8018483A5829E
:10195000C6828782223051F02130C9F40DC0F801CF
:10196000A482C58286828783233021F486818062A7
:1019700086830DC0223029F4F80185818062858339
:1019800006C0213021F4F801848180628483F8014B
:10199000848185FF0BC08581811141C086818111C1
:1019A0003EC08781882309F445C039C0F80185818C
:1019B00085FF0AC0868181114DC0878181114AC08F
:1019C000F80185818F703FC0F801868185FF0CC0CA
:1019D0008781811109C086818F7087838581868385
:1019E0008481858380E48483C8012F960FB6F894A0
:1019F000DEBF0FBECDBFDF91CF911F910F91FF9042
:101A0000EF90DF90CF90BF90AF909F908F907F909E
:101A10006F905F904F903F902F900C94770BF80150
:101A20008681811117C0F8018781811113C0F801E7
:101A3000858109C0F80184818F70878380E4848365
:101A400085838683D1CF87838481868380E4848362
:101A50008583CACFF80187818111C6CFF8018681BD
:101A6000BCCF2F960FB6F894DEBF0FBECDBFDF916F
:101A7000CF911F910F91FF90EF90DF90CF90BF908B
:101A8000AF909F908F907F906F905F904F903F901E
:101A90002F9008956093F60208954F925F926F928F
:101AA0007F928F929F92AF92BF92CF92DF92EF92EE
:101AB000FF920F931F93CF93DF9369017A019B01EC
:101AC00040E050E060E472E48FE090E00E94322653
:101AD000E901890137FF02C00F5F1F4F1595079578
:101AE00061E08091F6020E949A1EA8EEB3E0A70181
:101AF00096010E9451264B015C01C12CD12C76012C
:101B00002E01662457FC6094762CC814D904EA048C
:101B1000FB04B0F461E08091F6020E94D31EC8017C
:101B20000E94AF1D60E08091F6020E94D31EC801A2
:101B30000E94AF1DA895C40CD51CE61CF71CE5CF70
:101B4000DF91CF911F910F91FF90EF90DF90CF9099
:101B5000BF90AF909F908F907F906F905F904F90CD
:101B600008950F931F93CF93DF93EC01062F10E09E
:101B7000000F111F065F1E4F633050F0F8016081A7
:101B8000CE010E94D916F8018181898718860CC080
:101B900061E0F80181810E949A1EF80180818D83A5
:101BA00081818C8381E088878CE291E09F838E83A2
:101BB000DF91CF911F910F9108950F931F93CF93B2
:101BC000DF931F92CDB7DEB78C0169830E94D816D0
:101BD000F801178216821086118612866981C80163
:101BE0000F90DF91CF911F910F910C94B10DEF9257
:101BF000FF920F931F93CF93DF9300D0CDB7DEB743
:101C00007C01FC018285811109C069837A830E946D
:101C1000C80081E0F70182877A8169818B016F3F7B
:101C2000710519F014F00FEF10E00130FFEF1F07FE
:101C300014F401E01FEFF701868197818017910767
:101C400009F4C8C017830683808517FD4EC0813014
:101C500079F58481873019F4848160E006C0F7014A
:101C60008481883089F4848161E00E94D31EF70169
:101C70008581B8010F900F90DF91CF911F910F9147
:101C8000FF90EF900C94121EF7018481893029F0A7
:101C9000F7018481863009F09DC0848161E00E9453
:101CA000D31EF70185816FEF70E0601B710BE2CFEF
:101CB000C7010E94F31662E0C7010E946A17C701BC
:101CC0000E94F316F7016185C7010E946A17B801E7
:101CD000882777FD8095982F0E94C52420E030E06A
:101CE00040E250E40E942A2464C08130F1F5F701FB
:101CF0008481873061F4848161E00E94D31EF70102
:101D0000858166277727601B710B0E94121EF701E1
:101D10008481883061F4848160E00E94D31EF701E1
:101D2000858166277727601B710B0E94121EF701C1
:101D30008481893059F4858161E00E94D31EF701C6
:101D40008481B80161507F4F0E94121EF701848187
:101D5000863009F03FC0858161E00E94D31EF70103
:101D60008481B80161507F4F85CFC7010E94F3166F
:101D700062E0C7010E946A17C7010E94F316F701CB
:101D80006185C7010E946A17B801882777FD809591
:101D9000982F0E94C52420E030E040E250E40E94E9
:101DA0002A249B01AC0160E070E088EC92E40E9480
:101DB000C1230E949724C7010E946A1784EF91E013
:101DC0000F900F90DF91CF911F910F91FF90EF90A7
:101DD0000C94AF1D0F900F90DF91CF911F910F9139
:101DE000FF90EF9008950F931F93CF93DF931F926F
:101DF000CDB7DEB78C0169830E94D8166981C8010E
:101E00000F90DF91CF911F910F910C94D9160C94E4
:101E1000D916CF93DF93EC010E94F31681110FC006
:101E200062E0CE010E946A17CE010E942117CE0106
:101E30000E94D2178C83CE010E94D2178D83DF912E
:101E4000CF910895CF93DF93EC0161110E94090FA8
:101E50008C8190E0DF91CF910895CF93DF93EC01D7
:101E600061110E94090F8D8190E0DF91CF9108955B
:101E70001F920F920FB60F9211240F931F932F935F
:101E80003F934F935F936F937F938F939F93AF9302
:101E9000BF93CF93EF93FF938091F7020E94091FA6
:101EA000C82F2091FE023091FF022F5F3F4F3093E9
:101EB000FF022093FE0280916403843618F085E0CF
:101EC0008093F9029091F902933079F018F49230EE
:101ED00039F070C0943011F1953009F44AC06AC0ED
:101EE000C11168C01092640329C0C13009F062C0FA
:101EF000E091640381E08E0F80936403F0E08091B1
:101F0000FE029091FF02E850FD4F80871092FF0281
:101F10001092FE0284E08093F9024CC0C11114C0FB
:101F2000E091640381E08E0F80936403F0E0809180
:101F3000FE029091FF02E850FD4F80871092FF0251
:101F40001092FE0283E0E7CF8091FE029091FF02A3
:101F50008536910578F185E08093F9020E94581D3D
:101F60006093FA027093FB028093FC029093FD024F
:101F700021C00E94581D0091FA021091FB0220918D
:101F8000FC023091FD02601B710B820B930B693CCC
:101F900071058105910540F0109264031092FF02D3
:101FA0001092FE0282E0B7CFC11104C01092FF026E
:101FB0001092FE02FF91EF91CF91BF91AF919F914F
:101FC0008F917F916F915F914F913F912F911F91D1
:101FD0000F910F900FBE0F901F9018956093F7020E
:101FE0008091F70260E00E949A1E8091F702809330
:101FF000F80208958091F702861759F06093F7026E
:102000008091F70260E00E949A1E8091F70280930F
:10201000F8020895F89482E08093B0008093B100B4
:1020200094E69093B3001092B2008093700078947D
:10203000109264038093F90208951F93CF93DF9366
:10204000FC01A681B7818C9186588D3558F4808526
:10205000918583309105A1F411968C91119781524D
:10206000893118F080E090E044C012968C9188503D
:102070008730C0F7158281E0808381E090E039C02D
:10208000833491057CF311968C91119783548F3290
:1020900048F782E090E040E050E0BA019D012F5FF8
:1020A0003F4FEC01CA0FDB1FC881C850C730D0F6C4
:1020B000E901C80FD91F18811751133180F47695A3
:1020C000679557954795706802968234910549F750
:1020D00080E285834183528363837483CCCFC8813C
:1020E000C850C73008F0BECF76956795579547958D
:1020F000EBCFDF91CF911F9108950F931F93CF9353
:10210000DF93EC0180E093E09F838E8380916403F2
:1021100090E0998788878091F902853081F4CE011B
:102120000E941D108C01CE010115110529F00E949D
:102130000A1001E010E005C00E940A1002C000E091
:1021400010E0C801DF91CF911F910F9108950F9377
:102150001F93CF93DF931F92CDB7DEB78C016983B6
:102160000E94D816F80115821682178210861186F1
:10217000128613866981C8010F90DF91CF911F915C
:102180000F910C94D9160C94D916CF93DF93EC01D0
:102190000E94F316811111C062E0CE010E946A17FD
:1021A000CE010E942117CE010E94D2178C8388E2B3
:1021B00093E20E94AF1D8C8101C080E0DF91CF913E
:1021C0000895CF93DF93EC010E94F316811123C091
:1021D00063E0CE010E946A17CE010E94F3168111BE
:1021E0001AC06E81CE010E946A176F81CE010E94D3
:1021F0006A176885CE010E946A176985CE010E9420
:102200006A176A85CE010E946A176B85CE01DF913D
:10221000CF910C946A17DF91CF9108950F93FC0131
:1022200060FF03C046832783008761FF03C04187A7
:1022300022870387637021F0CF010F910C94E11086
:102240000F9108950F931F93CF93DF9300D01F92A8
:10225000CDB7DEB78C012B834A8369830E94D816E1
:10226000F801349685E1DF011D928A95E9F74A81EC
:10227000F801418F2B81228F6981C8010F900F9047
:102280000F90DF91CF911F910F910C94D91627E0F9
:1022900045E10C9422110C94D916CF93DF93EC01F5
:1022A000298D80E090E0821730F4FE01E80FF91FDD
:1022B00014820196F8CFCE010E94F31681110AC054
:1022C00065E0CE010E946A1788E893E1DF91CF9123
:1022D0000C94AF1DDF91CF9108955F926F927F9222
:1022E0008F929F92AF92BF92CF92DF92EF92FF9226
:1022F0000F931F93CF93DF93EC01542E4901E98C88
:10230000F12C8A8DA62EBB24A7FCB094222733275C
:102310002E193F092A153B0594F4AE14BF047CF432
:1023200090E0C42EDD24C7FCD09422273327281B3D
:10233000390B2C153D051CF4C816D90694F0CE01B6
:10234000DF91CF911F910F91FF90EF90DF90CF9091
:10235000BF90AF909F908F907F906F905F900C9404
:102360004D11CE010E94F31662E0CE010E946A1761
:10237000CE010E94F316002711270A191B09370105
:102380006A187B08AA24BB24AC18BD0806151705DB
:1023900004F517FD17C00E151F05A4F4F401E00F96
:1023A000F11F608157FC06C00C2C01C0660F0A9417
:1023B000EAF709C070E00A2C02C0759567950A9487
:1023C000E2F701C060E0CE010E946A170F5F1F4F65
:1023D000DDCFDF91CF911F910F91FF90EF90DF90B4
:1023E000CF90BF90AF909F908F907F906F905F90B5
:1023F00008950F931F93CF93DF93EC01062F142FB3
:102400000E94F316811115C063E0CE010E946A1785
:10241000CE010E94F31681110CC0602FCE010E94E4
:102420006A17612FCE01DF91CF911F910F910C940C
:102430006A17DF91CF911F910F910895CF93DF938A
:10244000E62FF0E0DC0159962C91599730E0E21725
:10245000F307C4F4242F30E05A96AC91B0E02A1769
:102460003B0784F4E80FF91F548121E030E001C0FC
:10247000220F4A95EAF7522B54834481DF91CF9182
:102480000C94F911DF91CF910895CF93DF93E62F4C
:10249000F0E0DC0159962C91599730E0E217F307F0
:1024A000CCF4242F30E05A96AC91B0E02A173B07C9
:1024B0008CF4E80FF91F548121E030E001C0220FB5
:1024C0004A95EAF72095252324834481DF91CF9113
:1024D0000C94F911DF91CF910895FF920F931F9300
:1024E000CF93DF93EC01F62E042F122F0E94F316E8
:1024F00081111EC067E0CE010E946A17CE010E94C2
:10250000F316811115C06F2DCE010E946A17602F3E
:10251000CE010E946A17612FCE010E946A1788EBD4
:102520009BE0DF91CF911F910F91FF900C94AF1D15
:10253000DF91CF911F910F91FF900895AF92BF92BD
:10254000CF92DF92EF92FF920F931F93CF93DF937F
:10255000EC01B62EA42E790100E010E0C62EDD2499
:10256000C7FCD094C8018C0D9D1D8B3F2FEF9207A7
:102570001CF1298D30E08217930724F5F7012081A3
:1025800021110EC08C01898D90E008171907D4F431
:1025900040E0602FCE010E94F9110F5F1F4FF3CF73
:1025A00021526B2D600F2E3518F023E040E001C062
:1025B0004A2DCE010E946D120A5F1F4FFFEFEF1AE6
:1025C000FF0AD0CF1FEF1B0D1B143CF440E0612F1E
:1025D000CE010E94F911B12EF5CFDF91CF911F915D
:1025E0000F91FF90EF90DF90CF90BF90AF90089544
:1025F000EF92FF920F931F93CF93DF93EC01862FFF
:10260000F42E022F1AE0612F0E94F025E92E2FE010
:10261000280F40E06FEFCE010E946D122FE02E0DCB
:1026200040E064E0CE010E946D128F2D612F0E9468
:10263000F025192F2FE0280F40E06BE0CE010E941B
:102640006D122FE0210F40E060E1CE010E946D127B
:10265000002311F044E101C040E06AE0CE01DF91C7
:10266000CF911F910F91FF90EF900C94F9112F9241
:102670003F924F925F926F927F928F929F92AF9212
:10268000BF92CF92DF92EF92FF920F931F93CF935F
:10269000DF93CDB7DEB76B970FB6F894DEBF0FBEF2
:1026A000CDBF8C012A013B01CE0101969C8B8B8B07
:1026B0008AE0EB89FC8911928A95E9F7CE010B96A5
:1026C0009E8B8D8B88E0ED89FE8911928A95E9F7C2
:1026D00020E03CE34CE156E4C301B2010E947525C1
:1026E00087FD1BC028E140E06FEFC8010E946D121A
:1026F00028E140E064E0C8010E946D1228E140E05A
:1027000069E0C8010E946D1228E140E06EE0C80156
:102710000E946D1240E064E12DC020E030EC49E7FA
:1027200054ECC301B2010E9426241816F4F128E1EA
:1027300040E064E0C8010E946D1228E140E06AE0D8
:10274000C8010E946D1228E140E06FE0C8010E94BC
:102750006D1248E060E0C8010E94F91148E061E0B4
:10276000C8010E94F91148E062E0C8010E94F91115
:1027700048E063E0C8016B960FB6F894DEBF0FBE69
:10278000CDBFDF91CF911F910F91FF90EF90DF9020
:10279000CF90BF90AF909F908F907F906F905F9001
:1027A0004F903F902F900C94F91120E030E0A90158
:1027B000C301B2010E942624811130C023E040E011
:1027C00060E0C8010E946D1223E040E065E0C801AE
:1027D0000E946D1223E040E06AE0C8010E946D1281
:1027E0002FE040E06FE0C8016B960FB6F894DEBFB3
:1027F0000FBECDBFDF91CF911F910F91FF90EF9052
:10280000DF90CF90BF90AF909F908F907F906F9010
:102810005F904F903F902F900C946D1220E030E02D
:10282000A901C301B2010E94262487FF07C077FADD
:10283000709477F87094F1E0FF8B01C01F8A20E05C
:1028400030E04AE754E4C301B2010E942A240E9406
:1028500097246983C301B2010E9492249B01CB019A
:1028600068EE73E00E94FC25E4E6F0E0BF010E9400
:10287000FC256A83C901BF010E94FC254AE0E42EC1
:10288000F12CB7010E94FC256B83C901B7010E949E
:10289000FC256C018C8320E030E040E251E4C30170
:1028A000B2010E9479250E949224CB01B7010E94B7
:1028B000FC255C018D8320E030E048EC52E4C3014C
:1028C000B2010E9479250E949224CB01B7010E9497
:1028D000FC254C018E8320E030E04AE754E4C3013C
:1028E000B2010E9479250E949224CB01B7010E9477
:1028F000FC259A8F898F8F83212CE22CF12CE1E02B
:10290000F0E0EC0FFD1FEE0DFF1D3080311002C016
:102910002394F3CF20E030E040E85FE3C301B2014D
:102920000E94752587FD1DC0832D90E09C878B87B5
:10293000FE01EE0DFF1D828190E09E878D87FE01D6
:10294000EE0DFF1D838190E0988B8F87FE01EE0DC9
:10295000FF1D848190E09A8B898B84E0B82EB21899
:1029600010C0DD24DC86CB86BB24BE86AD869924D0
:10297000988A8F86898D9A8D99279A8B898BBB240B
:10298000B394CB2CD12C8F89813009F0B6C020E0D4
:1029900030E048EC52E4C301B2010E94752587FD86
:1029A00009C02CE040E06FEFC8010E946D12B3E057
:1029B0009B2E25C020E030E040E251E4C301B2018B
:1029C0000E947525EF84F88887FD0BC0EF2849F732
:1029D0002CE040E064E0C8010E946D12A2E09A2E53
:1029E0000EC0EF28F1F68D859E85892B89F72CE0A6
:1029F00040E069E0C8010E946D1299249394C601D9
:102A00000196382E330C330C380E0196882E880C24
:102A1000880C880EFE013B965F016BE0E12CF12CE7
:102A2000892D90E0988F8F8BEF89F88DEE16FF0639
:102A30000CF070C1F5E02F2E260E93E099121AC00B
:102A4000F5012081215FEC14FD0414F0655001C0F4
:102A5000675040E0C8010E946D1220E030E048EC71
:102A600052E4C301B2010E94752587FF21C040E4F2
:102A7000632D23C0F2E09F1224C0F5012081215F65
:102A8000EC14FD040CF4625040E0C8010E946D1289
:102A900023E040E06FEFC8010E946D1220E030E0BB
:102AA00040E251E4C301B2010E94752587FD03C0D5
:102AB00040E064E102C040E4682DC8010E94F911C1
:102AC00014C0F5012081215FEC14FD041CF040E0EE
:102AD000622D02C06D5F40E0C8010E946D1223E0CC
:102AE00040E064E0C8010E946D12FFEFEF1AFF0A98
:102AF00082E0A80EB11C622D97CF20E030E04AE7BB
:102B000054E4C301B2010E94752587FD03C0E4E0CF
:102B10009E2E39C020E030E048EC52E4C301B201FF
:102B20000E947525E988FA8887FD03C0EF2879F7A8
:102B300010C020E030E040E251E4C301B2010E9445
:102B4000752587FD09C0EF2811F78F859889892B96
:102B5000A9F073E0972E17C020E030E040E85FE373
:102B6000C301B2010E947525EF2889F68F859889E7
:102B7000892B79F78D859E85892B19F062E0962E39
:102B800002C0992493948B2C880C880C8B0CC60162
:102B90000196382E330C330C380EFAE0F80DFF8B0B
:102BA0007E018BE0E80EF11C3BE0A12CB12CE92D5D
:102BB000F0E0FA8FE98FE98DFA8DAE16BF060CF0C2
:102BC000A9C055E0252E230EF4E09F121BC0F7018B
:102BD0002081215FAC14BD0414F066EF01C064EFE6
:102BE000630F40E0C8010E946D1220E030E04AE728
:102BF00054E4C301B2010E94752587FF7EC040E402
:102C0000682D7DC0F3E09F1223C023E040E06FEF0A
:102C1000C8013B8F0E946D123B8DF7012081215F1F
:102C2000AC14BD0414F06BEF01C069EF630F40E01A
:102C3000C8010E946D1220E030E048EC52E4C3016C
:102C4000B2010E94752587FF58C040E4632D57C02C
:102C5000F2E023E040E06FEFC8013B8F9F1225C0F8
:102C60000E946D1223E040E064E0C8010E946D12F2
:102C70003B8DF7012081215FAC14BD041CF040E0C6
:102C8000632F03C06EEF630F40E0C8010E946D1216
:102C900020E030E040E251E4C301B2010E9475251A
:102CA00087FF2BC040E46F892AC00E946D1223E089
:102CB00040E064E0C8010E946D1223E040E069E05A
:102CC000C8010E946D123B8DF7012081215FAC1479
:102CD000BD041CF040E0622D03C063E0630F40E0E0
:102CE000C8010E946D1220E030E040E85FE3C301BC
:102CF000B2010E94752587FD05C040E064E1C8016E
:102D00000E94F911FFEFAF1ABF0A82E0E80EF11C32
:102D1000322D51CF6B960FB6F894DEBF0FBECDBFEC
:102D2000DF91CF911F910F91FF90EF90DF90CF90A7
:102D3000BF90AF909F908F907F906F905F904F90DB
:102D40003F902F9008950F931F93CF93DF931F927F
:102D5000CDB7DEB78C0169830E94D8166981C8019E
:102D60000F90DF91CF911F910F910C94D9160C9475
:102D7000D916CF93DF93EC010E94F31681110FC097
:102D800062E0CE010E946A17CE010E942117CE0197
:102D90000E94D2178C83CE010E94D2178D83DF91BF
:102DA000CF910895FC0184810895FC0185810895E7
:102DB0000895DC016C9370E0FB01E458FF4FE4914F
:102DC0001196EC931197FB01E057FF4FE491F0E06F
:102DD000EE0FFF1FEC55FF4F8591949113969C9336
:102DE0008E9312970895FF920F931F93CF93DF93C3
:102DF0008C01FC01F180C281D38189818F29898373
:102E00009A818F2D809589238A8380EE91E00E949C
:102E1000AF1D60E0F80180810E949A1E82E390E07D
:102E20000E94AF1DC88184E690E00E94AF1DFC2285
:102E300081E009F480E0DF91CF911F910F91FF9025
:102E40000895AF92BF92CF92DF92EF92FF920F93CD
:102E50001F93CF93DF938C01FC01B180C281D3819A
:102E60000E94581D6B017C018981AB2CA0948A21A2
:102E700089838A818B298A8388818B2169F00E94CA
:102E8000581D6C197D098E099F09653671058105EC
:102E9000910590F380E013C088818B21E9F389814B
:102EA0008B2989838A818A218A838EE190E00E941E
:102EB000AF1D60E0F80180810E949A1E81E0DF91E1
:102EC000CF911F910F91FF90EF90DF90CF90BF9027
:102ED000AF9008950F931F93CF93DF93EC01062FCC
:102EE00018E0F89460E088810E94D31E61E0888138
:102EF0000E949A1E85E090E00E94AF1D00FF02C074
:102F000061E001C060E088810E94D31E069578943C
:102F10008EE190E00E94AF1D61E088810E94D31E87
:102F200085E090E00E94AF1D1150D9F660E08881E5
:102F3000DF91CF911F910F910C949A1ECF92DF9247
:102F4000EF92FF921F93CF93DF93FC011181C28117
:102F5000D3810E94581D6B017C018881812359F027
:102F60000E94581D6C197D098E099F0964307105F6
:102F70008105910590F3F8948EE190E00E94AF1DD9
:102F8000C881789488E290E00E94AF1D1C2381E004
:102F900009F480E0DF91CF911F91FF90EF90DF90D7
:102FA000CF9008950F931F93CF93DF93EC0160E0D0
:102FB00088810E949A1E08E010E0CE010E949E17B0
:102FC00020E8829FC00111241695182B0150A9F703
:102FD000812FDF91CF911F910F9108950F931F9330
:102FE000CF93DF931F92CDB7DEB78C0169830E9428
:102FF000D8166981C8010F90DF91CF911F910F9171
:103000000C94D9160C94D916CF93DF93EC010E943F
:10301000F31681110DC062E0CE010E946A17CE0145
:103020000E942117CE010E94D2178C838C8101C08F
:1030300080E0DF91CF910895EF92FF920F931F935D
:10304000CF93DF931F92CDB7DEB77C01DC011296E0
:103050008D919C911397062F10E0009749F02D91C8
:103060003C912017310779F169830E941D276981FE
:10307000F70111830083F3E06F9FC00111240E94C8
:103080008526D70113969C938E931297892B21F452
:103090008EE591E00E94D62780E090E0F701408124
:1030A00051819A01220F331F240F351F8217930776
:1030B00050F4D7011296ED91FC911397E80FF91F88
:1030C00010820196EBCF0F90DF91CF911F910F915E
:1030D000FF90EF900895CF93DF93EC01862F262F7A
:1030E00030E0F901E458FF4FE491E887F901E05737
:1030F000FF4FE491F0E0EE0FFF1FE255FF4F2591E7
:1031000034913D832C8361E00E949A1E60E2CE01DF
:10311000DF91CF910C941C18CF93DF93EC01862F95
:10312000262F30E0F901E458FF4FE491E887F901D8
:10313000E057FF4FE491F0E0EE0FFF1FE255FF4F25
:10314000259134913D832C8361E00E949A1E60E2B8
:10315000CE01DF91CF910C941C180F93FC01A62F88
:10316000B0E080819181A817B907B8F4862F880F45
:10317000860F90E0A281B381A80FB91F2C93A28182
:10318000B381A80FB91F11964C930280F381E02DF3
:10319000E80FF91F028381E001C080E00F910895DC
:1031A000CF92DF92EF92FF920F931F93CF93DF9313
:1031B0007C01142FD22EC02E611113C0C0E0D0E0CC
:1031C000F70180819181C817D90748F40C2D2D2D66
:1031D000412F6C2FC7010E94AD182196F1CF81E0DD
:1031E00004C061500E94AD1880E0DF91CF911F9123
:1031F0000F91FF90EF90DF90CF9008950F931F9362
:10320000D8013FB7F8949C91822F80958923292B70
:10321000FB01460F571FE417F50781F0919168E015
:103220002C9300C097FF8C93990F00C000C000C082
:1032300008F48C9300C06A9599F7EDCF3FBF1F91BA
:103240000F9108950F931F93FC0104811581208134
:103250003181A901440F551F420F531F62817381B1
:1032600020850E94FE1861E070E080E090E01F91F0
:103270000F910C94871DCF93DF93EC018A819B8182
:103280000E941D271B821A82DF91CF9108950F9310
:103290001F93CF93DF931F92CDB7DEB78C01698365
:1032A0000E94D816F80134968FE0DF011D928A95AE
:1032B000E9F76981C8010F90DF91CF911F910F91BC
:1032C0000C94D9160C94D9160F93611116C060E0B6
:1032D00070E0FC01E60FF71F2483FB013196E80F35
:1032E000F91F4483FB013296E80FF91F04836D5FD9
:1032F0007F4F6F30710569F718C06630B0F470E029
:1033000061507109E62FEE0FE60FF0E0DC01AE0F21
:10331000BF1F14962C93DF011196A80FB91F1496A6
:103320004C933296E80FF91F04830F9108950F9381
:103330001F93CF93DF93EC010E94F316811117C006
:1033400062E0CE010E946A17CE010E94F31681113D
:103350000EC000E010E0FE01E00FF11F6481CE011D
:103360000E946A170F5F1F4F0F301105A1F7DF9101
:10337000CF911F910F910895FC0160830895FC0186
:10338000608308950C94BC19FC0180810C94F51D98
:103390000F931F93CF93DF931F92CDB7DEB78C01AE
:1033A00069830E9491096981F8016687C8010F90BD
:1033B000DF91CF911F910F910C9492090C94920977
:1033C000CF92DF92EF92FF920F931F93CF93DF93F1
:1033D000CDB7DEB72C970FB6F894DEBF0FBECDBFCA
:1033E0008C010E94C409C8010E94D00A40E064E434
:1033F000C8010E946A0A0E94581D6B017C01C80125
:103400000E94A80981110BC00E94581D6C197D09EA
:103410008E099F096E3E72408105910580F3C801B7
:103420000E94C409C8010E94D00A40E06EEBC801A6
:103430000E946A0ACE0101967C016E0196E0C90ED7
:10344000D11CC8010E94B40AF70181937F01EC15D9
:10345000FD05B9F76A8170E0762F66278981682BB0
:10346000882777FD8095982F0E94C52420E030E0C2
:1034700040E85DE30E9479252C960FB6F894DEBFF4
:103480000FBECDBFDF91CF911F910F91FF90EF90B5
:10349000DF90CF9008950F931F93CF93DF931F92E8
:1034A000CDB7DEB78C0169830E94D8166981C80147
:1034B0000F90DF91CF911F910F910C94D9160C941E
:1034C000D916CF93DF93EC010E94F31681110DC042
:1034D00062E0CE010E946A17CE010E942117CE0140
:1034E0000E94D2178C838C8101C080E0DF91CF9144
:1034F00008950F931F93CF93DF931F92CDB7DEB73D
:103500008C0169830E94D816F801168217821086F2
:1035100011861286138614866981C8010F90DF9187
:10352000CF911F910F910C94D9160C94D916CF926C
:10353000DF92EF92FF92CF93DF93EC010E94F3169C
:10354000882339F0C12CD12C8AEFE82E83E4F82EA1
:1035500027C062E0CE010E946A17CE010E942117A7
:10356000CE010E94D2178C83CE010E94D2178D8388
:103570008D816C8170E0782B80E090E00E94C32404
:103580002CE53FE84CE851E40E942A246B017C01C1
:1035900020E030E04AEF53E40E947525181694F2BB
:1035A000C701B601DF91CF91FF90EF90DF90CF90F0
:1035B0000895CF93DF93EC010E94F316811123C08D
:1035C00063E0CE010E946A17CE010E94F3168111BA
:1035D0001AC06E81CE010E946A176F81CE010E94CF
:1035E0006A176885CE010E946A176985CE010E941C
:1035F0006A176A85CE010E946A176B85CE01DF913A
:10360000CF910C946A17DF91CF9108950F93FC012D
:1036100060FF03C046832783008761FF03C04187A3
:1036200022870387637021F0CF010F910C94D91A80
:103630000F9108951F920F920FB60F9211242F939E
:103640003F934F935F936F937F938F939F93AF932A
:10365000BF93EF93FF938091660387FF05C010929D
:103660008500109284001AC020916603332727FD3D
:1036700030958091650390E0281739077CF480919C
:103680006603992787FD9095FC01EE0FFF1FE80F59
:10369000F91FE959FC4F808187FD15C080916603B1
:1036A0008F5F8093660320916603332727FD309553
:1036B0008091650390E028173907BCF48091660378
:1036C0008C305CF112C080916603992787FD90953C
:1036D000FC01EE0FFF1FE80FF91FE959FC4F808135
:1036E00060E08F770E94D31ED9CF809184009091A3
:1036F0008500049680349C4918F480E49CE905C058
:103700008091840090918500049690938900809325
:1037100088008FEF8093660338C020918400309139
:10372000850080916603992787FD9095FC01EE0F37
:10373000FF1FE80FF91FE959FC4F81819281820F29
:10374000931F909389008093880080916603992746
:1037500087FD9095FC01EE0FFF1FE80FF91FE95957
:10376000FC4F808187FF11C080916603992787FDF8
:103770009095FC01EE0FFF1FE80FF91FE959FC4F70
:10378000808161E08F770E94D31EFF91EF91BF91FE
:10379000AF919F918F917F916F915F914F913F91E9
:1037A0002F910F900FBE0F901F90189520916503D9
:1037B0002C30A0F431E0320F30936503FC012083FC
:1037C000822F90E0FC01EE0FFF1FE80FF91FE9596F
:1037D000FC4F88EB9BE09283818308952FEFFC01DF
:1037E00020830895DF92EF92FF920F931F93CF9360
:1037F000DF93EC01D62E7A01890188818C3008F0A4
:1038000066C061E08D2D0E949A1E8881A82FB0E0CD
:10381000FD01EE0FFF1FEA0FFB1FE959FC4F2D2D95
:103820002F7790819078922B908360E272E06E19EE
:103830007F0977FF02C06D5F7F4F7595679575951E
:103840006795698340E659E0401B510B57FF02C062
:103850004D5F5F4F55954795559547954A836CE069
:103860000E94F0259CE0899FB001112420E030E007
:10387000A901460F571FFA01EE0FFF1FE40FF51FB6
:10388000E959FC4F908197FD16C02F5F3F4F2C30B8
:10389000310571F781110FC01092800082E0809392
:1038A00081001092850010928400B19A80916F007F
:1038B000826080936F00888190E0FC01EE0FFF1F13
:1038C000E80FF91FE959FC4F808180688083888167
:1038D000DF91CF911F910F91FF90EF90DF900895AE
:1038E00020E639E040E252E00C94F21BFC018081BA
:1038F0008C3070F5918128E830E0291B310997FD63
:103900003395220F331F220F331F621773077CF08A
:10391000928128E532E0291B310997FD3395220F6A
:10392000331F220F331F621773070CF49B012250C1
:103930003109220F331F4FB7F89490E0FC01EE0FCE
:10394000FF1FE80FF91FE959FC4F328321834FBF56
:1039500008954F925F926F927F92AF92BF92CF92F3
:10396000DF92EF92FF920F931F93CF93DF93EC01BF
:10397000603282E078070CF040C077FD06C0653BFE
:1039800071052CF064EB70E002C060E070E08981AA
:1039900028E830E0281B310987FD3395220F331FBB
:1039A000220F331F5901CC24B7FCC094DC2C88278C
:1039B00077FD8095982F2A8148E552E0421B5109F6
:1039C00027FD5395440F551F440F551F2A016624A8
:1039D00057FC6094762C7F926F925F924F9214EB1B
:1039E000E12EF12C00E010E020E030E0A9010E947F
:1039F00079230F900F900F900F90CE01DF91CF9110
:103A00001F910F91FF90EF90DF90CF90BF90AF90FC
:103A10007F906F905F904F900C94761C1F920F9246
:103A20000FB60F9211242F933F938F939F93AF93D1
:103A3000BF9380918C0390918D03A0918E03B091E0
:103A40008F0330918B0323E0230F2D3720F4019651
:103A5000A11DB11D05C026E8230F0296A11DB11DB1
:103A600020938B0380938C0390938D03A0938E03FC
:103A7000B0938F038091900390919103A091920352
:103A8000B09193030196A11DB11D80939003909373
:103A90009103A0939203B0939303BF91AF919F9131
:103AA0008F913F912F910F900FBE0F901F901895FF
:103AB0002FB7F89460918C0370918D0380918E03E1
:103AC00090918F032FBF08953FB7F8948091900392
:103AD00090919103A0919203B091930326B5A89B76
:103AE00005C02F3F19F00196A11DB11D3FBF6627EC
:103AF000782F892F9A2F620F711D811D911D42E031
:103B0000660F771F881F991F4A95D1F70895CF92A6
:103B1000DF92EF92FF92CF93DF936B017C010E94C3
:103B2000641DEB01C114D104E104F10489F00E9489
:103B3000C0230E94641D6C1B7D0B683E734090F394
:103B400081E0C81AD108E108F108C851DC4FEACF7A
:103B5000DF91CF91FF90EF90DF90CF90089582306A
:103B6000910538F0880F991F880F991F05970197C5
:103B7000F1F70895789484B5826084BD84B581603E
:103B800084BD85B5826085BD85B5816085BDEEE665
:103B9000F0E0808181608083E1E8F0E01082808144
:103BA00082608083808181608083E0E8F0E08081B2
:103BB00081608083E1EBF0E0808184608083E0EBD2
:103BC000F0E0808181608083EAE7F0E080818460BA
:103BD0008083808182608083808181608083808116
:103BE000806880831092C10008958E3008F08E5056
:103BF00087702091220190E4299F90011124822B4B
:103C000080937C0080917A00806480937A00809118
:103C10007A0086FDFCCF809178002091790090E0B9
:103C2000922B08951F93CF93DF93182FEB0161E040
:103C30000E949A1E209711F460E004C0CF3FD10586
:103C400039F461E0812FDF91CF911F910C94D31E45
:103C5000E12FF0E0E859FF4FE491E330F9F048F448
:103C6000E130B9F0E230A1F584B5806284BDC8BD11
:103C700034C0E730E9F0E83019F1E43049F58091DB
:103C80008000806280938000D0938B00C0938A0074
:103C900024C084B5806884BDC7BD1FC080918000EA
:103CA000806880938000D0938900C093880015C0FD
:103CB0008091B00080688093B000C093B3000DC0C5
:103CC0008091B00080628093B000C093B40005C0C2
:103CD000C038D1050CF0B5CFAFCFDF91CF911F9198
:103CE0000895833081F028F4813099F08230A1F07A
:103CF00008958730A9F08830B9F08430D1F48091EC
:103D000080008F7D03C0809180008F77809380003A
:103D1000089584B58F7702C084B58F7D84BD0895E2
:103D20008091B0008F7703C08091B0008F7D809329
:103D3000B0000895CF93DF9390E0FC01E458FF4F6B
:103D40002491FC01E057FF4F8491882349F190E0D2
:103D5000880F991FFC01E854FF4FA591B49182553B
:103D60009F4FFC01C591D4919FB7611108C0F89491
:103D70008C91209582238C93888182230AC06230A3
:103D800051F4F8948C91322F309583238C93888151
:103D9000822B888304C0F8948C91822B8C939FBFD4
:103DA000DF91CF9108950F931F93CF93DF931F92CD
:103DB000CDB7DEB7282F30E0F901E859FF4F8491E5
:103DC000F901E458FF4F1491F901E057FF4F0491B6
:103DD0000023C9F0882321F069830E94711E698144
:103DE000E02FF0E0EE0FFF1FE255FF4FA591B491D9
:103DF0009FB7F8948C91611103C01095812301C085
:103E0000812B8C939FBF0F90DF91CF911F910F91CA
:103E10000895CF93DF93282F30E0F901E859FF4F41
:103E20008491F901E458FF4FD491F901E057FF4F15
:103E3000C491CC2391F081110E94711EEC2FF0E00F
:103E4000EE0FFF1FEC55FF4FA591B4912C912D2340
:103E500081E090E021F480E002C080E090E0DF911A
:103E6000CF910895FC01818D228D90E0805C9F4F61
:103E7000821B91098F7399270895FC01918D828D82
:103E8000981731F0828DE80FF11D858D90E008952F
:103E90008FEF9FEF0895FC01918D828D981761F04F
:103EA000828DDF01A80FB11D5D968C91928D9F5F71
:103EB0009F73928F90E008958FEF9FEF08958FEC9E
:103EC00090E2892B49F080E090E0892B29F00E9454
:103ED000CF2081110C9400000895FC01848DDF0136
:103EE000A80FB11DA35ABF4F2C91848D90E001966D
:103EF0008F739927848FA689B7892C93A089B1895C
:103F00008C9180648C93938D848D981306C0028865
:103F1000F389E02D80818F7D80830895CF93DF9397
:103F2000EC01888D8823C9F0EA89FB89808185FDB1
:103F300005C0A889B9898C9186FD0FC00FB607FC12
:103F4000F5CF808185FFF2CFA889B9898C9185FF53
:103F5000EDCFCE010E946D1FE7CFDF91CF91089585
:103F6000CF92DF92FF920F931F93CF93DF931F9215
:103F7000CDB7DEB76C0181E0D60158968C93589787
:103F80005B969C915B975C968C915C97981307C0AD
:103F90005096ED91FC915197808185FD2EC0F601E0
:103FA000038D10E00F5F1F4F0F731127F02EF601E6
:103FB000848DF81211C00FB607FCF9CFD6015096C8
:103FC000ED91FC915197808185FFF1CFC601698306
:103FD0000E946D1F6981EBCF838DE80FF11DE35ABD
:103FE000FF4F6083D6015B960C935B975296ED91E1
:103FF000FC915397808180620CC0D6015696ED915A
:10400000FC91579760835096ED91FC915197808178
:104010008064808381E090E00F90DF91CF911F91C9
:104020000F91FF90DF90CF900895BF92CF92DF92D3
:10403000EF92FF92CF93DF93EC016A017B01B22EE6
:10404000E889F98982E08083411581EE580761058E
:104050007105A1F060E079E08DE390E0A7019601A1
:104060000E94102621503109410951095695479562
:1040700037952795211580E1380798F0E889F98967
:10408000108260E874E88EE190E0A70196010E943A
:104090001026215031094109510956954795379508
:1040A0002795EC85FD853083EE85FF852083188E6E
:1040B000EC89FD89B082EA89FB89808180618083F7
:1040C000EA89FB89808188608083EA89FB89808115
:1040D00080688083EA89FB8980818F7D8083DF917E
:1040E000CF91FF90EF90DF90CF90BF9008951F92F7
:1040F0000F920FB60F9211242F938F939F93EF93EC
:10410000FF93E091A403F091A5038081E091AA03BD
:10411000F091AB0382FD12C090818091AD038F5F5F
:104120008F732091AE03821751F0E091AD03F0E060
:10413000EC56FC4F958F8093AD0301C08081FF91B9
:10414000EF919F918F912F910F900FBE0F901F9025
:1041500018951F920F920FB60F9211242F933F9331
:104160004F935F936F937F938F939F93AF93BF937F
:10417000EF93FF9384E993E00E946D1FFF91EF910D
:10418000BF91AF919F918F917F916F915F914F916F
:104190003F912F910F900FBE0F901F90189584E9BB
:1041A00093E00E94321F21E0892B09F420E0822F46
:1041B0000895109297031092960388EE93E0A0E082
:1041C000B0E08093980390939903A0939A03B093DF
:1041D0009B038EE791E0909395038093940385EC85
:1041E00090E09093A1038093A00384EC90E09093DF
:1041F000A3038093A20380EC90E09093A5038093A7
:10420000A40381EC90E09093A7038093A60382EC33
:1042100090E09093A9038093A80386EC90E090939C
:10422000AB038093AA031092AD031092AE031092D9
:10423000AF031092B003089508950E94BA1D0E9422
:104240001C210E941208CFE5DFE10E948D09209712
:10425000E1F30E945F1FF9CFCF92DF92EF92FF92BE
:104260000F931F93CF93DF936C017A01EB01E60E5E
:10427000F71E00E010E0CE15DF0561F06991D60170
:10428000ED91FC910190F081E02DC6010995080F98
:10429000191FF1CFC801DF91CF911F910F91FF90AE
:1042A000EF90DF90CF9008956115710581F0DB01EB
:1042B0000D900020E9F7AD0141505109461B570B05
:1042C000DC01ED91FC910280F381E02D099480E006
:1042D00090E00895DC01ED91FC910190F081E02DDA
:1042E00009946AE871E00C9454210F931F93CF93C3
:1042F000DF93EC010E9454218C01CE010E947121B8
:10430000800F911FDF91CF911F910F9108958F9290
:104310009F92AF92BF92CF92DF92EF92FF920F9354
:104320001F93CF93DF93CDB7DEB7A1970FB6F89465
:10433000DEBF0FBECDBF7C01C42EE52FCB01D22E38
:1043400019A221E02D1510F02AE0D22E8E010F5D6A
:104350001F4F8D2C912CA12CB12C6C2D7E2FA501E3
:1043600094010E9410268C2DD29E80191124015098
:1043700011098A3014F4805D01C0895CF8018083E2
:10438000211531054105510521F0C22EE32FCA0147
:10439000E4CFB801C7010E945421A1960FB6F8944A
:1043A000DEBF0FBECDBFDF91CF911F910F91FF9068
:1043B000EF90DF90CF90BF90AF909F908F90089537
:1043C000CF92DF92EF92FF920F931F93CF93DF93E1
:1043D000EC016A017B012115310579F4E881F9814D
:1043E0000190F081E02D642FDF91CF911F910F910B
:1043F000FF90EF90DF90CF9009942A303105E9F4D7
:1044000077FF1AC06DE20E946A218C01442755276C
:10441000BA014C195D096E097F092AE0CE010E949C
:104420008721800F911FDF91CF911F910F91FF90F6
:10443000EF90DF90CF9008952AE0B701A601CE015A
:10444000DF91CF911F910F91FF90EF90DF90CF9070
:104450000C9487210F931F93CF93DF93EC019A0164
:10446000AB01662757FD6095762F0E94E0218C01F5
:10447000CE010E947121800F911FDF91CF911F917A
:104480000F9108952115310541F4DC01ED91FC9166
:104490000190F081E02D642F09940C9487210F93F3
:1044A0001F93CF93DF93EC019A01462F50E060E019
:1044B00070E00E9442228C01CE010E947121800F87
:1044C000911FDF91CF911F910F9108950F931F932B
:1044D000CF93DF93EC019A01AB0160E070E00E94A2
:1044E00042228C01CE010E947121800F911FDF9129
:1044F000CF911F910F9108954F925F926F927F928B
:104500008F929F92AF92BF92CF92DF92EF92FF92E3
:104510000F931F93CF93DF93EC016A017B01B22EBF
:104520009A01AB01C701B6010E94DC25882319F06E
:104530006DE871E027C026013701E89477F82FEF86
:104540003FEF4FE75FE7C301B2010E94DC25811115
:104550000DC02FEF3FEF4FE75FE7C301B2010E94AD
:10456000262418161CF461E971E00CC02FEF3FEF10
:104570004FE75FE4C701B6010E9475251816ACF439
:1045800065E971E0CE01DF91CF911F910F91FF900E
:10459000EF90DF90CF90BF90AF909F908F907F90E3
:1045A0006F905F904F900C9454212FEF3FEF4FE7A7
:1045B0005FECC701B6010E94262487FDE1CF20E011
:1045C00030E0A901C701B6010E94262487FF0AC076
:1045D0006DE2CE010E946A218C01F7FAF094F7F89F
:1045E000F09402C000E010E0A12C60E070E080E0F8
:1045F0009FE3AB1441F020E030E040E251E40E9440
:104600002A24A394F6CF9B01AC01C701B6010E94F6
:10461000C2236B017C010E9497242B013C010E9464
:10462000C3249B01AC01C701B6010E94C1236B01E9
:104630007C012AE0B301A201CE010E948721080F6C
:10464000191FBB2039F069E971E0CE010E945421A5
:10465000080F191F7B2C772041F120E030E040E269
:1046600051E4C701B6010E9479256B017C010E94CB
:1046700092244B01AA2497FCA094BA2C2AE030E0A3
:10468000B501A401CE010E94E021080F191FC50148
:10469000B4010E94C5249B01AC01C701B6010E9470
:1046A000C1236B017C017A94D6CFC801DF91CF91F1
:1046B0001F910F91FF90EF90DF90CF90BF90AF9040
:1046C0009F908F907F906F905F904F9008950F9381
:1046D0001F93CF93DF93EC010E947C228C01CE01CB
:1046E0000E947121800F911FDF91CF911F910F9137
:1046F00008954F925F926F927F92AF92BF92CF9246
:10470000DF92EF92FF920F931F93CF93DF93CDB77A
:10471000DEB729013A01621B730B840B950B2989C3
:104720003A894B895C892A193B094C095D09298B17
:104730003A8B4B8B5C8B9B01AC0169897A898B89A5
:104740009C890E94E025E418F50806091709A801CC
:1047500097010E9432262A0D3B1D4C1D5D1DCA018A
:10476000B901DF91CF911F910F91FF90EF90DF90F2
:10477000CF90BF90AF907F906F905F904F900895D3
:1047800008955058BB27AA270ED075C166D130F0C6
:104790006BD120F031F49F3F11F41EF45BC10EF495
:1047A000E095E7FB51C1E92F77D180F3BA17620793
:1047B00073078407950718F071F49EF58FC10EF406
:1047C000E0950B2EBA2FA02D0B01B90190010C0121
:1047D000CA01A0011124FF27591B99F0593F50F439
:1047E000503E68F11A16F040A22F232F342F442791
:1047F000585FF3CF469537952795A795F040539589
:10480000C9F77EF41F16BA0B620B730B840BBAF058
:104810009150A1F0FF0FBB1F661F771F881FC2F7C3
:104820000EC0BA0F621F731F841F48F487957795D7
:104830006795B795F7959E3F08F0B3CF9395880F8E
:1048400008F09927EE0F979587950895D9D008F429
:1048500081E008950CD00FC107D140F0FED030F0B8
:1048600021F45F3F19F0F0C0511139C1F3C014D1E8
:1048700098F39923C9F35523B1F3951B550BBB2727
:10488000AA2762177307840738F09F5F5F4F220FD4
:10489000331F441FAA1FA9F333D00E2E3AF0E0E8CD
:1048A00030D091505040E695001CCAF729D0FE2F19
:1048B00027D0660F771F881FBB1F261737074807AB
:1048C000AB07B0E809F0BB0B802DBF01FF27935861
:1048D0005F4F2AF09E3F510568F0B6C000C15F3FB0
:1048E000ECF3983EDCF3869577956795B795F79549
:1048F0009F5FC9F7880F911D9695879597F9089541
:10490000E1E0660F771F881FBB1F621773078407DC
:10491000BA0720F0621B730B840BBA0BEE1F88F7EB
:10492000E095089504D06894B111D9C00895BCD021
:1049300088F09F5790F0B92F9927B751A0F0D1F088
:10494000660F771F881F991F1AF0BA95C9F712C012
:10495000B13081F0C3D0B1E00895C0C0672F782F87
:104960008827B85F39F0B93FCCF38695779567957E
:10497000B395D9F73EF490958095709561957F4FEA
:104980008F4F9F4F0895E89409C097FB3EF4909590
:104990008095709561957F4F8F4F9F4F9923A9F018
:1049A000F92F96E9BB279395F695879577956795A7
:1049B000B795F111F8CFFAF4BB0F11F460FF1BC0EB
:1049C0006F5F7F4F8F4F9F4F16C0882311F096E97E
:1049D00011C0772321F09EE8872F762F05C066232C
:1049E00071F096E8862F70E060E02AF09A95660FE5
:1049F000771F881FDAF7880F9695879597F908959E
:104A0000990F0008550FAA0BE0E8FEEF16161706DF
:104A1000E807F907C0F012161306E407F50798F047
:104A2000621B730B840B950B39F40A2661F0232B60
:104A3000242B252B21F408950A2609F4A140A695DC
:104A40008FEF811D811D089597F99F6780E870E0C1
:104A500060E008959FEF80EC089500240A941616F4
:104A6000170618060906089500240A94121613065C
:104A7000140605060895092E0394000C11F48823EA
:104A800052F0BB0F40F4BF2B11F460FF04C06F5F06
:104A90007F4F8F4F9F4F089557FD9058440F551FDC
:104AA00059F05F3F71F04795880F97FB991F61F0B0
:104AB0009F3F79F087950895121613061406551F27
:104AC000F2CF4695F1DF08C0161617061806991F93
:104AD000F1CF86957105610508940895E894BB2788
:104AE00066277727CB0197F908958ADF08F48FEFBF
:104AF00008950BD0C0CFB1DF28F0B6DF18F09523B2
:104B000009F0A2CFA7CF1124EACFC6DFA0F3959F6B
:104B1000D1F3950F50E0551F629FF001729FBB27A4
:104B2000F00DB11D639FAA27F00DB11DAA1F649F50
:104B30006627B00DA11D661F829F2227B00DA11D03
:104B4000621F739FB00DA11D621F839FA00D611D89
:104B5000221F749F3327A00D611D231F849F600DAA
:104B6000211D822F762F6A2F11249F5750408AF0E3
:104B7000E1F088234AF0EE0FFF1FBB1F661F771F6F
:104B8000881F91505040A9F79E3F510570F05CCFAF
:104B9000A6CF5F3FECF3983EDCF38695779567955B
:104BA000B795F795E7959F5FC1F7FE2B880F911D8D
:104BB0009695879597F9089523DF880B990B0895AB
:104BC000DB018F939F930E945126BF91AF91A29FCB
:104BD000800D911DA39F900DB29F900D11240895FB
:104BE000991B79E004C0991F961708F0961B881F3F
:104BF0007A95C9F78095089597FB072E16F40094CF
:104C000007D077FD09D00E945C2607FC05D03EF452
:104C1000909581959F4F0895709561957F4F089568
:104C2000A1E21A2EAA1BBB1BFD010DC0AA1FBB1FB0
:104C3000EE1FFF1FA217B307E407F50720F0A21B22
:104C4000B30BE40BF50B661F771F881F991F1A948F
:104C500069F760957095809590959B01AC01BD01B9
:104C6000CF010895052E97FB1EF400940E9449265B
:104C700057FD07D00E94102607FC03D04EF40C9479
:104C8000492650954095309521953F4F4F4F5F4FA6
:104C9000089590958095709561957F4F8F4F9F4FA8
:104CA00008950E947626A59F900DB49F900DA49F15
:104CB000800D911D11240895AA1BBB1B51E107C053
:104CC000AA1FBB1FA617B70710F0A61BB70B881F9C
:104CD000991F5A95A9F780959095BC01CD0108952B
:104CE000EE0FFF1F0590F491E02D0994A29FB001F3
:104CF000B39FC001A39F700D811D1124911DB29F10
:104D0000700D811D1124911D0895CF93DF93823082
:104D1000910510F482E090E0E0913304F0913404C6
:104D200020E030E0A0E0B0E0309739F140815181DF
:104D300048175907B8F04817590771F482819381D1
:104D4000109729F013969C938E9312972CC09093F2
:104D500034048093330427C02115310531F0421704
:104D6000530718F0A901DB0101C0EF019A01BD0151
:104D7000DF010280F381E02DD7CF21153105F9F055
:104D8000281B390B2430310580F48A819B81611501
:104D9000710521F0FB019383828304C09093340456
:104DA00080933304FE01329644C0FE01E20FF31FEC
:104DB0008193919322503109398328833AC02091FD
:104DC000310430913204232B41F4209102013091BF
:104DD000030130933204209331042091000130917B
:104DE00001012115310541F42DB73EB74091040171
:104DF00050910501241B350BE0913104F0913204F0
:104E0000E217F307A0F42E1B3F0B2817390778F0A1
:104E1000AC014E5F5F4F2417350748F04E0F5F1F00
:104E200050933204409331048193919302C0E0E0A7
:104E3000F0E0CF01DF91CF910895CF93DF930097FA
:104E400009F487C0FC01329713821282C0913304A7
:104E5000D0913404209781F420813181280F391FAB
:104E600080913104909132048217930779F5F09381
:104E70003204E09331046DC0DE0120E030E0AE1773
:104E8000BF0750F412964D915C9113979D01411507
:104E9000510509F1DA01F3CFB383A2834081518137
:104EA000840F951F8A179B0771F48D919C91119720
:104EB000840F951F02969183808312968D919C9109
:104EC0001397938382832115310529F4F0933404D9
:104ED000E09333043EC0D9011396FC93EE931297EE
:104EE0004D915D91A40FB51FEA17FB0779F48081FE
:104EF0009181840F951F0296D90111969C938E93F0
:104F00008281938113969C938E931297E0E0F0E058
:104F10008A819B81009719F0FE01EC01F9CFCE0147
:104F2000029628813981820F931F2091310430919C
:104F300032042817390769F4309729F410923404A1
:104F40001092330402C013821282D0933204C093B1
:104F50003104DF91CF910895662777270C94D12AE9
:104F6000FC0188279927E89421912032E9F3293020
:104F700010F02E30C8F32B3241F02D3239F4689402
:104F800004C00E94CE27820F911D219120532A3008
:104F9000C0F31EF4909581959F4F08957AE0979FF6
:104FA000902D879F802D910D112408950F931F93AD
:104FB000CF93DF93E0913704F0913804238121FFF0
:104FC0001BC0EC0100E010E0899160913704709102
:104FD0003804DB011896ED91FC911997882331F084
:104FE0000995892B89F30FEF1FEFEECF8AE0099522
:104FF000892B11F4C80102C08FEF9FEFDF91CF9191
:105000001F910F910895AEE0B0E0E9E0F8E20C9452
:10501000C92C85E08C838B899C899A838983AE0116
:10502000495E5F4F6D897E89CE0101960E949A2963
:105030002E96E2E00C94E52C20FD09C0FC0123FD36
:1050400005C022FF02C073836283518340830895A9
:1050500044FD10C046FD10C0DB01FC01AA0FBB1FC0
:10506000EE1FFF1F1094D1F76A0F7B1F8E1F9F1F2B
:1050700031E003C033E001C034E0660F771F881FC2
:10508000991F3150D1F7620F711D811D911D089537
:105090000F931F93CF93DF938C01C8010E945F2C65
:1050A000EC0197FD08C00E94342C892BB1F7B801A0
:1050B000CE010E949D2CCE01DF91CF911F910F91C7
:1050C00008958F929F92AF92CF92DF92EF92FF92CC
:1050D0000F931F93CF93DF93EC01A62E4A01022F6B
:1050E0000E945F2CAC0155274B32510521F04D3207
:1050F000510551F40068AA9411F480E067C0CE0114
:105100000E945F2C97FDF9CF102F1D7F302F307339
:1051100001F58033F1F4FF24FA94FA0C09F442C04B
:10512000CE010E945F2C97FD3DC0382F3F7D383562
:1051300051F41264AA94AA94A9F1CE010E945F2CA2
:1051400097FF07C02FC006FF02C0126001C01261A6
:10515000AF2CC12CD12C760120ED280F283080F007
:1051600014FF04C0BE010E949D2C19C02A3040F0DB
:1051700016FFF8CF2F7D3FEE320F363098F72750CD
:10518000412FC701B6010E9428286B017C011260E3
:10519000AA9459F0CE010E945F2C97FFDDCF11FD3C
:1051A00004C0ABCFC12CD12C760117FF08C0F094FE
:1051B000E094D094C094C11CD11CE11CF11C212F9F
:1051C000B701A601C4010E941C2881E0DF91CF91A4
:1051D0001F910F91FF90EF90DF90CF90AF909F9035
:1051E0008F900895A1E2B0E0E8EFF8E20C94BE2CB5
:1051F0005C017A018E010F5F1F4F680180E2D801C8
:105200001D928A95E9F7F501738040E050E0812C0A
:10521000B0E0912C81E090E0F90173FCA59173FE60
:10522000A1918F017A2F9F01A11103C080E090E02E
:105230007DC0AE3519F44115510559F1E92DF0E065
:10524000E417F5073CF4AD3569F1AD3219F4BB2331
:1052500019F103C0B11101C08A2EE72FE695E6953A
:10526000E69586010E0F111DF801A72FA7708C017E
:1052700002C0000F111FAA95E2F7D801B081BA2B26
:10528000B083781559F0781510F47F5FE6CF715030
:10529000E4CF9924939403C0B1E001C0B0E04F5F24
:1052A0005F4FBACFBB2319F08E8180628E8391103D
:1052B00003C09924939415C0F601CE0181962081F4
:1052C00020952193E817F907D1F7F3CFE114F10402
:1052D00029F0D7018C93F70131967F01615001F1DC
:1052E000912CC50169A30E945F2C69A197FD16C08E
:1052F000282F269526952695F601E20FF11D20818F
:1053000030E0AC014770552702C0359527954A9586
:10531000E2F720FDDBCFB5010E949D2C911086CFD6
:10532000E114F10411F0D7011C92C801A196EDE03F
:105330000C94DA2C4F925F927F928F929F92AF9251
:10534000BF92CF92DF92EF92FF920F931F93CF9372
:10535000DF931F92CDB7DEB78C012B017A01FC01E0
:1053600017821682A12CF801D380F201D3FC85911B
:10537000D3FE8191382F2F01882309F4FCC090E0DF
:1053800039830E94342C3981892B21F0C8010E9475
:105390004828E9CF353241F4F201D3FC3591D3FEF0
:1053A00031912F01353269F4C80139830E945F2C95
:1053B000398197FDDEC03817B1F2B8010E949D2CEB
:1053C000DAC03A3241F4D3FC3591D3FE31912F014A
:1053D000BB24B39401C0B12C712C20ED230F2A30D3
:1053E00090F4FB2DF260BF2E672D70E080E090E01E
:1053F00040E20E942828762EF201D3FC3591D3FE9C
:1054000031912F01EACFB1FE03C0711003C0B3C0C8
:1054100077247A94383619F03C3661F014C0F201E2
:10542000D3FC3591D3FE31912F01383661F4FB2D39
:10543000F860BF2E8B2D8460B82EF201D3FC35911D
:10544000D3FE31912F01332309F495C0632F70E00F
:1054500082EC90E039830E943C2C3981892B09F43D
:105460008AC0B0FC07C0F701C080D180C701029696
:105470007C0102C0C12CD12C3E3651F4F80146818A
:10548000578160E070E02B2DC6010E941C286BCF75
:105490003336A1F4B1FC02C077247394C8010E9492
:1054A0005F2C97FD66C0C114D10429F0F6018083FA
:1054B000C60101966C017A9489F757C03B3559F4BF
:1054C0009201A601672DC8010E94F2282C010097C5
:1054D00009F04BC045C0C80139830E944828398172
:1054E00097FD47C03F3669F128F4343631F139363B
:1054F00079F12BC0333769F03537F9F026C0C11484
:10550000D10429F0F6018082C60101966C017A94DB
:1055100071F0C8010E945F2C4C0197FD08C00E94E9
:10552000342C892B61F3B801C4010E949D2CC11455
:10553000D104D9F0F601108218C0FB2DF062BF2E05
:1055400007C08B2D8061B82E03C09B2D9064B92EAF
:105550002B2DA601672DC8010E946128811105C06D
:10556000F8018381807329F406C0B0FCFCCEA394BB
:10557000FACEAA2019F08A2D90E002C08FEF9FEF9B
:105580000F90DF91CF911F910F91FF90EF90DF90DF
:10559000CF90BF90AF909F908F907F905F904F90F3
:1055A0000895A0E0B0E0E7EDFAE20C94BF2C8B0187
:1055B0006115710521F0DB018C9311969C93EC0130
:1055C0005E01BFEFAB1ABB0A7501C8808C2D90E05D
:1055D0000E94342C892B11F0E501F2CFEDE2CE12BE
:1055E00008C07E01F2E0EF0EF11CC980DD24D394E7
:1055F00009C02BE2C21205C07E0142E0E40EF11C9C
:10560000C980D12CE701219743E050E066ED70E0BE
:10561000CE010E94472C892BC1F4239645E050E02F
:1056200061ED70E0CE010E94472C892B09F425968C
:105630000115110519F0D801CD93DC93D11006C1E5
:1056400060E070E080E89FE70AC143E050E06EEC64
:1056500070E0CE010E94472C892B59F401151105E9
:1056600009F4F9C0B2E0EB0EF11CF801F182E0821E
:10567000F2C0F70160E070E0CB01C0E0D0E07F0154
:10568000A0EDAA2EAC0C29E02A1530F14D2D426078
:10569000B42E2D2D2870D2FE04C0211125C02196D4
:1056A00023C021112197A5E0B0E09B01AC010E942D
:1056B0005126660F771F881F991F6A0D711D811D66
:1056C000911D6839A9E97A078A07A9E19A0760F06C
:1056D000BD2DB660BB2E08C02EEFA2120AC0D3FCAF
:1056E00050C04D2D4860B42E3196D701CC90DB2CA4
:1056F000C6CF2C2D2F7D253409F043C0A081AD32BB
:1057000041F4BD2DB061DB2E7F0122E0E20EF11CE1
:105710000CC07F01AB3231F04FEFE41AF40A21E004
:1057200030E006C0A2E0EA0EF11CA18122E030E0E8
:10573000A053AA3018F0E21AF30A23C0F70120E0C0
:1057400030E02038BCE03B075CF4A901440F551F52
:10575000440F551F240F351F220F331F2A0F311DF1
:10576000AF014F5F5F4F7A01A081A053AA3010F4C0
:10577000FA01E7CFD4FE03C0319521953109C20F5C
:10578000D31FD1FE09C00115110531F0E1E0EE1A79
:10579000F108D801ED92FC920E94C3242D2D2370B4
:1057A000233019F04B015C0106C04B015C01B7FAD4
:1057B000B094B7F8B09420E030E0A901C501B4017D
:1057C0000E942624882309F43EC0D7FF06C0D19545
:1057D000C195D1090DEE10E002C005E011E06801AD
:1057E000B8E1CB1AD10890E2E92EF12CCE15DF05F5
:1057F00074F0F8012591359145915491C501B4019A
:105800000E9479254B015C01CE19DF09EFCF0450CE
:105810001109F594E7940C151D0541F78A2D880FA1
:105820008B2D881F8F3F49F020E030E0A901C50192
:10583000B4010E942624811106C082E290E0909378
:105840003C0480933B04C501B40109C060E070E0F2
:1058500080E89FEF04C060E070E080EC9FE7CDB788
:10586000DEB7ECE00C94DB2C911180C0803219F093
:1058700089508550D0F70895FC010590061621F057
:105880000020D9F7C00108953197CF010895FB0199
:10589000DC014150504088F08D9181341CF08B35F3
:1058A0000CF4805E659161341CF06B350CF4605E25
:1058B000861B611171F3990B0895881BFCCFCF9360
:1058C000DF93EC012B8120FF33C026FF0AC02F7B22
:1058D0002B838E819F8101969F838E838A8190E0A6
:1058E00029C022FF0FC0E881F9818081992787FDB7
:1058F0009095009719F420622B831AC03196F98392
:10590000E8830EC0EA85FB85099597FF09C02B81C6
:10591000019611F480E101C080E2822B8B8308C0E4
:105920002E813F812F5F3F4F3F832E83992702C0F7
:105930008FEF9FEFDF91CF910895FB01238120FF2F
:1059400012C026FD10C08F3F3FEF930761F08283A6
:105950002F7D2064238326813781215031093783AD
:105960002683992708958FEF9FEF08959927882719
:1059700008952F923F924F925F926F927F928F92F3
:105980009F92AF92BF92CF92DF92EF92FF920F93CE
:105990001F93CF93DF93CDB7DEB7CA1BDB0B0FB6D8
:1059A000F894DEBF0FBECDBF09942A883988488895
:1059B0005F846E847D848C849B84AA84B984C8842B
:1059C000DF80EE80FD800C811B81AA81B981CE0F22
:1059D000D11D0FB6F894DEBF0FBECDBFED01089507
:1059E00011E0CEE0D1E004C0FE010E9472262296B2
:0A59F000C031D107C9F7F894FFCFCA
:1059FA0000003D04800001000000000006070508C1
:105A0A0013011302120112021101110210011002F4
:105A1A000000014125640A004125642025640A002A
:105A2A004125642025642025640A00412564202537
:105A3A00642025642025642025640A007472756533
:105A4A000066616C7365004F4B00090A0C045468C8
:105A5A00657265206973206E6F7420656E6F756755
:105A6A0068207370616365210D0000000000B01F9B
:105A7A002C21321F4B1F3D1F8E1F0D0A006E616EB7
:0C5A8A0000696E66006F7666002E00005A
:00000001FF
