:100000000C9488000C94B0000C94B0000C94B000D8
:100010000C94B0000C94B0000C94B0000C94AE0E94
:100020000C94B0000C94B0000C94B0000C94911897
:100030000C94B0000C94B0000C94B0000C94B00080
:100040000C94851A0C94B0000C94EE1D0C94201E98
:100050000C94B0000C94B0000C94B0000C94B00060
:100060000C94B0000C94B0000000000800020100E5
:100070000003040700000000000000000102040863
:100080001020408001020408102001020408102002
:10009000040404040404040402020202020203032E
:1000A00003030303000000002300260029000000D2
:1000B0000000250028002B0000000000240027007D
:1000C0002A006364696E6F70737578585B004E41E7
:1000D0004E494E495459494E46CDCCCC3D0AD723C2
:1000E0003C17B7D13877CC2B329595E6241FB14F0A
:1000F0000A000020410000C84200401C4620BCBE4F
:100100004CCA1B0E5AAEC59D7400D208501E26095B
:1001100011241FBECFEFD8E0DEBFCDBF11E0A0E0BD
:10012000B1E0E8EEF4E502C005900D92AC39B107FC
:10013000D9F724E0ACE9B1E001C01D92A130B207CB
:10014000E1F711E0CEE0D1E004C02297FE010E9469
:10015000E923CA30D107C9F70E94941E0C94672A7C
:100160000C94000061E08DE692E00E94410D60E099
:1001700070E08DE692E00E946D0D62E08DE692E007
:100180000E94410D60E070E08DE692E00C946D0DF0
:100190000F931F93CF93DF9380E090E00E94B20013
:1001A00060E083E00E944A1C60E084E00E944A1CF8
:1001B00060E08EE00E944A1C60E08DE00E944A1CD4
:1001C000CAE5D1E006EB12E0F1E0CE35DF0741F100
:1001D000F80181918F01882309F18130A1F46881B0
:1001E00089E992E00E94141820E040E060E089E98B
:1001F00092E00E94851820E040E060E089E992E00A
:100200000E948B180BC0833049F4688188E792E024
:100210000E94EB1088E792E00E94ED102196D4CF67
:10022000DF91CF911F910F91089581E0809380001D
:100230008BE0809381000895CF93DF93E3E2F2E0B7
:10024000C0E0D0E04191242F30E028173907C9F0F1
:10025000411110C0FE01ED5DFD4F80839E01220F14
:10026000331F2C0F3D1FBC01C901895D9D4F0E94AA
:10027000E71907C02196C430D10521F780E090E04E
:1002800001C0CE01DF91CF910895EF92FF920F93BD
:100290001F93CF93DF93EB01FC016081613401F583
:1002A000FF92EF921F930F933F932F935F934F9380
:1002B000DF93CF932BE331E03F932F939F938F9363
:1002C0000E947A25888199810E96998388838DB7BB
:1002D0009EB70E960FB6F8949EBF0FBE8DBF1AC084
:1002E000FF92EF921F930F933F932F935F934F9340
:1002F000DF93CF932CE331E03F932F939F938F9322
:100300000E947A258DB79EB70E960FB6F8949EBFC1
:100310000FBE8DBFDF91CF911F910F91FF90EF9096
:100320000895DC01ED91FC9111979F012F5F3F4FE4
:100330002D933C9320812032A1F70895EF92FF92F4
:100340000F931F93CF93DF93CDB7DEB72C970FB6E4
:10035000F894DEBF0FBECDBF9C878B87CE010B9676
:100360000E949101CE0101967C018E010D5F1F4F0D
:100370009E012B5F3F4FAE01495F5F4FBE01675F3C
:100380007F4F8B859C850E944501698585E592E0BC
:100390000E94811609811A8154E0159507955A9596
:1003A000E1F72B813C8164E0359527956A95E1F76B
:1003B0004D815E8174E0559547957A95E1F76F819F
:1003C00085E592E00E94C51685E592E00E94171728
:1003D0002C960FB6F894DEBF0FBECDBFDF91CF9144
:1003E0001F910F91FF90EF900895CF93DF93EC0151
:1003F0000E94910188819981DF91CF910C942725EA
:10040000CF93DF9300D0CDB7DEB79A838983CE0137
:1004100001960E94F501682F8DE692E00E94410D41
:10042000CE0101960E94F501BC018DE692E00E948A
:100430006D0D0F900F90DF91CF910895EF92FF9285
:100440000F931F93CF93DF9300D0CDB7DEB79A837E
:100450008983CE0101960E94F5017C01CE010196AF
:100460000E94F5018C01C7010E941C01053B11058A
:1004700058F49C01220F331F280F391FB801C901FE
:10048000895D9D4F0E94201A0F900F90DF91CF91B0
:100490001F910F91FF90EF900895CF93DF9300D0BD
:1004A000CDB7DEB79A83898362E08DE692E00E9441
:1004B000410DCE0101960E94F501BC018DE692E04E
:1004C0000E946D0D61E08DE692E00E94410DCE012B
:1004D00001960E94F501BC018DE692E00E946D0D2F
:1004E0000F900F90DF91CF9108951F93CF93DF93DB
:1004F00000D0CDB7DEB79A838983CE0101960E94E2
:10050000F501182F60E00E94111C812F0E946C1BC6
:100510004AE050E0BC0188E593E00E94A11F0F90E3
:100520000F90DF91CF911F9108951F93CF93DF9389
:1005300000D0CDB7DEB79A838983CE0101960E94A1
:10054000F501182F60E00E94111C812F0E946C1B86
:100550004AE050E0BC0188E593E00E94A11F0F90A3
:100560000F90DF91CF911F910895CF93DF9300D02B
:10057000CDB7DEB79A838983CE0101960E94F5013B
:10058000682F8AE492E00E94700FCE0101960E94CB
:10059000F5012091220230E02817390719F46CE4A4
:1005A00071E002C061E571E088E593E00E94EC1E15
:1005B0000F900F90DF91CF910895CF93DF9300D0EC
:1005C000CDB7DEB79A838983CE0101960E94F501EB
:1005D000682F8EE592E00E945E178EE592E00E9401
:1005E0006017AB01BC0122E030E088E593E00E9497
:1005F000DE200F900F90DF91CF9108951F93CF933E
:10060000DF9300D0CDB7DEB79A838983CE01019600
:100610000E94F501182F60E00E94111C812F0E949A
:10062000801C892B19F46CE471E002C061E571E073
:1006300088E593E00E94EC1E0F900F90DF91CF9120
:100640001F9108950F931F93CF93DF9300D0CDB7E1
:10065000DEB79A838983CE0101960E94F5018C0151
:10066000CE0101960E94F5019C01442737FD40957B
:10067000542FB80184E592E00E949F0C0F900F90D8
:10068000DF91CF911F910F910895CF93DF9300D009
:10069000CDB7DEB79A838983CE0101960E94F5011A
:1006A000682F89E992E00E94141889E992E00E947B
:1006B0001618AB01BC0122E030E088E593E00E940F
:1006C000DE200F900F90DF91CF910895CF93DF93AD
:1006D00000D0CDB7DEB79A838983CE0101960E9400
:1006E000F501682F86EA92E00E94391086EA92E0CE
:1006F0000E943B10882319F06CE471E002C061E5B0
:1007000071E088E593E00E94EC1E0F900F90DF915E
:10071000CF910895CF93DF9300D0CDB7DEB79A8302
:100720008983CE0101960E94F501682F85EA92E047
:100730000E943F1785EA92E00E9444174AE050E089
:10074000BC0188E593E00E94A11F0F900F90DF91FC
:10075000CF910895EF92FF920F931F93CF93DF9362
:1007600000D01F92CDB7DEB79A838983CE01019660
:100770000E94F501682FCE0101966B830E94F5015E
:10078000F82E6B8186EA92E00E943910CE01019624
:100790000E94F501182FCE0101960E94F501082F45
:1007A000CE0101960E94F501E82EF0FE07C0282F29
:1007B000402F612F86EA92E00E948410F1FE07C06C
:1007C0002E2D402F612F86EA92E00E948A100F9012
:1007D0000F900F90DF91CF911F910F91FF90EF90AD
:1007E0000895EF92FF920F931F93CF93DF9300D062
:1007F0001F92CDB7DEB79A838983CE0101960E94FE
:10080000F501682FCE0101966B830E94F501F82E49
:100810006B8189E992E00E941418CE0101960E9432
:10082000F501182FCE0101960E94F501082FCE0187
:1008300001960E94F501E82EF0FE07C0282F402FF8
:10084000612F89E992E00E948518F1FE07C02E2DE4
:10085000402F612F89E992E00E948B180F900F9032
:100860000F90DF91CF911F910F91FF90EF9008951E
:100870000F931F93CF93DF9300D01F92CDB7DEB7B6
:100880009A838983CE0101960E94F501682FCE01DB
:1008900001966B830E94F5018C016B8183E992E0E4
:1008A0000E94DA1483E992E00E94DC1483E992E06A
:1008B0000130110519F40E94F51402C00E94F814C9
:1008C0004AE050E0682F88E593E00E94C61F0F9031
:1008D0000F900F90DF91CF911F910F910895FF928C
:1008E0000F931F93CF93DF9300D000D0CDB7DEB727
:1008F0009A838983CE0101960E94F501682FCE016B
:1009000001966C830E94F501F82ECE0101960E949B
:10091000F501482FCE0101964B830E94F5018C0111
:100920006C8188E792E00E94EB1021E04B81012B63
:1009300009F420E06F2D88E792E00E9498120F9052
:100940000F900F900F90DF91CF911F910F91FF901B
:1009500008951F93CF93DF9300D000D0CDB7DEB7BB
:100960009A838983CE0101960E94F501682FCE01FA
:1009700001966C830E94F501182FCE0101960E940A
:10098000F501482FCE0101964B830E9491016C81A5
:1009900088E792E00E94EB1029813A814B81612F18
:1009A00088E792E00E943E120F900F900F900F90F8
:1009B000DF91CF911F9108959F92AF92BF92CF92F6
:1009C000DF92EF92FF920F931F93CF93DF93CDB7F8
:1009D000DEB760970FB6F894DEBF0FBECDBF988B21
:1009E0008F878E01015F1F4FC8010E94F501982E6D
:1009F000C8010E94F501D82EC8010E94F501C82E39
:100A0000CE0101967C015C01C8010E94F501F7014D
:100A100081937F01E017F107B9F7692D88E792E02C
:100A20000E94EB1095014C2D6D2D88E792E00E94FD
:100A30000D1160960FB6F894DEBF0FBECDBFDF91EB
:100A4000CF911F910F91FF90EF90DF90CF90BF90CB
:100A5000AF909F9008951F93CF93DF9300D01F9284
:100A6000CDB7DEB79A838983CE0101960E94F50146
:100A7000682FCE0101966B830E94F501182FCE01DD
:100A800001960E94F501482F6B8188E792E04B8325
:100A90000E94EB104B81612F88E792E00E94BE110B
:100AA0000F900F900F90DF91CF911F9108951F939A
:100AB000CF93DF9300D01F92CDB7DEB79A8389839F
:100AC000CE0101960E94F501682FCE0101966B833D
:100AD0000E94F501182FCE0101960E94F501482FC2
:100AE0006B8188E792E04B830E94EB104B81612F72
:100AF00088E792E00E94E5110F900F900F90DF9130
:100B0000CF911F910895CF93DF9300D0CDB7DEB77B
:100B10009A838983CE0101960E94F501682F88E7A8
:100B200092E00E94EB1088E792E00E94ED100F9097
:100B30000F90DF91CF9108951F93CF93DF9300D053
:100B4000CDB7DEB79A838983CE0101960E94F50165
:100B5000182FCE0101960E94F501682F812F0E9467
:100B60004A1C0F900F90DF91CF911F910895FF9233
:100B70000F931F93CF93DF9300D01F92CDB7DEB7B3
:100B80009A838983CE0101960E94F501682FCE01D8
:100B900001966B830E94F501F82ECE0101960E940A
:100BA000F5018C016B8186EA92E00E943910F1FE1A
:100BB0000AC086EA92E00115110519F00E94B810EA
:100BC00002C00E94BD10F0FE09C086EA92E0012B2F
:100BD00019F00E94AE1002C00E94B3100F900F9047
:100BE0000F90DF91CF911F910F91FF900895CF93B8
:100BF000DF9300D0CDB7DEB79A838983CE0101960B
:100C00000E94F501682F8FE392E00E94DF178FE3C7
:100C100092E00E94E117882319F06CE471E002C0B1
:100C200061E571E088E593E00E94EC1E0F900F9063
:100C3000DF91CF9108950F931F93CF93DF9300D04F
:100C40001F92CDB7DEB79A838983CE0101960E94A9
:100C5000F501682FCE0101966B830E94F5018C018E
:100C60006B8184E492E00E947D0E84E492E00E9415
:100C70007F0E60E084E492E0012B19F40E94A30E41
:100C800002C00E94980E4AE050E0BC0188E593E063
:100C90000E94DD1F0F900F900F90DF91CF911F9159
:100CA0000F910895CF93DF9300D0CDB7DEB79A832D
:100CB0008983CE0101960E94F5010E946C1B4AE0D7
:100CC00050E0BC0188E593E00E94A11F0F900F90B7
:100CD000DF91CF910895CF93DF93EC010E949101B2
:100CE00088819981DF91CF910C942325CF92DF9257
:100CF000EF92FF921F93CF93DF9300D0CDB7DEB773
:100D00009A838983CE0101960E94F501182FCE01A6
:100D100001960E946B066B017C01612F88E792E0CF
:100D20000E94EB10B701A60188E792E00E94D7125B
:100D30000F900F90DF91CF911F91FF90EF90DF9078
:100D4000CF900895CF92DF92EF92FF921F93CF93AF
:100D5000DF9300D0CDB7DEB79A838983CE010196A9
:100D60000E94F501182FCE0101960E946B066B01BF
:100D70007C01612F83E392E00E94C70AB701A601BC
:100D800083E392E00E94EE0A0F900F90DF91CF91E3
:100D90001F91FF90EF90DF90CF900895EF92FF9218
:100DA0000F931F93CF93DF931F92CDB7DEB78C01C4
:100DB00001960E9427258037910509F4B7C00CF0F1
:100DC00049C08A30910509F493C00CF58330910530
:100DD00009F4C5C074F48130910509F4B6C00CF073
:100DE000B9C0892B09F011C19EEFE92E92E0F92ECE
:100DF000E3C08830910509F471C00CF074C0079706
:100E000009F003C135EBE32E32E0F32ED5C0863670
:100E1000910509F477C07CF48C30910509F459C030
:100E20000CF4C6C08336910509F0EFC0A8ECEA2E99
:100E3000A0E0FA2EBBC08E36910509F46DC00CF00F
:100E400070C08D36910509F0E0C051EFE52E53E0FA
:100E5000F52EACC08837910509F495C0DCF48437D1
:100E6000910509F486C05CF48237910509F463C0EA
:100E70000CF066C09FE6E92E94E0F92E97C0863705
:100E8000910509F471C00CF079C046E6E42E43E008
:100E9000F42E92C08C37910509F47FC05CF48A3738
:100EA000910509F475C00CF07DC097EFE92E95E02F
:100EB000F92E82C0893C910501F18A3C910539F1F6
:100EC000883C910509F0A1C0F0E0EF2EF2E0FF2E82
:100ED0006DC02DEDE22E22E0F22E6EC085E7E82EE9
:100EE00082E0F82E69C0BEE9EB2EB1E0FB2E5EC0B9
:100EF000A2E2EA2EA3E0FA2E59C0EDE4EE2EE2E0E3
:100F0000FE2E54C072EBE72E70E0F72E4FC06EE15C
:100F1000E62E62E0F62E4AC045E4E42E43E0F42ECD
:100F20004BC038E3E32E34E0F32E46C026E7E22E32
:100F300026E0F22E3BC089EAE82E84E0F82E36C087
:100F4000BCEDEB2EB4E0FB2E31C0FBE2EF2EF5E062
:100F5000FF2E2CC0E7E5EE2EE5E0FE2E27C073E85D
:100F6000E72E75E0F72E22C06AEAE62E63E0F62E41
:100F70001DC05AE8E52E53E0F52E1EC03CE9E32ED5
:100F800035E0F32E13C027EBE22E25E0F22E0EC043
:100F90008BE1E82E86E0F82E0FC0B2E5EB2EB6E02E
:100FA000FB2E0AC0A2EAEA2EA6E0FA2E20E005C037
:100FB000F5E9EF2EF2E0FF2E21E0D8010D900020A0
:100FC000E9F7AD0141505109401B510BE091580325
:100FD000F09159030280F381E02DB80188E593E098
:100FE00029830995C801F7010995298121110DC0AF
:100FF00067E571E088E593E00F90DF91CF911F9155
:101000000F91FF90EF900C94EC1E0F90DF91CF9119
:101010001F910F91FF90EF900895FC0120812D34D6
:1010200011F40C94CE06089560E083E10E94111C37
:1010300060E082E10E94111C60E080E10E94111CCE
:1010400060E08FE00E94111C61E083E00E94111CAF
:1010500061E08EE00E94111C61E084E00E94111C9E
:1010600061E08DE00E94111C8AE492E00C94800FF4
:1010700028EE33E040E050E066E271E084E592E083
:101080000E949F0C2CE231E040E050E06FEE71E0F6
:1010900084E592E00E949F0C26E040E052EC61E083
:1010A00070E088E593E00E948C1D0C9414080F9367
:1010B0001F938AE492E00E94F30F892B79F00E943B
:1010C000CF1A60931E0270931F02809320029093A8
:1010D000210280914D028093220215C00E94CF1AF6
:1010E00000911E0210911F022091200230912102D6
:1010F000601B710B820B930B693C71058105910597
:1011000010F0109222021F910F910895DF92EF923A
:10111000FF920F931F93CF93DF93C6EBD2E00AE5C4
:1011200011E0F2E0CA3BDF07A9F1EE24E394F12CD1
:101130008881811102C0E12CF12CF801D1908F013E
:101140008D2D0E94801CE816F90611F188818823F4
:1011500011F018821DC060E971E080E090E00E940B
:10116000FE1A6D2D82EB92E00E94FC1482EB92E05D
:101170000E94161561E082EB92E00E948D1582EBD1
:1011800092E00E94441582EB92E00E94F51588835C
:101190002196C7CFDF91CF911F910F91FF90EF90D4
:1011A000DF900895CF93DF9382EB92E00E94FB14CF
:1011B00060E086EA92E00E941D1060E085EA92E01D
:1011C0000E94421760E089E992E00E94F91760E00E
:1011D00083E992E00E94C61460E088E792E00E94F2
:1011E000E71060E08DE692E00E94030D60E08EE57E
:1011F00092E00E94481760E085E592E00E94601648
:1012000067E084E592E00E949C0C62E08AE492E050
:101210000E94640F60E084E492E00E94690E60E046
:101220008FE392E00E94CB1760E083E392E00E949C
:10123000B30AC7E2D2E0CE010E944D19239682E0A4
:10124000C333D807C1F7DF91CF91089585E592E0C8
:101250000C9430171F93CF93DF93C0E8D0E010E2D7
:1012600088E593E00E94A91C892B81F188E593E031
:101270000E94C21C20911C0230911D028A30C1F4D0
:10128000C9010197FC01E456FE4F40814D3011F435
:101290009C01F6CFF901E456FE4F108311821092A3
:1012A0001D0210921C028CE991E00E940D08D8CF1B
:1012B000F901E456FE4F8083C9010196BE010E94E8
:1012C000732390931D0280931C02CACFDF91CF91AC
:1012D0001F9108950E9457080E942A090C948608BD
:1012E000089570E0FB01E458FF4FE491DC01EC93BA
:1012F000FB01E057FF4FE491F0E0EE0FFF1FEC55CC
:10130000FF4F25913491FC013283218308951F936F
:10131000CF93DF93FC011081C181D2819981812F0C
:101320008095892389838A81812B8A838AE090E052
:101330000E94261B9881912381E009F480E0DF91CF
:10134000CF911F910895FF920F931F93CF93DF9337
:10135000FC011081C181D281F8948981F12EF09431
:101360008F2189838A81812B8A8378940DE70150AC
:1013700041F182E090E00E94261B88818123B9F32D
:10138000F8948A818F218A838981812B898378943B
:1013900080EE91E00E94261BF89489818F21898339
:1013A0008A81812B8A8386E490E00E94261B8881B3
:1013B000812301E009F000E078948AE991E00E943D
:1013C000261B802FDF91CF911F910F91FF900895E1
:1013D0001F93CF93DF93FC011081C181D281912FA4
:1013E000909560FF12C0F8948A8189238A8389814D
:1013F000812B89838AE090E00E94261B8A81812BC1
:101400008A83789487E390E011C0F8948A818923D5
:101410008A838981812B898381E490E00E94261B45
:101420008A81812B8A83789485E090E0DF91CF9147
:101430001F910C94261B0F931F93CF93DF93FC01F6
:101440001081C181D281F8948981812B89838A811D
:10145000012F009580238A8383E090E00E94261B61
:101460008981802389838A81812B8A838AE090E025
:101470000E94261BC881789485E390E00E94261B79
:101480001C2381E009F480E0DF91CF911F910F913F
:101490000895CF92DF92EF92FF920F931F93CF9315
:1014A000DF931F92CDB7DEB76C01E62E08E010E0A7
:1014B000FF24F39461E09F2D9E2109F460E0C601B2
:1014C00049830E94E809FF0C015011094981011567
:1014D000110581F741111DC0F894D6011196ED91C7
:1014E000FC91129791818C9180958923818311962B
:1014F000ED91FC91129782819C91892B82831196A8
:10150000ED91FC91129792818C9180958923828331
:1015100078940F90DF91CF911F910F91FF90EF90F2
:10152000DF90CF900895EF92FF920F931F93CF9388
:10153000DF938C01C8E0D0E0F12CEE24E394C801E5
:101540000E941B0A8111FE28EE0C2197C1F78F2DF6
:10155000DF91CF911F910F91FF90EF90089540E0A0
:101560006CEC0C94490A0F931F93CF93DF931F9257
:10157000CDB7DEB78C0169830E94FB146981C80175
:101580000F90DF91CF911F910F910C94FC140C944C
:10159000FC14CF93DF93EC010E94161581111BC040
:1015A00062E0CE010E948D15CE010E9416158111B8
:1015B00012C06C81CE010E948D156D81CE010E94FA
:1015C0008D156E81CE010E948D156F81CE01DF9148
:1015D000CF910C948D15DF91CF9108952F923F926A
:1015E0004F925F926F927F928F929F92AF92BF9233
:1015F000CF92DF92EF92FF920F931F93CF93DF93DF
:10160000CDB7DEB72F970FB6F894DEBF0FBECDBFB4
:101610008C012A013B019A01AB01FC0160857185B7
:10162000828593850E949D21882309F46CC1F8016D
:101630004086518662867386CE0101969C878B8791
:101640008AE0EB85FC8511928A95E9F720E03CE37E
:101650004CE156E4C301B2010E94EC2287FD04C0B4
:1016600089E0F80184830EC020E030EC49E754ECB7
:10167000C301B2010E949D21181644F080E1F801D7
:10168000848389E0858386838783D3C020E030E02C
:10169000A901C301B2010E949D21811107C080E40C
:1016A000F8018483858386831782C3C020E030E0FD
:1016B000A901C301B2010E949D2187FF07C077FAEB
:1016C000709477F87094F1E0FD8701C01D8620E0EA
:1016D00030E04AE754E4C301B2010E94A1210E9414
:1016E0000E226983C301B2010E9409229B01CB0132
:1016F00068EE73E00E947323E4E6F0E0BF010E940D
:1017000073236A83C901BF010E9473234AE0E42E58
:10171000F12CB7010E9473236B83C901B7010E94AA
:1017200073235C018C8320E030E040E251E4C3018C
:10173000B2010E94F0220E940922CB01B7010E944F
:1017400073236C018D8320E030E048EC52E4C30148
:10175000B2010E94F0220E940922CB01B7010E942F
:1017600073234C018E8320E030E04AE754E4C30148
:10177000B2010E94F0220E940922CB01B7010E940F
:1017800073239F878E878F83212CE22CF12CE1E03D
:10179000F0E0EC0FFD1FEE0DFF1D3080311002C098
:1017A0002394F3CF20E030E040E85FE3C301B201CF
:1017B0000E94EC2287FD10C0A32CFE01EE0DFF1D40
:1017C000C280FE01EE0DFF1D8380FE01EE0DFF1DA8
:1017D000848124E0221907C0BB24DD2499248E854E
:1017E0009F85992721E03D85313059F480E1F8014A
:1017F0008483A582C6828782223051F02130C9F4C9
:101800000DC0F801A482C58286828783233021F42B
:101810008681806286830DC0223029F4F80185819B
:101820008062858306C0213021F4F80184818062C2
:101830008483F801848185FF0BC08581811141C0BB
:10184000868181113EC08781882309F445C039C053
:10185000F801858185FF0AC0868181114DC087818D
:1018600081114AC0F80185818F703FC0F8018681DF
:1018700085FF0CC08781811109C086818F708783A5
:10188000858186838481858380E48483C8012F9643
:101890000FB6F894DEBF0FBECDBFDF91CF911F9181
:1018A0000F91FF90EF90DF90CF90BF90AF909F90FF
:1018B0008F907F906F905F904F903F902F900C94FF
:1018C000C90AF8018681811117C0F8018781811149
:1018D00013C0F801858109C0F80184818F70878366
:1018E00080E4848385838683D1CF878384818683C4
:1018F00080E484838583CACFF80187818111C6CFB4
:10190000F8018681BCCF2F960FB6F894DEBF0FBECC
:10191000CDBFDF91CF911F910F91FF90EF90DF909E
:10192000CF90BF90AF909F908F907F906F905F907F
:101930004F903F902F9008956093BA0208954F9270
:101940005F926F927F928F929F92AF92BF92CF924F
:10195000DF92EF92FF920F931F93CF93DF93690172
:101960007A019B0140E050E060E472E48FE090E097
:101970000E94A923E901890137FF02C00F5F1F4FB1
:101980001595079561E08091BA020E94111CA8EE9E
:10199000B3E0A70196010E94C8234B015C01C12C52
:1019A000D12C76012E01662457FC6094762CC81445
:1019B000D904EA04FB04B0F461E08091BA020E9409
:1019C0004A1CC8010E94261B60E08091BA020E9456
:1019D0004A1CC8010E94261BA895C40CD51CE61CF5
:1019E000F71CE5CFDF91CF911F910F91FF90EF9002
:1019F000DF90CF90BF90AF909F908F907F906F902F
:101A00005F904F900895EF92FF920F931F93CF93A3
:101A1000DF931F92CDB7DEB77C0169830E94FB1470
:101A2000F701178216821086118612866981062FA9
:101A300010E0000F111F065F1E4F633058F0F801D1
:101A40006081C7010E94FC14F8018181F701818740
:101A500010860FC061E0F80181810E94111CF8011D
:101A60008081F7018583F8018181F701848381E01A
:101A700080870F90DF91CF911F910F91FF90EF9092
:101A800008950F931F93CF93DF93EC01062F10E07F
:101A9000633050F0F801EE0FFF1FE65FFE4F6081EC
:101AA0000E94FC14188610C0000F111F065F1E4F05
:101AB00061E0F80181810E94111CF80180818D8311
:101AC00081818C8381E088878CE291E09F838E8383
:101AD000DF91CF911F910F910895EF92FF920F9395
:101AE0001F93CF93DF9300D0CDB7DEB77C01FC010D
:101AF0008285811109C069837A830E94150181E082
:101B0000F70182877A8169818B016F3F710519F036
:101B100014F00FEF10E00130FFEF1F0714F401E0A5
:101B20001FEFF701868197818017910709F4C8C0DC
:101B300017830683808517FD4EC0813079F5848137
:101B4000873019F4848160E006C0F7018481883011
:101B500089F4848161E00E944A1CF7018581B80103
:101B60000F900F90DF91CF911F910F91FF90EF9009
:101B70000C94891BF7018481893029F0F701848155
:101B8000863009F09DC0848161E00E944A1CF70103
:101B900085816FEF70E0601B710BE2CFC7010E947F
:101BA000161562E0C7010E948D15C7010E94161527
:101BB000F7016185C7010E948D15B801882777FD5F
:101BC0008095982F0E943C2220E030E040E250E4D3
:101BD0000E94A12164C08130F1F5F7018481873032
:101BE00061F4848161E00E944A1CF70185816627C7
:101BF0007727601B710B0E94891BF7018481883055
:101C000061F4848160E00E944A1CF70185816627A7
:101C10007727601B710B0E94891BF7018481893033
:101C200059F4858161E00E944A1CF7018481B80162
:101C300061507F4F0E94891BF7018481863009F033
:101C40003FC0858161E00E944A1CF7018481B80190
:101C500061507F4F85CFC7010E94161562E0C70112
:101C60000E948D15C7010E941615F7016185C701F5
:101C70000E948D15B801882777FD8095982F0E94C6
:101C80003C2220E030E040E250E40E94A1219B0190
:101C9000AC0160E070E088EC92E40E9438210E9480
:101CA0000E22C7010E948D1584EF91E00F900F90D6
:101CB000DF91CF911F910F91FF90EF900C94261B15
:101CC0000F900F90DF91CF911F910F91FF90EF90A8
:101CD00008950F931F93CF93DF931F92CDB7DEB775
:101CE0008C0169830E94FB146981C8010F90DF9108
:101CF000CF911F910F910C94FC140C94FC14CF9372
:101D0000DF93EC010E94161581110FC062E0CE0135
:101D10000E948D15CE010E944415CE010E94F5153A
:101D20008C83CE010E94F5158D83DF91CF910895AC
:101D3000CF93DF93EC0161110E947F0E8C8190E0C4
:101D4000DF91CF910895CF93DF93EC0161110E9451
:101D50007F0E8D8190E0DF91CF9108951F920F92B9
:101D60000FB60F9211240F931F932F933F934F930E
:101D70005F936F937F938F939F93AF93BF93CF9313
:101D8000EF93FF938091BB020E94801CC82F20918B
:101D9000C2023091C3022F5F3F4F3093C3022093A2
:101DA000C20280912803843618F085E08093BD023A
:101DB0009091BD02933079F018F4923039F070C0F0
:101DC000943011F1953009F44AC06AC0C11168C05D
:101DD0001092280329C0C13009F062C0E0912803A5
:101DE00081E08E0F80932803F0E08091C2029091F1
:101DF000C302E454FD4F80871092C3021092C202C6
:101E000084E08093BD024CC0C11114C0E09128034E
:101E100081E08E0F80932803F0E08091C2029091C0
:101E2000C302E454FD4F80871092C3021092C20295
:101E300083E0E7CF8091C2029091C302853691057D
:101E400078F185E08093BD020E94CF1A6093BE02B4
:101E50007093BF028093C0029093C10221C00E9480
:101E6000CF1A0091BE021091BF022091C0023091A2
:101E7000C102601B710B820B930B693C71058105DC
:101E8000910540F0109228031092C3021092C202F2
:101E900082E0B7CFC11104C01092C3021092C202F7
:101EA000FF91EF91CF91BF91AF919F918F917F91D2
:101EB0006F915F914F913F912F911F910F910F90D3
:101EC0000FBE0F901F9018956093BB028091BB02CC
:101ED00060E00E94111C8091BB028093BC020895B7
:101EE0008091BB02861759F06093BB028091BB02C0
:101EF00060E00E94111C8091BB028093BC02089597
:101F0000F89482E08093B0008093B10094E69093BF
:101F1000B3001092B200809370007894109228035E
:101F20008093BD0208951F93CF93DF93FC01A68198
:101F3000B7818C9186588D3558F480859185833092
:101F40009105A1F411968C9111978152893118F065
:101F500080E090E044C012968C9188508730C0F7A2
:101F6000158281E0808381E090E039C0833491055F
:101F70007CF311968C91119783548F3248F782E04D
:101F800090E040E050E0BA019D012F5F3F4FEC012F
:101F9000CA0FDB1FC881C850C730D0F6E901C80F8F
:101FA000D91F18811751133180F47695679557958D
:101FB0004795706802968234910549F780E28583DF
:101FC0004183528363837483CCCFC881C850C730A8
:101FD00008F0BECF7695679557954795EBCFDF9183
:101FE000CF911F9108950F931F93CF93DF93EC012F
:101FF00084EC92E09F838E838091280390E0998700
:1020000088878091BD02853081F4CE010E94930FB4
:102010008C01CE010115110529F00E94800F01E00D
:1020200010E005C00E94800F02C000E010E0C8016F
:10203000DF91CF911F910F9108950F931F93CF932D
:10204000DF931F92CDB7DEB78C0169830E94FB142A
:10205000F801158216821782108611861286138661
:102060006981C8010F90DF91CF911F910F910C945E
:10207000FC140C94FC14CF93DF93EC010E94161512
:10208000811111C062E0CE010E948D15CE010E9427
:102090004415CE010E94F5158C8388E293E20E94DC
:1020A000261B8C8101C080E0DF91CF910895CF93F2
:1020B000DF93EC010E941615811123C063E0CE016D
:1020C0000E948D15CE010E94161581111AC06E81D5
:1020D000CE010E948D156F81CE010E948D156885FD
:1020E000CE010E948D156985CE010E948D156A85ED
:1020F000CE010E948D156B85CE01DF91CF910C949E
:102100008D15DF91CF910895FC0166834783208769
:102110000C945710FC016187428723870C94571059
:102120001F93CF93DF93EC01162F0E941615811198
:1021300011C064E0CE010E948D15CE010E941615DB
:10214000811108C01D836D81CE01DF91CF911F9158
:102150000C948D15DF91CF911F910895FC0165813D
:1021600061600C949010FC0165816E7F0C9490105E
:10217000FC01658162600C949010FC0165816D7FAB
:102180000C9490100F931F93CF93DF9300D01F9266
:10219000CDB7DEB78C012B834A8369830E94FB1481
:1021A000F801349685E1DF011D928A95E9F74A81AD
:1021B000F801418F2B81228F6981C8010F900F9008
:1021C0000F90DF91CF911F910F910C94FC1425E09B
:1021D0004EE00C94C2100C94FC14CF93DF93EC01EE
:1021E000298D80E090E0821730F4FE01E80FF91F9E
:1021F00014820196F8CFCE010E94161581110AC0F3
:1022000065E0CE010E948D1588E893E1DF91CF91C2
:102210000C94261BDF91CF9108955F926F927F926D
:102220008F929F92AF92BF92CF92DF92EF92FF92E6
:102230000F931F93CF93DF93EC01542E4901E98C48
:10224000F12C8A8DA62EBB24A7FCB094222733271D
:102250002E193F092A153B0594F4AE14BF047CF4F3
:1022600090E0C42EDD24C7FCD09422273327281BFE
:10227000390B2C153D051CF4C816D90694F0CE0177
:10228000DF91CF911F910F91FF90EF90DF90CF9052
:10229000BF90AF909F908F907F906F905F900C94C5
:1022A000ED10CE010E94161562E0CE010E948D1540
:1022B000CE010E941615002711270A191B093701A4
:1022C0006A187B08AA24BB24AC18BD08061517059C
:1022D00004F517FD17C00E151F05A4F4F401E00F57
:1022E000F11F608157FC06C00C2C01C0660F0A94D8
:1022F000EAF709C070E00A2C02C0759567950A9448
:10230000E2F701C060E0CE010E948D150F5F1F4F04
:10231000DDCFDF91CF911F910F91FF90EF90DF9074
:10232000CF90BF90AF909F908F907F906F905F9075
:1023300008950F931F93CF93DF93EC01062F142F73
:102340000E941615811115C063E0CE010E948D1503
:10235000CE010E94161581110CC0602FCE010E9483
:102360008D15612FCE01DF91CF911F910F910C94AC
:102370008D15DF91CF911F910F910895CF93DF932A
:10238000E62FF0E0DC0159962C91599730E0E217E6
:10239000F307C4F4242F30E05A96AC91B0E02A172A
:1023A0003B0784F4E80FF91F548121E030E001C0BD
:1023B000220F4A95EAF7522B54834481DF91CF9143
:1023C0000C949911DF91CF910895CF93DF93E62F6D
:1023D000F0E0DC0159962C91599730E0E217F307B1
:1023E000CCF4242F30E05A96AC91B0E02A173B078A
:1023F0008CF4E80FF91F548121E030E001C0220F76
:102400004A95EAF72095252324834481DF91CF91D3
:102410000C949911DF91CF910895FF920F931F9320
:10242000CF93DF93EC01F62E042F122F0E94161586
:1024300081111EC067E0CE010E948D15CE010E9461
:102440001615811115C06F2DCE010E948D15602FBC
:10245000CE010E948D15612FCE010E948D1588EB53
:102460009BE0DF91CF911F910F91FF900C94261B61
:10247000DF91CF911F910F91FF900895AF92BF927E
:10248000CF92DF92EF92FF920F931F93CF93DF9340
:10249000EC01B62EA42E790100E010E0C62EDD245A
:1024A000C7FCD094C8018C0D9D1D8B3F2FEF920768
:1024B0001CF1298D30E08217930724F5F701208164
:1024C00021110EC08C01898D90E008171907D4F4F2
:1024D00040E0602FCE010E9499110F5F1F4FF3CF94
:1024E00021526B2D600F2E3518F023E040E001C023
:1024F0004A2DCE010E940D120A5F1F4FFFEFEF1A07
:10250000FF0AD0CF1FEF1B0D1B143CF440E0612FDE
:10251000CE010E949911B12EF5CFDF91CF911F917D
:102520000F91FF90EF90DF90CF90BF90AF90089504
:10253000EF92FF920F931F93CF93DF93EC01862FBF
:10254000F42E022F1AE0612F0E946723E92E2FE05C
:10255000280F40E06FEFCE010E940D122FE02E0DEC
:1025600040E064E0CE010E940D128F2D612F0E9489
:102570006723192F2FE0280F40E06BE0CE010E9467
:102580000D122FE0210F40E060E1CE010E940D12FC
:10259000002311F044E101C040E06AE0CE01DF9188
:1025A000CF911F910F91FF90EF900C9499112F9262
:1025B0003F924F925F926F927F928F929F92AF92D3
:1025C000BF92CF92DF92EF92FF920F931F93CF9320
:1025D000DF93CDB7DEB76A970FB6F894DEBF0FBEB4
:1025E000CDBF8C012A013B01CE0101969C8B8B8BC8
:1025F0008AE0EB89FC8911928A95E9F7CE010B9666
:102600009E8B8D8B88E0ED89FE8911928A95E9F782
:1026100020E03CE34CE156E4C301B2010E94EC220D
:1026200087FD1BC028E140E06FEFC8010E940D123A
:1026300028E140E064E0C8010E940D1228E140E07A
:1026400069E0C8010E940D1228E140E06EE0C80177
:102650000E940D1240E064E17EC120E030EC49E7C9
:1026600054ECC301B2010E949D21181624F128E107
:1026700040E064E0C8010E940D1228E140E06AE0F9
:10268000C8010E940D1228E140E06FE0C8010E94DD
:102690000D1248E060E0C8010E94991148E061E035
:1026A000C8010E94991148E062E0C8010E94991196
:1026B00048E063E050C120E030E0A901C301B2016D
:1026C0000E949D21811130C023E040E060E0C801FC
:1026D0000E940D1223E040E065E0C8010E940D1247
:1026E00023E040E06AE0C8010E940D122FE040E0C4
:1026F0006FE0C8016A960FB6F894DEBF0FBECDBF7B
:10270000DF91CF911F910F91FF90EF90DF90CF90CD
:10271000BF90AF909F908F907F906F905F904F9001
:102720003F902F900C940D1220E030E0A901C301DE
:10273000B2010E949D2187FF07C077FA709477F855
:102740007094F1E0FF8B01C01F8A20E030E04AE77F
:1027500054E4C301B2010E94A1210E940E226983A8
:10276000C301B2010E9409229B01CB0168EE73E014
:102770000E947323E4E6F0E0BF010E9473236A83A2
:10278000C901BF010E9473234AE0E42EF12CB70176
:102790000E9473236B83C901B7010E9473235C01FC
:1027A0008C8320E030E040E251E4C301B2010E949A
:1027B000F0220E940922CB01B7010E9473236C0111
:1027C0008D8320E030E048EC52E4C301B2010E9466
:1027D000F0220E940922CB01B7010E9473234C0111
:1027E0008E8320E030E04AE754E4C301B2010E9446
:1027F000F0220E940922CB01B7010E947323998F16
:10280000888F8F83212CE22CF12CE1E0F0E0EC0F9B
:10281000FD1FEE0DFF1D3080311002C02394F3CF59
:1028200020E030E040E85FE3C301B2010E94EC2207
:1028300087FD1DC0832D90E09C878B87FE01EE0DE8
:10284000FF1D828190E09E878D87FE01EE0DFF1DAA
:10285000838190E0988B8F87FE01EE0DFF1D8481B0
:1028600090E09A8B898B84E0982E921810C0BB243C
:10287000BC86AB86DD24DE86CD869924988A8F8639
:10288000888D998D99279A8B898B99249394A92C5B
:10289000B12C8F898130A1F52CE040E06FEFC801A9
:1028A0000E940D122B85215F40E064E0C8010E9468
:1028B0000D12FE013B967F0136E0C12CD12CF701B1
:1028C0002081215F40E0CA14DB0414F0632F02C0B2
:1028D0006EEF630FC8013A8F0E940D123A8DFFEF21
:1028E000CF1ADF0A82E0E80EF11C3B5F353139F781
:1028F0009FEFA91AB90A6A2D660F660F6A0D2AC0E2
:102900002B85215F40E06FEFC8010E940D12FE0190
:102910003B967F0131E0C12CD12CF7012081215F52
:1029200040E0CA14DB0414F0632F02C06EEF630FA3
:10293000C8013A8F0E940D123A8DFFEFCF1ADF0ABD
:1029400082E0E80EF11C3B5F353139F7692D660FE7
:10295000660F690D40E4C8016A960FB6F894DEBFB1
:102960000FBECDBFDF91CF911F910F91FF90EF90E0
:10297000DF90CF90BF90AF909F908F907F906F909F
:102980005F904F903F902F900C9499110F931F934D
:10299000CF93DF931F92CDB7DEB78C0169830E947E
:1029A000FB146981C8010F90DF91CF911F910F91A6
:1029B0000C94FC140C94FC14CF93DF93EC010E9454
:1029C000161581110FC062E0CE010E948D15CE0157
:1029D0000E944415CE010E94F5158C83CE010E9401
:1029E000F5158D83DF91CF910895FC0184810895C1
:1029F000FC01858108950895DC016C9370E0FB0172
:102A0000E458FF4FE4911196EC931197FB01E057C6
:102A1000FF4FE491F0E0EE0FFF1FEC55FF4F859163
:102A2000949113969C938E9312970895FF920F930F
:102A30001F93CF93DF938C01FC01F180C281D3817E
:102A400089818F2989839A818F2D809589238A8313
:102A500080EE91E00E94261B60E0F80180810E94D8
:102A6000111C82E390E00E94261BC88184E690E05E
:102A70000E94261BFC2281E009F480E0DF91CF91C7
:102A80001F910F91FF900895AF92BF92CF92DF9266
:102A9000EF92FF920F931F93CF93DF938C01FC0172
:102AA000B180C281D3810E94CF1A6B017C018981E0
:102AB000AB2CA0948A2189838A818B298A8388817F
:102AC0008B2169F00E94CF1A6C197D098E099F092C
:102AD000653671058105910590F380E013C088810A
:102AE0008B21E9F389818B2989838A818A218A83D1
:102AF0008EE190E00E94261B60E0F80180810E9438
:102B0000111C81E0DF91CF911F910F91FF90EF9009
:102B1000DF90CF90BF90AF9008950F931F93CF9306
:102B2000DF93EC01062F18E0F89460E088810E94A2
:102B30004A1C61E088810E94111C85E090E00E949F
:102B4000261B00FF02C061E001C060E088810E9496
:102B50004A1C069578948EE190E00E94261B61E065
:102B600088810E944A1C85E090E00E94261B11503B
:102B7000D9F660E08881DF91CF911F910F910C947D
:102B8000111CCF92DF92EF92FF921F93CF93DF93AE
:102B9000FC011181C281D3810E94CF1A6B017C019B
:102BA0008881812359F00E94CF1A6C197D098E0902
:102BB0009F09643071058105910590F3F8948EE1C9
:102BC00090E00E94261BC881789488E290E00E94E1
:102BD000261B1C2381E009F480E0DF91CF911F9137
:102BE000FF90EF90DF90CF9008950F931F93CF93B6
:102BF000DF93EC0160E088810E94111C08E010E086
:102C0000CE010E94C11520E8829FC00111241695B3
:102C1000182B0150A9F7812FDF91CF911F910F91B0
:102C20000895EF92FF920F931F93CF93DF931F921C
:102C3000CDB7DEB77C01DC0112968D919C91139784
:102C4000062F10E0009749F02D913C912017310795
:102C500079F169830E9494246981F70111830083CB
:102C6000F3E06F9FC00111240E94FC23D70113964B
:102C70009C938E931297892B21F48EE591E00E940C
:102C80004D2580E090E0F701408151819A01220FAB
:102C9000331F240F351F8217930750F4D701129664
:102CA000ED91FC911397E80FF91F10820196EBCF7D
:102CB0000F90DF91CF911F910F91FF90EF900895AA
:102CC000CF93DF93EC01862F262F30E0F901E458F3
:102CD000FF4FE491E887F901E057FF4FE491F0E0FE
:102CE000EE0FFF1FE255FF4F259134913D832C835A
:102CF00061E00E94111C60E2CE01DF91CF910C9443
:102D00001116CF93DF93EC01862F262F30E0F901C7
:102D1000E458FF4FE491E887F901E057FF4FE49151
:102D2000F0E0EE0FFF1FE255FF4F259134913D83F8
:102D30002C8361E00E94111C60E2CE01DF91CF91F3
:102D40000C9411160F93FC01A62FB0E080819181A5
:102D5000A817B907B8F4862F880F860F90E0A281D4
:102D6000B381A80FB91F2C93A281B381A80FB91FFB
:102D700011964C930280F381E02DE80FF91F028336
:102D800081E001C080E00F910895CF92DF92EF9231
:102D9000FF920F931F93CF93DF937C01142FD22EBA
:102DA000C02E611113C0C0E0D0E0F7018081918195
:102DB000C817D90748F40C2D2D2D412F6C2FC701B2
:102DC0000E94A2162196F1CF81E004C061500E94BA
:102DD000A21680E0DF91CF911F910F91FF90EF90AD
:102DE000DF90CF9008950F931F93D8013FB7F894C9
:102DF0009C91822F80958923292BFB01460F571F19
:102E0000E417F50781F0919168E02C9300C097FFDB
:102E10008C93990F00C000C000C008F48C9300C0D0
:102E20006A9599F7EDCF3FBF1F910F9108950F93CA
:102E30001F93FC010481158120813181A901440F78
:102E4000551F420F531F6281738120850E94F31624
:102E500061E070E080E090E01F910F910C94FE1A09
:102E6000CF93DF93EC018A819B810E9494241B8283
:102E70001A82DF91CF910895FC0160830895FC01CF
:102E8000608308950C943C17FC0180810C946C1BAA
:102E90000F931F93CF93DF931F92CDB7DEB78C01B3
:102EA00069830E9470096981F8016687C8010F90E3
:102EB000DF91CF911F910F910C9471090C947109BE
:102EC000CF92DF92EF92FF920F931F93CF93DF93F6
:102ED000CDB7DEB72C970FB6F894DEBF0FBECDBFCF
:102EE0008C010E94A309C8010E94AF0A40E064E47B
:102EF000C8010E94490A0E94CF1A6B017C01C801D7
:102F00000E94870981110BC00E94CF1A6C197D099C
:102F10008E099F096E3E72408105910580F3C801BC
:102F20000E94A309C8010E94AF0A40E06EEBC801ED
:102F30000E94490ACE0101967C016E0196E0C90EFD
:102F4000D11CC8010E94930AF70181937F01EC15FF
:102F5000FD05B9F76A8170E0762F66278981682BB5
:102F6000882777FD8095982F0E943C2220E030E052
:102F700040E85DE30E94F0222C960FB6F894DEBF85
:102F80000FBECDBFDF91CF911F910F91FF90EF90BA
:102F9000DF90CF9008950F931F93CF93DF931F92ED
:102FA000CDB7DEB78C0169830E94FB146981C8012B
:102FB0000F90DF91CF911F910F910C94FC140C9402
:102FC000FC14CF93DF93EC010E94161581110DC004
:102FD00062E0CE010E948D15CE010E944415CE0103
:102FE0000E94F5158C838C8101C080E0DF91CF9128
:102FF00008950F931F93CF93DF931F92CDB7DEB742
:103000008C0169830E94FB14F801168217821086D6
:103010001186128613866981C8010F90DF91CF91C6
:103020001F910F910C94FC140C94FC14CF92DF921E
:10303000EF92FF92CF93DF93EC010E941615882345
:1030400039F0C12CD12C8AEFE82E83E4F82E27C06A
:1030500062E0CE010E948D15CE010E944415CE0182
:103060000E94F5158C83CE010E94F5158D838D810C
:103070006C8170E0782B80E090E00E943A222CE591
:103080003FE84CE851E40E94A1216B017C0120E063
:1030900030E04AEF53E40E94EC22181694F2C70184
:1030A000B601DF91CF91FF90EF90DF90CF90089520
:1030B000CF93DF93EC010E941615811123C063E0CA
:1030C000CE010E948D15CE010E94161581111AC0E5
:1030D0006E81CE010E948D156F81CE010E948D15EB
:1030E0006885CE010E948D156985CE010E948D15DF
:1030F0006A85CE010E948D156B85CE01DF91CF913F
:103100000C948D15DF91CF910895FC016683478360
:1031100020870C945818FC016187428723870C9400
:1031200058181F920F920FB60F9211242F933F93AE
:103130004F935F936F937F938F939F93AF93BF93BF
:10314000EF93FF9380912A0387FF05C010928500BB
:10315000109284001AC020912A03332727FD30954E
:103160008091290390E0281739077CF480912A0385
:10317000992787FD9095FC01EE0FFF1FE80FF91FBF
:10318000E55DFC4F808187FD15C080912A038F5F2C
:1031900080932A0320912A03332727FD30958091BD
:1031A000290390E028173907BCF480912A038C305A
:1031B0005CF112C080912A03992787FD9095FC014C
:1031C000EE0FFF1FE80FF91FE55DFC4F808160E007
:1031D0008F770E944A1CD9CF8091840090918500FE
:1031E000049680349C4918F480E49CE905C08091E1
:1031F00084009091850004969093890080938800C4
:103200008FEF80932A0338C020918400309185008D
:1032100080912A03992787FD9095FC01EE0FFF1FEF
:10322000E80FF91FE55DFC4F81819281820F931FAA
:10323000909389008093880080912A03992787FDC5
:103240009095FC01EE0FFF1FE80FF91FE55DFC4FA5
:10325000808187FF11C080912A03992787FD90956F
:10326000FC01EE0FFF1FE80FF91FE55DFC4F8081A9
:1032700061E08F770E944A1CFF91EF91BF91AF915F
:103280009F918F917F916F915F914F913F912F917E
:103290000F900FBE0F901F901895209129032C308E
:1032A000A0F431E0320F30932903FC012083822FF8
:1032B00090E0FC01EE0FFF1FE80FF91FE55DFC4FEA
:1032C00088EB9BE09283818308952FEFFC0120839C
:1032D0000895DF92EF92FF920F931F93CF93DF93A6
:1032E000EC01D62E7A01890188818C3008F066C005
:1032F00061E08D2D0E94111C8881A82FB0E0FD0196
:10330000EE0FFF1FEA0FFB1FE55DFC4F2D2D2F7702
:1033100090819078922B908360E272E06E197F0921
:1033200077FF02C06D5F7F4F7595679575956795BF
:10333000698340E659E0401B510B57FF02C04D5FC7
:103340005F4F55954795559547954A836CE00E9488
:1033500067239CE0899FB001112420E030E0A9019F
:10336000460F571FFA01EE0FFF1FE40FF51FE55D33
:10337000FC4F908197FD16C02F5F3F4F2C303105D9
:1033800071F781110FC01092800082E0809381005C
:103390001092850010928400B19A80916F00826033
:1033A00080936F00888190E0FC01EE0FFF1FE80F13
:1033B000F91FE55DFC4F8081806880838881DF9103
:1033C000CF911F910F91FF90EF90DF90089520E62D
:1033D00039E040E252E00C946919FC0180818C30A4
:1033E00070F5918128E830E0291B310997FD33956C
:1033F000220F331F220F331F621773077CF0928155
:1034000028E532E0291B310997FD3395220F331F40
:10341000220F331F621773070CF49B0122503109EE
:10342000220F331F4FB7F89490E0FC01EE0FFF1FFF
:10343000E80FF91FE55DFC4F328321834FBF0895EC
:103440004F925F926F927F92AF92BF92CF92DF9234
:10345000EF92FF920F931F93CF93DF93EC016032B3
:1034600082E078070CF040C077FD06C0653B71052F
:103470002CF064EB70E002C060E070E0898128E825
:1034800030E0281B310987FD3395220F331F220FAF
:10349000331F5901CC24B7FCC094DC2C882777FD5E
:1034A0008095982F2A8148E552E0421B510927FD5B
:1034B0005395440F551F440F551F2A01662457FC8E
:1034C0006094762C7F926F925F924F9214EBE12E74
:1034D000F12C00E010E020E030E0A9010E94F02093
:1034E0000F900F900F900F90CE01DF91CF911F9111
:1034F0000F91FF90EF90DF90CF90BF90AF907F90B3
:103500006F905F904F900C94ED191F920F920FB631
:103510000F9211242F933F938F939F93AF93BF9359
:103520008091500390915103A0915203B0915303A5
:1035300030914F0323E0230F2D3720F40196A11D76
:10354000B11D05C026E8230F0296A11DB11D2093D1
:103550004F038093500390935103A0935203B09371
:1035600053038091540390915503A0915603B09159
:1035700057030196A11DB11D8093540390935503E9
:10358000A0935603B0935703BF91AF919F918F9132
:103590003F912F910F900FBE0F901F9018952FB74E
:1035A000F89460915003709151038091520390916F
:1035B00053032FBF08953FB7F8948091540390911F
:1035C0005503A0915603B091570326B5A89B05C09B
:1035D0002F3F19F00196A11DB11D3FBF6627782F1F
:1035E000892F9A2F620F711D811D911D42E0660F78
:1035F000771F881F991F4A95D1F70895CF92DF92C0
:10360000EF92FF92CF93DF936B017C010E94DB1A54
:10361000EB01C114D104E104F10489F00E943721C7
:103620000E94DB1A6C1B7D0B683E734090F381E0B7
:10363000C81AD108E108F108C851DC4FEACFDF9180
:10364000CF91FF90EF90DF90CF9008958230910559
:1036500038F0880F991F880F991F05970197F1F788
:103660000895789484B5826084BD84B5816084BDFA
:1036700085B5826085BD85B5816085BDEEE6F0E0EB
:10368000808181608083E1E8F0E010828081826047
:103690008083808181608083E0E8F0E080818160C8
:1036A0008083E1EBF0E0808184608083E0EBF0E0F8
:1036B000808181608083EAE7F0E08081846080839C
:1036C0008081826080838081816080838081806846
:1036D00080831092C10008958E3008F08E5087705C
:1036E0002091220190E4299F90011124822B809344
:1036F0007C0080917A00806480937A0080917A00C7
:1037000086FDFCCF809178002091790090E0922B8B
:1037100008951F93CF93DF93182FEB0161E00E9470
:10372000111C209711F460E004C0CF3FD10539F49B
:1037300061E0812FDF91CF911F910C944A1CE12F02
:10374000F0E0E859FF4FE491E330F9F048F4E1305C
:10375000B9F0E230A1F584B5806284BDC8BD34C043
:10376000E730E9F0E83019F1E43049F58091800064
:10377000806280938000D0938B00C0938A0024C025
:1037800084B5806884BDC7BD1FC0809180008068FB
:1037900080938000D0938900C093880015C08091E9
:1037A000B00080688093B000C093B3000DC08091DA
:1037B000B00080628093B000C093B40005C0C038F0
:1037C000D1050CF0B5CFAFCFDF91CF911F91089508
:1037D000833081F028F4813099F08230A1F008958F
:1037E0008730A9F08830B9F08430D1F4809180001E
:1037F0008F7D03C0809180008F7780938000089533
:1038000084B58F7702C084B58F7D84BD0895809183
:10381000B0008F7703C08091B0008F7D8093B0009F
:103820000895CF93DF9390E0FC01E458FF4F24917B
:10383000FC01E057FF4F8491882349F190E0880F05
:10384000991FFC01E854FF4FA591B49182559F4FF9
:10385000FC01C591D4919FB7611108C0F8948C9177
:10386000209582238C93888182230AC0623051F490
:10387000F8948C91322F309583238C938881822BFE
:10388000888304C0F8948C91822B8C939FBFDF9126
:10389000CF9108950F931F93CF93DF931F92CDB7CE
:1038A000DEB7282F30E0F901E859FF4F8491F90184
:1038B000E458FF4F1491F901E057FF4F04910023A2
:1038C000C9F0882321F069830E94E81B6981E02FF9
:1038D000F0E0EE0FFF1FE255FF4FA591B4919FB7A7
:1038E000F8948C91611103C01095812301C0812B44
:1038F0008C939FBF0F90DF91CF911F910F910895EF
:10390000CF93DF93282F30E0F901E859FF4F8491DE
:10391000F901E458FF4FD491F901E057FF4FC491EA
:10392000CC2391F081110E94E81BEC2FF0E0EE0F08
:10393000FF1FEC55FF4FA591B4912C912D2381E0F1
:1039400090E021F480E002C080E090E0DF91CF9130
:103950000895FC01818D228D90E0805C9F4F821B39
:1039600091098F7399270895FC01918D828D981785
:1039700031F0828DE80FF11D858D90E008958FEF75
:103980009FEF0895FC01918D828D981761F0828DD3
:10399000DF01A80FB11D5D968C91928D9F5F9F7383
:1039A000928F90E008958FEF9FEF089586E49EE157
:1039B000892B49F080E090E0892B29F00E94461E77
:1039C00081110C9400000895FC01848DDF01A80F83
:1039D000B11DA35ABF4F2C91848D90E001968F7337
:1039E0009927848FA689B7892C93A089B1898C9156
:1039F00080648C93938D848D981306C00288F3891C
:103A0000E02D80818F7D80830895CF93DF93EC013B
:103A1000888D8823C9F0EA89FB89808185FD05C0EE
:103A2000A889B9898C9186FD0FC00FB607FCF5CF28
:103A3000808185FFF2CFA889B9898C9185FFEDCF70
:103A4000CE010E94E41CE7CFDF91CF910895CF9281
:103A5000DF92FF920F931F93CF93DF931F92CDB707
:103A6000DEB76C0181E0D60158968C9358975B962F
:103A70009C915B975C968C915C97981307C05096CD
:103A8000ED91FC915197808185FD2EC0F601038D4B
:103A900010E00F5F1F4F0F731127F02EF601848D7A
:103AA000F81211C00FB607FCF9CFD6015096ED9170
:103AB000FC915197808185FFF1CFC60169830E94F7
:103AC000E41C6981EBCF838DE80FF11DE35AFF4FB2
:103AD0006083D6015B960C935B975296ED91FC91B7
:103AE0005397808180620CC0D6015696ED91FC916F
:103AF000579760835096ED91FC9151978081806437
:103B0000808381E090E00F90DF91CF911F910F9122
:103B1000FF90DF90CF900895BF92CF92DF92EF9207
:103B2000FF92CF93DF93EC016A017B01B22EE8890B
:103B3000F98982E08083411581EE5807610571059E
:103B4000A1F060E079E08DE390E0A70196010E948A
:103B500087232150310941095109569547953795D9
:103B60002795211580E1380798F0E889F9891082B6
:103B700060E874E88EE190E0A70196010E94872337
:103B80002150310941095109569547953795279597
:103B9000EC85FD853083EE85FF852083188EEC89CA
:103BA000FD89B082EA89FB89808180618083EA890E
:103BB000FB89808188608083EA89FB8980818068B5
:103BC0008083EA89FB8980818F7D8083DF91CF911B
:103BD000FF90EF90DF90CF90BF9008951F920F92CB
:103BE0000FB60F9211242F938F939F93EF93FF9310
:103BF000E0916803F09169038081E0916E03F09198
:103C00006F0382FD12C09081809171038F5F8F736B
:103C100020917203821751F0E0917103F0E0E85AAD
:103C2000FC4F958F8093710301C08081FF91EF91CC
:103C30009F918F912F910F900FBE0F901F9018950D
:103C40001F920F920FB60F9211242F933F934F9311
:103C50005F936F937F938F939F93AF93BF93EF93F4
:103C6000FF9388E593E00E94E41CFF91EF91BF91E0
:103C7000AF919F918F917F916F915F914F913F9104
:103C80002F910F900FBE0F901F90189588E593E02D
:103C90000E94A91C21E0892B09F420E0822F0895BD
:103CA00010925B0310925A0388EE93E0A0E0B0E01C
:103CB00080935C0390935D03A0935E03B0935F03D6
:103CC0008EE791E0909359038093580385EC90E040
:103CD000909365038093640384EC90E09093670372
:103CE0008093660380EC90E090936903809368036F
:103CF00081EC90E090936B0380936A0382EC90E0F8
:103D000090936D0380936C0386EC90E090936F0327
:103D100080936E03109271031092720310927303DA
:103D200010927403089508950E94311B0E94931EFF
:103D30000E943808C6EDDCE10E946A092097E1F391
:103D40000E94D61CF9CFCF92DF92EF92FF920F9391
:103D50001F93CF93DF936C017A01EB01E60EF71E00
:103D600000E010E0CE15DF0561F06991D601ED911C
:103D7000FC910190F081E02DC6010995080F191FF3
:103D8000F1CFC801DF91CF911F910F91FF90EF907C
:103D9000DF90CF9008956115710581F0DB010D90E2
:103DA0000020E9F7AD0141505109461B570BDC01DA
:103DB000ED91FC910280F381E02D099480E090E088
:103DC0000895DC01ED91FC910190F081E02D0994C2
:103DD0006AE871E00C94CB1E0F931F93CF93DF938F
:103DE000EC010E94CB1E8C01CE010E94E81E800FC8
:103DF000911FDF91CF911F910F9108958F929F9204
:103E0000AF92BF92CF92DF92EF92FF920F931F93E8
:103E1000CF93DF93CDB7DEB7A1970FB6F894DEBF8F
:103E20000FBECDBF7C01C42EE52FCB01D22E19A22F
:103E300021E02D1510F02AE0D22E8E010F5D1F4FCC
:103E40008D2C912CA12CB12C6C2D7E2FA5019401D1
:103E50000E9487238C2DD29E8019112401501109B4
:103E60008A3014F4805D01C0895CF80180832115DB
:103E700031054105510521F0C22EE32FCA01E4CFDF
:103E8000B801C7010E94CB1EA1960FB6F894DEBF01
:103E90000FBECDBFDF91CF911F910F91FF90EF909B
:103EA000DF90CF90BF90AF909F908F900895CF926A
:103EB000DF92EF92FF920F931F93CF93DF93EC016A
:103EC0006A017B012115310579F4E881F9810190BE
:103ED000F081E02D642FDF91CF911F910F91FF9022
:103EE000EF90DF90CF9009942A303105E9F477FF05
:103EF0001AC06DE20E94E11E8C0144275527BA01C9
:103F00004C195D096E097F092AE0CE010E94FE1E50
:103F1000800F911FDF91CF911F910F91FF90EF9034
:103F2000DF90CF9008952AE0B701A601CE01DF917E
:103F3000CF911F910F91FF90EF90DF90CF900C9455
:103F4000FE1E0F931F93CF93DF93EC019A01AB01F9
:103F5000662757FD6095762F0E94571F8C01CE0172
:103F60000E94E81E800F911FDF91CF911F910F914A
:103F700008952115310541F4DC01ED91FC9101908A
:103F8000F081E02D642F09940C94FE1E0F931F9373
:103F9000CF93DF93EC019A01462F50E060E070E090
:103FA0000E94B91F8C01CE010E94E81E800F911F54
:103FB000DF91CF911F910F9108950F931F93CF938E
:103FC000DF93EC019A01AB0160E070E00E94B91F41
:103FD0008C01CE010E94E81E800F911FDF91CF91CE
:103FE0001F910F9108954F925F926F927F928F92DF
:103FF0009F92AF92BF92CF92DF92EF92FF920F9378
:104000001F93CF93DF93EC016A017B01B22E9A01DB
:10401000AB01C701B6010E945323882319F06DE854
:1040200071E027C026013701E89477F82FEF3FEFC2
:104030004FE75FE7C301B2010E94532381110DC016
:104040002FEF3FEF4FE75FE7C301B2010E949D21D1
:1040500018161CF461E971E00CC02FEF3FEF4FE739
:104060005FE4C701B6010E94EC221816ACF465E9C2
:1040700071E0CE01DF91CF911F910F91FF90EF90F2
:10408000DF90CF90BF90AF909F908F907F906F9078
:104090005F904F900C94CB1E2FEF3FEF4FE75FECFC
:1040A000C701B6010E949D2187FDE1CF20E030E0ED
:1040B000A901C701B6010E949D2187FF0AC06DE2D8
:1040C000CE010E94E11E8C01F7FAF094F7F8F0940B
:1040D00002C000E010E0A12C60E070E080E09FE30F
:1040E000AB1441F020E030E040E251E40E94A12115
:1040F000A394F6CF9B01AC01C701B6010E94392100
:104100006B017C010E940E222B013C010E943A228D
:104110009B01AC01C701B6010E9438216B017C01F3
:104120002AE0B301A201CE010E94FE1E080F191F52
:10413000BB2039F069E971E0CE010E94CB1E080F67
:10414000191F7B2C772041F120E030E040E251E460
:10415000C701B6010E94F0226B017C010E94092276
:104160004B01AA2497FCA094BA2C2AE030E0B501B8
:10417000A401CE010E94571F080F191FC501B401E9
:104180000E943C229B01AC01C701B6010E9438216C
:104190006B017C017A94D6CFC801DF91CF911F913A
:1041A0000F91FF90EF90DF90CF90BF90AF909F90D6
:1041B0008F907F906F905F904F9008950F931F9313
:1041C000CF93DF93EC010E94F31F8C01CE010E947C
:1041D000E81E800F911FDF91CF911F910F910895DD
:1041E0004F925F926F927F92AF92BF92CF92DF9287
:1041F000EF92FF920F931F93CF93DF93CDB7DEB76C
:1042000029013A01621B730B840B950B29893A89AA
:104210004B895C892A193B094C095D09298B3A8B2A
:104220004B8B5C8B9B01AC0169897A898B899C895A
:104230000E945723E418F50806091709A8019701F9
:104240000E94A9232A0D3B1D4C1D5D1DCA01B90109
:10425000DF91CF911F910F91FF90EF90DF90CF9062
:10426000BF90AF907F906F905F904F9008950895AA
:104270005058BB27AA270ED075C166D130F06BD13C
:1042800020F031F49F3F11F41EF45BC10EF4E09571
:10429000E7FB51C1E92F77D180F3BA1762077307A3
:1042A0008407950718F071F49EF58FC10EF4E09520
:1042B0000B2EBA2FA02D0B01B90190010C01CA01E0
:1042C000A0011124FF27591B99F0593F50F4503E8B
:1042D00068F11A16F040A22F232F342F4427585F7D
:1042E000F3CF469537952795A795F0405395C9F795
:1042F0007EF41F16BA0B620B730B840BBAF091504D
:10430000A1F0FF0FBB1F661F771F881FC2F70EC0EB
:10431000BA0F621F731F841F48F4879577956795BE
:10432000B795F7959E3F08F0B3CF9395880F08F0A7
:104330009927EE0F979587950895D9D008F481E0D5
:1043400008950CD00FC107D140F0FED030F021F419
:104350005F3F19F0F0C0511139C1F3C014D198F387
:104360009923C9F35523B1F3951B550BBB27AA27F6
:1043700062177307840738F09F5F5F4F220F331F68
:10438000441FAA1FA9F333D00E2E3AF0E0E830D034
:1043900091505040E695001CCAF729D0FE2F27D037
:1043A000660F771F881FBB1F261737074807AB0705
:1043B000B0E809F0BB0B802DBF01FF2793585F4F7A
:1043C0002AF09E3F510568F0B6C000C15F3FECF394
:1043D000983EDCF3869577956795B795F7959F5F3F
:1043E000C9F7880F911D9695879597F90895E1E093
:1043F000660F771F881FBB1F621773078407BA07F2
:1044000020F0621B730B840BBA0BEE1F88F7E0954C
:10441000089504D06894B111D9C00895BCD088F033
:104420009F5790F0B92F9927B751A0F0D1F0660FA0
:10443000771F881F991F1AF0BA95C9F712C0B130BB
:1044400081F0C3D0B1E00895C0C0672F782F8827CE
:10445000B85F39F0B93FCCF3869577956795B395FA
:10446000D9F73EF490958095709561957F4F8F4F69
:104470009F4F0895E89409C097FB3EF4909580956E
:10448000709561957F4F8F4F9F4F9923A9F0F92F1A
:1044900096E9BB279395F695879577956795B79598
:1044A000F111F8CFFAF4BB0F11F460FF1BC06F5F7E
:1044B0007F4F8F4F9F4F16C0882311F096E911C090
:1044C000772321F09EE8872F762F05C0662371F0B1
:1044D00096E8862F70E060E02AF09A95660F771FC5
:1044E000881FDAF7880F9695879597F90895990FA1
:1044F0000008550FAA0BE0E8FEEF16161706E807AE
:10450000F907C0F012161306E407F50798F0621BCE
:10451000730B840B950B39F40A2661F0232B242BA3
:10452000252B21F408950A2609F4A140A6958FEFC2
:10453000811D811D089597F99F6780E870E060E014
:1045400008959FEF80EC089500240A94161617062C
:1045500018060906089500240A9412161306140674
:1045600005060895092E0394000C11F4882352F0D7
:10457000BB0F40F4BF2B11F460FF04C06F5F7F4F8F
:104580008F4F9F4F089557FD9058440F551F59F076
:104590005F3F71F04795880F97FB991F61F09F3F30
:1045A00079F087950895121613061406551FF2CF59
:1045B0004695F1DF08C0161617061806991FF1CFA9
:1045C00086957105610508940895E894BB276627D0
:1045D0007727CB0197F908958ADF08F48FEF0895C4
:1045E0000BD0C0CFB1DF28F0B6DF18F0952309F06B
:1045F000A2CFA7CF1124EACFC6DFA0F3959FD1F3B6
:10460000950F50E0551F629FF001729FBB27F00D80
:10461000B11D639FAA27F00DB11DAA1F649F6627D5
:10462000B00DA11D661F829F2227B00DA11D621F24
:10463000739FB00DA11D621F839FA00D611D221FDE
:10464000749F3327A00D611D231F849F600D211DC2
:10465000822F762F6A2F11249F5750408AF0E1F065
:1046600088234AF0EE0FFF1FBB1F661F771F881FAE
:1046700091505040A9F79E3F510570F05CCFA6CFF6
:104680005F3FECF3983EDCF3869577956795B79599
:10469000F795E7959F5FC1F7FE2B880F911D9695C3
:1046A000879597F9089523DF880B990B0895DB010F
:1046B0008F939F930E94C823BF91AF91A29F800DBB
:1046C000911DA39F900DB29F900D11240895991BE9
:1046D00079E004C0991F961708F0961B881F7A95F9
:1046E000C9F78095089597FB072E16F4009407D01C
:1046F00077FD09D00E94D32307FC05D03EF49095A6
:1047000081959F4F0895709561957F4F0895A1E21F
:104710001A2EAA1BBB1BFD010DC0AA1FBB1FEE1F3B
:10472000FF1FA217B307E407F50720F0A21BB30B86
:10473000E40BF50B661F771F881F991F1A9469F702
:1047400060957095809590959B01AC01BD01CF015E
:104750000895052E97FB1EF400940E94C02357FD78
:1047600007D00E94872307FC03D04EF40C94C0238B
:1047700050954095309521953F4F4F4F5F4F08958D
:1047800090958095709561957F4F8F4F9F4F0895BD
:104790000E94ED23A59F900DB49F900DA49F800DC6
:1047A000911D11240895AA1BBB1B51E107C0AA1F2C
:1047B000BB1FA617B70710F0A61BB70B881F991FC2
:1047C0005A95A9F780959095BC01CD010895EE0FFB
:1047D000FF1F0590F491E02D0994A29FB001B39FB3
:1047E000C001A39F700D811D1124911DB29F700DFA
:1047F000811D1124911D0895CF93DF93823091057F
:1048000010F482E090E0E091F703F091F80320E0EB
:1048100030E0A0E0B0E0309739F140815181481795
:104820005907B8F04817590771F48281938110979E
:1048300029F013969C938E9312972CC09093F803B3
:104840008093F70327C02115310531F04217530734
:1048500018F0A901DB0101C0EF019A01BD01DF01E0
:104860000280F381E02DD7CF21153105F9F0281B07
:10487000390B2430310580F48A819B8161157105E3
:1048800021F0FB019383828304C09093F80380930B
:10489000F703FE01329644C0FE01E20FF31F81933D
:1048A000919322503109398328833AC02091F5032E
:1048B0003091F603232B41F4209102013091030142
:1048C0003093F6032093F50320910001309101010C
:1048D0002115310541F42DB73EB7409104015091A7
:1048E0000501241B350BE091F503F091F603E21767
:1048F000F307A0F42E1B3F0B2817390778F0AC0103
:104900004E5F5F4F2417350748F04E0F5F1F5093DF
:10491000F6034093F5038193919302C0E0E0F0E049
:10492000CF01DF91CF910895CF93DF93009709F4E2
:1049300087C0FC01329713821282C091F703D09195
:10494000F803209781F420813181280F391F80914D
:10495000F5039091F6038217930779F5F093F60328
:10496000E093F5036DC0DE0120E030E0AE17BF0735
:1049700050F412964D915C9113979D01411551058C
:1049800009F1DA01F3CFB383A28340815181840F0F
:10499000951F8A179B0771F48D919C911197840F35
:1049A000951F02969183808312968D919C91139707
:1049B000938382832115310529F4F093F803E09362
:1049C000F7033EC0D9011396FC93EE9312974D91D5
:1049D0005D91A40FB51FEA17FB0779F480819181DF
:1049E000840F951F0296D90111969C938E93828114
:1049F000938113969C938E931297E0E0F0E08A8166
:104A00009B81009719F0FE01EC01F9CFCE010296CF
:104A100028813981820F931F2091F5033091F6038D
:104A20002817390769F4309729F41092F803109287
:104A3000F70302C013821282D093F603C093F503EA
:104A4000DF91CF910895662777270C944828FC01C1
:104A500088279927E89421912032E9F3293010F032
:104A60002E30C8F32B3241F02D3239F4689404C053
:104A70000E944525820F911D219120532A30C0F3B9
:104A80001EF4909581959F4F08957AE0979F902D01
:104A9000879F802D910D112408950F931F93CF931D
:104AA000DF93E091FB03F091FC03238121FF1BC006
:104AB000EC0100E010E089916091FB037091FC0330
:104AC000DB011896ED91FC911997882331F0099537
:104AD000892B89F30FEF1FEFEECF8AE00995892B21
:104AE00011F4C80102C08FEF9FEFDF91CF911F91AA
:104AF0000F910895AEE0B0E0E0E8F5E20C94402AB2
:104B000085E08C838B899C899A838983AE01495E79
:104B10005F4F6D897E89CE0101960E9411272E96E6
:104B2000E2E00C945C2A20FD09C0FC0123FD05C0D5
:104B300022FF02C07383628351834083089544FD42
:104B400010C046FD10C0DB01FC01AA0FBB1FEE1F09
:104B5000FF1F1094D1F76A0F7B1F8E1F9F1F31E03C
:104B600003C033E001C034E0660F771F881F991F30
:104B70003150D1F7620F711D811D911D08950F9362
:104B80001F93CF93DF938C01C8010E94D629EC01BB
:104B900097FD08C00E94AB29892BB1F7B801CE015F
:104BA0000E94142ACE01DF91CF911F910F91089599
:104BB0008F929F92AF92CF92DF92EF92FF920F93DC
:104BC0001F93CF93DF93EC01A62E4A01022F0E9480
:104BD000D629AC0155274B32510521F04D325105F4
:104BE00051F40068AA9411F480E067C0CE010E94DD
:104BF000D62997FDF9CF102F1D7F302F307301F587
:104C00008033F1F4FF24FA94FA0C09F442C0CE0187
:104C10000E94D62997FD3DC0382F3F7D383551F48D
:104C20001264AA94AA94A9F1CE010E94D62997FFF2
:104C300007C02FC006FF02C0126001C01261AF2C76
:104C4000C12CD12C760120ED280F283080F014FFE4
:104C500004C0BE010E94142A19C02A3040F016FF79
:104C6000F8CF2F7D3FEE320F363098F72750412F87
:104C7000C701B6010E949F256B017C011260AA94B6
:104C800059F0CE010E94D62997FFDDCF11FD04C057
:104C9000ABCFC12CD12C760117FF08C0F094E09463
:104CA000D094C094C11CD11CE11CF11C212FB70170
:104CB000A601C4010E94932581E0DF91CF911F914D
:104CC0000F91FF90EF90DF90CF90AF909F908F90DB
:104CD0000895A1E2B0E0EFE6F6E20C94352A5C011B
:104CE0007A018E010F5F1F4F680180E2D8011D928B
:104CF0008A95E9F7F501738040E050E0812CB0E03F
:104D0000912C81E090E0F90173FCA59173FEA191D3
:104D10008F017A2F9F01A11103C080E090E07DC038
:104D2000AE3519F44115510559F1E92DF0E0E417BC
:104D3000F5073CF4AD3569F1AD3219F4BB2319F137
:104D400003C0B11101C08A2EE72FE695E695E695DE
:104D500086010E0F111DF801A72FA7708C0102C04C
:104D6000000F111FAA95E2F7D801B081BA2BB083CA
:104D7000781559F0781510F47F5FE6CF7150E4CFC5
:104D80009924939403C0B1E001C0B0E04F5F5F4F3E
:104D9000BACFBB2319F08E8180628E83911003C03D
:104DA0009924939415C0F601CE0181962081209517
:104DB0002193E817F907D1F7F3CFE114F10429F0B3
:104DC000D7018C93F70131967F01615001F1912C4D
:104DD000C50169A30E94D62969A197FD16C0282F95
:104DE000269526952695F601E20FF11D208130E0EB
:104DF000AC014770552702C0359527954A95E2F7D3
:104E000020FDDBCFB5010E94142A911086CFE1145A
:104E1000F10411F0D7011C92C801A196EDE00C94A9
:104E2000512A4F925F927F928F929F92AF92BF9240
:104E3000CF92DF92EF92FF920F931F93CF93DF9366
:104E40001F92CDB7DEB78C012B017A01FC011782CE
:104E50001682A12CF801D380F201D3FC8591D3FEF8
:104E60008191382F2F01882309F4FCC090E0398309
:104E70000E94AB293981892B21F0C8010E94BF25EE
:104E8000E9CF353241F4F201D3FC3591D3FE3191B3
:104E90002F01353269F4C80139830E94D62939813E
:104EA00097FDDEC03817B1F2B8010E94142ADAC0AB
:104EB0003A3241F4D3FC3591D3FE31912F01BB241A
:104EC000B39401C0B12C712C20ED230F2A3090F443
:104ED000FB2DF260BF2E672D70E080E090E040E295
:104EE0000E949F25762EF201D3FC3591D3FE31919D
:104EF0002F01EACFB1FE03C0711003C0B3C0772405
:104F00007A94383619F03C3661F014C0F201D3FCC3
:104F10003591D3FE31912F01383661F4FB2DF860C5
:104F2000BF2E8B2D8460B82EF201D3FC3591D3FEB9
:104F300031912F01332309F495C0632F70E082EC87
:104F400090E039830E94B3293981892B09F48AC002
:104F5000B0FC07C0F701C080D180C70102967C0178
:104F600002C0C12CD12C3E3651F4F8014681578144
:104F700060E070E02B2DC6010E9493256BCF333685
:104F8000A1F4B1FC02C077247394C8010E94D62911
:104F900097FD66C0C114D10429F0F6018083C601D3
:104FA00001966C017A9489F757C03B3559F4920108
:104FB000A601672DC8010E9469262C01009709F0FF
:104FC0004BC045C0C80139830E94BF25398197FD78
:104FD00047C03F3669F128F4343631F1393679F17A
:104FE0002BC0333769F03537F9F026C0C114D1042E
:104FF00029F0F6018082C60101966C017A9471F065
:10500000C8010E94D6294C0197FD08C00E94AB2917
:10501000892B61F3B801C4010E94142AC114D10480
:10502000D9F0F601108218C0FB2DF062BF2E07C028
:105030008B2D8061B82E03C09B2D9064B92E2B2D33
:10504000A601672DC8010E94D825811105C0F8016D
:105050008381807329F406C0B0FCFCCEA394FACE01
:10506000AA2019F08A2D90E002C08FEF9FEF0F90D9
:10507000DF91CF911F910F91FF90EF90DF90CF9034
:10508000BF90AF909F908F907F905F904F900895CA
:10509000A0E0B0E0EEE4F8E20C94362A8B01611552
:1050A000710521F0DB018C9311969C93EC015E015C
:1050B000BFEFAB1ABB0A7501C8808C2D90E00E942F
:1050C000AB29892B11F0E501F2CFEDE2CE1208C039
:1050D0007E01F2E0EF0EF11CC980DD24D39409C0FB
:1050E0002BE2C21205C07E0142E0E40EF11CC98031
:1050F000D12CE701219743E050E066ED70E0CE014E
:105100000E94BE29892BC1F4239645E050E061ED51
:1051100070E0CE010E94BE29892B09F42596011565
:10512000110519F0D801CD93DC93D11006C160E0D0
:1051300070E080E89FE70AC143E050E06EEC70E069
:10514000CE010E94BE29892B59F40115110509F4DD
:10515000F9C0B2E0EB0EF11CF801F182E082F2C07E
:10516000F70160E070E0CB01C0E0D0E07F01A0ED8E
:10517000AA2EAC0C29E02A1530F14D2D4260B42E38
:105180002D2D2870D2FE04C0211125C0219623C0E8
:1051900021112197A5E0B0E09B01AC010E94C8233A
:1051A000660F771F881F991F6A0D711D811D911D44
:1051B0006839A9E97A078A07A9E19A0760F0BD2D45
:1051C000B660BB2E08C02EEFA2120AC0D3FC50C09E
:1051D0004D2D4860B42E3196D701CC90DB2CC6CF34
:1051E0002C2D2F7D253409F043C0A081AD3241F430
:1051F000BD2DB061DB2E7F0122E0E20EF11C0CC060
:105200007F01AB3231F04FEFE41AF40A21E030E0D5
:1052100006C0A2E0EA0EF11CA18122E030E0A0531A
:10522000AA3018F0E21AF30A23C0F70120E030E0B8
:105230002038BCE03B075CF4A901440F551F440F24
:10524000551F240F351F220F331F2A0F311DAF01A9
:105250004F5F5F4F7A01A081A053AA3010F4FA018A
:10526000E7CFD4FE03C0319521953109C20FD31F7A
:10527000D1FE09C00115110531F0E1E0EE1AF10887
:10528000D801ED92FC920E943A222D2D23702330FA
:1052900019F04B015C0106C04B015C01B7FAB094F8
:1052A000B7F8B09420E030E0A901C501B4010E9434
:1052B0009D21882309F43EC0D7FF06C0D195C19532
:1052C000D1090DEE10E002C005E011E06801B8E17F
:1052D000CB1AD10890E2E92EF12CCE15DF0574F03F
:1052E000F8012591359145915491C501B4010E9471
:1052F000F0224B015C01CE19DF09EFCF04501109F8
:10530000F594E7940C151D0541F78A2D880F8B2D18
:10531000881F8F3F49F020E030E0A901C501B401AA
:105320000E949D21811106C082E290E090930004CA
:105330008093FF03C501B40109C060E070E080E81C
:105340009FEF04C060E070E080EC9FE7CDB7DEB770
:10535000ECE00C94522A911180C0803219F08950EF
:105360008550D0F70895FC010590061621F0002025
:10537000D9F7C00108953197CF010895FB01DC01F1
:105380004150504088F08D9181341CF08B350CF4E5
:10539000805E659161341CF06B350CF4605E861B99
:1053A000611171F3990B0895881BFCCFCF93DF93A4
:1053B000EC012B8120FF33C026FF0AC02F7B2B83FB
:1053C0008E819F8101969F838E838A8190E029C080
:1053D00022FF0FC0E881F9818081992787FD909590
:1053E000009719F420622B831AC03196F983E88361
:1053F0000EC0EA85FB85099597FF09C02B810196B0
:1054000011F480E101C080E2822B8B8308C02E81E1
:105410003F812F5F3F4F3F832E83992702C08FEF3D
:105420009FEFDF91CF910895FB01238120FF12C0F0
:1054300026FD10C08F3F3FEF930761F082832F7DE1
:1054400020642383268137812150310937832683C5
:10545000992708958FEF9FEF08959927882708953A
:105460002F923F924F925F926F927F928F929F9274
:10547000AF92BF92CF92DF92EF92FF920F931F9362
:10548000CF93DF93CDB7DEB7CA1BDB0B0FB6F89413
:10549000DEBF0FBECDBF09942A88398848885F8453
:1054A0006E847D848C849B84AA84B984C884DF80C4
:1054B000EE80FD800C811B81AA81B981CE0FD11DA8
:1054C0000FB6F894DEBF0FBECDBFED01089511E019
:1054D000CEE0D1E004C0FE010E94E9232296C03153
:0854E000D107C9F7F894FFCFD2
:1054E8000000010480000100000000000A09050610
:1054F80000000000000000000000000000000000A4
:105508000000014125640A004125642025640A0041
:105518004125642025642025640A0041256420254E
:10552800642025642025642025640A00747275654A
:105538000066616C7365004F4B001312100F5468BE
:10554800657265206973206E6F7420656E6F75676C
:1055580068207370616365210D0000000000271D3D
:10556800A31EA91CC21CB41C051D0D0A006E616E89
:0C55780000696E66006F7666002E000071
:00000001FF
