:100000000C9473000C949B000C949B000C949B002C
:100010000C949B000C949B000C949B000C94B009D6
:100020000C949B000C949B000C949B000C946B0F05
:100030000C949B000C949B000C949B000C949B00D4
:100040000C9427100C949B000C9490130C94C213E6
:100050000C949B000C949B000C949B000C949B00B4
:100060000C949B000C949B0005A84CCDB2D44EB9C7
:100070003836A9020C50B9918688083CA6AAAA2A4B
:10008000BE000000803F00000008000201000003E5
:100090000407000000000000000001020408102016
:1000A000408001020408102001020408102004040A
:1000B0000404040404040202020202020303030310
:1000C00003030000000023002600290000000000B8
:1000D000250028002B0000000000240027002A0033
:1000E0002207F2135B0711241FBECFEFD8E0DEBF5B
:1000F000CDBF11E0A0E0B1E0E8EDF3E302C0059070
:100100000D92A839B107D9F723E0A8E9B1E001C001
:100110001D92A93DB207E1F710E0C4EED0E004C0A3
:100120002297FE010E94ED17C03ED107C9F70E9439
:1001300036140C94DF190C9400000895CF93DF93CC
:10014000EB012CE231E040E050E0BC018FE792E0AF
:100150000E94690884E0CC0FDD1F8A95E1F7C55B3A
:10016000DF4FD0930C01C0930B01DF91CF91089525
:10017000823041F0833051F0813061F482E792E0C7
:100180000C94EE0E8CE692E00C94910C81E592E0DA
:100190000C94380B0895DF92EF92FF920F931F9308
:1001A000CF93DF93CDB7DEB728970FB6F894DEBFB5
:1001B0000FBECDBF89E08D838AE08E838CE08F8374
:1001C00084E08887CE0101960E94B20C8E010B5FFD
:1001D0001F4F7E0189E0E80EF11CF801D1908F01DC
:1001E0008D2D0E942212892BC9F06D2DCE01019612
:1001F0000E94B30CCE0101960E94CD0C61E0CE01AD
:1002000001960E94440DCE0101960E94FB0CCE0186
:1002100001960E94AC0D6D2D0E94B8000E151F05B1
:10022000E1F628960FB6F894DEBF0FBECDBFDF9182
:10023000CF911F910F91FF90EF90DF9008954F9213
:100240005F926F927F928F929F92AF92BF92CF9266
:10025000DF92EF92FF9226E030E040E050E061E074
:1002600070E080E090E00E94C5140E94DD1520E05F
:1002700030E040EC50E40E9447159B01AC016091D6
:1002800022027091230280912402909125020E9403
:10029000E3146093220270932302809324029093CC
:1002A000250226E030E040E050E061E070E080E0D0
:1002B00090E00E94C5140E94DD1520E030E040EC83
:1002C00050E40E9447159B01AC0160911E027091A1
:1002D0001F0280912002909121020E94E3146093FA
:1002E0001E0270931F02809320029093210226E049
:1002F00030E040E050E061E070E080E090E00E949B
:10030000C5140E94DD1520E030E040EC50E40E946E
:10031000471520911A0230911B0240911C02509106
:100320001D020E94E3146B017C0160931A0270931A
:100330001B0280931C0290931D0220E030E040E8F5
:100340005EE36091220270912302809124029091D9
:1003500025020E94C41620E030E040E05FE30E94E6
:10036000E3140E9427174B015C0120E030E040E1DC
:1003700051E460911E0270911F02809120029091C1
:1003800021020E94471520E030E040E85FE30E9430
:10039000E31426E636E646E050E40E94E3140E94A9
:1003A00027172B013C0120E030E040E651E4C70173
:1003B000B6010E9447152BEA3AEA4AEA5EE30E9438
:1003C000E31426E636E646E850E40E94E3140E9471
:1003D000271720E030E040E85FE30E94E31420E0CC
:1003E00030E040E852E40E94C4160E94AF15E62EA9
:1003F00020E030E040E85FE3C301B2010E94E31473
:1004000020E030E040E852E40E94C4160E94AF159C
:10041000F62E20E030E040E85FE3C501B4010E9421
:10042000E31420E030E040E852E40E94C4160E9449
:10043000AF15D62E2E2D4F2D82E792E00E945F0F32
:100440002E2D4F2D6D2D82E792E0FF90EF90DF90E3
:10045000CF90BF90AF909F908F907F906F905F9064
:100460004F900C94650FCF93DF93EB0166277727AE
:10047000681B790B86E492E00E94B408BE018BE30E
:1004800092E0DF91CF910C94B4089093370280935F
:10049000360270933502609334020C943302CF938A
:1004A000DF93EC0180913602909137028C599F4F77
:1004B00060913402709135026C597F4F8C179D0703
:1004C0002CF46C177D0734F0BE0104C06C177D0757
:1004D00054F4CE010E94450268E770E080E090E0AD
:1004E0000E94A010DFCFBE01CE01DF91CF910C940E
:1004F00045022091330280910B0190910C0122233F
:1005000019F0BC010C9445020C944F0280910B0130
:1005100090910C01919581959109BC010C94450233
:1005200060910B0170910C0180E090E00C94450209
:1005300060E070E080910B0190910C010C944502F9
:1005400080913302882331F060E070E080E090E039
:100550000C94450280E090E00C944F020F93CF93EF
:10056000C82F0E94711060932E0270932F02809307
:10057000300290933102C03409F400C1C0F5CD308F
:1005800009F4DFC0A8F4C83009F40FC130F4C73053
:1005900009F018C183E090E0F9C0C93009F4F4C053
:1005A000CC3009F00FC160E070E086E291E006C156
:1005B000C83109F4FFC080F4C53109F003C180914E
:1005C000320291E08927809332022CE231E040E050
:1005D00050E06FEE71E0CCC0C93109F4D2C0CC312B
:1005E00009F0F0C065E070E089EB91E0E7C0C63447
:1005F00009F445C058F5C33409F493C040F4C2343B
:1006000009F0E0C067E070E08CE292E0D7C0C4344B
:1006100009F470C0C53409F0D5C01092330286E9E0
:1006200090E090930C0180930B0110923A020E948B
:10063000A0022CE231E040E050E066E271E08FE79A
:1006400092E00E94690800E020E069C0C23509F428
:10065000A2C050F4C734B1F1CA3409F0B3C069E0A4
:1006600070E085E992E0AAC0CA3509F499C0CE3598
:1006700009F0A8C063E070E08EE591E09FC084E6D9
:1006800090E090930C0180930B0181E080933A02FB
:100690000E94A0022CE231E040E050E06AE471E008
:1006A0008FE792E00E94690800E02AE040E060E005
:1006B0008BE892E00E945B0E8BE892E0CF910F9165
:1006C0000C94AD0E82E080933A0284E690E0909321
:1006D0000C0180930B010E94A0022CE231E040E06B
:1006E00050E06EE571E08FE792E00E9469080AE051
:1006F00020E0DCCF81E08093330288EC90E090939F
:100700000C0180930B012CE231E040E050E069E8FD
:1007100071E08FE792E00E94690800E02AE04AE079
:10072000C6CF81E0809333028FEF90E090930C016D
:1007300080930B012CE231E040E050E069EB71E086
:1007400017C085E080933A0284E690E090930C0114
:1007500080930B010E94A0022CE231E040E050E0C7
:100760006FEE71E08FE792E00E9469080AE09DCF8A
:100770008FE792E0CF910F910C94690881E090E0AF
:1007800005C082E090E002C084E090E090933902DE
:100790008093380217C068E070E08DE492E00EC0EC
:1007A00066E070E08FEE91E009C064E070E089E8F7
:1007B00091E004C062E070E08AE491E0CF910F9193
:1007C0000C949E00CF910F910895809138029091E2
:1007D00039028230910571F02CF4009789F001976D
:1007E00039F008958330910539F0049739F0089570
:1007F0000C9479020C9486020C9490020C9498024A
:100800000C94A0020F931F93CF93DF93CDB7DEB765
:1008100065970FB6F894DEBF0FBECDBF60E082E0F3
:100820000E94B3110E94A00210E000E020E0412FDE
:1008300060E08BE892E00E94380E8BE892E00E9424
:10084000AD0E64E170E080E090E00E94A0101F5FB8
:100850001A3059F724EF31E040E050E066E271E0F1
:100860008FE792E00E94050810E000E0212F40E0B1
:1008700060E08BE892E00E94380E8BE892E00E94E4
:10088000AD0E64E170E080E090E00E94A0101F5F78
:100890001F3059F724EF31E040E050E066E271E0AC
:1008A0008FE792E00E94050810E0012F20E040E071
:1008B00060E08BE892E00E94380E8BE892E00E94A4
:1008C000AD0E64E170E080E090E00E94A0101F5F38
:1008D0001F3059F724EF31E040E050E066E271E06C
:1008E0008FE792E00E94050810E0012F212F412F91
:1008F00060E08BE892E00E94380E8BE892E00E9464
:10090000AD0E64E170E080E090E00E94A0101F5FF7
:100910001A3059F728E532E040E050E06FEE71E020
:100920008FE792E00E9405080E94CB0020E040E0A3
:1009300060E082E792E00E945F0F20E040E060E02C
:1009400082E792E00E94650F67E081E592E00E94F5
:100950003A0B85E1E6E2F1E0DE01119601900D929D
:100960008A95E1F79E012F5F3F4F40E060E081E50F
:1009700092E00E947D0B80E892E00E94720A26E0DD
:1009800040E052EC61E070E082E393E00E942E13BD
:1009900065960FB6F894DEBF0FBECDBFDF91CF9145
:1009A0001F910F9108950F930E94A00280913A0227
:1009B00090E0019663E070E00E94771780933A021E
:1009C0002CE231E040E050E0813061F0823099F07B
:1009D00066E271E08FE792E00E94690800E020E0A3
:1009E0004AE012C06AE471E08FE792E00E94690871
:1009F00000E02AE008C06EE571E08FE792E00E9417
:100A000069080AE020E040E060E08BE892E00E94A4
:100A10005B0E8BE892E00E94AD0E64EF71E080E027
:100A200090E00F910C94A01086E00E940E11BC0182
:100A3000882777FD8095982F0E94991482E792E08D
:100A40000E94F00E0E94AF158FEF860F813360F089
:100A500080910B0190910C01BC010E94330264E66D
:100A600070E080E090E066C0603168F162E070E0C4
:100A700080E090E00E94A114611571058105910547
:100A800089F06130710581059105C1F420910B0158
:100A900030910C01C9016BEF7FEF0E947717CB01FA
:100AA000B9010AC020910B0130910C01C9016BEF13
:100AB0007FEF0E947717C9010E94330268EC70E053
:100AC00080E090E037C080910B0190910C019195EE
:100AD00081959109BC010E9433026CE271E080E0D3
:100AE00090E00E94A01062E070E080E090E00E9440
:100AF000A114611571058105910571F061307105D1
:100B00008105910599F480910B0190910C01BC0134
:100B100091958195910908C080910B0190910C01EC
:100B200066277727681B790B0E9433026CE271E01D
:100B300080E090E00C94A010CF938CE692E00E94AD
:100B4000930C8CE692E00E94AC0CC82F8CE692E0ED
:100B50000E94AF0C21E0813A08F420E090910A0154
:100B6000C13A70F0211103C081E080932802892FDF
:100B700090E0BC010E94330280910A018F5F1CC08B
:100B8000222311F082E0F1CF80912802813039F4E4
:100B9000892F90E0BC0191958195910908C0823020
:100BA00069F4892F90E066277727681B790B0E94EC
:100BB000330280910A01845180930A0180910A01D5
:100BC000863910F486E903C0813A18F080EA8093F0
:100BD0000A01CF91089580912602909127028531D4
:100BE000910594F066E970E080E090E00E943302A5
:100BF00064E670E080E090E00E94A0108091260200
:100C000090912702019713C04497A9F060E070E02B
:100C100086E990E00E94330264E670E080E090E0B4
:100C20000E94A01080912602909127020196909335
:100C30002702809326028091260290912702853117
:100C4000910529F4109227021092260208954397E5
:100C500031F488E290E09093270280932602089571
:100C6000DC01ED91FC911197CF01019611969C93B7
:100C70008E9320812032A9F70C948419FB012191D5
:100C8000BF01222339F0FC013191CF013217B1F3BA
:100C900080E0089581E00895CF93DF93EB01FC019C
:100CA00001900020E9F7AF0141505109481B590B51
:100CB000E0913203F09133030280F381E02DBC0117
:100CC00082E393E00995BE0182E393E0DF91CF9147
:100CD0000C9487140F931F93CF93DF9300D01F9230
:100CE000CDB7DEB79A8389838C016BE371E00E94F4
:100CF0003E06882331F06FE371E0C8010E944C0684
:100D000099C06BE471E0C8010E943E06882351F04F
:100D10006FE471E0C8010E944C0681E592E00E94F8
:100D20005D0B88C062E571E0C8010E943E06882321
:100D3000B1F06FE471E0C8010E944C06CE0101964B
:100D40000E943006682FCE0101966B830E94300608
:100D5000482F6B8181E592E00E94550C6BC065E5E0
:100D600071E0C8010E943E068823B1F06FE471E093
:100D7000C8010E944C06CE0101960E943006682FE1
:100D8000CE0101966B830E943006482F6B8181E56E
:100D900092E00E942E0C4EC068E571E0C8010E94EE
:100DA0003E06882309F446C06FE471E0C8010E9442
:100DB0004C0689819A8102960E948419813089F4B7
:100DC00080912D0280933A0280912A0290912B0209
:100DD00090930C0180930B0180912C02809332023E
:100DE0001CC0823029F58091320280932C028091C0
:100DF0000B0190910C0190932B0280932A02809119
:100E00003A0280932D0210923A021092320260E070
:100E100070E080E090E00E9433022CE231E040E09C
:100E200050E066E271E08FE792E00E94690802C03C
:100E30000E94AE020F900F900F90DF91CF911F9103
:100E40000F91089563E08BE892E00E94170E6FE027
:100E500080E892E00E94660A6BE08FE792E00E94D1
:100E6000020860E082E792E00E94D20E60E08CE629
:100E700092E00E947D0C60E081E592E00E94340BDC
:100E800062E086E492E00E949A0861E08BE392E0DF
:100E90000E949A0880913A0280932D02809132023A
:100EA00080932C0280910B0190910C0190932B0266
:100EB00080932A0208958BE892E00C94C60E1F934B
:100EC000CF93DF93C0E8D0E010E282E393E00E948A
:100ED0004B12892B81F182E393E00E9464122091EE
:100EE0001802309119028A30C1F4C9010197FC013E
:100EF000E856FE4F40814D3011F49C01F6CFF901C8
:100F0000E856FE4F108311821092190210921802B7
:100F100088E991E00E946A06D8CFF901E856FE4FB1
:100F20008083C9010196BE010E9477179093190230
:100F300080931802CACFDF91CF911F9108950F932C
:100F40001F9380912902882319F00E945F0714C023
:100F500082E393E00E944B12892B21F081E0809381
:100F600029020AC080E892E00E94E50A892B21F05C
:100F7000809183020E94AE020E94711000912E02A5
:100F800010912F022091300230913102601B710BC1
:100F9000820B930B693771058105910570F00E94F2
:100FA000711060932E0270932F0280933002909301
:100FB0003102109239021092380280913A02813047
:100FC00059F038F0823059F0853059F40E94EB0521
:100FD00008C00E94E50305C00E94140502C00E94DB
:100FE0009C058091320281110E941F0182E00E94C3
:100FF0002212892B21F41F910F910C94D3041F917D
:101000000F9108956093940208954F925F926F92AA
:101010007F928F929F92AF92BF92CF92DF92EF9288
:10102000FF920F931F93CF93DF9369017A019B0186
:1010300040E050E060E472E48FE090E00E94AD1781
:10104000E901890137FF02C00F5F1F4F1595079512
:1010500061E0809194020E94B311A8EEB3E0A70171
:1010600096010E94CC174B015C01C12CD12C76015A
:101070002E01662457FC6094762CC814D904EA0427
:10108000FB04B0F461E0809194020E94EC11C8016D
:101090000E94C81060E0809194020E94EC11C80187
:1010A0000E94C810A895C40CD51CE61CF71CE5CFFF
:1010B000DF91CF911F910F91FF90EF90DF90CF9034
:1010C000BF90AF909F908F907F906F905F904F9068
:1010D0000895F8940E940508789408950F931F933B
:1010E000CF93DF93EC01062F10E0000F111F035F79
:1010F0001E4F633050F0F8016081CE010E94B30CA6
:10110000F8018181898718860CC061E0F80181812E
:101110000E94B311F80180818D8381818C8381E0ED
:1011200088878CE291E09F838E83DF91CF911F911E
:101130000F9108950F931F93CF93DF931F92CDB715
:10114000DEB78C0169830E94B20CF8011782168207
:101150001086118612866981C8010F90DF91CF91A8
:101160001F910F910C946E08EF92FF920F931F93B3
:10117000CF93DF9300D0CDB7DEB77C01FC01828531
:10118000811109C069837A830E949D0081E0F70183
:1011900082877A8169818B016F3F710519F014F0A4
:1011A0000FEF10E00130FFEF1F0714F401E01FEF15
:1011B000F701868197818017910709F4C8C01783CA
:1011C0000683808517FD4EC0813079F58481873094
:1011D00019F4848160E006C0F7018481883089F4C5
:1011E000848161E00E94EC11F7018581B8010F90C4
:1011F0000F90DF91CF911F910F91FF90EF900C9482
:101200002B11F7018481893029F0F7018481863020
:1012100009F09DC0848161E00E94EC11F701858195
:101220006FEF70E0601B710BE2CFC7010E94CD0C25
:1012300062E0C7010E94440DC7010E94CD0CF70176
:101240006185C7010E94440DB801882777FD80950C
:10125000982F0E94DD1520E030E040E250E40E942B
:10126000471564C08130F1F5F7018481873061F45E
:10127000848161E00E94EC11F70185816627772760
:10128000601B710B0E942B11F7018481883061F47F
:10129000848160E00E94EC11F70185816627772741
:1012A000601B710B0E942B11F7018481893059F466
:1012B000858161E00E94EC11F7018481B8016150E1
:1012C0007F4F0E942B11F7018481863009F03FC0C7
:1012D000858161E00E94EC11F7018481B8016150C1
:1012E0007F4F85CFC7010E94CD0C62E0C7010E94ED
:1012F000440DC7010E94CD0CF7016185C7010E9412
:10130000440DB801882777FD8095982F0E94DD1540
:1013100020E030E040E250E40E9447159B01AC0120
:1013200060E070E088EC92E40E94E2140E94AF1545
:10133000C7010E94440D84EF91E00F900F90DF9160
:10134000CF911F910F91FF90EF900C94C8100F90C8
:101350000F90DF91CF911F910F91FF90EF90089523
:101360001F920F920FB60F9211240F931F932F937A
:101370003F934F935F936F937F938F939F93AF931D
:10138000BF93CF93EF93FF93809195020E94221217
:10139000C82F20919C0230919D022F5F3F4F3093C8
:1013A0009D0220939C0280910203843618F085E010
:1013B0008093970290919702933079F018F49230CD
:1013C00039F070C0943011F1953009F44AC06AC008
:1013D000C11168C01092020329C0C13009F062C077
:1013E000E091020381E08E0F80930203F0E0809190
:1013F0009C0290919D02EA56FD4F808710929D02BB
:1014000010929C0284E0809397024CC0C11114C0DA
:10141000E091020381E08E0F80930203F0E080915F
:101420009C0290919D02EA56FD4F808710929D028A
:1014300010929C0283E0E7CF80919C0290919D02E4
:101440008536910578F185E0809397020E947110AE
:10145000609398027093990280939A0290939B02F2
:1014600021C00E9471100091980210919902209160
:101470009A0230919B02601B710B820B930B693CAB
:1014800071058105910540F01092020310929D02B2
:1014900010929C0282E0B7CFC11104C010929D024D
:1014A00010929C02FF91EF91CF91BF91AF919F91CC
:1014B0008F917F916F915F914F913F912F911F91EC
:1014C0000F910F900FBE0F901F901895609395028B
:1014D0008091950260E00E94B31180919502809303
:1014E00096020895F89482E08093B0008093B10052
:1014F00094E69093B3001092B200809370007894B9
:10150000109202038093970208951F93CF93DF9365
:10151000FC01A681B7818C9186588D3558F4808561
:10152000918583309105A1F411968C911197815288
:10153000893118F080E090E044C012968C91885078
:101540008730C0F7158281E0808381E090E039C068
:10155000833491057CF311968C91119783548F32CB
:1015600048F782E090E040E050E0BA019D012F5F33
:101570003F4FEC01CA0FDB1FC881C850C730D0F6FF
:10158000E901C80FD91F18811751133180F47695DE
:10159000679557954795706802968234910549F78B
:1015A00080E285834183528363837483CCCFC88177
:1015B000C850C73008F0BECF7695679557954795C8
:1015C000EBCFDF91CF911F9108950F931F93CF938E
:1015D000DF93EC018EE992E09F838E83809102037A
:1015E00090E09987888780919702853081F4CE01B9
:1015F0000E94850A8C01CE010115110529F00E9477
:10160000720A01E010E005C00E94720A02C000E008
:1016100010E0C801DF91CF911F910F9108950F93B2
:101620001F93CF93DF9300D01F92CDB7DEB78C010D
:101630002B834A8369830E94B20CF801349685E1BA
:10164000DF011D928A95E9F74A81F801418F2B81CC
:10165000228F6981C8010F900F900F90DF91CF9179
:101660001F910F910C94B30C27E045E10C940F0BE4
:101670000C94B30C1F93CF93DF93EC01162F0E94B1
:10168000CD0C811116C066E0CE010E94440DCE0142
:101690000E94CD0C612F183008F067E06868CE0119
:1016A0000E94440D88EB9BE0DF91CF911F910C9439
:1016B000C810DF91CF911F910895CF93DF93EC0174
:1016C000298D80E090E0821730F4FE01E80FF91FC9
:1016D00014820196F8CFCE010E94CD0C81110AC070
:1016E00065E0CE010E94440D88E893E1DF91CF913F
:1016F0000C94C810DF91CF9108955F926F927F9202
:101700008F929F92AF92BF92CF92DF92EF92FF9211
:101710000F931F93CF93DF93EC01542E4901E98C73
:10172000F12C8A8DA62EBB24A7FCB0942227332748
:101730002E193F092A153B0594F4AE14BF047CF41E
:1017400090E0C42EDD24C7FCD09422273327281B29
:10175000390B2C153D051CF4C816D90694F0CE01A2
:10176000DF91CF911F910F91FF90EF90DF90CF907D
:10177000BF90AF909F908F907F906F905F900C94F0
:101780005D0BCE010E94CD0C62E0CE010E94440DA3
:10179000CE010E94CD0C002711270A191B09370121
:1017A0006A187B08AA24BB24AC18BD0806151705C7
:1017B00004F517FD17C00E151F05A4F4F401E00F82
:1017C000F11F608157FC06C00C2C01C0660F0A9403
:1017D000EAF709C070E00A2C02C0759567950A9473
:1017E000E2F701C060E0CE010E94440D0F5F1F4F81
:1017F000DDCFDF91CF911F910F91FF90EF90DF90A0
:10180000CF90BF90AF909F908F907F906F905F90A0
:1018100008950F931F93CF93DF93EC01062F142F9E
:101820000E94CD0C811115C063E0CE010E94440DD1
:10183000CE010E94CD0C81110CC0602FCE010E9400
:10184000440D612FCE01DF91CF911F910F910C9428
:10185000440DDF91CF911F910F910895CF93DF93A6
:10186000E62FF0E0DC0159962C91599730E0E21711
:10187000F307C4F4242F30E05A96AC91B0E02A1755
:101880003B0784F4E80FF91F548121E030E001C0E8
:10189000220F4A95EAF7522B54834481DF91CF916E
:1018A0000C94090CDF91CF910895CF93DF93E62F2D
:1018B000F0E0DC0159962C91599730E0E217F307DC
:1018C000CCF4242F30E05A96AC91B0E02A173B07B5
:1018D0008CF4E80FF91F548121E030E001C0220FA1
:1018E0004A95EAF72095252324834481DF91CF91FF
:1018F0000C94090CDF91CF9108950F931F93CF9310
:10190000DF931F92CDB7DEB78C0169830E94B20CC2
:101910006981C8010F90DF91CF911F910F910C94B5
:10192000B30C0C94B30CCF93DF93EC010E94CD0C5D
:1019300081110FC062E0CE010E94440DCE010E94D1
:10194000FB0CCE010E94AC0D8C83CE010E94AC0D2D
:101950008D83DF91CF910895FC0184810895FC016E
:10196000858108950895DC016C9370E0FB01E656D3
:10197000FF4FE4911196EC931197FB01E255FF4F55
:10198000E491F0E0EE0FFF1FEE53FF4F859194912D
:1019900013969C938E9312970895FF920F931F9323
:1019A000CF93DF938C01FC01F180C281D3818981C7
:1019B0008F2989839A818F2D809589238A8380EE50
:1019C00091E00E94C81060E0F80180810E94B3118C
:1019D00082E390E00E94C810C88184E690E00E94F3
:1019E000C810FC2281E009F480E0DF91CF911F91C3
:1019F0000F91FF900895AF92BF92CF92DF92EF9236
:101A0000FF920F931F93CF93DF938C01FC01B18062
:101A1000C281D3810E9471106B017C018981AB2C42
:101A2000A0948A2189838A818B298A8388818B214A
:101A300069F00E9471106C197D098E099F09653645
:101A400071058105910590F380E013C088818B2199
:101A5000E9F389818B2989838A818A218A838EE1AE
:101A600090E00E94C81060E0F80180810E94B311EC
:101A700081E0DF91CF911F910F91FF90EF90DF9068
:101A8000CF90BF90AF9008950F931F93CF93DF93A4
:101A9000EC01062F18E0F89460E088810E94EC11B8
:101AA00061E088810E94B31185E090E00E94C81037
:101AB00000FF02C061E001C060E088810E94EC117B
:101AC000069578948EE190E00E94C81061E08881CC
:101AD0000E94EC1185E090E00E94C8101150D9F6E8
:101AE00060E08881DF91CF911F910F910C94B31129
:101AF000CF92DF92EF92FF921F93CF93DF93FC017F
:101B00001181C281D3810E9471106B017C01888197
:101B1000812359F00E9471106C197D098E099F096B
:101B2000643071058105910590F3F8948EE190E0A1
:101B30000E94C810C881789488E290E00E94C81082
:101B40001C2381E009F480E0DF91CF911F91FF9089
:101B5000EF90DF90CF9008950F931F93CF93DF9373
:101B6000EC0160E088810E94B31108E010E0CE0132
:101B70000E94780D20E8829FC00111241695182B31
:101B80000150A9F7812FDF91CF911F910F910895F7
:101B9000EF92FF920F931F93CF93DF931F92CDB7D6
:101BA000DEB77C01DC0112968D919C911397062F74
:101BB00010E0009749F02D913C912017310779F101
:101BC00069830E9498186981F70111830083F3E00B
:101BD0006F9FC00111240E940018D70113969C9397
:101BE0008E931297892B21F48BE591E00E94AA191C
:101BF00080E090E0F701408151819A01220F331F6C
:101C0000240F351F8217930750F4D7011296ED91D8
:101C1000FC911397E80FF91F10820196EBCF0F90FC
:101C2000DF91CF911F910F91FF90EF900895CF9387
:101C3000DF93EC01862F262F30E0F901E656FF4FA7
:101C4000E491E887F901E255FF4FE491F0E0EE0FEF
:101C5000FF1FE453FF4F259134913D832C8361E0B6
:101C60000E94B31160E2CE01DF91CF910C94C80DB8
:101C70000F93FC01A62FB0E080819181A817B907CE
:101C8000B8F4862F880F860F90E0A281B381A80F49
:101C9000B91F2C93A281B381A80FB91F11964C9341
:101CA0000280F381E02DE80FF91F028381E001C07B
:101CB00080E00F910895CF92DF92EF92FF920F9301
:101CC0001F93CF93DF937C01142FD22EC02E61116E
:101CD00013C0C0E0D0E0F70180819181C817D90717
:101CE00048F40C2D2D2D412F6C2FC7010E94380E6A
:101CF0002196F1CF81E004C061500E94380E80E04F
:101D0000DF91CF911F910F91FF90EF90DF90CF90D7
:101D100008950F931F93D8013FB7F8949C91822F99
:101D200080958923292BFB01460F571FE417F507E0
:101D300081F0919168E02C9300C097FF8C93990FEC
:101D400000C000C000C008F48C9300C06A9599F7E9
:101D5000EDCF3FBF1F910F9108950F931F93FC018B
:101D60000481158120813181A901440F551F420F43
:101D7000531F6281738120850E94890E61E070E0AB
:101D800080E090E01F910F910C94A010CF93DF930F
:101D9000EC018A819B810E9498181B821A82DF9134
:101DA000CF9108950F931F93CF93DF931F92CDB7D9
:101DB000DEB78C0169830E94B20CF801168217828B
:101DC000108611861286138614866981C8010F90C9
:101DD000DF91CF911F910F910C94B30C0C94B30C25
:101DE000CF92DF92EF92FF92CF93DF93EC010E94AC
:101DF000CD0C882339F0C12CD12C8AEFE82E83E456
:101E0000F82E27C062E0CE010E94440DCE010E9450
:101E1000FB0CCE010E94AC0D8C83CE010E94AC0D58
:101E20008D838D816C8170E0782B80E090E00E9442
:101E3000DB152CE53FE84CE851E40E9447156B01A7
:101E40007C0120E030E04AEF53E40E94C0161816EF
:101E500094F2C701B601DF91CF91FF90EF90DF9030
:101E6000CF900895CF93DF93EC010E94CD0C8111A8
:101E700023C063E0CE010E94440DCE010E94CD0C30
:101E800081111AC06E81CE010E94440D6F81CE0176
:101E90000E94440D6885CE010E94440D6985CE01E3
:101EA0000E94440D6A85CE010E94440D6B85CE01CF
:101EB000DF91CF910C94440DDF91CF910895FC01F7
:101EC0006683478320870C94320FFC016187428729
:101ED00023870C94320F1F920F920FB60F9211248A
:101EE0002F933F934F935F936F937F938F939F9322
:101EF000AF93BF93EF93FF938091040387FF05C0D7
:101F000010928500109284001AC020910403332798
:101F100027FD30958091030390E0281739077CF462
:101F200080910403992787FD9095FC01EE0FFF1F18
:101F3000E80FF91FEB5FFC4F808187FD15C0809192
:101F400004038F5F8093040320910403332727FD4C
:101F500030958091030390E028173907BCF48091F5
:101F600004038C305CF112C080910403992787FD33
:101F70009095FC01EE0FFF1FE80FF91FEB5FFC4F80
:101F8000808160E08F770E94EC11D9CF809184002E
:101F900090918500049680349C4918F480E49CE973
:101FA00005C08091840090918500049690938900EB
:101FB000809388008FEF8093040338C020918400C1
:101FC0003091850080910403992787FD9095FC014D
:101FD000EE0FFF1FE80FF91FEB5FFC4F818192812D
:101FE000820F931F9093890080938800809104034F
:101FF000992787FD9095FC01EE0FFF1FE80FF91F51
:10200000EB5FFC4F808187FF11C08091040399270B
:1020100087FD9095FC01EE0FFF1FE80FF91FEB5FA6
:10202000FC4F808161E08F770E94EC11FF91EF916E
:10203000BF91AF919F918F917F916F915F914F91E0
:102040003F912F910F900FBE0F901F9018951F92E8
:102050000F920FB60F9211242F933F938F939F935C
:10206000AF93BF9380912A0390912B03A0912C03EF
:10207000B0912D033091290323E0230F2D3720F455
:102080000196A11DB11D05C026E8230F0296A11DD2
:10209000B11D2093290380932A0390932B03A093CF
:1020A0002C03B0932D0380912E0390912F03A091C8
:1020B0003003B09131030196A11DB11D80932E0311
:1020C00090932F03A0933003B0933103BF91AF914E
:1020D0009F918F913F912F910F900FBE0F901F9066
:1020E00018952FB7F89460912A0370912B03809173
:1020F0002C0390912D032FBF08953FB7F894809142
:102100002E0390912F03A0913003B091310326B597
:10211000A89B05C02F3F19F00196A11DB11D3FBF1F
:102120006627782F892F9A2F620F711D811D911DAF
:1021300042E0660F771F881F991F4A95D1F70895CF
:10214000CF92DF92EF92FF92CF93DF936B017C01EE
:102150000E947D10EB01C114D104E104F10489F067
:102160000E94E1140E947D106C1B7D0B683E734041
:1021700090F381E0C81AD108E108F108C851DC4F9A
:10218000EACFDF91CF91FF90EF90DF90CF9008954D
:102190008230910538F0880F991F880F991F059795
:1021A0000197F1F70895789484B5826084BD84B571
:1021B000816084BD85B5826085BD85B5816085BD42
:1021C000EEE6F0E0808181608083E1E8F0E010825B
:1021D000808182608083808181608083E0E8F0E09C
:1021E000808181608083E1EBF0E080818460808386
:1021F000E0EBF0E0808181608083EAE7F0E08081BD
:10220000846080838081826080838081816080831C
:102210008081806880831092C10008958E3008F01C
:102220008E5087702091250190E4299F9001112400
:10223000822B80937C0080917A00806480937A0066
:1022400080917A0086FDFCCF809178002091790002
:1022500090E0922B08951F93CF93DF93182FEB01FB
:1022600061E00E94B311209711F460E004C0CF3FF9
:10227000D10539F461E0812FDF91CF911F910C944A
:10228000EC11E12FF0E0EA57FF4FE491E330F9F071
:1022900048F4E130B9F0E230A1F584B5806284BD44
:1022A000C8BD34C0E730E9F0E83019F1E43049F551
:1022B00080918000806280938000D0938B00C093D7
:1022C0008A0024C084B5806884BDC7BD1FC08091CA
:1022D0008000806880938000D0938900C09388003C
:1022E00015C08091B00080688093B000C093B300A7
:1022F0000DC08091B00080628093B000C093B400A4
:1023000005C0C038D1050CF0B5CFAFCFDF91CF916C
:102310001F910895833081F028F4813099F0823044
:10232000A1F008958730A9F08830B9F08430D1F455
:10233000809180008F7D03C0809180008F77809393
:102340008000089584B58F7702C084B58F7D84BDE9
:1023500008958091B0008F7703C08091B0008F7D89
:102360008093B0000895CF93DF9390E0FC01E65690
:10237000FF4F2491FC01E255FF4F8491882349F1DE
:1023800090E0880F991FFC01EA52FF4FA591B4918C
:1023900084539F4FFC01C591D4919FB7611108C030
:1023A000F8948C91209582238C93888182230AC093
:1023B000623051F4F8948C91322F309583238C93B2
:1023C0008881822B888304C0F8948C91822B8C9313
:1023D0009FBFDF91CF9108950F931F93CF93DF930A
:1023E0001F92CDB7DEB7282F30E0F901EA57FF4F33
:1023F0008491F901E656FF4F1491F901E255FF4F20
:1024000004910023C9F0882321F069830E948A1176
:102410006981E02FF0E0EE0FFF1FE453FF4FA5911D
:10242000B4919FB7F8948C91611103C010958123EA
:1024300001C0812B8C939FBF0F90DF91CF911F9193
:102440000F910895CF93DF93282F30E0F901EA57D9
:10245000FF4F8491F901E656FF4FD491F901E255FF
:10246000FF4FC491CC2391F081110E948A11EC2F6F
:10247000F0E0EE0FFF1FEE53FF4FA591B4912C91AA
:102480002D2381E090E021F480E002C080E090E024
:10249000DF91CF910895FC01818D228D90E0805CC9
:1024A0009F4F821B91098F7399270895FC01918D8D
:1024B000828D981731F0828DE80FF11D858D90E0A7
:1024C00008958FEF9FEF0895FC01918D828D9817ED
:1024D00061F0828DDF01A80FB11D5D968C91928D08
:1024E0009F5F9F73928F90E008958FEF9FEF089505
:1024F00088EE93E1892B49F080E090E0892B29F068
:102500000E94E81381110C9400000895FC01848D51
:10251000DF01A80FB11DA35ABF4F2C91848D90E00D
:1025200001968F739927848FA689B7892C93A089E8
:10253000B1898C9180648C93938D848D981306C09F
:102540000288F389E02D80818F7D80830895CF9369
:10255000DF93EC01888D8823C9F0EA89FB898081AB
:1025600085FD05C0A889B9898C9186FD0FC00FB67D
:1025700007FCF5CF808185FFF2CFA889B9898C91BE
:1025800085FFEDCFCE010E948612E7CFDF91CF917C
:102590000895CF92DF92FF920F931F93CF93DF9313
:1025A0001F92CDB7DEB76C0181E0D60158968C93AF
:1025B00058975B969C915B975C968C915C9798136F
:1025C00007C05096ED91FC915197808185FD2EC0FA
:1025D000F601038D10E00F5F1F4F0F731127F02ED0
:1025E000F601848DF81211C00FB607FCF9CFD601A1
:1025F0005096ED91FC915197808185FFF1CFC601F6
:1026000069830E9486126981EBCF838DE80FF11DEB
:10261000E35AFF4F6083D6015B960C935B9752960B
:10262000ED91FC915397808180620CC0D601569643
:10263000ED91FC91579760835096ED91FC915197E5
:1026400080818064808381E090E00F90DF91CF9162
:102650001F910F91FF90DF90CF900895BF92CF927E
:10266000DF92EF92FF92CF93DF93EC016A017B013F
:10267000B22EE889F98982E08083411581EE5807FE
:1026800061057105A1F060E079E08DE390E0A701BC
:1026900096010E948B172150310941095109569525
:1026A000479537952795211580E1380798F0E889F7
:1026B000F989108260E874E88EE190E0A701960144
:1026C0000E948B17215031094109510956954795B0
:1026D00037952795EC85FD853083EE85FF85208332
:1026E000188EEC89FD89B082EA89FB89808180613E
:1026F0008083EA89FB89808188608083EA89FB89FD
:10270000808180688083EA89FB8980818F7D8083D6
:10271000DF91CF91FF90EF90DF90CF90BF90089521
:102720001F920F920FB60F9211242F938F939F93A6
:10273000EF93FF93E0914203F09143038081E09196
:102740004803F091490382FD12C0908180914B03B0
:102750008F5F8F7320914C03821751F0E0914B03F0
:10276000F0E0EE5CFC4F958F80934B0301C08081BD
:10277000FF91EF919F918F912F910F900FBE0F902E
:102780001F9018951F920F920FB60F9211242F933E
:102790003F934F935F936F937F938F939F93AF93E9
:1027A000BF93EF93FF9382E393E00E948612FF9121
:1027B000EF91BF91AF919F918F917F916F915F91B9
:1027C0004F913F912F910F900FBE0F901F90189532
:1027D00082E393E00E944B1221E0892B09F420E070
:1027E000822F0895109235031092340388EE93E0FF
:1027F000A0E0B0E08093360390933703A0933803B2
:10280000B09339038BE791E09093330380933203C5
:1028100085EC90E090933F0380933E0384EC90E03E
:10282000909341038093400380EC90E090934303A6
:102830008093420381EC90E090934503809344039E
:1028400082EC90E0909347038093460386EC90E0FF
:10285000909349038093480310924B0310924C03CA
:1028600010924D0310924E03089508950E94D310C4
:102870000E9435140E940204C8E7D2E10E949F071B
:102880002097E1F30E947812F9CFCF92DF92EF9276
:10289000FF920F931F93CF93DF936C017A01EB01AB
:1028A000E60EF71E00E010E0CE15DF0561F069913D
:1028B000D601ED91FC910190F081E02DC6010995C2
:1028C000080F191FF1CFC801DF91CF911F910F9110
:1028D000FF90EF90DF90CF9008956115710581F022
:1028E000DB010D900020E9F7AD0141505109461B75
:1028F000570BDC01ED91FC910280F381E02D0994EE
:1029000080E090E0089567E871E00C946D140F93F7
:102910001F93CF93DF93EC010E946D148C01CE01C5
:102920000E948314800F911FDF91CF911F910F910F
:102930000895611571058105910511F00C947B19BD
:102940000895CF93DF9300D000D0CDB7DEB79B01C1
:10295000AC01611571058105910569F069833A83C0
:102960004B835C830E94761929813A814B815C817B
:102970000E94AD1703C060E070E0CB010F900F9094
:102980000F900F90DF91CF910895CF92DF92EF9249
:10299000FF926B017C01621773078407950764F44B
:1029A000CA01B9016C197D098E099F090E94A11401
:1029B0006C0D7D1D8E1D9F1DFF90EF90DF90CF90C1
:1029C000089508955058BB27AA270ED09FC190D1D3
:1029D00030F095D120F031F49F3F11F41EF460C126
:1029E0000EF4E095E7FB48C1E92FA1D180F3BA17B7
:1029F000620773078407950718F071F49EF5B9C153
:102A00000EF4E0950B2EBA2FA02D0B01B901900109
:102A10000C01CA01A0011124FF27591B99F0593F4D
:102A200050F4503E68F11A16F040A22F232F342F95
:102A30004427585FF3CF469537952795A795F040E3
:102A40005395C9F77EF41F16BA0B620B730B840BF8
:102A5000BAF09150A1F0FF0FBB1F661F771F881FB0
:102A6000C2F70EC0BA0F621F731F841F48F4879508
:102A700077956795B795F7959E3F08F0B3CF9395F7
:102A8000880F08F09927EE0F9795879508950CD039
:102A90003DC135D140F02CD130F021F45F3F19F029
:102AA000EBC0511167C1FCC042D198F39923C9F31F
:102AB0005523B1F3951B550BBB27AA276217730744
:102AC000840738F09F5F5F4F220F331F441FAA1FF8
:102AD000A9F333D00E2E3AF0E0E830D091505040B8
:102AE000E695001CCAF729D0FE2F27D0660F771F66
:102AF000881FBB1F261737074807AB07B0E809F048
:102B0000BB0B802DBF01FF2793585F4F2AF09E3FDC
:102B1000510568F0B1C02EC15F3FECF3983EDCF385
:102B2000869577956795B795F7959F5FC9F7880F55
:102B3000911D9695879597F90895E1E0660F771FA7
:102B4000881FBB1F621773078407BA0720F0621B38
:102B5000730B840BBA0BEE1F88F7E0950895EFD046
:102B600088F09F5790F0B92F9927B751A0F0D1F076
:102B7000660F771F881F991F1AF0BA95C9F712C000
:102B8000B13081F0F6D0B1E00895F3C0672F782F0F
:102B90008827B85F39F0B93FCCF38695779567956C
:102BA000B395D9F73EF490958095709561957F4FD8
:102BB0008F4F9F4F0895E89409C097FB3EF490957E
:102BC0008095709561957F4F8F4F9F4F9923A9F006
:102BD000F92F96E9BB279395F69587957795679595
:102BE000B795F111F8CFFAF4BB0F11F460FF1BC0D9
:102BF0006F5F7F4F8F4F9F4F16C0882311F096E96C
:102C000011C0772321F09EE8872F762F05C0662319
:102C100071F096E8862F70E060E02AF09A95660FD2
:102C2000771F881FDAF7880F9695879597F908958B
:102C3000990F0008550FAA0BE0E8FEEF16161706CD
:102C4000E807F907C0F012161306E407F50798F035
:102C5000621B730B840B950B39F40A2661F0232B4E
:102C6000242B252B21F408950A2609F4A140A695CA
:102C70008FEF811D811D089597F99F6780E870E0AF
:102C800060E008959F3F31F0915020F4879577954B
:102C90006795B795880F911D9695879597F9089533
:102CA0009FEF80EC0895DF93CF931F930F93FF92D4
:102CB000EF92DF927B018C01689405C0DA2EEF0160
:102CC0006FD0FE01E894A5912591359145915591DC
:102CD000AEF3EF0189DEFE019701A801DA9479F7DE
:102CE000DF90EF90FF900F911F91CF91DF910895AA
:102CF00000240A94161617061806090608950024DB
:102D00000A9412161306140605060895092E039454
:102D1000000C11F4882352F0BB0F40F4BF2B11F4C8
:102D200060FF04C06F5F7F4F8F4F9F4F089557FD27
:102D30009058440F551F59F05F3F71F04795880F29
:102D400097FB991F61F09F3F79F0879508951216C0
:102D500013061406551FF2CF4695F1DF08C016166C
:102D600017061806991FF1CF86957105610508941D
:102D70000895E894BB2766277727CB0197F9089534
:102D800057DF08F48FEF08950BD0C0CFB1DF28F0E4
:102D9000B6DF18F0952309F06FCF82CF1124EACF68
:102DA000C6DFA0F3959FD1F3950F50E0551F629FAA
:102DB000F001729FBB27F00DB11D639FAA27F00D94
:102DC000B11DAA1F649F6627B00DA11D661F829FBB
:102DD0002227B00DA11D621F739FB00DA11D621FA0
:102DE000839FA00D611D221F749F3327A00D611DBD
:102DF000231F849F600D211D822F762F6A2F11249F
:102E00009F5750408AF0E1F088234AF0EE0FFF1FF1
:102E1000BB1F661F771F881F91505040A9F79E3F28
:102E2000510570F029CFA6CF5F3FECF3983EDCF35D
:102E3000869577956795B795F795E7959F5FC1F765
:102E4000FE2B880F911D9695879597F908959F936E
:102E500005D00F9007FCEE5F28C022CF70DFE8F3AB
:102E6000E894E0E0BB279F57F0F02AED3FE049EC03
:102E700006C0EE0FBB0F661F771F881F28F0B23AFF
:102E800062077307840728F0B25A620B730B840B36
:102E9000E3959A9572F7803830F49A95BB0F661FC8
:102EA000771F881FD2F79048EFCEEF93E0FF06C060
:102EB000A2EA2AED3FE049EC5FEB96DD27DF0F90B9
:102EC000039401FC9058E8E6F0E000C09F938F93D4
:102ED0007F936F93FF93EF939B01AC0155DFEF91CD
:102EE000FF91E1DE2F913F914F915F914DCF97FB85
:102EF000072E16F4009407D077FD09D00E94D7174B
:102F000007FC05D03EF4909581959F4F08957095EC
:102F100061957F4F0895A1E21A2EAA1BBB1BFD01EC
:102F20000DC0AA1FBB1FEE1FFF1FA217B307E407A8
:102F3000F50720F0A21BB30BE40BF50B661F771F00
:102F4000881F991F1A9469F76095709580959095E0
:102F50009B01AC01BD01CF010895052E97FB1EF426
:102F600000940E94C41757FD07D00E948B1707FCDE
:102F700003D04EF40C94C41750954095309521958C
:102F80003F4F4F4F5F4F0895909580957095619595
:102F90007F4F8F4F9F4F08950E94F117A59F900D6F
:102FA000B49F900DA49F800D911D11240895AA1B1C
:102FB000BB1B51E107C0AA1FBB1FA617B70710F024
:102FC000A61BB70B881F991F5A95A9F78095909556
:102FD000BC01CD010895EE0FFF1F0590F491E02D87
:102FE0000994A29FB001B39FC001A39F700D811DE2
:102FF0001124911DB29F700D811D1124911D089502
:10300000CF93DF938230910510F482E090E0E0915D
:10301000D103F091D20320E030E0A0E0B0E030979F
:1030200039F14081518148175907B8F048175907BD
:1030300071F482819381109729F013969C938E935B
:1030400012972CC09093D2038093D10327C02115EF
:10305000310531F04217530718F0A901DB0101C017
:10306000EF019A01BD01DF010280F381E02DD7CF8E
:1030700021153105F9F0281B390B2430310580F476
:103080008A819B816115710521F0FB019383828305
:1030900004C09093D2038093D103FE01329644C0C2
:1030A000FE01E20FF31F819391932250310939837E
:1030B00028833AC02091CF033091D003232B41F4D1
:1030C00020910201309103013093D0032093CF036C
:1030D00020910001309101012115310541F42DB7F6
:1030E0003EB74091040150910501241B350BE0913E
:1030F000CF03F091D003E217F307A0F42E1B3F0B90
:103100002817390778F0AC014E5F5F4F2417350759
:1031100048F04E0F5F1F5093D0034093CF0381932D
:10312000919302C0E0E0F0E0CF01DF91CF910895EC
:10313000CF93DF93009709F487C0FC013297138285
:103140001282C091D103D091D203209781F42081C3
:103150003181280F391F8091CF039091D0038217BE
:10316000930779F5F093D003E093CF036DC0DE01B0
:1031700020E030E0AE17BF0750F412964D915C91FD
:1031800013979D014115510509F1DA01F3CFB3837E
:10319000A28340815181840F951F8A179B0771F488
:1031A0008D919C911197840F951F02969183808336
:1031B00012968D919C9113979383828321153105EB
:1031C00029F4F093D203E093D1033EC0D9011396C2
:1031D000FC93EE9312974D915D91A40FB51FEA17E2
:1031E000FB0779F480819181840F951F0296D901A4
:1031F00011969C938E938281938113969C938E93C8
:103200001297E0E0F0E08A819B81009719F0FE01BF
:10321000EC01F9CFCE01029628813981820F931FEC
:103220002091CF033091D0032817390769F43097E4
:1032300029F41092D2031092D10302C01382128299
:10324000D093D003C093CF03DF91CF9108958F9295
:103250009F92AF92BF92CF92DF92EF92FF92CF9365
:10326000DF93EC01688179818A819B816115710509
:103270008105910521F464E279ED8BE597E02DE17C
:1032800033EF41E050E00E94AD1749015A019B0124
:10329000AC01A7EAB1E40E94CC176B017C01ACEE53
:1032A000B4EFA50194010E94DA19C60ED71EE81EDC
:1032B000F91EF7FE06C081E0C81AD108E10880E8CF
:1032C000F80AC882D982EA82FB82C701B6019F77D9
:1032D000DF91CF91FF90EF90DF90CF90BF90AF90B4
:1032E0009F908F9008950E942719089586E091E09D
:1032F0000E94271908956093060170930701809337
:103300000801909309010895FC0188279927E89402
:1033100021912032E9F3293010F02E30C8F32B32FE
:1033200041F02D3239F4689404C00E94A219820F32
:10333000911D219120532A30C0F31EF49095819560
:103340009F4F08957AE0979F902D879F802D910D34
:10335000112408950F931F93CF93DF93E091D5032A
:10336000F091D603238121FF1BC0EC0100E010E0A7
:1033700089916091D5037091D603DB011896ED9188
:10338000FC911997882331F00995892B89F30FEF68
:103390001FEFEECF8AE00995892B11F4C80102C016
:1033A0008FEF9FEFDF91CF911F910F910895B7FF9E
:1033B0000C94CC170E94CC17821B930B089510E03D
:1033C000C4EED0E004C0FE010E94ED172296C63E76
:0833D000D107C9F7F894FFCF03
:1033D8000000D90380000100000064960000000688
:1033E800070508130113021201120211011102103C
:1033F80001100200000141420408102040000000B2
:103408000000000040201008044241564552007751
:10341800656565626F745F415F31004C4641004FDE
:103428004B004C46004C4F00495200546865726589
:10343800206973206E6F7420656E6F7567682073DE
:1034480070616365210D0000000000C91245144B2E
:103458001264125612A7120D0A006E616E00696E90
:0834680066006F7666002E007D
:00000001FF
