:100000000C9472000C949A000C949A000C949A0030
:100010000C949A000C949A000C949A000C94500939
:100020000C949A000C949A000C949A000C94F00D85
:100030000C949A000C949A000C949A000C949A00D8
:100040000C94AC0E0C949A000C9415120C9447125C
:100050000C949A000C949A000C949A000C949A00B8
:100060000C949A000C949A0005A84CCDB2D44EB9C9
:100070003836A9020C50B9918688083CA6AAAA2A4B
:10008000BE000000803F00000008000201000003E5
:100090000407000000000000000001020408102016
:1000A000408001020408102001020408102004040A
:1000B0000404040404040202020202020303030310
:1000C00003030000000023002600290000000000B8
:1000D000250028002B0000000000240027002A0033
:1000E000D106771211241FBECFEFD8E0DEBFCDBFFF
:1000F00011E0A0E0B1E0E4E2FEE202C005900D9262
:10010000A637B107D9F723E0A6E7B1E001C01D92F9
:10011000A43AB207E1F710E0C4EED0E004C02297A1
:10012000FE010E947216C03ED107C9F70E94BB12A1
:100130000C9410170C94000081E0809380008BE0F9
:10014000809381000895CF93C82F61E083E00E94DF
:1001500038106C2F83E0CF910C947110CF93C82F7F
:1001600061E08EE00E9438106C2F8EE0CF910C94ED
:100170007110CF93C82F61E084E00E9438106C2F7B
:1001800084E0CF910C947110CF93C82F61E08DE083
:100190000E9438106C2F8DE0CF910C947110CF938A
:1001A000DF93EB012CE231E040E050E0BC018DE553
:1001B00092E00E94090884E0CC0FDD1F8A95E1F7E8
:1001C000C55BDF4FD0930C01C0930B01DF91CF9142
:1001D00008954F925F926F927F928F929F92AF920B
:1001E000BF92CF92DF92EF92FF9226E030E040E0A4
:1001F00050E061E070E080E090E00E944A130E94CD
:10020000621420E030E040EC50E40E94CC139B01EB
:10021000AC01609100027091010280910202909104
:1002200003020E946813609300027093010280939E
:1002300002029093030226E030E040E050E061E0EB
:1002400070E080E090E00E944A130E94621420E077
:1002500030E040EC50E40E94CC139B01AC01609173
:10026000FC017091FD018091FE019091FF010E94BF
:1002700068136093FC017093FD018093FE019093DD
:10028000FF0126E030E040E050E061E070E080E017
:1002900090E00E944A130E94621420E030E040EC9B
:1002A00050E40E94CC132091F8013091F901409163
:1002B000FA015091FB010E9468136B017C0160936D
:1002C000F8017093F9018093FA019093FB0120E00B
:1002D00030E040E85EE3609100027091010280919D
:1002E0000202909103020E94491520E030E040E0B4
:1002F0005FE30E9468130E94AC154B015C0120E093
:1003000030E040E151E46091FC017091FD01809189
:10031000FE019091FF010E94CC1320E030E040E804
:100320005FE30E94681326E636E646E050E40E944A
:1003300068130E94AC152B013C0120E030E040E640
:1003400051E4C701B6010E94CC132BEA3AEA4AEA0B
:100350005EE30E94681326E636E646E850E40E9413
:1003600068130E94AC1520E030E040E85FE30E9493
:10037000681320E030E040E852E40E9449150E94F2
:100380003414E62E20E030E040E85FE3C301B20120
:100390000E94681320E030E040E852E40E944915D2
:1003A0000E943414F62E20E030E040E85FE3C501FF
:1003B000B4010E94681320E030E040E852E40E945B
:1003C00049150E943414D62E2E2D4F2D85E392E030
:1003D0000E94B80D2E2D4F2D6D2D85E392E0FF90DC
:1003E000EF90DF90CF90BF90AF909F908F907F90D5
:1003F0006F905F904F900C94BE0D0F931F93CF930F
:10040000DF938C01EB0166277727681B790B84E269
:1004100092E00E945408BE0189E192E00E945408D3
:1004200010161106FCF480E01C161D0624F40E9430
:10043000A30080E02FC00E94A30080E00E94AE00D5
:1004400080E00E94B90081E00E94C40085E392E050
:100450000E94EA0D85E392E0DF91CF911F910F9109
:100460000C94D80D1C161D068CF480E00E94A3008D
:1004700080E00E94AE0081E00E94B90080E00E940E
:10048000C40085E392E00E94E40D10C081E00E9468
:10049000A30081E00E94AE0080E00E94B90080E0ED
:1004A0000E94C40085E392E00E94EA0D85E392E099
:1004B000DF91CF911F910F910C94DE0D80910B0174
:1004C00090910C01BC010C94FD0180910B01909165
:1004D0000C01919581959109BC010C94FD018091CD
:1004E0000B0190910C01BC019195819591090C949F
:1004F000FD0180910B0190910C0166277727681B05
:10050000790B0C94FD0160E070E080E090E00C94C9
:10051000FD01CF93C82F0E94F60E609311027093D5
:1005200012028093130290931402C03409F4DBC0CA
:1005300060F5CD3009F4AAC0A8F4C83009F4ECC0C5
:1005400030F4C73009F0F4C083E090E0D4C0C93083
:1005500009F4CFC0CC3009F0EBC060E070E086E277
:1005600091E0E3C0C83109F4DCC020F4C53109F4DE
:1005700099C0DEC0C93109F4B9C0CC3109F0D8C086
:1005800065E070E089EB91E0D0C0C634E9F118F580
:10059000C33409F46EC040F4C23409F0C9C067E046
:1005A00070E08CE292E0C1C0C43409F455C0C53497
:1005B00009F0BEC08FEF90E090930C0180930B0187
:1005C000109218020E9483022CE231E040E050E0D9
:1005D00066E271E02AC0C23509F494C050F4C73411
:1005E00049F1CA3409F0A4C069E070E085E992E0FD
:1005F0009CC0CA3509F48BC0CE3509F099C063E0C0
:1006000070E08EE591E091C084E690E090930C015B
:1006100080930B0181E0809318020E9483022CE2F8
:1006200031E040E050E06AE471E08DE592E0CF9186
:100630000C94090882E08093180284E690E090937D
:100640000C0180930B010E9483022CE231E040E018
:1006500050E06EE571E0E9CF88EC90E090930C01FA
:1006600080930B012CE231E040E050E069E871E05A
:10067000DCCF8FEF90E090930C0180930B012CE284
:1006800031E040E050E069EB71E0CFCF85E080934E
:10069000180284E690E090930C0180930B010E9475
:1006A00083021AC08091150290E0019663E070E029
:1006B0000E94FC1580931502892B71F420E040E024
:1006C00060E085E392E00E94B80D20E040E060E049
:1006D00085E392E00E94BE0D2CE231E040E050E064
:1006E0006FEE71E0A2CF81E090E005C082E090E083
:1006F00002C084E090E0909317028093160210925B
:100700000B0216C068E070E08DE492E00EC066E077
:1007100070E08FEE91E009C064E070E089E891E05C
:1007200004C062E070E08AE491E0CF910C94CF00C5
:10073000CF91089528EE33E040E050E066E271E0AA
:100740008DE592E00E94A50781E00E94A30081E070
:100750000E94AE0081E00E94B90081E00E94C400C6
:100760000E94830285E392E00E94E40D85E392E01B
:100770000E94D80D65E082E492E00E94D80A82E4EB
:1007800092E00E94FB0A41E160E082E492E00E9474
:100790001B0B42E061E082E492E00E941B0B44E00C
:1007A00062E082E492E00E941B0B48E063E082E496
:1007B00092E00E941B0B40E164E082E492E00E9420
:1007C0001B0B40E065E082E492E00E941B0B40E0DE
:1007D00066E082E492E00E941B0B40E067E082E466
:1007E00092E00E941B0B40E068E082E492E00E94ED
:1007F0001B0B40E169E082E492E00E941B0B48E0A1
:100800006AE082E492E00E941B0B44E06BE082E429
:1008100092E00E941B0B42E06CE082E492E00E94B6
:100820001B0B41E16DE082E492E00E941B0B2CE285
:1008300031E040E050E06FEE71E08DE592E00E9423
:10084000A50726E040E052EC61E070E087E093E02D
:100850000E94B3118EE592E00C94120A80910B0273
:10086000882351F06091070270910802809109027B
:1008700090910A020C94FD0180911602909117024A
:100880008230910571F02CF4009789F0019739F0CE
:1008900008958330910539F0049739F008950C9448
:1008A0005E020C9465020C946F020C9479020C9415
:1008B000830286E00E94930FBC01882777FD809514
:1008C000982F0E941E1385E392E00E94490D0E941A
:1008D00034148FEF860F813360F080910B0190917B
:1008E0000C01BC010E94FD0164E670E080E090E034
:1008F00066C0603168F162E070E080E090E00E94E4
:100900002613611571058105910589F06130710526
:1009100081059105C1F420910B0130910C01C901B1
:100920006BEF7FEF0E94FC15CB01B9010AC020914B
:100930000B0130910C01C9016BEF7FEF0E94FC1598
:10094000C9010E94FD0168EC70E080E090E037C0D2
:1009500080910B0190910C01919581959109BC01B9
:100960000E94FD016CE271E080E090E00E94250FA2
:1009700062E070E080E090E00E942613611571054E
:100980008105910571F0613071058105910599F43A
:1009900080910B0190910C01BC0191958195910979
:1009A00008C080910B0190910C0166277727681B86
:1009B000790B0E94FD016CE271E080E090E00C9404
:1009C000250FCF93DF938FE292E00E94A70B8FE277
:1009D00092E00E94C00BEC018FE292E00E94DF0BDC
:1009E00021E08038924008F020E080910A01C03870
:1009F000D24068F4211103C091E09093060290E088
:100A0000BC010E94FD0180910A018F5F1AC0222360
:100A100011F092E0F2CF90910602913031F490E023
:100A2000BC0191958195910907C0923061F490E0E5
:100A300066277727681B790B0E94FD0180910A01C8
:100A4000845180930A0180910A01883C10F488EC5B
:100A500003C0883C19F08AEF80930A01DF91CF919F
:100A6000089580910402909105028531910594F0DA
:100A700066E970E080E090E00E94FD0164E670E0CD
:100A800080E090E00E94250F809104029091050281
:100A9000019713C04497A9F060E070E086E990E008
:100AA0000E94FD0164E670E080E090E00E94250F66
:100AB0008091040290910502019690930502809323
:100AC000040280910402909105028531910529F478
:100AD00010920502109204020895439731F488E2BF
:100AE00090E090930502809304020895DC01ED915B
:100AF000FC911197CF01019611969C938E932081C2
:100B00002032A9F70C94E216FB012191BF012223A8
:100B100039F0FC013191CF013217B1F380E0089533
:100B200081E00895CF93DF93EB01FC010190002059
:100B3000E9F7AF0141505109481B590BE0910703F8
:100B4000F09108030280F381E02DBC0187E093E07F
:100B50000995BE0187E093E0DF91CF910C940C13CF
:100B60000F931F93CF93DF9300D000D01F92CDB788
:100B7000DEB79A8389838C0166E271E00E94840566
:100B8000882331F06AE271E0C8010E949205FFC03B
:100B90006AE371E0C8010E948405882351F06EE386
:100BA00071E0C8010E94920582E492E00E94FB0A73
:100BB000EEC061E471E0C8010E9484058823B1F0B1
:100BC0006EE371E0C8010E949205CE0101960E9479
:100BD0007605682FCE0101966D830E947605482F19
:100BE0006D8182E492E00E946B0BD1C064E471E0FD
:100BF000C8010E9484058823B1F06EE371E0C8014A
:100C00000E949205CE0101960E947605682FCE01C2
:100C100001966D830E947605482F6D8182E492E0F3
:100C20000E94440BB4C067E471E0C8010E948405CF
:100C3000882381F0CE0101960E9476058C01CE01B9
:100C400001960E9476059C01442737FD4095542F5C
:100C5000B80196C06AE471E0C8010E948405882347
:100C6000F9F0CE0101960E947605682FCE0101961B
:100C70006D830E947605482FCE0101964C830E9419
:100C80007605282FCE0101962B830E947605082F2A
:100C90002B814C816D8185E392E00E94C40D77C069
:100CA0006EE471E0C8010E9484058823A1F081E010
:100CB00080930B02CE0101960E94760590930A0262
:100CC00080930902CE0101960E9476059093080256
:100CD000809307025CC061E571E0C8010E94840551
:100CE000882309F454C06EE371E0C8010E949205A4
:100CF00089819A8102960E94E216813089F480915E
:100D000010028093180280910D0290910E02909330
:100D10000C0180930B0180910F02809315022AC071
:100D2000823099F58091150280930F0280910B011A
:100D300090910C0190930E0280930D028091180205
:100D400080931002109218021092150220E040E0E9
:100D500060E085E392E00E94B80D20E040E060E0B2
:100D600085E392E00E94BE0D60E070E080E090E0DC
:100D70000E94FD012CE231E040E050E066E271E0CB
:100D80008DE592E00E94090802C00E9489020F903E
:100D90000F900F900F900F90DF91CF911F910F91B7
:100DA000089562E08EE592E00E94060A67E08DE514
:100DB00092E00E94A20760E182E492E00E94D40ADD
:100DC00062E185E392E00E942D0D63E18FE292E003
:100DD0000E94930B62E084E292E00E943A0861E094
:100DE00089E192E00E943A088091180280931002F3
:100DF0008091150280930F0280910B0190910C015C
:100E000090930E0280930D0208951F93CF93DF936A
:100E1000C0E8D0E010E287E093E00E94D010892B78
:100E200081F187E093E00E94E9102091F601309172
:100E3000F7018A30C1F4C9010197FC01EA58FE4F5D
:100E400040814D3011F49C01F6CFF901EA58FE4F74
:100E5000108311821092F7011092F60186E791E05B
:100E60000E94B005D8CFF901EA58FE4F8083C9012E
:100E70000196BE010E94FC159093F7018093F60144
:100E8000CACFDF91CF911F9108950F931F93809147
:100E90000C02882319F00E94050714C087E093E034
:100EA0000E94D010892B21F081E080930C020AC0AF
:100EB0008EE592E00E94850A892B21F080916102E3
:100EC0000E9489020E94F60E0091110210911202F6
:100ED0002091130230911402601B710B820B930B53
:100EE000693771058105910570F00E94F60E6093D7
:100EF00011027093120280931302909314021092C5
:100F000017021092160280911802813059F038F0C1
:100F1000823059F0853059F40E94310508C00E9492
:100F20002E0405C00E94590402C00E94E104809171
:100F30001502813021F41F910F910C94E9001F914B
:100F40000F9108956093690208954F925F926F9296
:100F50007F928F929F92AF92BF92CF92DF92EF9249
:100F6000FF920F931F93CF93DF9369017A019B0147
:100F700040E050E060E472E48FE090E00E943216BE
:100F8000E901890137FF02C00F5F1F4F15950795D3
:100F900061E0809169020E943810A8EEB3E0A701D9
:100FA00096010E9451164B015C01C12CD12C760197
:100FB0002E01662457FC6094762CC814D904EA04E8
:100FC000FB04B0F461E0809169020E947110C801D5
:100FD0000E944D0F60E0809169020E947110C8016B
:100FE0000E944D0FA895C40CD51CE61CF71CE5CF3C
:100FF000DF91CF911F910F91FF90EF90DF90CF90F5
:10100000BF90AF909F908F907F906F905F904F9028
:101010000895F8940E94A507789408950F931F935C
:10102000CF93DF93EC01062F10E0000F111F035F39
:101030001E4F633050F0F8016081CE010E94FF0B1B
:10104000F8018181898718860CC061E0F8018181EF
:101050000E943810F80180818D8381818C8381E02A
:1010600088878CE291E09F838E83DF91CF911F91DF
:101070000F9108950F931F93CF93DF931F92CDB7D6
:10108000DEB78C0169830E94FE0BF801178216827D
:101090001086118612866981C8010F90DF91CF9169
:1010A0001F910F910C940E08EF92FF920F931F93D4
:1010B000CF93DF9300D0CDB7DEB77C01FC018285F2
:1010C000811109C069837A830E949C0081E0F70145
:1010D00082877A8169818B016F3F710519F014F065
:1010E0000FEF10E00130FFEF1F0714F401E01FEFD6
:1010F000F701868197818017910709F4C8C017838B
:101100000683808517FD4EC0813079F58481873054
:1011100019F4848160E006C0F7018481883089F485
:10112000848161E00E947110F7018581B8010F9000
:101130000F90DF91CF911F910F91FF90EF900C9442
:10114000B00FF7018481893029F0F701848186305E
:1011500009F09DC0848161E00E947110F7018581D2
:101160006FEF70E0601B710BE2CFC7010E94190C9A
:1011700062E0C7010E94900CC7010E94190CF701A0
:101180006185C7010E94900CB801882777FD809582
:10119000982F0E94621423E333E343E250E40E9459
:1011A000CC1364C08130F1F5F7018481873061F49C
:1011B000848161E00E947110F7018581662777279D
:1011C000601B710B0E94B00FF7018481883061F4BD
:1011D000848160E00E947110F7018581662777277E
:1011E000601B710B0E94B00FF7018481893059F4A4
:1011F000858161E00E947110F7018481B80161501E
:101200007F4F0E94B00FF7018481863009F03FC004
:10121000858161E00E947110F7018481B8016150FD
:101220007F4F85CFC7010E94190C62E0C7010E9461
:10123000900CC7010E94190CF7016185C7010E943B
:10124000900CB801882777FD8095982F0E94621432
:1012500023E333E343E250E40E94CC139B01AC014F
:1012600060E070E088EC92E40E9467130E943414FE
:10127000C7010E94900C84EF91E00F900F90DF91D6
:10128000CF911F910F91FF90EF900C944D0F0F9005
:101290000F90DF91CF911F910F91FF90EF900895E4
:1012A0001F920F920FB60F9211240F931F932F933B
:1012B0003F934F935F936F937F938F939F93AF93DE
:1012C000BF93CF93EF93FF9380916A020E94A71080
:1012D000C82F20917102309172022F5F3F4F3093DF
:1012E0007202209371028091D702843618F085E053
:1012F00080936C0290916C02933079F018F49230E4
:1013000039F070C0943011F1953009F44AC06AC0C8
:10131000C11168C01092D70229C0C13009F062C063
:10132000E091D70281E08E0F8093D702F0E08091A8
:10133000710290917202E559FD4F808710927202FE
:101340001092710284E080936C024CC0C11114C0F1
:10135000E091D70281E08E0F8093D702F0E0809178
:10136000710290917202E559FD4F808710927202CE
:101370001092710283E0E7CF809171029091720226
:101380008536910578F185E080936C020E94F60E17
:1013900060936D0270936E0280936F02909370025F
:1013A00021C00E94F60E00916D0210916E022091F4
:1013B0006F0230917002601B710B820B930B693CC2
:1013C00071058105910540F01092D70210927202CA
:1013D0001092710282E0B7CFC11104C01092720264
:1013E00010927102FF91EF91CF91BF91AF919F91B8
:1013F0008F917F916F915F914F913F912F911F91AD
:101400000F910F900FBE0F901F90189560936A0276
:1014100080916A0260E00E94381080916A02809395
:101420006B020895F89482E08093B0008093B1003D
:1014300094E69093B3001092B20080937000789479
:101440001092D70280936C0208951F93CF93DF937D
:10145000FC01A681B7818C9186588D3558F4808522
:10146000918583309105A1F411968C911197815249
:10147000893118F080E090E044C012968C91885039
:101480008730C0F7158281E0808381E090E039C029
:10149000833491057CF311968C91119783548F328C
:1014A00048F782E090E040E050E0BA019D012F5FF4
:1014B0003F4FEC01CA0FDB1FC881C850C730D0F6C0
:1014C000E901C80FD91F18811751133180F476959F
:1014D000679557954795706802968234910549F74C
:1014E00080E285834183528363837483CCCFC88138
:1014F000C850C73008F0BECF769567955795479589
:10150000EBCFDF91CF911F9108950F931F93CF934E
:10151000DF93EC0183E792E09F838E838091D70273
:1015200090E09987888780916C02853081F4CE01A4
:101530000E94250A8C01CE010115110529F00E9497
:10154000120A01E010E005C00E94120A02C000E089
:1015500010E0C801DF91CF911F910F9108950F9373
:101560001F93CF93DF9300D01F92CDB7DEB78C01CE
:101570002B834A8369830E94FE0BF801349685E130
:10158000DF011D928A95E9F74A81F801418F2B818D
:10159000228F6981C8010F900F900F90DF91CF913A
:1015A0001F910F910C94FF0B25E04EE00C94AF0AB5
:1015B0001F93CF93DF93EC01162F0E94190C81111A
:1015C00016C066E0CE010E94900CCE010E94190C5C
:1015D000612F183008F067E06868CE010E94900C17
:1015E00088EB9BE0DF91CF911F910C944D0FDF9121
:1015F000CF911F910895CF93DF93EC01298D80E067
:1016000090E0821730F4FE01E80FF91F1482019672
:10161000F8CFCE010E94190C81110AC065E0CE01FD
:101620000E94900C88E893E1DF91CF910C944D0FCC
:10163000DF91CF9108950F931F93CF93DF93EC0128
:10164000162F042F898D6817D0F4CE010E94190C33
:10165000811115C063E0CE010E94900CCE010E9462
:10166000190C81110CC0612FCE010E94900C602FCB
:10167000CE01DF91CF911F910F910C94900CDF91CF
:10168000CF911F910F910895CF93DF93E62FF0E054
:10169000DC0159962C91599730E0E217F307C4F416
:1016A000242F30E05A96AC91B0E02A173B0784F41F
:1016B000E80FF91F548121E030E001C0220F4A9564
:1016C000EAF7522B54834481DF91CF910C941B0B8A
:1016D000DF91CF910895CF93DF93E62FF0E0DC0107
:1016E00059962C91599730E0E217F307CCF4242F48
:1016F00030E05A96AC91B0E02A173B078CF4E80F23
:10170000F91F548121E030E001C0220F4A95EAF729
:101710002095252324834481DF91CF910C941B0BCA
:10172000DF91CF9108950F931F93CF93DF931F9273
:10173000CDB7DEB78C0169830E94FE0B6981C801B9
:101740000F90DF91CF911F910F910C94FF0BCF93CE
:10175000DF93EC010E94190C81110FC062E0CE01F1
:101760000E94900CCE010E94470CCE010E94F80C02
:101770008C83CE010E94F80C8D83DF91CF91089568
:10178000FC01648170E080E090E00E94621420E03F
:1017900030E04FE753E40E94CC139B01AC0160E0C2
:1017A00070E080E89FE30E94671320E030EC4FE791
:1017B00054E40E9449150E943414CB010895FC01A1
:1017C000658170E080E090E00E94621420E030E0EB
:1017D0004FE753E40E94CC139B01AC0160E070E042
:1017E00080E89FE30E94671320E030EC4FE754E469
:1017F0000E9449150E943414CB0108950895DC011C
:101800006C9370E0FB01E656FF4FE4911196EC9368
:101810001197FB01E255FF4FE491F0E0EE0FFF1F3F
:10182000EE53FF4F8591949113969C938E9312974C
:101830000895FF920F931F93CF93DF938C01FC01C8
:10184000F180C281D38189818F2989839A818F2DEB
:10185000809589238A8380EE91E00E944D0F60E09D
:10186000F80180810E94381082E390E00E944D0FC1
:10187000C88184E690E00E944D0FFC2281E009F4CB
:1018800080E0DF91CF911F910F91FF900895AF926B
:10189000BF92CF92DF92EF92FF920F931F93CF935D
:1018A000DF938C01FC01B180C281D3810E94F60ECE
:1018B0006B017C018981AB2CA0948A2189838A8168
:1018C0008B298A8388818B2169F00E94F60E6C191E
:1018D0007D098E099F09653671058105910590F393
:1018E00080E013C088818B21E9F389818B2989836A
:1018F0008A818A218A838EE190E00E944D0F60E008
:10190000F80180810E94381081E0DF91CF911F9112
:101910000F91FF90EF90DF90CF90BF90AF90089520
:101920000F931F93CF93DF93EC01062F18E0F894E9
:1019300060E088810E94711061E088810E94381007
:1019400085E090E00E944D0F00FF02C061E001C001
:1019500060E088810E947110069578948EE190E095
:101960000E944D0F61E088810E94711085E090E037
:101970000E944D0F1150D9F660E08881DF91CF9120
:101980001F910F910C943810CF92DF92EF92FF923B
:101990001F93CF93DF93FC011181C281D3810E94F9
:1019A000F60E6B017C018881812359F00E94F60EAE
:1019B0006C197D098E099F096430710581059105B7
:1019C00090F3F8948EE190E00E944D0FC8817894D6
:1019D00088E290E00E944D0F1C2381E009F480E032
:1019E000DF91CF911F91FF90EF90DF90CF900895FE
:1019F0000F931F93CF93DF93EC0160E088810E94E7
:101A0000381008E010E0CE010E94C40C20E8829F4C
:101A1000C00111241695182B0150A9F7812FDF91D1
:101A2000CF911F910F910895CF93DF93EC010E9406
:101A3000190C81110FC064E0CE010E94900CCE0100
:101A40000E94190C811106C06C85CE01DF91CF91E7
:101A50000C94900CDF91CF9108950F931F93CF9327
:101A6000DF931F92CDB7DEB78C0169830E94FE0B16
:101A7000F801168217821086118612861386148644
:101A80006981C8010F90DF91CF911F910F910C9444
:101A9000FF0BCF92DF92EF92FF92CF93DF93EC0197
:101AA0000E94190C882339F0C12CD12C8AEFE82E22
:101AB00083E4F82E27C062E0CE010E94900CCE0194
:101AC0000E94470CCE010E94F80C8C83CE010E942C
:101AD000F80C8D838D816C8170E0782B80E090E034
:101AE0000E9460142CE53FE84CE851E40E94CC13BE
:101AF0006B017C0120E030E04AEF53E40E94451581
:101B0000181694F2C701B601DF91CF91FF90EF90C4
:101B1000DF90CF900895CF93DF93EC010E94190CD2
:101B2000811123C063E0CE010E94900CCE010E947F
:101B3000190C81111AC06E81CE010E94900C6F8128
:101B4000CE010E94900C6885CE010E94900C6985A0
:101B5000CE010E94900C6A85CE010E94900C6B858C
:101B6000CE01DF91CF910C94900CDF91CF9108952D
:101B7000FC016683478320870C948B0DFC016187F1
:101B8000428723870C948B0D0F93FC0160FF03C0E9
:101B900046832783008761FF03C04187228703872D
:101BA000637021F0CF010F910C948B0D0F9108956C
:101BB000FC012485216024870C94140DFC012485EC
:101BC0002E7F24870C94140DFC0124852260248729
:101BD0000C94140DFC0124852D7F24870C94140D86
:101BE0001F920F920FB60F9211242F933F934F9392
:101BF0005F936F937F938F939F93AF93BF93EF9375
:101C0000FF938091D90287FF05C010928500109242
:101C100084001AC02091D902332727FD3095809186
:101C2000D80290E0281739077CF48091D9029927CF
:101C300087FD9095FC01EE0FFF1FE80FF91FE6529C
:101C4000FD4F808187FD15C08091D9028F5F809301
:101C5000D9022091D902332727FD30958091D802EF
:101C600090E028173907BCF48091D9028C305CF1E0
:101C700012C08091D902992787FD9095FC01EE0F43
:101C8000FF1FE80FF91FE652FD4F808160E08F775C
:101C90000E947110D9CF80918400909185000496A4
:101CA00080349C4918F480E49CE905C0809184004C
:101CB00090918500049690938900809388008FEF1F
:101CC0008093D90238C020918400309185008091A2
:101CD000D902992787FD9095FC01EE0FFF1FE80FB1
:101CE000F91FE652FD4F81819281820F931F9093DD
:101CF0008900809388008091D902992787FD90956B
:101D0000FC01EE0FFF1FE80FF91FE652FD4F808127
:101D100087FF11C08091D902992787FD9095FC011A
:101D2000EE0FFF1FE80FF91FE652FD4F808161E0C3
:101D30008F770E947110FF91EF91BF91AF919F91AA
:101D40008F917F916F915F914F913F912F910F9064
:101D50000FBE0F901F9018951F920F920FB60F9203
:101D600011242F933F938F939F93AF93BF938091B1
:101D7000FF0290910003A0910103B0910203309102
:101D8000FE0223E0230F2D3720F40196A11DB11D83
:101D900005C026E8230F0296A11DB11D2093FE0267
:101DA0008093FF0290930003A0930103B09302037A
:101DB0008091030390910403A0910503B091060361
:101DC0000196A11DB11D8093030390930403A0937A
:101DD0000503B0930603BF91AF919F918F913F91FF
:101DE0002F910F900FBE0F901F9018952FB7F8945A
:101DF0006091FF02709100038091010390910203B2
:101E00002FBF08953FB7F894809103039091040386
:101E1000A0910503B091060326B5A89B05C02F3FEE
:101E200019F00196A11DB11D3FBF6627782F892F9C
:101E30009A2F620F711D811D911D42E0660F771F61
:101E4000881F991F4A95D1F70895CF92DF92EF929C
:101E5000FF92CF93DF936B017C010E94020FEB0195
:101E6000C114D104E104F10489F00E9466130E94B8
:101E7000020F6C1B7D0B683E734090F381E0C81A23
:101E8000D108E108F108C851DC4FEACFDF91CF91CA
:101E9000FF90EF90DF90CF9008958230910538F059
:101EA000880F991F880F991F05970197F1F70895DB
:101EB000789484B5826084BD84B5816084BD85B525
:101EC000826085BD85B5816085BDEEE6F0E08081EC
:101ED00081608083E1E8F0E010828081826080830D
:101EE000808181608083E0E8F0E080818160808390
:101EF000E1EBF0E0808184608083E0EBF0E08081C2
:101F000081608083EAE7F0E0808184608083808163
:101F1000826080838081816080838081806880830B
:101F20001092C10008958E3008F08E508770209175
:101F3000250190E4299F90011124822B80937C003D
:101F400080917A00806480937A0080917A0086FD87
:101F5000FCCF809178002091790090E0922B089539
:101F60001F93CF93DF93182FEB0161E00E9438108D
:101F7000209711F460E004C0CF3FD10539F461E04F
:101F8000812FDF91CF911F910C947110E12FF0E020
:101F9000EA57FF4FE491E330F9F048F4E130B9F04B
:101FA000E230A1F584B5806284BDC8BD34C0E7309D
:101FB000E9F0E83019F1E43049F580918000806261
:101FC00080938000D0938B00C0938A0024C084B596
:101FD000806884BDC7BD1FC08091800080688093E9
:101FE0008000D0938900C093880015C08091B00014
:101FF00080688093B000C093B3000DC08091B000A2
:1020000080628093B000C093B40005C0C038D10591
:102010000CF0B5CFAFCFDF91CF911F9108958330F2
:1020200081F028F4813099F08230A1F00895873052
:10203000A9F08830B9F08430D1F4809180008F7D90
:1020400003C0809180008F7780938000089584B5CD
:102050008F7702C084B58F7D84BD08958091B000D4
:102060008F7703C08091B0008F7D8093B00008957A
:10207000CF93DF9390E0FC01E656FF4F2491FC01E3
:10208000E255FF4F8491882349F190E0880F991F12
:10209000FC01EA52FF4FA591B49184539F4FFC017C
:1020A000C591D4919FB7611108C0F8948C91209587
:1020B00082238C93888182230AC0623051F4F89481
:1020C0008C91322F309583238C938881822B888347
:1020D00004C0F8948C91822B8C939FBFDF91CF9199
:1020E00008950F931F93CF93DF931F92CDB7DEB761
:1020F000282F30E0F901EA57FF4F8491F901E656A5
:10210000FF4F1491F901E255FF4F04910023C9F0EC
:10211000882321F069830E940F106981E02FF0E08D
:10212000EE0FFF1FE453FF4FA591B4919FB7F894B2
:102130008C91611103C01095812301C0812B8C9378
:102140009FBF0F90DF91CF911F910F910895CF9373
:10215000DF93282F30E0F901EA57FF4F8491F9010E
:10216000E656FF4FD491F901E255FF4FC491CC23BD
:1021700091F081110E940F10EC2FF0E0EE0FFF1F85
:10218000EE53FF4FA591B4912C912D2381E090E067
:1021900021F480E002C080E090E0DF91CF910895CB
:1021A000FC01818D228D90E0805C9F4F821B910904
:1021B0008F7399270895FC01918D828D981731F0C6
:1021C000828DE80FF11D858D90E008958FEF9FEFD0
:1021D0000895FC01918D828D981761F0828DDF0149
:1021E000A80FB11D5D968C91928D9F5F9F73928F0A
:1021F00090E008958FEF9FEF08958DE692E1892B8F
:1022000049F080E090E0892B29F00E946D12811145
:102210000C9400000895FC01848DDF01A80FB11D0E
:10222000A35ABF4F2C91848D90E001968F7399270C
:10223000848FA689B7892C93A089B1898C918064F9
:102240008C93938D848D981306C00288F389E02DBA
:1022500080818F7D80830895CF93DF93EC01888DFB
:102260008823C9F0EA89FB89808185FD05C0A8899A
:10227000B9898C9186FD0FC00FB607FCF5CF808120
:1022800085FFF2CFA889B9898C9185FFEDCFCE016A
:102290000E940B11E7CFDF91CF910895CF92DF928B
:1022A000FF920F931F93CF93DF931F92CDB7DEB7AB
:1022B0006C0181E0D60158968C9358975B969C915F
:1022C0005B975C968C915C97981307C05096ED9144
:1022D000FC915197808185FD2EC0F601038D10E0A1
:1022E0000F5F1F4F0F731127F02EF601848DF81228
:1022F00011C00FB607FCF9CFD6015096ED91FC91B5
:102300005197808185FFF1CFC60169830E940B112F
:102310006981EBCF838DE80FF11DE35AFF4F608396
:10232000D6015B960C935B975296ED91FC91539777
:10233000808180620CC0D6015696ED91FC91579732
:1023400060835096ED91FC915197808180648083E9
:1023500081E090E00F90DF91CF911F910F91FF905E
:10236000DF90CF900895BF92CF92DF92EF92FF92CD
:10237000CF93DF93EC016A017B01B22EE889F989E2
:1023800082E08083411581EE580761057105A1F057
:1023900060E079E08DE390E0A70196010E941016BD
:1023A000215031094109510956954795379527958F
:1023B000211580E1380798F0E889F989108260E8F2
:1023C00074E88EE190E0A70196010E94101621505A
:1023D0003109410951095695479537952795EC855F
:1023E000FD853083EE85FF852083188EEC89FD897D
:1023F000B082EA89FB89808180618083EA89FB89D8
:10240000808188608083EA89FB89808180688083FD
:10241000EA89FB8980818F7D8083DF91CF91FF9056
:10242000EF90DF90CF90BF9008951F920F920FB65C
:102430000F9211242F938F939F93EF93FF93E0912B
:102440001703F09118038081E0911D03F0911E03A2
:1024500082FD12C09081809120038F5F8F73209145
:102460002103821751F0E0912003F0E0E95FFC4F77
:10247000958F8093200301C08081FF91EF919F9100
:102480008F912F910F900FBE0F901F9018951F9254
:102490000F920FB60F9211242F933F934F935F9398
:1024A0006F937F938F939F93AF93BF93EF93FF931C
:1024B00087E093E00E940B11FF91EF91BF91AF91E4
:1024C0009F918F917F916F915F914F913F912F914C
:1024D0000F900FBE0F901F90189587E093E00E9419
:1024E000D01021E0892B09F420E0822F089510926A
:1024F0000A031092090388EE93E0A0E0B0E0809315
:102500000B0390930C03A0930D03B0930E0388E587
:1025100091E0909308038093070385EC90E09093FB
:1025200014038093130384EC90E09093160380933C
:10253000150380EC90E0909318038093170381ECCF
:1025400090E090931A038093190382EC90E09093AB
:102550001C0380931B0386EC90E090931E038093F2
:102560001D03109220031092210310922203109257
:102570002303089508950E94580F0E94BA120E94E2
:102580009A03CDEFD0E10E9445072097E1F30E9426
:10259000FD10F9CFCF92DF92EF92FF920F931F932E
:1025A000CF93DF936C017A01EB01E60EF71E00E09A
:1025B00010E0CE15DF0561F06991D601ED91FC9137
:1025C0000190F081E02DC6010995080F191FF1CF88
:1025D000C801DF91CF911F910F91FF90EF90DF9095
:1025E000CF9008956115710581F0DB010D900020F9
:1025F000E9F7AD0141505109461B570BDC01ED9144
:10260000FC910280F381E02D099480E090E0089530
:1026100064E671E00C94F2120F931F93CF93DF9353
:10262000EC010E94F2128C01CE010E940813800F6F
:10263000911FDF91CF911F910F9108956115710541
:102640008105910511F00C94D9160895CF93DF936D
:1026500000D000D0CDB7DEB79B01AC01611571058C
:102660008105910569F069833A834B835C830E94FD
:10267000D41629813A814B815C810E94321603C0B5
:1026800060E070E0CB010F900F900F900F90DF9102
:10269000CF910895CF92DF92EF92FF926B017C0170
:1026A000621773078407950764F4CA01B9016C19AE
:1026B0007D098E099F090E9426136C0D7D1D8E1DBC
:1026C0009F1DFF90EF90DF90CF9008950895505890
:1026D000BB27AA270ED09FC190D130F095D120F012
:1026E00031F49F3F11F41EF460C10EF4E095E7FB56
:1026F00048C1E92FA1D180F3BA1762077307840795
:10270000950718F071F49EF5B9C10EF4E0950B2E03
:10271000BA2FA02D0B01B90190010C01CA01A00133
:102720001124FF27591B99F0593F50F4503E68F18E
:102730001A16F040A22F232F342F4427585FF3CFCF
:10274000469537952795A795F0405395C9F77EF4A0
:102750001F16BA0B620B730B840BBAF09150A1F0E9
:10276000FF0FBB1F661F771F881FC2F70EC0BA0F6F
:10277000621F731F841F48F4879577956795B795F7
:10278000F7959E3F08F0B3CF9395880F08F09927EF
:10279000EE0F9795879508950CD03DC135D140F047
:1027A0002CD130F021F45F3F19F0EBC0511167C11B
:1027B000FCC042D198F39923C9F35523B1F3951B7B
:1027C000550BBB27AA2762177307840738F09F5F52
:1027D0005F4F220F331F441FAA1FA9F333D00E2EC1
:1027E0003AF0E0E830D091505040E695001CCAF72E
:1027F00029D0FE2F27D0660F771F881FBB1F2617F3
:1028000037074807AB07B0E809F0BB0B802DBF01C5
:10281000FF2793585F4F2AF09E3F510568F0B1C0E3
:102820002EC15F3FECF3983EDCF386957795679574
:10283000B795F7959F5FC9F7880F911D9695879576
:1028400097F90895E1E0660F771F881FBB1F621795
:1028500073078407BA0720F0621B730B840BBA0B53
:10286000EE1F88F7E0950895EFD088F09F5790F01D
:10287000B92F9927B751A0F0D1F0660F771F881FA5
:10288000991F1AF0BA95C9F712C0B13081F0F6D08D
:10289000B1E00895F3C0672F782F8827B85F39F02B
:1028A000B93FCCF3869577956795B395D9F73EF404
:1028B00090958095709561957F4F8F4F9F4F0895AC
:1028C000E89409C097FB3EF49095809570956195CA
:1028D0007F4F8F4F9F4F9923A9F0F92F96E9BB2780
:1028E0009395F695879577956795B795F111F8CFFC
:1028F000FAF4BB0F11F460FF1BC06F5F7F4F8F4F67
:102900009F4F16C0882311F096E911C0772321F05C
:102910009EE8872F762F05C0662371F096E8862FF4
:1029200070E060E02AF09A95660F771F881FDAF74B
:10293000880F9695879597F90895990F0008550F78
:10294000AA0BE0E8FEEF16161706E807F907C0F035
:1029500012161306E407F50798F0621B730B840B3D
:10296000950B39F40A2661F0232B242B252B21F417
:1029700008950A2609F4A140A6958FEF811D811DB7
:10298000089597F99F6780E870E060E008959F3FA1
:1029900031F0915020F4879577956795B795880F1A
:1029A000911D9695879597F908959FEF80EC08956E
:1029B000DF93CF931F930F93FF92EF92DF927B01F0
:1029C0008C01689405C0DA2EEF016FD0FE01E89407
:1029D000A5912591359145915591AEF3EF0189DE91
:1029E000FE019701A801DA9479F7DF90EF90FF904C
:1029F0000F911F91CF91DF91089500240A9416162C
:102A0000170618060906089500240A9412161306DC
:102A1000140605060895092E0394000C11F488236A
:102A200052F0BB0F40F4BF2B11F460FF04C06F5F86
:102A30007F4F8F4F9F4F089557FD9058440F551F5C
:102A400059F05F3F71F04795880F97FB991F61F030
:102A50009F3F79F087950895121613061406551FA7
:102A6000F2CF4695F1DF08C0161617061806991F13
:102A7000F1CF86957105610508940895E894BB2708
:102A800066277727CB0197F9089557DF08F48FEF72
:102A900008950BD0C0CFB1DF28F0B6DF18F0952332
:102AA00009F06FCF82CF1124EACFC6DFA0F3959F44
:102AB000D1F3950F50E0551F629FF001729FBB2725
:102AC000F00DB11D639FAA27F00DB11DAA1F649FD1
:102AD0006627B00DA11D661F829F2227B00DA11D84
:102AE000621F739FB00DA11D621F839FA00D611D0A
:102AF000221F749F3327A00D611D231F849F600D2B
:102B0000211D822F762F6A2F11249F5750408AF063
:102B1000E1F088234AF0EE0FFF1FBB1F661F771FEF
:102B2000881F91505040A9F79E3F510570F029CF62
:102B3000A6CF5F3FECF3983EDCF3869577956795DB
:102B4000B795F795E7959F5FC1F7FE2B880F911D0D
:102B50009695879597F908959F9305D00F9007FC58
:102B6000EE5F28C022CF70DFE8F3E894E0E0BB27F7
:102B70009F57F0F02AED3FE049EC06C0EE0FBB0F87
:102B8000661F771F881F28F0B23A62077307840711
:102B900028F0B25A620B730B840BE3959A9572F787
:102BA000803830F49A95BB0F661F771F881FD2F7C5
:102BB0009048EFCEEF93E0FF06C0A2EA2AED3FE097
:102BC00049EC5FEB96DD27DF0F90039401FC9058F2
:102BD000E8E6F0E000C09F938F937F936F93FF939D
:102BE000EF939B01AC0155DFEF91FF91E1DE2F9157
:102BF0003F914F915F914DCF97FB072E16F40094B4
:102C000007D077FD09D00E945C1607FC05D03EF482
:102C1000909581959F4F0895709561957F4F089588
:102C2000A1E21A2EAA1BBB1BFD010DC0AA1FBB1FD0
:102C3000EE1FFF1FA217B307E407F50720F0A21B42
:102C4000B30BE40BF50B661F771F881F991F1A94AF
:102C500069F760957095809590959B01AC01BD01D9
:102C6000CF010895052E97FB1EF400940E9449168B
:102C700057FD07D00E94101607FC03D04EF40C94A9
:102C8000491650954095309521953F4F4F4F5F4FD6
:102C9000089590958095709561957F4F8F4F9F4FC8
:102CA00008950E947616A59F900DB49F900DA49F45
:102CB000800D911D11240895AA1BBB1B51E107C073
:102CC000AA1FBB1FA617B70710F0A61BB70B881FBC
:102CD000991F5A95A9F780959095BC01CD0108954B
:102CE000EE0FFF1F0590F491E02D0994A29FB00113
:102CF000B39FC001A39F700D811D1124911DB29F30
:102D0000700D811D1124911D08958F929F92AF9295
:102D1000BF92CF92DF92EF92FF92CF93DF93EC01BD
:102D2000688179818A819B81611571058105910591
:102D300021F464E279ED8BE597E02DE133EF41E09A
:102D400050E00E94321649015A019B01AC01A7EAEA
:102D5000B1E40E9451166B017C01ACEEB4EFA50109
:102D600094010E940B17C60ED71EE81EF91EF7FE2F
:102D700006C081E0C81AD108E10880E8F80AC882D4
:102D8000D982EA82FB82C701B6019F77DF91CF919A
:102D9000FF90EF90DF90CF90BF90AF909F908F907B
:102DA00008950E948516089586E091E00E94851698
:102DB0000895609306017093070180930801909332
:102DC00009010895FC0188279927E8942191203270
:102DD000E9F3293010F02E30C8F32B3241F02D32B8
:102DE00039F4689404C00E940017820F911D21914C
:102DF00020532A30C0F31EF4909581959F4F08957B
:102E00007AE0979F902D879F802D910D1124089532
:102E1000B7FF0C9451160E945116821B930B089514
:042E2000F894FFCF54
:102E24000000A403800001000000FAFF0000000A73
:102E3400090506000000000000000000000000007A
:102E44000000000000015645520077656565626F19
:102E5400746D696E695F415F31004C4641004F4BB0
:102E6400004C46004C4F00425A00524742004A531D
:102E740000495200000000004E11CA12D010E9109F
:102E8400DB102C110D0A006E616E00696E66006F16
:062E94007666002E00002E
:00000001FF
