:100000000C949F000C94C7000C94C7000C94C7007C
:100010000C94C7000C94C7000C94C7000C9497195B
:100020000C94C7000C94C7000C94C7000C940C29C6
:100030000C94C7000C94C7000C94C7000C94C70024
:100040000C94002B0C94C7000C94692E0C949B2EDE
:100050000C94C7000C94C7000C94C7000C94C70004
:100060000C94C7000C94C700084AD73B3BCE016EE6
:1000700084BCBFFDC12F3D6C74319ABD56833DDAFF
:100080003D00C77F11BED9E4BB4C3E916BAAAABE0E
:10009000000000803F000000000800020100000393
:1000A0000407000000000000000001020408102006
:1000B00040800102040810200102040810200404FA
:1000C0000404040404040202020202020303030300
:1000D00003030000000023002600290000000000A8
:1000E000250028002B0000000000240027002A0023
:1000F0006364696E6F70737578585B004E414E494A
:100100004E495459494E46CDCCCC3D0AD7233C17D5
:10011000B7D13877CC2B329595E6241FB14F0A0022
:100120000020410000C84200401C4620BCBE4CCA12
:100130001B0E5AAEC59D7400B70DCB2E610E112457
:100140001FBECFEFD8E0DEBFCDBF11E0A0E0B1E031
:10015000E8E7F8E702C005900D92A03AB107D9F799
:1001600024E0A0EAB1E001C01D92A63CB207E1F78D
:1001700011E0CCE3D1E004C02297FE010E94B1352A
:10018000C833D107C9F70E940F2F0C942F3C0C9451
:10019000000063E271E08DE194E00C94672F61E070
:1001A00089E293E00E94D51460E070E089E293E078
:1001B0000E941B1562E089E293E00E94D51460E082
:1001C00070E089E293E00C941B15CF92DF92EF92DE
:1001D000FF920F931F93CF93DF93C2E3D0E000E031
:1001E00010E084E10E94E72B080F191F2197C9F73F
:1001F000B80180E090E00E94173323ED36EF4FEA1C
:100200005BE30E944C3420E030E048E452E40E947A
:100210007E326B017C0120E030E040E450E40E943B
:100220007A3287FF06C0C12CD12C90E4E92EFE2C37
:1002300011C023E333E343E850E4C701B6010E9451
:10024000413418163CF483E3C82EDC2C83E8E82EF6
:1002500080E4F82E20E030E040E450E4C701B6012D
:100260000E94B3312AE939E949E95FE30E947E320D
:1002700020E030E048EC52E40E944C340E94AF345D
:100280000E94E6324AE050E08DE194E0DF91CF91A8
:100290001F910F91FF90EF90DF90CF900C941C3046
:1002A00081E0809380008BE0809381000895CF935C
:1002B000DF93E2E2F2E0C0E0D0E04191242F30E0B1
:1002C00028173907C9F0411110C0FE01EE5DFD4F3E
:1002D00080839E01220F331F2C0F3D1FBC01C901DB
:1002E0008A5D9D4F0E94622A07C02196C430D105C5
:1002F00021F780E090E001C0CE01DF91CF91089519
:10030000EF92FF920F931F93CF93DF93EB01FC01CA
:100310006081613401F5FF92EF921F930F933F9339
:100320002F935F934F93DF93CF932FE331E03F936E
:100330002F939F938F930E944237888199810E96C5
:10034000998388838DB79EB70E960FB6F8949EBF9B
:100350000FBE8DBF1AC0FF92EF921F930F933F9372
:100360002F935F934F93DF93CF9320E431E03F933C
:100370002F939F938F930E9442378DB79EB70E960F
:100380000FB6F8949EBF0FBE8DBFDF91CF911F9126
:100390000F91FF90EF900895DC01ED91FC91119782
:1003A0009F012F5F3F4F2D933C9320812032A1F777
:1003B0000895EF92FF920F931F93CF93DF93CDB7E2
:1003C000DEB72C970FB6F894DEBF0FBECDBF9C876B
:1003D0008B87CE010B960E94CC01CE0101967C0149
:1003E0008E010D5F1F4F9E012B5F3F4FAE01495F96
:1003F0005F4FBE01675F7F4F8B859C850E948001A8
:10040000698589EF92E00E94BF2509812B814D818A
:100410006F8189EF92E00E94032689EF92E00E94AB
:1004200055262C960FB6F894DEBF0FBECDBFDF91D8
:10043000CF911F910F91FF90EF900895EF92FF924F
:100440000F931F93CF93DF93CDB7DEB72C970FB6E3
:10045000F894DEBF0FBECDBF9C878B87CE010B9675
:100460000E94CC01CE0101967C018E010D5F1F4FD1
:100470009E012B5F3F4FAE01495F5F4FBE01675F3B
:100480007F4F8B859C850E948001698586EE92E076
:100490000E94952609812B814D816F8186EE92E025
:1004A0000E94972686EE92E00E94CA262C960FB6EE
:1004B000F894DEBF0FBECDBFDF91CF911F910F919A
:1004C000FF90EF900895CF93DF93EC010E94CC0151
:1004D00088819981DF91CF910C94EF36CF93DF9390
:1004E00000D0CDB7DEB79A838983CE0101960E94F2
:1004F0006302682F89E293E00E94D514CE01019631
:100500000E946302BC0189E293E00E941B150F90D8
:100510000F90DF91CF9108950F931F93CF93DF93A7
:1005200000D0CDB7DEB79A838983CE0101960E94B1
:1005300063028C01CE0101960E9463020331110512
:1005400061F00231110561F00031110561F00F30E9
:100550001105B9F423E030E008C020E030E005C028
:1005600021E030E002C022E030E066E0629FA001BE
:10057000639F500D1124BC01CA018F5E9C4F0E94E5
:1005800065100F900F90DF91CF911F910F910895FB
:10059000EF92FF920F931F93CF93DF9300D0CDB7CD
:1005A000DEB79A838983CE0101960E9463027C01A3
:1005B000CE0101960E9463028C01C7010E9457017F
:1005C000053B110558F49C01220F331F280F391FDA
:1005D000B801C9018A5D9D4F0E949B2A0F900F9020
:1005E000DF91CF911F910F91FF90EF900895CF93DE
:1005F000DF9300D0CDB7DEB79A83898362E089E2CA
:1006000093E00E94D514CE0101960E946302BC01C2
:1006100089E293E00E941B1561E089E293E00E9469
:10062000D514CE0101960E946302BC0189E293E0D9
:100630000E941B150F900F90DF91CF9108951F938B
:10064000CF93DF9300D0CDB7DEB79A838983CE01F5
:1006500001960E946302182F60E00E948C2C812F6B
:100660000E94E72B4AE050E0BC018DE194E00E943B
:100670001C300F900F90DF91CF911F9108951F9321
:10068000CF93DF9300D0CDB7DEB79A838983CE01B5
:1006900001960E946302182F60E00E948C2C812F2B
:1006A0000E94E72B4AE050E0BC018DE194E00E94FB
:1006B0001C300F900F90DF91CF911F910895CF9331
:1006C000DF9300D0CDB7DEB79A838983CE01019640
:1006D0000E946302682F82E093E00E94182782E064
:1006E00093E00E941A27AB01BC0122E030E08DE1CB
:1006F00094E00E9459310F900F90DF91CF910895AF
:100700000F931F93CF93DF9300D0CDB7DEB79A83BB
:100710008983CE0101960E9463028C01CE0101966D
:100720000E9463029C01442737FD4095542FB80175
:1007300080EE92E00E948A130F900F90DF91CF918C
:100740001F910F910895CF93DF9300D0CDB7DEB7FF
:100750009A838983CE0101960E946302682F85E502
:1007600093E00E94352885E593E00E943728AB018D
:10077000BC0122E030E08DE194E00E9459310F90FD
:100780000F90DF91CF910895CF93DF9300D0CDB735
:10079000DEB79A838983CE0101960E946302682F97
:1007A00082E693E00E94F22682E693E00E94F7261A
:1007B0004AE050E0BC018DE194E00E9458300F9077
:1007C0000F90DF91CF9108950F931F93CF93DF93F5
:1007D00000D000D01F92CDB7DEB79A838983CE01B7
:1007E00001960E946302682FCE0101966D830E94DC
:1007F0006302182FCE0101960E946302482FCE019A
:1008000001964C830E946302282FCE0101962B8310
:100810000E946302082F6D8183E693E00E94581BBB
:100820002B814C81612F83E693E00E94A31B0F90E4
:100830000F900F900F900F90DF91CF911F910F911C
:1008400008950F931F93CF93DF9300D000D01F9292
:10085000CDB7DEB79A838983CE0101960E946302E9
:10086000682FCE0101966D830E946302182FCE017E
:1008700001960E946302482FCE0101964C830E948C
:100880006302282FCE0101962B830E946302082F5A
:100890006D8185E593E00E9435282B814C81612F85
:1008A00085E593E00E94B2280F900F900F900F9073
:1008B0000F90DF91CF911F910F910895FF920F93A9
:1008C0001F93CF93DF9300D01F92CDB7DEB79A83EB
:1008D0008983CE0101960E946302682FCE010196A2
:1008E0006B830E946302F82ECE0101960E94630280
:1008F0008C016B8183E693E00E94581B41E0012B41
:1009000009F440E06F2D83E693E00E94E91B0F900D
:100910000F900F90DF91CF911F910F91FF9008954D
:10092000FF920F931F93CF93DF9300D01F92CDB709
:10093000DEB79A838983CE0101960E946302682FF5
:10094000CE0101966B830E946302F82ECE010196C0
:100950000E9463028C016B8185E593E00E9435283B
:1009600041E0012B09F440E06F2D85E593E00E9402
:10097000C6280F900F900F90DF91CF911F910F918C
:10098000FF9008951F93CF93DF9300D01F92CDB7B0
:10099000DEB79A838983CE0101960E946302682F95
:1009A000CE0101966B830E946302182F6B818FE446
:1009B00093E00E945022612F8FE493E00E94A922CD
:1009C0004AE050E0BC018DE194E00E9458300F9065
:1009D0000F900F90DF91CF911F910895FF920F9389
:1009E0001F93CF93DF9300D000D0CDB7DEB79A83AB
:1009F0008983CE0101960E946302682FCE01019681
:100A00006C830E946302F82ECE0101960E9463025D
:100A1000482FCE0101964B830E9463028C016C81AA
:100A200084E393E00E94EC1C21E04B81012B09F44C
:100A300020E06F2D84E393E00E949D1E0F900F90A5
:100A40000F900F90DF91CF911F910F91FF9008951C
:100A50001F93CF93DF9300D000D0CDB7DEB79A833A
:100A60008983CE0101960E946302682FCE01019610
:100A70006C830E946302182FCE0101960E946302CC
:100A8000482FCE0101964B830E94CC016C8184E3F8
:100A900093E00E94EC1C29813A814B81612F84E311
:100AA00093E00E94431E0F900F900F900F90DF91E4
:100AB000CF911F9108959F92AF92BF92CF92DF92F4
:100AC000EF92FF920F931F93CF93DF93CDB7DEB7D3
:100AD00060970FB6F894DEBF0FBECDBF988B8F879F
:100AE0008E01015F1F4FC8010E946302982EC8014A
:100AF0000E946302D82EC8010E946302C82ECE0154
:100B000001967C015C01C8010E946302F701819398
:100B10007F01E017F107B9F7692D84E393E00E94A4
:100B2000EC1C95014C2D6D2D84E393E00E940E1D6D
:100B300060960FB6F894DEBF0FBECDBFDF91CF91A8
:100B40001F910F91FF90EF90DF90CF90BF90AF90EB
:100B50009F9008951F93CF93DF9300D01F92CDB73E
:100B6000DEB79A838983CE0101960E946302682FC3
:100B7000CE0101966B830E946302182FCE0101966D
:100B80000E946302482F6B8184E393E04B830E94B1
:100B9000EC1C4B81612F84E393E00E94C31D0F90F6
:100BA0000F900F90DF91CF911F9108951F93CF93D6
:100BB000DF9300D01F92CDB7DEB79A838983CE0131
:100BC00001960E946302682FCE0101966B830E94FA
:100BD0006302182FCE0101960E946302482F6B8199
:100BE00084E393E04B830E94EC1C4B81612F84E3F0
:100BF00093E00E94EA1D0F900F900F90DF91CF912C
:100C00001F910895CF93DF9300D0CDB7DEB79A83BD
:100C10008983CE0101960E946302682F84E393E0EA
:100C20000E94EC1C84E393E00E94EE1C0F900F9056
:100C3000DF91CF9108951F93CF93DF9300D0CDB76D
:100C4000DEB79A838983CE0101960E946302182F32
:100C5000CE0101960E946302682F812F0E94C52C4D
:100C60000F900F90DF91CF911F9108950F931F93D5
:100C7000CF93DF9300D01F92CDB7DEB79A838983DD
:100C8000CE0101960E946302682FCE0101966B830C
:100C90000E9463028C016B818FEC92E00E946619C6
:100CA0008FEC92E00E94681960E08FEC92E0012BDB
:100CB00019F40E948C1902C00E9481194AE050E088
:100CC000BC018DE194E00E9458300F900F900F907E
:100CD000DF91CF911F910F910895CF93DF9300D0B3
:100CE000CDB7DEB79A838983CE0101960E94630255
:100CF0000E94E72B4AE050E0BC018DE194E00E94A5
:100D00001C300F900F90DF91CF9108950F931F9398
:100D1000CF93DF9300D0CDB7DEB79A838983CE011E
:100D200001960E946302182FCE0101960E94630271
:100D3000082F61E0812F0E948C2C602F812F0E9450
:100D4000C52C0F900F90DF91CF911F910F910895B7
:100D5000CF93DF9300D0CDB7DEB79A838983CE01DE
:100D600001960E946302682F81EE92E00E940425A2
:100D700081EE92E00E9406254AE050E0682F8DE166
:100D800094E00E9441300F900F90DF91CF91089531
:100D9000FF920F931F93CF93DF9300D01F92CDB795
:100DA000DEB79A838983CE0101960E946302682F81
:100DB000CE0101966B830E946302F82ECE0101964C
:100DC0000E9463028C016B8188EB92E00E94CF103D
:100DD00041E0012B09F440E06F2D88EB92E00E9486
:100DE000D1100F900F900F90DF91CF911F910F9125
:100DF000FF900895CF93DF9300D0CDB7DEB79A83ED
:100E00008983CE0101960E946302682F87EA92E0EF
:100E10000E94A31387EA92E00E9407140F900F909C
:100E2000DF91CF9108950F931F93CF93DF9300D05D
:100E30001F92CDB7DEB79A838983CE0101960E94B7
:100E40006302682FCE0101966B830E9463028C01BE
:100E50006B8187EA92E00E94A31361E0012B09F401
:100E600060E087EA92E00E941B140F900F900F90B1
:100E7000DF91CF911F910F9108951F93CF93DF932F
:100E800000D01F92CDB7DEB79A838983CE01019639
:100E90000E946302682FCE0101966B830E94630259
:100EA000182F6B8187EA92E00E94A313612F87EAD3
:100EB00092E00E9438144AE050E0BC018DE194E0D9
:100EC0000E9458300F900F900F90DF91CF911F919B
:100ED00008951F93CF93DF9300D01F92CDB7DEB755
:100EE0009A838983CE0101960E946302682FCE0106
:100EF00001966B830E946302182F6B8180EA92E057
:100F00000E942B16612F80EA92E00E944A164AE066
:100F100050E0682F8DE194E00E9441300F900F90D7
:100F20000F90DF91CF911F9108951F93CF93DF937F
:100F300000D01F92CDB7DEB79A838983CE01019688
:100F40000E946302682FCE0101966B830E946302A8
:100F5000182F6B8188E992E00E94231C612F88E999
:100F600092E00E94421C4AE050E0682F8DE194E03C
:100F70000E9441300F900F900F90DF91CF911F9101
:100F800008951F93CF93DF9300D01F92CDB7DEB7A4
:100F90009A838983CE0101960E946302682FCE0155
:100FA00001966B830E946302182F6B8188E892E0A0
:100FB0000E947714612F88E892E00E94B4144AE0FE
:100FC00050E0BC018DE194E00E9458300F900F90EA
:100FD0000F90DF91CF911F9108951F93CF93DF93CF
:100FE00000D01F92CDB7DEB79A838983CE010196D8
:100FF0000E946302682FCE0101966B830E946302F8
:10100000182F6B8188E492E00E94A816612F88E473
:1010100092E00E940D19AB01BC0122E030E08DE1AD
:1010200094E00E9459310F900F900F90DF91CF9173
:101030001F9108950F931F93CF93DF9300D01F92BA
:10104000CDB7DEB79A838983CE0101960E946302F1
:10105000682FCE0101966B830E9463028C016B8125
:101060008FE392E00E94322561E0012B09F460E0F9
:101070008FE392E00E9434250F900F900F90DF9144
:10108000CF911F910F9108950F931F93CF93DF93EB
:1010900000D01F92CDB7DEB79A838983CE01019627
:1010A0000E946302682FCE0101966B830E94630247
:1010B0008C016B818BE392E00E94E92861E0012BB7
:1010C00009F460E08BE392E00E94EB280F900F9010
:1010D0000F90DF91CF911F910F910895CF93DF93E0
:1010E00000D0CDB7DEB79A838983CE0101960E94E6
:1010F0006302682F86E392E00E94DA2286E392E0A0
:101100000E9456230F900F90DF91CF910895CF93B7
:10111000DF9300D0CDB7DEB79A838983CE010196E5
:101120000E946302682F86E392E00E94DA2286E33F
:1011300092E00E9440230F900F90DF91CF9108958D
:10114000CF93DF9300D0CDB7DEB79A838983CE01EA
:1011500001960E946302682F86E392E00E94DA22E1
:1011600086E392E00E942A230F900F90DF91CF91A7
:1011700008951F93CF93DF9300D01F92CDB7DEB7B2
:101180009A838983CE0101960E946302682FCE0163
:1011900001966B830E946302182F6B8186E392E0B5
:1011A0000E94DA22612F86E392E00E946C230F9066
:1011B0000F900F90DF91CF911F9108950F931F9380
:1011C000CF93DF9300D01F92CDB7DEB79A83898388
:1011D000CE0101960E946302682FCE0101966B83B7
:1011E0000E9463028C016B8186E392E00E94DA2206
:1011F000B80186E392E00E94DC220F900F900F90DE
:10120000DF91CF911F910F9108951F93CF93DF939B
:1012100000D01F92CDB7DEB79A838983CE010196A5
:101220000E946302682FCE0101966B830E946302C5
:10123000182F6B8186E392E00E94DA22612F86E309
:1012400092E00E9407230F900F900F90DF91CF91B3
:101250001F910895CF93DF9300D0CDB7DEB79A8367
:101260008983CE0101960E946302682F82E392E097
:101270000E94741C82E392E00E94761C4AE050E0D7
:10128000BC018DE194E00E9458300F900F90DF91E7
:10129000CF9108950F931F93CF93DF9300D01F92A8
:1012A000CDB7DEB79A838983CE0101960E9463028F
:1012B000682FCE0101966B830E9463028C016B81C3
:1012C00082E392E00E94741C61E0012B09F460E06B
:1012D00082E392E00E94A21C0F900F900F90DF918A
:1012E000CF911F910F910895CF93DF93EC010E944E
:1012F000CC0188819981DF91CF910C94EB36CF920C
:10130000DF92EF92FF921F93CF93DF9300D0CDB780
:10131000DEB79A838983CE0101960E946302182F5B
:10132000CE0101960E9474096B017C01612F84E358
:1013300093E00E94EC1CB701A60184E393E00E94B5
:10134000DC1E0F900F90DF91CF911F91FF90EF90D7
:10135000DF90CF900895CF92DF92EF92FF921F938C
:10136000CF93DF9300D0CDB7DEB79A838983CE01C8
:1013700001960E946302182FCE0101960E94740903
:101380006B017C01612F8DEB92E00E942F11B70160
:10139000A6018DEB92E00E9472110F900F90DF91E9
:1013A000CF911F91FF90EF90DF90CF900895882309
:1013B00019F060E571E002C065E571E08DE194E04F
:1013C0000C94672FCF93DF9300D0CDB7DEB79A830D
:1013D0008983CE0101960E946302682F85ED92E019
:1013E0000E94591ACE0101960E946302682F85ED72
:1013F00092E00E94691A0E94D7090F900F90DF9126
:10140000CF9108951F93CF93DF9300D0CDB7DEB770
:101410009A838983CE0101960E946302182F60E0AF
:101420000E948C2C812F0E94FB2C21E0892B09F03B
:1014300020E0822F0E94D7090F900F90DF91CF916B
:101440001F910895CF93DF9300D0CDB7DEB79A8375
:101450008983CE0101960E946302682F83E693E0A0
:101460000E94581B83E693E00E945A1B91E0811171
:1014700001C090E0892F0E94D7090F900F90DF9153
:10148000CF910895CF93DF9300D0CDB7DEB79A8385
:101490008983CE0101960E946302682F8AEC92E054
:1014A0000E94E6278AEC92E00E94E82791E08111F1
:1014B00001C090E0892F0E94D7090F900F90DF9113
:1014C000CF9108950F931F93CF93DF9300D01F9276
:1014D000CDB7DEB79A838983CE0101960E9463025D
:1014E000682FCE0101966B830E9463028C016B8191
:1014F00088EB92E00E94CF1088EB92E00E940811E6
:10150000282F30E081E02017310709F080E00E94A9
:10151000D7090F900F900F90DF91CF911F910F91EE
:101520000895CF93DF9300D0CDB7DEB79A83898338
:10153000CE0101960E946302682F83EB92E00E9425
:10154000D62483EB92E00E94D82491E0811101C05F
:1015500090E0892F0E94D7090F900F90DF91CF91D3
:101560000895CF93DF9300D0CDB7DEB79A838983F8
:10157000CE0101960E946302682F8FE992E00E94DB
:101580002A228FE992E00E9432220E94D7090F900E
:101590000F90DF91CF9108951F93CF93DF9300D0E9
:1015A0001F92CDB7DEB79A838983CE0101960E9440
:1015B0006302682FCE0101966B830E946302182F8D
:1015C0006B8183E492E00E949927612F83E492E08B
:1015D0000E94B3270E94D7090F900F900F90DF91C0
:1015E000CF911F910895CF93DF9300D0CDB7DEB791
:1015F0009A838983CE0101960E946302682F86E355
:1016000092E00E94DA2286E392E00E94942391E025
:10161000811101C090E0892F0E94D7090F900F908F
:10162000DF91CF910895FF920F931F93CF93DF9394
:101630008C0101960E94EF368F31910509F456C155
:101640000CF06EC08F30910509F42CC1B4F58730D1
:10165000910509F45AC1D4F48230910509F4FEC011
:101660004CF4009709F4D3C0019709F091C1CAEA7C
:10167000D5E08CC18530910509F40EC10CF042C152
:10168000039709F085C1C2E0D6E080C18B30910597
:1016900009F4BAC04CF48930910509F472C10CF018
:1016A00073C1CFE1D3E033C18D30910509F4E5C0BA
:1016B0000CF0F5C0CFE5D3E02AC18731910509F4DC
:1016C00003C1BCF48331910509F4F5C04CF48131B8
:1016D000910509F4EAC00CF0EBC0C1E9DAE017C1EA
:1016E0008531910509F4EAC00CF0EBC0C9E6D7E0FA
:1016F0000EC18B31910509F4F0C04CF4893191058C
:1017000009F4E5C00CF0E6C0CDEED7E000C18D31A4
:10171000910509F4F1C00CF4ECC0C9EBD8E036C176
:101720008737910509F4A3C0D4F58F36910509F4E4
:1017300086C0F4F48336910509F48DC064F48132D7
:10174000910509F4CDC00CF4CEC0829709F020C1F8
:10175000C3EFDAE0DCC08D36910509F464C00CF00B
:101760006BC08636910509F013C1CFECD0E00EC1F5
:101770008337910509F46CC04CF48137910509F465
:1017800061C00CF062C0CFE7D9E000C18537910598
:1017900009F46AC00CF465C0C4EED3E0F7C08F371B
:1017A000910509F443C0ACF48B37910509F471C07D
:1017B0003CF48937910509F463C00CF064C039C06A
:1017C0008D37910509F456C00CF460C0C8EAD6E024
:1017D0009EC0883C9105F1F064F48138910509F4CC
:1017E0008EC03CF18238910509F0D2C0CAE4D9E03C
:1017F000CDC08A3C9105A1F084F08C3C910509F0A4
:10180000C7C0CCE8D2E0C2C0CFE3D3E080C0C2E022
:10181000DAE07DC0CEE6D2E0B9C0C7EFD2E0B6C014
:10182000C8ECD2E0B3C0C1E2D4E0B0C0C0E9D4E0BB
:10183000ADC0CEE5D4E0AAC0C3EAD3E068C0C2EC34
:10184000D4E065C0CEEED4E0A1C0C8E2D5E09EC031
:10185000CBE5D5E09BC0C8E6DDE098C0C6EDD5E09D
:1018600095C0C4ECD3E053C0C2E2DAE050C0CBE193
:10187000D6E08CC0C6E8D6E089C0CEE1D2E086C012
:10188000C2E4DAE044C0C6E3D6E041C0CDE6D6E02B
:101890003EC0CBEAD9E07AC0C9ECD0E038C0C2E69D
:1018A000DAE035C0C8ECD6E071C0CAEFD6E06EC051
:1018B000C3E1D7E06BC0CDE3D7E029C0C1EBDAE0EC
:1018C00026C0C5E9D7E023C0C1ECD7E020C0CCECEE
:1018D000DAE01DC0CAE1D8E059C0C4E4D8E056C07F
:1018E000CEE6D8E053C0C7E8D8E050C0C0EAD8E0A0
:1018F0004DC0CEEDD8E04AC0C5E0D9E047C0CAE24D
:10190000D9E005C0C5EED0E002C0C2EED9E0F801D2
:1019100001900020E9F7AF0141505109401B510BE4
:10192000E0911D04F0911E040280F381E02DB801C6
:101930008DE194E00995FF24F394C801FE01099517
:10194000F11026C0F80101900020E9F7AF014150E5
:101950005109401B510BE0911D04F0911E040280BF
:10196000F381E02DB8018DE194E009956BE571E01C
:101970008DE194E0DF91CF911F910F91FF900C9436
:10198000672FC9EDD1E002C0C0E8D3E0F12CD5CF7C
:10199000DF91CF911F910F91FF900895FC0120815D
:1019A0002D3411F40C94130B089563E181E193E05D
:1019B0000E94EE0F62E187E193E00E94EE0F60E18A
:1019C0008DE193E00E94EE0F6FE083E293E00E94CE
:1019D000EE0F60E083E10E948C2C60E082E10E94C7
:1019E0008C2C60E080E10E948C2C60E08FE00E94F3
:1019F0008C2C61E083E00E948C2C61E08EE00E94E0
:101A00008C2C61E084E00E948C2C61E08DE00E94CF
:101A10008C2C60E084E10E948C2C85ED92E00C948B
:101A2000701A26E040E052EC61E070E08DE194E055
:101A30000E94072E0C94D50CDF92EF92FF920F9329
:101A40001F93CF93DF93C3E7D3E00EE511E0F3E0FC
:101A5000C737DF07A9F1EE24E394F12C88818111C7
:101A600002C0E12CF12CF801D1908F018D2D0E9444
:101A7000FB2CE816F90611F18881882311F01882F1
:101A80001DC060E971E080E090E00E94792B6D2D2F
:101A90008FE693E00E94AD238FE693E00E94C72378
:101AA00061E08FE693E00E943E248FE693E00E947F
:101AB000F5238FE693E00E94A62488832196C7CF62
:101AC000DF91CF911F910F91FF90EF90DF900895DC
:101AD0000F931F93CF93DF9380E090E00E94CF009D
:101AE00060E083E00E94C52C60E084E00E94C52C89
:101AF00060E08EE00E94C52C60E08DE00E94C52C65
:101B00000E941C0DCEE5D1E003E713E0F1E0C23600
:101B1000DF0741F1F80181918F01882309F18130BC
:101B2000A1F4688185E593E00E94352820E040E03B
:101B300060E085E593E00E94A62820E040E060E0B8
:101B400085E593E00E94AC280BC0833049F468819E
:101B500084E393E00E94EC1C84E393E00E94EE1C7B
:101B60002196D4CFDF91CF911F910F910895CF93FC
:101B7000DF938FE693E00E94AC2360E083E693E07E
:101B80000E943C1B60E082E693E00E94F52660E044
:101B900085E593E00E94192860E08FE493E00E94BD
:101BA0003C2260E084E393E00E94E81C60E089E26C
:101BB00093E00E940115C1E1D3E060E0CE010E94F4
:101BC000FA0F269683E0C932D807B9F760E082E0C1
:101BD00093E00E94022760E089EF92E00E949E2538
:101BE00060E086EE92E00E947A2660E081EE92E06C
:101BF0000E94F02467E080EE92E00E94231362E0EE
:101C000085ED92E00E944D1A60E08FEC92E00E9418
:101C1000521960E08AEC92E00E94D22760E08DEBDE
:101C200092E00E94391160E088EB92E00E94BB10C4
:101C300060E083EB92E00E94C22460E087EA92E0D9
:101C40000E948F1360E080EA92E00E94171660E025
:101C50008FE992E00E94302260E088E992E00E94E1
:101C60000F1C60E088E892E00E945C1460E088E469
:101C700092E00E94681660E083E492E00E9485276B
:101C800060E08FE392E00E941E2560E08BE392E02B
:101C90000E94D52860E086E392E00E94C62260E0C0
:101CA00082E392E00E94601CC6E2D2E0CE010E9474
:101CB000C829239682E0C233D807C1F7DF91CF91BC
:101CC000089589EF92E00C946E261F93CF93DF93D3
:101CD000C0E8D0E010E28DE194E00E94242D892B31
:101CE00081F18DE194E00E943D2D20912002309100
:101CF00021028A30C1F4C9010197FC01E056FE4F70
:101D000040814D3011F49C01F6CFF901E056FE4FB1
:101D100010831182109221021092200280EA91E039
:101D20000E94CE0CD8CFF901E056FE4F8083C90146
:101D30000196BE010E943B359093210280932002C0
:101D4000CACFDF91CF911F91089585ED92E00E9457
:101D50000D1B0C94650E089570E0FB01E655FF4FD6
:101D6000E491DC01EC93FB01E254FF4FE491F0E0DD
:101D7000EE0FFF1FEE52FF4F25913491FC0132838D
:101D8000218308951F93CF93DF93FC011081C181BC
:101D9000D2819981812F8095892389838A81812BA2
:101DA0008A838AE090E00E94A12B9881912381E0B0
:101DB00009F480E0DF91CF911F910895FF920F9376
:101DC0001F93CF93DF93FC011081C181D281F894DE
:101DD0008981F12EF0948F2189838A81812B8A83D6
:101DE00078940DE7015041F182E090E00E94A12B30
:101DF00088818123B9F3F8948A818F218A8389812C
:101E0000812B8983789480EE91E00E94A12BF89435
:101E100089818F2189838A81812B8A8386E490E05E
:101E20000E94A12B8881812301E009F000E07894D1
:101E30008AE991E00E94A12B802FDF91CF911F9121
:101E40000F91FF9008951F93CF93DF93FC011081B2
:101E5000C181D281912F909560FF12C0F8948A8140
:101E600089238A838981812B89838AE090E00E947B
:101E7000A12B8A81812B8A83789487E390E011C01B
:101E8000F8948A8189238A838981812B898381E4DB
:101E900090E00E94A12B8A81812B8A83789485E02F
:101EA00090E0DF91CF911F910C94A12B0F931F9382
:101EB000CF93DF93FC011081C181D281F894898195
:101EC000812B89838A81012F009580238A8383E077
:101ED00090E00E94A12B8981802389838A81812BB4
:101EE0008A838AE090E00E94A12BC881789485E3E0
:101EF00090E00E94A12B1C2381E009F480E0DF9197
:101F0000CF911F910F910895CF92DF92EF92FF92A0
:101F10000F931F93CF93DF931F92CDB7DEB76C0162
:101F2000E62E08E010E0FF24F39461E09F2D9E214F
:101F300009F460E0C60149830E94230FFF0C0150A1
:101F4000110949810115110581F741111DC0F8944E
:101F5000D6011196ED91FC91129791818C9180950B
:101F6000892381831196ED91FC91129782819C9136
:101F7000892B82831196ED91FC91129792818C911D
:101F800080958923828378940F90DF91CF911F9160
:101F90000F91FF90EF90DF90CF900895EF92FF9216
:101FA0000F931F93CF93DF938C01C8E0D0E0F12C07
:101FB000EE24E394C8010E94560F8111FE28EE0C16
:101FC0002197C1F78F2DDF91CF911F910F91FF9036
:101FD000EF90089540E06CEC0C94840FCF93DF9366
:101FE000EC010E94AD238CE291E09D838C83DF9114
:101FF000CF9108950F931F93CF93DF931F92CDB787
:10200000DEB78C0169830E94AC23F801158214822B
:102010006981C8010F90DF91CF911F910F910C94AE
:10202000EE0F1F93CF93DF93EC016F3F710519F013
:1020300014F06FEF70E09B0161308FEF780714F4BC
:1020400021E03FEF8C819D8128173907D1F13D8335
:102050002C83B901882777FD8095982F37FD09C01B
:102060000E94193323E333E343E250E40E947E32BB
:1020700010C00E94193323E333E343E250E40E948B
:102080007E329B01AC0160E070E088EC92E40E943B
:10209000B3310E94EB32162FCE010E94C72362E0BB
:1020A000CE010E943E24CE010E94C723612FCE01A3
:1020B0000E943E2484EF91E0DF91CF911F910C9418
:1020C000A12BDF91CF911F910895EF92FF920F9373
:1020D0001F93CF93DF937C01FC01C481D581CF3F57
:1020E000D10519F014F0C1E0D0E08B016F3F71050C
:1020F00019F014F00FEF10E00130FFEF1F0714F498
:1021000001E01FEF0C171D0779F1C017D1074CF53F
:10211000C8018C1B9D0B8B30910514F08AE090E078
:10212000C80FD91FBE01C7010E94111064E170E001
:1021300080E090E00E94792BE8CFCE01801B910BCC
:102140008B30910514F08AE090E0C81BD90BBE01DA
:10215000C7010E94111064E170E080E090E00E94ED
:10216000792B0C171D074CF3DF91CF911F910F9125
:10217000FF90EF9008950F931F93CF93DF931F92DB
:10218000CDB7DEB78C0169830E94AC236981C80199
:102190000F90DF91CF911F910F910C94AD230C9470
:1021A000AD23EF92FF921F93CF93DF931F92CDB792
:1021B000DEB77C01162F49830E94C7234981811114
:1021C00020C0442311F063E001C064E0C7010E9415
:1021D0003E24C7010E94C723811113C0112339F087
:1021E000115061E001C0660F1A95EAF701C06FE077
:1021F000C7010F90DF91CF911F91FF90EF900C944A
:102200003E240F90DF91CF911F91FF90EF900895A2
:10221000CF93DF93EC010E94C72381111CC062E0C1
:10222000CE010E943E24CE010E94F523CE010E94E1
:10223000A6248C838C81823059F018F4813041F0CF
:1022400008C0843021F0883021F484E001C083E0AC
:102250008C838C8101C080E0DF91CF910895CF9372
:10226000DF93EC010E94AD2381E08C87DF91CF9159
:1022700008950F931F93CF93DF931F92CDB7DEB7CF
:102280008C0169830E94AC236981C8010F90DF91A2
:10229000CF911F910F910C942F11CF93DF93EC01ED
:1022A0000E94C72381111BC062E0CE010E943E2420
:1022B000CE010E94C723811112C06C81CE010E9401
:1022C0003E246D81CE010E943E246E81CE010E948B
:1022D0003E246F81CE01DF91CF910C943E24DF919B
:1022E000CF9108952F923F924F925F926F927F927B
:1022F0008F929F92AF92BF92CF92DF92EF92FF9216
:102300000F931F93CF93DF93CDB7DEB72F970FB601
:10231000F894DEBF0FBECDBF8C012A013B01FC014A
:102320008485882311F014860CC09A01AB01F80152
:1023300060857185828593850E947A32882309F4AD
:1023400069C1F8014086518662867386CE01019686
:102350009C878B878AE0EB85FC8511928A95E9F74B
:1023600020E03CE34CE156E4C301B2010E94413459
:1023700087FD04C089E0F80184830EC020E030ECC2
:1023800049E754ECC301B2010E947A32181644F0B6
:1023900080E1F801848389E0858386838783D3C0C5
:1023A00020E030E0A901C301B2010E947A3281111C
:1023B00007C080E4F8018483858386831782C3C0C5
:1023C00020E030E0A901C301B2010E947A3287FF08
:1023D00007C077FA709477F87094F1E0FD8701C038
:1023E0001D8620E030E04AE754E4C301B2010E94B8
:1023F0007E320E94EB326983C301B2010E94E63251
:102400009B01CB0168EE73E00E943B35E4E6F0E00F
:10241000BF010E943B356A83C901BF010E943B3561
:102420004AE0E42EF12CB7010E943B356B83C901D1
:10243000B7010E943B355C018C8320E030E040E234
:1024400051E4C301B2010E944C340E94E632CB0138
:10245000B7010E943B356C018D8320E030E048ECF1
:1024600052E4C301B2010E944C340E94E632CB0117
:10247000B7010E943B354C018E8320E030E04AE7F3
:1024800054E4C301B2010E944C340E94E632CB01F5
:10249000B7010E943B359F878E878F83212CE22CCA
:1024A000F12CE1E0F0E0EC0FFD1FEE0DFF1D3080A0
:1024B000311002C02394F3CF20E030E040E85FE326
:1024C000C301B2010E94413487FD10C0A32CFE015C
:1024D000EE0DFF1DC280FE01EE0DFF1D8380FE018B
:1024E000EE0DFF1D848124E0221907C0BB24DD24EA
:1024F00099248E859F85992721E03D85313059F4B7
:1025000080E1F8018483A582C6828782223051F05F
:102510002130C9F40DC0F801A482C5828682878368
:10252000233021F48681806286830DC0223029F415
:10253000F80185818062858306C0213021F4F8018D
:10254000848180628483F801848185FF12C0858143
:10255000811148C08681811145C08781811142C0A7
:10256000F80184818F70878380E4848385838683E8
:102570001EC0F801858185FF0AC08681811143C094
:102580008781811140C0F80185818F7035C0F801C5
:10259000868185FF0CC08781811109C086818F707B
:1025A0008783858186838481858380E48483C801D1
:1025B0002F960FB6F894DEBF0FBECDBFDF91CF913F
:1025C0001F910F91FF90EF90DF90CF90BF90AF9051
:1025D0009F908F907F906F905F904F903F902F9043
:1025E0000C944D11F801868181110DC0F80187818D
:1025F000811109C0F801858187838481868380E405
:1026000084838583D4CFF80187818111D0CFF801ED
:102610008681C6CF2F960FB6F894DEBF0FBECDBF12
:10262000DF91CF911F910F91FF90EF90DF90CF90AE
:10263000BF90AF909F908F907F906F905F904F90E2
:102640003F902F9008956093770308954F925F9283
:102650006F927F928F929F92AF92BF92CF92DF92B2
:10266000EF92FF920F931F93CF93DF9369017A014B
:102670009B0140E050E060E472E48FE090E00E9453
:102680007135E901890137FF02C00F5F1F4F1595B2
:10269000079561E0809177030E948C2CA8EEB3E04F
:1026A000A70196010E9490354B015C01C12CD12CF1
:1026B00076012E01662457FC6094762CC814D90448
:1026C000EA04FB04B0F461E0809177030E94C52C1A
:1026D000C8010E94A12B60E0809177030E94C52C65
:1026E000C8010E94A12BA895C40CD51CE61CF71CA0
:1026F000E5CFDF91CF911F910F91FF90EF90DF9089
:10270000CF90BF90AF909F908F907F906F905F9091
:102710004F900895F8940E942613789408950F938B
:102720001F93CF93DF931F92CDB7DEB78C016983E0
:102730000E94AC236981C8010F90DF91CF911F9156
:102740000F910C94AD230C94AD23CF92DF92EF92B6
:10275000FF920F931F93CF93DF93CDB7DEB72897E8
:102760000FB6F894DEBF0FBECDBF8C01CE0101962F
:102770007C0188E0F70111928A95E9F7C8010E946F
:10278000C723811135C062E0C8010E943E24C80100
:102790000E94F5236E01F9E0CF0ED11CC8010E9402
:1027A000A624F70181937F01EC15FD05B9F78A8115
:1027B00090E0982F88272981822BF80195838483C4
:1027C0008C8190E0982F88272B81822B978386839A
:1027D0008E8190E0982F88272D81822B918780878A
:1027E000888590E0982F88272F81822B9387828776
:1027F00028960FB6F894DEBF0FBECDBFDF91CF9104
:102800001F910F91FF90EF90DF90CF900895CF939D
:10281000DF93EC010E94C72381110AC064E0CE015E
:102820000E943E2488EB9BE0DF91CF910C94A12B7A
:10283000DF91CF9108951F93CF93DF93EC01162F73
:102840000E94C723811110C063E0CE010E943E2484
:10285000CE010E94C723811107C0612FCE01DF91F5
:10286000CF911F910C943E24DF91CF911F91089539
:102870000F931F93CF93DF931F92CDB7DEB78C01D9
:1028800069830E94A5136981F801623039F06330D1
:1028900041F0613049F48481958108C08681978137
:1028A00005C08085918502C0828593850F90DF9158
:1028B000CF911F910F9108950F931F93CF93DF93A3
:1028C0001F92CDB7DEB78C0169830E94AC23F8015B
:1028D0001582148217821682118610866981C801BA
:1028E0000F90DF91CF911F910F910C94AD230C9419
:1028F000AD230F931F93CF93DF93EC010E94C72367
:1029000081112DC062E0CE010E943E24CE010E94C2
:10291000F52300E010E0CE010E94A624FE01E00FA6
:10292000F11F82870F5F1F4F06301105A1F78A85BF
:1029300090E0982F88272B85822B9D838C838C8514
:1029400090E0982F88272D85822B9F838E838E85FC
:1029500090E0982F88272F85822B99878887DF9191
:10296000CF911F910F9108950F931F93CF93DF93F2
:102970001F92CDB7DEB78C0169830E9479146981FB
:10298000662331F0613041F4F8018681978107C0F8
:10299000F8018481958103C0F801808591850F90AD
:1029A000DF91CF911F910F9108950F931F93CF93B4
:1029B000DF93EC01062F10E0000F111F065F1E4F82
:1029C000633050F0F8016081CE010E94AD23F80120
:1029D0008181898718860CC061E0F80181810E949D
:1029E0008C2CF80180818D8381818C8381E08887A4
:1029F0008CE291E09F838E83DF91CF911F910F91A5
:102A000008950F931F93CF93DF931F92CDB7DEB737
:102A10008C0169830E94AC23F8011782168210860C
:102A2000118612866981C8010F90DF91CF911F91A5
:102A30000F910C94D514EF92FF920F931F93CF93A5
:102A4000DF9300D0CDB7DEB77C01FC018285811118
:102A500009C069837A830E94500181E0F70182876F
:102A60007A8169818B016F3F710519F014F00FEFC6
:102A700010E00130FFEF1F0714F401E01FEFF70132
:102A8000868197818017910709F4C8C01783068350
:102A9000808517FD4EC0813079F58481873019F427
:102AA000848160E006C0F7018481883089F48481E4
:102AB00061E00E94C52CF7018581B8010F900F904D
:102AC000DF91CF911F910F91FF90EF900C94042C08
:102AD000F7018481893029F0F7018481863009F07B
:102AE0009DC0848161E00E94C52CF70185816FEF54
:102AF00070E0601B710BE2CFC7010E94C72362E048
:102B0000C7010E943E24C7010E94C723F7016185C7
:102B1000C7010E943E24B801882777FD8095982F31
:102B20000E94193323E333E343E250E40E947E32F0
:102B300064C08130F1F5F7018481873061F48481CC
:102B400061E00E94C52CF701858166277727601B0D
:102B5000710B0E94042CF7018481883061F4848118
:102B600060E00E94C52CF701858166277727601BEE
:102B7000710B0E94042CF7018481893059F48581FE
:102B800061E00E94C52CF7018481B80161507F4F3C
:102B90000E94042CF7018481863009F03FC08581B2
:102BA00061E00E94C52CF7018481B80161507F4F1C
:102BB00085CFC7010E94C72362E0C7010E943E245F
:102BC000C7010E94C723F7016185C7010E943E2407
:102BD000B801882777FD8095982F0E94193323E349
:102BE00033E343E250E40E947E329B01AC0160E09B
:102BF00070E088EC92E40E94B3310E94EB32C7018E
:102C00000E943E2484EF91E00F900F90DF91CF91CE
:102C10001F910F91FF90EF900C94A12B0F900F90AC
:102C2000DF91CF911F910F91FF90EF9008950F9337
:102C30001F93CF93DF931F92CDB7DEB78C016983CB
:102C40000E94AC236981C8010F90DF91CF911F9141
:102C50000F910C94AD230C94AD23CF93DF93EC0133
:102C60000E94C723811113C062E0CE010E943E245E
:102C7000CE010E94F523CE010E94A6248C83CE01B2
:102C80000E94A6248D83CE010E94A6248E83DF910C
:102C9000CF9108950F931F93CF93DF931F92CDB7DA
:102CA000DEB78C0169830E942D166981613029F09D
:102CB000633031F4F801868105C0F801848102C0D7
:102CC000F80185810F90DF91CF911F910F910895A9
:102CD0001F93CF93DF93EC01162F0E94AC2340E0AB
:102CE00050E063E872E44C835D836E837F831886D3
:102CF00019861A861B861C861D861E861F86188AC4
:102D0000198A1A8A1B8A1C8A1D8A1E8A1F8A188E93
:102D1000198E1A8E1B8E1C8E1D8E1E8E1F8E19A252
:102D200018A21BA21AA21DA21CA21EA21FA218A6B4
:102D300019A61AA61BA61CA61DA61EA61FA618AA83
:102D400019AA612FCE01DF91CF911F910C94AD2371
:102D50000C94AD232F923F924F925F926F927F928D
:102D60008F929F92AF92BF92CF92DF92EF92FF929B
:102D70000F931F93CF93DF93CDB7DEB768970FB64E
:102D8000F894DEBF0FBECDBF1C010E944A2B4B0141
:102D90005C01C0907803D0907903E0907A03F090C2
:102DA0007B030E944A2B609378037093790380938E
:102DB0007A0390937B03C1010E94C723811114C23F
:102DC00062E0C1010E943E24C1010E94F52300E09F
:102DD00010E0C1010E94A624F101E00FF11F82ABB7
:102DE0000F5F1F4F0E301105A1F7C501B4016C191B
:102DF0007D098E099F090E94173320E030E04AE7E1
:102E000054E40E947E326B017C01D101D2964C9039
:102E1000D297512C542C4424D3968C91D397482A82
:102E200091965C924E929097D4966C90D497712C18
:102E3000762C6624D5968C91D597682A93967C92A9
:102E40006E929297D6960C91D69710E0102F00278D
:102E5000D7968C91D797082B95961C930E939497A1
:102E600014968D909D90AD90BC901797DA966C91CA
:102E7000DA9770E0762F6627DB968C91682B88278F
:102E800077FD8095982F0E941933F10126A137A173
:102E900040A551A50E94B331A50194010E947E3244
:102EA0006D837E838F839887D10154966D937D9334
:102EB0008D939C935797DC966C91DC9770E0762FFE
:102EC0006627DD968C91682B882777FD8095982F53
:102ED0000E941933F10122A533A544A555A50E94EE
:102EE000B331A50194010E947E3269877A878B876E
:102EF0009C87D10158966D937D938D939C935B979E
:102F0000DE966C91DE9770E0762F6627DF968C91C7
:102F1000682B882777FD8095982F0E941933F1013F
:102F200026A537A540A951A90E94B331A501940156
:102F30000E947E326D877E878F87988BD1015C9649
:102F40006D937D938D939C935F97B301882777FD55
:102F50008095982F0E94193369837A838B839C8391
:102F6000B801882777FD8095982F0E9419339B011F
:102F7000AC010E944C34698B7A8B8B8B9C8B2981A2
:102F80003A814B815C81CA01B9010E944C34298984
:102F90003A894B895C890E94B4310E94D3349B01E9
:102FA000AC01B201882777FD8095982F2D8B3E8B41
:102FB0004F8B588F0E9419334B015C012D893E893C
:102FC0004F89588D0E94273220E030E044E353E4DB
:102FD0000E944C342AED3FE049E450E40E947E32E6
:102FE0002B013C01A5019401C501B4010E944C34A0
:102FF00029893A894B895C890E94B4310E94D33473
:103000009B01AC0169817A818B819C810E9427326E
:1030100020E030E044E353E40E944C342AED3FE0EA
:1030200049E450E40E947E324B015C01A701960105
:1030300069857A858B859C851016110624F50E947A
:103040004C349B01AC01F1016085718582859385CB
:103050000E94B331D10118966D937D938D939C930B
:103060001B97A70196016D817E818F8198850E94B3
:103070004C349B01AC01F10164857585868597858B
:103080000E94B43123C00E944C349B01AC01F10179
:1030900060857185828593850E94B431D10118962F
:1030A0006D937D938D939C931B97A70196016D81E2
:1030B0007E818F8198850E944C349B01AC01F10187
:1030C00064857585868597850E94B331D1011C96EC
:1030D0006D937D938D939C931F97A70196016D85AA
:1030E0007E858F8598890E944C34F1012089318931
:1030F000428953890E94B4316B017C0120E030E0A9
:1031000044EB53E40E947E320E94543320E030E0CE
:1031100044EB53E40E944C349B01AC01C701B6015F
:103120000E94B3316B017C0120E030E044E353E4C2
:103130000E944134181644F0D1015096CD92DD9290
:10314000ED92FC9253970DC020E030E044EB53E445
:10315000C701B6010E94B331F101608B718B828B84
:10316000938B28E431EE4AE75FE3D1011C966D9121
:103170007D918D919C911F970E944C346B017C0135
:103180002AE037ED43EA5CE3C501B4010E944C3408
:103190009B01AC01C701B6010E94B431F101648703
:1031A00075878687978728E431EE4AE75FE3608575
:1031B0007185828593850E944C346B017C012AE0E5
:1031C00037ED43EA5CE3C301B2010E944C349B013A
:1031D000AC01C701B6010E94B431D10118966D93BC
:1031E0007D938D939C931B9768960FB6F894DEBFE2
:1031F0000FBECDBFDF91CF911F910F91FF90EF9048
:10320000DF90CF90BF90AF909F908F907F906F9006
:103210005F904F903F902F9008950F931F93CF93FF
:10322000DF931F92CDB7DEB78C0169830E94AA1687
:1032300069816230E1F050F4662399F0613049F51C
:10324000F801648575858685978526C06430D9F038
:10325000A0F06530F1F4F801648D758D868D978D41
:103260001BC0F801608571858285938515C0F801C2
:1032700060897189828993890FC0F8016489758991
:103280008689978909C0F801608D718D828D938D33
:1032900003C060E070E0CB010F90DF91CF911F91F0
:1032A0000F9108950F931F93CF93DF931F92CDB784
:1032B000DEB78C0169830E94AC236981C8010F903D
:1032C000DF91CF911F910F910C94AD230C94AD23FE
:1032D000CF93DF93EC010E94C72381110FC062E0FE
:1032E000CE010E943E24CE010E94F523CE010E9411
:1032F000A6248C83CE010E94A6248D83DF91CF91DA
:103300000895CF93DF93EC0161110E9468198C81BD
:1033100090E0DF91CF910895CF93DF93EC0161119D
:103320000E9468198D8190E0DF91CF9108951F92DE
:103330000F920FB60F9211240F931F932F933F9369
:103340004F935F936F937F938F939F93AF93BF93AD
:10335000CF93EF93FF93809180030E94FB2CC82FA3
:1033600020918703309188032F5F3F4F309388036C
:10337000209387038091ED03843618F085E08093D5
:10338000820390918203933079F018F4923039F0EF
:1033900070C0943011F1953009F44AC06AC0C1116F
:1033A00068C01092ED0329C0C13009F062C0E091FD
:1033B000ED0381E08E0F8093ED03F0E080918703B1
:1033C00090918803EF57FC4F8087109288031092EA
:1033D000870384E0809382034CC0C11114C0E09144
:1033E000ED0381E08E0F8093ED03F0E08091870381
:1033F00090918803EF57FC4F8087109288031092BA
:10340000870383E0E7CF8091870390918803853617
:10341000910578F185E0809382030E944A2B6093A6
:10342000830370938403809385039093860321C064
:103430000E944A2B009183031091840320918503FD
:1034400030918603601B710B820B930B693C7105F5
:103450008105910540F01092ED03109288031092BF
:10346000870382E0B7CFC11104C010928803109285
:103470008703FF91EF91CF91BF91AF919F918F9172
:103480007F916F915F914F913F912F911F910F917C
:103490000F900FBE0F901F9018956093800380913E
:1034A000800360E00E948C2C8091800380938103D4
:1034B000089580918003861759F06093800380916E
:1034C000800360E00E948C2C8091800380938103B4
:1034D000089521E0FC018285861320E0822F089563
:1034E000F89482E08093B0008093B10094E69093CA
:1034F000B3001092B2008093700078941092ED03A4
:103500008093820308951F93CF93DF93FC01A681DC
:10351000B7818C9186588D3558F48085918583309C
:103520009105A1F411968C9111978152893118F06F
:1035300080E090E044C012968C9188508730C0F7AC
:10354000158281E0808381E090E039C08334910569
:103550007CF311968C91119783548F3248F782E057
:1035600090E040E050E0BA019D012F5F3F4FEC0139
:10357000CA0FDB1FC881C850C730D0F6E901C80F99
:10358000D91F18811751133180F476956795579597
:103590004795706802968234910549F780E28583E9
:1035A0004183528363837483CCCFC881C850C730B2
:1035B00008F0BECF7695679557954795EBCFDF918D
:1035C000CF911F9108950F931F93CF93DF93EC0139
:1035D00089E893E09F838E838091ED0390E0998743
:1035E000888780918203853081F4CE010E94831AFE
:1035F0008C01CE010115110529F00E94701A01E01D
:1036000010E005C00E94701A02C000E010E0C8017E
:10361000DF91CF911F910F9108950F931F93CF9337
:10362000DF93EC010E94E31A892B69F00E944A2B78
:1036300060937C0370937D0380937E0390937F035C
:103640008B818A8714C00E944A2B00917C031091C1
:103650007D0320917E0330917F03601B710B820BF1
:10366000930B693C71058105910508F01A86DF917D
:10367000CF911F910F9108950F931F93CF93DF93D5
:103680001F92CDB7DEB78C0169830E94AC23F8018D
:10369000158216821782108611861286138669811A
:1036A000C8010F90DF91CF911F910F910C94AD2322
:1036B0000C94AD23CF93DF93EC010E94C7238111BB
:1036C00011C062E0CE010E943E24CE010E94F5238B
:1036D000CE010E94A6248C8388E293E20E94A12B53
:1036E0008C8101C080E0DF91CF910895CF93DF936B
:1036F000EC010E94C723811123C063E0CE010E9428
:103700003E24CE010E94C72381111AC06E81CE01D2
:103710000E943E246F81CE010E943E246885CE0126
:103720000E943E246985CE010E943E246A85CE0116
:103730000E943E246B85CE01DF91CF910C943E24F4
:10374000DF91CF9108950F93FC0160FF03C0468382
:103750002783008761FF03C0418722870387637047
:1037600021F0CF010F910C94761B0F9108951F93B8
:10377000CF93DF93EC01162F0E94C723811111C054
:1037800064E0CE010E943E24CE010E94C723811135
:1037900008C01D836D81CE01DF91CF911F910C94E4
:1037A0003E24DF91CF911F910895FC0165816160F6
:1037B0000C94B71BFC0165816E7F0C94B71BFC0158
:1037C000658162600C94B71BFC0165816D7F0C9470
:1037D000B71B0F931F93CF93DF93EC01062F142F8A
:1037E00060FF07C0442319F00E94D51B02C00E944D
:1037F000DA1B01FF0FC0CE01112331F0DF91CF9111
:103800001F910F910C94DF1BDF91CF911F910F91AE
:103810000C94E41BDF91CF911F910F9108950F93AA
:103820001F93CF93DF931F92CDB7DEB78C016983CF
:103830000E94AC236981C8010F90DF91CF911F9145
:103840000F910C94AD230C94AD23CF93DF93EC0137
:103850000E94C723811113C062E0CE010E943E2462
:10386000CE010E94F523CE010E94A6248C83CE01B6
:103870000E94A6248D83CE010E94A6248E83DF9110
:10388000CF9108950F931F93CF93DF931F92CDB7DE
:10389000DEB78C0169830E94251C6981662329F0AB
:1038A000613031F4F801858105C0F801848102C0DE
:1038B000F80186810F90DF91CF911F910F910895AC
:1038C0000F931F93CF93DF931F92CDB7DEB78C0179
:1038D00069830E94AC236981C8010F90DF91CF9169
:1038E0001F910F910C94AD230C94AD23CF93DF93D4
:1038F000EC010E94C723811120C062E0CE010E942A
:103900003E24CE010E94F523CE010E94A624682FFA
:1039100070E080E090E00E94193320E030EC4FE747
:1039200054E40E944C3420E030E04FE753E40E941E
:103930007E320E94EB32CB0102C080E090E0DF914A
:10394000CF9108950F931F93CF93DF931F92CDB71D
:10395000DEB78C0169830E94C723698181110DC084
:10396000662311F063E001C064E0C8010F90DF91AD
:10397000CF911F910F910C943E240F90DF91CF9126
:103980001F910F9108950F931F93CF93DF9300D052
:103990001F92CDB7DEB78C012B834A8369830E94C7
:1039A000AC23F801349685E1DF011D928A95E9F791
:1039B0004A81F801418F2B81228F6981C8010F90C4
:1039C0000F900F90DF91CF911F910F910C94AD2329
:1039D00025E04EE00C94C31C0C94AD23CF93DF93F1
:1039E000EC01298D80E090E0821730F4FE01E80FB1
:1039F000F91F14820196F8CFCE010E94C7238111CE
:103A00000AC065E0CE010E943E2488E893E1DF9180
:103A1000CF910C94A12BDF91CF9108955F926F927B
:103A20007F928F929F92AF92BF92CF92DF92EF924E
:103A3000FF920F931F93CF93DF93EC01542E490114
:103A4000E98CF12C8A8DA62EBB24A7FCB0942227EA
:103A500033272E193F092A153B0594F4AE14BF04F1
:103A60007CF490E0C42EDD24C7FCD09422273327B9
:103A7000281B390B2C153D051CF4C816D90694F0EB
:103A8000CE01DF91CF911F910F91FF90EF90DF90CA
:103A9000CF90BF90AF909F908F907F906F905F90EE
:103AA0000C94EE1CCE010E94C72362E0CE010E945E
:103AB0003E24CE010E94C723002711270A191B09A3
:103AC00037016A187B08AA24BB24AC18BD08061568
:103AD000170504F517FD17C00E151F05A4F4F40112
:103AE000E00FF11F608157FC06C00C2C01C0660F6F
:103AF0000A94EAF709C070E00A2C02C07595679530
:103B00000A94E2F701C060E0CE010E943E240F5FFC
:103B10001F4FDDCFDF91CF911F910F91FF90EF905D
:103B2000DF90CF90BF90AF909F908F907F906F90DD
:103B30005F9008950F931F93CF93DF93EC01162F9F
:103B4000042F898D6817D0F4CE010E94C7238111FC
:103B500015C063E0CE010E943E24CE010E94C7231F
:103B600081110CC0612FCE010E943E24602FCE0136
:103B7000DF91CF911F910F910C943E24DF91CF9153
:103B80001F910F910895CF93DF93E62FF0E0DC01B2
:103B900059962C91599730E0E217F307C4F4242F7B
:103BA00030E05A96AC91B0E02A173B0784F4E80F56
:103BB000F91F548121E030E001C0220F4A95EAF755
:103BC000522B54834481DF91CF910C949A1DDF9145
:103BD000CF910895CF93DF93E62FF0E0DC01599663
:103BE0002C91599730E0E217F307CCF4242F30E002
:103BF0005A96AC91B0E02A173B078CF4E80FF91FF6
:103C0000548121E030E001C0220F4A95EAF7209567
:103C1000252324834481DF91CF910C949A1DDF9159
:103C2000CF910895FF920F931F93CF93DF93EC01F1
:103C3000F62E042F122F0E94C72381111EC067E0A9
:103C4000CE010E943E24CE010E94C723811115C0DF
:103C50006F2DCE010E943E24602FCE010E943E2493
:103C6000612FCE010E943E2488EB9BE0DF91CF9133
:103C70001F910F91FF900C94A12BDF91CF911F9179
:103C80000F91FF900895AF92BF92CF92DF92EF9283
:103C9000FF920F931F93CF93DF93EC01B62EA42EC8
:103CA000790100E010E0C62EDD24C7FCD094C801E5
:103CB0008C0D9D1D8B3F2FEF92071CF1298D30E05D
:103CC0008217930724F5F701208121110EC08C0182
:103CD000898D90E008171907D4F440E0602FCE01D9
:103CE0000E949A1D0F5F1F4FF3CF21526B2D600F63
:103CF0002E3518F023E040E001C04A2DCE010E948D
:103D0000121E0A5F1F4FFFEFEF1AFF0AD0CF1FEFFF
:103D10001B0D1B143CF440E0612FCE010E949A1D44
:103D2000B12EF5CFDF91CF911F910F91FF90EF90C2
:103D3000DF90CF90BF90AF900895EF92FF920F93D6
:103D40001F93CF93DF93EC01862FF42E022F1AE0FE
:103D5000612F0E942F35E92E2FE0280F40E06FEFF2
:103D6000CE010E94121E2FE02E0D40E064E0CE0135
:103D70000E94121E8F2D612F0E942F35192F2FE0C8
:103D8000280F40E06BE0CE010E94121E2FE0210FB1
:103D900040E060E1CE010E94121E002311F044E1D8
:103DA00001C040E06AE0CE01DF91CF911F910F91F9
:103DB000FF90EF900C949A1D2F923F924F925F923A
:103DC0006F927F928F929F92AF92BF92CF92DF922B
:103DD000EF92FF920F931F93CF93DF93CDB7DEB790
:103DE0002D970FB6F894DEBF0FBECDBF8C012A0110
:103DF0003B01CE0101969C878B878AE0EB85FC8591
:103E000011928A95E9F720E030EC49E754E4C301C8
:103E1000B2010E94413487FD04C028E140E06FEF09
:103E20000DC020E030E046EC52ECC301B2010E942C
:103E30007A32181654F12CE040E060E0C8010E948C
:103E4000121E28E140E064E0C8010E94121E28E131
:103E500040E069E0C8012D960FB6F894DEBF0FBEB2
:103E6000CDBFDF91CF911F910F91FF90EF90DF9029
:103E7000CF90BF90AF909F908F907F906F905F900A
:103E80004F903F902F900C94121E20E030E0A9013B
:103E9000C301B2010E947A32811102C02FE0D8CF53
:103EA00020E030E0A901C301B2010E947A3287FF0D
:103EB00007C077FA709477F87094F1E0FD8701C03D
:103EC0001D8620E030E04AE754E4C301B2010E94BD
:103ED0007E320E94EB326983C301B2010E94E63256
:103EE0009B01CB0168EE73E00E943B35E4E6F0E015
:103EF000BF010E943B356A83C901BF010E943B3567
:103F0000EAE0EE2EF12CB7010E943B356B83C9012C
:103F1000B7010E943B356C018C8320E030E040E229
:103F200051E4C301B2010E944C340E94E632CB013D
:103F3000B7010E943B354C018D8320E030E048EC16
:103F400052E4C301B2010E944C340E94E632CB011C
:103F5000B7010E943B351C018E8320E030E04AE728
:103F600054E4C301B2010E944C340E94E632CB01FA
:103F7000B7010E943B358F8380E0A82EB12CE1E091
:103F8000F0E0EC0FFD1FEA0DFB1DF080F11002C008
:103F90008F5FF3CF20E030E040E85FE3C301B20180
:103FA0000E94413487FD0DC0CF2CD12CFE01EA0DBB
:103FB000FB1DE280F12CFE01EA0DFB1DA380B12C5C
:103FC00005C0DD247401FF245101BB248D8581309F
:103FD00009F071C120E030E040E251E4C301B201D8
:103FE0000E94413487FD16C02CE040E06FEFC8010D
:103FF0000E94121E2FE02C0D40E064E0C8010E94D8
:10400000121E2FE02E0D40E0CA94CD2809F021CFDA
:1040100068E020CF20E030E040E85FE3C301B20178
:104020000E94413487FDFDC1E114F10409F046C04E
:10403000AB2809F043C023E040E060E0C8010E94E3
:10404000121EC6018B7F039799F42FE02C0D40E0E0
:1040500068E0C8010E94121E44E066E0C8010E94A8
:104060009A1D44E067E0C8010E949A1D44E021C106
:10407000E4E0CE16D10499F423E140E068E0C80101
:104080000E94121E44E065E0C8010E949A1D44E0AF
:1040900066E0C8010E949A1D44E067E0A7C123E0E2
:1040A00040E060E0C8010E94121E2CE040E065E0A4
:1040B000C8010E94121E2FE02C0DCACEF1E0CF16CF
:1040C000D10409F047C0C70101972CE040E00297F6
:1040D00090F183E0E816F10461F460E0C8010E9409
:1040E000121E20E140E064E0C8010E94121E22E19D
:1040F0002EC194E0E916F10471F46FEFC8010E943B
:10410000121E20E140E063E0C8010E94121E23E17C
:1041100040E068E0CAC0E7E0EE16F10461F460E058
:10412000C8010E94121E20E140E064E0C8010E9424
:10413000121E26E10CC16FEFC8010E94121E20E181
:1041400040E063E0C8010E94121E2FE02E0D40E007
:1041500069E0ABC0F2E0CF16D10409F044C02CE016
:1041600040E06FEF82E0E816F10421F0C701049708
:10417000029700F5C8010E94121E21E140E063E0B1
:10418000C8010E94121E2FE02E0D40E092E0E916B9
:10419000F10421F0E5E0EE16F10411F469E001C04C
:1041A00068E0C8010E94121E42E067E0C8010E9458
:1041B0009A1D7EC0C801F1E0EF16F10449F40E9497
:1041C000121E21E140E063E0C8010E94121EB9C046
:1041D0000E94121E21E140E063E0C8010E94121E0D
:1041E0002FE02E0DB4C083E0C816D10459F57FE04E
:1041F000D72EDE0CC701039722E140E062E0029770
:1042000020F097E0E916F10439F4C8010E94121E6B
:104210002D2D40E068E006C0C8010E94121E2D2D21
:1042200040E069E0C8010E94121E44E060E0C8015D
:104230000E949A1D44E061E0C8010E949A1D44E07A
:1042400062E0B4CFEFE0CE0EE114F10411F42C2DB6
:10425000FFCD2CE040E06FEFC8010E94121E2C2D14
:1042600040E063E0C8010E94121E6FE0D62EDE0C13
:10427000C7018D7F2D2D40E0019711F46AE001C048
:1042800069E0C8010E94121E40E169E0C8010E9475
:104290009A1D2D2D40E069E0F2E0EF16F10429F0BF
:1042A00085E0E816F10409F054C0C8010E94121E0E
:1042B00040E168E09BC020E030E048EC52E4C301FC
:1042C000B2010E94413487FD19C091E0C916D104A2
:1042D00021F420E140E060E004C02FE02C0D40E03C
:1042E0006FEFC8010E94121E2FE02E0D40E064E027
:1042F000C8010E94121E2FE02A0DAACD20E030E056
:1043000040E251E4C301B2010E9441345FE0952EC6
:104310009C0C87FD24C0292D40E06FEFC8010E944E
:10432000121E2FE02E0D40E0CA94CD2811F463E058
:1043300001C064E0C8010E94121EF1E0AF16B10492
:1043400021F420E140E06AE004C02FE02A0D40E0C3
:1043500069E0C8010E94121E40E169E047C020E008
:1043600030E040E85FE3C301B2010E944134292DEF
:1043700040E06FEF87FD17C0C8010E94121E81E068
:10438000E816F10421F420E140E065E004C02FE0EC
:104390002E0D40E064E0C8010E94121E91E0A916B3
:1043A000B104D9F416C0C8010E94121EE1E0EE1655
:1043B000F10421F420E140E065E004C02FE02E0D7F
:1043C00040E064E0C8010E94121EF1E0AF16B104A3
:1043D00021F420E140E06AE004C02FE02A0D40E033
:1043E00069E0C8010E94121E40E164E0C8012D96F8
:1043F0000FB6F894DEBF0FBECDBFDF91CF911F91F6
:104400000F91FF90EF90DF90CF90BF90AF909F9073
:104410008F907F906F905F904F903F902F900C9473
:104420009A1D2D960FB6F894DEBF0FBECDBFDF915B
:10443000CF911F910F91FF90EF90DF90CF90BF90A1
:10444000AF909F908F907F906F905F904F903F9034
:104450002F900895FC01862F608360E00C948C2CD3
:104460000C942A22FC0180810E94FB2C21E0892BE4
:1044700009F420E0822F08950F931F93CF93DF93C9
:104480001F92CDB7DEB78C0169830E94AC2369818E
:10449000C8010F90DF91CF911F910F910C94AD2324
:1044A0000C94AD23CF93DF93EC010E94C7238111BD
:1044B0000FC062E0CE010E943E24CE010E94F5238F
:1044C000CE010E94A6248C83CE010E94A6248D8357
:1044D000DF91CF910895FC01648170E080E090E06D
:1044E0000E94193320E030E04FE753E40E947E320F
:1044F0009B01AC0160E070E080E89FE30E94B33173
:1045000020E030EC4FE754E40E944C340E94EB3240
:10451000CB010895FC01658170E080E090E00E948D
:10452000193320E030E04FE753E40E947E329B01D4
:10453000AC0160E070E080E89FE30E94B33120E0CE
:1045400030EC4FE754E40E944C340E94EB32CB0134
:1045500008950F931F93CF93DF931F92CDB7DEB7CC
:104560008C0169830E9452226981C801623039F44A
:104570000F90DF91CF911F910F910C948A220F9091
:10458000DF91CF911F910F910C946B220F931F938A
:10459000CF93DF931F92CDB7DEB78C0169830E9462
:1045A000AC236981C8010F90DF91CF911F910F91CA
:1045B0000C94AD230C94AD230F931F93CF93DF93F3
:1045C000EC01162F072F0E94C72381111BC062E048
:1045D000CE010E943E24CE010E94C723811112C049
:1045E000602FCE010E943E24612FCE010E943E2406
:1045F0006CE370E080E090E0DF91CF911F910F912C
:104600000C94792BDF91CF911F910F9108951F93F7
:10461000CF93DF93EC01162F0E94C723811116C0A0
:1046200063E0CE010E943E24CE010E94C723811187
:104630000DC0612FCE010E943E246CE370E080E04B
:1046400090E0DF91CF911F910C94792BDF91CF9166
:104650001F910895CF93DF93EC010E94C72381112E
:104660000CC064E0CE010E943E246CE370E080E068
:1046700090E0DF91CF910C94792BDF91CF91089549
:10468000CF93DF93EC010E94C72381110CC065E03A
:10469000CE010E943E246CE370E080E090E0DF9168
:1046A000CF910C94792BDF91CF910895CF93DF9325
:1046B000EC010E94C72381110CC066E0CE010E946C
:1046C0003E246CE370E080E090E0DF91CF910C94A9
:1046D000792BDF91CF9108951F93CF93DF93EC0156
:1046E000162F623011F06430D9F4CE010E94C72336
:1046F000811116C067E0CE010E943E24CE010E94C7
:10470000C72381110DC0612FCE010E943E2462EDAE
:1047100070E080E090E0DF91CF911F910C94792BB5
:10472000DF91CF911F910895CF93DF93EC010E9409
:10473000C72381110DC068E0CE010E943E24CE0146
:104740000E94F523CE010E94A6248C838C8101C097
:1047500082E0DF91CF9108950895DC016C9370E0C1
:10476000FB01E655FF4FE4911196EC931197FB0185
:10477000E254FF4FE491F0E0EE0FFF1FEE52FF4FC7
:104780008591949113969C938E9312970895FF921E
:104790000F931F93CF93DF938C01FC01F180C281B3
:1047A000D38189818F2989839A818F2D809589234F
:1047B0008A8380EE91E00E94A12B60E0F801808165
:1047C0000E948C2C82E390E00E94A12BC88184E699
:1047D00090E00E94A12BFC2281E009F480E0DF91AF
:1047E000CF911F910F91FF900895AF92BF92CF92FA
:1047F000DF92EF92FF920F931F93CF93DF938C0181
:10480000FC01B180C281D3810E944A2B6B017C01E3
:104810008981AB2CA0948A2189838A818B298A8300
:1048200088818B2169F00E944A2B6C197D098E09C1
:104830009F09653671058105910590F380E013C0ED
:1048400088818B21E9F389818B2989838A818A2157
:104850008A838EE190E00E94A12B60E0F8018081C4
:104860000E948C2C81E0DF91CF911F910F91FF90DE
:10487000EF90DF90CF90BF90AF9008950F931F936C
:10488000CF93DF93EC01062F18E0F89460E0888165
:104890000E94C52C61E088810E948C2C85E090E00C
:1048A0000E94A12B00FF02C061E001C060E088818E
:1048B0000E94C52C069578948EE190E00E94A12B71
:1048C00061E088810E94C52C85E090E00E94A12BC8
:1048D0001150D9F660E08881DF91CF911F910F913F
:1048E0000C948C2CCF92DF92EF92FF921F93CF9378
:1048F000DF93FC011181C281D3810E944A2B6B019D
:104900007C018881812359F00E944A2B6C197D0912
:104910008E099F09643071058105910590F3F89423
:104920008EE190E00E94A12BC881789488E290E00B
:104930000E94A12B1C2381E009F480E0DF91CF913C
:104940001F91FF90EF90DF90CF9008950F931F93EA
:10495000CF93DF93EC0160E088810E948C2C08E00B
:1049600010E0CE010E94722420E8829FC001112431
:104970001695182B0150A9F7812FDF91CF911F9128
:104980000F9108950F931F93CF93DF931F92CDB78D
:10499000DEB78C0169830E94AC236981C8010F9046
:1049A000DF91CF911F910F910C94AD230C94AD2307
:1049B000CF93DF93EC010E94C72381110DC062E009
:1049C000CE010E943E24CE010E94F523CE010E941A
:1049D000A6248C838C8101C080E0DF91CF91089563
:1049E0000F931F93CF93DF931F92CDB7DEB78C0148
:1049F00069830E94AC236981C8010F90DF91CF9138
:104A00001F910F910C94AD230C94AD23CF93DF93A2
:104A1000EC010E94C72381110DC062E0CE010E940B
:104A20003E24CE010E94F523CE010E94A6248C8351
:104A30008C8101C080E0DF91CF9108950F931F9387
:104A4000CF93DF931F92CDB7DEB78C0169830E94AD
:104A5000AC236981C8010F90DF91CF911F910F9115
:104A60000C94AD230C94AD231F93CF93DF93EC01F3
:104A7000162F0E94C72381110EC062E0CE010E9452
:104A80003E24CE010E94C723612FCE01DF91CF913A
:104A90001F910C943E24DF91CF911F910895EF92C6
:104AA000FF920F931F93CF93DF931F92CDB7DEB783
:104AB0007C01DC0112968D919C911397062F10E0DA
:104AC000009749F02D913C912017310779F16983C6
:104AD0000E945C366981F70111830083F3E06F9FC8
:104AE000C00111240E94C435D70113969C938E9364
:104AF0001297892B21F482E691E00E94153780E01D
:104B000090E0F701408151819A01220F331F240F59
:104B1000351F8217930750F4D7011296ED91FC913F
:104B20001397E80FF91F10820196EBCF0F90DF91DA
:104B3000CF911F910F91FF90EF900895CF93DF9346
:104B4000EC01862F262F30E0F901E655FF4FE49166
:104B5000E887F901E254FF4FE491F0E0EE0FFF1F08
:104B6000E452FF4F259134913D832C8361E00E94F4
:104B70008C2C60E2CE01DF91CF910C944F25CF9326
:104B8000DF93EC01862F262F30E0F901E655FF4F29
:104B9000E491E887F901E254FF4FE491F0E0EE0F71
:104BA000FF1FE452FF4F259134913D832C8361E038
:104BB0000E948C2C60E2CE01DF91CF910C944F25A6
:104BC0000F93FC01A62FB0E080819181A817B9074F
:104BD000B8F4862F880F860F90E0A281B381A80FCA
:104BE000B91F2C93A281B381A80FB91F11964C93C2
:104BF0000280F381E02DE80FF91F028381E001C0FC
:104C000080E00F910895CF92DF92EF92FF920F9381
:104C10001F93CF93DF937C01142FD22EC02E6111EE
:104C200013C0C0E0D0E0F70180819181C817D90797
:104C300048F40C2D2D2D412F6C2FC7010E94E0252B
:104C40002196F1CF81E004C061500E94E02580E010
:104C5000DF91CF911F910F91FF90EF90DF90CF9058
:104C600008950F931F93D8013FB7F8949C91822F1A
:104C700080958923292BFB01460F571FE417F50761
:104C800081F0919168E02C9300C097FF8C93990F6D
:104C900000C000C000C008F48C9300C06A9599F76A
:104CA000EDCF3FBF1F910F9108950F931F93FC010C
:104CB0000481158120813181A901440F551F420FC4
:104CC000531F6281738120850E94312661E070E06C
:104CD00080E090E01F910F910C94792BCF93DF939C
:104CE000EC018A819B810E945C361B821A82DF91D3
:104CF000CF9108950F931F93CF93DF931F92CDB75A
:104D0000DEB78C0169830E94AC23F80134968FE0F2
:104D1000DF011D928A95E9F76981C8010F90DF9143
:104D2000CF911F910F910C94AD230C94AD230F9351
:104D3000611116C060E070E0FC01E60FF71F2483EC
:104D4000FB013196E80FF91F4483FB013296E80F0F
:104D5000F91F04836D5F7F4F6F30710569F718C0CD
:104D60006630B0F470E061507109E62FEE0FE60F87
:104D7000F0E0DC01AE0FBF1F14962C93DF011196FB
:104D8000A80FB91F14964C933296E80FF91F0483AD
:104D90000F9108950F931F93CF93DF93EC010E941F
:104DA000C723811117C062E0CE010E943E24CE01CC
:104DB0000E94C72381110EC000E010E0FE01E00F49
:104DC000F11F6481CE010E943E240F5F1F4F0F3000
:104DD0001105A1F7DF91CF911F910F910895FC016B
:104DE00060830895FC01608308950C94EF26FC0114
:104DF00080810E94E72B2FEF33E0A901481B590B5C
:104E0000CA0108950F931F93CF93DF931F92CDB7DD
:104E1000DEB78C0169830E94AB0E6981F801668759
:104E2000C8010F90DF91CF911F910F910C94AC0EA0
:104E30000C94AC0ECF92DF92EF92FF920F931F93E0
:104E4000CF93DF93CDB7DEB72C970FB6F894DEBFC4
:104E50000FBECDBF8C010E94DE0EC8010E94EA0F7A
:104E600040E064E4C8010E94840F0E944A2B6B0159
:104E70007C01C8010E94C20E81110BC00E944A2B06
:104E80006C197D098E099F096E3E7240810591055E
:104E900080F3C8010E94DE0EC8010E94EA0F40E0C4
:104EA0006EEBC8010E94840FCE0101967C016E0159
:104EB00096E0C90ED11CC8010E94CE0FF701819364
:104EC0007F01EC15FD05B9F76A8170E0762F662742
:104ED0008981682B882777FD8095982F0E94193348
:104EE00020E030E040E85DE30E944C342C960FB6A1
:104EF000F894DEBF0FBECDBFDF91CF911F910F9110
:104F0000FF90EF90DF90CF9008950F931F93CF9372
:104F1000DF931F92CDB7DEB78C0169830E94AC236B
:104F20006981C8010F90DF91CF911F910F910C946F
:104F3000AD230C94AD23CF93DF93EC010E94C723E4
:104F400081110DC062E0CE010E943E24CE010E947C
:104F5000F523CE010E94A6248C838C8101C080E0C1
:104F6000DF91CF910895CF93DF931F92CDB7DEB736
:104F700069830E949B27982F6981613019F0623004
:104F800029F008C081E0923041F408C081E09130FE
:104F900021F404C081E0911101C080E00F90DF9105
:104FA000CF9108950F931F93CF93DF931F92CDB7A7
:104FB000DEB78C0169830E94AC236981C8010F9020
:104FC000DF91CF911F910F910C94AD230C94AD23E1
:104FD000CF93DF93EC010E94C72381110DC062E0E3
:104FE000CE010E943E24CE010E94F523CE010E94F4
:104FF000A6248C838C8101C080E0DF91CF9108953D
:10500000CF93DF93EC010E94C72381110FC064E0AE
:10501000CE010E943E24CE010E94C723811106C00A
:105020006C85CE01DF91CF910C943E24DF91CF911E
:1050300008950F931F93CF93DF931F92CDB7DEB7E1
:105040008C0169830E94AC23F801168217821086B6
:1050500011861286138614866981C8010F90DF912C
:10506000CF911F910F910C94AD230C94AD23CF924F
:10507000DF92EF92FF92CF93DF93EC010E94C72360
:10508000882339F0C12CD12C8AEFE82E83E4F82E46
:1050900027C062E0CE010E943E24CE010E94F5238B
:1050A000CE010E94A6248C83CE010E94A6248D836B
:1050B0008D816C8170E0782B80E090E00E94173346
:1050C0002CE53FE84CE851E40E947E326B017C0104
:1050D00020E030E04AEF53E40E944134181694F285
:1050E000C701B601DF91CF91FF90EF90DF90CF9095
:1050F0000895CF93DF93EC010E94C723811123C051
:1051000063E0CE010E943E24CE010E94C72381119C
:105110001AC06E81CE010E943E246F81CE010E9492
:105120003E246885CE010E943E246985CE010E94FE
:105130003E246A85CE010E943E246B85CE01DF911C
:10514000CF910C943E24DF91CF910895FC016683AA
:10515000478320870C947928FC0161874287238745
:105160000C9479280F93FC0160FF03C046832783CA
:10517000008761FF03C0418722870387637021F0A6
:10518000CF010F910C9479280F910895637061F00D
:10519000FC012485442319F0262B248703C0609545
:1051A000622364870C94002808950F931F93CF9374
:1051B000DF931F92CDB7DEB78C0169830E94AC23C9
:1051C0006981C8010F90DF91CF911F910F910C94CD
:1051D000AD230C94AD230F931F93CF93DF931F92B6
:1051E000CDB7DEB78C0169830E94C7236981811125
:1051F0000DC0662311F062E001C063E0C8010F90AA
:10520000DF91CF911F910F910C943E240F90DF916D
:10521000CF911F910F9108951F920F920FB60F9289
:1052200011242F933F934F935F936F937F938F93AB
:105230009F93AF93BF93EF93FF938091EF0387FF0B
:1052400005C010928500109284001AC02091EF03CF
:10525000332727FD30958091EE0390E0281739071A
:105260007CF48091EF03992787FD9095FC01EE0F68
:10527000FF1FE80FF91FE051FC4F808187FD15C02B
:105280008091EF038F5F8093EF032091EF0333272B
:1052900027FD30958091EE0390E028173907BCF484
:1052A0008091EF038C305CF112C08091EF0399275D
:1052B00087FD9095FC01EE0FFF1FE80FF91FE051ED
:1052C000FC4F808160E08F770E94C52CD9CF809100
:1052D000840090918500049680349C4918F480E401
:1052E0009CE905C08091840090918500049690937C
:1052F0008900809388008FEF8093EF0338C020915E
:105300008400309185008091EF03992787FD909567
:10531000FC01EE0FFF1FE80FF91FE051FC4F8181E8
:105320009281820F931F90938900809388008091CF
:10533000EF03992787FD9095FC01EE0FFF1FE80F03
:10534000F91FE051FC4F808187FF11C08091EF036E
:10535000992787FD9095FC01EE0FFF1FE80FF91FBD
:10536000E051FC4F808161E08F770E94C52CFF9156
:10537000EF91BF91AF919F918F917F916F915F91CD
:105380004F913F912F910F900FBE0F901F90189546
:105390002091EE032C30A0F431E0320F3093EE0375
:1053A000FC012083822F90E0FC01EE0FFF1FE80F2D
:1053B000F91FE051FC4F88EB9BE0928381830895B5
:1053C0002FEFFC0120830895DF92EF92FF920F935D
:1053D0001F93CF93DF93EC01D62E7A018901888148
:1053E0008C3008F066C061E08D2D0E948C2C888185
:1053F000A82FB0E0FD01EE0FFF1FEA0FFB1FE051E9
:10540000FC4F2D2D2F7790819078922B908360E226
:1054100072E06E197F0977FF02C06D5F7F4F75954F
:10542000679575956795698340E659E0401B510B78
:1054300057FF02C04D5F5F4F55954795559547956E
:105440004A836CE00E942F359CE0899FB0011124B3
:1054500020E030E0A901460F571FFA01EE0FFF1FB1
:10546000E40FF51FE051FC4F908197FD16C02F5FB0
:105470003F4F2C30310571F781110FC01092800021
:1054800082E0809381001092850010928400B19A8E
:1054900080916F00826080936F00888190E0FC01B2
:1054A000EE0FFF1FE80FF91FE051FC4F808180686D
:1054B00080838881DF91CF911F910F91FF90EF90B2
:1054C000DF90089520E639E040E252E00C94E429B0
:1054D000FC0180818C3070F5918128E830E0291B37
:1054E000310997FD3395220F331F220F331F6217A7
:1054F00073077CF0928128E532E0291B310997FD82
:105500003395220F331F220F331F621773070CF4DA
:105510009B0122503109220F331F4FB7F89490E0BE
:10552000FC01EE0FFF1FE80FF91FE051FC4F328323
:1055300021834FBF08954F925F926F927F92AF92F7
:10554000BF92CF92DF92EF92FF920F931F93CF9370
:10555000DF93EC01603282E078070CF040C077FD09
:1055600006C0653B71052CF064EB70E002C060E0A2
:1055700070E0898128E830E0281B310987FD3395E8
:10558000220F331F220F331F5901CC24B7FCC094C4
:10559000DC2C882777FD8095982F2A8148E552E0FA
:1055A000421B510927FD5395440F551F440F551FAA
:1055B0002A01662457FC6094762C7F926F925F924A
:1055C0004F9214EBE12EF12C00E010E020E030E0EF
:1055D000A9010E946B310F900F900F900F90CE0198
:1055E000DF91CF911F910F91FF90EF90DF90CF90BF
:1055F000BF90AF907F906F905F904F900C94682A0F
:105600001F920F920FB60F9211242F933F938F93F7
:105610009F93AF93BF938091150490911604A0912E
:105620001704B09118043091140423E0230F2D3790
:1056300020F40196A11DB11D05C026E8230F029696
:10564000A11DB11D2093140480931504909316049A
:10565000A0931704B09318048091190490911A0430
:10566000A0911B04B0911C040196A11DB11D809353
:10567000190490931A04A0931B04B0931C04BF91C7
:10568000AF919F918F913F912F910F900FBE0F90EF
:105690001F9018952FB7F894609115047091160417
:1056A00080911704909118042FBF08953FB7F89484
:1056B0008091190490911A04A0911B04B0911C04CC
:1056C00026B5A89B05C02F3F19F00196A11DB11D5D
:1056D0003FBF6627782F892F9A2F620F711D811D7A
:1056E000911D42E0660F771F881F991F4A95D1F7D9
:1056F0000895CF92DF92EF92FF92CF93DF936B01E9
:105700007C010E94562BEB01C114D104E104F10489
:1057100089F00E94B2310E94562B6C1B7D0B683EB3
:10572000734090F381E0C81AD108E108F108C8512C
:10573000DC4FEACFDF91CF91FF90EF90DF90CF90D9
:1057400008958230910538F0880F991F880F991FAE
:1057500005970197F1F70895789484B5826084BD28
:1057600084B5816084BD85B5826085BD85B5816065
:1057700085BDEEE6F0E0808181608083E1E8F0E0C5
:105780001082808182608083808181608083E0E8F4
:10579000F0E0808181608083E1EBF0E080818460D3
:1057A0008083E0EBF0E0808181608083EAE7F0E0D5
:1057B0008081846080838081826080838081816039
:1057C00080838081806880831092C10008958E302C
:1057D00008F08E5087702091220190E4299F90015B
:1057E0001124822B80937C0080917A0080648093C6
:1057F0007A0080917A0086FDFCCF8091780020911C
:10580000790090E0922B08951F93CF93DF93182F88
:10581000EB0161E00E948C2C209711F460E004C041
:10582000CF3FD10539F461E0812FDF91CF911F91F6
:105830000C94C52CE12FF0E0EA56FF4FE491E330E1
:10584000F9F048F4E130B9F0E230A1F584B58062B6
:1058500084BDC8BD34C0E730E9F0E83019F1E43068
:1058600049F580918000806280938000D0938B0006
:10587000C0938A0024C084B5806884BDC7BD1FC0A2
:1058800080918000806880938000D0938900C093CD
:10589000880015C08091B00080688093B000C093EC
:1058A000B3000DC08091B00080628093B000C093BF
:1058B000B40005C0C038D1050CF0B5CFAFCFDF9133
:1058C000CF911F910895833081F028F4813099F0B1
:1058D0008230A1F008958730A9F08830B9F0843083
:1058E000D1F4809180008F7D03C0809180008F77FC
:1058F00080938000089584B58F7702C084B58F7D32
:1059000084BD08958091B0008F7703C08091B0006E
:105910008F7D8093B0000895CF93DF9390E0FC01DA
:10592000E655FF4F2491FC01E254FF4F84918823F8
:1059300049F190E0880F991FFC01EA51FF4FA591B2
:10594000B49184529F4FFC01C591D4919FB76111CE
:1059500008C0F8948C91209582238C9388818223AF
:105960000AC0623051F4F8948C91322F3095832321
:105970008C938881822B888304C0F8948C91822B2D
:105980008C939FBFDF91CF9108950F931F93CF9377
:10599000DF931F92CDB7DEB7282F30E0F901EA562A
:1059A000FF4F8491F901E655FF4F1491F901E2543C
:1059B000FF4F04910023C9F0882321F069830E94DE
:1059C000632C6981E02FF0E0EE0FFF1FE452FF4FE0
:1059D000A591B4919FB7F8948C91611103C0109573
:1059E000812301C0812B8C939FBF0F90DF91CF91BA
:1059F0001F910F910895CF93DF93282F30E0F90185
:105A0000EA56FF4F8491F901E655FF4FD491F90111
:105A1000E254FF4FC491CC2391F081110E94632C7A
:105A2000EC2FF0E0EE0FFF1FEE52FF4FA591B49167
:105A30002C912D2381E090E021F480E002C080E0F1
:105A400090E0DF91CF910895FC01818D228D90E04F
:105A5000805C9F4F821B91098F7399270895FC01E9
:105A6000918D828D981731F0828DE80FF11D858D13
:105A700090E008958FEF9FEF0895FC01918D828D46
:105A8000981761F0828DDF01A80FB11D5D968C9192
:105A9000928D9F5F9F73928F90E008958FEF9FEF9D
:105AA000089581EC9EE2892B49F080E090E0892BFB
:105AB00029F00E94C12E81110C9400000895FC0170
:105AC000848DDF01A80FB11DA35ABF4F2C91848D87
:105AD00090E001968F739927848FA689B7892C93BC
