:100000000C949F000C94C7000C94C7000C94C7007C
:100010000C94C7000C94C7000C94C7000C94F419FE
:100020000C94C7000C94C7000C94C7000C94722B5E
:100030000C94C7000C94C7000C94C7000C94C70024
:100040000C94662D0C94C7000C94CF300C940131A5
:100050000C94C7000C94C7000C94C7000C94C70004
:100060000C94C7000C94C700084AD73B3BCE016EE6
:1000700084BCBFFDC12F3D6C74319ABD56833DDAFF
:100080003D00C77F11BED9E4BB4C3E916BAAAABE0E
:10009000000000803F000000000800020100000393
:1000A0000407000000000000000001020408102006
:1000B00040800102040810200102040810200404FA
:1000C0000404040404040202020202020303030300
:1000D00003030000000023002600290000000000A8
:1000E000250028002B0000000000240027002A0023
:1000F0006364696E6F70737578585B004E414E494A
:100100004E495459494E46CDCCCC3D0AD7233C17D5
:10011000B7D13877CC2B329595E6241FB14F0A0022
:100120000020410000C84200401C4620BCBE4CCA12
:100130001B0E5AAEC59D7400550E3131FE0E1124B2
:100140001FBECFEFD8E0DEBFCDBF11E0A0E0B1E031
:10015000E4E0FDE702C005900D92AC39B107D9F794
:1001600024E0ACE9B1E001C01D92AA3BB207E1F77F
:1001700011E0CCE3D1E004C02297FE010E94F737E2
:10018000C833D107C9F70E9475310C94753E0C94A1
:10019000000061E08DE193E00E94321560E070E0C4
:1001A0008DE193E00E94781562E08DE193E00E947A
:1001B000321560E070E08DE193E00C9478154AE030
:1001C00050E062E070E081E194E00C94823281E0E2
:1001D000809380008BE0809381000895CF93DF931C
:1001E000EEE1F2E0C0E0D0E04191242F30E02817AA
:1001F0003907C9F0411110C0FE01E25EFD4F808356
:100200009E01220F331F2C0F3D1FBC01C9018E5DC3
:100210009D4F0E94C82C07C02196C430D10521F7FC
:1002200080E090E001C0CE01DF91CF910895EF9280
:10023000FF920F931F93CF93DF93EB01FC0160813B
:10024000613401F5FF92EF921F930F933F932F9329
:100250005F934F93DF93CF932BE331E03F932F9343
:100260009F938F930E948839888199810E969983F4
:1002700088838DB79EB70E960FB6F8949EBF0FBEBB
:100280008DBF1AC0FF92EF921F930F933F932F934E
:100290005F934F93DF93CF932CE331E03F932F9302
:1002A0009F938F930E9488398DB79EB70E960FB695
:1002B000F8949EBF0FBE8DBFDF91CF911F910F911C
:1002C000FF90EF900895DC01ED91FC9111979F0153
:1002D0002F5F3F4F2D933C9320812032A1F708954B
:1002E000EF92FF920F931F93CF93DF93CDB7DEB7BB
:1002F0002C970FB6F894DEBF0FBECDBF9C878B87BF
:10030000CE010B960E946301CE0101967C018E0105
:100310000D5F1F4F9E012B5F3F4FAE01495F5F4F47
:10032000BE01675F7F4F8B859C850E9417016985A1
:100330008BEF92E00E94252809812B814D816F81EE
:100340008BEF92E00E9469288BEF92E00E94BB281D
:100350002C960FB6F894DEBF0FBECDBFDF91CF91C4
:100360001F910F91FF90EF900895EF92FF920F93DE
:100370001F93CF93DF93CDB7DEB72C970FB6F894CA
:10038000DEBF0FBECDBF9C878B87CE010B960E9430
:100390006301CE0101967C018E010D5F1F4F9E010E
:1003A0002B5F3F4FAE01495F5F4FBE01675F7F4FDD
:1003B0008B859C850E941701698588EE92E00E94DA
:1003C000FB2809812B814D816F8188EE92E00E948C
:1003D000FD2888EE92E00E9430292C960FB6F89402
:1003E000DEBF0FBECDBFDF91CF911F910F91FF9068
:1003F000EF900895CF93DF93EC010E946301888111
:100400009981DF91CF910C943539CF93DF9300D050
:10041000CDB7DEB79A838983CE0101960E94FA0197
:10042000682F8DE193E00E943215CE0101960E9463
:10043000FA01BC018DE193E00E9478150F900F90B6
:10044000DF91CF910895CF93DF9300D0CDB7DEB782
:100450009A838983CE0101960E94FA01682F83E175
:1004600093E00E948B10CE0101960E94FA01BC011C
:1004700083E193E00E94B0100F900F90DF91CF9135
:100480000895EF92FF920F931F93CF93DF9300D0C5
:10049000CDB7DEB79A838983CE0101960E94FA0117
:1004A0007C01CE0101960E94FA018C01C7010E94D5
:1004B000EE00053B110558F49C01220F331F280F55
:1004C000391FB801C9018E5D9D4F0E94012D0F900B
:1004D0000F90DF91CF911F910F91FF90EF900895B2
:1004E000CF93DF9300D0CDB7DEB79A83898362E0E4
:1004F0008DE193E00E943215CE0101960E94FA012F
:10050000BC018DE193E00E94781561E08DE193E0FC
:100510000E943215CE0101960E94FA01BC018DE1C4
:1005200093E00E9478150F900F90DF91CF9108957E
:100530001F93CF93DF9300D0CDB7DEB79A83898323
:10054000CE0101960E94FA01182F60E00E94F22E5F
:10055000812F0E944D2E4AE050E0BC0181E194E0E1
:100560000E9482320F900F90DF91CF911F910895DA
:100570001F93CF93DF9300D0CDB7DEB79A838983E3
:10058000CE0101960E94FA01182F60E00E94F22E1F
:10059000812F0E944D2E4AE050E0BC0181E194E0A1
:1005A0000E9482320F900F90DF91CF911F9108959A
:1005B000CF93DF9300D0CDB7DEB79A838983CE0186
:1005C00001960E94FA01682F84E093E00E947E2940
:1005D00084E093E00E948029AB01BC0122E030E07E
:1005E00081E194E00E94BF330F900F90DF91CF9193
:1005F00008950F931F93CF93DF9300D0CDB7DEB74D
:100600009A838983CE0101960E94FA018C01CE0162
:1006100001960E94FA019C01442737FD4095542F12
:10062000B80182EE92E00E94E7130F900F90DF91E5
:10063000CF911F910F910895CF93DF9300D0CDB745
:10064000DEB79A838983CE0101960E94FA01682F52
:1006500089E493E00E949B2A89E493E00E949D2A0A
:10066000AB01BC0122E030E081E194E00E94BF33A5
:100670000F900F90DF91CF910895CF93DF9300D02B
:10068000CDB7DEB79A838983CE0101960E94FA0125
:10069000682F86E593E00E94582986E593E00E9442
:1006A0005D294AE050E0BC0181E194E00E94BE3245
:1006B0000F900F90DF91CF9108950F931F93CF93D9
:1006C000DF9300D000D01F92CDB7DEB79A83898325
:1006D000CE0101960E94FA01682FCE0101966D832A
:1006E0000E94FA01182FCE0101960E94FA01482FAC
:1006F000CE0101964C830E94FA01282FCE0101966B
:100700002B830E94FA01082F6D8187E593E00E94F8
:10071000B51B2B814C81612F87E593E00E94001C63
:100720000F900F900F900F900F90DF91CF911F912E
:100730000F9108950F931F93CF93DF9300D000D0B4
:100740001F92CDB7DEB79A838983CE0101960E94AE
:10075000FA01682FCE0101966D830E94FA01182FCD
:10076000CE0101960E94FA01482FCE0101964C83DA
:100770000E94FA01282FCE0101962B830E94FA01D4
:10078000082F6D8189E493E00E949B2A2B814C8184
:10079000612F89E493E00E94182B0F900F900F9027
:1007A0000F900F90DF91CF911F910F910895FF92BD
:1007B0000F931F93CF93DF9300D01F92CDB7DEB777
:1007C0009A838983CE0101960E94FA01682FCE0197
:1007D00001966B830E94FA01F82ECE0101960E94C9
:1007E000FA018C016B8187E593E00E94B51B41E023
:1007F000012B09F440E06F2D87E593E00E94461C31
:100800000F900F900F90DF91CF911F910F91FF905C
:100810000895FF920F931F93CF93DF9300D01F9201
:10082000CDB7DEB79A838983CE0101960E94FA0183
:10083000682FCE0101966B830E94FA01F82ECE013B
:1008400001960E94FA018C016B8189E493E00E9479
:100850009B2A41E0012B09F440E06F2D89E493E0ED
:100860000E942C2B0F900F900F90DF91CF911F9132
:100870000F91FF9008951F93CF93DF9300D01F92A5
:10088000CDB7DEB79A838983CE0101960E94FA0123
:10089000682FCE0101966B830E94FA01182F6B819D
:1008A00083E493E00E94A922612F83E493E00E94F5
:1008B00002234AE050E0BC0181E194E00E94BE3294
:1008C0000F900F900F90DF91CF911F910895FF929D
:1008D0000F931F93CF93DF9300D000D0CDB7DEB737
:1008E0009A838983CE0101960E94FA01682FCE0176
:1008F00001966C830E94FA01F82ECE0101960E94A7
:10090000FA01482FCE0101964B830E94FA018C0117
:100910006C8188E293E00E94491D21E04B81012B0C
:1009200009F420E06F2D88E293E00E94F61E0F90FC
:100930000F900F900F90DF91CF911F910F91FF902B
:1009400008951F93CF93DF9300D000D0CDB7DEB7CB
:100950009A838983CE0101960E94FA01682FCE0105
:1009600001966C830E94FA01182FCE0101960E9415
:10097000FA01482FCE0101964B830E9463016C81DE
:1009800088E293E00E94491D29813A814B81612FC1
:1009900088E293E00E949C1E0F900F900F900F90A2
:1009A000DF91CF911F9108959F92AF92BF92CF9206
:1009B000DF92EF92FF920F931F93CF93DF93CDB708
:1009C000DEB760970FB6F894DEBF0FBECDBF988B31
:1009D0008F878E01015F1F4FC8010E94FA01982E78
:1009E000C8010E94FA01D82EC8010E94FA01C82E3F
:1009F000CE0101967C015C01C8010E94FA01F70159
:100A000081937F01E017F107B9F7692D88E293E040
:100A10000E94491D95014C2D6D2D88E293E00E94A6
:100A20006B1D60960FB6F894DEBF0FBECDBFDF9191
:100A3000CF911F910F91FF90EF90DF90CF90BF90DB
:100A4000AF909F9008951F93CF93DF9300D01F9294
:100A5000CDB7DEB79A838983CE0101960E94FA0151
:100A6000682FCE0101966B830E94FA01182FCE01E8
:100A700001960E94FA01482F6B8188E293E04B8334
:100A80000E94491D4B81612F88E293E00E941C1E49
:100A90000F900F900F90DF91CF911F9108951F93AA
:100AA000CF93DF9300D01F92CDB7DEB79A838983AF
:100AB000CE0101960E94FA01682FCE0101966B8348
:100AC0000E94FA01182FCE0101960E94FA01482FC8
:100AD0006B8188E293E04B830E94491D4B81612F1B
:100AE00088E293E00E94431E0F900F900F90DF91D9
:100AF000CF911F910895CF93DF9300D0CDB7DEB78C
:100B00009A838983CE0101960E94FA01682F88E2B8
:100B100093E00E94491D88E293E00E944B1D0F90D4
:100B20000F90DF91CF9108951F93CF93DF9300D063
:100B3000CDB7DEB79A838983CE0101960E94FA0170
:100B4000182FCE0101960E94FA01682F812F0E9472
:100B50002B2F0F900F90DF91CF911F9108950F933E
:100B60001F93CF93DF9300D01F92CDB7DEB79A8348
:100B70008983CE0101960E94FA01682FCE01019669
:100B80006B830E94FA018C016B8181ED92E00E94DF
:100B9000C31981ED92E00E94C51960E081ED92E0F9
:100BA000012B19F40E94E91902C00E94DE194AE0E3
:100BB00050E0BC0181E194E00E94BE320F900F90A2
:100BC0000F90DF91CF911F910F910895CF93DF93F5
:100BD00000D0CDB7DEB79A838983CE0101960E94FB
:100BE000FA010E944D2E4AE050E0BC0181E194E000
:100BF0000E9482320F900F90DF91CF9108950F9352
:100C00001F93CF93DF9300D0CDB7DEB79A8389834C
:100C1000CE0101960E94FA01182FCE0101960E9482
:100C2000FA01082F61E0812F0E94F22E602F812FA0
:100C30000E942B2F0F900F90DF91CF911F910F915A
:100C40000895CF93DF9300D0CDB7DEB79A83898321
:100C5000CE0101960E94FA01682F83EE92E00E9475
:100C60006A2783EE92E00E946C274AE050E0682FEA
:100C700081E194E00E94A7320F900F90DF91CF9115
:100C80000895FF920F931F93CF93DF9300D01F928D
:100C9000CDB7DEB79A838983CE0101960E94FA010F
:100CA000682FCE0101966B830E94FA01F82ECE01C7
:100CB00001960E94FA018C016B818AEB92E00E94FE
:100CC0002C1141E0012B09F440E06F2D8AEB92E0FA
:100CD0000E942E110F900F900F90DF91CF911F91D6
:100CE0000F91FF900895CF93DF9300D0CDB7DEB77B
:100CF0009A838983CE0101960E94FA01682F89EABE
:100D000092E00E94001489EA92E00E9464140F901D
:100D10000F90DF91CF9108950F931F93CF93DF939F
:100D200000D01F92CDB7DEB79A838983CE0101969A
:100D30000E94FA01682FCE0101966B830E94FA018E
:100D40008C016B8189EA92E00E94001461E0012B22
:100D500009F460E089EA92E00E9478140F900F9005
:100D60000F90DF91CF911F910F9108951F93CF9313
:100D7000DF9300D01F92CDB7DEB79A838983CE016F
:100D800001960E94FA01682FCE0101966B830E94A2
:100D9000FA01182F6B8189EA92E00E940014612FFA
:100DA00089EA92E00E9495144AE050E0BC0181E19A
:100DB00094E00E94BE320F900F900F90DF91CF9180
:100DC0001F9108951F93CF93DF9300D01F92CDB74B
:100DD000DEB79A838983CE0101960E94FA01682FBB
:100DE000CE0101966B830E94FA01182F6B8182EA73
:100DF00092E00E948816612F82EA92E00E94A71674
:100E00004AE050E0682F81E194E00E94A7320F9001
:100E10000F900F90DF91CF911F9108951F93CF9363
:100E2000DF9300D01F92CDB7DEB79A838983CE01BE
:100E300001960E94FA01682FCE0101966B830E94F1
:100E4000FA01182F6B818AE992E00E94801C612FC1
:100E50008AE992E00E949F1C4AE050E0682F81E1FD
:100E600094E00E94A7320F900F900F90DF91CF91E6
:100E70001F9108951F93CF93DF9300D01F92CDB79A
:100E8000DEB79A838983CE0101960E94FA01682F0A
:100E9000CE0101966B830E94FA01182F6B818AE8BC
:100EA00092E00E94D414612F8AE892E00E9411150A
:100EB0004AE050E0BC0181E194E00E94BE320F9014
:100EC0000F900F90DF91CF911F9108951F93CF93B3
:100ED000DF9300D01F92CDB7DEB79A838983CE010E
:100EE00001960E94FA01682FCE0101966B830E9441
:100EF000FA01182F6B818AE492E00E940517612F96
:100F00008AE492E00E946A19AB01BC0122E030E061
:100F100081E194E00E94BF330F900F900F90DF911A
:100F2000CF911F9108950F931F93CF93DF9300D01C
:100F30001F92CDB7DEB79A838983CE0101960E94B6
:100F4000FA01682FCE0101966B830E94FA018C0191
:100F50006B8181E492E00E94982761E0012B09F403
:100F600060E081E492E00E949A270F900F900F902A
:100F7000DF91CF911F910F9108950F931F93CF93FE
:100F8000DF9300D01F92CDB7DEB79A838983CE015D
:100F900001960E94FA01682FCE0101966B830E9490
:100FA000FA018C016B818DE392E00E944F2B61E08E
:100FB000012B09F460E08DE392E00E94512B0F9029
:100FC0000F900F90DF91CF911F910F910895CF93C4
:100FD000DF9300D0CDB7DEB79A838983CE01019627
:100FE0000E94FA01682F88E392E00E94332388E38D
:100FF00092E00E94AF230F900F90DF91CF91089560
:10100000CF93DF9300D0CDB7DEB79A838983CE012B
:1010100001960E94FA01682F88E392E00E94332330
:1010200088E392E00E9499230F900F90DF91CF9177
:101030000895CF93DF9300D0CDB7DEB79A8389832D
:10104000CE0101960E94FA01682F88E392E00E9487
:10105000332388E392E00E9483230F900F90DF9167
:10106000CF9108951F93CF93DF9300D01F92CDB7F8
:10107000DEB79A838983CE0101960E94FA01682F18
:10108000CE0101966B830E94FA01182F6B8188E3D1
:1010900092E00E943323612F88E392E00E94C523EF
:1010A0000F900F900F90DF91CF911F9108950F93A4
:1010B0001F93CF93DF9300D01F92CDB7DEB79A83F3
:1010C0008983CE0101960E94FA01682FCE01019614
:1010D0006B830E94FA018C016B8188E392E00E948D
:1010E0003323B80188E392E00E9435230F900F90DC
:1010F0000F90DF91CF911F910F9108951F93CF9380
:10110000DF9300D01F92CDB7DEB79A838983CE01DB
:1011100001960E94FA01682FCE0101966B830E940E
:10112000FA01182F6B8188E392E00E943323612F2C
:1011300088E392E00E9460230F900F900F90DF9160
:10114000CF911F9108951F93CF93DF9300D01F92EB
:10115000CDB7DEB79A838983CE0101960E94FA014A
:10116000682FCE0101966B830E94FA01182F6B81C4
:1011700082E392E00E941E24612F82E392E00E94AB
:1011800020240F900F900F90DF91CF911F91089521
:101190001F93CF93DF9300D000D0CDB7DEB79A83F3
:1011A0008983CE0101960E94FA01682FCE01019633
:1011B0006C830E94FA01182FCE0101960E94FA0159
:1011C000482FCE0101964B830E9463016C8182E31C
:1011D00092E00E941E2429813A814B81612F82E393
:1011E00092E00E9437240F900F900F900F90DF91A4
:1011F000CF911F910895CF93DF9300D0CDB7DEB785
:101200009A838983CE0101960E94FA01682F82E3B6
:1012100092E00E941E2482E392E00E9423240F9019
:101220000F90DF91CF910895CF93DF9300D0CDB78A
:10123000DEB79A838983CE0101960E94FA01682F56
:101240008EE292E00E94D11C8EE292E00E94D31CBA
:101250004AE050E0BC0181E194E00E94BE320F9070
:101260000F90DF91CF9108950F931F93CF93DF934A
:1012700000D01F92CDB7DEB79A838983CE01019645
:101280000E94FA01682FCE0101966B830E94FA0139
:101290008C016B818EE292E00E94D11C61E0012BF7
:1012A00009F460E08EE292E00E94FF1C0F900F9024
:1012B0000F90DF91CF911F910F910895CF93DF93FE
:1012C000EC010E94630188819981DF91CF910C9498
:1012D0003139CF92DF92EF92FF921F93CF93DF933A
:1012E00000D0CDB7DEB79A838983CE0101960E94E4
:1012F000FA01182FCE0101960E945E096B017C0154
:10130000612F88E293E00E94491DB701A60188E29F
:1013100093E00E94351F0F900F90DF91CF911F91A6
:10132000FF90EF90DF90CF900895CF92DF92EF92F1
:10133000FF921F93CF93DF9300D0CDB7DEB79A8390
:101340008983CE0101960E94FA01182FCE010196E1
:101350000E945E096B017C01612F8FEB92E00E947D
:101360008C11B701A6018FEB92E00E94CF110F9074
:101370000F90DF91CF911F91FF90EF90DF90CF9072
:101380000895BF92CF92DF92EF92FF920F931F9337
:10139000CF93DF9300D01F92CDB7DEB79A838983B6
:1013A000CE0101960E94FA01182FCE0101960E94EB
:1013B000FA01B82ECE0101960E94FA01482FCE0103
:1013C00001964B830E945E096B017C01612F82E3D1
:1013D00092E00E941E24970186014B816B2D82E3CF
:1013E00092E00E94AE240F900F900F90DF91CF916A
:1013F0001F910F91FF90EF90DF90CF90BF900895D5
:10140000882319F06CE471E002C061E571E081E1CC
:1014100094E00C94CD31CF93DF9300D0CDB7DEB7FD
:101420009A838983CE0101960E94FA01682F87ED85
:1014300092E00E94B61ACE0101960E94FA01682F2E
:1014400087ED92E00E94C61A0E94000A0F900F904A
:10145000DF91CF9108951F93CF93DF9300D0CDB745
:10146000DEB79A838983CE0101960E94FA01182F74
:1014700060E00E94F22E812F0E94612F21E0892BD3
:1014800009F020E0822F0E94000A0F900F90DF9158
:10149000CF911F910895CF93DF9300D0CDB7DEB7E2
:1014A0009A838983CE0101960E94FA01682F87E50D
:1014B00093E00E94B51B87E593E00E94B71B91E083
:1014C000811101C090E0892F0E94000A0F900F90B7
:1014D000DF91CF910895CF93DF9300D0CDB7DEB7E2
:1014E0009A838983CE0101960E94FA01682F8CECC1
:1014F00092E00E944C2A8CEC92E00E944E2A91E0ED
:10150000811101C090E0892F0E94000A0F900F9076
:10151000DF91CF9108950F931F93CF93DF9300D066
:101520001F92CDB7DEB79A838983CE0101960E94C0
:10153000FA01682FCE0101966B830E94FA018C019B
:101540006B818AEB92E00E942C118AEB92E00E9460
:101550006511282F30E081E02017310709F080E085
:101560000E94000A0F900F900F90DF91CF911F9172
:101570000F910895CF93DF9300D0CDB7DEB79A8354
:101580008983CE0101960E94FA01682F85EB92E0D3
:101590000E943C2785EB92E00E943E2791E081115A
:1015A00001C090E0892F0E94000A0F900F90DF91F8
:1015B000CF910895CF93DF9300D0CDB7DEB79A8354
:1015C0008983CE0101960E94FA01682F81EA92E098
:1015D0000E94832281EA92E00E948B220E94000AEC
:1015E0000F900F90DF91CF9108951F93CF93DF93CA
:1015F00000D01F92CDB7DEB79A838983CE010196C2
:101600000E94FA01682FCE0101966B830E94FA01B5
:10161000182F6B8185E492E00E94FF29612F85E4F9
:1016200092E00E94192A0E94000A0F900F900F90DA
:10163000DF91CF911F910895CF93DF9300D0CDB765
:10164000DEB79A838983CE0101960E94FA01682F42
:1016500088E392E00E94332388E392E00E94ED2326
:1016600091E0811101C090E0892F0E94000A0F9043
:101670000F90DF91CF910895EF92FF920F931F93F8
:10168000CF93DF931F92CDB7DEB78C0101960E94F6
:1016900035398232910509F4CAC10CF089C0813113
:1016A000910509F49CC10CF041C08930910509F401
:1016B00019C10CF58330910509F45AC174F48130D5
:1016C000910509F44BC10CF04EC1892B09F014C2ED
:1016D0007BE2E72E7AE0F72EE6C18730910509F428
:1016E000F7C00CF0FAC0059709F006C2AFEDEA2E7C
:1016F000A0E0FA2ED8C18D30910509F44DC15CF4FB
:101700008B30910509F4CBC10CF4F1C0E8EDEE2E5D
:10171000E2E0FE2EC8C18F30910509F456C10CF0ED
:1017200059C1FBE8EF2EFAE0FF2EBDC189319105CA
:1017300009F473C1DCF48531910509F45FC15CF4EF
:101740008331910509F450C10CF053C15CE8E52EDA
:1017500056E0F52EA2C18731910509F454C10CF071
:1017600057C19EE0E92E97E0F92E9DC18D3191057C
:1017700009F476C15CF48B31910509F453C10CF086
:101780006AC1F3E9EF2EF7E0FF2E87C18F31910593
:1017900009F457C10CF45AC18032910509F44CC1C7
:1017A000819709F0A9C167EEE62E67E0F62E75C1B4
:1017B0008637910509F4B4C00CF041C08E3691050E
:1017C00009F4B8C00CF58632910509F458C15CF4EF
:1017D0008432910509F44EC10CF047C183EAE82E2A
:1017E00088E0F82E5AC18636910509F48AC08D36F4
:1017F000910509F490C08336910509F07DC186E01A
:10180000E82E8EE0F82E49C18237910509F4A1C077
:101810005CF48037910509F492C00CF095C05BE34D
:10182000E52E54E0F52E3FC18437910509F4A5C09B
:101830000CF0A8C094EDE92E94E0F92E2EC18E375D
:10184000910509F4A4C0DCF48A37910509F4AEC00F
:101850005CF48837910509F468C00CF0A2C064E913
:10186000E62E65E0F62E19C18C37910509F4A3C068
:101870000CF4A6C05FEFE52E55E0F52E0EC18238C0
:10188000910509F406C15CF48038910509F44DC056
:101890000CF0FAC0E9E0EE2EE4E0FE2EFEC0893C3A
:1018A000910551F14CF4883C910509F025C135E0D2
:1018B000E32E32E0F32EF1C08A3C910539F18C3CE5
:1018C000910509F019C123E2E22E22E0F22EE5C0D3
:1018D000FBE0EF2EFAE0FF2EE6C068E9E62E62E0BC
:1018E000F62EE1C050E7E52E51E0F52ED6C049EFC7
:1018F000E42E42E0F42ED1C090E7E92E92E0F92EDA
:10190000CCC089ECE82E80E0F82EC7C0B1E4EB2E05
:10191000B2E0FB2EC2C0AAE9EA2EA3E0FA2EBDC0B7
:10192000FDE5EF2EF3E0FF2EB8C077EDE72E73E074
:10193000F72EB3C06CE1E62E63E0F62EB4C049E6A4
:10194000E42E49E0F42EA9C037E6E32E34E0F32E6E
:10195000A4C021EAE22E24E0F22E9FC0B3E2EB2ED7
:10196000B5E0FB2E9AC0AFE4EA2EA5E0FA2E95C0B2
:10197000FBE7EF2EF5E0FF2E90C0EDE3EE2EE3E067
:10198000FE2E91C07BE4E72E7AE0F72E8CC041E278
:10199000E42E46E0F42E87C035EBE32E31E0F32E43
:1019A0007CC02BE6E22E2AE0F22E7DC09FEAE92ED3
:1019B00095E0F92E78C086EEE82E85E0F82E73C00B
:1019C000B5E9EB2EB9E0FB2E68C0E1E4EE2EE6E0CF
:1019D000FE2E63C07AEBE72E7AE0F72E64C063E751
:1019E000E62E66E0F62E59C046EBE42E46E0F42ED5
:1019F0005AC032EEE32E36E0F32E55C02AEDE22E29
:101A00002AE0F22E50C08AE3E82E87E0F82E4BC081
:101A1000B6E6EB2EB7E0FB2E46C0A5EFEA2EAAE015
:101A2000FA2E41C0EDEBEE2EE7E0FE2E36C07CE153
:101A3000E72E7BE0F72E37C050E0E52E58E0F52E7C
:101A40002CC049E1E42E48E0F42E27C032E3E32E17
:101A500038E0F32E22C027E5E22E28E0F22E1DC04A
:101A60009EE7E92E98E0F92E18C0B8ECEB2EB8E00E
:101A7000FB2E13C0A1ECEA2EA9E0FA2E0EC0FBEF5C
:101A8000EF2EF8E0FF2E09C0E4E1EE2EE9E0FE2E95
:101A90000AC074E3E72E79E0F72E20E005C068EB7A
:101AA000E62E62E0F62E21E0D8010D900020E9F745
:101AB000AD0141505109401B510BE0911104F091CF
:101AC00012040280F381E02DB80181E194E02983C2
:101AD0000995C801F7010995298121110DC067E514
:101AE00071E081E194E00F90DF91CF911F910F9110
:101AF000FF90EF900C94CD310F90DF91CF911F911B
:101B00000F91FF90EF900895FC0120812D3411F486
:101B10000C943C0B089560E083E10E94F22E60E09B
:101B200082E10E94F22E60E080E10E94F22E60E0ED
:101B30008FE00E94F22E61E083E00E94F22E61E0CD
:101B40008EE00E94F22E61E084E00E94F22E61E0BD
:101B50008DE00E94F22E87ED92E00C94CD1A26E0E3
:101B600040E052EC61E070E081E194E00E946D3071
:101B70000C948B0DDF92EF92FF920F931F93CF93F4
:101B8000DF93C7E6D3E00AE511E0F3E0CB36DF07E9
:101B9000A9F1EE24E394F12C8881811102C0E12C9B
:101BA000F12CF801D1908F018D2D0E94612FE81644
:101BB000F90611F18881882311F018821DC060E9AF
:101BC00071E080E090E00E94DF2D6D2D83E693E0D0
:101BD0000E94132683E693E00E942D2661E083E6AF
:101BE00093E00E94A42683E693E00E945B2683E6AE
:101BF00093E00E940C2788832196C7CFDF91CF9175
:101C00001F910F91FF90EF90DF9008950F931F9316
:101C1000CF93DF9380E090E00E94C90060E083E012
:101C20000E942B2F60E084E00E942B2F60E08EE06A
:101C30000E942B2F60E08DE00E942B2F0E94BA0D96
:101C4000CAE5D1E007E613E0F1E0CE35DF0741F168
:101C5000F80181918F01882309F18130A1F4688115
:101C600089E493E00E949B2A20E040E060E089E460
:101C700093E00E940C2B20E040E060E089E493E0D8
:101C80000E94122B0BC0833049F4688188E293E0F4
:101C90000E94491D88E293E00E944B1D2196D4CFFB
:101CA000DF91CF911F910F910895CF93DF9383E63A
:101CB00093E00E94122660E087E593E00E94991B62
:101CC00060E086E593E00E945B2960E089E493E0B0
:101CD0000E947F2A60E083E493E00E94952260E006
:101CE00088E293E00E94451D60E08DE193E00E9450
:101CF0005E1560E083E193E00E94971060E084E06D
:101D000093E00E94682960E08BEF92E00E94042833
:101D100060E088EE92E00E94E02860E083EE92E0CE
:101D20000E94562767E082EE92E00E94801362E0F4
:101D300087ED92E00E94AA1A60E081ED92E00E9495
:101D4000AF1960E08CEC92E00E94382A60E08FEBE3
:101D500092E00E94961160E08AEB92E00E941811D6
:101D600060E085EB92E00E94282760E089EA92E03B
:101D70000E94EC1360E082EA92E00E94741660E038
:101D800081EA92E00E94892260E08AE992E00E9462
:101D90006C1C60E08AE892E00E94B91460E08AE47A
:101DA00092E00E94C51660E085E492E00E94EB2973
:101DB00060E081E492E00E94842760E08DE392E09D
:101DC0000E943B2B60E088E392E00E941F2360E0CA
:101DD00082E392E00E94052460E08EE292E00E949D
:101DE000BD1CC2E2D2E0CE010E942E2C239682E0DE
:101DF000CE32D807C1F7DF91CF9108958BEF92E0F3
:101E00000C94D4281F93CF93DF93C0E8D0E010E266
:101E100081E194E00E948A2F892B81F181E194E095
:101E20000E94A32F20911C0230911D028A30C1F420
:101E3000C9010197FC01E456FE4F40814D3011F479
:101E40009C01F6CFF901E456FE4F108311821092E7
:101E50001D0210921C028CE991E00E94840DD8CFE3
:101E6000F901E456FE4F8083C9010196BE010E942C
:101E7000813790931D0280931C02CACFDF91CF91CE
:101E80001F91089587ED92E00E946A1B0C94020F47
:101E9000089570E0FB01E655FF4FE491DC01EC93FF
:101EA000FB01E254FF4FE491F0E0EE0FFF1FEE5212
:101EB000FF4F25913491FC013283218308951F93B4
:101EC000CF93DF93FC011081C181D2819981812F51
:101ED0008095892389838A81812B8A838AE090E097
:101EE0000E94072E9881912381E009F480E0DF9120
:101EF000CF911F910895FF920F931F93CF93DF937C
:101F0000FC011081C181D281F8948981F12EF09475
:101F10008F2189838A81812B8A8378940DE70150F0
:101F200041F182E090E00E94072E88818123B9F37D
:101F3000F8948A818F218A838981812B898378947F
:101F400080EE91E00E94072EF89489818F21898389
:101F50008A81812B8A8386E490E00E94072E888103
:101F6000812301E009F000E078948AE991E00E9481
:101F7000072E802FDF91CF911F910F91FF90089531
:101F80001F93CF93DF93FC011081C181D281912FE8
:101F9000909560FF12C0F8948A8189238A83898191
:101FA000812B89838AE090E00E94072E8A81812B11
:101FB0008A83789487E390E011C0F8948A8189231A
:101FC0008A838981812B898381E490E00E94072E96
:101FD0008A81812B8A83789485E090E0DF91CF918C
:101FE0001F910C94072E0F931F93CF93DF93FC0147
:101FF0001081C181D281F8948981812B89838A8162
:10200000012F009580238A8383E090E00E94072EB1
:102010008981802389838A81812B8A838AE090E069
:102020000E94072EC881789485E390E00E94072ED5
:102030001C2381E009F480E0DF91CF911F910F9183
:102040000895CF92DF92EF92FF920F931F93CF9359
:10205000DF931F92CDB7DEB76C01E62E08E010E0EB
:10206000FF24F39461E09F2D9E2109F460E0C601F6
:1020700049830E94C00FFF0C0150110949810115CD
:10208000110581F741111DC0F894D6011196ED910B
:10209000FC91129791818C9180958923818311966F
:1020A000ED91FC91129782819C91892B82831196EC
:1020B000ED91FC91129792818C9180958923828376
:1020C00078940F90DF91CF911F910F91FF90EF9037
:1020D000DF90CF900895EF92FF920F931F93CF93CD
:1020E000DF938C01C8E0D0E0F12CEE24E394C8012A
:1020F0000E94F30F8111FE28EE0C2197C1F78F2D5E
:10210000DF91CF911F910F91FF90EF90089540E0E4
:102110006CEC0C942110CF93DF93EC010E941326FA
:102120008CE291E09F838E83DF91CF9108950F938E
:102130001F93CF93DF931F92CDB7DEB78C016983D6
:102140000E941226F8011782168210861186698174
:10215000C8010F90DF91CF911F910F910C948B10BC
:10216000CF92DF92EF92FF92CF93DF93EC016F3F1C
:10217000710519F014F06FEF70E061308FEF7807A0
:1021800014F461E07FEF8E819F818617970709F431
:1021900048C07F836E836B01EE24D7FCE094FE2C55
:1021A000CE0177FD14C00E942D2662E0CE010E9470
:1021B000A426CE010E942D26C701B6010E947F35BC
:1021C00023E333E343E250E40E94E4341BC00E9463
:1021D0002D2662E0CE010E94A426CE010E942D266B
:1021E000C701B6010E947F3523E333E343E250E4A5
:1021F0000E94E4349B01AC0160E070E088EC92E462
:102200000E9419340E945135CE010E94A42684EF09
:1022100091E0DF91CF91FF90EF90DF90CF900C9401
:10222000072EDF91CF91FF90EF90DF90CF90089530
:102230000F931F93CF93DF931F92CDB7DEB78C011F
:1022400069830E9412266981C8010F90DF91CF91A6
:102250001F910F910C9413260C941326EF92FF926A
:102260001F93CF93DF931F92CDB7DEB77C01162F5C
:1022700049830E942D264981811120C0442311F0F9
:1022800063E001C064E0C7010E94A426C7010E9468
:102290002D26811113C0112339F0115061E001C0C6
:1022A000660F1A95EAF701C06FE0C7010F90DF9142
:1022B000CF911F91FF90EF900C94A4260F90DF9187
:1022C000CF911F91FF90EF900895CF93DF93EC0192
:1022D0000E942D2681111CC062E0CE010E94A4261E
:1022E000CE010E945B26CE010E940C278C838C813C
:1022F000823059F018F4813041F008C0843021F068
:10230000883021F484E001C083E08C838C8101C09B
:1023100080E0DF91CF910895CF93DF93EC010E948D
:10232000132681E08C87DF91CF9108950F931F933F
:10233000CF93DF931F92CDB7DEB78C0169830E94E4
:1023400012266981C8010F90DF91CF911F910F91E3
:102350000C948C11CF93DF93EC010E942D268111F8
:102360001BC062E0CE010E94A426CE010E942D2651
:10237000811112C06C81CE010E94A4266D81CE0114
:102380000E94A4266E81CE010E94A4266F81CE01F8
:10239000DF91CF910C94A426DF91CF9108952F92D5
:1023A0003F924F925F926F927F928F929F92AF92E5
:1023B000BF92CF92DF92EF92FF920F931F93CF9332
:1023C000DF93CDB7DEB72F970FB6F894DEBF0FBE01
:1023D000CDBF8C012A013B01FC018485882311F0CB
:1023E00014860CC09A01AB01F80160857185828565
:1023F00093850E94E034882309F469C1F80140867E
:10240000518662867386CE0101969C878B878AE00F
:10241000EB85FC8511928A95E9F720E03CE34CE1DD
:1024200056E4C301B2010E94A73687FD04C089E0CB
:10243000F80184830EC020E030EC49E754ECC3017E
:10244000B2010E94E034181644F080E1F801848360
:1024500089E0858386838783D3C020E030E0A901AB
:10246000C301B2010E94E034811107C080E4F80189
:102470008483858386831782C3C020E030E0A9016E
:10248000C301B2010E94E03487FF07C077FA70945D
:1024900077F87094F1E0FD8701C01D8620E030E000
:1024A0004AE754E4C301B2010E94E4340E9451356A
:1024B0006983C301B2010E944C359B01CB0168EED8
:1024C00073E00E948137E4E6F0E0BF010E948137AB
:1024D0006A83C901BF010E9481374AE0E42EF12CD2
:1024E000B7010E9481376B83C901B7010E94813710
:1024F0005C018C8320E030E040E251E4C301B20192
:102500000E94B2360E944C35CB01B7010E94813740
:102510006C018D8320E030E048EC52E4C301B2014D
:102520000E94B2360E944C35CB01B7010E94813720
:102530004C018E8320E030E04AE754E4C301B2014D
:102540000E94B2360E944C35CB01B7010E94813700
:102550009F878E878F83212CE22CF12CE1E0F0E025
:10256000EC0FFD1FEE0DFF1D3080311002C02394D3
:10257000F3CF20E030E040E85FE3C301B2010E9406
:10258000A73687FD10C0A32CFE01EE0DFF1DC280F3
:10259000FE01EE0DFF1D8380FE01EE0DFF1D848107
:1025A00024E0221907C0BB24DD2499248E859F8551
:1025B000992721E03D85313059F480E1F801848389
:1025C000A582C6828782223051F02130C9F40DC025
:1025D000F801A482C58286828783233021F4868114
:1025E000806286830DC0223029F4F80185818062E3
:1025F000858306C0213021F4F801848180628483C0
:10260000F801848185FF12C08581811148C08681CF
:10261000811145C08781811142C0F80184818F708A
:10262000878380E48483858386831EC0F801858147
:1026300085FF0AC08681811143C08781811140C016
:10264000F80185818F7035C0F801868185FF0CC047
:102650008781811109C086818F70878385818683F8
:102660008481858380E48483C8012F960FB6F89413
:10267000DEBF0FBECDBFDF91CF911F910F91FF90B5
:10268000EF90DF90CF90BF90AF909F908F907F9012
:102690006F905F904F903F902F900C94AA11F8018B
:1026A000868181110DC0F8018781811109C0F8016F
:1026B000858187838481868380E484838583D4CFE6
:1026C000F80187818111D0CFF8018681C6CF2F967E
:1026D0000FB6F894DEBF0FBECDBFDF91CF911F9133
:1026E0000F91FF90EF90DF90CF90BF90AF909F90B1
:1026F0008F907F906F905F904F903F902F900895B4
:1027000060936B0308954F925F926F927F928F92C6
:102710009F92AF92BF92CF92DF92EF92FF920F9370
:102720001F93CF93DF9369017A019B0140E050E052
:1027300060E472E48FE090E00E94B737E90189011C
:1027400037FF02C00F5F1F4F1595079561E080911D
:102750006B030E94F22EA8EEB3E0A70196010E943F
:10276000D6374B015C01C12CD12C76012E01662499
:1027700057FC6094762CC814D904EA04FB04B0F426
:1027800061E080916B030E942B2FC8010E94072EED
:1027900060E080916B030E942B2FC8010E94072EDE
:1027A000A895C40CD51CE61CF71CE5CFDF91CF9192
:1027B0001F910F91FF90EF90DF90CF90BF90AF905F
:1027C0009F908F907F906F905F904F900895F894B6
:1027D0000E948313789408950F931F93CF93DF93F0
:1027E0001F92CDB7DEB78C0169830E9412266981E2
:1027F000C8010F90DF91CF911F910F910C94132678
:102800000C941326CF92DF92EF92FF920F931F93B7
:10281000CF93DF93CDB7DEB728970FB6F894DEBF1E
:102820000FBECDBF8C01CE0101967C0188E0F7017F
:1028300011928A95E9F7C8010E942D26811135C0B1
:1028400062E0C8010E94A426C8010E945B266E01B6
:10285000F9E0CF0ED11CC8010E940C27F70181932B
:102860007F01EC15FD05B9F78A8190E0982F882744
:102870002981822BF801958384838C8190E0982FA5
:1028800088272B81822B978386838E8190E0982FD7
:1028900088272D81822B91878087888590E0982FCB
:1028A00088272F81822B9387828728960FB6F894EA
:1028B000DEBF0FBECDBFDF91CF911F910F91FF9073
:1028C000EF90DF90CF900895CF93DF93EC010E94BB
:1028D0002D2681110AC064E0CE010E94A42688EB57
:1028E0009BE0DF91CF910C94072EDF91CF9108955B
:1028F0001F93CF93DF93EC01162F0E942D26811199
:1029000010C063E0CE010E94A426CE010E942D26B5
:10291000811107C0612FCE01DF91CF911F910C94DF
:10292000A426DF91CF911F9108950F931F93CF930A
:10293000DF931F92CDB7DEB78C0169830E9402142A
:102940006981F801623039F0633041F0613049F457
:102950008481958108C08681978105C08085918595
:1029600002C0828593850F90DF91CF911F910F91C7
:1029700008950F931F93CF93DF931F92CDB7DEB7C8
:102980008C0169830E941226F80115821482178235
:102990001682118610866981C8010F90DF91CF9150
:1029A0001F910F910C9413260C9413260F931F93D1
:1029B000CF93DF93EC010E942D2681112DC062E0A0
:1029C000CE010E94A426CE010E945B2600E010E00A
:1029D000CE010E940C27FE01E00FF11F82870F5FDE
:1029E0001F4F06301105A1F78A8590E0982F8827A0
:1029F0002B85822B9D838C838C8590E0982F882754
:102A00002D85822B9F838E838E8590E0982F88273B
:102A10002F85822B99878887DF91CF911F910F9106
:102A200008950F931F93CF93DF931F92CDB7DEB717
:102A30008C0169830E94D6146981662331F061306C
:102A400041F4F8018681978107C0F801848195815E
:102A500003C0F801808591850F90DF91CF911F9180
:102A60000F9108950F931F93CF93DF93EC01062FDF
:102A700010E0000F111F065F1E4F633050F0F80189
:102A80006081CE010E941326F80181818987188612
:102A90000CC061E0F80181810E94F22EF801808172
:102AA0008D8381818C8381E088878CE291E09F8394
:102AB0008E83DF91CF911F910F9108950F931F93F4
:102AC000CF93DF931F92CDB7DEB78C0169830E944D
:102AD0001226F801178216821086118612866981E5
:102AE000C8010F90DF91CF911F910F910C94321577
:102AF000EF92FF920F931F93CF93DF9300D0CDB748
:102B0000DEB77C01FC018285811109C069837A836B
:102B10000E94E70081E0F70182877A8169818B0159
:102B20006F3F710519F014F00FEF10E00130FFEF67
:102B30001F0714F401E01FEFF701868197818017CA
:102B4000910709F4C8C017830683808517FD4EC01E
:102B5000813079F58481873019F4848160E006C082
:102B6000F7018481883089F4848161E00E942B2FF1
:102B7000F7018581B8010F900F90DF91CF911F91E0
:102B80000F91FF90EF900C946A2EF70184818930A9
:102B900029F0F7018481863009F09DC0848161E0CD
:102BA0000E942B2FF70185816FEF70E0601B710B86
:102BB000E2CFC7010E942D2662E0C7010E94A42631
:102BC000C7010E942D26F7016185C7010E94A42636
:102BD000B801882777FD8095982F0E947F3520E0E7
:102BE00030E040E250E40E94E43464C08130F1F50A
:102BF000F7018481873061F4848161E00E942B2F8A
:102C0000F701858166277727601B710B0E946A2E6A
:102C1000F7018481883061F4848160E00E942B2F69
:102C2000F701858166277727601B710B0E946A2E4A
:102C3000F7018481893059F4858161E00E942B2F4E
:102C4000F7018481B80161507F4F0E946A2EF7011D
:102C50008481863009F03FC0858161E00E942B2F7E
:102C6000F7018481B80161507F4F85CFC7010E9471
:102C70002D2662E0C7010E94A426C7010E942D26CE
:102C8000F7016185C7010E94A426B801882777FD56
:102C90008095982F0E947F3520E030E040E250E49C
:102CA0000E94E4349B01AC0160E070E088EC92E4A7
:102CB0000E9419340E945135C7010E94A42684EF56
:102CC00091E00F900F90DF91CF911F910F91FF90A6
:102CD000EF900C94072E0F900F90DF91CF911F91E2
:102CE0000F91FF90EF9008950F931F93CF93DF9371
:102CF0001F92CDB7DEB78C0169830E9412266981CD
:102D0000C8010F90DF91CF911F910F910C94132662
:102D10000C941326CF93DF93EC010E942D26811192
:102D200013C062E0CE010E94A426CE010E945B2661
:102D3000CE010E940C278C83CE010E940C278D832C
:102D4000CE010E940C278E83DF91CF9108950F93BF
:102D50001F93CF93DF931F92CDB7DEB78C016983AA
:102D60000E948A166981613029F0633031F4F801DC
:102D7000868105C0F801848102C0F80185810F9029
:102D8000DF91CF911F910F9108951F93CF93DF9300
:102D9000EC01162F0E94122640E050E063E872E436
:102DA0004C835D836E837F83188619861A861B8603
:102DB0001C861D861E861F86188A198A1A8A1B8AF7
:102DC0001C8A1D8A1E8A1F8A188E198E1A8E1B8EC7
:102DD0001C8E1D8E1E8E1F8E19A218A21BA21AA257
:102DE0001DA21CA21EA21FA218A619A61AA61BA6E7
:102DF0001CA61DA61EA61FA618AA19AA612FCE01E1
:102E0000DF91CF911F910C9413260C9413262F92CF
:102E10003F924F925F926F927F928F929F92AF926A
:102E2000BF92CF92DF92EF92FF920F931F93CF93B7
:102E3000DF93CDB7DEB768970FB6F894DEBF0FBE4D
:102E4000CDBF1C010E94B02D4B015C01C0906C03F2
:102E5000D0906D03E0906E03F0906F030E94B02D50
:102E600060936C0370936D0380936E0390936F0374
:102E7000C1010E942D26811114C262E0C1010E948D
:102E8000A426C1010E945B2600E010E0C1010E945F
:102E90000C27F101E00FF11F82AB0F5F1F4F0E30C7
:102EA0001105A1F7C501B4016C197D098E099F09AF
:102EB0000E947D3520E030E04AE754E40E94E4348B
:102EC0006B017C01D101D2964C90D297512C542C9D
:102ED0004424D3968C91D397482A91965C924E9233
:102EE0009097D4966C90D497712C762C6624D596B6
:102EF0008C91D597682A93967C926E929297D696EB
:102F00000C91D69710E0102F0027D7968C91D79769
:102F1000082B95961C930E93949714968D909D90E4
:102F2000AD90BC901797DA966C91DA9770E0762F97
:102F30006627DB968C91682B882777FD8095982FE4
:102F40000E947F35F10126A137A140A551A50E941D
:102F50001934A50194010E94E4346D837E838F832C
:102F60009887D10154966D937D938D939C93579739
:102F7000DC966C91DC9770E0762F6627DD968C915D
:102F8000682B882777FD8095982F0E947F35F10167
:102F900022A533A544A555A50E941934A501940185
:102FA0000E94E43469877A878B879C87D101589681
:102FB0006D937D938D939C935B97DE966C91DE97DA
:102FC00070E0762F6627DF968C91682B882777FD37
:102FD0008095982F0E947F35F10126A537A540A93D
:102FE00051A90E941934A50194010E94E4346D870F
:102FF0007E878F87988BD1015C966D937D938D939F
:103000009C935F97B301882777FD8095982F0E9446
:103010007F3569837A838B839C83B801882777FD0A
:103020008095982F0E947F359B01AC010E94B2369B
:10303000698B7A8B8B8B9C8B29813A814B815C814C
:10304000CA01B9010E94B23629893A894B895C8943
:103050000E941A340E9419379B01AC01B2018827E3
:1030600077FD8095982F2D8B3E8B4F8B588F0E942C
:103070007F354B015C012D893E894F89588D0E9417
:103080008D3420E030E044E353E40E94B2362AED70
:103090003FE049E450E40E94E4342B013C01A501E7
:1030A0009401C501B4010E94B23629893A894B893D
:1030B0005C890E941A340E9419379B01AC01698116
:1030C0007A818B819C810E948D3420E030E044E342
:1030D00053E40E94B2362AED3FE049E450E40E94F6
:1030E000E4344B015C01A701960169857A858B85E3
:1030F0009C851016110624F50E94B2369B01AC0186
:10310000F10160857185828593850E941934D10112
:1031100018966D937D938D939C931B97A7019601B1
:103120006D817E818F8198850E94B2369B01AC01B2
:10313000F10164857585868597850E941A3423C0C0
:103140000E94B2369B01AC01F101608571858285D8
:1031500093850E941A34D10118966D937D938D93B7
:103160009C931B97A70196016D817E818F81988525
:103170000E94B2369B01AC01F1016485758586859C
:1031800097850E941934D1011C966D937D938D9380
:103190009C931F97A70196016D857E858F859889E1
:1031A0000E94B236F10120893189428953890E94F7
:1031B0001A346B017C0120E030E044EB53E40E94C0
:1031C000E4340E94BA3520E030E044EB53E40E943E
:1031D000B2369B01AC01C701B6010E9419346B01E4
:1031E0007C0120E030E044E353E40E94A736181647
:1031F00044F0D1015096CD92DD92ED92FC9253971E
:103200000DC020E030E044EB53E4C701B6010E945A
:103210001934F101608B718B828B938B28E431EE32
:103220004AE75FE3D1011C966D917D918D919C9150
:103230001F970E94B2366B017C012AE037ED43EA0A
:103240005CE3C501B4010E94B2369B01AC01C70129
:10325000B6010E941A34F1016487758786879787C3
:1032600028E431EE4AE75FE36085718582859385C6
:103270000E94B2366B017C012AE037ED43EA5CE341
:10328000C301B2010E94B2369B01AC01C701B60175
:103290000E941A34D10118966D937D938D939C935F
:1032A0001B9768960FB6F894DEBF0FBECDBFDF91B7
:1032B000CF911F910F91FF90EF90DF90CF90BF9033
:1032C000AF909F908F907F906F905F904F903F90C6
:1032D0002F9008950F931F93CF93DF931F92CDB735
:1032E000DEB78C0169830E94071769816230E1F0C3
:1032F00050F4662399F0613049F5F80164857585CD
:103300008685978526C06430D9F0A0F06530F1F449
:10331000F801648D758D868D978D1BC0F8016085D1
:1033200071858285938515C0F801608971898289CC
:1033300093890FC0F801648975898689978909C0C6
:10334000F801608D718D828D938D03C060E070E017
:10335000CB010F90DF91CF911F910F9108950F93A3
:103360001F93CF93DF931F92CDB7DEB78C01698394
:103370000E9412266981C8010F90DF91CF911F91A1
:103380000F910C9413260C941326CF93DF93EC012A
:103390000E942D2681110FC062E0CE010E94A4265A
:1033A000CE010E945B26CE010E940C278C83CE01A9
:1033B0000E940C278D83DF91CF910895CF93DF93E7
:1033C000EC0161110E94C5198C8190E0DF91CF91D1
:1033D0000895CF93DF93EC0161110E94C5198D818F
:1033E00090E0DF91CF9108951F920F920FB60F9248
:1033F00011240F931F932F933F934F935F936F93DA
:103400007F938F939F93AF93BF93CF93EF93FF934C
:10341000809174030E94612FC82F20917B0330910B
:103420007C032F5F3F4F30937C0320937B0380917D
:10343000E103843618F085E080937603909176035B
:10344000933079F018F4923039F070C0943011F163
:10345000953009F44AC06AC0C11168C01092E103F6
:1034600029C0C13009F062C0E091E10381E08E0F14
:103470008093E103F0E080917B0390917C03EB5813
:10348000FC4F808710927C0310927B0384E0809332
:1034900076034CC0C11114C0E091E10381E08E0FAE
:1034A0008093E103F0E080917B0390917C03EB58E3
:1034B000FC4F808710927C0310927B0383E0E7CF60
:1034C00080917B0390917C038536910578F185E0AE
:1034D000809376030E94B02D6093770370937803F6
:1034E0008093790390937A0321C00E94B02D0091BC
:1034F0007703109178032091790330917A03601B50
:10350000710B820B930B693C71058105910540F0AD
:103510001092E10310927C0310927B0382E0B7CFFC
:10352000C11104C010927C0310927B03FF91EF91B4
:10353000CF91BF91AF919F918F917F916F915F914B
:103540004F913F912F911F910F910F900FBE0F90B0
:103550001F901895609374038091740360E00E943B
:10356000F22E809174038093750308958091740303
:10357000861759F0609374038091740360E00E9491
:10358000F22E8091740380937503089521E0FC016D
:103590008285861320E0822F0895F89482E080933C
:1035A000B0008093B10094E69093B3001092B20003
:1035B0008093700078941092E103809376030895CD
:1035C0001F93CF93DF93FC01A681B7818C9186581E
:1035D0008D3558F48085918583309105A1F411963D
:1035E0008C9111978152893118F080E090E044C0AD
:1035F00012968C9188508730C0F7158281E08083C5
:1036000081E090E039C0833491057CF311968C9170
:10361000119783548F3248F782E090E040E050E009
:10362000BA019D012F5F3F4FEC01CA0FDB1FC8811C
:10363000C850C730D0F6E901C80FD91F18811751FB
:10364000133180F476956795579547957068029683
:103650008234910549F780E28583418352836383F5
:103660007483CCCFC881C850C73008F0BECF7695E0
:10367000679557954795EBCFDF91CF911F910895AF
:103680000F931F93CF93DF93EC018DE793E09F831C
:103690008E838091E10390E09987888780917603FB
:1036A000853081F4CE010E94E01A8C01CE01011513
:1036B000110529F00E94CD1A01E010E005C00E941A
:1036C000CD1A02C000E010E0C801DF91CF911F9138
:1036D0000F9108950F931F93CF93DF93EC010E94F6
:1036E000401B892B69F00E94B02D6093700370938A
:1036F000710380937203909373038B818A8714C044
:103700000E94B02D009170031091710320917203FB
:1037100030917303601B710B820B930B693C710535
:103720008105910508F01A86DF91CF911F910F91C5
:1037300008950F931F93CF93DF931F92CDB7DEB7FA
:103740008C0169830E941226F80115821682178265
:1037500010861186128613866981C8010F90DF9149
:10376000CF911F910F910C9413260C941326CF9395
:10377000DF93EC010E942D26811111C062E0CE0181
:103780000E94A426CE010E945B26CE010E940C2737
:103790008C8388E293E20E94072E8C8101C080E036
:1037A000DF91CF910895CF93DF93EC010E942D26F6
:1037B000811123C063E0CE010E94A426CE010E94A5
:1037C0002D2681111AC06E81CE010E94A4266F8120
:1037D000CE010E94A4266885CE010E94A426698598
:1037E000CE010E94A4266A85CE010E94A4266B8584
:1037F000CE01DF91CF910C94A426DF91CF91089553
:103800000F93FC0160FF03C046832783008761FF9D
:1038100003C0418722870387637021F0CF010F9196
:103820000C94D31B0F9108951F93CF93DF93EC015A
:10383000162F0E942D26811111C064E0CE010E9436
:10384000A426CE010E942D26811108C01D836D8102
:10385000CE01DF91CF911F910C94A426DF91CF91DF
:103860001F910895FC01658161600C94141CFC019A
:1038700065816E7F0C94141CFC01658162600C9460
:10388000141CFC0165816D7F0C94141C0F931F9315
:10389000CF93DF93EC01062F142F60FF07C0442362
:1038A00019F00E94321C02C00E94371C01FF0FC099
:1038B000CE01112331F0DF91CF911F910F910C9424
:1038C0003C1CDF91CF911F910F910C94411CDF9113
:1038D000CF911F910F9108950F931F93CF93DF9373
:1038E0001F92CDB7DEB78C0169830E9412266981D1
:1038F000C8010F90DF91CF911F910F910C94132667
:103900000C941326CF93DF93EC010E942D26811196
:1039100013C062E0CE010E94A426CE010E945B2665
:10392000CE010E940C278C83CE010E940C278D8330
:10393000CE010E940C278E83DF91CF9108950F93C3
:103940001F93CF93DF931F92CDB7DEB78C016983AE
:103950000E94821C6981662329F0613031F4F801EC
:10396000858105C0F801848102C0F80186810F902D
:10397000DF91CF911F910F9108950F931F93CF93D4
:10398000DF931F92CDB7DEB78C0169830E941226A8
:103990006981C8010F90DF91CF911F910F910C9415
:1039A00013260C941326CF93DF93EC010E942D264F
:1039B000811120C062E0CE010E94A426CE010E94A7
:1039C0005B26CE010E940C27682F70E080E090E01B
:1039D0000E947F3520E030EC4FE754E40E94B2367D
:1039E00020E030E04FE753E40E94E4340E94513578
:1039F000CB0102C080E090E0DF91CF9108950F935A
:103A00001F93CF93DF931F92CDB7DEB78C016983ED
:103A10000E942D26698181110DC0662311F063E09B
:103A200001C064E0C8010F90DF91CF911F910F9109
:103A30000C94A4260F90DF91CF911F910F910895C0
:103A40000F931F93CF93DF9300D01F92CDB7DEB7B4
:103A50008C012B834A8369830E941226F8013496D5
:103A600085E1DF011D928A95E9F74A81F801418FCE
:103A70002B81228F6981C8010F900F900F90DF91E9
:103A8000CF911F910F910C94132625E04EE00C94DA
:103A9000201D0C941326CF93DF93EC01298D80E039
:103AA00090E0821730F4FE01E80FF91F14820196AE
:103AB000F8CFCE010E942D2681110AC065E0CE010B
:103AC0000E94A42688E893E1DF91CF910C94072E01
:103AD000DF91CF9108955F926F927F928F929F9224
:103AE000AF92BF92CF92DF92EF92FF920F931F930C
:103AF000CF93DF93EC01542E4901E98CF12C8A8D90
:103B0000A62EBB24A7FCB094222733272E193F09E9
:103B10002A153B0594F4AE14BF047CF490E0C42E47
:103B2000DD24C7FCD09422273327281B390B2C1502
:103B30003D051CF4C816D90694F0CE01DF91CF9153
:103B40001F910F91FF90EF90DF90CF90BF90AF90BB
:103B50009F908F907F906F905F900C944B1DCE0143
:103B60000E942D2662E0CE010E94A426CE010E9472
:103B70002D26002711270A191B0937016A187B080F
:103B8000AA24BB24AC18BD080615170504F517FDBB
:103B900017C00E151F05A4F4F401E00FF11F60819A
:103BA00057FC06C00C2C01C0660F0A94EAF709C046
:103BB00070E00A2C02C0759567950A94E2F701C07F
:103BC00060E0CE010E94A4260F5F1F4FDDCFDF9182
:103BD000CF911F910F91FF90EF90DF90CF90BF900A
:103BE000AF909F908F907F906F905F9008950F930C
:103BF0001F93CF93DF93EC01062F142F0E942D26E5
:103C0000811115C063E0CE010E94A426CE010E945E
:103C10002D2681110CC0602FCE010E94A426612F99
:103C2000CE01DF91CF911F910F910C94A426DF91CB
:103C3000CF911F910F910895CF93DF93E62FF0E07E
:103C4000DC0159962C91599730E0E217F307C4F440
:103C5000242F30E05A96AC91B0E02A173B0784F449
:103C6000E80FF91F548121E030E001C0220F4A958E
:103C7000EAF7522B54834481DF91CF910C94F71DC6
:103C8000DF91CF910895CF93DF93E62FF0E0DC0131
:103C900059962C91599730E0E217F307CCF4242F72
:103CA00030E05A96AC91B0E02A173B078CF4E80F4D
:103CB000F91F548121E030E001C0220F4A95EAF754
:103CC0002095252324834481DF91CF910C94F71D07
:103CD000DF91CF910895FF920F931F93CF93DF93BE
:103CE000EC01F62E042F122F0E942D2681111EC0EA
:103CF00067E0CE010E94A426CE010E942D268111EC
:103D000015C06F2DCE010E94A426602FCE010E9407
:103D1000A426612FCE010E94A42688EB9BE0DF91B0
:103D2000CF911F910F91FF900C94072EDF91CF91AF
:103D30001F910F91FF900895AF92BF92CF92DF92A3
:103D4000EF92FF920F931F93CF93DF93EC01B62E68
:103D5000A42E790100E010E0C62EDD24C7FCD0942B
:103D6000C8018C0D9D1D8B3F2FEF92071CF1298DF3
:103D700030E08217930724F5F701208121110EC04E
:103D80008C01898D90E008171907D4F440E0602F6A
:103D9000CE010E94F71D0F5F1F4FF3CF21526B2DF5
:103DA000600F2E3518F023E040E001C04A2DCE010F
:103DB0000E946B1E0A5F1F4FFFEFEF1AFF0AD0CF62
:103DC0001FEF1B0D1B143CF440E0612FCE010E943D
:103DD000F71DB12EF5CFDF91CF911F910F91FF907D
:103DE000EF90DF90CF90BF90AF900895EF92FF9249
:103DF0000F931F93CF93DF93EC01862FF42E022FA6
:103E00001AE0612F0E947537E92E2FE0280F40E05D
:103E10006FEFCE010E946B1E2FE02E0D40E064E09C
:103E2000CE010E946B1E8F2D612F0E947537192FB6
:103E30002FE0280F40E06BE0CE010E946B1E2FE0C8
:103E4000210F40E060E1CE010E946B1E002311F0C3
:103E500044E101C040E06AE0CE01DF91CF911F91C3
:103E60000F91FF90EF900C94F71D2F923F924F927D
:103E70005F926F927F928F929F92AF92BF92CF92FA
:103E8000DF92EF92FF920F931F93CF93DF93CDB703
:103E9000DEB72D970FB6F894DEBF0FBECDBF8C01F5
:103EA0002A013B01CE0101969C878B878AE0EB8536
:103EB000FC8511928A95E9F720E030EC49E754E45B
:103EC000C301B2010E94A73687FD04C028E140E08B
:103ED0006FEF0DC020E030E046EC52ECC301B201C0
:103EE0000E94E034181654F12CE040E060E0C80174
:103EF0000E946B1E28E140E064E0C8010E946B1E36
:103F000028E140E069E0C8012D960FB6F894DEBFC5
:103F10000FBECDBFDF91CF911F910F91FF90EF901A
:103F2000DF90CF90BF90AF909F908F907F906F90D9
:103F30005F904F903F902F900C946B1E20E030E0EC
:103F4000A901C301B2010E94E034811102C02FE037
:103F5000D8CF20E030E0A901C301B2010E94E034D3
:103F600087FF07C077FA709477F87094F1E0FD87C7
:103F700001C01D8620E030E04AE754E4C301B201ED
:103F80000E94E4340E9451356983C301B2010E944A
:103F90004C359B01CB0168EE73E00E948137E4E66B
:103FA000F0E0BF010E9481376A83C901BF010E940E
:103FB0008137EAE0EE2EF12CB7010E9481376B8346
:103FC000C901B7010E9481376C018C8320E030E089
:103FD00040E251E4C301B2010E94B2360E944C3566
:103FE000CB01B7010E9481374C018D8320E030E086
:103FF00048EC52E4C301B2010E94B2360E944C3533
:10400000CB01B7010E9481371C018E8320E030E094
:104010004AE754E4C301B2010E94B2360E944C3513
:10402000CB01B7010E9481378F8380E0A82EB12C8D
:10403000E1E0F0E0EC0FFD1FEA0DFB1DF080F11058
:1040400002C08F5FF3CF20E030E040E85FE3C301C0
:10405000B2010E94A73687FD0DC0CF2CD12CFE01E6
:10406000EA0DFB1DE280F12CFE01EA0DFB1DA38091
:10407000B12C05C0DD247401FF245101BB248D85C2
:10408000813009F071C120E030E040E251E4C30129
:10409000B2010E94A73687FD16C02CE040E06FEF0A
:1040A000C8010E946B1E2FE02C0D40E064E0C801A7
:1040B0000E946B1E2FE02E0D40E0CA94CD2809F01F
:1040C00021CF68E020CF20E030E040E85FE3C3018B
:1040D000B2010E94A73687FDFDC1E114F10409F089
:1040E00046C0AB2809F043C023E040E060E0C801CF
:1040F0000E946B1EC6018B7F039799F42FE02C0D55
:1041000040E068E0C8010E946B1E44E066E0C80120
:104110000E94F71D44E067E0C8010E94F71D44E0DB
:1041200021C1E4E0CE16D10499F423E140E068E037
:10413000C8010E946B1E44E065E0C8010E94F71DA3
:1041400044E066E0C8010E94F71D44E067E0A7C1B3
:1041500023E040E060E0C8010E946B1E2CE040E0DC
:1041600065E0C8010E946B1E2FE02C0DCACEF1E065
:10417000CF16D10409F047C0C70101972CE040E0F9
:10418000029790F183E0E816F10461F460E0C80161
:104190000E946B1E20E140E064E0C8010E946B1E9B
:1041A00022E12EC194E0E916F10471F46FEFC80129
:1041B0000E946B1E20E140E063E0C8010E946B1E7C
:1041C00023E140E068E0CAC0E7E0EE16F10461F4E4
:1041D00060E0C8010E946B1E20E140E064E0C8017D
:1041E0000E946B1E26E10CC16FEFC8010E946B1E7E
:1041F00020E140E063E0C8010E946B1E2FE02E0D1D
:1042000040E069E0ABC0F2E0CF16D10409F044C051
:104210002CE040E06FEF82E0E816F10421F0C701E6
:104220000497029700F5C8010E946B1E21E140E04F
:1042300063E0C8010E946B1E2FE02E0D40E092E06B
:10424000E916F10421F0E5E0EE16F10411F469E05D
:1042500001C068E0C8010E946B1E42E067E0C8012F
:104260000E94F71D7EC0C801F1E0EF16F10449F489
:104270000E946B1E21E140E063E0C8010E946B1EBA
:10428000B9C00E946B1E21E140E063E0C8010E94BA
:104290006B1E2FE02E0DB4C083E0C816D10459F573
:1042A0007FE0D72EDE0CC701039722E140E062E0F9
:1042B000029720F097E0E916F10439F4C8010E9452
:1042C0006B1E2D2D40E068E006C0C8010E946B1EE9
:1042D0002D2D40E069E0C8010E946B1E44E060E0C3
:1042E000C8010E94F71D44E061E0C8010E94F71D6B
:1042F00044E062E0B4CFEFE0CE0EE114F10411F43B
:104300002C2DFFCD2CE040E06FEFC8010E946B1E0A
:104310002C2D40E063E0C8010E946B1E6FE0D62E9A
:10432000DE0CC7018D7F2D2D40E0019711F46AE06E
:1043300001C069E0C8010E946B1E40E169E0C8014C
:104340000E94F71D2D2D40E069E0F2E0EF16F10428
:1043500029F085E0E816F10409F054C0C8010E9474
:104360006B1E40E168E09BC020E030E048EC52E486
:10437000C301B2010E94A73687FD19C091E0C9169A
:10438000D10421F420E140E060E004C02FE02C0DD6
:1043900040E06FEFC8010E946B1E2FE02E0D40E041
:1043A00064E0C8010E946B1E2FE02A0DAACD20E018
:1043B00030E040E251E4C301B2010E94A7365FE061
:1043C000952E9C0C87FD24C0292D40E06FEFC8017D
:1043D0000E946B1E2FE02E0D40E0CA94CD2811F4F0
:1043E00063E001C064E0C8010E946B1EF1E0AF16FB
:1043F000B10421F420E140E06AE004C02FE02A0D7E
:1044000040E069E0C8010E946B1E40E169E047C0DE
:1044100020E030E040E85FE3C301B2010E94A7362C
:10442000292D40E06FEF87FD17C0C8010E946B1E69
:1044300081E0E816F10421F420E140E065E004C0E9
:104440002FE02E0D40E064E0C8010E946B1E91E059
:10445000A916B104D9F416C0C8010E946B1EE1E090
:10446000EE16F10421F420E140E065E004C02FE005
:104470002E0D40E064E0C8010E946B1EF1E0AF1613
:10448000B10421F420E140E06AE004C02FE02A0DED
:1044900040E069E0C8010E946B1E40E164E0C80191
:1044A0002D960FB6F894DEBF0FBECDBFDF91CF9132
:1044B0001F910F91FF90EF90DF90CF90BF90AF9042
:1044C0009F908F907F906F905F904F903F902F9034
:1044D0000C94F71D2D960FB6F894DEBF0FBECDBF1E
:1044E000DF91CF911F910F91FF90EF90DF90CF90D0
:1044F000BF90AF909F908F907F906F905F904F9004
:104500003F902F900895FC01862F608360E00C940B
:10451000F22E0C948322FC0180810E94612F21E005
:10452000892B09F420E0822F08950F931F93CF93D6
:10453000DF931F92CDB7DEB78C0169830E941226EC
:104540006981C8010F90DF91CF911F910F910C9459
:1045500013260C941326CF93DF93EC010E942D2693
:1045600081110FC062E0CE010E94A426CE010E94FC
:104570005B26CE010E940C278C83CE010E940C2763
:104580008D83DF91CF910895FC01648170E080E01C
:1045900090E00E947F3520E030E04FE753E40E9436
:1045A000E4349B01AC0160E070E080E89FE30E948E
:1045B000193420E030EC4FE754E40E94B2360E94F8
:1045C0005135CB010895FC01658170E080E090E0F9
:1045D0000E947F3520E030E04FE753E40E94E4344E
:1045E0009B01AC0160E070E080E89FE30E94193419
:1045F00020E030EC4FE754E40E94B2360E9451357F
:10460000CB0108950F931F93CF93DF931F92CDB7E4
:10461000DEB78C0169830E94AB226981C8016230D8
:1046200039F40F90DF91CF911F910F910C94E322F9
:104630000F90DF91CF911F910F910C94C4220F9393
:104640001F93CF93DF931F92CDB7DEB78C016983A1
:104650000E9412266981C8010F90DF91CF911F91AE
:104660000F910C9413260C9413260F931F93CF9342
:10467000DF93EC01162F072F0E942D2681111BC0FE
:1046800062E0CE010E94A426CE010E942D26811157
:1046900012C0602FCE010E94A426612FCE010E947D
:1046A000A4266CE370E080E090E0DF91CF911F9151
:1046B0000F910C94DF2DDF91CF911F910F910895F1
:1046C0001F93CF93DF93EC01162F0E942D268111AB
:1046D00016C063E0CE010E94A426CE010E942D26C2
:1046E00081110DC0612FCE010E94A4266CE370E001
:1046F00080E090E0DF91CF911F910C94DF2DDF914E
:10470000CF911F910895CF93DF93EC010E942D2646
:1047100081110CC064E0CE010E94A4266CE370E01D
:1047200080E090E0DF91CF910C94DF2DDF91CF916D
:104730000895CF93DF93EC010E942D2681110CC0C8
:1047400065E0CE010E94A4266CE370E080E090E07A
:10475000DF91CF910C94DF2DDF91CF910895CF930E
:10476000DF93EC010E942D2681110CC066E0CE0182
:104770000E94A4266CE370E080E090E0DF91CF918E
:104780000C94DF2DDF91CF9108951F93CF93DF938A
:10479000EC01162F623011F06430D9F4CE010E9482
:1047A0002D26811116C067E0CE010E94A426CE01FD
:1047B0000E942D2681110DC0612FCE010E94A426DA
:1047C00062ED70E080E090E0DF91CF911F910C945A
:1047D000DF2DDF91CF911F910895CF93DF93EC01EF
:1047E0000E942D2681110DC068E0CE010E94A426F2
:1047F000CE010E945B26CE010E940C278C838C8107
:1048000001C082E0DF91CF9108950F931F93CF9362
:10481000DF931F92CDB7DEB78C0169830E94122609
:1048200088E0F801848382E085836981C8010F9064
:10483000DF91CF911F910F910C9413260C941326A6
:10484000FC0164830895CF93DF93EC010E942D2631
:1048500081110AC064E0CE010E94A42688EB9BE08F
:10486000DF91CF910C94072EDF91CF910895EF92B5
:10487000FF920F931F93CF93DF93EC01E62EF42E5C
:1048800089010E942D2681112DC062E0CE010E9477
:10489000A426CE010E942D26811124C06C81CE0158
:1048A0000E94A4266E2DCE010E94A4266F2DCE015B
:1048B0000E94A426F12CF801EF0DF11D6081CE01BC
:1048C000662321F00E94A426F394F5CF0E94A4262B
:1048D00088EB9BE0DF91CF911F910F91FF90EF90BC
:1048E0000C94072EDF91CF911F910F91FF90EF90C5
:1048F0000895FF920F931F93CF93DF93EC01F62E51
:10490000042F122F0E942D26811122C065E0CE01B6
:104910000E94A426CE010E942D26811119C06C810F
:10492000CE010E94A4266F2DCE010E94A426602FE6
:10493000CE010E94A426612FCE010E94A42688EBFE
:104940009BE0DF91CF911F910F91FF900C94072E68
:10495000DF91CF911F910F91FF9008952F923F9279
:104960004F925F926F927F928F929F92AF92BF927F
:10497000CF92DF92EF92FF920F931F93CF93DF932B
:1049800000D000D0CDB7DEB71C016B834C8348014B
:10499000590120E030E0A901C501B4010E94E034D2
:1049A00081111CC020E04C816B81C1010F900F90E0
:1049B0000F900F90DF91CF911F910F91FF90EF908B
:1049C000DF90CF90BF90AF909F908F907F906F902F
:1049D0005F904F903F902F900C94792420E030E02E
:1049E000A901C501B4010E94E03487FF0DC02DEF7D
:1049F0004C816B81C1010E9479248B81885F8B83FC
:104A0000B7FAB094B7F8B094C501B4010E944C3520
:104A10006B017C010E947F359B01AC01C501B40193
:104A20000E9419344B015C011C141D041E041F0458
:104A30000CF097C0412C8AEC582E8AE9682E8BE343
:104A4000782EC701B601A30192010E94B737232B2C
:104A5000242B252B59F4C301B2012AE030E040E0B9
:104A600050E00E94B73729013A01EBCFF2E04F1630
:104A700051046104710424F1C701B601A30192013C
:104A80000E94B737162F082F392F4C816B81C10137
:104A90003A8379830E947924C12E7981D72EE02E22
:104AA0003A81F32EC301B2012AE030E040E050E049
:104AB0000E94B73729013A01EB81E85FEB83D6CF3B
:104AC0002C2D4C816B81C1010E94792420E030E0C3
:104AD000A901C501B4010E94A73618160CF08BC0BD
:104AE000F1018581882309F486C06B81685F2EEF10
:104AF0004C81C1010E9479247B80F0E17F0E10E09F
:104B0000F1018581181708F076C020E030E040E21E
:104B100051E4C501B4010E94B2366B017C010E94D0
:104B20005135062F262F4C81672DC1010E94792413
:104B3000602F70E080E090E00E947F359B01AC0127
:104B4000C701B6010E9419344B015C01F8E07F0EE9
:104B50001F5F20E030E0A9010E94A736181684F2FA
:104B60004AC0F1018581882309F445C020E04C81C9
:104B70006B81C1010E9479246B81685F2EEF4C81AB
:104B8000C1010E9479247B80F0E17F0EF101158242
:104B900010E020E030E0A901C501B4010E94A73671
:104BA00018164CF5F1018581181728F520E030E042
:104BB00040E251E4C501B4010E94B2366B017C01B0
:104BC0000E945135062F262F4C81672DC1010E946E
:104BD0007924602F70E080E090E00E947F359B0197
:104BE000AC01C701B6010E9419344B015C01F8E029
:104BF0007F0E1F5FCECF0F900F900F900F90DF9121
:104C0000CF911F910F91FF90EF90DF90CF90BF90C9
:104C1000AF909F908F907F906F905F904F903F905C
:104C20002F9008950895DC016C9370E0FB01E65528
:104C3000FF4FE4911196EC931197FB01E254FF4F63
:104C4000E491F0E0EE0FFF1FEE52FF4F859194913B
:104C500013969C938E9312970895FF920F931F9330
:104C6000CF93DF938C01FC01F180C281D3818981D4
:104C70008F2989839A818F2D809589238A8380EE5D
:104C800091E00E94072E60E0F80180810E94F22EE0
:104C900082E390E00E94072EC88184E690E00E94A3
:104CA000072EFC2281E009F480E0DF91CF911F9173
:104CB0000F91FF900895AF92BF92CF92DF92EF9243
:104CC000FF920F931F93CF93DF938C01FC01B18070
:104CD000C281D3810E94B02D6B017C018981AB2CF4
:104CE000A0948A2189838A818B298A8388818B2158
:104CF00069F00E94B02D6C197D098E099F096536F7
:104D000071058105910590F380E013C088818B21A6
:104D1000E9F389818B2989838A818A218A838EE1BB
:104D200090E00E94072E60E0F80180810E94F22E40
:104D300081E0DF91CF911F910F91FF90EF90DF9075
:104D4000CF90BF90AF9008950F931F93CF93DF93B1
:104D5000EC01062F18E0F89460E088810E942B2F68
:104D600061E088810E94F22E85E090E00E94072E8B
:104D700000FF02C061E001C060E088810E942B2F2B
:104D8000069578948EE190E00E94072E61E088817C
:104D90000E942B2F85E090E00E94072E1150D9F63B
:104DA00060E08881DF91CF911F910F910C94F22EDA
:104DB000CF92DF92EF92FF921F93CF93DF93FC018C
:104DC0001181C281D3810E94B02D6B017C01888149
:104DD000812359F00E94B02D6C197D098E099F091D
:104DE000643071058105910590F3F8948EE190E0AF
:104DF0000E94072EC881789488E290E00E94072ED6
:104E00001C2381E009F480E0DF91CF911F91FF9096
:104E1000EF90DF90CF9008950F931F93CF93DF9380
:104E2000EC0160E088810E94F22E08E010E0CE01E3
:104E30000E94D82620E8829FC00111241695182BC5
:104E40000150A9F7812FDF91CF911F910F91089504
:104E50000F931F93CF93DF931F92CDB7DEB78C01D3
:104E600069830E9412266981C8010F90DF91CF915A
:104E70001F910F910C9413260C941326CF93DF935C
:104E8000EC010E942D2681110DC062E0CE010E942E
:104E9000A426CE010E945B26CE010E940C278C83A3
:104EA0008C8101C080E0DF91CF9108950F931F9313
:104EB000CF93DF931F92CDB7DEB78C0169830E9439
:104EC00012266981C8010F90DF91CF911F910F9138
:104ED0000C9413260C941326CF93DF93EC010E94BD
:104EE0002D2681110DC062E0CE010E94A426CE01C4
:104EF0000E945B26CE010E940C278C838C8101C00E
:104F000080E0DF91CF9108950F931F93CF93DF93AC
:104F10001F92CDB7DEB78C0169830E94122669818A
:104F2000C8010F90DF91CF911F910F910C94132620
:104F30000C9413261F93CF93DF93EC01162F0E943E
:104F40002D2681110EC062E0CE010E94A426CE0162
:104F50000E942D26612FCE01DF91CF911F910C94DD
:104F6000A426DF91CF911F910895EF92FF920F93A6
:104F70001F93CF93DF931F92CDB7DEB77C01DC0187
:104F800012968D919C911397062F10E0009749F08F
:104F90002D913C912017310779F169830E94A23845
:104FA0006981F70111830083F3E06F9FC001112431
:104FB0000E940A38D70113969C938E931297892BDF
:104FC00021F48EE591E00E945B3980E090E0F701EA
:104FD000408151819A01220F331F240F351F821700
:104FE000930750F4D7011296ED91FC911397E80FB7
:104FF000F91F10820196EBCF0F90DF91CF911F9197
:105000000F91FF90EF900895CF93DF93EC01862FDF
:10501000262F30E0F901E655FF4FE491E887F901CA
:10502000E254FF4FE491F0E0EE0FFF1FE452FF4F18
:10503000259134913D832C8361E00E94F22E60E241
:10504000CE01DF91CF910C94B527CF93DF93EC0184
:10505000862F262F30E0F901E655FF4FE491E887CF
:10506000F901E254FF4FE491F0E0EE0FFF1FE4522C
:10507000FF4F259134913D832C8361E00E94F22EF5
:1050800060E2CE01DF91CF910C94B5270F93FC0124
:10509000A62FB0E080819181A817B907B8F4862FB8
:1050A000880F860F90E0A281B381A80FB91F2C93BF
:1050B000A281B381A80FB91F11964C930280F3818E
:1050C000E02DE80FF91F028381E001C080E00F911D
:1050D0000895CF92DF92EF92FF920F931F93CF9399
:1050E000DF937C01142FD22EC02E611113C0C0E0BB
:1050F000D0E0F70180819181C817D90748F40C2DC1
:105100002D2D412F6C2FC7010E9446282196F1CFEB
:1051100081E004C061500E94462880E0DF91CF9179
:105120001F910F91FF90EF90DF90CF9008950F9314
:105130001F93D8013FB7F8949C91822F80958923C3
:10514000292BFB01460F571FE417F50781F09191BA
:1051500068E02C9300C097FF8C93990F00C000C0AB
:1051600000C008F48C9300C06A9599F7EDCF3FBF5B
:105170001F910F9108950F931F93FC0104811581D6
:1051800020813181A901440F551F420F531F6281B5
:10519000738120850E94972861E070E080E090E0B4
:1051A0001F910F910C94DF2DCF93DF93EC018A8137
:1051B0009B810E94A2381B821A82DF91CF910895B1
:1051C0000F931F93CF93DF931F92CDB7DEB78C0160
:1051D00069830E941226F80134968FE0DF011D9248
:1051E0008A95E9F76981C8010F90DF91CF911F91EE
:1051F0000F910C9413260C9413260F93611116C073
:1052000060E070E0FC01E60FF71F2483FB0131969C
:10521000E80FF91F4483FB013296E80FF91F04835E
:105220006D5F7F4F6F30710569F718C06630B0F45D
:1052300070E061507109E62FEE0FE60FF0E0DC013F
:10524000AE0FBF1F14962C93DF011196A80FB91F44
:1052500014964C933296E80FF91F04830F9108952A
:105260000F931F93CF93DF93EC010E942D268111A2
:1052700017C062E0CE010E94A426CE010E942D2616
:1052800081110EC000E010E0FE01E00FF11F64810B
:10529000CE010E94A4260F5F1F4F0F301105A1F70A
:1052A000DF91CF911F910F910895FC0160830895C4
:1052B000FC01608308950C945529FC0180810E94B3
:1052C0004D2E2FEF33E0A901481B590BCA01089559
:1052D0000F931F93CF93DF931F92CDB7DEB78C014F
:1052E00069830E94480F6981F8016687C8010F90A1
:1052F000DF91CF911F910F910C94490F0C94490F9E
:10530000CF92DF92EF92FF920F931F93CF93DF9391
:10531000CDB7DEB72C970FB6F894DEBF0FBECDBF6A
:105320008C010E947B0FC8010E94871040E064E45A
:10533000C8010E9421100E94B02D6B017C01C801A0
:105340000E945F0F81110BC00E94B02D6C197D0966
:105350008E099F096E3E72408105910580F3C80158
:105360000E947B0FC8010E94871040E06EEBC801CD
:105370000E942110CE0101967C016E0196E0C90EBB
:10538000D11CC8010E946B10F70181937F01EC15BD
:10539000FD05B9F76A8170E0762F66278981682B51
:1053A000882777FD8095982F0E947F3520E030E098
:1053B00040E85DE30E94B2362C960FB6F894DEBF4B
:1053C0000FBECDBFDF91CF911F910F91FF90EF9056
:1053D000DF90CF9008950F931F93CF93DF931F9289
:1053E000CDB7DEB78C0169830E9412266981C8019E
:1053F0000F90DF91CF911F910F910C9413260C9475
:105400001326CF93DF93EC010E942D2681110DC04E
:1054100062E0CE010E94A426CE010E945B26CE014E
:105420000E940C278C838C8101C080E0DF91CF919A
:105430000895CF93DF931F92CDB7DEB769830E94A3
:10544000012A982F6981613019F0623029F008C073
:1054500081E0923041F408C081E0913021F404C031
:1054600081E0911101C080E00F90DF91CF9108950C
:105470000F931F93CF93DF931F92CDB7DEB78C01AD
:1054800069830E9412266981C8010F90DF91CF9134
:105490001F910F910C9413260C941326CF93DF9336
:1054A000EC010E942D2681110DC062E0CE010E9408
:1054B000A426CE010E945B26CE010E940C278C837D
:1054C0008C8101C080E0DF91CF910895CF93DF936D
:1054D000EC010E942D2681110FC064E0CE010E94D4
:1054E000A426CE010E942D26811106C06C85CE0116
:1054F000DF91CF910C94A426DF91CF9108950F9363
:105500001F93CF93DF931F92CDB7DEB78C016983D2
:105510000E941226F80116821782108611861286C2
:10552000138614866981C8010F90DF91CF911F9176
:105530000F910C9413260C941326CF92DF92EF92C6
:10554000FF92CF93DF93EC010E942D26882339F040
:10555000C12CD12C8AEFE82E83E4F82E27C062E01C
:10556000CE010E94A426CE010E945B26CE010E949D
:105570000C278C83CE010E940C278D838D816C813A
:1055800070E0782B80E090E00E947D352CE53FE8CC
:105590004CE851E40E94E4346B017C0120E030E0EF
:1055A0004AEF53E40E94A736181694F2C701B601D9
:1055B000DF91CF91FF90EF90DF90CF900895CF9340
:1055C000DF93EC010E942D26811123C063E0CE0100
:1055D0000E94A426CE010E942D2681111AC06E8140
:1055E000CE010E94A4266F81CE010E94A426688568
:1055F000CE010E94A4266985CE010E94A4266A8558
:10560000CE010E94A4266B85CE01DF91CF910C9430
:10561000A426DF91CF910895FC01668347832087FC
:105620000C94DF2AFC016187428723870C94DF2AD0
:105630000F93FC0160FF03C046832783008761FF4F
:1056400003C0418722870387637021F0CF010F9148
:105650000C94DF2A0F910895637061F0FC0124859A
:10566000442319F0262B248703C0609562236487A6
:105670000C94662A08950F931F93CF93DF931F9284
:10568000CDB7DEB78C0169830E9412266981C801FB
:105690000F90DF91CF911F910F910C9413260C94D2
:1056A00013260F931F93CF93DF931F92CDB7DEB7CF
:1056B0008C0169830E942D26698181110DC06623AA
:1056C00011F062E001C063E0C8010F90DF91CF915B
:1056D0001F910F910C94A4260F90DF91CF911F91F1
:1056E0000F9108951F920F920FB60F9211242F93CE
:1056F0003F934F935F936F937F938F939F93AF935A
:10570000BF93EF93FF938091E30387FF05C010924F
:105710008500109284001AC02091E303332727FDEF
:1057200030958091E20390E0281739077CF480914E
:10573000E303992787FD9095FC01EE0FFF1FE80F0B
:10574000F91FEC51FC4F808187FD15C08091E30368
:105750008F5F8093E3032091E303332727FD309588
:105760008091E20390E028173907BCF48091E303AD
:105770008C305CF112C08091E303992787FD9095EE
:10578000FC01EE0FFF1FE80FF91FEC51FC4F808169
:1057900060E08F770E942B2FD9CF80918400909169
:1057A0008500049680349C4918F480E49CE905C087
:1057B0008091840090918500049690938900809355
:1057C00088008FEF8093E30338C0209184003091EC
:1057D00085008091E303992787FD9095FC01EE0FEA
:1057E000FF1FE80FF91FEC51FC4F81819281820F5E
:1057F000931F90938900809388008091E3039927F9
:1058000087FD9095FC01EE0FFF1FE80FF91FEC518B
:10581000FC4F808187FF11C08091E303992787FDAA
:105820009095FC01EE0FFF1FE80FF91FEC51FC4FA4
:10583000808161E08F770E942B2FFF91EF91BF91C4
:10584000AF919F918F917F916F915F914F913F9118
:105850002F910F900FBE0F901F9018952091E2038B
:105860002C30A0F431E0320F3093E203FC012083AE
:10587000822F90E0FC01EE0FFF1FE80FF91FEC51A3
:10588000FC4F88EB9BE09283818308952FEFFC010E
:1058900020830895DF92EF92FF920F931F93CF938F
:1058A000DF93EC01D62E7A01890188818C3008F0D3
:1058B00066C061E08D2D0E94F22E8881A82FB0E095
:1058C000FD01EE0FFF1FEA0FFB1FEC51FC4F2D2DCA
:1058D0002F7790819078922B908360E272E06E191E
:1058E0007F0977FF02C06D5F7F4F7595679575954E
:1058F0006795698340E659E0401B510B57FF02C092
:105900004D5F5F4F55954795559547954A836CE098
:105910000E9475379CE0899FB001112420E030E09F
:10592000A901460F571FFA01EE0FFF1FE40FF51FE5
:10593000EC51FC4F908197FD16C02F5F3F4F2C30EC
:10594000310571F781110FC01092800082E08093C1
:1059500081001092850010928400B19A80916F00AE
:10596000826080936F00888190E0FC01EE0FFF1F42
:10597000E80FF91FEC51FC4F80818068808388819B
:10598000DF91CF911F910F91FF90EF90DF900895DD
:1059900020E639E040E252E00C944A2CFC01808180
:1059A0008C3070F5918128E830E0291B310997FD92
:1059B0003395220F331F220F331F621773077CF0BA
:1059C000928128E532E0291B310997FD3395220F9A
:1059D000331F220F331F621773070CF49B012250F1
:1059E0003109220F331F4FB7F89490E0FC01EE0FFE
:1059F000FF1FE80FF91FEC51FC4F328321834FBF8B
:105A000008954F925F926F927F92AF92BF92CF9222
:105A1000DF92EF92FF920F931F93CF93DF93EC01EE
:105A2000603282E078070CF040C077FD06C0653B2D
:105A300071052CF064EB70E002C060E070E08981D9
:105A400028E830E0281B310987FD3395220F331FEA
:105A5000220F331F5901CC24B7FCC094DC2C8827BB
:105A600077FD8095982F2A8148E552E0421B510925
:105A700027FD5395440F551F440F551F2A016624D7
:105A800057FC6094762C7F926F925F924F9214EB4A
:105A9000E12EF12C00E010E020E030E0A9010E94AE
:105AA000D1330F900F900F900F90CE01DF91CF91D7
:105AB0001F910F91FF90EF90DF90CF90BF90AF902C
:105AC0007F906F905F904F900C94CE2C1F920F920E
:105AD0000FB60F9211242F933F938F939F93AF9301
