:100000000C9472000C949A000C949A000C949A0030
:100010000C949A000C949A000C949A000C94C208C8
:100020000C949A000C949A000C949A000C944E0D27
:100030000C949A000C949A000C949A000C949A00D8
:100040000C940A0E0C949A000C9473110C94A51144
:100050000C949A000C949A000C949A000C949A00B8
:100060000C949A000C949A0005A84CCDB2D44EB9C9
:100070003836A9020C50B9918688083CA6AAAA2A4B
:10008000BE000000803F00000008000201000003E5
:100090000407000000000000000001020408102016
:1000A000408001020408102001020408102004040A
:1000B0000404040404040202020202020303030310
:1000C00003030000000023002600290000000000B8
:1000D000250028002B0000000000240027002A0033
:1000E0004306D51111241FBECFEFD8E0DEBFCDBF30
:1000F00011E0A0E0B1E0E0EEFCE202C005900D925C
:10010000AC36B107D9F723E0ACE6B1E001C01D92EF
:10011000A539B207E1F710E0C4EED0E004C02297A1
:10012000FE010E94D015C03ED107C9F70E941912E6
:100130000C946E160C94000081E0809380008BE09C
:10014000809381000895CF93C82F61E083E00E94DF
:10015000960F6C2F83E0CF910C94CF0FCF93C82FC5
:1001600061E08EE00E94960F6C2F8EE0CF910C9490
:10017000CF0FCF93C82F61E084E00E94960F6C2FC1
:1001800084E0CF910C94CF0FCF93C82F61E08DE026
:100190000E94960F6C2F8DE0CF910C94CF0FCF93D0
:1001A000DF93EB012CE231E040E050E0BC018EE453
:1001B00092E00E947B0784E0CC0FDD1F8A95E1F777
:1001C000C55BDF4FD0930C01C0930B01DF91CF9142
:1001D00008954F925F926F927F928F929F92AF920B
:1001E000BF92CF92DF92EF92FF9226E030E040E0A4
:1001F00050E061E070E080E090E00E94A8120E9470
:10020000C01320E030E040EC50E40E942A139B0130
:10021000AC016091F6017091F7018091F801909125
:10022000F9010E94C6126093F6017093F701809362
:10023000F8019093F90126E030E040E050E061E001
:1002400070E080E090E00E94A8120E94C01320E0BD
:1002500030E040EC50E40E942A139B01AC01609115
:10026000F2017091F3018091F4019091F5010E94E7
:10027000C6126093F2017093F3018093F40190939E
:10028000F50126E030E040E050E061E070E080E021
:1002900090E00E94A8120E94C01320E030E040ECE1
:1002A00050E40E942A132091EE013091EF01409119
:1002B000F0015091F1010E94C6126B017C01609324
:1002C000EE017093EF018093F0019093F10120E033
:1002D00030E040E85EE36091F6017091F7018091B3
:1002E000F8019091F9010E94A71420E030E040E06D
:1002F0005FE30E94C6120E940A154B015C0120E0D8
:1003000030E040E151E46091F2017091F30180919D
:10031000F4019091F5010E942A1320E030E040E8BA
:100320005FE30E94C61226E636E646E050E40E94ED
:10033000C6120E940A152B013C0120E030E040E685
:1003400051E4C701B6010E942A132BEA3AEA4AEAAD
:100350005EE30E94C61226E636E646E850E40E94B6
:10036000C6120E940A1520E030E040E85FE30E94D8
:10037000C61220E030E040E852E40E94A7140E9438
:100380009213E62E20E030E040E85FE3C301B201C3
:100390000E94C61220E030E040E852E40E94A71418
:1003A0000E949213F62E20E030E040E85FE3C501A2
:1003B000B4010E94C61220E030E040E852E40E94FE
:1003C000A7140E949213D62E2E2D4F2D86E292E076
:1003D0000E942A0D2E2D4F2D6D2D86E292E0FF906A
:1003E000EF90DF90CF90BF90AF909F908F907F90D5
:1003F0006F905F904F900C94300D0F931F93CF939D
:10040000DF938C01EB0166277727681B790B85E169
:1004100092E00E94C607BE018AE092E00E94C607F1
:1004200010161106FCF480E01C161D0624F40E9430
:10043000A30080E02FC00E94A30080E00E94AE00D5
:1004400080E00E94B90081E00E94C40086E292E050
:100450000E94480D86E292E0DF91CF911F910F91AB
:100460000C94360D1C161D068CF480E00E94A3002F
:1004700080E00E94AE0081E00E94B90080E00E940E
:10048000C40086E292E00E94420D10C081E00E940A
:10049000A30081E00E94AE0080E00E94B90080E0ED
:1004A0000E94C40086E292E00E94480D86E292E03B
:1004B000DF91CF911F910F910C943C0D80910B0116
:1004C00090910C01BC010C94FD0180910B01909165
:1004D0000C01919581959109BC010C94FD018091CD
:1004E0000B0190910C01BC019195819591090C949F
:1004F000FD0180910B0190910C0166277727681B05
:10050000790B0C94FD0160E070E080E090E00C94C9
:10051000FD01CF93C82F0E94540E60930202709386
:1005200003028093040290930502C03409F4C6C00C
:1005300090F5CD3009F4B0C0A8F4C83009F4D5C0A6
:1005400030F4C73009F0DDC083E090E0BFC0C930AF
:1005500009F4BAC0CC3009F0D4C060E070E086E2A3
:1005600091E0CCC0C83109F4C5C050F4C53109F0E0
:10057000C8C08091060291E089278093060297C047
:10058000C93109F49EC0CC3109F0BBC065E070E010
:1005900089EB91E0B3C0C634E9F118F5C33409F42E
:1005A0006EC040F4C23409F0ACC067E070E08CE289
:1005B00092E0A4C0C43409F455C0C53409F0A1C008
:1005C00086E990E090930C0180930B011092090250
:1005D0000E9483022CE231E040E050E066E271E0EC
:1005E0002AC0C23509F477C050F4C73449F1CA347F
:1005F00009F087C069E070E085E992E07FC0CA3504
:1006000009F46EC0CE3509F07CC063E070E08EE581
:1006100091E074C084E690E090930C0180930B010C
:1006200081E0809309020E9483022CE231E040E0E5
:1006300050E06AE471E08EE492E0CF910C947B0785
:1006400082E08093090284E690E090930C0180930D
:100650000B010E9483022CE231E040E050E06EE5A5
:1006600071E0E9CF88EC90E090930C0180930B014E
:100670002CE231E040E050E069E871E0DCCF8FEF40
:1006800090E090930C0180930B012CE231E040E06C
:1006900050E069EB71E0CFCF85E08093090284E6FA
:1006A00090E090930C0180930B010E9483022CE256
:1006B00031E040E050E06FEE71E0BDCF81E090E0CE
:1006C00005C082E090E002C084E090E090930802D0
:1006D0008093070216C068E070E08DE492E00EC0DF
:1006E00066E070E08FEE91E009C064E070E089E8B8
:1006F00091E004C062E070E08AE491E0CF910C9454
:10070000CF00CF9108958091070290910802823026
:10071000910571F02CF4009789F0019739F0089554
:100720008330910539F0049739F008950C945E02F6
:100730000C9465020C946F020C9479020C94830261
:1007400028EE33E040E050E066E271E08EE492E0B3
:100750000E94170781E00E94A30081E00E94AE0082
:1007600081E00E94B90081E00E94C4000E948302DF
:1007700086E292E00E94420D86E292E00E94360DEF
:1007800065E083E392E00E944A0A83E392E00E94DC
:100790006D0A41E160E083E392E00E948D0A42E04D
:1007A00061E083E392E00E948D0A44E062E083E32B
:1007B00092E00E948D0A48E063E083E392E00E94A9
:1007C0008D0A40E164E083E392E00E948D0A40E0FC
:1007D00065E083E392E00E948D0A40E066E083E3F7
:1007E00092E00E948D0A40E067E083E392E00E947D
:1007F0008D0A40E068E083E392E00E948D0A40E1C8
:1008000069E083E392E00E948D0A48E06AE083E3B6
:1008100092E00E948D0A44E06BE083E392E00E9444
:100820008D0A42E06CE083E392E00E948D0A41E190
:100830006DE083E392E00E948D0A2CE231E040E01B
:1008400050E06FEE71E08EE492E00E94170726E020
:1008500040E052EC61E070E088EF92E00E941111FC
:100860008FE492E00C94840986E00E94F10EBC01B2
:10087000882777FD8095982F0E947C1286E292E06F
:100880000E94BB0C0E9492138FEF860F813360F0A1
:1008900080910B0190910C01BC010E94FD0164E666
:1008A00070E080E090E066C0603168F162E070E086
:1008B00080E090E00E948412611571058105910528
:1008C00089F06130710581059105C1F420910B011A
:1008D00030910C01C9016BEF7FEF0E945A15CB01DB
:1008E000B9010AC020910B0130910C01C9016BEFD5
:1008F0007FEF0E945A15C9010E94FD0168EC70E06B
:1009000080E090E037C080910B0190910C019195AF
:1009100081959109BC010E94FD016CE271E080E0CB
:1009200090E00E94830E62E070E080E090E00E9420
:100930008412611571058105910571F061307105B1
:100940008105910599F480910B0190910C01BC01F6
:1009500091958195910908C080910B0190910C01AE
:1009600066277727681B790B0E94FD016CE271E016
:1009700080E090E00C94830ECF93DF9380E292E0CE
:100980000E94190B80E292E00E94320BEC0180E29F
:1009900092E00E94510B21E08138910508F420E09B
:1009A00080910A01C138D10568F0211103C091E09E
:1009B0009093FC0190E0BC010E94FD0180910A012E
:1009C0008F5F1AC0222311F092E0F2CF9091FC01C8
:1009D000913031F490E0BC0191958195910907C067
:1009E000923061F490E066277727681B790B0E94AC
:1009F000FD0180910A01845180930A0180910A01CE
:100A0000883C10F488EC03C0883C19F08AEF80938E
:100A10000A01DF91CF9108958091FA019091FB0135
:100A20008531910594F066E970E080E090E00E94E5
:100A3000FD0164E670E080E090E00E94830E80910A
:100A4000FA019091FB01019713C04497A9F060E06F
:100A500070E086E990E00E94FD0164E670E080E0CD
:100A600090E00E94830E8091FA019091FB01019623
:100A70009093FB018093FA018091FA019091FB0120
:100A80008531910529F41092FB011092FA01089525
:100A9000439731F488E290E09093FB018093FA0150
:100AA0000895DC01ED91FC911197CF01019611960B
:100AB0009C938E9320812032A9F70C944016FB0161
:100AC0002191BF01222339F0FC013191CF0132176E
:100AD000B1F380E0089581E00895CF93DF93EB01B7
:100AE000FC0101900020E9F7AF0141505109481B7A
:100AF000590BE091F802F091F9020280F381E02DA8
:100B0000BC0188EF92E00995BE0188EF92E0DF9189
:100B1000CF910C946A120F931F93CF93DF9300D061
:100B20001F92CDB7DEB79A8389838C0166E271E0AC
:100B30000E945F05882331F06AE271E0C8010E94DB
:100B40006D0599C06AE371E0C8010E945F058823C2
:100B500051F06EE371E0C8010E946D0583E392E0FD
:100B60000E946D0A88C061E471E0C8010E945F05BF
:100B70008823B1F06EE371E0C8010E946D05CE01DB
:100B800001960E945105682FCE0101966B830E9449
:100B90005105482F6B8183E392E00E94DD0A6BC010
:100BA00064E471E0C8010E945F058823B1F06EE340
:100BB00071E0C8010E946D05CE0101960E945105A9
:100BC000682FCE0101966B830E945105482F6B81DF
:100BD00083E392E00E94B60A4EC067E471E0C80168
:100BE0000E945F05882309F446C06EE371E0C801E6
:100BF0000E946D0589819A8102960E94401681307B
:100C000089F480910102809309028091FE01909104
:100C1000FF0190930C0180930B018091000280935F
:100C200006021CC0823029F58091060280930002E2
:100C300080910B0190910C019093FF018093FE0134
:100C4000809109028093010210920902109206021B
:100C500060E070E080E090E00E94FD012CE231E075
:100C600040E050E066E271E08EE492E00E947B0793
:100C700002C00E9489020F900F900F90DF91CF91D8
:100C80001F910F91089562E08FE492E00E9478092D
:100C900067E08EE492E00E94140760E183E392E053
:100CA0000E94460A62E186E292E00E949F0C63E1A4
:100CB00080E292E00E94050B62E085E192E00E94F2
:100CC000AC0761E08AE092E00E94AC0780910902E3
:100CD00080930102809106028093000280910B01B3
:100CE00090910C019093FF018093FE0108951F9352
:100CF000CF93DF93C0E8D0E010E288EF92E00E944B
:100D00002E10892B81F188EF92E00E9447102091EC
:100D1000EC013091ED018A30C1F4C9010197FC0169
:100D2000E459FE4F40814D3011F49C01F6CFF9019A
:100D3000E459FE4F108311821092ED011092EC01E4
:100D40008CE691E00E948B05D8CFF901E459FE4F63
:100D50008083C9010196BE010E945A159093ED014E
:100D60008093EC01CACFDF91CF911F9108950F932B
:100D70001F938091FD01882319F00E94770614C00B
:100D800088EF92E00E942E10892B21F081E0809361
:100D9000FD010AC08FE492E00E94F709892B21F03F
:100DA000809152020E9489020E94540E0091020218
:100DB000109103022091040230910502601B710B17
:100DC000820B930B693771058105910570F00E94C4
:100DD000540E609302027093030280930402909376
:100DE00005021092080210920702809109028130D8
:100DF00059F038F0823059F0853059F40E940C05D2
:100E000008C00E94830305C00E94340402C00E94EF
:100E1000BC0480910602882321F01F910F910C944D
:100E2000E9001F910F91089560935A0208954F921F
:100E30005F926F927F928F929F92AF92BF92CF926A
:100E4000DF92EF92FF920F931F93CF93DF9369018D
:100E50007A019B0140E050E060E472E48FE090E0B2
:100E60000E949015E901890137FF02C00F5F1F4FF3
:100E70001595079561E080915A020E94960FA8EEA1
:100E8000B3E0A70196010E94AF154B015C01C12C94
:100E9000D12C76012E01662457FC6094762CC81460
:100EA000D904EA04FB04B0F461E080915A020E9484
:100EB000CF0FC8010E94AB0E60E080915A020E94E1
:100EC000CF0FC8010E94AB0EA895C40CD51CE61C20
:100ED000F71CE5CFDF91CF911F910F91FF90EF901D
:100EE000DF90CF90BF90AF909F908F907F906F904A
:100EF0005F904F900895F8940E9417077894089592
:100F00000F931F93CF93DF93EC01062F10E0000F98
:100F1000111F035F1E4F633050F0F8016081CE0156
:100F20000E94710BF8018181898718860CC061E0ED
:100F3000F80181810E94960FF80180818D83818163
:100F40008C8381E088878CE291E09F838E83DF91A0
:100F5000CF911F910F9108950F931F93CF93DF931C
:100F60001F92CDB7DEB78C0169830E94700BF80128
:100F7000178216821086118612866981C8010F9029
:100F8000DF91CF911F910F910C948007EF92FF9208
:100F90000F931F93CF93DF9300D0CDB7DEB77C01C3
:100FA000FC018285811109C069837A830E949C00BB
:100FB00081E0F70182877A8169818B016F3F71053A
:100FC00019F014F00FEF10E00130FFEF1F0714F4D9
:100FD00001E01FEFF701868197818017910709F4DF
:100FE000C8C017830683808517FD4EC0813079F510
:100FF0008481873019F4848160E006C0F701848120
:10100000883089F4848161E00E94CF0FF7018581E7
:10101000B8010F900F90DF91CF911F910F91FF902A
:10102000EF900C940E0FF7018481893029F0F701BD
:101030008481863009F09DC0848161E00E94CF0FD9
:10104000F70185816FEF70E0601B710BE2CFC70184
:101050000E948B0B62E0C7010E94020CC7010E9434
:101060008B0BF7016185C7010E94020CB80188272C
:1010700077FD8095982F0E94C01320E030E040E279
:1010800050E40E942A1364C08130F1F5F701848195
:10109000873061F4848161E00E94CF0FF701858180
:1010A00066277727601B710B0E940E0FF701848162
:1010B000883061F4848160E00E94CF0FF701858160
:1010C00066277727601B710B0E940E0FF701848142
:1010D000893059F4858161E00E94CF0FF701848146
:1010E000B80161507F4F0E940E0FF7018481863056
:1010F00009F03FC0858161E00E94CF0FF701848134
:10110000B80161507F4F85CFC7010E948B0B62E011
:10111000C7010E94020CC7010E948B0BF701618579
:10112000C7010E94020CB801882777FD8095982F8F
:101130000E94C01320E030E040E250E40E942A13F5
:101140009B01AC0160E070E088EC92E40E94C51263
:101150000E949213C7010E94020C84EF91E00F904D
:101160000F90DF91CF911F910F91FF90EF900C9412
:10117000AB0E0F900F90DF91CF911F910F91FF90C9
:10118000EF9008951F920F920FB60F9211240F93B4
:101190001F932F933F934F935F936F937F938F93FF
:1011A0009F93AF93BF93CF93EF93FF9380915B0295
:1011B0000E940510C82F20916202309163022F5FB8
:1011C0003F4F30936302209362028091C8028436BD
:1011D00018F085E080935D0290915D02933079F084
:1011E00018F4923039F070C0943011F1953009F450
:1011F0004AC06AC0C11168C01092C80229C0C1307B
:1012000009F062C0E091C80281E08E0F8093C802AD
:10121000F0E08091620290916302E45AFD4F808772
:10122000109263021092620284E080935D024CC0CF
:10123000C11114C0E091C80281E08E0F8093C802F2
:10124000F0E08091620290916302E45AFD4F808742
:10125000109263021092620283E0E7CF80916202F3
:10126000909163028536910578F185E080935D0267
:101270000E94540E60935E0270935F02809360023E
:101280009093610221C00E94540E00915E02109161
:101290005F022091600230916102601B710B820B32
:1012A000930B693C71058105910540F01092C802CD
:1012B000109263021092620282E0B7CFC11104C0A3
:1012C0001092630210926202FF91EF91CF91BF9151
:1012D000AF919F918F917F916F915F914F913F91CE
:1012E0002F911F910F910F900FBE0F901F90189587
:1012F00060935B0280915B0260E00E94960F809198
:101300005B0280935C020895F89482E08093B000C1
:101310008093B10094E69093B3001092B200809352
:10132000700078941092C80280935D0208951F9314
:10133000CF93DF93FC01A681B7818C9186588D35C0
:1013400058F48085918583309105A1F411968C9194
:1013500011978152893118F080E090E044C01296D4
:101360008C9188508730C0F7158281E0808381E0BE
:1013700090E039C0833491057CF311968C911197DC
:1013800083548F3248F782E090E040E050E0BA01A9
:101390009D012F5F3F4FEC01CA0FDB1FC881C85072
:1013A000C730D0F6E901C80FD91F18811751133182
:1013B00080F47695679557954795706802968234C4
:1013C000910549F780E28583418352836383748367
:1013D000CCCFC881C850C73008F0BECF769567958E
:1013E00057954795EBCFDF91CF911F9108950F93BC
:1013F0001F93CF93DF93EC0184E692E09F838E836B
:101400008091C80290E09987888780915D0285303D
:1014100081F4CE010E9497098C01CE0101151105BE
:1014200029F00E94840901E010E005C00E948409AF
:1014300002C000E010E0C801DF91CF911F910F9131
:1014400008950F931F93CF93DF9300D01F92CDB7D2
:10145000DEB78C012B834A8369830E94700BF801ED
:10146000349685E1DF011D928A95E9F74A81F801FA
:10147000418F2B81228F6981C8010F900F900F90AF
:10148000DF91CF911F910F910C94710B25E04EE0ED
:101490000C94210A1F93CF93DF93EC01162F0E9427
:1014A0008B0B811116C066E0CE010E94020CCE01AA
:1014B0000E948B0B612F183008F067E06868CE013E
:1014C0000E94020C88EB9BE0DF91CF911F910C945E
:1014D000AB0EDF91CF911F910895CF93DF93EC0175
:1014E000298D80E090E0821730F4FE01E80FF91FAB
:1014F00014820196F8CFCE010E948B0B81110AC095
:1015000065E0CE010E94020C88E893E1DF91CF9163
:101510000C94AB0EDF91CF9108950F931F93CF934F
:10152000DF93EC01162F042F898D6817D0F4CE01BC
:101530000E948B0B811115C063E0CE010E94020C4A
:10154000CE010E948B0B81110CC0612FCE010E9435
:10155000020C602FCE01DF91CF911F910F910C945F
:10156000020CDF91CF911F910F910895CF93DF93DC
:10157000E62FF0E0DC0159962C91599730E0E21704
:10158000F307C4F4242F30E05A96AC91B0E02A1748
:101590003B0784F4E80FF91F548121E030E001C0DB
:1015A000220F4A95EAF7522B54834481DF91CF9161
:1015B0000C948D0ADF91CF910895CF93DF93E62F9E
:1015C000F0E0DC0159962C91599730E0E217F307CF
:1015D000CCF4242F30E05A96AC91B0E02A173B07A8
:1015E0008CF4E80FF91F548121E030E001C0220F94
:1015F0004A95EAF72095252324834481DF91CF91F2
:101600000C948D0ADF91CF9108950F931F93CF9380
:10161000DF931F92CDB7DEB78C0169830E94700BF8
:101620006981C8010F90DF91CF911F910F910C94A8
:10163000710BCF93DF93EC010E948B0B81110FC0D4
:1016400062E0CE010E94020CCE010E94B90BCE01D5
:101650000E946A0C8C83CE010E946A0C8D83DF91FC
:10166000CF910895FC01648170E080E090E00E94D9
:10167000C01320E030E04FE753E40E942A139B019F
:10168000AC0160E070E080E89FE30E94C51220E0BA
:1016900030EC4FE754E40E94A7140E949213CB0150
:1016A0000895FC01658170E080E090E00E94C01325
:1016B00020E030E04FE753E40E942A139B01AC0185
:1016C00060E070E080E89FE30E94C51220E030EC0B
:1016D0004FE754E40E94A7140E949213CB0108958F
:1016E0000895DC016C9370E0FB01E656FF4FE49136
:1016F0001196EC931197FB01E255FF4FE491F0E056
:10170000EE0FFF1FEE53FF4F8591949113969C931C
:101710008E9312970895FF920F931F93CF93DF93A9
:101720008C01FC01F180C281D38189818F29898359
:101730009A818F2D809589238A8380EE91E00E9483
:10174000AB0E60E0F80180810E94960F82E390E08A
:101750000E94AB0EC88184E690E00E94AB0EFC2292
:1017600081E009F480E0DF91CF911F910F91FF900C
:101770000895AF92BF92CF92DF92EF92FF920F93B4
:101780001F93CF93DF938C01FC01B180C281D38181
:101790000E94540E6B017C018981AB2CA0948A219C
:1017A00089838A818B298A8388818B2169F00E94B1
:1017B000540E6C197D098E099F09653671058105E6
:1017C000910590F380E013C088818B21E9F3898132
:1017D0008B2989838A818A218A838EE190E00E9405
:1017E000AB0E60E0F80180810E94960F81E0DF91EE
:1017F000CF911F910F91FF90EF90DF90CF90BF900E
:10180000AF9008950F931F93CF93DF93EC01062FB2
:1018100018E0F89460E088810E94CF0F61E0888131
:101820000E94960F85E090E00E94AB0E00FF02C080
:1018300061E001C060E088810E94CF0F0695789436
:101840008EE190E00E94AB0E61E088810E94CF0F94
:1018500085E090E00E94AB0E1150D9F660E08881DF
:10186000DF91CF911F910F910C94960FCF92DF9241
:10187000EF92FF921F93CF93DF93FC011181C281FE
:10188000D3810E94540E6B017C018881812359F021
:101890000E94540E6C197D098E099F0964307105F0
:1018A0008105910590F3F8948EE190E00E94AB0ED3
:1018B000C881789488E290E00E94AB0E1C2381E0FE
:1018C00009F480E0DF91CF911F91FF90EF90DF90BE
:1018D000CF9008950F931F93CF93DF93EC0160E0B7
:1018E00088810E94960F08E010E0CE010E94360C1D
:1018F00020E8829FC00111241695182B0150A9F7EA
:10190000812FDF91CF911F910F910895CF93DF9396
:10191000EC010E948B0B81110FC064E0CE010E948C
:10192000020CCE010E948B0B811106C06C85CE018A
:10193000DF91CF910C94020CDF91CF9108950F931A
:101940001F93CF93DF931F92CDB7DEB78C016983CE
:101950000E94700BF801168217821086118612867B
:10196000138614866981C8010F90DF91CF911F9172
:101970000F910C94710BCF92DF92EF92FF92CF9365
:10198000DF93EC010E948B0B882339F0C12CD12C02
:101990008AEFE82E83E4F82E27C062E0CE010E9491
:1019A000020CCE010E94B90BCE010E946A0C8C83FE
:1019B000CE010E946A0C8D838D816C8170E0782B42
:1019C00080E090E00E94BE132CE53FE84CE851E433
:1019D0000E942A136B017C0120E030E04AEF53E4BF
:1019E0000E94A314181694F2C701B601DF91CF919B
:1019F000FF90EF90DF90CF900895CF93DF93EC01AD
:101A00000E948B0B811123C063E0CE010E94020C67
:101A1000CE010E948B0B81111AC06E81CE010E94F3
:101A2000020C6F81CE010E94020C6885CE010E94DB
:101A3000020C6985CE010E94020C6A85CE010E94CB
:101A4000020C6B85CE01DF91CF910C94020CDF91DB
:101A5000CF910895FC016683478320870C94FD0C89
:101A6000FC016187428723870C94FD0CFC012485CF
:101A7000216024870C94860CFC0124852E7F24870A
:101A80000C94860CFC012485226024870C94860C1F
:101A9000FC0124852D7F24870C94860C1F920F92C5
:101AA0000FB60F9211242F933F934F935F936F9331
:101AB0007F938F939F93AF93BF93EF93FF93809107
:101AC000CA0287FF05C010928500109284001AC0D8
:101AD0002091CA02332727FD30958091C90290E0FA
:101AE000281739077CF48091CA02992787FD9095C1
:101AF000FC01EE0FFF1FE80FF91FE553FD4F80813A
:101B000087FD15C08091CA028F5F8093CA02209121
:101B1000CA02332727FD30958091C90290E028172B
:101B20003907BCF48091CA028C305CF112C08091FC
:101B3000CA02992787FD9095FC01EE0FFF1FE80F61
:101B4000F91FE553FD4F808160E08F770E94CF0F32
:101B5000D9CF8091840090918500049680349C496F
:101B600018F480E49CE905C0809184009091850080
:101B7000049690938900809388008FEF8093CA0227
:101B800038C020918400309185008091CA02992745
:101B900087FD9095FC01EE0FFF1FE80FF91FE5533D
:101BA000FD4F81819281820F931F909389008093D2
:101BB00088008091CA02992787FD9095FC01EE0F5D
:101BC000FF1FE80FF91FE553FD4F808187FF11C00C
:101BD0008091CA02992787FD9095FC01EE0FFF1FA7
:101BE000E80FF91FE553FD4F808161E08F770E9478
:101BF000CF0FFF91EF91BF91AF919F918F917F9107
:101C00006F915F914F913F912F910F900FBE0F9069
:101C10001F9018951F920F920FB60F9211242F93B9
:101C20003F938F939F93AF93BF938091F0029091D6
:101C3000F102A091F202B091F3023091EF0223E0A1
:101C4000230F2D3720F40196A11DB11D05C026E8F4
:101C5000230F0296A11DB11D2093EF028093F00285
:101C60009093F102A093F202B093F3028091F402F8
:101C70009091F502A091F602B091F7020196A11D94
:101C8000B11D8093F4029093F502A093F602B093F5
:101C9000F702BF91AF919F918F913F912F910F903C
:101CA0000FBE0F901F9018952FB7F8946091F00217
:101CB0007091F1028091F2029091F3022FBF08958A
:101CC0003FB7F8948091F4029091F502A091F6024A
:101CD000B091F70226B5A89B05C02F3F19F00196D9
:101CE000A11DB11D3FBF6627782F892F9A2F620F44
:101CF000711D811D911D42E0660F771F881F991F7E
:101D00004A95D1F70895CF92DF92EF92FF92CF9349
:101D1000DF936B017C010E94600EEB01C114D104C2
:101D2000E104F10489F00E94C4120E94600E6C1B51
:101D30007D0B683E734090F381E0C81AD108E1083A
:101D4000F108C851DC4FEACFDF91CF91FF90EF90BF
:101D5000DF90CF9008958230910538F0880F991F59
:101D6000880F991F05970197F1F70895789484B526
:101D7000826084BD84B5816084BD85B5826085BD87
:101D800085B5816085BDEEE6F0E08081816080836D
:101D9000E1E8F0E010828081826080838081816050
:101DA0008083E0E8F0E0808181608083E1EBF0E017
:101DB000808184608083E0EBF0E0808181608083BB
:101DC000EAE7F0E0808184608083808182608083A4
:101DD0008081816080838081806880831092C100CF
:101DE00008958E3008F08E5087702091250190E480
:101DF000299F90011124822B80937C0080917A008E
:101E0000806480937A0080917A0086FDFCCF809177
:101E100078002091790090E0922B08951F93CF9342
:101E2000DF93182FEB0161E00E94960F209711F4C9
:101E300060E004C0CF3FD10539F461E0812FDF912C
:101E4000CF911F910C94CF0FE12FF0E0EA57FF4F95
:101E5000E491E330F9F048F4E130B9F0E230A1F573
:101E600084B5806284BDC8BD34C0E730E9F0E83095
:101E700019F1E43049F58091800080628093800000
:101E8000D0938B00C0938A0024C084B5806884BD41
:101E9000C7BD1FC080918000806880938000D09370
:101EA0008900C093880015C08091B000806880933D
:101EB000B000C093B3000DC08091B00080628093E9
:101EC000B000C093B40005C0C038D1050CF0B5CF48
:101ED000AFCFDF91CF911F910895833081F028F427
:101EE000813099F08230A1F008958730A9F08830D0
:101EF000B9F08430D1F4809180008F7D03C080914F
:101F000080008F7780938000089584B58F7702C01A
:101F100084B58F7D84BD08958091B0008F7703C014
:101F20008091B0008F7D8093B0000895CF93DF93B0
:101F300090E0FC01E656FF4F2491FC01E255FF4F73
:101F40008491882349F190E0880F991FFC01EA529F
:101F5000FF4FA591B49184539F4FFC01C591D4913B
:101F60009FB7611108C0F8948C91209582238C93BF
:101F7000888182230AC0623051F4F8948C91322F08
:101F8000309583238C938881822B888304C0F894B6
:101F90008C91822B8C939FBFDF91CF9108950F93EB
:101FA0001F93CF93DF931F92CDB7DEB7282F30E07A
:101FB000F901EA57FF4F8491F901E656FF4F14915A
:101FC000F901E255FF4F04910023C9F0882321F065
:101FD00069830E946D0F6981E02FF0E0EE0FFF1F13
:101FE000E453FF4FA591B4919FB7F8948C91611180
:101FF00003C01095812301C0812B8C939FBF0F904C
:10200000DF91CF911F910F910895CF93DF93282FE8
:1020100030E0F901EA57FF4F8491F901E656FF4F8E
:10202000D491F901E255FF4FC491CC2391F0811175
:102030000E946D0FEC2FF0E0EE0FFF1FEE53FF4FED
:10204000A591B4912C912D2381E090E021F480E0C2
:1020500002C080E090E0DF91CF910895FC01818D76
:10206000228D90E0805C9F4F821B91098F7399278E
:102070000895FC01918D828D981731F0828DE80FC3
:10208000F11D858D90E008958FEF9FEF0895FC017D
:10209000918D828D981761F0828DDF01A80FB11D9F
:1020A0005D968C91928D9F5F9F73928F90E00895C3
:1020B0008FEF9FEF08958BEC91E1892B49F080E041
:1020C00090E0892B29F00E94CB1181110C94000023
:1020D0000895FC01848DDF01A80FB11DA35ABF4FE5
:1020E0002C91848D90E001968F739927848FA68917
:1020F000B7892C93A089B1898C9180648C93938D3E
:10210000848D981306C00288F389E02D80818F7D2D
:1021100080830895CF93DF93EC01888D8823C9F0E5
:10212000EA89FB89808185FD05C0A889B9898C91E0
:1021300086FD0FC00FB607FCF5CF808185FFF2CF7B
:10214000A889B9898C9185FFEDCFCE010E946910D5
:10215000E7CFDF91CF910895CF92DF92FF920F9357
:102160001F93CF93DF931F92CDB7DEB76C0181E051
:10217000D60158968C9358975B969C915B975C968A
:102180008C915C97981307C05096ED91FC915197F4
:10219000808185FD2EC0F601038D10E00F5F1F4F7B
:1021A0000F731127F02EF601848DF81211C00FB6AF
:1021B00007FCF9CFD6015096ED91FC9151978081A3
:1021C00085FFF1CFC60169830E9469106981EBCF59
:1021D000838DE80FF11DE35AFF4F6083D6015B96B4
:1021E0000C935B975296ED91FC915397808180629E
:1021F0000CC0D6015696ED91FC915797608350968E
:10220000ED91FC91519780818064808381E090E022
:102210000F90DF91CF911F910F91FF90DF90CF90A2
:102220000895BF92CF92DF92EF92FF92CF93DF9308
:10223000EC016A017B01B22EE889F98982E0808392
:10224000411581EE580761057105A1F060E079E064
:102250008DE390E0A70196010E946E15215031098F
:10226000410951095695479537952795211580E1E4
:10227000380798F0E889F989108260E874E88EE1FF
:1022800090E0A70196010E946E1521503109410985
:1022900051095695479537952795EC85FD853083EF
:1022A000EE85FF852083188EEC89FD89B082EA894E
:1022B000FB89808180618083EA89FB8980818860D5
:1022C0008083EA89FB89808180688083EA89FB8931
:1022D00080818F7D8083DF91CF91FF90EF90DF90A1
:1022E000CF90BF9008951F920F920FB60F921124B6
:1022F0002F938F939F93EF93FF93E0910803F091B7
:1023000009038081E0910E03F0910F0382FD12C05A
:102310009081809111038F5F8F7320911203821738
:1023200051F0E0911103F0E0E850FD4F958F80935C
:10233000110301C08081FF91EF919F918F912F91A7
:102340000F900FBE0F901F9018951F920F920FB60F
:102350000F9211242F933F934F935F936F937F932B
:102360008F939F93AF93BF93EF93FF9388EF92E088
:102370000E946910FF91EF91BF91AF919F918F9152
:102380007F916F915F914F913F912F910F900FBE71
:102390000F901F90189588EF92E00E942E1021E078
:1023A000892B09F420E0822F08951092FB021092ED
:1023B000FA0288EE93E0A0E0B0E08093FC029093F4
:1023C000FD02A093FE02B093FF028EE491E0909391
:1023D000F9028093F80285EC90E0909305038093D6
:1023E000040384EC90E0909307038093060380EC51
:1023F00090E0909309038093080381EC90E0909320
:102400000B0380930A0382EC90E090930D0380937A
:102410000C0386EC90E090930F0380930E031092D0
:1024200011031092120310921303109214030895D3
:1024300008950E94B60E0E9418120E94A003CBE5D8
:10244000D0E10E94B7062097E1F30E945B10F9CF1C
:10245000CF92DF92EF92FF920F931F93CF93DF9370
:102460006C017A01EB01E60EF71E00E010E0CE15DC
:10247000DF0561F06991D601ED91FC910190F08149
:10248000E02DC6010995080F191FF1CFC801DF9192
:10249000CF911F910F91FF90EF90DF90CF90089513
:1024A0006115710581F0DB010D900020E9F7AD01A8
:1024B00041505109461B570BDC01ED91FC91028004
:1024C000F381E02D099480E090E008956AE571E0E1
:1024D0000C9450120F931F93CF93DF93EC010E9443
:1024E00050128C01CE010E946612800F911FDF9165
:1024F000CF911F910F910895611571058105910587
:1025000011F00C9437160895CF93DF9300D000D0CC
:10251000CDB7DEB79B01AC01611571058105910551
:1025200069F069833A834B835C830E943216298168
:102530003A814B815C810E94901503C060E070E09D
:10254000CB010F900F900F900F90DF91CF910895D6
:10255000CF92DF92EF92FF926B017C0162177307BB
:102560008407950764F4CA01B9016C197D098E09C5
:102570009F090E9484126C0D7D1D8E1D9F1DFF9072
:10258000EF90DF90CF90089508955058BB27AA2769
:102590000ED09FC190D130F095D120F031F49F3F03
:1025A00011F41EF460C10EF4E095E7FB48C1E92F79
:1025B000A1D180F3BA17620773078407950718F053
:1025C00071F49EF5B9C10EF4E0950B2EBA2FA02D33
:1025D0000B01B90190010C01CA01A0011124FF27D0
:1025E000591B99F0593F50F4503E68F11A16F040CB
:1025F000A22F232F342F4427585FF3CF46953795CA
:102600002795A795F0405395C9F77EF41F16BA0B8E
:10261000620B730B840BBAF09150A1F0FF0FBB1F3C
:10262000661F771F881FC2F70EC0BA0F621F731F85
:10263000841F48F4879577956795B795F7959E3FE2
:1026400008F0B3CF9395880F08F09927EE0F979570
:10265000879508950CD03DC135D140F02CD130F094
:1026600021F45F3F19F0EBC0511167C1FCC042D1AA
:1026700098F39923C9F35523B1F3951B550BBB2749
:10268000AA2762177307840738F09F5F5F4F220FF6
:10269000331F441FAA1FA9F333D00E2E3AF0E0E8EF
:1026A00030D091505040E695001CCAF729D0FE2F3B
:1026B00027D0660F771F881FBB1F261737074807CD
:1026C000AB07B0E809F0BB0B802DBF01FF27935883
:1026D0005F4F2AF09E3F510568F0B1C02EC15F3FA9
:1026E000ECF3983EDCF3869577956795B795F7956B
:1026F0009F5FC9F7880F911D9695879597F9089563
:10270000E1E0660F771F881FBB1F621773078407FE
:10271000BA0720F0621B730B840BBA0BEE1F88F70D
:10272000E0950895EFD088F09F5790F0B92F992742
:10273000B751A0F0D1F0660F771F881F991F1AF0CC
:10274000BA95C9F712C0B13081F0F6D0B1E0089562
:10275000F3C0672F782F8827B85F39F0B93FCCF3E3
:10276000869577956795B395D9F73EF490958095C2
:10277000709561957F4F8F4F9F4F0895E89409C0E2
:1027800097FB3EF490958095709561957F4F8F4FA4
:102790009F4F9923A9F0F92F96E9BB279395F695BA
:1027A000879577956795B795F111F8CFFAF4BB0F38
:1027B00011F460FF1BC06F5F7F4F8F4F9F4F16C09C
:1027C000882311F096E911C0772321F09EE8872F26
:1027D000762F05C0662371F096E8862F70E060E0E2
:1027E0002AF09A95660F771F881FDAF7880F96955B
:1027F000879597F90895990F0008550FAA0BE0E8FF
:10280000FEEF16161706E807F907C0F012161306B2
:10281000E407F50798F0621B730B840B950B39F4F2
:102820000A2661F0232B242B252B21F408950A2658
:1028300009F4A140A6958FEF811D811D089597F998
:102840009F6780E870E060E008959F3F31F091500D
:1028500020F4879577956795B795880F911D969584
:10286000879597F908959FEF80EC0895DF93CF93B4
:102870001F930F93FF92EF92DF927B018C0168947C
:1028800005C0DA2EEF016FD0FE01E894A5912591E5
:10289000359145915591AEF3EF0189DEFE01970127
:1028A000A801DA9479F7DF90EF90FF900F911F91D4
:1028B000CF91DF91089500240A9416161706180682
:1028C0000906089500240A94121613061406050634
:1028D0000895092E0394000C11F4882352F0BB0FC5
:1028E00040F4BF2B11F460FF04C06F5F7F4F8F4F28
:1028F0009F4F089557FD9058440F551F59F05F3F63
:1029000071F04795880F97FB991F61F09F3F79F011
:1029100087950895121613061406551FF2CF469593
:10292000F1DF08C0161617061806991FF1CF869515
:102930007105610508940895E894BB2766277727F9
:10294000CB0197F9089557DF08F48FEF08950BD066
:10295000C0CFB1DF28F0B6DF18F0952309F06FCFB4
:1029600082CF1124EACFC6DFA0F3959FD1F3950F54
:1029700050E0551F629FF001729FBB27F00DB11D03
:10298000639FAA27F00DB11DAA1F649F6627B00D93
:10299000A11D661F829F2227B00DA11D621F739F7C
:1029A000B00DA11D621F839FA00D611D221F749F8A
:1029B0003327A00D611D231F849F600D211D822FD1
:1029C000762F6A2F11249F5750408AF0E1F0882318
:1029D0004AF0EE0FFF1FBB1F661F771F881F915025
:1029E0005040A9F79E3F510570F029CFA6CF5F3F19
:1029F000ECF3983EDCF3869577956795B795F79558
:102A0000E7959F5FC1F7FE2B880F911D96958795DF
:102A100097F908959F9305D00F9007FCEE5F28C0AB
:102A200022CF70DFE8F3E894E0E0BB279F57F0F097
:102A30002AED3FE049EC06C0EE0FBB0F661F771F83
:102A4000881F28F0B23A62077307840728F0B25A49
:102A5000620B730B840BE3959A9572F7803830F410
:102A60009A95BB0F661F771F881FD2F79048EFCE4D
:102A7000EF93E0FF06C0A2EA2AED3FE049EC5FEBEE
:102A800096DD27DF0F90039401FC9058E8E6F0E014
:102A900000C09F938F937F936F93FF93EF939B015E
:102AA000AC0155DFEF91FF91E1DE2F913F914F9106
:102AB0005F914DCF97FB072E16F4009407D077FD5A
:102AC00009D00E94BA1507FC05D03EF49095819577
:102AD0009F4F0895709561957F4F0895A1E21A2E3A
:102AE000AA1BBB1BFD010DC0AA1FBB1FEE1FFF1FB2
:102AF000A217B307E407F50720F0A21BB30BE40B02
:102B0000F50B661F771F881F991F1A9469F7609548
:102B10007095809590959B01AC01BD01CF01089502
:102B2000052E97FB1EF400940E94A71557FD07D0B1
:102B30000E946E1507FC03D04EF40C94A715509517
:102B40004095309521953F4F4F4F5F4F0895909599
:102B50008095709561957F4F8F4F9F4F08950E948C
:102B6000D415A59F900DB49F900DA49F800D911D2D
:102B700011240895AA1BBB1B51E107C0AA1FBB1F4C
:102B8000A617B70710F0A61BB70B881F991F5A95F9
:102B9000A9F780959095BC01CD010895EE0FFF1F18
:102BA0000590F491E02D0994A29FB001B39FC0015C
:102BB000A39F700D811D1124911DB29F700D811D69
:102BC0001124911D08958F929F92AF92BF92CF9240
:102BD000DF92EF92FF92CF93DF93EC0168817981CE
:102BE0008A819B81611571058105910521F464E25B
:102BF00079ED8BE597E02DE133EF41E050E00E9465
:102C0000901549015A019B01AC01A7EAB1E40E9469
:102C1000AF156B017C01ACEEB4EFA50194010E94ED
:102C20006916C60ED71EE81EF91EF7FE06C081E023
:102C3000C81AD108E10880E8F80AC882D982EA8275
:102C4000FB82C701B6019F77DF91CF91FF90EF9094
:102C5000DF90CF90BF90AF909F908F9008950E948B
:102C6000E315089586E091E00E94E31508956093CE
:102C7000060170930701809308019093090108955C
:102C8000FC0188279927E89421912032E9F3293023
:102C900010F02E30C8F32B3241F02D3239F4689405
:102CA00004C00E945E16820F911D219120532A308C
:102CB000C0F31EF4909581959F4F08957AE0979FF9
:102CC000902D879F802D910D11240895B7FF0C94AE
:102CD000AF150E94AF15821B930B0895F894FFCF98
:102CE00000009503800001000000FA960000000A31
:102CF00009050600000000000000000000000000C0
:102D00000000000000015645520077656565626F5E
:102D1000746D696E695F415F31004C4641004F4BF5
:102D2000004C46004C4F0049520000000000AC101F
:102D300028122E10471039108A100D0A006E616E8D
:0C2D400000696E66006F7666002E0000D1
:00000001FF
