:100000000C949F000C94C7000C94C7000C94C7007C
:100010000C94C7000C94C7000C94C7000C94391AB8
:100020000C94C7000C94C7000C94C7000C94C02912
:100030000C94C7000C94C7000C94C7000C94C70024
:100040000C94B42B0C94C7000C941D2F0C944F2FC0
:100050000C94C7000C94C7000C94C7000C94C70004
:100060000C94C7000C94C700084AD73B3BCE016EE6
:1000700084BCBFFDC12F3D6C74319ABD56833DDAFF
:100080003D00C77F11BED9E4BB4C3E916BAAAABE0E
:10009000000000803F000000000800020100000393
:1000A0000407000000000000000001020408102006
:1000B00040800102040810200102040810200404FA
:1000C0000404040404040202020202020303030300
:1000D00003030000000023002600290000000000A8
:1000E000250028002B0000000000240027002A0023
:1000F0006364696E6F70737578585B004E414E494A
:100100004E495459494E46CDCCCC3D0AD7233C17D5
:10011000B7D13877CC2B329595E6241FB14F0A0022
:100120000020410000C84200401C4620BCBE4CCA12
:100130001B0E5AAEC59D7400AD0D7F2F560E1124B7
:100140001FBECFEFD8E0DEBFCDBF11E0A0E0B1E031
:10015000E0EAF9E702C005900D92AC39B107D9F792
:1001600024E0ACE9B1E001C01D92A93DB207E1F77E
:1001700011E0CCE3D1E004C02297FE010E94453695
:10018000C833D107C9F70E94C32F0C94C33C0C9409
:10019000000061E08CE393E00E948A1460E070E06C
:1001A0008CE393E00E94D01462E08CE393E00E9421
:1001B0008A1460E070E08CE393E00C94D0144AE081
:1001C00050E062E070E080E394E00C94D030089559
:1001D000CF93DF93EEE1F2E0C0E0D0E04191242F35
:1001E00030E028173907C9F0411110C0FE01E25E66
:1001F000FD4F80839E01220F331F2C0F3D1FBC013A
:10020000C901885D9D4F0E94162B07C02196CA30F8
:10021000D10521F780E090E001C0CE01DF91CF91C0
:100220000895EF92FF920F931F93CF93DF93EB010B
:10023000FC016081613401F5FF92EF921F930F93EF
:100240003F932F935F934F93DF93CF932BE331E053
:100250003F932F939F938F930E94D63788819981E4
:100260000E96998388838DB79EB70E960FB6F89435
:100270009EBF0FBE8DBF1AC0FF92EF921F930F93C8
:100280003F932F935F934F93DF93CF932CE331E012
:100290003F932F939F938F930E94D6378DB79EB72E
:1002A0000E960FB6F8949EBF0FBE8DBFDF91CF9113
:1002B0001F910F91FF90EF900895DC01ED91FC915B
:1002C00011979F012F5F3F4F2D933C932081203248
:1002D000A1F70895EF92FF920F931F93CF93DF93AF
:1002E000CDB7DEB72C970FB6F894DEBF0FBECDBFEB
:1002F0009C878B87CE010B960E945D01CE010196F3
:100300007C018E010D5F1F4F9E012B5F3F4FAE01A1
:10031000495F5F4FBE01675F7F4F8B859C850E9461
:10032000110169858AE193E00E947F2609812B8172
:100330004D816F818AE193E00E94C3268AE193E0B8
:100340000E9415272C960FB6F894DEBF0FBECDBFC6
:10035000DF91CF911F910F91FF90EF900895EF9251
:10036000FF920F931F93CF93DF93CDB7DEB72C97F8
:100370000FB6F894DEBF0FBECDBF9C878B87CE0132
:100380000B960E945D01CE0101967C018E010D5FEE
:100390001F4F9E012B5F3F4FAE01495F5F4FBE0174
:1003A000675F7F4F8B859C850E941101698587E07F
:1003B00093E00E94552709812B814D816F8187E051
:1003C00093E00E94572787E093E00E948A272C96AB
:1003D0000FB6F894DEBF0FBECDBFDF91CF911F9156
:1003E0000F91FF90EF900895CF93DF93EC010E945F
:1003F0005D0188819981DF91CF910C948337CF93F0
:10040000DF9300D0CDB7DEB79A838983CE01019602
:100410000E94F401682F8CE393E00E948A14CE01BD
:1004200001960E94F401BC018CE393E00E94D01479
:100430000F900F90DF91CF910895CF93DF9300D06D
:10044000CDB7DEB79A838983CE0101960E94F4016D
:10045000682F82E393E00E94E30FCE0101960E9491
:10046000F401BC0182E393E00E9408100F900F900A
:10047000DF91CF910895EF92FF920F931F93CF9347
:10048000DF9300D0CDB7DEB79A838983CE01019682
:100490000E94F4017C01CE0101960E94F4018C01BE
:1004A000C7010E94E800053B110558F49C01220F8A
:1004B000331F280F391FB801C901885D9D4F0E9465
:1004C0004F2B0F900F90DF91CF911F910F91FF90C5
:1004D000EF900895CF93DF9300D0CDB7DEB79A8326
:1004E000898362E08CE393E00E948A14CE01019636
:1004F0000E94F401BC018CE393E00E94D01461E0FF
:100500008CE393E00E948A14CE0101960E94F401CC
:10051000BC018CE393E00E94D0140F900F90DF9108
:10052000CF9108951F93CF93DF9300D0CDB7DEB75F
:100530009A838983CE0101960E94F401182F60E00E
:100540000E94402D812F0E949B2C4AE050E0BC016C
:1005500080E394E00E94D0300F900F90DF91CF9114
:100560001F9108951F93CF93DF9300D0CDB7DEB7CF
:100570009A838983CE0101960E94F401182F60E0CE
:100580000E94402D812F0E949B2C4AE050E0BC012C
:1005900080E394E00E94D0300F900F90DF91CF91D4
:1005A0001F910895CF93DF9300D0CDB7DEB79A8324
:1005B0008983CE0101960E94F401682F83E293E0C3
:1005C0000E94D82783E293E00E94DA27AB01BC01A6
:1005D00022E030E080E394E00E940D320F900F9013
:1005E000DF91CF9108950F931F93CF93DF9300D0A6
:1005F000CDB7DEB79A838983CE0101960E94F401BC
:100600008C01CE0101960E94F4019C01442737FD24
:100610004095542FB80181E093E00E943F130F9062
:100620000F90DF91CF911F910F910895CF93DF939A
:1006300000D0CDB7DEB79A838983CE0101960E94A0
:10064000F401682F88E693E00E94F52888E693E09D
:100650000E94F728AB01BC0122E030E080E394E087
:100660000E940D320F900F90DF91CF910895CF939C
:10067000DF9300D0CDB7DEB79A838983CE01019690
:100680000E94F401682F85E793E00E94B22785E776
:1006900093E00E94B7274AE050E0BC0180E394E079
:1006A0000E940C310F900F90DF91CF9108950F931E
:1006B0001F93CF93DF9300D000D01F92CDB7DEB74A
:1006C0009A838983CE0101960E94F401682FCE019E
:1006D00001966D830E94F401182FCE0101960E94AD
:1006E000F401482FCE0101964C830E94F401282F7B
:1006F000CE0101962B830E94F401082F6D8186E7BD
:1007000093E00E94FA1B2B814C81612F86E793E0D6
:100710000E94451C0F900F900F900F900F90DF914B
:10072000CF911F910F9108950F931F93CF93DF9354
:1007300000D000D01F92CDB7DEB79A838983CE0157
:1007400001960E94F401682FCE0101966D830E94EC
:10075000F401182FCE0101960E94F401482FCE011A
:1007600001964C830E94F401282FCE0101962B8321
:100770000E94F401082F6D8188E693E00E94F5281D
:100780002B814C81612F88E693E00E9466290F90AF
:100790000F900F900F900F90DF91CF911F910F91BD
:1007A0000895FF920F931F93CF93DF9300D01F9272
:1007B000CDB7DEB79A838983CE0101960E94F401FA
:1007C000682FCE0101966B830E94F401F82ECE01B2
:1007D00001960E94F4018C016B8186E793E00E94F0
:1007E000FA1B41E0012B09F440E06F2D86E793E00E
:1007F0000E948B1C0F900F900F90DF91CF911F9153
:100800000F91FF900895FF920F931F93CF93DF9363
:1008100000D01F92CDB7DEB79A838983CE010196AF
:100820000E94F401682FCE0101966B830E94F401AF
:10083000F82ECE0101960E94F4018C016B8188E6AE
:1008400093E00E94F52841E0012B09F440E06F2D70
:1008500088E693E00E947A290F900F900F90DF9125
:10086000CF911F910F91FF9008951F93CF93DF9326
:1008700000D01F92CDB7DEB79A838983CE0101964F
:100880000E94F401682FCE0101966B830E94F4014F
:10089000182F6B8182E693E00E941023612F82E67D
:1008A00093E00E9469234AE050E0BC0180E394E0B9
:1008B0000E940C310F900F900F90DF91CF911F91FC
:1008C0000895FF920F931F93CF93DF9300D000D032
:1008D000CDB7DEB79A838983CE0101960E94F401D9
:1008E000682FCE0101966C830E94F401F82ECE0190
:1008F00001960E94F401482FCE0101964B830E947D
:10090000F4018C016C8187E493E00E948E1D21E04C
:100910004B81012B09F420E06F2D87E493E00E94C6
:100920003F1F0F900F900F900F90DF91CF911F916D
:100930000F91FF9008951F93CF93DF9300D000D0C5
:10094000CDB7DEB79A838983CE0101960E94F40168
:10095000682FCE0101966C830E94F401182FCE01FE
:1009600001960E94F401482FCE0101964B830E940C
:100970005D016C8187E493E00E948E1D29813A819C
:100980004B81612F87E493E00E94E51E0F900F904A
:100990000F900F90DF91CF911F9108959F92AF928A
:1009A000BF92CF92DF92EF92FF920F931F93CF935C
:1009B000DF93CDB7DEB767970FB6F894DEBF0FBEF3
:1009C000CDBF9F8B8E8B8E010A5E1F4FC8010E9488
:1009D000F401982EC8010E94F401D82EC8010E948B
:1009E000F401C82ECE0101967C015C01C8010E9471
:1009F000F401F70181937F01E017F107B9F7692D41
:100A000087E493E00E948E1D95014C2D6D2D87E4A7
:100A100093E00E94B01D67960FB6F894DEBF0FBE3C
:100A2000CDBFDF91CF911F910F91FF90EF90DF909D
:100A3000CF90BF90AF909F9008951F93CF93DF9377
:100A400000D01F92CDB7DEB79A838983CE0101967D
:100A50000E94F401682FCE0101966B830E94F4017D
:100A6000182FCE0101960E94F401482F6B8187E474
:100A700093E04B830E948E1D4B81612F87E493E0AE
:100A80000E94651E0F900F900F90DF91CF911F91E4
:100A900008951F93CF93DF9300D01F92CDB7DEB799
:100AA0009A838983CE0101960E94F401682FCE01BA
:100AB00001966B830E94F401182FCE0101960E94CB
:100AC000F401482F6B8187E493E04B830E948E1DD5
:100AD0004B81612F87E493E00E948C1E0F900F9052
:100AE0000F90DF91CF911F910895CF93DF9300D0A6
:100AF000CDB7DEB79A838983CE0101960E94F401B7
:100B0000682F87E493E00E948E1D87E493E00E94A3
:100B1000901D0F900F90DF91CF9108950F931F9329
:100B2000CF93DF9300D01F92CDB7DEB79A8389832E
:100B3000CE0101960E94F401682FCE0101966B83CD
:100B40000E94F4018C016B8180EF92E00E94081AF0
:100B500080EF92E00E940A1A60E080EF92E0012BA1
:100B600019F40E942E1A02C00E94231A4AE050E093
:100B7000BC0180E394E00E940C310F900F900F9025
:100B8000DF91CF911F910F910895CF93DF9300D004
:100B9000CDB7DEB79A838983CE0101960E94F40116
:100BA0000E949B2C4AE050E0BC0180E394E00E944C
:100BB000D0300F900F90DF91CF9108950F931F9336
:100BC000CF93DF9300D0CDB7DEB79A838983CE0170
:100BD00001960E94F401182FCE0101960E94F401A3
:100BE000082F61E0812F0E94402D602F812F0E94ED
:100BF000792D0F900F90DF91CF911F910F91089554
:100C0000CF93DF9300D0CDB7DEB79A838983CE012F
:100C100001960E94F401682F82E093E00E94C425AF
:100C200082E093E00E94C6254AE050E0682F80E30E
:100C300094E00E94F5300F900F90DF91CF910895CE
:100C4000FF920F931F93CF93DF9300D01F92CDB7E6
:100C5000DEB79A838983CE0101960E94F401682F42
:100C6000CE0101966B830E94F401F82ECE0101960D
:100C70000E94F4018C016B8189ED92E00E94841046
:100C800041E0012B09F440E06F2D89ED92E00E94D4
:100C900086100F900F900F90DF91CF911F910F91C1
:100CA000FF900895CF93DF9300D0CDB7DEB79A833E
:100CB0008983CE0101960E94F401682F88EC92E0AE
:100CC0000E94581388EC92E00E94BC130F900F9082
:100CD000DF91CF9108950F931F93CF93DF9300D0AF
:100CE0001F92CDB7DEB79A838983CE0101960E9409
:100CF000F401682FCE0101966B830E94F4018C01F0
:100D00006B8188EC92E00E94581361E0012B09F49A
:100D100060E088EC92E00E94D0130F900F900F904B
:100D2000DF91CF911F910F9108951F93CF93DF9380
:100D300000D01F92CDB7DEB79A838983CE0101968A
:100D40000E94F401682FCE0101966B830E94F4018A
:100D5000182F6B8188EC92E00E945813612F88EC69
:100D600092E00E94ED134AE050E0BC0180E394E081
:100D70000E940C310F900F900F90DF91CF911F9137
:100D800008951F93CF93DF9300D01F92CDB7DEB7A6
:100D90009A838983CE0101960E94F401682FCE01C7
:100DA00001966B830E94F401182F6B8181EC92E015
:100DB0000E94CD16612F81EC92E00E94EC164AE071
:100DC00050E0682F80E394E00E94F5300F900F9080
:100DD0000F90DF91CF911F9108951F93CF93DF93D1
:100DE00000D01F92CDB7DEB79A838983CE010196DA
:100DF0000E94F401682FCE0101966B830E94F401DA
:100E0000182F6B8189EB92E00E94C51C612F89EB42
:100E100092E00E94E41C4AE050E0682F80E394E0F6
:100E20000E94F5300F900F900F90DF91CF911F919E
:100E300008951F93CF93DF9300D01F92CDB7DEB7F5
:100E40009A838983CE0101960E94F401682FCE0116
:100E500001966B830E94F401182F6B8189EA92E05E
:100E60000E942C14612F89EA92E00E9469144AE0E2
:100E700050E0BC0180E394E00E940C310F900F9091
:100E80000F90DF91CF911F9108951F93CF93DF9320
:100E900000D01F92CDB7DEB79A838983CE01019629
:100EA0000E94F401682FCE0101966B830E94F40129
:100EB000182F6B8189E692E00E944A17612F89E61C
:100EC00092E00E94AF19AB01BC0122E030E080E368
:100ED00094E00E940D320F900F900F90DF91CF9110
:100EE0001F9108950F931F93CF93DF9300D01F920C
:100EF000CDB7DEB79A838983CE0101960E94F401B3
:100F0000682FCE0101966B830E94F4018C016B81E6
:100F100080E692E00E94F22561E0012B09F460E096
:100F200080E692E00E94F4250F900F900F90DF91E1
:100F3000CF911F910F9108950F931F93CF93DF933C
:100F400000D01F92CDB7DEB79A838983CE01019678
:100F50000E94F401682FCE0101966B830E94F40178
:100F60008C016B818CE592E00E949D2961E0012B50
:100F700009F460E08CE592E00E949F290F900F90A9
:100F80000F90DF91CF911F910F910895CF93DF9331
:100F900000D0CDB7DEB79A838983CE0101960E9437
:100FA000F401682F87E592E00E949A2387E592E09A
:100FB0000E9416240F900F90DF91CF910895CF9348
:100FC000DF9300D0CDB7DEB79A838983CE01019637
:100FD0000E94F401682F87E592E00E949A2387E53A
:100FE00092E00E9400240F900F90DF91CF9108951E
:100FF000CF93DF9300D0CDB7DEB79A838983CE013C
:1010000001960E94F401682F87E592E00E949A23DE
:1010100087E592E00E94EA230F900F90DF91CF9135
:1010200008951F93CF93DF9300D01F92CDB7DEB703
:101030009A838983CE0101960E94F401682FCE0124
:1010400001966B830E94F401182F6B8187E592E073
:101050000E949A23612F87E592E00E942C240F9032
:101060000F900F90DF91CF911F9108950F931F93D1
:10107000CF93DF9300D01F92CDB7DEB79A838983D9
:10108000CE0101960E94F401682FCE0101966B8378
:101090000E94F4018C016B8187E592E00E949A2303
:1010A000B80187E592E00E949C230F900F900F906B
:1010B000DF91CF911F910F9108951F93CF93DF93ED
:1010C00000D01F92CDB7DEB79A838983CE010196F7
:1010D0000E94F401682FCE0101966B830E94F401F7
:1010E000182F6B8187E592E00E949A23612F87E594
:1010F00092E00E94C7230F900F900F90DF91CF9145
:101100001F9108950F931F93CF93DF9300D01F92E9
:10111000CDB7DEB79A838983CE0101960E94F40190
:10112000682FCE0101966B830E94F4018C016B81C4
:101130008AE492E00E94CC15B8018AE492E00E9411
:10114000F6150F900F900F90DF91CF911F910F9197
:1011500008950F931F93CF93DF9300D01F92CDB7C5
:10116000DEB79A838983CE0101960E94F401682F2D
:10117000CE0101966B830E94F4018C016B818AE49D
:1011800092E00E94CC15B8018AE492E00E946616B3
:101190000F900F900F90DF91CF911F910F910895B5
:1011A000CF93DF9300D0CDB7DEB79A838983CE018A
:1011B00001960E94F401682F86E492E00E94161DB9
:1011C00086E492E00E94181D4AE050E0BC0180E3F2
:1011D00094E00E940C310F900F90DF91CF91089511
:1011E0000F931F93CF93DF9300D01F92CDB7DEB73D
:1011F0009A838983CE0101960E94F401682FCE0163
:1012000001966B830E94F4018C016B8186E492E06D
:101210000E94161D61E0012B09F460E086E492E073
:101220000E94441D0F900F900F90DF91CF911F915E
:101230000F910895CF93DF93EC010E945D018881A7
:101240009981DF91CF910C947F37CF92DF92EF920B
:10125000FF921F93CF93DF9300D0CDB7DEB79A8371
:101260008983CE0101960E94F401182FCE010196C8
:101270000E941A096B017C01612F87E493E00E94B0
:101280008E1DB701A60187E493E00E947E1F0F9098
:101290000F90DF91CF911F91FF90EF90DF90CF9053
:1012A0000895CF92DF92EF92FF921F93CF93DF9337
:1012B00000D0CDB7DEB79A838983CE0101960E9414
:1012C000F401182FCE0101960E941A096B017C01CE
:1012D000612F8EED92E00E94E410B701A6018EED21
:1012E00092E00E9427110F900F90DF91CF911F91F4
:1012F000FF90EF90DF90CF900895882319F06CE471
:1013000071E002C061E571E080E394E00C941B3071
:10131000CF93DF9300D0CDB7DEB79A838983CE0118
:1013200001960E94F401682F86EF92E00E94FB1A5A
:10133000CE0101960E94F401682F86EF92E00E9490
:101340000B1B0E947D090F900F90DF91CF910895A4
:101350001F93CF93DF9300D0CDB7DEB79A838983F5
:10136000CE0101960E94F401182F60E00E94402DEA
:10137000812F0E94AF2D21E0892B09F020E0822FE0
:101380000E947D090F900F90DF91CF911F910895DA
:10139000CF93DF9300D0CDB7DEB79A838983CE0198
:1013A00001960E94F401682F86E793E00E94FA1BE1
:1013B00086E793E00E94FC1B91E0811101C090E060
:1013C000892F0E947D090F900F90DF91CF91089592
:1013D000CF93DF9300D0CDB7DEB79A838983CE0158
:1013E00001960E94F401682F8BEE92E00E94A628DD
:1013F0008BEE92E00E94A82891E0811101C090E05C
:10140000892F0E947D090F900F90DF91CF91089551
:101410000F931F93CF93DF9300D01F92CDB7DEB70A
:101420009A838983CE0101960E94F401682FCE0130
:1014300001966B830E94F4018C016B8189ED92E02F
:101440000E94841089ED92E00E94BD10282F30E0A8
:1014500081E02017310709F080E00E947D090F909C
:101460000F900F90DF91CF911F910F910895CF931F
:10147000DF9300D0CDB7DEB79A838983CE01019682
:101480000E94F401682F84ED92E00E94962584ED7D
:1014900092E00E94982591E0811101C090E0892F8F
:1014A0000E947D090F900F90DF91CF910895CF9307
:1014B000DF9300D0CDB7DEB79A838983CE01019642
:1014C0000E94F401682F80EC92E00E94EA2280ECF6
:1014D00092E00E94F2220E947D090F900F90DF910E
:1014E000CF9108951F93CF93DF9300D01F92CDB774
:1014F000DEB79A838983CE0101960E94F401682F9A
:10150000CE0101966B830E94F401182F6B8184E653
:1015100092E00E945928612F84E692E00E9473288D
:101520000E947D090F900F900F90DF91CF911F9136
:101530000895CF93DF9300D0CDB7DEB79A83898328
:10154000CE0101960E94F401682F87E592E00E9487
:101550009A2387E592E00E94542491E0811101C012
:1015600090E0892F0E947D090F900F90DF91CF911D
:101570000895EF92FF920F931F93CF93DF931F92E3
:10158000CDB7DEB78C0101960E948337803291057A
:1015900009F4C9C10CF081C08031910509F491C1F1
:1015A0000CF040C08830910509F413C104F5823075
:1015B000910509F44FC15CF4009709F405C1019746
:1015C00009F003C2EDE1EE2EE5E0FE2ECFC185303D
:1015D000910509F467C18730910509F4EBC00397C1
:1015E00009F0F3C165E7E62E65E0F62EBFC18C3049
:1015F000910509F4E4C05CF48A30910509F4EEC069
:101600000CF0B6C12AE6E22E21E0F22EAFC18E30F8
:10161000910509F44CC10CF04FC19FEAE92E91E00D
:10162000F92EA4C18831910509F469C1DCF4843133
:10163000910509F455C15CF48231910509F446C164
:101640000CF049C142E5E42E46E0F42E8FC186310C
:10165000910509F44AC10CF04DC187E5E82E8AE0F6
:10166000F82E8AC18C31910509F467C15CF48A3186
:10167000910509F449C10CF04CC1E2E7EE2EEAE015
:10168000FE2E7AC18E31910509F452C10CF45AC173
:1016900028EFE22E27E0F22E69C18937910509F47F
:1016A000F2C00CF044C08F36910509F4BAC004F5BD
:1016B0008336910509F4C9C064F48132910509F4B7
:1016C0002DC1829709F081C159E9E52E5AE0F52E26
:1016D00053C18D36910509F495C00CF09DC0863636
:1016E000910509F072C1F9ECEF2EF0E0FF2E3EC13A
:1016F0008337910509F4A4C05CF48137910509F49E
:1017000095C00CF098C095E2E92E99E0F92E2EC113
:101710008537910509F4A8C00CF4A1C0863791055E
:1017200009F053C167E5E62E63E0F62E1FC181384C
:10173000910509F416C1DCF48D37910509F499C0BF
:101740005CF48B37910509F4A8C00CF0A1C0BEE889
:10175000EB2EB5E0FB2E10C18F37910509F457C071
:101760000CF48CC041EDE42E43E0F42EFFC08A3C23
:10177000910509F442C06CF4883C9105A1F1C4F5CF
:101780008238910509F021C170EFE72E78E0F72E3D
:10179000EDC08D3C910509F4DAC08E3C910509F449
:1017A000DBC08C3C910509F010C1BDE1EB2EB2E02D
:1017B000FB2EDCC068E8E62E69E0F62EDDC052EDB7
:1017C000E52E52E0F52ED8C048EAE42E49E0F42E8A
:1017D000D3C032E9E32E32E0F32ECEC093EFE92EF0
:1017E00092E0F92EC3C08FEFE82E81E0F82EBEC044
:1017F000AAE6EA2EA2E0FA2EB9C0EBE3EE2EE2E072
:10180000FE2EB4C074E9E72E73E0F72EAFC053E0AC
:10181000E52E54E0F52EAAC036E1E32E33E0F32E98
:10182000ABC025E3E22E24E0F22EA6C081E6E82E2E
:1018300084E0F82E9BC0BBE9EB2EB4E0FB2E96C0F3
:10184000AEECEA2EA4E0FA2E91C0FFE5EF2EFDE00B
:10185000FF2E8CC079E4E72E75E0F72E87C057E3A2
:10186000E52E53E0F52E88C048ECE42E49E0F42E36
:1018700083C03EEDE32E35E0F32E78C020E0E22E6B
:1018800026E0F22E79C088EEE82E89E0F82E74C0AA
:10189000A5ECEA2EA5E0FA2E6FC0F1E5EF2EF9E0F7
:1018A000FF2E64C0EFEDEE2EE0E0FE2E65C078E086
:1018B000E72E7AE0F72E60C060E2E62E66E0F62EB4
:1018C00055C057E3E52E5AE0F52E56C03BE6E32E11
:1018D00036E0F32E4BC025E9E22E26E0F22E4CC076
:1018E00091ECE92E96E0F92E47C0BDEEEB2EB6E066
:1018F000FB2E42C0A9E1EA2EA7E0FA2E3DC0F5E496
:10190000EF2EF7E0FF2E38C072E7E72E77E0F72ED4
:101910002DC06CE9E62E67E0F62E28C046ECE42EDA
:1019200047E0F42E23C03FEDE32E37E0F32E1EC038
:1019300091E1E92E98E0F92E19C086E3E82E88E0BF
:10194000F82E14C0BDE5EB2EB8E0FB2E0FC0A2E8C8
:10195000EA2EA8E0FA2E0AC0F9EAEF2EF8E0FF2EF0
:1019600005C0E0EDEE2EE8E0FE2E06C020E005C04A
:1019700062EBE62E62E0F62E21E0D8010D90002009
:10198000E9F7AD0141505109401B510BE091300482
:10199000F09131040280F381E02DB80180E394E0FE
:1019A00029830995C801F7010995298121110DC0E5
:1019B00067E571E080E394E00F90DF91CF911F9194
:1019C0000F91FF90EF900C941B300F90DF91CF910F
:1019D0001F910F91FF90EF900895FC0120812D340D
:1019E00011F40C94B90A089560E089E00E94402D3A
:1019F00060E08AE00E94402D60E08CE00E94402D73
:101A000060E084E00E94402D86EF92E00C94121B6F
:101A100026E040E052EC61E070E080E394E00E9458
:101A2000BB2E0C94F40CDF92EF92FF920F931F9356
:101A3000CF93DF93C6E8D3E00AE511E0F3E0CA38BC
:101A4000DF07A9F1EE24E394F12C8881811102C013
:101A5000E12CF12CF801D1908F018D2D0E94AF2D3A
:101A6000E816F90611F18881882311F018821DC04B
:101A700060E971E080E090E00E942D2C6D2D82E8FD
:101A800093E00E946D2482E893E00E94872461E045
:101A900082E893E00E94FE2482E893E00E94B5244D
:101AA00082E893E00E94662588832196C7CFDF9164
:101AB000CF911F910F91FF90EF90DF900895EF92DB
:101AC000FF920F93CF93DF9380E090E00E94C900D4
:101AD00063E08AE193E00E947F2600E020E040E09E
:101AE00060E08AE193E00E94C3268AE193E00E94CD
:101AF00015270E94130DCAE5D1E0E6E8EE2EE3E0DB
:101B0000FE2EF1E0CE35DF0711F1F70181917F0163
:101B10008823D9F0813071F4688188E693E00E94CF
:101B2000F52800E020E040E063E088E693E00E94D2
:101B300066290BC0833049F4688187E493E00E94F2
:101B40008E1D87E493E00E94901D2196DACFDF91ED
:101B5000CF910F91FF90EF900895CF93DF9382E89C
:101B600093E00E946C2460E086E793E00E94DE1B15
:101B700060E085E793E00E94B52760E088E693E0A7
:101B80000E94D92860E082E693E00E94FC2260E097
:101B900087E493E00E948A1D60E08CE393E00E945A
:101BA000B61460E082E393E00E94EF0F60E083E20E
:101BB00093E00E94C22760E08AE193E00E945E26E3
:101BC00060E087E093E00E943A2760E082E093E0E3
:101BD0000E94B0256BE081E093E00E94D8126FE094
:101BE00086EF92E00E94EF1A60E080EF92E00E94A0
:101BF000F41960E08BEE92E00E94922860E08EED96
:101C000092E00E94EE1060E089ED92E00E94701078
:101C100060E084ED92E00E94822560E088EC92E032
:101C20000E94441360E081EC92E00E94B91660E0EB
:101C300080EC92E00E94F02260E089EB92E00E944A
:101C4000B11C60E089EA92E00E94111460E089E62C
:101C500092E00E940A1760E084E692E00E94452824
:101C600060E080E692E00E94DE2560E08CE592E094
:101C70000E94892960E087E592E00E94862360E067
:101C80008AE492E00E94DA1560E086E492E00E9425
:101C9000021DC8E2D2E0CE010E947C2A239682E097
:101CA000C634D807C1F7DF91CF9108958AE193E058
:101CB0000C942E271F93CF93DF93C0E8D0E010E25F
:101CC00080E394E00E94D82D892B81F180E394E099
:101CD0000E94F12D20911C0230911D028A30C1F426
:101CE000C9010197FC01E456FE4F40814D3011F4CB
:101CF0009C01F6CFF901E456FE4F10831182109239
:101D00001D0210921C028CE991E00E94ED0CD8CFCC
:101D1000F901E456FE4F8083C9010196BE010E947D
:101D2000CF3590931D0280931C02CACFDF91CF91D3
:101D30001F91089586EF92E00E94AF1B0C945A0EFB
:101D4000089570E0FB01E655FF4FE491DC01EC9350
:101D5000FB01E254FF4FE491F0E0EE0FFF1FEE5263
:101D6000FF4F25913491FC013283218308951F9305
:101D7000CF93DF93FC011081C181D2819981812FA2
:101D80008095892389838A81812B8A838AE090E0E8
:101D90000E94552C9881912381E009F480E0DF9125
:101DA000CF911F910895FF920F931F93CF93DF93CD
:101DB000FC011081C181D281F8948981F12EF094C7
:101DC0008F2189838A81812B8A8378940DE7015042
:101DD00041F182E090E00E94552C88818123B9F383
:101DE000F8948A818F218A838981812B89837894D1
:101DF00080EE91E00E94552CF89489818F2189838F
:101E00008A81812B8A8386E490E00E94552C888108
:101E1000812301E009F000E078948AE991E00E94D2
:101E2000552C802FDF91CF911F910F91FF90089536
:101E30001F93CF93DF93FC011081C181D281912F39
:101E4000909560FF12C0F8948A8189238A838981E2
:101E5000812B89838AE090E00E94552C8A81812B16
:101E60008A83789487E390E011C0F8948A8189236B
:101E70008A838981812B898381E490E00E94552C9B
:101E80008A81812B8A83789485E090E0DF91CF91DD
:101E90001F910C94552C0F931F93CF93DF93FC014C
:101EA0001081C181D281F8948981812B89838A81B3
:101EB000012F009580238A8383E090E00E94552CB7
:101EC0008981802389838A81812B8A838AE090E0BB
:101ED0000E94552CC881789485E390E00E94552C8F
:101EE0001C2381E009F480E0DF91CF911F910F91D5
:101EF0000895CF92DF92EF92FF920F931F93CF93AB
:101F0000DF931F92CDB7DEB76C01E62E08E010E03C
:101F1000FF24F39461E09F2D9E2109F460E0C60147
:101F200049830E94180FFF0C0150110949810115C6
:101F3000110581F741111DC0F894D6011196ED915C
:101F4000FC91129791818C918095892381831196C0
:101F5000ED91FC91129782819C91892B828311963D
:101F6000ED91FC91129792818C91809589238283C7
:101F700078940F90DF91CF911F910F91FF90EF9088
:101F8000DF90CF900895EF92FF920F931F93CF931E
:101F9000DF938C01C8E0D0E0F12CEE24E394C8017B
:101FA0000E944B0F8111FE28EE0C2197C1F78F2D57
:101FB000DF91CF911F910F91FF90EF90089540E036
:101FC0006CEC0C94790FCF93DF93EC010E946D249D
:101FD0008CE291E09F838E83DF91CF9108950F93E0
:101FE0001F93CF93DF931F92CDB7DEB78C01698328
:101FF0000E946C24F801178216821086118669816E
:10200000C8010F90DF91CF911F910F910C94E30FB6
:10201000CF92DF92EF92FF92CF93DF93EC016F3F6D
:10202000710519F014F06FEF70E061308FEF7807F1
:1020300014F461E07FEF8E819F818617970709F482
:1020400048C07F836E836B01EE24D7FCE094FE2CA6
:10205000CE0177FD14C00E94872462E0CE010E9469
:10206000FE24CE010E948724C701B6010E94CD3311
:1020700023E333E343E250E40E9432331BC00E9467
:10208000872462E0CE010E94FE24CE010E948724B4
:10209000C701B6010E94CD3323E333E343E250E4AA
:1020A0000E9432339B01AC0160E070E088EC92E466
:1020B0000E9467320E949F33CE010E94FE2484EF6B
:1020C00091E0DF91CF91FF90EF90DF90CF900C9453
:1020D000552CDF91CF91FF90EF90DF90CF90089536
:1020E0000F931F93CF93DF931F92CDB7DEB78C0171
:1020F00069830E946C246981C8010F90DF91CF91A0
:102100001F910F910C946D240C946D24EF92FF920B
:102110001F93CF93DF931F92CDB7DEB77C01162FAD
:1021200049830E9487244981811120C0442311F0F2
:1021300063E001C064E0C7010E94FE24C7010E9461
:102140008724811113C0112339F0115061E001C0BF
:10215000660F1A95EAF701C06FE0C7010F90DF9193
:10216000CF911F91FF90EF900C94FE240F90DF9180
:10217000CF911F91FF90EF900895CF93DF93EC01E3
:102180000E94872481111CC062E0CE010E94FE24BF
:10219000CE010E94B524CE010E9466258C838C81DD
:1021A000823059F018F4813041F008C0843021F0B9
:1021B000883021F484E001C083E08C838C8101C0ED
:1021C00080E0DF91CF910895CF93DF93EC010E94DF
:1021D0006D2481E08C87DF91CF9108950F931F9339
:1021E000CF93DF931F92CDB7DEB78C0169830E9436
:1021F0006C246981C8010F90DF91CF911F910F91DD
:102200000C94E410CF93DF93EC010E94872481119A
:102210001BC062E0CE010E94FE24CE010E948724F2
:10222000811112C06C81CE010E94FE246D81CE010D
:102230000E94FE246E81CE010E94FE246F81CE0199
:10224000DF91CF910C94FE24DF91CF9108952F92CE
:102250003F924F925F926F927F928F929F92AF9236
:10226000BF92CF92DF92EF92FF920F931F93CF9383
:10227000DF93CDB7DEB72F970FB6F894DEBF0FBE52
:10228000CDBF8C012A013B01FC018485882311F01C
:1022900014860CC09A01AB01F801608571858285B6
:1022A00093850E942E33882309F469C1F801408682
:1022B000518662867386CE0101969C878B878AE061
:1022C000EB85FC8511928A95E9F720E03CE34CE12F
:1022D00056E4C301B2010E94F53487FD04C089E0D1
:1022E000F80184830EC020E030EC49E754ECC301D0
:1022F000B2010E942E33181644F080E1F801848365
:1023000089E0858386838783D3C020E030E0A901FC
:10231000C301B2010E942E33811107C080E4F8018D
:102320008483858386831782C3C020E030E0A901BF
:10233000C301B2010E942E3387FF07C077FA709461
:1023400077F87094F1E0FD8701C01D8620E030E051
:102350004AE754E4C301B2010E9432330E949F3322
:102360006983C301B2010E949A339B01CB0168EEDD
:1023700073E00E94CF35E4E6F0E0BF010E94CF3564
:102380006A83C901BF010E94CF354AE0E42EF12CD7
:10239000B7010E94CF356B83C901B7010E94CF35C9
:1023A0005C018C8320E030E040E251E4C301B201E3
:1023B0000E9400350E949A33CB01B7010E94CF35AD
:1023C0006C018D8320E030E048EC52E4C301B2019F
:1023D0000E9400350E949A33CB01B7010E94CF358D
:1023E0004C018E8320E030E04AE754E4C301B2019F
:1023F0000E9400350E949A33CB01B7010E94CF356D
:102400009F878E878F83212CE22CF12CE1E0F0E076
:10241000EC0FFD1FEE0DFF1D3080311002C0239424
:10242000F3CF20E030E040E85FE3C301B2010E9457
:10243000F53487FD10C0A32CFE01EE0DFF1DC280F8
:10244000FE01EE0DFF1D8380FE01EE0DFF1D848158
:1024500024E0221907C0BB24DD2499248E859F85A2
:10246000992721E03D85313059F480E1F8018483DA
:10247000A582C6828782223051F02130C9F40DC076
:10248000F801A482C58286828783233021F4868165
:10249000806286830DC0223029F4F8018581806234
:1024A000858306C0213021F4F80184818062848311
:1024B000F801848185FF12C08581811148C0868121
:1024C000811145C08781811142C0F80184818F70DC
:1024D000878380E48483858386831EC0F801858199
:1024E00085FF0AC08681811143C08781811140C068
:1024F000F80185818F7035C0F801868185FF0CC099
:102500008781811109C086818F7087838581868349
:102510008481858380E48483C8012F960FB6F89464
:10252000DEBF0FBECDBFDF91CF911F910F91FF9006
:10253000EF90DF90CF90BF90AF909F908F907F9063
:102540006F905F904F903F902F900C940211F80184
:10255000868181110DC0F8018781811109C0F801C0
:10256000858187838481868380E484838583D4CF37
:10257000F80187818111D0CFF8018681C6CF2F96CF
:102580000FB6F894DEBF0FBECDBFDF91CF911F9184
:102590000F91FF90EF90DF90CF90BF90AF909F9002
:1025A0008F907F906F905F904F903F902F90089505
:1025B00060938A0308954F925F926F927F928F92F9
:1025C0009F92AF92BF92CF92DF92EF92FF920F93C2
:1025D0001F93CF93DF9369017A019B0140E050E0A4
:1025E00060E472E48FE090E00E940536E901890121
:1025F00037FF02C00F5F1F4F1595079561E080916F
:102600008A030E94402DA8EEB3E0A70196010E9424
:1026100024364B015C01C12CD12C76012E0166249D
:1026200057FC6094762CC814D904EA04FB04B0F477
:1026300061E080918A030E94792DC8010E94552C87
:1026400060E080918A030E94792DC8010E94552C78
:10265000A895C40CD51CE61CF71CE5CFDF91CF91E3
:102660001F910F91FF90EF90DF90CF90BF90AF90B0
:102670009F908F907F906F905F904F900895F89407
:102680000E94DB12789408950F931F93CF93DF93EA
:102690001F92CDB7DEB78C0169830E946C246981DB
:1026A000C8010F90DF91CF911F910F910C946D2471
:1026B0000C946D24CF92DF92EF92FF920F931F93B1
:1026C000CF93DF93CDB7DEB728970FB6F894DEBF70
:1026D0000FBECDBF8C01CE0101967C0188E0F701D1
:1026E00011928A95E9F7C8010E948724811135C0AB
:1026F00062E0C8010E94FE24C8010E94B5246E0158
:10270000F9E0CF0ED11CC8010E946625F701819324
:102710007F01EC15FD05B9F78A8190E0982F882795
:102720002981822BF801958384838C8190E0982FF6
:1027300088272B81822B978386838E8190E0982F28
:1027400088272D81822B91878087888590E0982F1C
:1027500088272F81822B9387828728960FB6F8943B
:10276000DEBF0FBECDBFDF91CF911F910F91FF90C4
:10277000EF90DF90CF900895CF93DF93EC010E940C
:10278000872481110AC064E0CE010E94FE2488EBF8
:102790009BE0DF91CF910C94552CDF91CF91089560
:1027A0001F93CF93DF93EC01162F0E948724811192
:1027B00010C063E0CE010E94FE24CE010E94872457
:1027C000811107C0612FCE01DF91CF911F910C9431
:1027D000FE24DF91CF911F9108950F931F93CF9304
:1027E000DF931F92CDB7DEB78C0169830E945A1325
:1027F0006981F801623039F0633041F0613049F4A9
:102800008481958108C08681978105C080859185E6
:1028100002C0828593850F90DF91CF911F910F9118
:1028200008950F931F93CF93DF931F92CDB7DEB719
:102830008C0169830E946C24F8011582148217822E
:102840001682118610866981C8010F90DF91CF91A1
:102850001F910F910C946D240C946D240F931F9372
:10286000CF93DF93EC010E94872481112DC062E099
:10287000CE010E94FE24CE010E94B52400E010E0AB
:10288000CE010E946625FE01E00FF11F82870F5FD7
:102890001F4F06301105A1F78A8590E0982F8827F1
:1028A0002B85822B9D838C838C8590E0982F8827A5
:1028B0002D85822B9F838E838E8590E0982F88278D
:1028C0002F85822B99878887DF91CF911F910F9158
:1028D00008950F931F93CF93DF931F92CDB7DEB769
:1028E0008C0169830E942E146981662331F0613066
:1028F00041F4F8018681978107C0F80184819581B0
:1029000003C0F801808591850F90DF91CF911F91D1
:102910000F9108950F931F93CF93DF93EC01062F30
:1029200010E0000F111F065F1E4F633050F0F801DA
:102930006081CE010E946D24F8018181898718860B
:102940000CC061E0F80181810E94402DF801808176
:102950008D8381818C8381E088878CE291E09F83E5
:102960008E83DF91CF911F910F9108950F931F9345
:10297000CF93DF931F92CDB7DEB78C0169830E949E
:102980006C24F801178216821086118612866981DE
:10299000C8010F90DF91CF911F910F910C948A1471
:1029A000EF92FF920F931F93CF93DF9300D0CDB799
:1029B000DEB77C01FC018285811109C069837A83BD
:1029C0000E94E70081E0F70182877A8169818B01AB
:1029D0006F3F710519F014F00FEF10E00130FFEFB9
:1029E0001F0714F401E01FEFF7018681978180171C
:1029F000910709F4C8C017830683808517FD4EC070
:102A0000813079F58481873019F4848160E006C0D3
:102A1000F7018481883089F4848161E00E94792DF6
:102A2000F7018581B8010F900F90DF91CF911F9131
:102A30000F91FF90EF900C94B82CF70184818930AE
:102A400029F0F7018481863009F09DC0848161E01E
:102A50000E94792DF70185816FEF70E0601B710B8B
:102A6000E2CFC7010E94872462E0C7010E94FE24D2
:102A7000C7010E948724F7016185C7010E94FE24D7
:102A8000B801882777FD8095982F0E94CD3320E0EC
:102A900030E040E250E40E94323364C08130F1F50E
:102AA000F7018481873061F4848161E00E94792D8F
:102AB000F701858166277727601B710B0E94B82C70
:102AC000F7018481883061F4848160E00E94792D6F
:102AD000F701858166277727601B710B0E94B82C50
:102AE000F7018481893059F4858161E00E94792D54
:102AF000F7018481B80161507F4F0E94B82CF70123
:102B00008481863009F03FC0858161E00E94792D83
:102B1000F7018481B80161507F4F85CFC7010E94C2
:102B2000872462E0C7010E94FE24C7010E94872417
:102B3000F7016185C7010E94FE24B801882777FD4F
:102B40008095982F0E94CD3320E030E040E250E4A1
:102B50000E9432339B01AC0160E070E088EC92E4AB
:102B60000E9467320E949F33C7010E94FE2484EFB7
:102B700091E00F900F90DF91CF911F910F91FF90F7
:102B8000EF900C94552C0F900F90DF91CF911F91E7
:102B90000F91FF90EF900895CF93DF93EC010E9487
:102BA0006D2481E088878CE291E09F838E83DF91A2
:102BB000CF9108950F931F93CF93DF931F92CDB7BB
:102BC000DEB78C0169830E946C24F801178216829B
:102BD000108611861286138614866981C8010F90AB
:102BE000DF91CF911F910F910C94CC15CF92DF9272
:102BF000EF92FF92CF93DF93EC016F3F710519F0D5
:102C000014F06FEF70E061308FEF780714F461E03B
:102C10007FEF8E819F818617970709F450C07F83CD
:102C20006E836B01EE24D7FCE094FE2CCE0177FD81
:102C300018C00E94872462E0CE010E94FE24CE01CB
:102C40000E9487246885CE010E94FE24C701B60138
:102C50000E94CD3323E333E343E250E40E94323356
:102C60001FC00E94872462E0CE010E94FE24CE0194
:102C70000E9487246885CE010E94FE24C701B60108
:102C80000E94CD3323E333E343E250E40E94323326
:102C90009B01AC0160E070E088EC92E40E94673236
:102CA0000E949F33CE010E94FE2484EF91E0DF91C9
:102CB000CF91FF90EF90DF90CF900C94552CDF9147
:102CC000CF91FF90EF90DF90CF900895EF92FF9219
:102CD0001F93CF93DF931F92CDB7DEB77C01882778
:102CE00077FD8095982F0E94CD3326E636E646EE96
:102CF0005EE30E9400350E949A33162F862F972F8D
:102D0000F701268137812817390761F1892B59F49A
:102D100060E070E0C7010F90DF91CF911F91FF90AD
:102D2000EF900C94F615812F972FF70197838683E8
:102D3000C70179830E94872467E0C7010E94FE24AF
:102D4000C7010E948724612FC7010E94FE24798158
:102D5000672FC7010F90DF91CF911F91FF90EF90E8
:102D60000C94FE240F90DF91CF911F91FF90EF9074
:102D700008950F931F93CF93DF931F92CDB7DEB7C4
:102D80008C0169830E946C246981C8010F90DF91D6
:102D9000CF911F910F910C946D240C946D24CF93BF
:102DA000DF93EC010E948724811113C062E0CE0101
:102DB0000E94FE24CE010E94B524CE010E94662509
:102DC0008C83CE010E9466258D83CE010E946625EC
:102DD0008E83DF91CF9108950F931F93CF93DF934D
:102DE0001F92CDB7DEB78C0169830E94CF1669812F
:102DF000613029F0633031F4F801868105C0F801B3
:102E0000848102C0F80185810F90DF91CF911F91DD
:102E10000F9108951F93CF93DF93EC01162F0E941B
:102E20006C2440E050E063E872E44C835D836E8381
:102E30007F83188619861A861B861C861D861E8629
:102E40001F86188A198A1A8A1B8A1C8A1D8A1E8A5A
:102E50001F8A188E198E1A8E1B8E1C8E1D8E1E8E2A
:102E60001F8E19A218A21BA21AA21DA21CA21EA28A
:102E70001FA218A619A61AA61BA61CA61DA61EA64A
:102E80001FA618AA19AA612FCE01DF91CF911F9119
:102E90000C946D240C946D242F923F924F925F926C
:102EA0006F927F928F929F92AF92BF92CF92DF925A
:102EB000EF92FF920F931F93CF93DF93CDB7DEB7BF
:102EC00068970FB6F894DEBF0FBECDBF1C010E94FD
:102ED000FE2B4B015C01C0908B03D0908C03E090E3
:102EE0008D03F0908E030E94FE2B60938B037093F2
:102EF0008C0380938D0390938E03C1010E948724DD
:102F0000811114C262E0C1010E94FE24C1010E942D
:102F1000B52400E010E0C1010E946625F101E00F38
:102F2000F11F82AB0F5F1F4F0E301105A1F7C501D6
:102F3000B4016C197D098E099F090E94CB3320E0F2
:102F400030E04AE754E40E9432336B017C01D10146
:102F5000D2964C90D297512C542C4424D3968C91D9
:102F6000D397482A91965C924E929097D4966C9003
:102F7000D497712C762C6624D5968C91D597682A97
:102F800093967C926E929297D6960C91D69710E07B
:102F9000102F0027D7968C91D797082B95961C93C6
:102FA0000E93949714968D909D90AD90BC9017972A
:102FB000DA966C91DA9770E0762F6627DB968C9123
:102FC000682B882777FD8095982F0E94CD33F101DB
:102FD00026A137A140A551A50E946732A501940101
:102FE0000E9432336D837E838F839887D1015496FC
:102FF0006D937D938D939C935797DC966C91DC97A2
:1030000070E0762F6627DD968C91682B882777FDF8
:103010008095982F0E94CD33F10122A533A544A5B8
:1030200055A50E946732A50194010E943233698739
:103030007A878B879C87D10158966D937D938D936A
:103040009C935B97DE966C91DE9770E0762F6627F7
:10305000DF968C91682B882777FD8095982F0E94AA
:10306000CD33F10126A537A540A951A90E946732A9
:10307000A50194010E9432336D877E878F87988BDC
:10308000D1015C966D937D938D939C935F97B30173
:10309000882777FD8095982F0E94CD3369837A83A6
:1030A0008B839C83B801882777FD8095982F0E9499
:1030B000CD339B01AC010E940035698B7A8B8B8BE1
:1030C0009C8B29813A814B815C81CA01B9010E94A4
:1030D000003529893A894B895C890E9468320E94AF
:1030E00067359B01AC01B201882777FD8095982F49
:1030F0002D8B3E8B4F8B588F0E94CD334B015C0143
:103100002D893E894F89588D0E94DB3220E030E0C6
:1031100044E353E40E9400352AED3FE049E450E4E3
:103120000E9432332B013C01A5019401C501B40179
:103130000E94003529893A894B895C890E9468324E
:103140000E9467359B01AC0169817A818B819C81EA
:103150000E94DB3220E030E044E353E40E9400357B
:103160002AED3FE049E450E40E9432334B015C0118
:10317000A701960169857A858B859C8510161106B5
:1031800024F50E9400359B01AC01F1016085718539
:10319000828593850E946732D10118966D937D9345
:1031A0008D939C931B97A70196016D817E818F81E2
:1031B00098850E9400359B01AC01F10164857585FD
:1031C000868597850E94683223C00E9400359B0146
:1031D000AC01F10160857185828593850E9468321A
:1031E000D10118966D937D938D939C931B97A701A6
:1031F00096016D817E818F8198850E9400359B01AB
:10320000AC01F10164857585868597850E946732DA
:10321000D1011C966D937D938D939C931F97A7016D
:1032200096016D857E858F8598890E940035F10114
:1032300020893189428953890E9468326B017C015F
:1032400020E030E044EB53E40E9432330E94083423
:1032500020E030E044EB53E40E9400359B01AC01D8
:10326000C701B6010E9467326B017C0120E030E0AB
:1032700044E353E40E94F534181644F0D10150960B
:10328000CD92DD92ED92FC9253970DC020E030E09C
:1032900044EB53E4C701B6010E946732F101608B31
:1032A000718B828B938B28E431EE4AE75FE3D10187
:1032B0001C966D917D918D919C911F970E94003578
:1032C0006B017C012AE037ED43EA5CE3C501B40100
:1032D0000E9400359B01AC01C701B6010E94683213
:1032E000F101648775878687978728E431EE4AE77E
:1032F0005FE360857185828593850E9400356B014F
:103300007C012AE037ED43EA5CE3C301B2010E948D
:1033100000359B01AC01C701B6010E946832D101A2
:1033200018966D937D938D939C931B9768960FB61B
:10333000F894DEBF0FBECDBFDF91CF911F910F91EB
:10334000FF90EF90DF90CF90BF90AF909F908F90C5
:103350007F906F905F904F903F902F9008950F93C4
:103360001F93CF93DF931F92CDB7DEB78C01698394
:103370000E944C1769816230E1F050F4662399F0A5
:10338000613049F5F801648575858685978526C085
:103390006430D9F0A0F06530F1F4F801648D758DDA
:1033A000868D978D1BC0F801608571858285938518
:1033B00015C0F80160897189828993890FC0F8016D
:1033C000648975898689978909C0F801608D718D36
:1033D000828D938D03C060E070E0CB010F90DF9190
:1033E000CF911F910F9108950F931F93CF93DF9368
:1033F0001F92CDB7DEB78C0169830E946C2469816E
:10340000C8010F90DF91CF911F910F910C946D2403
:103410000C946D24CF93DF93EC010E9487248111DB
:103420000FC062E0CE010E94FE24CE010E94B524AE
:10343000CE010E9466258C83CE010E9466258D8375
:10344000DF91CF910895CF93DF93EC0161110E943A
:103450000A1A8C8190E0DF91CF910895CF93DF938A
:10346000EC0161110E940A1A8D8190E0DF91CF91E9
:1034700008951F920F920FB60F9211240F931F936E
:103480002F933F934F935F936F937F938F939F936C
:10349000AF93BF93CF93EF93FF93809193030E94D9
:1034A000AF2DC82F20919A0330919B032F5F3F4F80
:1034B00030939B0320939A0380910004843618F084
:1034C00085E08093950390919503933079F018F4FB
:1034D000923039F070C0943011F1953009F44AC03F
:1034E0006AC0C11168C01092000429C0C13009F03F
:1034F00062C0E091000481E08E0F80930004F0E050
:1035000080919A0390919B03EC56FC4F8087109218
:103510009B0310929A0384E0809395034CC0C111E1
:1035200014C0E091000481E08E0F80930004F0E06D
:1035300080919A0390919B03EC56FC4F80871092E8
:103540009B0310929A0383E0E7CF80919A039091B6
:103550009B038536910578F185E0809395030E9461
:10356000FE2B609396037093970380939803909338
:10357000990321C00E94FE2B00919603109197039E
:103580002091980330919903601B710B820B930B70
:10359000693C71058105910540F01092000410927C
:1035A0009B0310929A0382E0B7CFC11104C010921E
:1035B0009B0310929A03FF91EF91CF91BF91AF912E
:1035C0009F918F917F916F915F914F913F912F913B
:1035D0001F910F910F900FBE0F901F901895609341
:1035E00093038091930360E00E94402D80919303A8
:1035F00080939403089580919303861759F0609304
:1036000093038091930360E00E94402D8091930387
:1036100080939403089521E0FC018285861320E0C5
:10362000822F0895F89482E08093B0008093B100D7
:1036300094E69093B3001092B20080937000789457
:10364000109200048093950308951F93CF93DF9306
:10365000FC01A681B7818C9186588D3558F4808500
:10366000918583309105A1F411968C911197815227
:10367000893118F080E090E044C012968C91885017
:103680008730C0F7158281E0808381E090E039C007
:10369000833491057CF311968C91119783548F326A
:1036A00048F782E090E040E050E0BA019D012F5FD2
:1036B0003F4FEC01CA0FDB1FC881C850C730D0F69E
:1036C000E901C80FD91F18811751133180F476957D
:1036D000679557954795706802968234910549F72A
:1036E00080E285834183528363837483CCCFC88116
:1036F000C850C73008F0BECF769567955795479567
:10370000EBCFDF91CF911F9108950F931F93CF932C
:10371000DF93EC018CE993E09F838E83809100041A
:1037200090E09987888780919503853081F4CE0158
:103730000E94251B8C01CE010115110529F00E9464
:10374000121B01E010E005C00E94121B02C000E045
:1037500010E0C801DF91CF911F910F9108950F9351
:103760001F93CF93DF93EC010E94851B892B69F097
:103770000E94FE2B60938F037093900380939103BC
:10378000909392038B818A8714C00E94FE2B009134
:103790008F03109190032091910330919203601B4D
:1037A000710B820B930B693C71058105910508F043
:1037B0001A86DF91CF911F910F9108950F931F9358
:1037C000CF93DF931F92CDB7DEB78C0169830E9440
:1037D0006C24F801158216821782108611861286D3
:1037E00013866981C8010F90DF91CF911F910F91CE
:1037F0000C946D240C946D24CF93DF93EC010E9404
:103800008724811111C062E0CE010E94FE24CE0106
:103810000E94B524CE010E9466258C8388E293E243
:103820000E94552C8C8101C080E0DF91CF910895DA
:10383000CF93DF93EC010E948724811123C063E0C2
:10384000CE010E94FE24CE010E94872481111AC05D
:103850006E81CE010E94FE246F81CE010E94FE2463
:103860006885CE010E94FE246985CE010E94FE2457
:103870006A85CE010E94FE246B85CE01DF91CF9137
:103880000C94FE24DF91CF9108950F93FC0160FF0B
:1038900003C046832783008761FF03C041872287D7
:1038A0000387637021F0CF010F910C94181C0F91C6
:1038B00008951F93CF93DF93EC01162F0E94872466
:1038C000811111C064E0CE010E94FE24CE010E944D
:1038D0008724811108C01D836D81CE01DF91CF91B6
:1038E0001F910C94FE24DF91CF911F910895FC014C
:1038F000658161600C94591CFC0165816E7F0C949C
:10390000591CFC01658162600C94591CFC016581A5
:103910006D7F0C94591C0F931F93CF93DF93EC0191
:10392000062F142F60FF07C0442319F00E94771C54
:1039300002C00E947C1C01FF0FC0CE01112331F098
:10394000DF91CF911F910F910C94811CDF91CF914A
:103950001F910F910C94861CDF91CF911F910F91B5
:1039600008950F931F93CF93DF931F92CDB7DEB7C8
:103970008C0169830E946C246981C8010F90DF91DA
:10398000CF911F910F910C946D240C946D24CF93C3
:10399000DF93EC010E948724811113C062E0CE0105
:1039A0000E94FE24CE010E94B524CE010E9466250D
:1039B0008C83CE010E9466258D83CE010E946625F0
:1039C0008E83DF91CF9108950F931F93CF93DF9351
:1039D0001F92CDB7DEB78C0169830E94C71C698135
:1039E000662329F0613031F4F801858105C0F801C2
:1039F000848102C0F80186810F90DF91CF911F91E1
:103A00000F9108950F931F93CF93DF931F92CDB71C
:103A1000DEB78C0169830E946C246981C8010F9014
:103A2000DF91CF911F910F910C946D240C946D2414
:103A3000CF93DF93EC010E948724811120C062E0C4
:103A4000CE010E94FE24CE010E94B524CE010E9428
:103A50006625682F70E080E090E00E94CD3320E082
:103A600030EC4FE754E40E94003520E030E04FE7AF
:103A700053E40E9432330E949F33CB0102C080E0A6
:103A800090E0DF91CF9108950F931F93CF93DF9331
:103A90001F92CDB7DEB78C0169830E9487246981AC
:103AA00081110DC0662311F063E001C064E0C8011C
:103AB0000F90DF91CF911F910F910C94FE240F90E6
:103AC000DF91CF911F910F9108950F931F93CF9383
:103AD000DF9300D01F92CDB7DEB78C012B834A83D2
:103AE00069830E946C24F801349685E1DF011D9200
:103AF0008A95E9F74A81F801418F2B81228F6981EC
:103B0000C8010F900F900F90DF91CF911F910F91EF
:103B10000C946D2427E045E10C94651D0C946D24F4
:103B2000CF93DF93EC01298D80E090E0821730F491
:103B3000FE01E80FF91F14820196F8CFCE010E9412
:103B4000872481110AC065E0CE010E94FE2488E826
:103B500093E1DF91CF910C94552CDF91CF91089593
:103B60005F926F927F928F929F92AF92BF92CF920D
:103B7000DF92EF92FF920F931F93CF93DF93EC01AD
:103B8000542E4901E98CF12C8A8DA62EBB24A7FC6A
:103B9000B094222733272E193F092A153B0594F4A8
:103BA000AE14BF047CF490E0C42EDD24C7FCD09496
:103BB00022273327281B390B2C153D051CF4C8166A
:103BC000D90694F0CE01DF91CF911F910F91FF9014
:103BD000EF90DF90CF90BF90AF909F908F907F90AD
:103BE0006F905F900C94901DCE010E94872462E03C
:103BF000CE010E94FE24CE010E94872400271127B7
:103C00000A191B0937016A187B08AA24BB24AC18BF
:103C1000BD080615170504F517FD17C00E151F057D
:103C2000A4F4F401E00FF11F608157FC06C00C2CD6
:103C300001C0660F0A94EAF709C070E00A2C02C0BE
:103C4000759567950A94E2F701C060E0CE010E9485
:103C5000FE240F5F1F4FDDCFDF91CF911F910F919A
:103C6000FF90EF90DF90CF90BF90AF909F908F909C
:103C70007F906F905F9008950F931F93CF93DF9382
:103C8000EC01162F042F898D6817D0F4CE010E9405
:103C90008724811115C063E0CE010E94FE24CE016D
:103CA0000E94872481110CC0612FCE010E94FE2446
:103CB000602FCE01DF91CF911F910F910C94FE24C4
:103CC000DF91CF911F910F910895CF93DF93E62F4E
:103CD000F0E0DC0159962C91599730E0E217F30798
:103CE000C4F4242F30E05A96AC91B0E02A173B0779
:103CF00084F4E80FF91F548121E030E001C0220F65
:103D00004A95EAF7522B54834481DF91CF910C946A
:103D10003C1EDF91CF910895CF93DF93E62FF0E023
:103D2000DC0159962C91599730E0E217F307CCF457
:103D3000242F30E05A96AC91B0E02A173B078CF460
:103D4000E80FF91F548121E030E001C0220F4A95AD
:103D5000EAF72095252324834481DF91CF910C94A9
:103D60003C1EDF91CF910895FF920F931F93CF9345
:103D7000DF93EC01F62E042F122F0E94872481116D
:103D80001EC067E0CE010E94FE24CE010E9487245F
:103D9000811115C06F2DCE010E94FE24602FCE012F
:103DA0000E94FE24612FCE010E94FE2488EB9BE03E
:103DB000DF91CF911F910F91FF900C94552CDF91C3
:103DC000CF911F910F91FF900895AF92BF92CF9224
:103DD000DF92EF92FF920F931F93CF93DF93EC014B
:103DE000B62EA42E790100E010E0C62EDD24C7FC1B
:103DF000D094C8018C0D9D1D8B3F2FEF92071CF1B5
:103E0000298D30E08217930724F5F70120812111D5
:103E10000EC08C01898D90E008171907D4F440E09A
:103E2000602FCE010E943C1E0F5F1F4FF3CF215227
:103E30006B2D600F2E3518F023E040E001C04A2DB5
:103E4000CE010E94B41E0A5F1F4FFFEFEF1AFF0A58
:103E5000D0CF1FEF1B0D1B143CF440E0612FCE01AF
:103E60000E943C1EB12EF5CFDF91CF911F910F9193
:103E7000FF90EF90DF90CF90BF90AF900895EF92BA
:103E8000FF920F931F93CF93DF93EC01862FF42EB5
:103E9000022F1AE0612F0E94C335E92E2FE0280F70
:103EA00040E06FEFCE010E94B41E2FE02E0D40E0E7
:103EB00064E0CE010E94B41E8F2D612F0E94C33595
:103EC000192F2FE0280F40E06BE0CE010E94B41EB6
:103ED0002FE0210F40E060E1CE010E94B41E0023DC
:103EE00011F044E101C040E06AE0CE01DF91CF91E2
:103EF0001F910F91FF90EF900C943C1E2F923F92D8
:103F00004F925F926F927F928F929F92AF92BF92E9
:103F1000CF92DF92EF92FF920F931F93CF93DF9395
:103F2000CDB7DEB76B970FB6F894DEBF0FBECDBF2F
:103F30008C012A013B01CE0101969C8B8B8B8AE080
:103F4000EB89FC8911928A95E9F7CE010B969E8B3D
:103F50008D8B88E0ED89FE8911928A95E9F720E042
:103F60003CE34CE156E4C301B2010E94F53487FD05
:103F70001BC028E140E06FEFC8010E94B41E28E199
:103F800040E064E0C8010E94B41E28E140E069E01E
:103F9000C8010E94B41E28E140E06EE0C8010E9402
:103FA000B41E40E064E12DC020E030EC49E754EC61
:103FB000C301B2010E942E331816F4F128E140E04B
:103FC00064E0C8010E94B41E28E140E06AE0C80134
:103FD0000E94B41E28E140E06FE0C8010E94B41EB8
:103FE00048E060E0C8010E943C1E48E061E0C80172
:103FF0000E943C1E48E062E0C8010E943C1E48E06E
:1040000063E0C8016B960FB6F894DEBF0FBECDBF5C
:10401000DF91CF911F910F91FF90EF90DF90CF90A4
:10402000BF90AF909F908F907F906F905F904F90D8
:104030003F902F900C943C1E20E030E0A901C3017A
:10404000B2010E942E33811130C023E040E060E0D5
:10405000C8010E94B41E23E040E065E0C8010E9450
:10406000B41E23E040E06AE0C8010E94B41E2FE0C5
:1040700040E06FE0C8016B960FB6F894DEBF0FBE4C
:10408000CDBFDF91CF911F910F91FF90EF90DF9007
:10409000CF90BF90AF909F908F907F906F905F90E8
:1040A0004F903F902F900C94B41E20E030E0A90177
:1040B000C301B2010E942E3387FF07C077FA7094C4
:1040C00077F87094F1E0FF8B01C01F8A20E030E0A8
:1040D0004AE754E4C301B2010E9432330E949F3385
:1040E0006983C301B2010E949A339B01CB0168EE40
:1040F00073E00E94CF35E4E6F0E0BF010E94CF35C7
:104100006A83C901BF010E94CF354AE0E42EF12C39
:10411000B7010E94CF356B83C901B7010E94CF352B
:104120006C018C8320E030E040E251E4C301B20135
:104130000E9400350E949A33CB01B7010E94CF350F
:104140005C018D8320E030E048EC52E4C301B20111
:104150000E9400350E949A33CB01B7010E94CF35EF
:104160004C018E8320E030E04AE754E4C301B20101
:104170000E9400350E949A33CB01B7010E94CF35CF
:104180009A8F898F8F83212CE22CF12CE1E0F0E0D3
:10419000EC0FFD1FEE0DFF1D3080311002C0239487
:1041A000F3CF20E030E040E85FE3C301B2010E94BA
:1041B000F53487FD1DC0832D90E09C878B87FE0121
:1041C000EE0DFF1D828190E09E878D87FE01EE0D32
:1041D000FF1D838190E0988B8F87FE01EE0DFF1D00
:1041E000848190E09A8B898B84E0B82EB21810C03D
:1041F000DD24DC86CB86BB24BE86AD869924988AD6
:104200008F86898D9A8D99279A8B898BBB24B3943D
:10421000CB2CD12C8F89813009F0B6C020E030E062
:1042200048EC52E4C301B2010E94F53487FD09C095
:104230002CE040E06FEFC8010E94B41EB3E09B2E5B
:1042400025C020E030E040E251E4C301B2010E9409
:10425000F534EF84F88887FD0BC0EF2849F72CE090
:1042600040E064E0C8010E94B41EA2E09A2E0EC095
:10427000EF28F1F68D859E85892B89F72CE040E0AB
:1042800069E0C8010E94B41E99249394C601019666
:10429000382E330C330C380E0196882E880C880C7F
:1042A000880EFE013B965F016BE0E12CF12C892D1D
:1042B00090E0988F8F8BEF89F88DEE16FF060CF04B
:1042C00070C1F5E02F2E260E93E099121AC0F50169
:1042D0002081215FEC14FD0414F0655001C067508B
:1042E00040E0C8010E94B41E20E030E048EC52E4F7
:1042F000C301B2010E94F53487FF21C040E4632D61
:1043000023C0F2E09F1224C0F5012081215FEC144C
:10431000FD040CF4625040E0C8010E94B41E23E08A
:1043200040E06FEFC8010E94B41E20E030E040E2A0
:1043300051E4C301B2010E94F53487FD03C040E09F
:1043400064E102C040E4682DC8010E943C1E14C014
:10435000F5012081215FEC14FD041CF040E0622D8A
:1043600002C06D5F40E0C8010E94B41E23E040E03F
:1043700064E0C8010E94B41EFFEFEF1AFF0A82E05A
:10438000A80EB11C622D97CF20E030E04AE754E43C
:10439000C301B2010E94F53487FD03C0E4E09E2E04
:1043A00039C020E030E048EC52E4C301B2010E9481
:1043B000F534E988FA8887FD03C0EF2879F710C043
:1043C00020E030E040E251E4C301B2010E94F53444
:1043D00087FD09C0EF2811F78F859889892BA9F0EF
:1043E00073E0972E17C020E030E040E85FE3C301A0
:1043F000B2010E94F534EF2889F68F859889892BC0
:1044000079F78D859E85892B19F062E0962E02C082
:10441000992493948B2C880C880C8B0CC6010196E4
:10442000382E330C330C380EFAE0F80DFF8B7E017A
:104430008BE0E80EF11C3BE0A12CB12CE92DF0E063
:10444000FA8FE98FE98DFA8DAE16BF060CF0A9C080
:1044500055E0252E230EF4E09F121BC0F7012081AA
:10446000215FAC14BD0414F066EF01C064EF630F6C
:1044700040E0C8010E94B41E20E030E04AE754E466
:10448000C301B2010E94F53487FF7EC040E4682D6D
:104490007DC0F3E09F1223C023E040E06FEFC8012E
:1044A0003B8F0E94B41E3B8DF7012081215FAC142D
:1044B000BD0414F06BEF01C069EF630F40E0C80169
:1044C0000E94B41E20E030E048EC52E4C301B20187
:1044D0000E94F53487FF58C040E4632D57C0F2E0D6
:1044E00023E040E06FEFC8013B8F9F1225C00E9480
:1044F000B41E23E040E064E0C8010E94B41E3B8D7E
:10450000F7012081215FAC14BD041CF040E0632F53
:1045100003C06EEF630F40E0C8010E94B41E20E0AC
:1045200030E040E251E4C301B2010E94F53487FF5C
:104530002BC040E46F892AC00E94B41E23E040E0F3
:1045400064E0C8010E94B41E23E040E069E0C801B5
:104550000E94B41E3B8DF7012081215FAC14BD0485
:104560001CF040E0622D03C063E0630F40E0C8012F
:104570000E94B41E20E030E040E85FE3C301B201D6
:104580000E94F53487FD05C040E064E1C8010E9447
:104590003C1EFFEFAF1ABF0A82E0E80EF11C322D7D
:1045A00051CF6B960FB6F894DEBF0FBECDBFDF9133
:1045B000CF911F910F91FF90EF90DF90CF90BF9020
:1045C000AF909F908F907F906F905F904F903F90B3
:1045D0002F900895FC01862F608360E00C94402D9D
:1045E0000C94EA22FC0180810E94AF2D21E0892BEE
:1045F00009F420E0822F08950F931F93CF93DF9348
:104600001F92CDB7DEB78C0169830E946C2469814B
:10461000C8010F90DF91CF911F910F910C946D24E1
:104620000C946D24CF93DF93EC010E9487248111B9
:104630000FC062E0CE010E94FE24CE010E94B5248C
:10464000CE010E9466258C83CE010E9466258D8353
:10465000DF91CF910895FC01648170E080E090E0EB
:104660000E94CD3320E030E04FE753E40E94323324
:104670009B01AC0160E070E080E89FE30E9467323C
:1046800020E030EC4FE754E40E9400350E949F3355
:10469000CB010895FC01658170E080E090E00E940C
:1046A000CD3320E030E04FE753E40E9432339B01EA
:1046B000AC0160E070E080E89FE30E94673220E098
:1046C00030EC4FE754E40E9400350E949F33CB0149
:1046D00008950F931F93CF93DF931F92CDB7DEB74B
:1046E0008C0169830E9412236981C801623039F408
:1046F0000F90DF91CF911F910F910C944A230F904F
:10470000DF91CF911F910F910C942B230F931F9347
:10471000CF93DF931F92CDB7DEB78C0169830E94E0
:104720006C246981C8010F90DF91CF911F910F9187
:104730000C946D240C946D240F931F93CF93DF93EF
:10474000EC01162F072F0E94872481111BC062E005
:10475000CE010E94FE24CE010E948724811112C046
:10476000602FCE010E94FE24612FCE010E94FE2404
:104770006CE370E080E090E0DF91CF911F910F91AA
:104780000C942D2CDF91CF911F910F9108951F93C1
:10479000CF93DF93EC01162F0E948724811116C05E
:1047A00063E0CE010E94FE24CE010E948724811185
:1047B0000DC0612FCE010E94FE246CE370E080E00A
:1047C00090E0DF91CF911F910C942D2CDF91CF9130
:1047D0001F910895CF93DF93EC010E9487248111EC
:1047E0000CC064E0CE010E94FE246CE370E080E027
:1047F00090E0DF91CF910C942D2CDF91CF91089513
:10480000CF93DF93EC010E94872481110CC065E0F7
:10481000CE010E94FE246CE370E080E090E0DF9126
:10482000CF910C942D2CDF91CF910895CF93DF93EE
:10483000EC010E94872481110CC066E0CE010E9429
:10484000FE246CE370E080E090E0DF91CF910C9467
:104850002D2CDF91CF9108951F93CF93DF93EC011F
:10486000162F623011F06430D9F4CE010E948724F3
:10487000811116C067E0CE010E94FE24CE010E9485
:10488000872481110DC0612FCE010E94FE2462EDAC
:1048900070E080E090E0DF91CF911F910C942D2C7F
:1048A000DF91CF911F910895CF93DF93EC010E9488
:1048B000872481110DC068E0CE010E94FE24CE0144
:1048C0000E94B524CE010E9466258C838C8101C094
:1048D00082E0DF91CF9108950895DC016C9370E040
:1048E000FB01E655FF4FE4911196EC931197FB0104
:1048F000E254FF4FE491F0E0EE0FFF1FEE52FF4F46
:104900008591949113969C938E9312970895FF929C
:104910000F931F93CF93DF938C01FC01F180C28131
:10492000D38189818F2989839A818F2D80958923CD
:104930008A8380EE91E00E94552C60E0F80180812E
:104940000E94402D82E390E00E94552CC88184E6AD
:1049500090E00E94552CFC2281E009F480E0DF9178
:10496000CF911F910F91FF900895AF92BF92CF9278
:10497000DF92EF92FF920F931F93CF93DF938C01FF
:10498000FC01B180C281D3810E94FE2B6B017C01AE
:104990008981AB2CA0948A2189838A818B298A837F
:1049A00088818B2169F00E94FE2B6C197D098E098C
:1049B0009F09653671058105910590F380E013C06C
:1049C00088818B21E9F389818B2989838A818A21D6
:1049D0008A838EE190E00E94552C60E0F80180818E
:1049E0000E94402D81E0DF91CF911F910F91FF90A8
:1049F000EF90DF90CF90BF90AF9008950F931F93EB
:104A0000CF93DF93EC01062F18E0F89460E08881E3
:104A10000E94792D61E088810E94402D85E090E020
:104A20000E94552C00FF02C061E001C060E0888157
:104A30000E94792D069578948EE190E00E94552C85
:104A400061E088810E94792D85E090E00E94552CDC
:104A50001150D9F660E08881DF91CF911F910F91BD
:104A60000C94402DCF92DF92EF92FF921F93CF9341
:104A7000DF93FC011181C281D3810E94FE2B6B0167
:104A80007C018881812359F00E94FE2B6C197D09DD
:104A90008E099F09643071058105910590F3F894A2
:104AA0008EE190E00E94552CC881789488E290E0D5
:104AB0000E94552C1C2381E009F480E0DF91CF9106
:104AC0001F91FF90EF90DF90CF9008950F931F9369
:104AD000CF93DF93EC0160E088810E94402D08E0D5
:104AE00010E0CE010E94322520E8829FC0011124EF
:104AF0001695182B0150A9F7812FDF91CF911F91A7
:104B00000F9108950F931F93CF93DF931F92CDB70B
:104B1000DEB78C0169830E946C246981C8010F9003
:104B2000DF91CF911F910F910C946D240C946D2403
:104B3000CF93DF93EC010E94872481110DC062E0C6
:104B4000CE010E94FE24CE010E94B524CE010E9417
:104B500066258C838C8101C080E0DF91CF91089520
:104B60000F931F93CF93DF931F92CDB7DEB78C01C6
:104B700069830E946C246981C8010F90DF91CF91F5
:104B80001F910F910C946D240C946D24CF93DF939F
:104B9000EC010E94872481110DC062E0CE010E94C9
:104BA000FE24CE010E94B524CE010E9466258C838E
:104BB0008C8101C080E0DF91CF9108950F931F9306
:104BC000CF93DF931F92CDB7DEB78C0169830E942C
:104BD0006C246981C8010F90DF91CF911F910F91D3
:104BE0000C946D240C946D241F93CF93DF93EC01F0
:104BF000162F0E94872481110EC062E0CE010E9410
:104C0000FE24CE010E948724612FCE01DF91CF9137
:104C10001F910C94FE24DF91CF911F910895EF9284
:104C2000FF920F931F93CF93DF931F92CDB7DEB701
:104C30007C01DC0112968D919C911397062F10E058
:104C4000009749F02D913C912017310779F1698344
:104C50000E94F0366981F70111830083F3E06F9FB2
:104C6000C00111240E945836D70113969C938E934D
:104C70001297892B21F48EE591E00E94A93780E0FC
:104C800090E0F701408151819A01220F331F240FD8
:104C9000351F8217930750F4D7011296ED91FC91BE
:104CA0001397E80FF91F10820196EBCF0F90DF9159
:104CB000CF911F910F91FF90EF900895CF93DF93C5
:104CC000EC01862F262F30E0F901E655FF4FE491E5
:104CD000E887F901E254FF4FE491F0E0EE0FFF1F87
:104CE000E452FF4F259134913D832C8361E00E9473
:104CF000402D60E2CE01DF91CF910C940F26CF932F
:104D0000DF93EC01862F262F30E0F901E655FF4FA7
:104D1000E491E887F901E254FF4FE491F0E0EE0FEF
:104D2000FF1FE452FF4F259134913D832C8361E0B6
:104D30000E94402D60E2CE01DF91CF910C940F26AE
:104D40000F93FC01A62FB0E080819181A817B907CD
:104D5000B8F4862F880F860F90E0A281B381A80F48
:104D6000B91F2C93A281B381A80FB91F11964C9340
:104D70000280F381E02DE80FF91F028381E001C07A
:104D800080E00F910895CF92DF92EF92FF920F9300
:104D90001F93CF93DF937C01142FD22EC02E61116D
:104DA00013C0C0E0D0E0F70180819181C817D90716
:104DB00048F40C2D2D2D412F6C2FC7010E94A026E9
:104DC0002196F1CF81E004C061500E94A02680E0CE
:104DD000DF91CF911F910F91FF90EF90DF90CF90D7
:104DE00008950F931F93D8013FB7F8949C91822F99
:104DF00080958923292BFB01460F571FE417F507E0
:104E000081F0919168E02C9300C097FF8C93990FEB
:104E100000C000C000C008F48C9300C06A9599F7E8
:104E2000EDCF3FBF1F910F9108950F931F93FC018A
:104E30000481158120813181A901440F551F420F42
:104E4000531F6281738120850E94F12661E070E02A
:104E500080E090E01F910F910C942D2CCF93DF9365
:104E6000EC018A819B810E94F0361B821A82DF91BD
:104E7000CF9108950F931F93CF93DF931F92CDB7D8
:104E8000DEB78C0169830E946C24F80134968FE0B0
:104E9000DF011D928A95E9F76981C8010F90DF91C2
:104EA000CF911F910F910C946D240C946D240F934E
:104EB000611116C060E070E0FC01E60FF71F24836B
:104EC000FB013196E80FF91F4483FB013296E80F8E
:104ED000F91F04836D5F7F4F6F30710569F718C04C
:104EE0006630B0F470E061507109E62FEE0FE60F06
:104EF000F0E0DC01AE0FBF1F14962C93DF0111967A
:104F0000A80FB91F14964C933296E80FF91F04832B
:104F10000F9108950F931F93CF93DF93EC010E949D
:104F20008724811117C062E0CE010E94FE24CE01C9
:104F30000E94872481110EC000E010E0FE01E00F06
:104F4000F11F6481CE010E94FE240F5F1F4F0F30BE
:104F50001105A1F7DF91CF911F910F910895FC01E9
:104F600060830895FC01608308950C94AF27FC01D1
:104F700080810E949B2C2FEF33E0A901481B590B25
:104F8000CA0108950F931F93CF93DF931F92CDB75C
:104F9000DEB78C0169830E94A00E6981F8016687E3
:104FA000C8010F90DF91CF911F910F910C94A10E2A
:104FB0000C94A10ECF92DF92EF92FF920F931F936A
:104FC000CF93DF93CDB7DEB72C970FB6F894DEBF43
:104FD0000FBECDBF8C010E94D30EC8010E94DF0F0F
:104FE00040E064E4C8010E94790F0E94FE2B6B012F
:104FF0007C01C8010E94B70E81110BC00E94FE2BDC
:105000006C197D098E099F096E3E724081059105DC
:1050100080F3C8010E94D30EC8010E94DF0F40E058
:105020006EEBC8010E94790FCE0101967C016E01E2
:1050300096E0C90ED11CC8010E94C30FF7018193ED
:105040007F01EC15FD05B9F76A8170E0762F6627C0
:105050008981682B882777FD8095982F0E94CD3312
:1050600020E030E040E85DE30E9400352C960FB66A
:10507000F894DEBF0FBECDBFDF91CF911F910F918E
:10508000FF90EF90DF90CF9008950F931F93CF93F1
:10509000DF931F92CDB7DEB78C0169830E946C2429
:1050A0006981C8010F90DF91CF911F910F910C94EE
:1050B0006D240C946D24CF93DF93EC010E94872420
:1050C00081110DC062E0CE010E94FE24CE010E943B
:1050D000B524CE010E9466258C838C8101C080E0BE
:1050E000DF91CF910895CF93DF931F92CDB7DEB7B5
:1050F00069830E945B28982F6981613019F06230C2
:1051000029F008C081E0923041F408C081E091307C
:1051100021F404C081E0911101C080E00F90DF9183
:10512000CF9108950F931F93CF93DF931F92CDB725
:10513000DEB78C0169830E946C246981C8010F90DD
:10514000DF91CF911F910F910C946D240C946D24DD
:10515000CF93DF93EC010E94872481110DC062E0A0
:10516000CE010E94FE24CE010E94B524CE010E94F1
:1051700066258C838C8101C080E0DF91CF910895FA
:10518000CF93DF93EC010E94872481110FC064E06C
:10519000CE010E94FE24CE010E948724811106C008
:1051A0006C85CE01DF91CF910C94FE24DF91CF91DD
:1051B00008950F931F93CF93DF931F92CDB7DEB760
:1051C0008C0169830E946C24F80116821782108674
:1051D00011861286138614866981C8010F90DF91AB
:1051E000CF911F910F910C946D240C946D24CF924C
:1051F000DF92EF92FF92CF93DF93EC010E9487241E
:10520000882339F0C12CD12C8AEFE82E83E4F82EC4
:1052100027C062E0CE010E94FE24CE010E94B52488
:10522000CE010E9466258C83CE010E9466258D8367
:105230008D816C8170E0782B80E090E00E94CB3310
:105240002CE53FE84CE851E40E9432336B017C01CD
:1052500020E030E04AEF53E40E94F534181694F24F
:10526000C701B601DF91CF91FF90EF90DF90CF9013
:105270000895CF93DF93EC010E948724811123C00E
:1052800063E0CE010E94FE24CE010E94872481119A
:105290001AC06E81CE010E94FE246F81CE010E9451
:1052A000FE246885CE010E94FE246985CE010E94FD
:1052B000FE246A85CE010E94FE246B85CE01DF911B
:1052C000CF910C94FE24DF91CF9108950F93FC01B0
:1052D00060FF03C046832783008761FF03C04187C7
:1052E00022870387637021F0CF010F910C94392935
:1052F0000F910895637061F0FC012485442319F037
:10530000262B248703C06095622364870C94C028F1
:1053100008950F931F93CF93DF931F92CDB7DEB7FE
:105320008C0169830E946C246981C8010F90DF9110
:10533000CF911F910F910C946D240C946D240F93B9
:105340001F93CF93DF931F92CDB7DEB78C01698394
:105350000E948724698181110DC0662311F062E0EB
:1053600001C063E0C8010F90DF91CF911F910F91B1
:105370000C94FE240F90DF91CF911F910F9108950F
:105380001F920F920FB60F9211242F933F934F93BA
:105390005F936F937F938F939F93AF93BF93EF939D
:1053A000FF938091020487FF05C010928500109240
:1053B00084001AC020910204332727FD3095809184
:1053C000010490E0281739077CF4809102049927A2
:1053D00087FD9095FC01EE0FFF1FE80FF91FED5FB1
:1053E000FB4F808187FD15C0809102048F5F809301
:1053F000020420910204332727FD30958091010497
:1054000090E028173907BCF4809102048C305CF1DD
:1054100012C080910204992787FD9095FC01EE0F40
:10542000FF1FE80FF91FED5FFB4F808160E08F7772
:105430000E94792DD9CF80918400909185000496A7
:1054400080349C4918F480E49CE905C08091840074
:1054500090918500049690938900809388008FEF47
:105460008093020438C0209184003091850080919F
:105470000204992787FD9095FC01EE0FFF1FE80FAE
:10548000F91FED5FFB4F81819281820F931F9093F3
:1054900089008093880080910204992787FD909568
:1054A000FC01EE0FFF1FE80FF91FED5FFB4F80813E
:1054B00087FF11C080910204992787FD9095FC0118
:1054C000EE0FFF1FE80FF91FED5FFB4F808161E0DA
:1054D0008F770E94792DFF91EF91BF91AF919F91AE
:1054E0008F917F916F915F914F913F912F910F908D
:1054F0000FBE0F901F901895209101042C30A0F43E
:1055000031E0320F30930104FC012083822F90E0C0
:10551000FC01EE0FFF1FE80FF91FED5FFB4F88EB5B
:105520009BE09283818308952FEFFC0120830895EF
:10553000DF92EF92FF920F931F93CF93DF93EC01D3
:10554000D62E7A01890188818C3008F066C061E02E
:105550008D2D0E94402D8881A82FB0E0FD01EE0F17
:10556000FF1FEA0FFB1FED5FFB4F2D2D2F77908163
:105570009078922B908360E272E06E197F0977FF3A
:1055800002C06D5F7F4F75956795759567956983C7
:1055900040E659E0401B510B57FF02C04D5F5F4F83
:1055A00055954795559547954A836CE00E94C335BC
:1055B0009CE0899FB001112420E030E0A901460F52
:1055C000571FFA01EE0FFF1FE40FF51FED5FFB4FB2
:1055D000908197FD16C02F5F3F4F2C30310571F73A
:1055E00081110FC01092800082E0809381001092A0
:1055F000850010928400B19A80916F008260809340
:105600006F00888190E0FC01EE0FFF1FE80FF91F8B
:10561000ED5FFB4F8081806880838881DF91CF912F
:105620001F910F91FF90EF90DF90089520E639E0F1
:1056300040E252E00C94982AFC0180818C3070F595
:10564000918128E830E0291B310997FD3395220F1D
:10565000331F220F331F621773077CF0928128E5F6
:1056600032E0291B310997FD3395220F331F220F9A
:10567000331F621773070CF49B0122503109220F6C
:10568000331F4FB7F89490E0FC01EE0FFF1FE80FB7
:10569000F91FED5FFB4F328321834FBF08954F9277
:1056A0005F926F927F92AF92BF92CF92DF92EF9212
:1056B000FF920F931F93CF93DF93EC01603282E050
:1056C00078070CF040C077FD06C0653B71052CF0F3
:1056D00064EB70E002C060E070E0898128E830E0AF
:1056E000281B310987FD3395220F331F220F331FEB
:1056F0005901CC24B7FCC094DC2C882777FD809519
:10570000982F2A8148E552E0421B510927FD539505
:10571000440F551F440F551F2A01662457FC6094FF
:10572000762C7F926F925F924F9214EBE12EF12CC8
:1057300000E010E020E030E0A9010E941F320F904D
:105740000F900F900F90CE01DF91CF911F910F918D
:10575000FF90EF90DF90CF90BF90AF907F906F90D1
:105760005F904F900C941C2B1F920F920FB60F92CC
:1057700011242F933F938F939F93AF93BF93809167
:10578000280490912904A0912A04B0912B0430910F
:10579000270423E0230F2D3720F40196A11DB11D0E
:1057A00005C026E8230F0296A11DB11D20932704F2
:1057B0008093280490932904A0932A04B0932B0487
:1057C00080912C0490912D04A0912E04B0912F046F
:1057D0000196A11DB11D80932C0490932D04A093DC
:1057E0002E04B0932F04BF91AF919F918F913F9161
:1057F0002F910F900FBE0F901F9018952FB7F89410
:10580000609128047091290480912A0490912B04BE
:105810002FBF08953FB7F89480912C0490912D04E8
:10582000A0912E04B0912F0426B5A89B05C02F3F50
:1058300019F00196A11DB11D3FBF6627782F892F52
:105840009A2F620F711D811D911D42E0660F771F17
:10585000881F991F4A95D1F70895CF92DF92EF9252
:10586000FF92CF93DF936B017C010E940A2CEB0126
:10587000C114D104E104F10489F00E9466320E944F
:105880000A2C6C1B7D0B683E734090F381E0C81AB4
:10589000D108E108F108C851DC4FEACFDF91CF9180
:1058A000FF90EF90DF90CF9008958230910538F00F
:1058B000880F991F880F991F05970197F1F7089591
:1058C000789484B5826084BD84B5816084BD85B5DB
:1058D000826085BD85B5816085BDEEE6F0E08081A2
:1058E00081608083E1E8F0E01082808182608083C3
:1058F000808181608083E0E8F0E080818160808346
:10590000E1EBF0E0808184608083E0EBF0E0808177
:1059100081608083EAE7F0E0808184608083808119
:1059200082608083808181608083808180688083C1
:105930001092C10008958E3008F08E50877020912B
:10594000220190E4299F90011124822B80937C00F6
:1059500080917A00806480937A0080917A0086FD3D
:10596000FCCF809178002091790090E0922B0895EF
:105970001F93CF93DF93182FEB0161E00E94402D1E
:10598000209711F460E004C0CF3FD10539F461E005
:10599000812FDF91CF911F910C94792DE12FF0E0B1
:1059A000EA56FF4FE491E330F9F048F4E130B9F002
:1059B000E230A1F584B5806284BDC8BD34C0E73053
:1059C000E9F0E83019F1E43049F580918000806217
:1059D00080938000D0938B00C0938A0024C084B54C
:1059E000806884BDC7BD1FC080918000806880939F
:1059F0008000D0938900C093880015C08091B000CA
:105A000080688093B000C093B3000DC08091B00057
:105A100080628093B000C093B40005C0C038D10547
:105A20000CF0B5CFAFCFDF91CF911F9108958330A8
:105A300081F028F4813099F08230A1F00895873008
:105A4000A9F08830B9F08430D1F4809180008F7D46
:105A500003C0809180008F7780938000089584B583
:105A60008F7702C084B58F7D84BD08958091B0008A
:105A70008F7703C08091B0008F7D8093B000089530
:105A8000CF93DF9390E0FC01E655FF4F2491FC019A
:105A9000E254FF4F8491882349F190E0880F991FC9
:105AA000FC01EA51FF4FA591B49184529F4FFC0134
:105AB000C591D4919FB7611108C0F8948C9120953D
:105AC00082238C93888182230AC0623051F4F89437
:105AD0008C91322F309583238C938881822B8883FD
